:100000000C9470150C949A150C949A150C949A15DE
:100010000C949A150C949A150C949A150C949A15A4
:100020000C949A150C949A150C94C6C90C9443CA56
:100030000C949A150C949A150C949A150C949A1584
:100040000C949A150C9443A20C949A150C949A153E
:100050000C949A150C949A150C9411B70C9425C90C
:100060000C949A150C949A150C949A150C949A1554
:100070000C949A150C949A150C949A150C949A1544
:100080000C949A150C949A150C949A150C949A1534
:100090000C94CBBF0C949A15B4C6E0C602C702C735
:1000A00002C702C702C702C702C702C702C702C708
:1000B00002C702C7F8C6F0C6E8C602C702C702C731
:1000C00002C702C702C702C7DAC6C0C6C8C6D2C6C0
:1000D000084AD73B3BCE016E84BCBFFDC12F3D6CAF
:1000E00074319ABD56833DDA3D00C77F11BED9E415
:1000F000BB4C3E916BAAAABE000000803F05A84CF5
:10010000CDB2D44EB93836A9020C50B991868808C0
:100110003CA6AAAA2ABE000000803F07634236B769
:100120009BD8A71A39685618AEBAAB558C1D3CB788
:10013000CC5763BD6DEDFD753EF6177231BF000003
:1001400000803F08000000BE922449123EABAAAADC
:100150002ABECDCCCC4C3E00000080BEABAAAAAAE1
:100160003E00000000BF000000803F0000000000D3
:10017000084178D3BB4387D1133D190E3CC3BD4220
:1001800082AD2B3E68EC8276BED98FE1A93E4C80D1
:10019000EFFFBE01C4FF7F3F0000000000004E41A2
:1001A0004E494E495459494E46CDCCCC3D0AD723F1
:1001B0003C17B7D13877CC2B329595E6241FB14F39
:1001C0000A000020410000C84200401C4620BCBE7E
:1001D0004CCA1B0E5AAEC59D743F53706563696669
:1001E00069656420582C5920636F6F7264696E6171
:1001F0007465206F7574206F6620626F756E64730E
:100200002E0A003F28522965706561742076616C62
:100210007565206E6F7420706C61757369626C65B2
:100220003B206D757374206265206174206C65617C
:10023000737420312E0A003F28522965706561745D
:10024000206D7573742062652073706563696669DB
:100250006564207768656E206E6F74207573696EB3
:100260006720616E204C43442E0A003F5370656343
:100270006966696564206E6F7A7A6C652074656D55
:100280007065726174757265206E6F7420706C6138
:10029000757369626C652E0A003F53706563696609
:1002A0006965642066696C616D656E742073697A36
:1002B00065206E6F7420706C61757369626C652E59
:1002C0000A003F53706563696669656420707269EE
:1002D0006D65206C656E677468206E6F7420706C3D
:1002E00061757369626C652E0A003F5072696D65B5
:1002F000206C656E677468206D757374206265206C
:10030000737065636966696564207768656E206EE1
:100310006F74207573696E6720616E204C43442EA4
:100320000A003F537065636966696564206E6F7A81
:100330007A6C652073697A65206E6F7420706C61C9
:10034000757369626C652E0A003F52657472616351
:1003500074696F6E204D756C7469706C696572207C
:100360006D75737420626520737065636966696575
:10037000642E0A003F5370656369666965642052A4
:10038000657472616374696F6E204D756C74697009
:100390006C696572206E6F7420706C617573696230
:1003A0006C652E0A003F5370656369666965642059
:1003B0006C6179657220686569676874206E6F7416
:1003C00020706C61757369626C652E0A003F537012
:1003D00065636966696564206265642074656D7033
:1003E00065726174757265206E6F7420706C6175D2
:1003F0007369626C65202834302D31343043292EE6
:100400000A0047323620636F6D6D616E642073742D
:1004100061727465642E2057616974696E67206625
:100420006F72206865617465722873292E0A0069ED
:100430006E206D6F76655F746F2829206665656430
:100440005F76616C756520666F722058593A002C92
:100450002065793D0029202D3E202865783D002C1F
:100460002073793D0020436F6E6E656374696E671B
:10047000207769746820766572746963616C206C9A
:10048000696E65202873783D002C2065793D002930
:10049000202D3E202865783D002C2073793D0020DA
:1004A000436F6E6E656374696E6720776974682048
:1004B000686F72697A6F6E74616C206C696E65200A
:1004C0002873783D002020506C616E6E6572427515
:1004D0006666657242797465733A200020467265DB
:1004E00065204D656D6F72793A2000436F6D7069BC
:1004F0006C65643A204665622032332032303139EF
:100500000A00207C20417574686F723A202844727A
:100510002E5068696C3344290A00323031382D304E
:10052000382D303100204C61737420557064617433
:1005300065643A2000312E312E390A004D61726C0B
:10054000696E0020536F667477617265205265731F
:1005500065740A00205761746368646F6720526590
:100560007365740A002042726F776E206F75742075
:1005700052657365740A002045787465726E616C0B
:100580002052657365740A00506F77657255700A62
:100590000073746172740A005072696E746572201F
:1005A00068616C7465642E206B696C6C282920630B
:1005B000616C6C6564210A004B494C4C45442E200B
:1005C000004B494C4C20636175736564206279204F
:1005D000746F6F206D75636820696E6163746976EE
:1005E000652074696D65202D2063757272656E7467
:1005F00020636F6D6D616E643A200020746F6F2010
:100600006C6F6E6720657874727573696F6E207099
:10061000726576656E7465640A0020636F6C642091
:10062000657874727573696F6E2070726576656E29
:100630007465640A006F6B00526573656E643A20DE
:10064000003A004361703A0000011C1D132FFFFFA8
:10065000FFFF1E1F12FF18FFFFFF20211124FFFFC5
:10066000FFFFFFFFFF0E10FFFFFF22230DFFFFFF25
:100670000E260F2C274163746976652045787472C5
:10068000756465723A200020453A00205A3A0020ED
:10069000593A00583A002C20002C2000206E6F742C
:1006A00020656E74657265642E0A003C3C3C2073C4
:1006B00065745F617869735F69735F61745F686FA8
:1006C0006D652800202063757272656E745F706FAF
:1006D000736974696F6E3D00203A200A005D203D09
:1006E00020003E20686F6D655F6F66667365745BA2
:1006F000003E207A70726F62655F7A6F666673651E
:1007000074203D20002A2A2A205A20484F4D454473
:1007100020574954482050524F424520285A5F4D97
:10072000494E5F50524F42455F555345535F5A5FA4
:100730004D494E5F454E4453544F505F50494E29EA
:10074000202A2A2A0A003E3E3E207365745F6178A3
:1007500069735F69735F61745F686F6D6528003CE2
:100760003C3C20646F5F686F6D696E675F6D6F768C
:10077000652800290A005B002C20002C20003E3E4A
:100780003E20646F5F686F6D696E675F6D6F766541
:1007900028003C3C3C20686F6D65617869732800D7
:1007A000202063757272656E745F706F736974690F
:1007B0006F6E3D00203A203E204146544552207342
:1007C00065745F617869735F69735F61745F686F97
:1007D0006D650A00486F6D65203220536C6F773A63
:1007E0000A004D6F766520417761793A0A00486FBB
:1007F0006D65203120466173743A0A003E3E3E200A
:10080000686F6D6561786973280020286469736179
:10081000626C656429002028004D424C2041646AC6
:100820007573746D656E74205A002028656E616260
:100830006C6564290A004D65736820426564204C2C
:100840006576656C696E6700204E6F7A7A6C6529F3
:100850000A0020262053616D65205A206173002014
:10086000262041626F76650020262042656C6F77F6
:10087000002D43656E7465720020285269676874A4
:1008800000205A3A0020593A0050726F6265204F9A
:10089000666673657420583A004649585F4D4F5557
:1008A0004E5445445F50524F42450A0050726F62A9
:1008B000653A200043617274657369616E0A004D88
:1008C000616368696E6520547970653A20006275CD
:1008D00073793A2070617573656420666F72206960
:1008E0006E7075740A00627573793A207061757361
:1008F000656420666F7220757365720A0062757395
:10090000793A2070726F63657373696E670A00725B
:10091000657365745F6265645F6C6576656C0A001B
:10092000202063757272656E745F706F736974698D
:100930006F6E3D00203A203C3C3C20646F5F70723B
:100940006F62655F6D6F76650A0020206375727255
:10095000656E745F706F736974696F6E3D00203AE5
:10096000203E3E3E20646F5F70726F62655F6D6F08
:1009700076650A00202063757272656E745F706F11
:10098000736974696F6E3D00203A203C3C3C2072D4
:10099000756E5F7A5F70726F62650A002020637502
:1009A0007272656E745F706F736974696F6E3D000B
:1009B000203A203C3C3C2072756E5F7A5F70726F0B
:1009C00062650A00534C4F572050726F6265206673
:1009D00061696C210A00202063757272656E745F14
:1009E000706F736974696F6E3D00203A203E3E3E21
:1009F0002072756E5F7A5F70726F62650A003C3CB0
:100A00003C2070726F62655F70740A0050726F6292
:100A1000696E67206661696C65640A00205A3A2035
:100A20000020593A200042656420583A20002020D6
:100A300063757272656E745F706F736974696F6EDF
:100A40003D00203A200A005F72656C61746976652A
:100A5000290A002C20002C20002C20002C20003EF5
:100A60003E3E2070726F62655F707428006465702E
:100A70006C6F793A2000202063757272656E745F26
:100A8000706F736974696F6E3D00203A20736574EE
:100A90005F70726F62655F6465706C6F7965640A20
:100AA000002066697273740A005A005900580048A1
:100AB0006F6D652000202063757272656E745F70C3
:100AC0006F736974696F6E3D00203A20636C6561D5
:100AD0006E5F75705F61667465725F656E64737476
:100AE0006F705F6F725F70726F62655F6D6F76655A
:100AF0000A00202063757272656E745F706F73698F
:100B000074696F6E3D00203A2073657475705F667E
:100B10006F725F656E6473746F705F6F725F707217
:100B20006F62655F6D6F76650A003C3C3C20646FC8
:100B30005F626C6F636B696E675F6D6F76655F7424
:100B40006F0A003E3E3E20646F5F626C6F636B69AC
:100B50006E675F6D6F76655F746F000A20736F66F6
:100B6000745F656E6473746F705F6D6178203D2093
:100B7000000A20736F66745F656E6473746F705FD4
:100B80006D696E203D20000A20706F736974696F73
:100B90006E5F7368696674203D2000206178697318
:100BA0003A0A20686F6D655F6F6666736574203DF5
:100BB0002000466F72200020496E76616C696420C7
:100BC00065787472756465722000656E71756575FF
:100BD00065696E67202200202063757272656E74ED
:100BE0005F706F736974696F6E3D00203A2073798E
:100BF0006E635F706C616E5F706F736974696F6E46
:100C00000A002C20002C20003C3C3C2067636F64D1
:100C1000655F540A00203A2041465445520A00209C
:100C20002063757272656E745F706F736974696F3B
:100C30006E3D00203A204245464F52450A00202092
:100C400063757272656E745F706F736974696F6ECD
:100C50003D003E3E3E2067636F64655F5428004957
:100C60006E76616C69642065787472756465720A69
:100C7000004E6F2063617365206C696768740A00B9
:100C8000416476616E6365204B3D003F4B20766189
:100C90006C7565206F7574206F662072616E676574
:100CA0002028302D3130292E0A0020595A3A2000B0
:100CB00020585A3A2000536B657720466163746F61
:100CC000722058593A20006D696E5F736B65775FCB
:100CD000666163746F723A20202D31206D61785FF8
:100CE000736B65775F666163746F723A2020310AB7
:100CF000003A200050726F6265205A204F6666737A
:100D00006574003F5A206F7574206F662072616EA3
:100D1000676520282D332E3520746F203230290A44
:100D200000454550524F4D204F4B0A00546F6F20E5
:100D30006661722066726F6D207265666572656E9F
:100D4000636520706F696E740A004D65736820706A
:100D50006F696E742063616E6E6F742062652072BD
:100D600065736F6C7665640A004D34323120696EAC
:100D7000636F727265637420706172616D65746512
:100D8000722075736167650A004F66660A004661E6
:100D90006465204865696768742000426564204C7A
:100DA0006576656C696E6720004661696C656420D4
:100DB000746F20656E61626C6520426564204C65CD
:100DC00076656C696E670A004D65736820426564DC
:100DD000204C6576656C20646174613A0A00432991
:100DE0000A0061626C656420286D696E2074656D0F
:100DF000702000436F6C642065787472756465734D
:100E0000206172652000496E76616C6964206578A6
:100E10007472756465720A0020643A0020693A00B1
:100E200020703A0020466C6F773A2000205A00204C
:100E30005900580020204D61783A2000205A0020A7
:100E40005900580020204D696E3A20004F66660018
:100E50004F6E2000536F667420656E6473746F70FC
:100E6000733A20005741524E494E4721204C6F772C
:100E7000205A204A65726B206D6179206C6561642F
:100E800020746F20756E77616E7465642070617573
:100E90007365732E0A00205400205200416363657D
:100EA0006C65726174696F6E3A2050002F2F2000BC
:100EB000544845524D414C5F50524F54454354495C
:100EC0004F4E004155544F5245504F52545F53447A
:100ED0005F53544154555300454D455247454E4389
:100EE000595F50415253455200434153455F4C496D
:100EF0004748545F4252494748544E455353005463
:100F00004F47474C455F4C494748545300534F4661
:100F100054574152455F504F574552004255494C36
:100F2000445F50455243454E54004C4556454C494C
:100F30004E475F44415441005A5F50524F42450072
:100F40004155544F4C4556454C005052494E545F04
:100F50004A4F420050524F47524553530041555457
:100F60004F5245504F52545F54454D5000564F4CD0
:100F7000554D455452494300454550524F4D00533D
:100F8000455249414C5F584F4E5F584F46460046C8
:100F900049524D574152455F4E414D453A4D617260
:100FA0006C696E20312E312E39202847697468759E
:100FB000622920534F555243455F434F44455F5587
:100FC000524C3A68747470733A2F2F67697468755D
:100FD000622E636F6D2F4D61726C696E4669726D22
:100FE000776172652F4D61726C696E2050524F545B
:100FF0004F434F4C5F56455253494F4E3A312E3076
:10100000204D414348494E455F545950453A50722E
:10101000696E7472626F7420506C61792056322050
:101020004865617465642042656420455854525592
:101030004445525F434F554E543A3120555549442B
:101040003A63316631316537342D316664322D347F
:101050003534352D623765352D626138623337336B
:1010600035623763300A004D3131332053006F66EB
:10107000660044454255473A00AF10AA10A3109CA1
:10108000108E1085104C4556454C494E4700434F35
:101090004D4D554E49434154494F4E0044525952CB
:1010A000554E004552524F525300494E464F00454F
:1010B00043484F0020573A004B494C4C45442E20A2
:1010C000006F6B006F66662E0A006F6E2E0A004777
:1010D000323620446562756720005374616E646126
:1010E000726420446576696174696F6E3A200020ED
:1010F00052616E67653A2000204D61783A200020E9
:101100004D696E3A20004D65616E3A200046696E69
:101110006973686564210A002072616E67653A2010
:1011200000206D61783A2000206D696E3A20002021
:101130007369676D613A2000206D65616E3A200029
:101140003A207A3A2000206F662000205A00205969
:1011500000205800476F696E6720746F3A00436C37
:101160006F636B776973650A00436F756E746572A0
:101170002D0020446972656374696F6E3A20002007
:101180002020616E676C653A200053746172746947
:101190006E67207261646975733A2000506F7369DD
:1011A00074696F6E696E67207468652070726F6213
:1011B000652E2E2E0A003F4E756D626572206F6699
:1011C000206C65677320696E206D6F76656D656E46
:1011D00074206E6F7420706C61757369626C652029
:1011E00028302D3135292E0A003F2028582C592926
:1011F000206F7574206F6620626F756E64732E0A9F
:10120000003F53616D706C652073697A65206E6F65
:101210007420706C61757369626C652028342D359B
:1012200030292E0A004D3438205A2D50726F6265D5
:10123000205265706561746162696C6974792054CB
:101240006573740A003F2856296572626F736520C2
:101250006C6576656C20697320696D706C6175735F
:1012600069626C652028302D34292E0A0050726F77
:101270007465637465642050696E0A005072696E0B
:10128000742074696D653A20004D65736820706F35
:10129000696E742063616E6E6F7420626520726582
:1012A000736F6C7665640A00205A3A200020593A20
:1012B000200042656420583A2000206F6620004DCF
:1012C000424C2047323920706F696E7420005920DB
:1012D0006F7574206F662072616E67652028312DEE
:1012E00032292E0A0058206F7574206F66207261B3
:1012F0006E67652028312D32292E0A004D657368EE
:101300002070726F62696E6720646F6E652E0A00CE
:101310005374617274206D6573682070726F6269B6
:101320006E67207769746820224732392053312252
:101330002066697273742E0A004732380A473239C0
:10134000205332004D65736820626564206C6576B9
:10135000656C696E6720686173206E6F20646174CC
:10136000612E0A0053746174653A200053206F7532
:1013700074206F662072616E67652028302D3529D4
:101380002E0A003C3C3C204732380A005261697307
:1013900065205A20286265666F726520686F6D69E6
:1013A0006E672920746F20003E20656E6473746F31
:1013B00070732E656E61626C652874727565290A9A
:1013C000003C3C3C204732380A003E20686F6D6983
:1013D0006E67206E6F74206E65656465642C207383
:1013E0006B69700A003E3E3E204732380A003C3CA2
:1013F0003C205A5F534146455F484F4D494E470A8E
:1014000000203A205A5F534146455F484F4D494EB0
:10141000470A00202064657374696E6174696F6E99
:101420003D005A5F534146455F484F4D494E472066
:101430003E3E3E0A00486F6D65205859206669722D
:1014400073740A0047322F47332062616420706151
:1014500072616D65746572730A00646F5F70726F9C
:1014600062655F726169736528005761726E696EAB
:10147000673A20486F6D696E672042756D70204431
:10148000697669736F72203C20310A000202044BB6
:10149000494C4C45442E20005072696E7465722090
:1014A00073746F707065642064756520746F206557
:1014B00072726F72732E2046697820746865206599
:1014C00072726F7220616E6420757365204D3939B8
:1014D0003920746F20726573746172742E202854E1
:1014E000656D7065726174757265206973207265CF
:1014F0007365742E20536574206974206166746569
:10150000722072657374617274696E67290A004E85
:101510006F20436865636B73756D2077697468200D
:101520006C696E65206E756D6265722C204C6173FE
:1015300074204C696E653A2000636865636B73754F
:101540006D206D69736D617463682C204C617374D8
:10155000204C696E653A20004C696E65204E756DB1
:10156000626572206973206E6F74204C6173742001
:101570004C696E65204E756D6265722B312C204C66
:10158000617374204C696E653A20004D3131300032
:10159000FF01FF0000A0400000A04000000040004C
:1015A00000C8420000C8420000FA420000000000EB
:1015B00000C842000000000000C8420000C842000D
:1015C00000FA4200000000000000000000000000DF
:1015D0000048420000484200008040000000002512
:1015E00069730025696D20256973002569682025C8
:1015F000696D2025697300256964202569682025A7
:10160000696D202569730025697920256964202585
:1016100069682025696D202569730020204D3930C7
:1016200030204B004C696E65617220416476616EBA
:1016300063653A0A00204B00204A0020204D3835CF
:1016400032204900536B657720466163746F723AAC
:10165000200A0020204D383531205A005A2D507272
:101660006F6265204F6666736574002044002049F0
:101670000020204D33303120500050494420736504
:101680007474696E67733A0A00205A00205900206A
:1016900020473239205333205800205A0020204D53
:1016A0003432302053004D65736820426564204C0D
:1016B0006576656C696E673A0A00205A0020590009
:1016C00020204D323036205800486F6D65206F66FF
:1016D000667365743A0A00204500205A00205900BC
:1016E00020580020540020530020204D3230352057
:1016F000510020453C6D61785F655F6A65726B3EA5
:101700000020583C6D61785F785F6A65726B3E209F
:10171000593C6D61785F795F6A65726B3E205A3C17
:101720006D61785F7A5F6A65726B3E0041647661D5
:101730006E6365643A20513C6D696E5F7365676DD9
:10174000656E745F74696D655F75733E20533C6DA3
:10175000696E5F66656564726174653E20543C6DB8
:10176000696E5F74726176656C5F666565647261EF
:1017700074653E0020540020520020204D32303449
:10178000205000416363656C65726174696F6E20FF
:1017900028756E6974732F7332293A20503C707229
:1017A000696E745F616363656C3E20523C72657460
:1017B000726163745F616363656C3E20543C747254
:1017C0006176656C5F616363656C3E0A002045006D
:1017D000205A0020590020204D3230312058004D31
:1017E0006178696D756D20416363656C65726174C4
:1017F000696F6E2028756E6974732F7332293A0AE7
:1018000000204500205A0020590020204D3230335E
:101810002058004D6178696D756D2066656564724C
:10182000617465732028756E6974732F73293A0A81
:1018300000204500205A0020590020204D39322038
:10184000580053746570732070657220756E6974EA
:101850003A0A0020204D3230302044300A00202047
:101860004D3230302044002044697361626C6564FD
:101870000A0046696C616D656E74207365747469E5
:101880006E67733A00203B002020473200486172A7
:1018900064636F6465642044656661756C7420538D
:1018A000657474696E6773204C6F616465640A00C7
:1018B000E2040000E20400006400000010270000C1
:1018C0000000C8420000C842000000410000204261
:1018D0000000A0420000A0420080FC440000C04282
:1018E000290A002062797465733B206372632000CB
:1018F0002073746F7265642073657474696E6773A6
:1019000020726574726965766564202800202863FA
:10191000616C63756C6174656429210A0020213D46
:101920002000454550524F4D20435243206D69736E
:101930006D61746368202D202873746F726564294B
:1019400020002053697A653A2000496E6465783A30
:101950002000204D61726C696E3D563535290A00B4
:1019600028454550524F4D3D00454550524F4D2062
:1019700076657273696F6E206D69736D61746368EB
:101980002000290A002062797465733B206372632A
:10199000200053657474696E67732053746F7265A9
:1019A00064202800454550524F4D20646174617396
:1019B000697A65206572726F722E0A004572726FC5
:1019C000722077726974696E6720746F2045455084
:1019D000524F4D210A003A0A0020286D6D2900203F
:1019E00028696E29006F70656E005452494747455B
:1019F000524544003A20007A5F6D696E00795F6D50
:101A0000617800785F6D696E005265706F727469FD
:101A10006E6720656E6473746F7020737461747583
:101A2000730A00205A3A0020593A0020583A0065BB
:101A30006E6473746F7073206869743A2000486F25
:101A40006D696E67206661696C6564000A4D656149
:101A5000737572656420706F696E74733A0A005A08
:101A6000206F66667365743A20004E756D20582CA1
:101A7000593A20322C320A00556E6B6E6F776E2009
:101A8000636F6D6D616E643A20220020746F6F2069
:101A90006C6F6E6720657874727573696F6E2070F5
:101AA000726576656E7465640A0020636F6C6420ED
:101AB000657874727573696F6E2070726576656E85
:101AC0007465640A00FFFDFCFAF8F6F4F2F0EEEC3F
:101AD000EAE9E7E5E3E1E0DEDCDAD9D7D5D4D2D034
:101AE000CFCDCBCAC8C7C5C3C2C0BFBDBCBAB9B7CA
:101AF000B6B4B3B2B0AFADACAAA9A8A6A5A4A2A132
:101B0000A09E9D9C9A99989795949392908F8E8D74
:101B10008B8A8988878684838281807F7E7D7B7A99
:101B2000797877767574737271706F6E6D6C6B6A9D
:101B3000696867666564636261605F5E5D5C5B5A8D
:101B40005958585756555453525150504F4E4D4C6A
:101B50004B4A4A4948474646454443424241403F32
:101B60003E3E3D3C3B3B3A393838373635353433E9
:101B700032323130302F2E2E2D2C2B2B2A29292892
:101B8000272726252524232322212120201F1E1E2E
:101B90001D1C1C1B1B1A19191818171616151514BD
:101BA000131312121111100F0F0E0E0D0D0C0C0B42
:101BB0000A0A0909080807070606050504040303BD
:101BC000020201000000000001000000010000808E
:101BD00000555555000000400033333300AAAA2AAF
:101BE000004992240000002000C7711C0099991937
:101BF00000D1451700555515003BB113002449127B
:101C00000011111100000010000F0F0F00E3380E3B
:101C10000043790D00CCCC0C00C3300C00E8A20BC3
:101C20000064210B00AAAA0A00703D0A009DD80991
:101C300000427B090092240900DCD3080088880850
:101C4000001042080000000800F0C1070087870765
:101C50000075500700711C07003EEB0600A1BC0692
:101C6000006990060066660600703E060061180670
:101C70000017F4050074D105005BB00500B29005B3
:101C800000627205005555050078390500B81E053B
:101C900000050505004EEC040087D40400A1BD0436
:101CA0000090A7040049920400C17D0400EE69047D
:101CB00000C7560400444404005C320400082104B8
:101CC0000041100400000004003FF00300F8E003AE
:101CD0000026D20300C3C30300CCB503003AA80317
:101CE000000A9B0300388E0300C08103009F750328
:101CF00000D0690300505E03001D53030034480305
:101D000000913D03003333030016290300381F03FD
:101D10000097150300300C0300030303000BFA02C5
:101D20000049F10200BAE802005CE002002DD8028E
:101D3000002DD0020059C80200B0C0020031B90223
:101D400000DAB10200AAAA0200A0A30200BC9C0211
:101D500000FA9502005C8F0200DF88020082820296
:101D600000457C02002776020027700200436A02C9
:101D7000007C640200D05E02003F590200C853029A
:101D8000006563686F3A004572726F723A00205ABC
:101D90003A0020593A0020436F756E7420583A007B
:101DA000232C0000B8220000561800003A0F000053
:101DB000B8080000B1040000710200003E010000FC
:101DC00024F4D43050C38E20C2A24017828B7011ED
:101DD000127A910D816CD90AA861E108C75866078B
:101DE000615143061E4B5D05C145A7041A4111040C
:101DF000093D9803713931034036DB0265339102A6
:101E0000D4305402802E1D02632CEE01752AC501C8
:101E1000B028A001102781018F2564012B244B01DC
:101E2000E0223401AC211F018D200D01801FFC0038
:101E3000841EED00971DDF00B81CD200E61BC60013
:101E4000201BBC00641AB200B219A8000A19A00035
:101E50006A189900D117910040178B00B5168400BD
:101E600031167E00B31579003A157300C7146F0060
:101E700058146A00EE1366008813630025135E0091
:101E8000C7125B006C12570015125400C1115100AB
:101E900070114F0021114B00D61049008D104700E2
:101EA0004610440002104200C00F4000800F3E0068
:101EB000420F3C00060F3B00CB0E3800930E37005C
:101EC0005C0E3500270E3400F30D3200C10D3100D9
:101ED000900D3000600D2E00320D2D00050D2C00F0
:101EE000D90C2B00AE0C2900850C29005C0C2700B6
:101EF000350C27000E0C2600E80B2400C40B240030
:101F0000A00B23007D0B23005A0B2100390B21006D
:101F1000180B2000F80A1F00D90A1E00BB0A1E0079
:101F20009D0A1D00800A1D00630A1C00470A1B0051
:101F30002C0A1B00110A1A00F7091A00DD09190002
:101F4000C4091900AB091900920917007B09180090
:101F5000630917004C0916003609160020091600FF
:101F60000A091500F5081500E0081400CC08140053
:101F7000B8081400A4081400900813007D0812008B
:101F80006B081300580812004608120034081100AC
:101F9000230811001208110001081100F0071000B9
:101FA000E0071000D0071000C0071000B0070F00B6
:101FB000A107100091070E0083070F0074070F00A0
:101FC00065070E0057070E0049070E003B070D007E
:101FD0002E070E0020070D0013070D0006070D0049
:101FE000F9060C00ED060D00E0060C00D4060C000E
:101FF000C8060C00BC060C00B0060C00A4060B00C2
:1020000099060C008D060B0082060B0077060B006C
:102010006C060B0061060A0057060B004C060A000E
:1020200042060A0038060A002E060A0024060A00A4
:102030001A060A001006090007060A00FD05090035
:10204000F4050900EB050900E2050900D9050900BE
:10205000D0050900C7050900BE050900B50508003F
:10206000AD050800A50509009C05080094050800B9
:102070008C050800840508007C050800740508002C
:102080006C050700650508005D050700560508009A
:102090004E05070047050700400508003805070002
:1020A000310507002A050700230507001C05060067
:1020B000160507000F0507000805060002050700C2
:1020C000FB040600F5040700EE040600E804060021
:1020D000E2040700DB040600D5040600CF04060076
:1020E000C9040600C3040600BD040600B7040600C8
:1020F000B1040500AC040600A6040600A004050017
:102100009B04060095040500900406008A0405005F
:1021100085040500800406007A04050075040500A6
:10212000700405006B0405006604050061040500E9
:102130005C04050057040500520405004D04050029
:1021400048040500430405003E0404003A04050069
:1021500035040500300404002C04050027040400A5
:10216000230405001E0404001A04040016040500DC
:10217000110404000D040400090405000404040013
:1021800000040400FC030400F8030400F40304004A
:10219000F0030400EC030400E8030400E40304007B
:1021A000E0030400DC030400D8030400D4030400AB
:1021B000D0030400CC030400C8030300C5030300DC
:1021C00024F404D9201BC40C5C0E9804C4095F02DB
:1021D00065077101F405F900FB04B30048048700AA
:1021E000C10369005803550003034500BE023A00CD
:1021F0008402310053022A00290225000402200033
:10220000E4011C00C8011900AF0117009801140077
:1022100084011300710110006101100051010E00D2
:1022200043010D0036010B002B010B0020010B00B8
:10223000150109000C01090003010800FB0008005A
:10224000F3000800EB000700E4000600DE000600D3
:10225000D8000600D2000600CC000500C70005002B
:10226000C2000500BD000400B9000400B500040070
:10227000B1000400AD000400A9000400A5000300A3
:10228000A20003009F0004009B00030098000300CD
:102290009500020093000300900003008D000200EF
:1022A0008B00030088000200860002008400030007
:1022B000810002007F0002007D0002007B0002001E
:1022C000790002007700010076000200740002002D
:1022D00072000100710002006F0002006D00010039
:1022E0006C0002006A000100690002006700010042
:1022F0006600010065000100640002006200010048
:1023000061000100600001005F0002005D0001004B
:102310005C0001005B0001005A000100590001004F
:10232000580001005700010056000100550001004F
:10233000540001005300000053000100520001004E
:1023400051000100500001004F0001004E0000004C
:102350004E0001004D0001004C0001004B00000048
:102360004B0001004A000100490001004800000044
:10237000480001004700010046000000460001003F
:10238000450000004500010044000100430000003A
:102390004300010042000000420001004100000033
:1023A00041000100400001003F0000003F0001002B
:1023B0003E0000003E0001003D0000003D00010025
:1023C0003C0000003C0000003C0001003B0000001D
:1023D0003B0001003A0000003A0001003900000013
:1023E000390001003800000038000000380001000A
:1023F0003700000037000100360000003600000002
:1024000036000100350000003500000035000100F5
:1024100034000000340000003400010033000000EC
:1024200033000000330001003200000032000000E1
:1024300032000100310000003100000031000100D5
:102440003000000030000000300001002F000000CC
:102450002F0000002F0000002F0001002E000000C0
:102460002E0000002E0001002D0000002D000000B5
:102470002D0000002D0001002C0000002C000000A9
:102480002C0000002C0001002B0000002B0000009D
:102490002B0000002B0001002A0000002A00000091
:1024A0002A0000002A000100290000002900000085
:1024B0002900000029000000290001002800000078
:1024C000280000002800000028000000280001006B
:1024D0002700000027000000270000002700000060
:1024E0002700010026000000260000002600000052
:1024F0002600000026000100250000002500000045
:102500002500000025000000250000002500010036
:10251000240000002400000024000000240000002B
:10252000240001002300000023000000230000001D
:10253000230000002300000023000000230001000E
:102540002200000022000000220000002200000003
:1025500022000000220001002100000021000000F4
:1025600021000000210000002100000021000000E7
:1025700021000100200000002000000020000000D9
:1025800020000000200000002000000020000000CB
:10259000200001001F0000001F0000001F000000BD
:1025A0001F0000001F0000001F0000001F000100AE
:1025B0001E0000001E0000001E0000001E000000A3
:1025C000290A002028002920453A00202800292037
:1025D0005A3A002028002920593A00202800205883
:1025E0003A00537465707065722063757272656E1F
:1025F000742076616C75657320696E2025202841F2
:102600006D7073293A0A0020403A00202F00546868
:1026100065726D616C2052756E617761790045312C
:1026200020544845524D414C2052554E4157415936
:10263000004B494C4C45442E2000202D20496E76FD
:10264000616C6964206578747275646572206E755A
:102650006D62657220210A0048656174696E6720A9
:102660006661696C65640045312048656174696E16
:1026700067206661696C6564004D494E54454D5054
:102680002074726967676572656400453120457220
:10269000723A204D494E54454D50004D41585445D5
:1026A0004D5020747269676765726564004531201A
:1026B0004572723A204D415854454D500062656450
:1026C0000A002C2073797374656D2073746F7070B9
:1026D000656421204865617465725F49443A200051
:1026E0002CFFFFFFFFFF000101010101236465666C
:1026F000696E652044454641554C545F4B6420004B
:1027000023646566696E652044454641554C545FB7
:102710004B69200023646566696E65204445464127
:10272000554C545F4B702000504944204175746FE4
:1027300074756E652066696E6973686564212050E2
:10274000757420746865206C617374204B702C2044
:102750004B6920616E64204B6420636F6E737461FB
:102760006E74732066726F6D2062656C6F7720697E
:102770006E746F20436F6E66696775726174696FFE
:102780006E2E680A00504944204175746F74756E4E
:1027900065206661696C6564212074696D656F757B
:1027A000740A00546865726D616C2052756E6177B1
:1027B000617900453120544845524D414C205255D5
:1027C0004E415741590048656174696E67206661E2
:1027D000696C65640045312048656174696E6720E5
:1027E0006661696C656400504944204175746F747A
:1027F000756E65206661696C6564212054656D7035
:102800006572617475726520746F6F20686967689E
:102810000A00204B643A2000204B693A2000204BEC
:10282000703A20000A20436C617373696320504939
:1028300044200A002054753A2000204B753A2000AD
:10284000206D61783A2000206D696E3A2000206486
:102850003A200020626961733A20005049442041C7
:1028600075746F74756E652073746172740A0050AC
:102870004944204175746F74756E65206661696C9A
:1028800065642120426164206578747275646572A4
:10289000206E756D6265720A0070012C019001272F
:1028A00001B0012201C0011D01F001180110021345
:1028B0000130020E016002090190020401C002FF12
:1028C000000003FA004003F5008003F000D003EBA2
:1028D000002004E6007004E100E004DC004005D7BD
:1028E00000C005D2004006CD00D006C8008007C356
:1028F000003008BE00F008B900C009B400B00AAF4B
:1029000000B00BAA00D00CA500000EA000500F9B39
:1029100000C01096005012910000148C00C0158762
:1029200000B0178200B0197D00D01B7800001E7324
:102930000040206E0090226900F024640040275F70
:102940000090295A00E02B5500102E500020304BEB
:102950000010324600E033410090353C001037371C
:102960000070383200A0392D00B03A2800A03B2377
:1029700000603C1E00103D1900903D1400103E0FF9
:1029800000703E0A00C03E0500003F0000403FFBD3
:10299000FF803FF6FFC03FF1FF012902290429080B
:1029A000291029202940298029012C022C012602E6
:1029B00026042608261026202640268026402C8025
:1029C0002C012302230423082310232023402380E7
:1029D00023012002200420082010202020402080F5
:1029E00020102C202C012F022F042F082F102F2015
:1029F0002F402F802F7EFE7EFD7EFB7EF77EEF7EBA
:102A0000DF7EBF7E7F00010000B62A1200020000B8
:102A1000732A43000300006F2A0401030904552AA6
:102A200018020309043D2A16030309042F2A0C0C7B
:102A30000331003200330034003500000016035526
:102A400000530042002000530065007200690061DD
:102A5000006C00000018035400650065006E0073F0
:102A60000079006400750069006E006F00000004CA
:102A700003090409024300020100C03209040000F6
:102A800001020201000524001001052401000104D7
:102A900024020605240600010705820308004009F8
:102AA000040100020A0000000705030240000007BD
:102AB0000584024000001201000202000020C0163E
:102AC00083047202010203010001C1020180360188
:102AD0008136188481841D86CCA0E9BE90CD8A847D
:102AE00011241FBECFEFD0E2DEBFCDBF12E0A0E0C9
:102AF000B1E0EAEEF5EB01E00BBF02C007900D92EA
:102B0000AC35B107D9F72FE0ACE5B2E001C01D92BA
:102B1000A631B207E1F715E1CFE6D5E104C0219770
:102B2000FE010E9405CEC936D107C9F70E9418C51B
:102B30000C94E8DA0C940000CF92DF92EF92FF92AF
:102B4000CF93DF936B017C01EA012FE632E143E88A
:102B50005AEB0E9404D187FD23C023E830E048EC03
:102B600052E4C701B6010E9401CF1816CCF0C8800C
:102B7000D980EA80FB802FE632E143E85AEBC701B7
:102B8000B6010E9404D187FD0BC0C1E023E830E00C
:102B900048EC52E4C701B6010E9401CF18160CF4AC
:102BA000C0E08C2FDF91CF91FF90EF90DF90CF901E
:102BB0000895CF93DF931F92CDB7DEB76983DC0111
:102BC000ED91FC910280F381E02D41E050E0BE01E7
:102BD0006F5F7F4F09950F90DF91CF91089580E14E
:102BE000ECE4F5E0ACE3B5E001900D928A95E1F7F5
:102BF000089581548A3108F041C0E82FF0E04091F7
:102C0000C9055091CA056091CB057091CC0504C0EF
:102C100076956795579547958A95D2F7842F817059
:102C200040FF33C0E155FA4F9081992301F1E091C3
:102C3000D405F091D505E90FF11D908120ED290F04
:102C40002A3080F09E3229F4918190539A3078F4A2
:102C500009C09D3211F09B3251F4918120ED290F72
:102C60002A3018F42E2F9F2F04C09E3249F020E006
:102C700090E02093D0059093D105089580E00895C9
:102C8000928190539A3098F7EDCF0895B2DF882360
:102C900041F081E02091D0053091D105232B09F43A
:102CA00080E008950F931F93CF938091D00590916A
:102CB000D105009711F1FC018F01C1912C2F2F7DBF
:102CC000A9F0C53411F0C536B9F7F801108260E0FB
:102CD00070E08091D0059091D1050E94D0D3F80189
:102CE000C083562F472F382F292F0BC060E070E08C
:102CF000CF911F910F910C94D0D350E040E030E081
:102D000020E0652F742F832F922FCF911F910F9169
:102D100008958091D0059091D105009731F04AE057
:102D200050E060E070E00C9423D560E070E0CB01EF
:102D300008958091D0059091D105892B11F481E0FF
:102D40000895E7DF97FD0BC0E4DF6F3F7105810554
:102D5000910509F0A4F7DDDF81E0611101C080E099
:102D60000895A0DF2091DA053091DB054091DC0564
:102D70005091DD050C943FD1CF92DF92EF92FF92FC
:102D8000C0902301D0902401E0902501F09026010D
:102D9000FC0180819181A281B38180932301909372
:102DA0002401A0932501B09326010E94C160C09226
:102DB0002301D0922401E0922501F0922601FF9098
:102DC000EF90DF90CF9008952F923F924F925F92B5
:102DD0006F927F928F929F92AF92BF92CF92DF922B
:102DE000EF92FF920F931F93CF93DF9300D000D009
:102DF0001F92CDB7DEB77C018B016A01190180906B
:102E00004C0590904D05A0904E05B0904F05A50142
:102E10009401FC0160817181828193810E9401CFC4
:102E2000F1E0FD83811112C02091500530915105D0
:102E30004091520550915305F80160817181828162
:102E400093810E9401CF811101C01D82F601408053
:102E5000518062807380209104013091050140917E
:102E6000060150910701C301B2010E9401CF8823DE
:102E700009F453C04092040150920501609206018A
:102E80007092070120E030E040E450E46091920647
:102E90007091930680919406909195060E9408CFB8
:102EA00069837A838B839C8380923C0590923D0555
:102EB000A0923E05B0923F0580915005909151053A
:102EC000A0915205B0915305809340059093410520
:102ED000A0934205B0934305F60180819181A281C0
:102EE000B3818093440590934505A0934605B09324
:102EF00047058091580590915905A0915A05B091C8
:102F00005B058093480590934905A0934A05B093CB
:102F10004B05CE01019630DF62DEFD81FF2319F102
:102F200060908E0670908F0680909006909091062B
:102F3000A0908A06B0908B06C0908C06D0908D062B
:102F40009501A601B301C4010E9404D1181614F022
:102F50005301640120E030E040E251E4B501C601D4
:102F60000E9408CF0EC020E030E040EC5FE36091AB
:102F700096067091970680919806909199060E9406
:102F800008CF69837A838B839C8320915D052223FC
:102F900051F0AB01BC018FE294E00E9425A16AE0F0
:102FA00088E09FE006DEF70180819181A281B381F4
:102FB00080933C0590933D05A0933E05B0933F055B
:102FC000F80180819181A281B38180934005909323
:102FD0004105A0934205B0934305F1012081318161
:102FE00042815381609148057091490580914A055D
:102FF00090914B050E9428CE609348057093490537
:1030000080934A0590934B05CE010196B5DEE7DD2E
:103010000F900F900F900F900F90DF91CF911F9115
:103020000F91FF90EF90DF90CF90BF90AF909F9067
:103030008F907F906F905F904F903F902F9008956A
:10304000CF93DF9300D000D0CDB7DEB720917702C9
:1030500021111AC021E02093770240916F02509114
:1030600070026091710270917202705849835A83A4
:103070006B837C83AC01485F5F4FBC016C5F7F4F0B
:103080009E012F5F3F4FA0DE0F900F900F900F908B
:10309000DF91CF9108950F931F93CF93DF9300D0CB
:1030A00000D0CDB7DEB720917702222301F18C0149
:1030B0002AE939E949E95FE360916F027091700292
:1030C00080917102909172020E943FD169837A834C
:1030D0008B839C83A801485F5F4FB8016C5F7F4F73
:1030E0009E012F5F3F4FC8016FDE109277020F9055
:1030F0000F900F900F90DF91CF911F910F91089536
:103100002F923F924F925F926F927F928F929F92F7
:10311000AF92BF92CF92DF92EF92FF920F931F93E5
:10312000CF93DF93CDB7DEB7A0970FB6F894DEBF8D
:103130000FBECDBF9D8F8C8F7F8F6E8F2CE735E0BC
:103140003C872B8700E010E03FEF38878FEF8F83BD
:103150009FEF9B8BAFE4AC8BB3ECBD8BE7E4EE8BC6
:1031600021E030E0002E02C0220F331F0A94E2F764
:103170003B8F2A8F8CEB92E09A8B898BA4E7B5E08A
:10318000BA87A987312C08A3E989FA89819191919D
:10319000FA8BE98B2A8D3B8D82239323892B09F0AF
:1031A000BFC0AB85BC85CD90DD90ED90FC90A9852E
:1031B000BA858D919D910D90BC91A02D8D879E8794
:1031C000AF87B88BA7019601EC8DFD8D6081718171
:1031D000828193810E9427CE2B013C012D853E8563
:1031E0004F855889AE8DBF8D6D917D918D919C914C
:1031F0000E9427CE4B015C01A3019201C301B201E1
:103200000E943FD12B013C01A5019401C501B401ED
:103210000E943FD19B01AC01C301B2010E9428CEA4
:103220000E94F8D14B015C01A701960160916302F5
:103230007091640280916502909166020E9427CE8F
:103240006B017C012D853E854F85588960915F0219
:103250007091600280916102909162020E9427CE7B
:103260002B013C01A7019601C701B6010E943FD185
:103270006B017C01A3019201C301B2010E943FD105
:103280009B01AC01C701B6010E9428CE0E94F8D173
:1032900020E030E040E751E40E9408CFA50194010E
:1032A0000E9428CE6B017C01809078029090790278
:1032B000A0907A02B0907B0220E030E040E85FE32B
:1032C000C501B4010E9404D11816ACF4C501B401C3
:1032D0000E9470CF9B01AC0160E070E0CB010E94C6
:1032E000B1C40E94A3CF9B01AC01B601C7010E94EB
:1032F00028CE6B017C012B893C894D895E89B60102
:10330000C7010E9401CF87FF0BC0B8A1B8873F82D9
:103310002C2CDF8AE88EF98ECB8ADC8AED8AFE8A35
:103320003394E985FA853496FA87E987F2E03F120B
:103330002BCF0F5F1F4F2B853C852C5F3F4F3C876A
:103340002B870230110509F00BCF3F81E32FF0E00E
:10335000EE0FFF1FE454FD4F81E090E0088402C0AF
:10336000880F991F0A94E2F720813181822B932BD9
:1033700091838083822D9F89A88DB98D8B839C83B7
:10338000AD83BE83422D5C816D817E8128853F8126
:1033900080E090E0A0960FB6F894DEBF0FBECDBFE0
:1033A000DF91CF911F910F91FF90EF90DF90CF9021
:1033B000BF90AF909F908F907F906F905F904F9055
:1033C0003F902F9008952F923F924F925F926F926D
:1033D0007F928F929F92AF92BF92CF92DF92EF92A5
:1033E000FF920F931F93CF93DF93CDB7DEB7A697CE
:1033F0000FB6F894DEBF0FBECDBF9A8789871B0139
:103400005C874B873E872D87188B0F87FAA2E9A22E
:10341000C0904C05D0904D05E0904E05F0904F05C2
:10342000DC018D919D910D90BC91A02D898B9A8B83
:10343000AB8BBC8B9C01AD01C701B6010E9427CEAE
:103440002B013C018091500590915105A0915205AE
:10345000B09153058D8B9E8BAF8BB88FD1018D9121
:103460009D910D90BC91A02D898F9A8FAB8FBC8FB1
:103470009C01AD016D897E898F89988D0E9427CE30
:103480004B015C01A3019201C301B2010E943FD133
:103490002B013C01A5019401C501B4010E943FD15B
:1034A0009B01AC01C301B2010E9428CE6D8F7E8FBB
:1034B0008F8F98A3ED85FE85408051806280738058
:1034C000A3019201C701B6010E9427CE6BA37CA382
:1034D0008DA39EA3D8018D909D90AD90BC90A50129
:1034E00094016D897E898F89988D0E9427CE6B010A
:1034F0007C0129893A894B895C89C301B2010E9408
:1035000027CE2B013C01298D3A8D4B8D5C8DC50159
:10351000B4010E9427CE4B015C01A3019201C301BB
:10352000B2010E943FD12B013C01A5019401C501CC
:10353000B4010E943FD19B01AC01C301B2010E94C2
:1035400028CE0E94F8D14B015C012BA13CA14DA1DA
:103550005EA1CA01B9010E943FD12B013C01A70124
:103560009601C701B6010E943FD19B01AC01C30186
:10357000B2010E9428CE9B01AC016D8D7E8D8F8D96
:1035800098A10E9404D1181624F520E030E0A9018A
:10359000C501B4010E9404D187FF04C0C501B40174
:1035A000905802C0C501B40120E030E040EA50E488
:1035B0000E9404D118166CF4EB84FC8481012985E7
:1035C0003A8549A15AA16F8578898D859E85FBDE54
:1035D00083C020E030E040E050E46D8D7E8D8F8D23
:1035E00098A10E9404D118160CF042C08CE395E01B
:1035F00027DD19821A821B821C8220E030E040E025
:103600005FE3609154057091550580915605909146
:1036100057050E9428CE6D837E838F8398879E01F5
:103620002F5F3F4FAE014B5F5F4F60E575E08CE46D
:1036300095E0CADB19821A821B821C8220E030E0EE
:1036400040E05FE3EB85FC8560817181828193813D
:103650000E9428CE6D837E838F8398879E012F5F83
:103660003F4FAE014B5F5F4FB10189859A85ACDB5F
:1036700019821A821B821C829E012F5F3F4F4B854D
:103680005C85B10189859A859FDB20910801309185
:10369000090140910A0150910B01C501B4010E943A
:1036A0003FD1209173023091740240917502509184
:1036B00076020E943FD169837A838B839C838CE35B
:1036C00095E0E9DC9E012F5F3F4F49A15AA16F852C
:1036D00078898D859E8578DBA6960FB6F894DEBF37
:1036E0000FBECDBFDF91CF911F910F91FF90EF9053
:1036F000DF90CF90BF90AF909F908F907F906F9012
:103700005F904F903F902F9008952F923F924F924D
:103710005F926F927F928F929F92AF92BF92CF9261
:10372000DF92EF92FF920F931F93CF93DF93CDB76A
:10373000DEB7A2970FB6F894DEBF0FBECDBF2CE761
:1037400035E03C8F2B8F1A8E198E81E090E0098C2A
:1037500002C0880F991F0A94E2F79A8B898BA98D72
:10376000BA8D1196BA8FA98FE1E0F0E0098C02C002
:10377000EE0FFF1F0A94E2F7FAA3E9A31CE7212E3C
:1037800012E0312E2CEB32E0388F2F8B8CE992E057
:103790009E8F8D8FA4E7B5E0B8A3AF8FEF89F88D2A
:1037A000FC8BEB8B8081918129893A8928233923ED
:1037B000232B09F486C029A13AA182239323892BC4
:1037C00009F47FC0AD8DBE8D8D919C91E989FA89F8
:1037D0008E239F23892B09F074C020E030E040E065
:1037E00050E4AB8DBC8D6D917D918D919C910E942B
:1037F00028CE6B017C0120E030E040E050E4EB8D0E
:10380000FC8D64817581868197810E9427CE2B0172
:103810003C0120E030E040E85FE3C701B6010E94D0
:1038200001CF87FF2AC1C12CD12CB0E8EB2EBFE31A
:10383000FB2ECD86DE86EF86F88AAF8DB8A18D90FF
:103840009D90AD90BC9020E030E040E85FE3C50182
:10385000B4010E9401CF87FF22C1812C912CF0E896
:10386000AF2EFFE3BF2E89829A82AB82BC8289860B
:103870009A86AB86BC8620E030E040E85FE3C30177
:10388000B2010E9401CF87FF1CC1412C512C70E86E
:10389000672E7FE3772E4D825E826F827886AE013F
:1038A000475F5F4FC701B60147D981111CC1ED8D3C
:1038B000FE8D8081918129893A89822B932B918376
:1038C00080838F89988D0296988F8F8BAB89BC8966
:1038D0008D919C91E989FA898E239F23892B09F484
:1038E00093C0AF89B88D8D919C918E239F23892B96
:1038F00009F48AC0D1018D919C91E989FA898E23BE
:103900009F23892B09F080C020E030E040E050E4A4
:10391000EF8DF8A160817181828193810E9428CE10
:103920006B8B7C8B8D8B9E8B20E030E040E050E4F5
:10393000AF8DB8A114966D917D918D919C91179743
:103940000E9427CE2B013C01EB8DFC8DC080D180E5
:10395000E280F38020E030E040E85FE3C701B60199
:103960000E9401CF87FF04C1C12CD12C40E8E42E76
:103970004FE3F42ECD82DE82EF82F886CD86DE869E
:10398000EF86F88A20E030E040E85FE36B897C89CD
:103990008D899E890E9401CF87FFFCC080E090E066
:1039A000A0E8BFE38B8B9C8BAD8BBE8B8B899C89F6
:1039B000AD89BE8989879A87AB87BC8720E030E0D4
:1039C00040E85FE3C301B2010E9401CF87FFF8C066
:1039D000412C512C20E8622E2FE3722E49825A820C
:1039E0006B827C82AE01475F5F4FC701B601A4D8EE
:1039F0008111F8C0D1018D919C911197E989FA89C3
:103A00008E2B9F2B8D939C93F2E02F0E311C2D8DCE
:103A10003E8D2E5F3F4F3E8F2D8F8F8D98A1049648
:103A200098A38F8FA0E8B2E0A215B30509F0B6CE37
:103A3000EB8DFC8D3496FC8FEB8F298D3A8D2230E7
:103A4000310509F082CE80E0A2960FB6F894DEBF71
:103A50000FBECDBFDF91CF911F910F91FF90EF90DF
:103A6000DF90CF90BF90AF909F908F907F906F909E
:103A70005F904F903F902F90089520E030E046EC0B
:103A800052E4C701B6010E9404D118160CF0D1CE41
:103A9000C12CD12CA6ECEA2EA2E4FA2ECACE20E04C
:103AA00030E046EC52E4C501B4010E9404D118167E
:103AB0000CF0D9CE812C912CE6ECAE2EE2E4BE2E99
:103AC000D2CE20E030E046EC52E4C301B2010E94C5
:103AD00004D118160CF0DFCE412C512C66EC662E6A
:103AE00062E4762ED8CEAE014F5F5F4FC301B201C4
:103AF00023D8882309F4DBCE80915D05882331F13A
:103B0000B701A6018FE994E00E9425A149855A8555
:103B10006B857C8589E994E00E9425A14D815E81B9
:103B20006F8178858FE894E00E9425A149815A81B0
:103B30006B817C8189E894E00E9425A169E288E09C
:103B40009FE037D86AE088E09FE033D85BE6E52E57
:103B500052E0F52E8E010F5F1F4F9E012B5F3F4FEE
:103B6000A701BE01675F7F4FCE010D962CDC9FCE73
:103B700020E030E046EC52E4C701B6010E9404D1D7
:103B800018160CF0F7CEC12CD12C36ECE32E32E413
:103B9000F32EF0CE20E030E046EC52E46B897C89D5
:103BA0008D899E890E9404D118160CF0FFCE80E00A
:103BB00090E0A6ECB2E48B8B9C8BAD8BBE8BF6CEEB
:103BC00020E030E046EC52E4C301B2010E9404D18F
:103BD00018160CF003CF412C512C96EC692E92E470
:103BE000792EFCCEAE014F5F5F4FC701B6010E9438
:103BF0009C15882309F4FECE80915D05882341F150
:103C0000B701A60185E694E00E9425A149855A8561
:103C10006B857C858FE594E00E9425A14D815E81B6
:103C20006F81788585E594E00E9425A149815A81BC
:103C30006B817C818FE494E00E9425A169E288E099
:103C40009FE00E94D9156AE088E09FE00E94D915A4
:103C50008BE6E82E82E0F82E8E010F5F1F4F9E014B
:103C60002B5F3F4FA701BE01675F7F4FCE010D96CF
:103C7000AADBC0CE8F929F92AF92BF92CF92DF927B
:103C8000EF92FF920FB6F894C090FD0ED090FE0E0A
:103C9000E090FF0EF090000F0FBE88E8C80E83E1A1
:103CA000D81EE11CF11C80915D0290915E02909300
:103CB0002E0E80932D0E80E00E9411B460915D0263
:103CC00070915E02072E000C880B990B0E94A3CF07
:103CD0009B01AC016091310E7091320E8091330ED8
:103CE0009091340E0E9427CE4B015C0120E030E021
:103CF000A9010E9404D187FF04C0C501B4019058F6
:103D000002C0C501B40120E030E040E450E40E946C
:103D100004D1181684F50FB6F8948091FD0E909199
:103D2000FE0EA091FF0EB091000F0FBE8C199D09E1
:103D3000AE09BF09B7FD18C00FB6F894C090FD0ECC
:103D4000D090FE0EE090FF0EF090000F0FBE88E8BE
:103D5000C80E83E1D81EE11CF11C0E9405B86AE080
:103D600088E09FE00E94D9150E949A5A88E09FE05F
:103D70000E948FCDA3CF80E0FF90EF90DF90CF9097
:103D8000BF90AF909F908F9008952F923F924F9247
:103D90005F926F927F928F929F92AF92BF92CF92DB
:103DA000DF92EF92FF920F931F93CF93DF93CDB7E4
:103DB000DEB7C154D1090FB6F894DEBF0FBECDBF38
:103DC000E2E0F4E064918F010F5F1F4F662331F052
:103DD00088E09FE00E94D915F801F4CF41E061E04E
:103DE00081E00E94B22E811125C680E090E0A0E81B
:103DF000BFE38093730290937402A0937502B09313
:103E0000760280936F0290937002A0937102B09338
:103E100072028DEC9CECACE4BEE380936B02909359
:103E20006C02A0936D02B0936E0280E090E0A0E27D
:103E3000B1E48093670290936802A0936902B09303
:103E40006A028DEC90E090935E0280935D02109286
:103E50005C028FE40E944616882319F00E94B11676
:103E600004C06AE979E989E99EE36BAB7CAB8DAB71
:103E70009EAB83E40E944616882331F00E94991677
:103E800022968FAF229706C083E40E94F9152296EE
:103E90008FAF22978BE40E944616882321F00E9460
:103EA00099168CAF04C08BE40E94F9158CAF82E4A4
:103EB0000E9446168823D9F00E9452160E9470CFA5
:103EC00061157105A1F0685271096536710578F0C8
:103ED000EDECF3E064918F010F5F1F4F662309F44F
:103EE000A9C588E09FE00E94D915F801F3CF8CE4C2
:103EF0000E944616882371F10E94B1166B017C0165
:103F000060936B0270936C0280936D0290936E02CB
:103F100020E030E0A9010E9404D187FF03C0E5EA58
:103F2000F3E00BC020E030E040E050E4C701B60110
:103F30000E9401CF181674F4F2CF64918F010F5FC5
:103F40001F4F662309F476C588E09FE00E94D915CB
:103F5000F801F3CF81E50E94F915882309F445C0E3
:103F60008091D0059091D105892B19F4E9E4F3E013
:103F70002FC00E9452166B017C0160936F027093F8
:103F8000700280937102909372022DEC3CEC4CE431
:103F90005DE30E9404D187FF03C0E4E7F3E00BC0B8
:103FA00020E030E040E751E4C701B6010E9401CFB4
:103FB0001816DCF4F2CF64918F010F5F1F4F662358
:103FC00009F438C588E09FE00E94D915F801F3CFC5
:103FD00064918F010F5F1F4F662309F42BC588E0A2
:103FE0009FE00E94D915F801F3CF83E50E944616A1
:103FF000882339F10E9452164B015C012DEC3CECF8
:104000004CEC5DE30E9404D187FF03C0E2E2F3E0E1
:104010000BC020E030E040E85FE3C501B4010E943E
:1040200001CF18169CF314C064918F010F5F1F4FCE
:10403000662309F4FFC488E09FE00E94D915F801C7
:10404000F3CF2DEC822E2CEC922EA92C2EE3B22E47
:1040500080E50E94F915882309F448C08091D005B5
:104060009091D105892B79F4EAEEF2E064918F0109
:104070000F5F1F4F662309F4DDC488E09FE00E94B4
:10408000D915F801F3CF80915C028F5F80935C02B9
:104090000E94B1166B017C01609367027093680205
:1040A0008093690290936A0220E030E0A9010E94A7
:1040B00004D187FF03C0E2ECF2E00BC020E030E067
:1040C00048EC51E4C701B6010E9401CF181674F400
:1040D000F2CF64918F010F5F1F4F662309F4AAC4CA
:1040E00088E09FE00E94D915F801F3CF86E40E9492
:1040F0004616882339F10E94B1166B017C0120E03D
:1041000030E040E85FE30E9404D187FF03C0E9E9A3
:10411000F2E00BC020E030E040E850E4C701B60117
:104120000E9401CF1816A4F4F2CF64918F010F5FA3
:104130001F4F662309F47EC488E09FE00E94D915D2
:10414000F801F3CFC12CD12C90EEE92E9FE3F92E8C
:10415000A7019601C701B6010E943FD19B01AC01A6
:1041600060E070E084E490E40E9408CF2091730244
:104170003091740240917502509176020E943FD1B5
:104180002B013C01A5019401C501B4010E943FD15E
:10419000A70196010E943FD12CEE31E548EB5DE38B
:1041A0000E9408CF9B01AC01C301B2010E943FD124
:1041B00060937302709374028093750290937602F9
:1041C00088E40E9446168823E1F00E9452160E945D
:1041D00070CF70935E0260935D02655A7109643717
:1041E000710578F0EBE6F2E064918F010F5F1F4FED
:1041F000662309F41FC488E09FE00E94D915F801E6
:10420000F3CF85E50E94F915882311F10FB6F894D4
:104210008091FD0E9091FE0EA091FF0EB091000FC7
:104220000FBE0E948FC48091D0059091D105892B3B
:1042300019F00E94521604C060E070E088E492E435
:10424000609378027093790280937A0290937B0254
:1042500082E50E94F91581110FC0E7E3F2E0649155
:104260008F010F5F1F4F662309F4E4C388E09FE0CE
:104270000E94D915F801F3CF8091D0059091D10516
:10428000892BA9F00E9489161B011616170694F0B7
:10429000E3E0F2E064918F010F5F1F4F662309F4A2
:1042A000C9C388E09FE00E94D915F801F3CF85E0EB
:1042B000282E312C88E50E944616882369F00E943A
:1042C000B11620917F03309180034091810350917A
:1042D00082030E9427CE08C060914C0570914D0565
:1042E00080914E0590914F05609363027093640234
:1042F000809365029093660289E50E9446168823A2
:1043000069F00E94B116209183033091840340919B
:104310008503509186030E9427CE08C06091500506
:1043200070915105809152059091530560935F0201
:1043300070936002809361029093620260916302C5
:104340007091640280916502909166024FE552E09F
:104350000E949C1581110FC0E9EDF1E064918F017D
:104360000F5F1F4F662309F465C388E09FE00E943A
:10437000D915F801F3CF84E40E94F91591E089275B
:104380000E94853220E030E040E450E46091540522
:104390007091550580915605909157050E9401CF67
:1043A00087FF1CC019821A821B821C8280E090E069
:1043B000A0E4B0E4898B9A8BAB8BBC8BBE016F5FA2
:1043C0007F4FCE0141960E94252E80E1ECE3F5E07F
:1043D000ACE4B5E001900D928A95E1F74BDC8111D8
:1043E000C3C2109258051092590510925A051092A6
:1043F0005B050E94822A80915C028823C1F10E94A1
:10440000EF15209167023091680240916902509146
:104410006A02609148057091490580914A05909122
:104420004B050E9428CE6093480570934905809300
:104430004A0590934B0520E030E040E751E460915D
:1044400096067091970680919806909199060E9421
:1044500008CF69837A838B839C83CE0101960E9467
:10446000BC160E94EF158CE395E00E94201880E2B4
:10447000ECEBF2E0DF01982F1D929A95E9F7ECE959
:10448000F2E0DF01982F1D929A95E9F7ECE7F2E050
:10449000DF011D928A95E9F70E94EF1580916B026A
:1044A00090916C02A0916D02B0916E0280934405D0
:1044B00090934505A0934605B093470519821A824B
:1044C0001B821C829E012F5F3F4F44E455E060E455
:1044D00075E08CE395E00E94E4169E012D5C3F4F51
:1044E00044E455E060E475E08CE395E00E94E41656
:1044F0002296BFAD2297BB2349F060E575E08CE4BE
:1045000095E00E948018132F2FAB08C06FE572E072
:1045100083E692E00E948018132F2FAB8FA987FDAE
:1045200016C217FD14C294E08902F0011124E45868
:10453000FA4F7080618052804380A4E01A02F0013B
:104540001124EC58FA4FD080E180F28003818D2D48
:104550009E2DAF2DB02F8FA798ABA9ABBAABAE01F4
:10456000415D5F4F672D762D852D942D0E949C1502
:10457000882309F4F0C120E030E040EA50E4672DE0
:10458000762D852D942D0E9428CE962E78AFB82EAC
:10459000A92EBFA9B11131C0111104C0562F472F48
:1045A000950102C0A3019201852F942FA32FB22F52
:1045B0008BA79CA7ADA7BEA711112FC2972C68AEE1
:1045C00052013D2D2E2D8F2D902F432F522FBC01A8
:1045D0004FA358A769A77AA7111164C020E030E063
:1045E00040EA50E46D2D7E2D8F2D902F0E9428CE15
:1045F000862E79AF8AAF9BAF59C0112369F020E0B6
:1046000030E040EA50E4672D762D852D942D0E94F0
:1046100027CE362F272F03C09301852D942D432FAE
:10462000522FBC014BA75CA76DA77EA711111BC021
:1046300020E030E040EA50E4672D762D852D942D62
:104640000E9427CE962E78AFB82EA92E20E030E01B
:1046500040EA50E46D2D7E2D8F2D902F0E9428CEA4
:10466000362F272F07C0972C68AE52013D2D2E2DD7
:104670008F2D902F432F522FBC014FA358A769A70E
:104680007AA7112379F020E030E040EA50E46D2D64
:104690007E2D8F2D902F0E9427CE862E79AF8AAF48
:1046A0009BAF04C08D2CE9AEFAAE0BAF8BA59CA5D9
:1046B000ADA5BEA521968CAF9DAFAEAFBFAF219784
:1046C0009C01AD01672D762D852D942D0E9427CE5E
:1046D000698B7A8B8B8B9C8B4FA058A469A47AA48E
:1046E000A30192016D2D7E2D8F2D902F0E9427CE3C
:1046F0006D8B7E8B8F8B988F21962CAD3DAD4EAD03
:104700005FAD219760914C0570914D0580914E05EC
:1047100090914F050E9427CE6B017C01A30192016D
:10472000609150057091510580915205909153050B
:104730000E9427CE2B013C01892D98ADAB2DBA2DBF
:1047400089839A83AB83BC83882D99ADAAADBBAD19
:104750008D839E83AF83B88780916B0290916C02AA
:10476000A0916D02B0916E0289879A87AB87BC8752
:1047700022ED33E54BEF50E460910801709109019F
:1047800080910A0190910B010E943FD12091730208
:104790003091740240917502509176020E943FD18F
:1047A000209158053091590540915A0550915B056B
:1047B0000E9428CE6D877E878F87988BA7019601F0
:1047C000C701B6010E943FD16B017C01A301920198
:1047D000C301B2010E943FD19B01AC01C701B601E8
:1047E0000E9428CE20E030E040E050E40E9404D156
:1047F00018160CF049C08CE395E00E9420181F8E1B
:1048000018A219A21AA220E030E040E05FE3609114
:1048100054057091550580915605909157050E9459
:1048200028CE6BA37CA38DA39EA39E01215E3F4F48
:10483000AE014D5D5F4F60E575E08CE495E00E9450
:10484000E4161F8E18A219A21AA220E030E040E060
:104850005FE360916B0270916C0280916D029091A8
:104860006E020E9428CE6BA37CA38DA39EA39E0103
:10487000215E3F4FAE014D5D5F4FBE01695D7F4FD1
:10488000CE018B960E94E4161F8E18A219A21AA2BE
:104890009E01215E3F4F4BE652E0BE01695D7F4FB6
:1048A000CE018B960E94E4168CE395E00E944B1893
:1048B00040902301509024016090250170902601C2
:1048C000D0908E06E0908F06F090900600919106B1
:1048D00090908A06A0908B06B0908C06C0908D06B2
:1048E000292D3A2D4B2D5C2D6D2D7E2D8F2D902F4A
:1048F0000E9404D118161CF4D92C75010C2D20E04F
:1049000030E040E251E46D2D7E2D8F2D902F0E94DE
:1049100008CF609323017093240180932501909325
:10492000260140E0BE016F5E7F4FCE0101960E94DE
:1049300055624092230150922401609225017092A9
:1049400026010E94EF150E94851B81110DC088E091
:104950009FE00E948FCD91E0291A310829F0AFA97C
:10496000A7FD02C017FFC4CD8CE395E00E9420187C
:1049700080E090E0A0E4B0E4809344059093450586
:10498000A0934605B093470519821A821B821C82A8
:104990009E012F5F3F4F44E455E060E475E08CE3F7
:1049A00095E00E94E4168091630290916402A091C8
:1049B0006502B091660280933C0590933D05A093FB
:1049C0003E05B0933F0580915F0290916002A091F7
:1049D0006102B09162028093400590934105A093DB
:1049E0004205B093430519821A821B821C829E01E4
:1049F0002F5F3F4F44E455E060E475E08CE395E0C1
:104A00000E94E416BCADB11115C010922E0E10928A
:104A10002D0E80E00E9411B40DC020E030E040EA8D
:104A200050E46D2D7E2D8F2D902F0E9427CE362F96
:104A3000272FCBCDCF5BDF4F0FB6F894DEBF0FBE75
:104A4000CDBFDF91CF911F910F91FF90EF90DF903D
:104A5000CF90BF90AF909F908F907F906F905F901E
:104A60004F903F902F9008954F925F926F927F9258
:104A70008F929F92AF92BF92CF92DF92EF92FF926E
:104A8000CF934B015C0169017A0120E030E040EAFC
:104A900051E40E9427CE2B013C012FE632E143E88E
:104AA0005AEB0E9404D187FD48C023E830E048EC6F
:104AB00052E4C301B2010E9401CF18160CF43DC0AC
:104AC0002FE632E143E85AEBC701B6010E9404D158
:104AD00087FD33C023E830E048EC52E4C701B6015B
:104AE0000E9401CF18164CF124EF3DEF4FE951E43D
:104AF000C501B4010E9404D187FD1FC023E830E046
:104B000044EB52E4C501B4010E9401CF1816ACF089
:104B100027EE3BEF4FE151E4C701B6010E9404D1FB
:104B200087FD0BC0C1E023E830E044EB52E4C7014D
:104B3000B6010E9401CF18160CF4C0E08C2FCF9163
:104B4000FF90EF90DF90CF90BF90AF909F908F90AD
:104B50007F906F905F904F900895AB01770F660B39
:104B6000770B0C94DBC30C94E8C3FF920F931F9355
:104B7000CF93DF93F82E092F162FE3E4F6E064912C
:104B8000EF012196662331F088E09FE00E94D9155D
:104B9000FE01F5CFEF2DF02F6491EF0121966623F2
:104BA00031F088E09FE00E94D915FE01F5CFE1E4E5
:104BB000F6E06491EF012196662331F088E09FE0F2
:104BC0000E94D915FE01F5CF612F70E088E09FE0CB
:104BD000C4DF6AE088E09FE0DF91CF911F910F91E1
:104BE000FF900C94D9152F923F924F925F926F9243
:104BF0007F928F929F92AF92BF92CF92DF92EF926D
:104C0000FF920F931F93CF93DF93EB01FC01808002
:104C10009180A280B380C501B40120E831E541E074
:104C200050E00E94C7CDC9016DE671E00E94B3CD8E
:104C30006B017C01C501B40120E13EE040E050E0A1
:104C40000E94C7CDCA01B90128E130E040E050E040
:104C50000E94C7CD362E272E062F172F8CE3482E05
:104C6000512C612C712CC501B401A30192010E9449
:104C7000C7CDB62EA72ECA01B901A30192010E9489
:104C8000C7CDCB01C114D104D9F0AF92BF927F93AD
:104C90006F932F923F92FF92EF92DF92CF9287E035
:104CA00096E19F938F93DF93CF930E94ECD78DB7BC
:104CB0009EB70E960FB6F8949EBF0FBE8DBF5CC018
:104CC000E114F104C9F0AF92BF927F936F932F92DA
:104CD0003F92FF92EF9287EF95E19F938F93DF933F
:104CE000CF930E94ECD7EDB7FEB73C960FB6F89481
:104CF000FEBF0FBEEDBF40C0012BB9F0AF92BF9217
:104D00007F936F932F923F928BEE95E19F938F93BA
:104D1000DF93CF930E94ECD78DB79EB70A960FB65C
:104D2000F8949EBF0FBE8DBF27C0892BA9F0AF920C
:104D3000BF927F936F9383EE95E19F938F93DF9361
:104D4000CF930E94ECD7EDB7FEB738960FB6F89424
:104D5000FEBF0FBEEDBF10C0AF92BF928FED95E1C9
:104D60009F938F93DF93CF930E94ECD70F900F9078
:104D70000F900F900F900F90DF91CF911F910F9197
:104D8000FF90EF90DF90CF90BF90AF909F908F906B
:104D90007F906F905F904F903F902F9008958091FB
:104DA000D0059091D105009731F04AE050E060E0E5
:104DB00070E00C944FD660E070E0CB0108950E9443
:104DC000891697FD0CC00E9489166F3F71058105F9
:104DD000910509F034F40E948916862F089580E029
:104DE00008958FEF0895019769F483E393E3ABECA3
:104DF000B1E48093DA059093DB05A093DC05B093D2
:104E0000DD050CC080E090E0A0E8BFE38093DA0508
:104E10009093DB05A093DC05B093DD056091DA0586
:104E20007091DB058091DC059091DD0520E030E09C
:104E300040E450E40E94A2D16093D6057093D70558
:104E40008093D8059093D9050895CF93C82F0E94D9
:104E50005216C33068F02091DE05222349F02091DC
:104E6000D6053091D7054091D8055091D90508C095
:104E70002091DA053091DB054091DC055091DD058C
:104E80000E943FD1CF910895CF93C82F0E94521610
:104E9000C33068F02091DE05222349F02091D60529
:104EA0003091D7054091D8055091D90508C020917F
:104EB000DA053091DB054091DC055091DD050E945B
:104EC00008CFCF9108952F923F924F925F926F92A9
:104ED0007F928F929F92AF92BF92CF92DF92EF928A
:104EE000FF920F931F93CF93DF93CDB7DEB72A972F
:104EF0000FB6F894DEBF0FBECDBF9A8389831B0126
:104F00005A874987ECE7F5E080809180A280B380E2
:104F100004E815E0D801CD90DD90ED90FC90A5015E
:104F2000940164817581868197810E9427CE2B012F
:104F30003C01A5019401E981FA816081718182813E
:104F400093810E9427CE4B015C01A7019601D801F5
:104F500018966D917D918D919C911B970E9427CE03
:104F6000A30192010E9408CFA50194010E943FD1A4
:104F7000A70196010E9428CE6D837E838F83988738
:104F8000F801C480D580E680F780A4E7B5E08D9174
:104F90009D910D90BC91A02D89839A83AB83BC8396
:104FA000A701960164857585868597850E9427CE21
:104FB000A30192010E9408CFA50194010E943FD154
:104FC000A70196010E9428CE2D813E814F815885F0
:104FD0000E9427CE6B017C0129813A814B815C8143
:104FE000609178057091790580917A0590917B05A3
:104FF0000E9427CE9B01AC01C701B6010E9408CFD9
:105000006B017C0129813A814B815C81F1016081D6
:105010007181828193810E9427CE9B01AC01C701DF
:10502000B6010E943FD12D813E814F8158850E945B
:1050300028CEA985BA852D913D914D915C910E9414
:105040003FD120919405309195054091960550915E
:1050500097050E9428CE2A960FB6F894DEBF0FBEA1
:10506000CDBFDF91CF911F910F91FF90EF90DF9017
:10507000CF90BF90AF909F908F907F906F905F90F8
:105080004F903F902F9008954F925F926F927F9232
:105090008F929F92AF92BF92CF92DF92EF92FF9248
:1050A0000F931F93CF93DF9300D000D000D0CDB7E4
:1050B000DEB74B0129013A01E982FA820B831C8396
:1050C000FC0164919C012F5F3F4F3E832D8366233B
:1050D00039F088E09FE00E94D9158D819E81F0CF44
:1050E00068E288E09FE00E94D91522E030E0B30139
:1050F000A20188E09FE037DD49815A816B817C8184
:1051000085E09CE00E9425A1B601A50182E09CE01B
:105110000E9425A169E288E09FE00E94D9158114D0
:10512000910471F0F40164914F013FEF831A930AE7
:10513000662309F188E09FE00E94D915F401F3CFBE
:105140006AE088E09FE026960FB6F894DEBF0FBEB7
:10515000CDBFDF91CF911F910F91FF90EF90DF9026
:10516000CF90BF90AF909F908F907F906F905F9007
:105170004F900C94D91526960FB6F894DEBF0FBE4B
:10518000CDBFDF91CF911F910F91FF90EF90DF90F6
:10519000CF90BF90AF909F908F907F906F905F90D7
:1051A0004F900895AF92BF92CF92DF92EF92FF920D
:1051B0000F931F93FA01A084B184C284D384E48046
:1051C000F5800681178120813181428153815CDF26
:1051D0001F910F91FF90EF90DF90CF90BF90AF9015
:1051E00008950F931F93CF93DF93CDB7DEB72C971E
:1051F0000FB6F894DEBF0FBECDBF80915C0585FF72
:1052000007C04CE455E06BEE7BE087ED9BE0CADF26
:105210008091540590915505A0915605B091570580
:105220004091500550915105609152057091530580
:1052300000914C0510914D0520914E0530914F0580
:1052400009871A872B873C874D835E836F83788716
:1052500089839A83AB83BC83AE014F5F5F4FBE01EE
:105260006B5F7F4FCE0109960E94468F28E535E09F
:10527000AE014F5F5F4FBE016B5F7F4FCE0109965E
:105280000E948D9E2C960FB6F894DEBF0FBECDBF48
:10529000DF91CF911F910F9108952F923F924F92DE
:1052A0005F926F927F928F929F92AF92BF92CF92B6
:1052B000DF92EF92FF920F931F93CF93DF93CDB7BF
:1052C000DEB766970FB6F894DEBF0FBECDBF2A01DA
:1052D0003B01D22EF32E90915C05A82EB12C95FFA8
:1052E00053C0F501E85DFD4F60818EE797E00E94B5
:1052F000D0A0B301A2018BE797E00E9425A1E8E7C7
:10530000F7E064914F018FEF881A980A662331F015
:1053100088E09FE00E94D915F401F3CF20E030E04F
:10532000A901B8018D2D9F2D0E9401CF882349F03E
:1053300022E030E0A8016D2D7F2D88E09FE013DC96
:1053400014C0F501EE0FFF1FEE0FFF1FE153FA4EE1
:10535000459155916591749186E797E00E9425A14A
:105360006DE588E09FE00E94D915E3E7F7E06491DE
:105370004F019FEF891A990A662331F088E09FE078
:105380000E94D915F401F3CFF501E057FA4EE491EC
:10539000F1E0FD8B1E160CF41D8A81E08E8B20E05F
:1053A00030E0A901C301B2010E9404D118160CF02B
:1053B0001E8A1501220C331C220C331CF101E45B04
:1053C000FA4F4F0110821182128213820ADFF40118
:1053D0004082518262827382E090700320E030E06C
:1053E000A901B8018D2D9F2D0E9401CF81110AC006
:1053F000F101E153FA4E85919591A591B4918C01FB
:10540000DA2EFB2EC801AD2DBF2D898B9A8BAB8B6D
:10541000BC8B8091540590915505A0915605B09193
:10542000570540915005509151056091520570917A
:10543000530500914C0510914D0520914E0530917A
:105440004F050D871E872F87388B49875A876B87B3
:105450007C878D839E83AF83B88719821A821B82D3
:105460001C82AE014B5F5F4FBE01675F7F4FCE0175
:105470000D960E94468FCE0101966C018E010F5E43
:105480001F4F28E535E0AE014B5F5F4FBE01675F00
:105490007F4F0C960E94AB9D0E94AF919D89EE8933
:1054A0009E130E94278280915C0585FF12C0F50142
:1054B000E85DFD4F60818FE597E00E94D0A069E232
:1054C00088E09FE00E94D9156AE088E09FE00E9492
:1054D000D91566960FB6F894DEBF0FBECDBFDF912B
:1054E000CF911F910F91FF90EF90DF90CF90BF90E1
:1054F000AF909F908F907F906F905F904F903F9074
:105500002F90089568E575E083E00C94B29FCF93E7
:10551000DF9300D0CDB7DEB72091FA0E3091FB0EAD
:10552000CE0101962115310529F486519F409A83B9
:10553000898304C0821B930B9A83898389819A8112
:105540000F900F90DF91CF910895FF920F931F93CB
:10555000CF93DF93FC0120812B3319F1D0913105DA
:10556000D430F8F4F62EBC01C0912F050C2F10E0BA
:10557000F0E6CF9FC001112481559C4F0E94CCD7EB
:10558000F801E15BFC4FF082CF5FC43018F4C093A8
:105590002F0502C010922F05DF5FD093310581E007
:1055A00001C080E0DF91CF911F910F91FF9008958E
:1055B000EF92FF921F93CF93DF937C0160E0C5DFF2
:1055C000182F8823E1F0E1E8FDE16491EF012196D5
:1055D000662331F088E09FE00E94D915FE01F5CFE7
:1055E000B7018AEC9BE00E9467A162E288E09FE03D
:1055F0000E94D9156AE088E09FE00E94D915812FAA
:10560000DF91CF911F91FF90EF900895DF92EF927D
:10561000FF920F931F93CF93DF93CDB7DEB76E97B3
:105620000FB6F894DEBF0FBECDBF6091AD03709191
:10563000AE036115710541F14DE150E0CE010196D7
:105640007C010E947BD71E8EF7018F010E191F0966
:10565000D190DD2019F09AE0D912F7CFF701E00FD1
:10566000F11F1082C701A4DF882371F0DD20A9F0AB
:105670000F5F1F4F8091AD039091AE03080F191F6C
:105680001093AE030093AD0381E02091AD03309100
:10569000AE03232B29F480E003C000E010E0F0CF3C
:1056A0006E960FB6F894DEBF0FBECDBFDF91CF91DF
:1056B0001F910F91FF90EF90DF900895EF92FF926E
:1056C0000F931F93CF93DF937C0184E50E944616CE
:1056D000D82F882381F173DBC82F181644F5E1E831
:1056E000FDE164918F010F5F1F4F662331F088E069
:1056F0009FE00E94D915F801F4CF6DE488E09FE0A7
:105700000E94D915A70160E070E020E088E09FE0EA
:105710000E946FC36C2FCC0F770B87EB9BE00E942E
:10572000E8A06AE088E09FE00E94D91508C0809355
:105730006303D0E004C080917003809363038D2FD6
:10574000DF91CF911F910F91FF90EF900895AF924D
:10575000BF92CF92DF92EF92FF920F931F93CF935E
:10576000DF93082F10E0E801CC0FDD1FCC0FDD1F09
:105770009E0121583C4F7901CE0185579C4F5C0119
:10578000FE01E956FC4F6F01208131814281538136
:10579000FC0160817181828193810E9428CEF70192
:1057A0006083718382839383FE01ED53FA4E85916A
:1057B0009591A591B4919E012D583C4F7901F90125
:1057C00080839183A283B383FE01E954FA4E8591CD
:1057D0009591A591B491CB5EDE4F88839983AA837E
:1057E000BB8380915C0585FF3AC0F801E85DFD4F01
:1057F000608182EB9BE00E94D0A0F5014081518145
:10580000628173818BE99BE00E9425A1F6014081B2
:1058100051816281738187E89BE00E9425A1F70195
:10582000408151816281738181E79BE00E9425A1C3
:10583000488159816A817B818BE59BE00E9425A18B
:105840006AE088E09FE0DF91CF911F910F91FF9078
:10585000EF90DF90CF90BF90AF900C94D915DF916F
:10586000CF911F910F91FF90EF90DF90CF90BF905D
:10587000AF900895CF92DF92EF920F931F93CF9343
:10588000DF93CDB7DEB760970FB6F894DEBF0FBEDB
:10589000CDBFE0907003ECE4F5E080859185A285B2
:1058A000B385448155816681778100811181228190
:1058B00033810D871E872F87388B49875A876B87DF
:1058C0007C878D839E83AF83B88719821A821B825F
:1058D0001C82AE014B5F5F4FBE01675F7F4FCE0101
:1058E0000D960E94468FCE0101966C0103E211E0F5
:1058F00028E535E0AE014B5F5F4FBE01675F7F4F2C
:105900000C960E94AB9D60960FB6F894DEBF0FBE5A
:10591000CDBFDF91CF911F910F91EF90DF90CF908E
:1059200008958F929F92AF92BF92CF92DF92EF92A3
:105930000F931F93CF93DF93CDB7DEB760970FB66A
:10594000F894DEBF0FBECDBF8C01E0907003ECE396
:10595000F5E080859185A285B38544815581668176
:10596000778180809180A280B3808D869E86AF866D
:10597000B88A49875A876B877C878D839E83AF83DC
:10598000B88719821A821B821C82AE014B5F5F4F5F
:10599000BE01675F7F4FCE010D960E94468FCE01FC
:1059A00001966C0128E435E0AE014B5F5F4FBE010C
:1059B000675F7F4F0C960E94AB9D60960FB6F89480
:1059C000DEBF0FBECDBFDF91CF911F910F91EF9042
:1059D000DF90CF90BF90AF909F908F9008954F929F
:1059E0005F926F927F92AF92BF92CF92DF92EF92CF
:1059F000FF920F931F93CF93DF93CDB7DEB76297DC
:105A00000FB6F894DEBF0FBECDBF69837A838B8358
:105A10009C832D833E834F83588727013801DA8A80
:105A2000C98A8091230190912401A0912501B09110
:105A3000260189879A87AB87BC8780915C0585FFA3
:105A400039C0209187033091880340918903509198
:105A50008A03C801B7010E9428CE5B016C01209126
:105A600083033091840340918503509186036D81B7
:105A70007E818F8198850E9428CE6D877E878F8753
:105A8000988B20917F033091800340918103509146
:105A9000820369817A818B819C810E9428CE9B013F
:105AA000AC01ED84FE840F85188960E070E083E42A
:105AB0009BE0EADAA989BA89AC901196BC9011975B
:105AC00012960C91129713961C9120E030E0A901D8
:105AD000B501C8010E9401CF811108C0E7EDF5E1D1
