:100000000C9410150C943A150C943A150C943A155E
:100010000C943A150C943A150C943A150C943A1524
:100020000C943A150C943A150C94ADD40C942AD532
:100030000C943A150C943A150C943A150C943A1504
:100040000C943A150C94768D0C943A150C943A1540
:100050000C943A150C943A150C9410A10C940CD4F1
:100060000C943A150C943A150C943A150C943A15D4
:100070000C943A150C943A150C943A150C943A15C4
:100080000C943A150C943A150C943A150C943A15B4
:100090000C943A150C943A1545255E256D25682576
:1000A000632559254A254F2554252A2874289A283E
:1000B0008D288028662836284628562872D19ED159
:1000C000C0D1C0D1C0D1C0D1C0D1C0D1C0D1C0D1A8
:1000D000C0D1C0D1C0D1C0D1B6D1AED1A6D1C0D1CE
:1000E000C0D1C0D1C0D1C0D1C0D1C0D198D17ED1F2
:1000F00086D190D1084AD73B3BCE016E84BCBFFD70
:10010000C12F3D6C74319ABD56833DDA3D00C77FE7
:1001100011BED9E4BB4C3E916BAAAABE0000008080
:100120003F05A84CCDB2D44EB93836A9020C50B90F
:10013000918688083CA6AAAA2ABE000000803F003B
:100140004E414E494E495459494E46CDCCCC3D0ABC
:10015000D7233C17B7D13877CC2B329595E6241F9F
:10016000B14F0A000020410000C84200401C462058
:10017000BCBE4CCA1B0E5AAEC59D742020506C618B
:100180006E6E657242756666657242797465733A21
:1001900020002046726565204D656D6F72793A20AA
:1001A00000436F6D70696C65643A204E6F76202055
:1001B0003920323031380A00207C20417574686F54
:1001C000723A202844722E5068696C3344290A0020
:1001D000323031382D30382D303100204C6173747D
:1001E00020557064617465643A2000312E312E39D7
:1001F0000A004D61726C696E0020536F66747761FE
:1002000072652052657365740A00205761746368D3
:10021000646F672052657365740A002042726F77BD
:100220006E206F75742052657365740A00204578DE
:100230007465726E616C2052657365740A00506F4C
:1002400077657255700A0073746172740A00507297
:10025000696E7465722068616C7465642E206B69C8
:100260006C6C28292063616C6C6564210A004B4921
:100270004C4C45442E20004B494C4C206361757317
:10028000656420627920746F6F206D7563682069E2
:100290006E6163746976652074696D65202D2063D5
:1002A000757272656E7420636F6D6D616E643A2055
:1002B0000020746F6F206C6F6E67206578747275A4
:1002C00073696F6E2070726576656E7465640A007E
:1002D00020636F6C6420657874727573696F6E202B
:1002E00070726576656E7465640A006F6B005265A6
:1002F00073656E643A2000416476616E6365204BDD
:100300003D003F4B2076616C7565206F7574206FE2
:10031000662072616E67652028302D3130292E0AE3
:10032000003A200050726F6265205A204F66667353
:100330006574003F5A206F7574206F662072616E7D
:10034000676520282D3520746F203230290A00453A
:100350004550524F4D204F4B0A004D657368207039
:100360006F696E742063616E6E6F742062652072B7
:1003700065736F6C7665640A004D34323120696EA6
:10038000636F727265637420706172616D6574650C
:10039000722075736167650A004F66660A004661E0
:1003A0006465204865696768742000426564204C74
:1003B0006576656C696E6720004661696C656420CE
:1003C000746F20656E61626C6520426564204C65C7
:1003D00076656C696E670A004E6F206361736520F5
:1003E0006C696768740A0043290A0061626C65647D
:1003F00020286D696E2074656D702000436F6C64F9
:100400002065787472756465732061726520004997
:100410006E76616C69642065787472756465720AC1
:100420000020643A0020693A0020703A0050726F50
:100430006265205A204F66667365743A2000204634
:100440006C6F773A2000205A002059005800202075
:100450004D61783A2000205A002059005800202091
:100460004D696E3A20004F6666004F6E2000536F54
:10047000667420656E6473746F70733A20004F6603
:100480006673657473206170706C69656400457291
:10049000723A20546F6F206661722100546F6F2092
:1004A0006661722066726F6D207265666572656E38
:1004B000636520706F696E740A005741524E494E51
:1004C0004721204C6F77205A204A65726B206D615E
:1004D00079206C65616420746F20756E77616E742D
:1004E0006564207061757365732E0A0020540020C6
:1004F0005200416363656C65726174696F6E3A2086
:1005000050004D31343520533C696E6465783E208F
:100510006F7574206F662072616E67652028302DBC
:1005200031290A002F2F20003A004361703A00540D
:100530004845524D414C5F50524F54454354494FEA
:100540004E004155544F5245504F52545F53445FF3
:1005500053544154555300454D455247454E435918
:100560005F50415253455200434153455F4C494708
:1005700048545F4252494748544E45535300544FE4
:1005800047474C455F4C494748545300534F4654E6
:10059000574152455F504F574552004255494C44D0
:1005A0005F50455243454E54004C4556454C494ECC
:1005B000475F44415441005A5F50524F4245004109
:1005C00055544F4C4556454C005052494E545F4A85
:1005D0004F420050524F4752455353004155544FDC
:1005E0005245504F52545F54454D5000564F4C5554
:1005F0004D455452494300454550524F4D005345D7
:100600005249414C5F584F4E5F584F46460046494D
:10061000524D574152455F4E414D453A4D61726CC6
:10062000696E20312E312E39202847697468756231
:100630002920534F555243455F434F44455F555220
:100640004C3A68747470733A2F2F676974687562D6
:100650002E636F6D2F4D61726C696E4669726D7796
:100660006172652F4D61726C696E2050524F544F0C
:10067000434F4C5F56455253494F4E3A312E30202E
:100680004D414348494E455F545950453A33442003
:100690005072696E746572204558545255444552E3
:1006A0005F434F554E543A3120555549443A343002
:1006B0006365363164312D326564302D3435333025
:1006C0002D383330342D35356533656561616562AC
:1006D00066660A003344205072696E746572204F5A
:1006E00066662E0020573A004520436F6F6C696E96
:1006F000672E2E2E00452048656174696E672E2E88
:100700002E006F6B004D3131332053004B494C4C60
:1007100045442E20004543484F00494E464F004572
:1007200052524F52530044525952554E00434F4D6E
:100730004D554E49434154494F4E006F6666001572
:10074000071A071F0726072D0744454255473A0059
:1007500020697320616C736F207469656420746F05
:1007600020746869732070696E0054494D45523099
:1007700041000A202E00202000496E707574202050
:100780003D20004F7574707574203D200050574D0A
:100790003A20202534640050574D3A2020253464F7
:1007A0000050574D3A20202534640050574D3A20D0
:1007B000202534640050574D3A20202534640050E1
:1007C000574D3A20202534640050574D3A202025BB
:1007D00034640050574D3A20202534640050574D62
:1007E0003A20202534640020202000202020416E63
:1007F000616C6F6720696E203D20253564003C7573
:100800006E757365642F756E6B6E6F776E3E00202C
:10081000284125326429202000257350494E3A2072
:100820002533642000416E616C6F6720696E203D46
:10083000202535640070726F7465637465642000F0
:1008400020284125326429202000257350494E3A42
:10085000202533642000534552564F206E6F74207C
:1008600073657475700A00446F6E652E0A005761D7
:10087000746368696E672070696E730A0061626CE8
:1008800065640A0064697300656E00656E64737464
:100890006F70206D6F6E69746F72200050726F748C
:1008A00065637465642050696E0A0000011C1D13A5
:1008B0002FFFFFFFFF1E1F12FF14FFFFFF2021115C
:1008C00024FFFFFFFFFFFFFF0E10FFFFFF22230D9E
:1008D000FFFFFF0E260F2C272569730025696D2069
:1008E000256973002569682025696D2025697300D5
:1008F000256964202569682025696D2025697300B4
:1009000025697920256964202569682025696D207D
:10091000256973005072696E742074696D653A20A0
:10092000004E6F206D6F76652E00436C69636B20FF
:10093000746F20726573756D652E2E2E004D657374
:100940006820706F696E742063616E6E6F742062D0
:1009500065207265736F6C7665640A00205A3A20D0
:100960000020593A200042656420583A200042692C
:100970006C696E656172204C6576656C696E672086
:10098000477269643A0A004731205A3130204637AD
:100990003030300A47312058302059302046373027
:1009A000303000202844525952554E2900473239E0
:1009B000204175746F20426564204C6576656C69D2
:1009C0006E67003F20284C2C522C462C4229206F69
:1009D0007574206F6620626F756E64732E0A003F17
:1009E0002856296572626F7365206C6576656C2088
:1009F000697320696D706C61757369626C6520281C
:100A0000302D34292E0A00426164205A2076616C10
:100A100075650A004E6F2062696C696E65617220AF
:100A2000677269640A00536C6565702E2E2E00474C
:100A3000322F47332062616420706172616D65748A
:100A40006572730A00496E76616C6964206578741A
:100A500072756465720A0041637469766520457831
:100A60007472756465723A200020453A00205A3A43
:100A70000020593A00583A002020506F72743A20F2
:100A8000002020206F766572666C6F7720696E7427
:100A900065727275707420656E61626C65640020A9
:100AA0002020636F6D7061726520696E746572726B
:100AB00075707420656E61626C6564002020206E24
:100AC0006F6E2D7374616E646172642050574D2097
:100AD0006D6F6465003A20002020202054494D535A
:100AE0004B00423A20002020202054434352004132
:100AF0003A20002020202054434352002020202070
:100B000043533A20002020202057474D3A200050E0
:100B1000574D3A20202534640050574D3A20202567
:100B20003464002020202054494D455200433A208F
:100B300000423A2000413A200020202020434F4D1F
:100B4000002C20002C2000486F6D6520585920662D
:100B5000697273740A00486F6D6520585920666980
:100B6000727374005761726E696E673A20486F6DD8
:100B7000696E672042756D702044697669736F7283
:100B8000203C20310A00020204627573793A207019
:100B9000617573656420666F7220696E7075740A82
:100BA00000627573793A2070617573656420666FB1
:100BB0007220757365720A00627573793A207072DB
:100BC0006F63657373696E670A0050726F62696E56
:100BD00067206661696C65640A0050726F62696EB5
:100BE00067206661696C656400205A3A20002059CC
:100BF0003A200042656420583A2000486F6D652015
:100C000025732573257320666972737400206669E5
:100C10007273740A005A0059005800486F6D6520BD
:100C20000020496E76616C69642065787472756421
:100C3000657220004B494C4C45442E200053544FC4
:100C4000505045442E20005072696E7465722073B6
:100C5000746F707065642064756520746F206572B0
:100C6000726F72732E2046697820746865206572F1
:100C7000726F7220616E6420757365204D39393949
:100C800020746F20726573746172742E202854650D
:100C90006D70657261747572652069732072657319
:100CA00065742E20536574206974206166746572C2
:100CB0002072657374617274696E67290A004E6FE1
:100CC00020436865636B73756D2077697468206C69
:100CD000696E65206E756D6265722C204C6173744F
:100CE000204C696E653A2000636865636B73756DAF
:100CF000206D69736D617463682C204C617374207E
:100D00004C696E653A20004C696E65204E756D62C7
:100D10006572206973206E6F74204C617374204C6F
:100D2000696E65204E756D6265722B312C204C61A9
:100D30007374204C696E653A20004D313130006586
:100D40006E7175657565696E672022000000480048
:100D5000000088008A008C00B300B40000009800F6
:100D60009A009C00440045006E00800081006F00E6
:100D7000B000B10070009000910071000404040400
:100D80000404040405050303030303030303050527
:100D9000020202020202020201010101010101013B
:100DA0000505060606060606060605054B1028007C
:100DB00040102700331026002610170119101601C5
:100DC0000D10150102101401FA0F0A01F20F0B01A8
:100DD000EA0F0C01DA0F2C01CF0F2301C10F0D0117
:100DE000B50F2201AD0F1001A00F0F01930F2C01C1
:100DF000860F2D01770F0E016B0F07015F0F0601A4
:100E0000530F0501470F0401370F08012B0F09018C
:100E1000220F1701190F1601110F15010C0F1A01DE
:100E2000050F1401FB0E1D01EE0E1301E40E2F0140
:100E3000D90E1C01CE0E2F01C40E1F01B70E1201D8
:100E4000AD0E1401A20E1E01970E14018D0E21018C
:100E5000800E1101760E24016B0E2001600E24011C
:100E60005A5F53544F505F50494E005A5F53544598
:100E7000505F50494E005A5F4D494E5F50494E00F9
:100E80005A5F454E41424C455F50494E005A5F44BF
:100E900049525F50494E00595F53544F505F50497B
:100EA0004E00595F535445505F50494E00595F4DB5
:100EB00041585F50494E00595F454E41424C455F95
:100EC00050494E00595F4449525F50494E00585FA7
:100ED00053544F505F50494E00585F535445505F34
:100EE00050494E00585F4D494E5F50494E00585F83
:100EF000454E41424C455F50494E00585F4449526F
:100F00005F50494E0053535F50494E005344535372
:100F10000053434B5F50494E004D4F53495F50497A
:100F20004E004D49534F5F50494E004C43445F5073
:100F3000494E535F5253004C43445F50494E535FF8
:100F4000454E41424C45004C43445F50494E535F2F
:100F50004437004C43445F50494E535F4436004C85
:100F600043445F50494E535F4435004C43445F5007
:100F7000494E535F4434004845415445525F424511
:100F8000445F50494E004845415445525F325F50DE
:100F9000494E004845415445525F315F50494E002B
:100FA0004845415445525F305F50494E0046414EDE
:100FB0005F50494E0045305F535445505F50494E95
:100FC0000045305F454E41424C455F50494E00451B
:100FD000305F4449525F50494E0045305F4155549F
:100FE0004F5F46414E5F50494E0042544E5F454E62
:100FF000430042544E5F454E320042544E5F454ED0
:1010000031004156525F53535F50494E0041565292
:101010005F53434B5F50494E004156525F4D4F5313
:10102000495F50494E004156525F4D49534F5F5002
:10103000494E0054454D505F4245445F50494E0073
:1010400054454D505F305F50494E0046494C57491A
:101050004454485F50494E00FF01FF0000A040008B
:1010600000A0400000004000003B4300003D430062
:101070000048430000000000003D43000000000065
:10108000003B4300003D43000048430000000000D7
:10109000000000000000000000484200004842003C
:1010A000008040000000003A0A0020286D6D2900F1
:1010B00020204D393030204B004C696E6561722024
:1010C000416476616E63653A0A0020204D383531FF
:1010D000205A005A2D50726F6265204F6666736504
:1010E000740020440020490020204D33303120502E
:1010F000005049442073657474696E67733A0A003E
:1011000020460020420020480020204D3134352068
:1011100053004D6174657269616C20686561747516
:101120007020706172616D65746572733A0A002097
:101130005A00204A002020473239205720490020F9
:101140005A0020204D3432302053004175746F20F6
:10115000426564204C6576656C696E673A0A0020CA
:101160005A0020590020204D323036205800486F58
:101170006D65206F66667365743A0A00204500202D
:101180005A002059002058002054002053002020ED
:101190004D32303520510020453C6D61785F655FF0
:1011A0006A65726B3E0020583C6D61785F785F6ABB
:1011B00065726B3E20593C6D61785F795F6A65723C
:1011C0006B3E205A3C6D61785F7A5F6A65726B3E58
:1011D00000416476616E6365643A20513C6D696ECE
:1011E0005F7365676D656E745F74696D655F757358
:1011F0003E20533C6D696E5F66656564726174651F
:101200003E20543C6D696E5F74726176656C5F66FA
:10121000656564726174653E0020540020520020B0
:10122000204D323034205000416363656C6572613B
:1012300074696F6E2028756E6974732F7332293A42
:1012400020503C7072696E745F616363656C3E2010
:10125000523C726574726163745F616363656C3E76
:1012600020543C74726176656C5F616363656C3EAB
:101270000A00204500205A0020590020204D32301D
:10128000312058004D6178696D756D20416363654B
:101290006C65726174696F6E2028756E6974732F46
:1012A0007332293A0A00204500205A0020590020B4
:1012B000204D3230332058004D6178696D756D20B6
:1012C0006665656472617465732028756E697473F0
:1012D0002F73293A0A00204500205A002059002087
:1012E000204D393220580053746570732070657238
:1012F00020756E69743A0A0020204D323030204447
:10130000300A0020204D32303020440020446973E0
:1013100061626C65640A0046696C616D656E74207B
:1013200073657474696E67733A0020204D313439E7
:101330002043203B20556E69747320696E204365FD
:101340006C736975730A00202047323120202020F9
:101350003B0048617264636F646564204465666144
:10136000756C742053657474696E6773204C6F617B
:101370006465640A00D0070000D0070000D00700B1
:1013800000102700000000FA420000FA420000A00E
:10139000400000C8410000A0420000A0420080FCC4
:1013A000440000C042290A002062797465733B2022
:1013B00063726320002073746F72656420736574B8
:1013C00074696E67732072657472696576656420EE
:1013D0002800202863616C63756C61746564292141
:1013E0000A0020213D2000454550524F4D204352D8
:1013F00043206D69736D61746368202D20287374B8
:101400006F7265642920002053697A653A2000498B
:101410006E6465783A2000204D61726C696E3D56AD
:101420003535290A0028454550524F4D3D00454568
:1014300050524F4D2076657273696F6E206D6973DF
:101440006D617463682000290A00206279746573F5
:101450003B20637263200053657474696E67732068
:1014600053746F726564202800454550524F4D20DB
:101470006461746173697A65206572726F722E0A95
:10148000004572726F722077726974696E6720749A
:101490006F20454550524F4D210A000A0A00202076
:1014A0005A5F4D494E3A002020595F4D41583A004D
:1014B0002020585F4D494E3A006F70656E005452BF
:1014C00049474745524544003A20007A5F6D696EAE
:1014D00000795F6D617800785F6D696E00526570AC
:1014E0006F7274696E6720656E6473746F702073B9
:1014F00074617475730A00456E6473746F70732041
:10150000256320256320256320256300205A3A00A7
:1015100020593A0020583A00656E6473746F7073F6
:10152000206869743A2000486F6D696E67206661B3
:10153000696C656400556E6B6E6F776E20636F6DBE
:101540006D616E643A20220020746F6F206C6F6EA4
:101550006720657874727573696F6E207072657636
:10156000656E7465640A0020636F6C64206578742E
:10157000727573696F6E2070726576656E746564DE
:101580000A00FFFDFCFAF8F6F4F2F0EEECEAE9E707
:10159000E5E3E1E0DEDCDAD9D7D5D4D2D0CFCDCBCC
:1015A000CAC8C7C5C3C2C0BFBDBCBAB9B7B6B4B359
:1015B000B2B0AFADACAAA9A8A6A5A4A2A1A09E9DB9
:1015C0009C9A99989795949392908F8E8D8B8A89F7
:1015D00088878684838281807F7E7D7B7A79787715
:1015E000767574737271706F6E6D6C6B6A69686713
:1015F000666564636261605F5E5D5C5B5A59585802
:101600005756555453525150504F4E4D4C4B4A4AD9
:101610004948474646454443424241403F3E3E3D9D
:101620003C3B3B3A39383837363535343332323152
:1016300030302F2E2E2D2C2B2B2A292928272726F8
:10164000252524232322212120201F1E1E1D1C1C92
:101650001B1B1A191918181716161515141313121F
:10166000121111100F0F0E0E0D0D0C0C0B0A0A09A2
:10167000090808070706060505040403030202011A
:10168000000000000001000000010000800055552E
:1016900055000000400033333300AAAA2A004992C3
:1016A000240000002000C7711C0099991900D14541
:1016B0001700555515003BB11300244912001111B4
:1016C0001100000010000F0F0F00E3380E004379E7
:1016D0000D00CCCC0C00C3300C00E8A20B00642140
:1016E0000B00AAAA0A00703D0A009DD80900427B9F
:1016F000090092240900DCD3080088880800104201
:10170000080000000800F0C1070087870700755037
:101710000700711C07003EEB0600A1BC06006990A3
:10172000060066660600703E06006118060017F4A3
:10173000050074D105005BB00500B290050062722F
:1017400005005555050078390500B81E050005054A
:1017500005004EEC040087D40400A1BD040090A74E
:10176000040049920400C17D0400EE690400C756DC
:101770000400444404005C320400082104004110C9
:101780000400000004003FF00300F8E0030026D24C
:101790000300C3C30300CCB503003AA803000A9BAF
:1017A0000300388E0300C08103009F750300D069D9
:1017B0000300505E03001D53030034480300913DB5
:1017C00003003333030016290300381F0300971565
:1017D0000300300C0300030303000BFA020049F17D
:1017E0000200BAE802005CE002002DD802002DD011
:1017F000020059C80200B0C0020031B90200DAB1DB
:101800000200AAAA0200A0A30200BC9C0200FA9552
:1018100002005C8F0200DF88020082820200457CA9
:1018200002002776020027700200436A02007C64EF
:101830000200D05E02003F590200C85302006563F7
:10184000686F3A004572726F723A00205A3A00206F
:10185000593A0020436F756E7420583A00232C00CB
:1018600000B8220000561800003A0F0000B8080027
:1018700000B1040000710200003E01000024F4D415
:101880003050C38E20C2A24017828B7011127A9101
:101890000D816CD90AA861E108C7586607615143F8
:1018A000061E4B5D05C145A7041A411104093D9868
:1018B00003713931034036DB0265339102D4305471
:1018C00002802E1D02632CEE01752AC501B028A0EE
:1018D00001102781018F2564012B244B01E0223464
:1018E00001AC211F018D200D01801FFC00841EED25
:1018F00000971DDF00B81CD200E61BC600201BBCF1
:1019000000641AB200B219A8000A19A0006A189956
:1019100000D117910040178B00B516840031167E58
:1019200000B31579003A157300C7146F0058146A94
:1019300000EE1366008813630025135E00C7125B78
:10194000006C12570015125400C111510070114F54
:101950000021114B00D61049008D1047004610445D
:101960000002104200C00F4000800F3E00420F3CBA
:1019700000060F3B00CB0E3800930E37005C0E358F
:1019800000270E3400F30D3200C10D3100900D30F0
:1019900000600D2E00320D2D00050D2C00D90C2BF2
:1019A00000AE0C2900850C29005C0C2700350C27A3
:1019B000000E0C2600E80B2400C40B2400A00B230F
:1019C000007D0B23005A0B2100390B2100180B203E
:1019D00000F80A1F00D90A1E00BB0A1E009D0A1D3E
:1019E00000800A1D00630A1C00470A1B002C0A1B0A
:1019F00000110A1A00F7091A00DD091900C40919B3
:101A000000AB091900920917007B09180063091738
:101A1000004C09160036091600200916000A09159F
:101A200000F5081500E0081400CC081400B80814EC
:101A300000A4081400900813007D0812006B08131E
:101A4000005808120046081200340811002308113B
:101A5000001208110001081100F0071000E0071043
:101A600000D0071000C0071000B0070F00A107103A
:101A70000091070E0083070F0074070F0065070E23
:101A80000057070E0049070E003B070D002E070EFA
:101A90000020070D0013070D0006070D00F9060CC6
:101AA00000ED060D00E0060C00D4060C00C8060C84
:101AB00000BC060C00B0060C00A4060B0099060C36
:101AC000008D060B0082060B0077060B006C060BE0
:101AD0000061060A0057060B004C060A0042060A7F
:101AE0000038060A002E060A0024060A001A060A12
:101AF000001006090007060A00FD050900F40509A3
:101B000000EB050900E2050900D9050900D0050927
:101B100000C7050900BE050900B5050800AD0508A8
:101B200000A50509009C050800940508008C05081F
:101B300000840508007C050800740508006C050792
:101B400000650508005D050700560508004E0507FD
:101B50000047050700400508003805070031050764
:101B6000002A050700230507001C050600160507C7
:101B7000000F0507000805060002050700FB040624
:101B800000F5040700EE040600E8040600E204077E
:101B900000DB040600D5040600CF040600C90406D5
:101BA00000C3040600BD040600B7040600B1040526
:101BB00000AC040600A6040600A00405009B040671
:101BC0000095040500900406008A040500850405BC
:101BD00000800406007A0405007504050070040501
:101BE000006B04050066040500610405005C040543
:101BF0000057040500520405004D04050048040583
:101C000000430405003E0404003A040500350405C1
:101C100000300404002C04050027040400230405FC
:101C2000001E0404001A0404001604050011040434
:101C3000000D040400090405000404040000040469
:101C400000FC030400F8030400F4030400F00304A0
:101C500000EC030400E8030400E4030400E00304D0
:101C600000DC030400D8030400D4030400D0030400
:101C700000CC030400C8030300C503030024F404DC
:101C8000D9201BC40C5C0E9804C4095F026507715F
:101C900001F405F900FB04B30048048700C103699F
:101CA000005803550003034500BE023A0084023188
:101CB0000053022A002902250004022000E4011C2E
:101CC00000C8011900AF0117009801140084011326
:101CD00000710110006101100051010E0043010D5F
:101CE0000036010B002B010B0020010B0015010930
:101CF000000C01090003010800FB000800F30008C4
:101D000000EB000700E4000600DE000600D8000635
:101D100000D2000600CC000500C7000500C2000587
:101D200000BD000400B9000400B5000400B10004C7
:101D300000AD000400A9000400A5000300A20003F8
:101D4000009F0004009B0003009800030095000220
:101D50000093000300900003008D0002008B00033D
:101D60000088000200860002008400030081000257
:101D7000007F0002007D0002007B0002007900026B
:101D8000007700010076000200740002007200017A
:101D900000710002006F0002006D0001006C000283
:101DA000006A00010069000200670001006600018E
:101DB0000065000100640002006200010061000192
:101DC00000600001005F0002005D0001005C000196
:101DD000005B0001005A0001005900010058000199
:101DE0000057000100560001005500010054000199
:101DF0000053000000530001005200010051000197
:101E000000500001004F0001004E0000004E000194
:101E1000004D0001004C0001004B0000004B000190
:101E2000004A00010049000100480000004800018C
:101E30000047000100460000004600010045000088
:101E40000045000100440001004300000043000180
:101E5000004200000042000100410000004100017A
:101E600000400001003F0000003F0001003E000074
:101E7000003E0001003D0000003D0001003C00006C
:101E8000003C0000003C0001003B0000003B000162
:101E9000003A0000003A000100390000003900015A
:101EA0000038000000380000003800010037000052
:101EB0000037000100360000003600000036000147
:101EC000003500000035000000350001003400003E
:101ED0000034000000340001003300000033000033
:101EE0000033000100320000003200000032000127
:101EF000003100000031000000310001003000001E
:101F00000030000000300001002F0000002F000012
:101F1000002F0000002F0001002E0000002E000006
:101F2000002E0001002D0000002D0000002D0000FB
:101F3000002D0001002C0000002C0000002C0000EF
:101F4000002C0001002B0000002B0000002B0000E3
:101F5000002B0001002A0000002A0000002A0000D7
:101F6000002A0001002900000029000000290000CB
:101F700000290000002900010028000000280000BE
:101F800000280000002800000028000100270000B1
:101F900000270000002700000027000000270001A4
:101FA0000026000000260000002600000026000099
:101FB000002600010025000000250000002500008B
:101FC000002500000025000000250001002400007D
:101FD0000024000000240000002400000024000170
:101FE0000023000000230000002300000023000065
:101FF0000023000000230000002300010022000055
:102000000022000000220000002200000022000048
:10201000002200010021000000210000002100003A
:10202000002100000021000000210000002100012B
:102030000020000000200000002000000020000020
:10204000002000000020000000200000002000010F
:10205000001F0000001F0000001F0000001F000004
:10206000001F0000001F0000001F0001001E0000F4
:10207000001E0000001E0000001E00000020403A6C
:1020800000202F00546865726D616C2052756E617E
:1020900077617900453120544845524D414C2052DA
:1020A000554E41574159004B494C4C45442E200058
:1020B000202D20496E76616C696420657874727594
:1020C000646572206E756D62657220210A00486534
:1020D0006174696E67206661696C656400453120D2
:1020E00048656174696E67206661696C6564004D5E
:1020F000494E54454D502074726967676572656436
:10210000004531204572723A204D494E54454D509C
:10211000004D415854454D5020747269676765728F
:102120006564004531204572723A204D415854454E
:102130004D50006265640A002C2073797374656DDC
:102140002073746F707065642120486561746572D6
:102150005F49443A20002CFFFFFFFFFF000101010F
:10216000010123646566696E652044454641554C0E
:10217000545F4B64200023646566696E65204445A6
:102180004641554C545F4B69200023646566696E77
:10219000652044454641554C545F4B7020005049E2
:1021A00044204175746F74756E652066696E69733D
:1021B000686564212050757420746865206C6173B3
:1021C00074204B702C204B6920616E64204B64207E
:1021D000636F6E7374616E74732066726F6D2062CC
:1021E000656C6F7720696E746F20436F6E666967E8
:1021F00075726174696F6E2E680A005049442041FF
:1022000075746F74756E65206661696C65642120F4
:1022100074696D656F75740A00546865726D616CE0
:102220002052756E617761790045312054484552DE
:102230004D414C2052554E415741590048656174FB
:10224000696E67206661696C656400453120486588
:102250006174696E67206661696C65640050494409
:10226000204175746F74756E65206661696C656474
:10227000212054656D706572617475726520746F8C
:102280006F20686967680A00204B643A2000204B81
:10229000693A2000204B703A20000A20436C617399
:1022A00073696320504944200A002054753A200085
:1022B000204B753A2000206D61783A2000206D692E
:1022C0006E3A200020643A200020626961733A204F
:1022D00000504944204175746F74756E65207374A5
:1022E0006172740A00504944204175746F74756EB0
:1022F00065206661696C65642120426164206578AF
:10230000747275646572206E756D6265720A007014
:10231000012C0190012701B0012201C0011D01F033
:102320000118011002130130020E01600209019030
:10233000020401C002FF000003FA004003F5008020
:1023400003F000D003EB002004E6007004E100E09D
:1023500004DC004005D700C005D2004006CD00D007
:1023600006C8008007C3003008BE00F008B900C0EE
:1023700009B400B00AAF00B00BAA00D00CA5000051
:102380000EA000500F9B00C010960050129100004C
:10239000148C00C0158700B0178200B0197D00D0E2
:1023A0001B7800001E730040206E0090226900F030
:1023B00024640040275F0090295A00E02B5500104C
:1023C0002E500020304B0010324600E03341009088
:1023D000353C001037370070383200A0392D00B07E
:1023E0003A2800A03B2300603C1E00103D190090DD
:1023F0003D1400103E0F00703E0A00C03E05000074
:102400003F0000403FFBFF803FF6FFC03FF1FF462B
:10241000696C2E204469612E0046696C2E20446947
:10242000612E004520696E206D6D33004F66660099
:102430004F6E2000416476616E6365204B004164FD
:1024400076616E6365204B00436F6E74726F6C0033
:1024500050726F6265205A204F6666736574004340
:102460006F6E74726F6C005049442D4400504944A3
:102470002D44005049442D49005049442D490050F5
:1024800049442D50005049442D50002002204661FF
:1024900063740020022046616374002002204D61B5
:1024A00078002002204D6178002002204D696E00E6
:1024B0002002204D696E004175746F74656D700067
:1024C0004F6666004F6E200046616E207370656532
:1024D000640046616E207370656564004E6F7A7AA1
:1024E0006C65004E6F7A7A6C6500436F6E74726F24
:1024F0006C00526573746F7265206661696C7361FC
:102500006665004C6F61642073657474696E6773EF
:102510000053746F72652073657474696E6773001D
:1025200046696C616D656E74004D6F74696F6E0005
:1025300054656D7065726174757265004D61696E88
:10254000004578747275646572004D6F7665205A27
:10255000004D6F76652059004D6F7665205800500C
:10256000726570617265004D6F766520302E316D39
:102570006D004D6F766520316D6D004D6F76652075
:1025800031306D6D004D6F7665206178697300455F
:1025900078747275646572004D6F7665205A004DCF
:1025A0006F76652059004D6F766520580045787428
:1025B0007275646572004D6F7665205A004D6F76B6
:1025C000652059004D6F766520580050726568652A
:1025D00061742041425300507265686561742050F7
:1025E0004C4100436F6F6C646F776E004469736198
:1025F000626C65207374657070657273004D383459
:1026000000426564204C6576656C696E67004175B3
:10261000746F20686F6D6500473238004D6F7665C6
:102620002061786973004D61696E0053746F726543
:102630002073657474696E6773004C6F61642073F6
:10264000657474696E67730050726F6265205A20FA
:102650004F66667365740046616465204865696706
:102660006874004661646520486569676874004263
:102670006564204C6576656C696E67004F66660020
:102680004F6E20004C6576656C20626564004732B1
:10269000380A47323900473239004175746F206873
:1026A0006F6D650047323800507265706172650069
:1026B00050726F6265205A204F66667365740046DB
:1026C0006C6F7700466C6F770046616E20737065A3
:1026D00065640046616E207370656564004E6F7AB4
:1026E0007A6C65004E6F7A7A6C650053706565642C
:1026F000005370656564004D61696E00436F6E74D0
:10270000726F6C00507265706172650054756E6511
:1027100000437573746F6D20436F6D6D616E6473EC
:1027200000496E666F2073637265656E00486F6D59
:1027300065202620496E666F0048656174204265F9
:10274000642F486F6D652F4C6576656C005072651F
:102750006865617420666F72204142530050726553
:102760006865617420666F7220504C4100486F6D3F
:102770006520262055424C20496E666F004D6169E8
:102780006E004732380A4D3530330A4D313137202B
:10279000557365722053637269707420446F6E655F
:1027A000004D31343020533131300A4732380A4736
:1027B00032390A4D313137205573657220536372B7
:1027C00069707420446F6E65004D31343020533190
:1027D00031300A4D31303420533234300A4D3131EA
:1027E0003720557365722053637269707420446F8B
:1027F0006E65004D313430205337300A4D3130345E
:1028000020533138300A4D313137205573657220ED
:1028100053637269707420446F6E65004732380AE2
:1028200047323920570A4D313137205573657220B0
:1028300053637269707420446F6E65003344205096
:1028400072696E7465722052656164792E005072EF
:10285000696E74696E672E2E2E005072696E742038
:102860007061757365640025753A253032750025F1
:102870003032753A2530327500202020200020208B
:102880002020202000040E1F041C000000000E1356
:1028900015110E00001C10181705060500040A0A81
:1028A0000A0A11110E0C12120C00000000001F1574
:1028B00011151F000050726F6265205A204F666626
:1028C00073657400506C656173652072657365741F
:1028D000005052494E5445522048414C5445440002
:1028E00001290229042908291029202940298029A1
:1028F000012C022C0126022604260826102620265A
:1029000040268026402C802C012302230423082308
:1029100010232023402380230120022004200820AC
:102920001020202040208020102C202C012F022F4E
:10293000042F082F102F202F402F802F7EFE7EFD8A
:102940007EFB7EF77EEF7EDF7EBF7E7F0001000094
:10295000FD291200020000BA294300030000B62935
:1029600004010309049C291802030904842916039D
:1029700003090476290C0C033100320033003400C3
:10298000350000001603550053004200200053009C
:1029900065007200690061006C00000018035400BB
:1029A000650065006E0073007900640075006900C1
:1029B0006E006F00000004030904090243000201D5
:1029C00000C03209040000010202010005240010C9
:1029D0000105240100010424020605240600010764
:1029E00005820308004009040100020A00000007F4
:1029F00005030240000007058402400000120100A8
:102A00000202000020C016830472020102030100CA
:102A100001C10201803601813600C98BC5B070D872
:102A200011241FBECFEFD0E2DEBFCDBF12E0A0E089
:102A3000B1E0E8E3F9EC01E00BBF02C007900D92B2
:102A4000A639B107D9F72EE0A6E9B2E001C01D9280
:102A5000AA3CB207E1F715E1C0E1D5E104C0219736
:102A6000FE010E9411D9CD30D107C9F70E94CCD008
:102A70000C949AE40C94000090E0FC01EE0FFF1F10
:102A8000E80FF91FE60FF11DEE0FFF1FEE0FFF1FFE
:102A9000E35CFC4F60817181828193810895EBEA50
:102AA000F8E09DE29E0F2491821729F031969E1343
:102AB000FACF80E0089581E008954F925F926F927F
:102AC0007F928F929F92AF92BF92CF92DF92EF92BE
:102AD000FF92CF934B015C0169017A0120E030E065
:102AE00040EA51E40E9439D92B013C012FE632E142
:102AF00043E85AEB0E9416DC87FD48C022E430E030
:102B00004BE353E4C301B2010E9413DA18160CF42C
:102B10003DC02FE632E143E85AEBC701B6010E94FF
:102B200016DC87FD33C022E430E04DE353E4C701F7
:102B3000B6010E9413DA18164CF124EF3DEF4FE96D
:102B400051E4C501B4010E9416DC87FD1FC022E4D8
:102B500030E040E353E4C501B4010E9413DA1816D3
:102B6000ACF027EE3BEF4FE151E4C701B6010E9404
:102B700016DC87FD0BC0C1E022E430E042E353E401
:102B8000C701B6010E9413DA18160CF4C0E08C2FAE
:102B9000CF91FF90EF90DF90CF90BF90AF909F903C
:102BA0008F907F906F905F904F900895FB01019000
:102BB0000020E9F73197AF01461B570BDC01ED917F
:102BC000FC910280F381E02D0994462F50E060E0F3
:102BD00070E020E00C94BCCFAB01770F660B770B55
:102BE0000C9418D0CF93DF931F92CDB7DEB76983D3
:102BF000DC01ED91FC910280F381E02D41E050E099
:102C0000BE016F5F7F4F09950F90DF91CF910895BF
:102C10002F923F924F925F926F927F928F929F92EC
:102C2000AF92BF92CF92DF92EF92FF920F931F93DA
:102C3000CF93DF93CDB7DEB72C970FB6F894DEBFF6
:102C40000FBECDBFF82EE62ED42E322E90E09A87FE
:102C50008987A62FB0E0BC87AB878C01000F111FBE
:102C6000080F191FFD01E00FF11FEE0FFF1FEE0F00
:102C7000FF1FE35CFC4F60817181828193819B0126
:102C8000AC010E94FFDC882309F441C16AE08EEBAD
:102C90009EE0A8DFFD0C6E2D630D8F2D90E0DC0112
:102CA000AA0FBB1FA80FB91F8B859C858A0F9B1F7E
:102CB000FC01EE0FFF1FEE0FFF1FE35CFC4F908047
:102CC000A180B280C380FD0C8F2D90E09C01220F6B
:102CD000331F280F391F8B859C85820F931FFC01A2
:102CE000EE0FFF1FEE0FFF1FE35CFC4FD080E18073
:102CF000F2808380862F90E0F801E80FF91FEE0F35
:102D0000FF1FEE0FFF1FE35CFC4F7080618052805D
:102D10004380630D462F50E0F801E40FF51FEE0FDE
:102D2000FF1FEE0FFF1FE35CFC4F1081018132801B
:102D30002380A80FB91FAA0FBB1FAA0FBB1FA35C3C
:102D4000BC4FEC91E9831196FC911197FA8312968E
:102D50008C9112978B8313969C919C83240F351F23
:102D6000220F331F220F331FD901A35CBC4FEC91FC
:102D7000ED831196FC911197FE8312968C91129718
:102D80008F8313969C9198872D2D3E2D4F2D582D76
:102D90006D2D7E2D8F2D982D0E94FFDC882321F034
:102DA000D12CE12CF12C812C292D3A2D4B2D5C2D91
:102DB000692D7A2D8B2D9C2D0E94FFDC882319F024
:102DC0009D2C5701C82C212F302F432D522D612FC0
:102DD000702F832D922D0E94FFDC882321F010E0BC
:102DE00000E0312C212C272D362D452D542D672D1B
:102DF000762D852D942D0E94FFDC882311F038015B
:102E000021012D813E814F8158856D817E818F8189
:102E100098850E94FFDC882321F01D821E821F827C
:102E2000188629813A814B815C8169817A818B8105
:102E30009C810E94FFDC882341F0AD81A983BE8183
:102E4000BA83EF81EB83F885FC8329853A85220FCD
:102E5000331F89859A85280F391FAB85BC852A0FBA
:102E60003B1F220F331F220F331FF901E35CFC4F7E
:102E7000FA87E987292D3A2D4B2D5C2D692D7A2D66
:102E80008B2D9C2D0E943AD92D2D3E2D4F2D582D46
:102E90000E9439D96B017C01272D362D452D542DEB
:102EA000672D762D852D942D0E943AD9212F302F14
:102EB000432D522D0E9439D99B01AC01C701B601A7
:102EC0000E943AD96B017C0129813A814B815C8156
:102ED00069817A818B819C810E943AD92D813E81C2
:102EE0004F8158850E9439D99B01AC01C701B601B9
:102EF0000E943AD920E030E040E450E40E941ADA1F
:102F0000A985BA856D937D938D939C9313972C9689
:102F10000FB6F894DEBF0FBECDBFDF91CF911F91EA
:102F20000F91FF90EF90DF90CF90BF90AF909F9068
:102F30008F907F906F905F904F903F902F9008956B
:102F4000CF93DF93ECEBFAE06491EF0121966623D7
:102F500029F08EEB9EE046DEFE01F6CFDF91CF91A9
:102F60000895CF93DF93811103C0E9E7F7E002C032
:102F7000E3E8F7E06491EF012196662329F08EEBF8
:102F80009EE030DEFE01F6CFDF91CF910895FF92F3
:102F90000F931F93CF93DF93F82E092F162FEAE29A
:102FA000F5E06491EF012196662329F08EEB9EE017
:102FB00019DEFE01F6CFEF2DF02F6491EF0121967F
:102FC000662329F08EEB9EE00DDEFE01F6CFE8E2EF
:102FD000F5E06491EF012196662329F08EEB9EE0E7
:102FE00001DEFE01F6CF612F70E08EEB9EE0F4DD96
:102FF0006AE08EEB9EE0DF91CF911F910F91FF90E1
:10300000F1CD80E1EFE5F5E0AFE4B5E001900D92A0
:103010008A95E1F708954F925F926F927F92AF92F7
:10302000BF92CF92DF92EF92FF92CF93DF93EB01AB
:10303000FC0160817181828193812CE3C22ED12CAD
:10304000E12CF12CA70196010E94D3D8B62EA72E11
:10305000CA01B901A70196010E94D3D86B017C0176
:10306000CA01B90128E130E040E050E00E94D3D825
:103070002B013C01C9016DE671E00E94ACD86115DD
:103080007105D9F0AF92BF92DF92CF925F924F92CB
:103090009F938F937F936F9380E099E09F938F939B
:1030A000DF93CF930E9480E18DB79EB70E960FB647
:1030B000F8949EBF0FBE8DBF61C00097C9F0AF925C
:1030C000BF92DF92CF925F924F929F938F9380EF48
:1030D00098E09F938F93DF93CF930E9480E1EDB7A9
:1030E000FEB73C960FB6F894FEBF0FBEEDBF46C0CC
:1030F0004114510461047104B9F0AF92BF92DF92A0
:10310000CF925F924F9284EE98E09F938F93DF93DC
:10311000CF930E9480E18DB79EB70A960FB6F894C0
:103120009EBF0FBE8DBF2AC0C114D104E104F104BB
:10313000A9F0AF92BF92DF92CF928CED98E09F936F
:103140008F93DF93CF930E9480E1EDB7FEB738965F
:103150000FB6F894FEBF0FBEEDBF10C0AF92BF9286
:1031600088ED98E09F938F93DF93CF930E9480E147
:103170000F900F900F900F900F900F90DF91CF91C5
:10318000FF90EF90DF90CF90BF90AF907F906F90C7
:103190005F904F90089581548A3108F040C0A82F65
:1031A000B0E040919B0550919C0560919D05709108
:1031B0009E0504C076956795579547958A95D2F7F1
:1031C00040FF2DC0E091A605F091A705AF57BA4F7B
:1031D0008C918823E1F0E80FF11D808190ED980F2C
:1031E0009A3080F08E3229F4818180538A3078F4CD
:1031F00009C08D3211F08B3251F4818190ED980F1E
:103200009A3018F49E2F8F2F04C08E3251F090E028
:1032100080E09093A2058093A30581E0089580E06B
:103220000895828180538A3090F7ECCFB4DF8823F1
:1032300041F081E02091A2053091A305232B09F4F0
:1032400080E008950F931F93CF938091A2059091F2
:10325000A305009711F1FC018F01C1912C2F2F7D47
:10326000A9F0C53411F0C536B9F7F801108260E055
:1032700070E08091A2059091A3050E941BDDF801EA
:10328000C083562F472F382F292F0BC060E070E0E6
:10329000CF911F910F910C941BDD50E040E030E086
:1032A00020E0652F742F832F922FCF911F910F91C4
:1032B00008958091A2059091A305009731F04AE00E
:1032C00050E060E070E00C9481DE60E070E0CB01E3
:1032D00008958091A2059091A305009731F04AE0EE
:1032E00050E060E070E00C94A9DF60E070E0CB019A
:1032F0000895DFDF97FD0AC0DCDF6F3F71058105B0
:10330000910509F02CF4D5DF862F089580E008950B
:103310008FEF08958091A2059091A305892B31F03C
:10332000E8DF91E0811103C090E001C091E0892FB6
:1033300008950F931F93CF93DF93CDB7DEB72C97EC
:103340000FB6F894DEBF0FBECDBFEFE5F5E0808588
:103350009185A285B38544815581668177810081FD
:1033600011812281338109871A872B873C874D83FE
:103370005E836F83788789839A83AB83BC83AE0136
:103380004F5F5F4FBE016B5F7F4FCE0109960E947A
:10339000497B2BE635E0AE014F5F5F4FBE016B5FAF
:1033A0007F4FCE0109960E9479892C960FB6F8942A
:1033B000DEBF0FBECDBFDF91CF911F910F9108955A
:1033C0002F923F924F925F926F927F929F92AF9215
:1033D000BF92CF92DF92EF92FF920F931F93CF9302
:1033E000DF93CDB7DEB764970FB6F894DEBF0FBE9C
:1033F000CDBF2A013B01902EA12E6901082F10E0BC
:10340000F801E85AFF4EE491BB24B3941E160CF465
:10341000B12CFF24F39420E030E0A901C301B201F4
:103420000E9416DC18160CF0F12C000F111F000F73
:10343000111FC801815A9A4F1C01FC011082118290
:103440001282138276DFF10140825182628273829E
:10345000E090830320E030E0A901692D7A2DC601B8
:103460000E9413DA811108C0F801E956FF4E8591D8
:103470009591A591B49103C0892D9A2DD601898B80
:103480009A8BAB8BBC8B8091670590916805A0915E
:103490006905B0916A05409163055091640560919A
:1034A00065057091660500915F051091600520919A
:1034B0006105309162050D871E872F87388B4987FC
:1034C0005A876B877C878D839E83AF83B8871982E9
:1034D0001A821B821C82AE014B5F5F4FBE01675F89
:1034E0007F4FCE010D960E94497BCE0101966C0163
:1034F0008E010F5E1F4F2BE635E0AE014B5F5F4F35
:10350000BE01675F7F4F0C960E9497880E94747C73
:10351000BF100E94066F64960FB6F894DEBF0FBE10
:10352000CDBFDF91CF911F910F91FF90EF90DF9072
:10353000CF90BF90AF909F907F906F905F904F9093
:103540003F902F9008956BE675E083E00C949F8A7E
:10355000CF93DF9300D0CDB7DEB72091B00E30917E
:10356000B10ECE0101962115310529F48A5C9E40E9
:103570009A83898304C0821B930B9A8389838981F0
:103580009A810F900F90DF91CF910895FF920F9342
:103590001F93CF93DF93FC0120812B3319F1D0913E
:1035A0004405D430F8F4F62EBC01C09142050C2F2E
:1035B00010E0F0E6CF9FC00111248E539C4F0E9473
:1035C00051E1F801E35DFC4FF082CF5FC43018F4A5
:1035D000C093420502C010924205DF5FD0934405BC
:1035E00081E001C080E0DF91CF911F910F91FF90AA
:1035F0000895EF92FF921F93CF93DF937C0160E0D9
:10360000C5DF182F8823C9F0EEE3F8E16491EF01DC
:103610002196662329F08EEB9EE0E4DAFE01F6CFD8
:10362000B7018FE39DE00E94CD8B62E28EEB9EE0BE
:10363000D9DA6AE08EEB9EE0D5DA812FDF91CF9167
:103640001F91FF90EF900895DF92EF92FF920F93FA
:103650001F93CF93DF93CDB7DEB76E970FB6F89475
:10366000DEBF0FBECDBF6091C0037091C103611575
:10367000710541F14DE150E0CE0101967C010E94BF
:1036800007E11E8EF7018F010E191F09D190DD2071
:1036900019F09AE0D912F7CFF701E00FF11F10826D
:1036A000C701A7DF882371F0DD20A9F00F5F1F4F4E
:1036B0008091C0039091C103080F191F1093C1039B
:1036C0000093C00381E02091C0033091C103232BFC
:1036D00029F480E003C000E010E0F0CF6E960FB652
:1036E000F894DEBF0FBECDBFDF91CF911F910F9138
:1036F000FF90EF90DF9008959093C1038093C003F3
:10370000A3CFEF92FF920F931F93CF93DF937C0190
:1037100084E58CDDD82F882369F1EBDDC82F1816DE
:103720002CF5EEE3F8E164918F010F5F1F4F6623E4
:1037300029F08EEB9EE056DAF801F5CF6DE48EEBC2
:103740009EE050DAA70160E070E020E08EEB9EE0A2
:103750000E94BCCF6C2FCC0F770B81E29CE00E94C3
:10376000F58B6AE08EEB9EE03DDA08C0809375032E
:10377000D0E004C080918303809375038D2FDF9187
:10378000CF911F910F91FF90EF9008950F931F938A
:10379000CF93DF9394E0899FE00111248E010E56B0
:1037A0001C4FFE01E256FC4FDE01A655BC4F2D9189
:1037B0003D914D915C9160817181828193810E94E4
:1037C0003AD9F8016083718382839383FE01E557C0
:1037D000FF4E85919591A591B491FE01EA57FC4F5A
:1037E00080839183A283B383FE01E158FF4E8591CC
:1037F0009591A591B491CB5EDE4F88839983AA837E
:10380000BB83DF91CF911F910F910895CF92DF92EB
:10381000EF920F931F93CF93DF93CDB7DEB76097EF
:103820000FB6F894DEBF0FBECDBFE0908303EFE587
:10383000F5E080859185A285B385448155816681B7
:10384000778100811181228133810D871E872F8727
:10385000388B49875A876B877C878D839E83AF839C
:10386000B88719821A821B821C82AE014B5F5F4FA0
:10387000BE01675F7F4FCE010D960E94497BCE014E
:1038800001966C0103E211E02BE635E0AE014B5FDF
:103890005F4FBE01675F7F4F0C960E9497886096CE
:1038A0000FB6F894DEBF0FBECDBFDF91CF911F9151
:1038B0000F91EF90DF90CF9008954F925F926F92AB
:1038C0007F928F929F92AF92BF92CF92DF92EF92B0
:1038D000FF920F931F93CF93DF93CDB7DEB72C9753
:1038E0000FB6F894DEBF0FBECDBF6D837E838F838E
:1038F000988729873A874B875C87470158013601AB
:103900008091230190912401A0912501B09126017D
:1039100089839A83AB83BC83D601CD90DD90ED90F3
:10392000FC9020E030E0A901C701B6010E9413DA43
:10393000811106C0EFE9F0E1C590D590E590F490D3
:10394000A5019401609167057091680580916905F2
:1039500090916A050E9413DA87FF11C0C09223017B
:10396000D0922401E0922501F09226018092670511
:1039700090926805A0926905B0926A0547DFF3014D
:10398000408051806280738020E030E0A901C30153
:10399000B2010E9413DA811108C040900B015090CF
:1039A0000C0160900D0170900E0140922301509225
:1039B000240160922501709226018D819E81AF8144
:1039C000B88580935F0590936005A0936105B093DF
:1039D000620589859A85AB85BC8580936305909344
:1039E0006405A0936505B093660510DFA5019401F9
:1039F00060916705709168058091690590916A05ED
:103A00000E9416DC18168CF4C0922301D092240177
:103A1000E0922501F0922601809267059092680558
:103A2000A0926905B0926A05F1DE0E94747C8981DA
:103A30009A81AB81BC818093230190932401A09350
:103A40002501B09326012C960FB6F894DEBF0FBE69
:103A5000CDBFDF91CF911F910F91FF90EF90DF903D
:103A6000CF90BF90AF909F908F907F906F905F901E
:103A70004F900895CF92DF92EF92FF920F931F9392
:103A80006B01FC01E080F18002811381EFE5F5E03C
:103A90002481358146815781608171818281938142
:103AA0000CDF1F910F91FF90EF90DF90CF90089562
:103AB000CF92DF92EF92FF920F931F936A01E090F3
:103AC0006705F09068050091690510916A05FB0192
:103AD0002081318142815381FC0160817181828129
:103AE0009381EBDE1F910F91FF90EF90DF90CF90CD
:103AF00008958091230190912401A0912501B09116
:103B000026018093BC039093BD03A093BE03B093A2
:103B1000BF0380912101909122019093BB03809378
:103B2000BA0384E690E090932201809321010895E6
:103B30008091BC039091BD03A091BE03B091BF03DF
:103B40008093230190932401A0932501B093260133
:103B50008091BA039091BB0390932201809321013D
:103B60000895EF92FF921F93CF93DF93882329F05C
:103B7000D0914E05D095D17001C0D0E0662341F0C0
:103B800010914E0511FB882780F911E0182701C01C
:103B900010E0442341F0C0914E05C2FB882780F914
:103BA000C1E0C82701C0C0E0D11105C0111103C098
:103BB000CC2309F48BC0EEE3F8E164917F018FEF31
:103BC000E81AF80A662329F08EEB9EE00BD8F7017D
:103BD000F4CFEBE1FCE064917F019FEFE91AF90A71
:103BE000662331F08EEB9EE00E94F215F701F3CFD1
:103BF000DD2379F0E9E1FCE064917F018FEFE81AC1
:103C0000F80A662331F08EEB9EE00E94F215F70170
:103C1000F3CF112379F0E7E1FCE064917F019FEF9E
:103C2000E91AF90A662331F08EEB9EE00E94F21544
:103C3000F701F3CFC11103C0EDE0FCE00FC0E5E1F7
:103C4000FCE064917F018FEFE81AF80A6623A1F384
:103C50008EEB9EE00E94F215F701F3CF64917F0195
:103C60009FEFE91AF90A662331F08EEB9EE00E947D
:103C7000F215F701F3CFC11103C049E052E002C0D1
:103C80004EEE51E0111103C029E032E002C020EFF6
:103C900031E0D11103C089E092E002C082EF91E0EF
:103CA0005F934F933F932F939F938F938BEF9BE063
:103CB0009F938F931F920E9464AE8DB79EB7099613
:103CC0000FB6F8949EBF0FBE8DBFC1E08C2FDF9161
:103CD000CF911F91FF90EF900895BF92CF92DF9206
:103CE000EF92FF920F931F93CF93DF93CDB7DEB781
:103CF00028970FB6F894DEBF0FBECDBF90917B051D
:103D0000981709F47AC0B82E882309F453C080E0CC
:103D100090E0A0EAB0E48D839E83AF83B887C09023
:103D20007103D0907203E0907303F090740320E06D
:103D300030E0A901C701B6010E9413DA87FF0CC069
:103D4000A701960160E070E080EA90E40E9439D912
:103D50006D837E838F83988720E030E048E453E4CE
:103D60006D817E818F8198850E9416DC181644F43F
:103D700080E090E0A8E4B3E48D839E83AF83B887AE
:103D800020916705309168054091690550916A0559
:103D90006D817E818F8198850E9416DC181654F4FF
:103DA00019821A821B821C82BE016F5F7F4FCE0177
:103DB000059660DE60915F057091600580916105F8
:103DC00090916205209163053091640540916505ED
:103DD0005091660519821A821B821C82E090670549
:103DE000F09068050091690510916A05FE01319611
:103DF0006F0163DD8B2D0E94116F80E028960FB656
:103E0000F894DEBF0FBECDBFDF91CF911F910F9110
:103E1000FF90EF90DF90CF90BF9008954F925F9208
:103E20006F927F928F929F92AF92BF92CF92DF92CA
:103E3000EF92FF920F931F93CF93C82FE82EF12C90
:103E4000F701E85AFF4EB490823021F481E045DF5B
:103E5000811109C16701CC0CDD1CCC0CDD1CF60105
:103E6000E959FF4E45905590659074906B2DBB0CB1
:103E7000770B880B990B0E94B5DA4B015C0120E0AF
:103E800030E040EC5FE3C301B2010E9451DCA501C8
:103E900094010E9451DCAB01BC0100E010E09801EC
:103EA0008C2F8EDAC23041F0F601E55AFF4E259193
:103EB00035914591549104C020E030E040E450E455
:103EC000C501B4010E9451DC4B015C0120E030E0EF
:103ED000A9010E9413DA882309F45EC0C23021F0E0
:103EE00000E010E0980104C000E010E020E830E4B9
:103EF000B501A40170588C2F63DAC23009F43BC0BD
:103F0000F701EA57F44F849181111FC0EEE3F8E105
:103F100064917F018FEFE81AF80A662331F08EEB87
:103F20009EE00E94F215F701F3CFE4E6FBE0649116
:103F30007F018FEFE81AF80A662331F08EEB9EE0DE
:103F40000E94F215F701F3CF8AE0F601E956FF4E21
:103F50004590559065907490682F70E080E090E0F7
:103F60000E94B5DA9B01AC01C301B2010E941ADACA
:103F70002B013C0105C0412C512C612C90E4792E81
:103F8000A5019401C501B4010E943AD9AB01BC015D
:103F9000930182018C2F14DA81E090E00C2E01C095
:103FA000880F0A94EAF790914D05982B90934D0550
:103FB00090914E05892B80934E05F601E655FC4FF6
:103FC00010821182128213828C2FE0DBF601ED58F1
:103FD000FF4E85919591A591B491F601E15AFA4F62
:103FE00080839183A283B383C230D1F42091710383
:103FF000309172034091730350917403609167058F
:10400000709168058091690590916A050E9439D97F
:1040100060936705709368058093690590936A05BE
:1040200088D9F601E15BFA4FD601A15ABA4F8D91BA
:104030009D910D90BC91A02D80839183A283B38329
:10404000C23089F480E0CF911F910F91FF90EF90E3
:10405000DF90CF90BF90AF909F908F907F906F90A8
:104060005F904F903ACECF911F910F91FF90EF90BC
:10407000DF90CF90BF90AF909F908F907F906F9088
:104080005F904F90089581E020916D0330916E0311
:10409000232B09F480E008953F924F925F926F9234
:1040A0007F928F929F92AF92BF92CF92DF92EF92C8
:1040B000FF920F931F93CF93DF93882EE62E942EBB
:1040C0006901A82EB12CC0E0D0E0042F10E00E5FF3
:1040D0001F4FCA15DB05E1F0F12C2F2D30E081E0F8
:1040E00090E0CA3010F080E090E0800F911F281718
:1040F00039073CF460E28EEB9EE00E94F215F394E7
:10410000ECCFBE018EEB9EE00E94EC152196E1CF34
:104110006AE08EEB9EE00E94F215F12CC0E0D0E048
:10412000A92CB12C82E0A80EB11C3C2ECE15DF05C7
:1041300009F451C0E9E0E31528F060E28EEB9EE05F
:104140000E94F215BE018EEB9EE00E94EC1510E07D
:104150001815D1F160E28EEB9EE00E94F215632DFE
:10416000812FF60109952B013C019B01AC010E94B6
:10417000FFDC811116C020E030E0A901C301B201CB
:104180000E9416DC87FD05C06BE28EEB9EE00E946C
:10419000F215292DB301A2018EEB9EE00E9425D0DD
:1041A00011C000E0802F90E0A816B9065CF0011164
:1041B00002C060E201C06DE38EEB9EE00E94F2154A
:1041C0000F5FF0CF1F5FC4CF6AE08EEB9EE00E94CE
:1041D000F2152196AACF6AE08EEB9EE0DF91CF9197
:1041E0001F910F91FF90EF90DF90CF90BF90AF9015
:1041F0009F908F907F906F905F904F903F900C9426
:10420000F215CF93DF93EEE6F9E06491EF0121968A
:10421000662331F08EEB9EE00E94F215FE01F5CF91
:104220002CE335E143E063E083E0DF91CF9134CFCD
:10423000CF92DF92EF92FF9260916D0370916E03C7
:10424000072E000C880B990B0E94B5DA6B017C01DC
:104250002DEB37E346E855EB0E9416DC87FD0AC0DC
:104260002DEB37E346E855E3C701B6010E9413DAA8
:1042700018164CF4A701960160E070E080E89FE317
:104280000E941ADA03C060E070E0CB016093610322
:1042900070936203809363039093640360916F0350
:1042A00070917003072E000C880B990B0E94B5DAF1
:1042B0006B017C012DEB37E346E855EB0E9416DCE1
:1042C00087FD0AC02DEB37E346E855E3C701B60189
:1042D0000E9413DA18164CF4A701960160E070E012
:1042E00080E89FE30E941ADA03C060E070E0CB012F
:1042F00060936503709366038093670390936803EC
:10430000FF90EF90DF90CF900895AF92BF92CF9241
:10431000DF92EF92FF920F931F93CF93DF9384E48A
:10432000A82E82E0B82E9FE4E92E95E0F92E0FE545
:1043300015E022E9C22E23E0D22EC0E0D0E0F50144
:1043400081915F010E94CB18882321F10E942219DC
:10435000FE01EA54FC4F2081211104C02091820308
:10436000222341F0F80120813181428153810E9452
:104370003AD90AC0C330D10539F0F6012081318124
:10438000428153810E9439D9F7016083718382830E
:1043900093830AC0F80180819181A281B381F701E2
:1043A00080839183A283B3832196F4E0EF0EF11C06
:1043B0000C5F1F4F84E0C80ED11CC430D10509F03A
:1043C000BECF86E40E9416198823C9F00E942219E4
:1043D00020E030E0A9010E9416DC181684F40E9447
:1043E000221920E030E040E752E40E941ADA60939C
:1043F0002301709324018093250190932601DF917E
:10440000CF911F910F91FF90EF90DF90CF90BF90D1
:10441000AF900895CF92DF92EF92FF920F931F9388
:10442000CF93DF930FB6F894C090B30ED090B40E34
:10443000E090B50EF090B60E0FBE80918003811112
:1044400074C080910A01882309F46FC080912C0305
:10445000882309F46AC04091280350912903609190
:104460002A0370912B0397018601041B150B260B61
:10447000370B37FD6DC0833031F134F481300CF4EB
:1044800054C0EEE3F8E106C0843009F04EC0EEE31C
:10449000F8E133C06491EF012196662331F08EEB91
:1044A0009EE00E94F215FE01F5CFE8EBFBE064917F
:1044B000EF012196662309F438C08EEB9EE00E943E
:1044C000F215FE01F4CFEEE3F8E16491EF012196DD
:1044D000662331F08EEB9EE00E94F215FE01F5CFCF
:1044E000E1EAFBE06491EF0121966623F1F08EEBA7
:1044F0009EE00E94F215FE01F5CF6491EF01219636
:10450000662331F08EEB9EE00E94F215FE01F5CF9E
:10451000E9E8FBE06491EF012196662331F08EEB30
:104520009EE00E94F215FE01F5CF20910A0130E0D5
:10453000A8EEB3E00E941AD9C60ED71EE81EF91ED7
:10454000C0922803D0922903E0922A03F0922B0311
:10455000DF91CF911F910F91FF90EF90DF90CF905F
:1045600008950F931F93CF93DF9300D000D0CDB762
:10457000DEB780914D058370833011F160E086E5F0
:104580009BE00E941AAEEEE3F8E164918F010F5FA9
:104590001F4F662331F08EEB9EE00E94F215F8016A
:1045A000F4CFE7E4FBE064918F010F5F1F4F6623B8
:1045B00009F43EC08EEB9EE00E94F215F801F3CFA5
:1045C0000E94991980E090E0ACEBB2E4809353052F
:1045D00090935405A0935505B093560580916705B7
:1045E00090916805A0916905B0916A05809357057F
:1045F00090935805A0935905B0935A0580E090E038
:10460000A2E9B2E480934F0590935005A093510521
:10461000B093520519821A821B821C82AE014F5F31
:104620005F4F63E575E08FE495E042DA82E0F6DB08
:104630000F900F900F900F90DF91CF911F910F91DE
:1046400008950F931F93CF93DF93CDB7DEB769978C
:104650000FB6F894DEBF0FBECDBF0E948E9A6E8B50
:104660007F8B888F998FBE016F5F7F4FCE014696FB
:104670000E940B1860E0CE0101960E94F3ADEEE3BC
:10468000F8E164918F010F5F1F4F662331F08EEBCD
:104690009EE00E94F215F801F4CFBE016F5F7F4FDC
:1046A00084E199E00E94CD8B6AE08EEB9EE00E944F
:1046B000F21569960FB6F894DEBF0FBECDBFDF913D
:1046C000CF911F910F910895CF93DF93E4E4F8E128
:1046D0006491EF012196662331F08EEB9EE00E94FB
:1046E000F215FE01F5CFECE9F8E06491EF012196B7
:1046F000662331F08EEB9EE00E94F215FE01F5CFAD
:10470000DF91CF910895EF92FF920F931F93CF9374
:10471000DF93182F062F86E0189FF0011124EC5923
:10472000F24FE590F490E9E3FBE06491EF0121960C
:10473000662331F08EEB9EE00E94F215FE01F5CF6C
:1047400060E3610F8EEB9EE00E94F215023471F07F
:104750000334C1F0013441F5F7016081629566953B
:104760006695637070E085E39BE016C0F701608199
:10477000607370E094E0759567959A95E1F781E331
:104780009BE00AC0F70160816C7070E075956795D9
:10479000759567958DE29BE0DF91CF911F910F9109
:1047A000FF90EF900C94F58BDF91CF911F910F91BB
:1047B000FF90EF9008955F926F927F928F929F92F9
:1047C000AF92BF92CF92DF92EF92FF920F931F931F
:1047D000CF93DF93CDB7DEB764970FB6F894DEBF03
:1047E0000FBECDBFE82E062F542EC82ED12C26E0AA
:1047F000829FC0011124FC01EA59F24FA590B490A8
:10480000FC01EC59F24F85909490F5018081282F9E
:10481000287030E035952795F40110811370122B24
:10482000F4E04F1305C0807190E095958795182BA3
:10483000E3E2FBE064913F012FEF621A720A662304
:1048400031F08EEB9EE00E94F215F301F3CF80E38E
:10485000F82EFE0C6F2D8EEB9EE00E94F215602F5D
:104860008EEB9EE00E94F21583E00E94748C802FF4
:10487000002E000C990BF601EE0FFF1F9E012F5F1B
:104880003F4F390133E081549109EC0DFD1DE80FD4
:10489000F91FEE0FFF1FE45BF24F531208C0A59102
:1048A000B4918C911F928F9389E19BE00AC0A591EE
:1048B000B49111968C9111978F938C918F938FE077
:1048C0009BE09F938F937F926F920E9480E1B30150
:1048D0008EEB9EE00E94D6150F900F900F900F90D8
:1048E0000F900F90612F70E085E09BE00E94F58BA8
:1048F000602F8E2D08DFF5016081677070E08CEF0E
:104900009AE00E94F58BE3EFFAE064913F012FEF0C
:10491000621A720A662331F08EEB9EE00E94F21555
:10492000F301F3CF6F2D8EEB9EE00E94F215F401A0
:10493000608170E08FEE9AE00E94F58BE6EEFAE07F
:1049400064914F012FEF821A920A662331F08EEBA9
:104950009EE00E94F215F401F3CF6F2D8EEB9EE0E6
:104960000E94F215F501608170E082EE9AE00E94EB
:10497000F58B86E08C9DF0018D9DF00D1124E8599A
:10498000F24FC590D490E8EDFAE064915F012FEF0B
:10499000A21AB20A662331F08EEB9EE00E94F21555
:1049A000F501F3CF6F2D8EEB9EE00E94F215F6011C
:1049B000608170E085ED9AE00E94F58B0054F3E091
:1049C0005F1205C0197F49F40E94A01706C0812F0D
:1049D0008B7FD1F31C501230B8F3F601808190E048
:1049E00002C0959587950A95E2F780FF0EC0EFE922
:1049F000FAE064918F010F5F1F4F662331F08EEB59
:104A00009EE00E94F215F801F4CFF601808180FF4C
:104A10000EC0E1E8FAE064918F010F5F1F4F66233B
:104A200031F08EEB9EE00E94F215F801F4CF64960F
:104A30000FB6F894DEBF0FBECDBFDF91CF911F91AF
:104A40000F91FF90EF90DF90CF90BF90AF909F902D
:104A50008F907F906F905F9008950F931F93CF93E7
:104A6000DF93C82F8C3108F03CC0E82FF0E0E85D00
:104A7000FD4FE0818E2F90E0FC013197E930F10588
:104A800080F5E45BFF4F0C9411D943E062E480E0D1
:104A900092DE27C044E061E481E08DDE22C044E084
:104AA00062E481E088DE1DC044E063E481E083DEEF
:104AB00018C043E061E482E07EDE13C043E062E4BC
:104AC00082E079DE0EC044E061E483E074DE09C078
:104AD00044E062E483E06FDE04C044E063E483E02A
:104AE0006ADEE6E7F7E064918F010F5F1F4F6623F0
:104AF00031F08EEB9EE00E94F215F801F4CF8C2F7E
:104B000090E0FC01E458F24FE491E23009F03EC03D
:104B1000FC01EE0FFF1FE052F74DE491E03809F081
:104B200035C0E2E7F7E06491EF012196662331F0AA
:104B30008EEB9EE00E94F215FE01F5CF82E10E940D
:104B4000748CEAE6F7E06491EF012196662331F078
:104B50008EEB9EE00E94F215FE01F5CFE0E5F7E056
:104B60006491EF012196662331F08EEB9EE00E9466
:104B7000F215FE01F5CF8EE00E94748C43E061E4F3
:104B800080E0DF91CF911F910F9115CEDF91CF91F2
:104B90001F910F9108950F931F93CF93C82FE8E7AC
:104BA000FAE064918F010F5F1F4F662331F08EEBA7
:104BB0009EE00E94F215F801F4CF82ED8C0F823056
:104BC00048F0EC2F0C2E000CFF0BE458F24F6491D0
:104BD000605C01C065E48EEB9EE00E94F215CE326F
:104BE00081F0CF3281F0EC2FEE0FFF0BE052F74D4A
:104BF000E49160E3E13041F0E6956F5F6933D1F70E
:104C000003C062E301C063E38EEB9EE0CF911F918E
:104C10000F910C94F2152F923F924F925F926F92E8
:104C20007F928F929F92AF92BF92CF92DF92EF923C
:104C3000FF920F931F93CF93DF93CDB7DEB7EC971F
:104C40000FB6F894DEBF0FBECDBFF82E68AF4DABE8
:104C5000922E832E5CEA252E5DE0352EE12C80E03D
:104C60004F2C0F2C000C550822ED2F0D29AF2F2DA6
:104C700030E03CAB2BAB285D3D4F3BAF2AAF8E0104
:104C8000015E1F4FDE0111965D019201265231092E
:104C90003FAB2EABF1013296E491CE2ED12CC41451
:104CA000D50409F0AFC081113AC0E11038C05F925D
:104CB000FF928F929F928AE498E09F938F93BF9286
:104CC000AF920E9480E1B5018EEB9EE00E94D61566
:104CD0008F2D61DF0FB6F894DEBF0FBECDBF8AED1A
:104CE0008F0D8830C0F49FA99F93AEA9AF9380E445
:104CF00098E09F938F93BF92AF920E9480E1B5019D
:104D00008EEB9EE00E94D6150F900F900F900F90A3
:104D10000F900F9016C088E00E94748C12C06EE253
:104D20008EEB9EE00E94F215E92DF82DDF010D902B
:104D30000020E9F78A2F8919875E0E94748CEE247F
:104D4000E394F1016590749020E0F30164916111A6
:104D500007C030E04CE1642E712C621A710811C05A
:104D60008EEB9EE02CAF0E94F2152CAD2F5FFFEF73
:104D70006F1A7F0A2C3149F72DA9222309F43CC070
:104D80000EC0832F90E086159705B4F760E28EEB96
:104D90009EE03CAF0E94F2153CAD3F5FF2CF8F2DFD
:104DA0000E944F15882391F038AD31110FC0E5E313
:104DB000F8E064916F018FEFC81AD80A6623E1F01A
:104DC0008EEB9EE00E94F215F601F3CF29AD223062
:104DD00008F0FEC09EE28DB1F912EBC082FB88277D
:104DE00080F90E94B1176CB162FB662760F970E030
:104DF0008EEB9EE00E94EC156AE08EEB9EE00E9436
:104E0000F21581E0F4E02F0E311C20E622162EE090
:104E1000320609F03FCF8111BCC15F924F928F9251
:104E20009F9289E198E09F938F938E010F5F1F4FB0
:104E30001F930F930E9480E1B8018EEB9EE00E94C9
:104E4000D6158F2DA8DE9AEDE92EEF0C0FB6F8944B
:104E5000DEBF0FBECDBF97E09E15C0F0C2018697A2
:104E60009F938F938FE098E09F938F931F930F935F
:104E70000E9480E1B8018EEB9EE00E94D6150F9053
:104E80000F900F900F900F900F9003C088E00E943A
:104E9000748CEEEFF7E064916F01AFEFCA1ADA0A93
:104EA000662331F08EEB9EE00E94F215F601F3CFFF
:104EB000BDA9BB2309F477C082ED8F0D823028F5A0
:104EC0008CE00E94748CEEE28DB1FE120FC082FB6A
:104ED000882780F90E94B1176CB162FB662760F9E0
:104EE00070E08EEB9EE00E94EC155DC083FB88278E
:104EF00080F90E94B1176CB163FB662760F970E01E
:104F00008EEB9EE00E94EC154EC09201220F331FE3
:104F1000F901EF51F74DE491F0E08181F901E052A0
:104F2000F74DE491E82329F08CE00E94748C81E035
:104F30002DC0F7E0FE1530F18E2D0E9427D19F93F2
:104F40008F938BEE97E09F938F931F930F930E9405
:104F500080E1B8018EEB9EE00E94D6150F900F9075
:104F60000F900F900F900F90E7EEF7E064918F0194
:104F70000F5F1F4F662349F08EEB9EE00E94F215F3
:104F8000F801F4CF8CE00E94748C80E00E94B1178D
:104F9000EF2DF0E00E941BD36E2F8EEB9EE00E945F
:104FA000E5158F2D5ADD6AE08EEB9EE00E94F2152A
:104FB000F0C083FB882780F90E94B1176CB163FBB6
:104FC000662760F970E08EEB9EE00E94EC1514CF2E
:104FD000F1013396E491E1111AC08AED8F0D0E9420
:104FE00027D19F938F9385E298E09F938F93BF92F1
:104FF000AF920E9480E1B5018EEB9EE00E94D61533
:105000000F900F900F900F900F900F90BDC0C601A2
:10501000880F991FFC01EF51F74DE491F0E02181D9
:10502000FC01E052F74D8491822309F4A2C0ABE168
:10503000AF1508F49DC0AAADBBADEC918E2F90E0EA
:10504000FC013197E930F10508F092C0EB5AFF4FAF
:105050000C9411D984B5807309F48AC088B51F9265
:105060008F938DED97E09F938F9372C08091800016
:10507000807C09F47DC080918800909189009F9385
:105080008F9383ED97E09F938F9362C08091800010
:10509000807309F46DC080918A0090918B009F937A
:1050A0008F9389EC97E09F938F9352C080918000FB
:1050B0008C7009F45DC080918C0090918D009F935D
:1050C0008F938FEB97E09F938F9342C08091B000B6
:1050D000807C09F44DC08091B3001F928F9385EBC3
:1050E00097E09F938F9334C08091B000807309F450
:1050F0003FC08091B4001F928F93ABEAB7E026C007
:1051000080919000807CA1F180919800909199000D
:105110009F938F93A1EAB7E019C0809190008073AC
:1051200039F180919A0090919B009F938F93A7E90A
:10513000B7E00CC0809190008C70D1F080919C0001
:1051400090919D009F938F93ADE8B7E0BF93AF938D
:105150001F930F930E9480E1B8018EEB9EE00E94A6
:10516000D6150F900F900F900F900F900F900CC0CE
:1051700081E00E94B117EBA9FCA90E941BD36E2FFE
:105180008EEB9EE00E94E515E11036CE8F2D65DC9A
:1051900033CEEC960FB6F894DEBF0FBECDBFDF91D5
:1051A000CF911F910F91FF90EF90DF90CF90BF9024
:1051B000AF909F908F907F906F905F904F903F90B7
:1051C0002F9008956F927F928F929F92AF92BF928D
:1051D000CF92DF92EF92FF920F931F93CF93DF93C3
:1051E00089E40E941619882321F00E948A19D82F79
:1051F00004C089E40E94CB18D82F82E50E941619BA
:10520000882321F00E9459198B0102C001E010E0AF
:1052100083E50E941619882321F00E945919C62F90
:1052200001C0C0E08CE40E941619882321F00E947E
:1052300059195B0103C08FE2A82EB12C87E50E94AB
:105240001619882319F00E94591902C064EF71E001
:105250006B01770FEE08FF088C2E912CA814B9046F
:10526000CCF0D11126C08C2F0E944F15882309F154
:1052700024EF31E041E060E08C2FCDDC6AE08EEB82
:105280009EE00E94F2156AE08EEB9EE00E94F2150D
:10529000CF5FE2CFE7E6F8E064918F010F5F1F4F29
:1052A000662309F465C08EEB9EE00E94F215F801BA
:1052B000F3CF2FEF31E041E06D2F8C2FACDCCE32FD
:1052C000C9F46A9A812C912C80169106E4F67298A2
:1052D000C701B6010E94E0C8729AC701B6010E94D8
:1052E000E0C87298C701B6010E94E0C88FEF881A23
:1052F000980AEACFCF32D1F46B9A812C912C801688
:1053000091060CF0C0CF7398C701B6010E94E0C8A7
:10531000739AC701B6010E94E0C87398C701B6012D
:105320000E94E0C88FEF881A980AE9CF8C2F0E945C
:1053300051D1612C712C601671060CF0A4CFF401D0
:105340000E9428D2C701B6010E94E0C8F4010E9461
:1053500022D2C701B6010E94E0C8F4010E9428D2FF
:10536000C701B6010E94E0C88FEF681A780AE3CF40
:10537000DF91CF911F910F91FF90EF90DF90CF9031
:10538000BF90AF909F908F907F906F9008952F92D5
:105390003F924F925F926F927F928F929F92AF92C5
:1053A000BF92CF92DF92EF92FF920F931F93CF9312
:1053B000DF93CDB7DEB7CDB6DEB684E50E94CB185D
:1053C000882399F0DF91CF911F910F91FF90EF907B
:1053D000DF90CF90BF90AF909F908F907F906F9015
:1053E0005F904F903F902F90EDCE85E40E94CB18B8
:1053F000882309F436C00E948A1980932703EBE8BA
:10540000F8E064918F010F5F1F4F662331F08EEB40
:105410009EE00E94F215F801F4CF809127038111DC
:1054200003C0E4E8F8E002C0E8E8F8E064918F0126
:105430000F5F1F4F662331F08EEB9EE00E94F21546
:10544000F801F4CFEDE7F8E064918F010F5F1F4F93
:10545000662309F4F3C08EEB9EE00E94F215F8017A
:10546000F3CF83E50E94CB188823E9F0E4E4F8E168
:1054700064918F010F5F1F4F662331F08EEB9EE02A
:105480000E94F215F801F4CFE6E5F8E064918F018F
:105490000F5F1F4F662309F4D1C08EEB9EE00E9480
:1054A000F215F801F3CF80E50E941619882321F048
:1054B0000E947919582E01C0512C152D80E50E94AB
:1054C0001619811107C02FE225150CF4B7C08FE221
:1054D000282E01C0252C89E40E941619882321F06A
:1054E0000E948A19382E04C089E40E94CB18382EF5
:1054F00087E50E941619882331F00E948A198823B3
:1055000009F47BC006C087E50E94CB18882309F404
:1055100074C06DB67EB6EEE6F8E064918F010F5F61
:105520001F4F662331F08EEB9EE00E94F215F801CA
:10553000F4CFA52C052C000CBB08822D022C000CEE
:10554000990B8A199B090196EDB7FEB7E81BF90B79
:105550000FB6F894FEBF0FBEEDBF2DB73EB72F5F5D
:105560003F4F4901152D311052C0812F0E944F1518
:10557000882309F44CC01F5F2116ACF781E08093AB
:10558000810383E080932C03452C311005C0842DCA
:105590000E944F1581111AC0042D10E0F8010E94DD
:1055A0001BD38F01E42C042C000CFF08EA18FB0825
:1055B000E80CF91CF7018081801741F029E032E006
:1055C00040E0632D842D27DBF701008343942414EE
:1055D000E4F680918103811109C081E080932C035E
:1055E0000FB6F8947EBE0FBE6DBE28C068EC70E0AA
:1055F00080E090E00E94E0C8C7CF29E032E041E0BF
:10560000632D812F08DB1F5F2116BCF717C0812F88
:105610000E94F6D161E070E080E090E00E944CD4FE
:10562000E12FF0E00E941BD3A12F012E000CBB0B39
:10563000AA19BB09A80DB91DEC939DCF0FB6F8941C
:10564000DEBE0FBECDBEDF91CF911F910F91FF90B7
:10565000EF90DF90CF90BF90AF909F908F907F9012
:105660006F905F904F903F902F90089588E690E064
:105670000E94811B811124C080916F0583FD20C091
:1056800083E50E9416198823C9F00E9422190E94FE
:1056900082DA7093F30D6093F20D80E00E94049E15
:1056A0000E94221920E030E04AEA52E40E9413DA14
:1056B000181624F00E94379A0E9454AE0C94998BCD
:1056C0000895CF93DF9389E690E00E94811B8111BA
:1056D00016C0E2E0F7E06491EF012196662331F015
:1056E0008EEB9EE00E94F215FE01F5CF0E9426A2ED
:1056F0006AE08EEB9EE0DF91CF910C94F215DF9182
:10570000CF910895CF92DF92EF92FF9283E50E94AE
:105710001619882321F10E9479198D3308F08CE342
:105720008093A60D0FB6F894C090B30ED090B40E2F
:10573000E090B50EF090B60E0FBE282F30E0A8EE28
:10574000B3E00E941AD9C60ED71EE81EF91EC092F9
:10575000A20DD092A30DE092A40DF092A50DFF90A2
:10576000EF90DF90CF90089580E50E941619811187
:1057700006C083E50E941619882359F005C00E94CF
:10578000791981110CC0F5CF0E9459196F3F71052D
:1057900010F06FEF70E070938503609384030895B9
:1057A000DF92EF92FF920F931F93CF93DF9383E5E6
:1057B0000E94CB18882359F083E50E94161988238C
:1057C00019F00E94791901C080E080936F05EEE323
:1057D000F8E16491EF012196662331F08EEB9EE0B3
:1057E0000E94F215FE01F5CFE9E4F7E06491EF01C4
:1057F0002196662331F08EEB9EE00E94F215FE01A9
:10580000F5CF80916F058823A9F18FE3E82E87E01B
:10581000F82E00E010E020E080916F0590E0002E6F
:1058200002C0959587950A94E2F780FF1AC0DD249F
:10583000D394D20E222329F06CE28EEB9EE00E94DC
:10584000F215F70185919491FC016491EC01219688
:10585000662331F08EEB9EE00E94F215CE01F4CF6C
:105860002D2D0F5F1F4FF2E0EF0EF11C05301105DB
:1058700099F60DC0EBE3F7E06491EF012196662302
:1058800031F08EEB9EE00E94F215FE01F5CF6AE04A
:105890008EEB9EE0DF91CF911F910F91FF90EF90E3
:1058A000DF900C94F215CF93DF9383E50E941619D5
:1058B000882351F00E9479198D3308F08CE380938E
:1058C0000A01DF91CF910895EEE3F8E16491EF01D1
:1058D0002196662331F08EEB9EE00E94F215FE01C8
:1058E000F5CF40910A0150E060E070E085E097E07C
:1058F0000E94538C6AE08EEB9EE0DF91CF910C9476
:10590000F215CF93DF9383E50E941619882321F0C7
:105910000E945919EB0102C0C0E0D0E0DD27C2307F
:10592000D105D4F0E4E4F8E16491EF012196662317
:1059300031F08EEB9EE00E94F215FE01F5CFE2E021
:10594000F5E06491EF0121966623C9F18EEB9EE0AC
:105950000E94F215FE01F5CF88E40E9416198823F3
:10596000A9F00E9459196A3A71053CF0653081E04E
:1059700078072CF064E071E002C06AEA70E0FE0192
:10598000EE0FFF1FEF58F14F7183608386E40E9492
:1059900016198823A1F00E945919CC0FDD1FC75991
:1059A000D14F798368836F3F710519F014F06FEF61
:1059B00070E077FF02C060E070E079836883DF9178
:1059C000CF9108954F925F926F927F92AF92BF9264
:1059D000CF92DF92EF92FF920F931F93CF9384E4C5
:1059E000A82E82E0B82E0CE316E0C0E0F50181910C
:1059F0005F010E94CB18882309F46DC0C33009F001
:105A000063C00E9422196B017C0120E030E040EA73
:105A100051E40E9413DA87FF4EC0A70196016091FE
:105A200048067091490680914A0690914B060E9463
:105A30001ADA2B013C019B01AC01609114067091B4
:105A4000150680911606909117060E9451DC60930E
:105A50001406709315068093160690931706A301FB
:105A60009201609158067091590680915A06909162
:105A70005B060E9451DC6093580670935906809330
:105A80005A0690935B0660916C0670916D0680914A
:105A90006E0690916F060E94B3DAA30192010E94F4
:105AA00051DC0E9487DA60936C0670936D068093D8
:105AB0006E0690936F06C0924806D0924906E09217
:105AC0004A06F0924B0607C00E942219F801608333
:105AD000718382839383CF5F0C5F1F4FC43009F0C3
