:100000000C947C130C94A6130C94A6130C94A613B6
:100010000C94A6130C94A6130C94A6130C94A6137C
:100020000C94A6130C94A6130C94BFE00C943CE122
:100030000C94A6130C94A6130C94A6130C94A6135C
:100040000C94A6130C947F8E0C94A6130C94A613F8
:100050000C94A6130C94A6130C9441A40C941EE0CB
:100060000C94A6130C94A6130C94A6130C94A6132C
:100070000C94A6130C94A6130C94A6130C94A6131C
:100080000C94A6130C94A6130C94A6130C94A6130C
:100090000C94A6130C94A613ADDDD9DDFBDDFBDDBE
:1000A000FBDDFBDDFBDDFBDDFBDDFBDDFBDDFBDD90
:1000B000FBDDFBDDF1DDE9DDE1DDFBDDFBDDFBDDB6
:1000C000FBDDFBDDFBDDFBDDD3DDB9DDC1DDCBDD44
:1000D0004E414E494E495459494E46CDCCCC3D0A2D
:1000E000D7233C17B7D13877CC2B329595E6241F10
:1000F000B14F0A000020410000C84200401C4620C9
:10010000BCBE4CCA1B0E5AAEC59D74446F6E6520B2
:10011000736176696E672066696C652E0A004D32E0
:1001200039002020506C616E6E657242756666659E
:100130007242797465733A20002046726565204DDD
:10014000656D6F72793A2000436F6D70696C6564FC
:100150003A204E6F7620313220323031380A00207A
:100160007C20417574686F723A2044722E50686921
:100170006C33440A00323031382D30382D303100A4
:10018000204C61737420557064617465643A20007A
:10019000312E312E390A004D61726C696E00205388
:1001A0006F6674776172652052657365740A00200A
:1001B0005761746368646F672052657365740A00E1
:1001C0002042726F776E206F75742052657365746C
:1001D0000A002045787465726E616C205265736503
:1001E000740A00506F77657255700A0073746172FB
:1001F000740A005072696E7465722068616C74656F
:10020000642E206B696C6C28292063616C6C6564BA
:10021000210A004B494C4C45442E20004B494C4C84
:100220002063617573656420627920746F6F206D3F
:1002300075636820696E6163746976652074696DA1
:1002400065202D2063757272656E7420636F6D6D0D
:10025000616E643A200020746F6F206C6F6E6720AF
:10026000657874727573696F6E2070726576656EED
:100270007465640A0020636F6C642065787472751D
:1002800073696F6E2070726576656E7465640A00BE
:100290006F6B00526573656E643A2000416476614D
:1002A0006E6365204B3D003F4B2076616C75652089
:1002B0006F7574206F662072616E67652028302D1F
:1002C0003130292E0A003A200050726F6265205AA0
:1002D000204F6666736574003F5A206F7574206FF7
:1002E000662072616E676520282D3520746F20327C
:1002F00030290A00454550524F4D204F4B0A0042CD
:100300006564204C6576656C696E6720004661699E
:100310006C656420746F20656E61626C6520426557
:1003200064204C6576656C696E670A0042656420DE
:100330004C6576656C20436F7272656374696F6E8D
:10034000204D61747269783A004E6F206361736565
:10035000206C696768740A0043290A0061626C6551
:100360006420286D696E2074656D702000436F6C89
:10037000642065787472756465732061726520000D
:10038000496E76616C696420657874727564657213
:100390000A0020643A0020693A0020703A00507246
:1003A0006F6265205A204F66667365743A2000209C
:1003B000466C6F773A2000205A00205900580020E0
:1003C000204D61783A2000205A0020590058002022
:1003D000204D696E3A20004F6666004F6E20005334
:1003E0006F667420656E6473746F70733A20004F8B
:1003F000666673657473206170706C69656400452E
:1004000072723A20546F6F206661722100546F6FD0
:10041000206661722066726F6D2072656665726516
:100420006E636520706F696E740A0020540020525C
:1004300000416363656C65726174696F6E3A205048
:10044000004D31343520533C696E6465783E206F31
:100450007574206F662072616E67652028302D31BB
:10046000290A002F2F20003A004361703A005448B7
:1004700045524D414C5F50524F54454354494F4EA5
:10048000004155544F5245504F52545F53445F53AF
:10049000544154555300454D455247454E43595FCD
:1004A00050415253455200434153455F4C494748E0
:1004B000545F4252494748544E45535300544F47A6
:1004C000474C455F4C494748545300534F46545797
:1004D0004152455F504F574552004255494C445F89
:1004E00050455243454E54004C4556454C494E47A5
:1004F0005F44415441005A5F50524F4245004155BC
:10050000544F4C4556454C005052494E545F4A4F4B
:10051000420050524F4752455353004155544F5299
:1005200045504F52545F54454D5000564F4C554D19
:10053000455452494300454550524F4D0053455292
:1005400049414C5F584F4E5F584F4646004649520E
:100550004D574152455F4E414D453A4D61726C6970
:100560006E20312E312E3920284769746875622932
:1005700020534F555243455F434F44455F55524CBE
:100580003A68747470733A2F2F6769746875622EB5
:10059000636F6D2F4D61726C696E4669726D776124
:1005A00072652F4D61726C696E2050524F544F43EB
:1005B0004F4C5F56455253494F4E3A312E30204DE5
:1005C000414348494E455F545950453A33442050C1
:1005D00072696E7465722045585452554445525F95
:1005E000434F554E543A3120555549443A343063BF
:1005F00065363164312D326564302D343533302D1C
:10060000383330342D353565336565616165626633
:10061000660A003344205072696E746572204F661A
:10062000662E0020573A0042656420636F6F6C6944
:100630006E672E2E2E004265642068656174696EB7
:10064000672E2E2E0020573A004520436F6F6C69AD
:100650006E672E2E2E00452048656174696E672EE8
:100660002E2E006F6B004D3131332053004B494C1F
:100670004C45442E20004543484F00494E464F000C
:100680004552524F52530044525952554E00434F17
:100690004D4D554E49434154494F4E006F666600DB
:1006A00076067B06800687068E0644454255473A05
:1006B0000050726F7465637465642050696E0A003F
:1006C00000011C1D132FFFFFFFFF1E1F12FF14FF51
:1006D000FFFF20211124FFFFFFFFFFFFFF0E10FF90
:1006E000FFFF22230DFFFFFF0E260F2C2725697326
:1006F0000025696D20256973002569682025696DCD
:100700002025697300256964202569682025696DA5
:100710002025697300256979202569642025696889
:100720002025696D20256973005072696E742074EC
:10073000696D653A200043757272656E7420666952
:100740006C653A2000456E642066696C65206C69B2
:1007500073740A00426567696E2066696C65206C77
:100760006973740A004E6F206D6F76652E00436CBE
:1007700069636B20746F20726573756D652E2E2E04
:1007800000205A3A200020593A200042656420583F
:100790003A20000A0A426564204C6576656C204365
:1007A0006F7272656374696F6E204D6174726978DF
:1007B0003A00202844525952554E290047323920D8
:1007C0004175746F20426564204C6576656C696E76
:1007D00067003F2856296572626F7365206C6576E5
:1007E000656C20697320696D706C61757369626CEA
:1007F000652028302D34292E0A00536C6565702E33
:100800002E2E00496E76616C69642065787472756D
:100810006465720A00416374697665204578747274
:10082000756465723A200020453A00205A3A00204B
:10083000593A00583A002C20002C2000486F6D6572
:100840002058592066697273740A00486F6D6520DC
:100850005859206669727374005761726E696E67C9
:100860003A20486F6D696E672042756D702044694B
:100870007669736F72203C20310A000202046275AF
:1008800073793A2070617573656420666F722069B0
:100890006E7075740A00627573793A2070617573B1
:1008A000656420666F7220757365720A00627573E5
:1008B000793A2070726F63657373696E670A0050CE
:1008C000726F62696E67206661696C65640A0050C8
:1008D000726F62696E67206661696C656400205A98
:1008E0003A200020593A200042656420583A2000FE
:1008F000486F6D65202573257325732066697273B3
:1009000074002066697273740A005A005900580016
:10091000486F6D65200020496E76616C69642065C2
:100920007874727564657220005344207265616446
:10093000206572726F720A00446F6E652070726972
:100940006E74696E672066696C650A004B494C4C91
:1009500045442E200053544F505045442E20005003
:1009600072696E7465722073746F70706564206450
:10097000756520746F206572726F72732E204669E0
:100980007820746865206572726F7220616E6420D1
:10099000757365204D39393920746F207265737411
:1009A0006172742E202854656D7065726174757261
:1009B000652069732072657365742E2053657420F9
:1009C00069742061667465722072657374617274F3
:1009D000696E67290A004E6F20436865636B737503
:1009E0006D2077697468206C696E65206E756D6224
:1009F00065722C204C617374204C696E653A20003E
:100A00004E6F20436865636B73756D2077697468FA
:100A1000206C696E65206E756D6265722C204C616C
:100A20007374204C696E653A2000636865636B736C
:100A3000756D206D69736D617463682C204C6173F2
:100A400074204C696E653A20004C696E65204E75C5
:100A50006D626572206973206E6F74204C617374CF
:100A6000204C696E65204E756D6265722B312C20AD
:100A70004C617374204C696E653A20004D31313001
:100A800000656E7175657565696E67202200FF01EE
:100A9000FF0000A0400000A0400000004000002037
:100AA0004300001143000016430000000000001145
:100AB0004300000000000020430000114300001626
:100AC000430000000000000000000000000000489B
:100AD000420000484200008040000000007C3C3E94
:100AE0005E2B3D3F2F5B5D3B2C2A225C004D33315A
:100AF0000043616E6E6F7420656E7465722073754D
:100B0000626469723A20006F70656E206661696C7C
:100B100065642C2046696C653A20006175746F2508
:100B2000692E67006572726F722077726974696EE0
:100B30006720746F2066696C650A004E6F742053DD
:100B400044207072696E74696E670A0053442070A5
:100B500072696E74696E67206279746520004465FD
:100B60006C6574696F6E206661696C65642C2046E3
:100B7000696C653A200046696C652064656C657433
:100B800065643A0057726974696E6720746F2066F5
:100B9000696C653A20006F70656E206661696C65EE
:100BA000642C2046696C653A20006F70656E206683
:100BB00061696C65642C2046696C653A2000466961
:100BC0006C652073656C65637465640A0020536905
:100BD0007A653A200046696C65206F70656E6564C1
:100BE0003A20002066696C653A2000667265736879
:100BF00000646F696E67004E6F772000454E442099
:100C0000535542524F5554494E450A002220706FA9
:100C100073002220706172656E743A22005355424F
:100C2000524F5554494E452043414C4C20746172FB
:100C30006765743A22004B494C4C45442E200074A1
:100C40007279696E6720746F2063616C6C207375B4
:100C5000622D67636F64652066696C6573207769D0
:100C6000746820746F6F206D616E79206C65766595
:100C70006C732E204D4158206C6576656C2069732D
:100C80003A004D3234004D32332025730053442056
:100C900063617264206F6B0A006F70656E526F6FD4
:100CA00074206661696C65640A00766F6C756D65A9
:100CB0002E696E6974206661696C65640A0053442C
:100CC00020696E6974206661696C0A00286E6F2065
:100CD00066696C65290043616E6E6F74206F706584
:100CE0006E2073756264697220003A0A0020286DD4
:100CF0006D290020204D393030204B004C696E6545
:100D0000617220416476616E63653A0A0020204D6D
:100D1000383531205A005A2D50726F6265204F6667
:100D2000667365740020440020490020204D333054
:100D3000312050005049442073657474696E6773A4
:100D40003A0A0020460020420020480020204D3171
:100D500034352053004D6174657269616C2068659B
:100D60006174757020706172616D65746572733A3B
:100D70000A0020204D3432302053004175746F201A
:100D8000426564204C6576656C696E673A0A00209E
:100D90005A0020590020204D323036205800486F2C
:100DA0006D65206F66667365743A0A002045002001
:100DB0005A002059002058002054002053002020C1
:100DC0004D32303520510020453C6D61785F655FC4
:100DD0006A65726B3E0020583C6D61785F785F6A8F
:100DE00065726B3E20593C6D61785F795F6A657210
:100DF0006B3E205A3C6D61785F7A5F6A65726B3E2C
:100E000000416476616E6365643A20513C6D696EA1
:100E10005F7365676D656E745F74696D655F75732B
:100E20003E20533C6D696E5F6665656472617465F2
:100E30003E20543C6D696E5F74726176656C5F66CE
:100E4000656564726174653E002054002052002084
:100E5000204D323034205000416363656C6572610F
:100E600074696F6E2028756E6974732F7332293A16
:100E700020503C7072696E745F616363656C3E20E4
:100E8000523C726574726163745F616363656C3E4A
:100E900020543C74726176656C5F616363656C3E7F
:100EA0000A00204500205A0020590020204D3230F1
:100EB000312058004D6178696D756D20416363651F
:100EC0006C65726174696F6E2028756E6974732F1A
:100ED0007332293A0A00204500205A002059002088
:100EE000204D3230332058004D6178696D756D208A
:100EF0006665656472617465732028756E697473C4
:100F00002F73293A0A00204500205A00205900205A
:100F1000204D39322058005374657073207065720B
:100F200020756E69743A0A0020204D32303020441A
:100F3000300A0020204D32303020440020446973B4
:100F400061626C65640A0046696C616D656E74204F
:100F500073657474696E67733A0020204D313439BB
:100F60002043203B20556E69747320696E204365D1
:100F70006C736975730A00202047323120202020CD
:100F80003B0048617264636F646564204465666118
:100F9000756C742053657474696E6773204C6F614F
:100FA0006465640A00DC050000DC050000DC050067
:100FB00000102700000000FA420000FA4200007012
:100FC000410000C8410000A0420000A0420080FC97
:100FD000440000BD42290A002062797465733B20F9
:100FE00063726320002073746F726564207365748C
:100FF00074696E67732072657472696576656420C2
:101000002800202863616C63756C61746564292114
:101010000A0020213D2000454550524F4D204352AB
:1010200043206D69736D61746368202D202873748B
:101030006F7265642920002053697A653A2000495F
:101040006E6465783A2000204D61726C696E3D5681
:101050003535290A0028454550524F4D3D0045453C
:1010600050524F4D2076657273696F6E206D6973B3
:101070006D617463682000290A00206279746573C9
:101080003B20637263200053657474696E6773203C
:1010900053746F726564202800454550524F4D20AF
:1010A0006461746173697A65206572726F722E0A69
:1010B000004572726F722077726974696E6720746E
:1010C0006F20454550524F4D210A006F70656E00EC
:1010D000545249474745524544003A20007A5F6DD3
:1010E000696E00795F6D617800785F6D696E00529E
:1010F00065706F7274696E6720656E6473746F706B
:10110000207374617475730A00456E6473746F7034
:101110007320256320256320256320256300205A42
:101120003A0020593A0020583A00656E6473746F93
:101130007073206869743A2000486F6D696E67208B
:101140006661696C656400556E6B6E6F776E2063C7
:101150006F6D6D616E643A20220020746F6F206C99
:101160006F6E6720657874727573696F6E20707228
:101170006576656E7465640A0020636F6C64206533
:101180007874727573696F6E2070726576656E74AF
:1011900065640A00FFFDFCFAF8F6F4F2F0EEECEA02
:1011A000E9E7E5E3E1E0DEDCDAD9D7D5D4D2D0CF88
:1011B000CDCBCAC8C7C5C3C2C0BFBDBCBAB9B7B61C
:1011C000B4B3B2B0AFADACAAA9A8A6A5A4A2A1A081
:1011D0009E9D9C9A99989795949392908F8E8D8BC3
:1011E0008A8988878684838281807F7E7D7B7A79E5
:1011F0007877767574737271706F6E6D6C6B6A69E7
:101200006867666564636261605F5E5D5C5B5A59D6
:1012100058585756555453525150504F4E4D4C4BB1
:101220004A4A4948474646454443424241403F3E78
:101230003E3D3C3B3B3A393838373635353433322E
:10124000323130302F2E2E2D2C2B2B2A29292827D6
:101250002726252524232322212120201F1E1E1D71
:101260001C1C1B1B1A191918181716161515141300
:101270001312121111100F0F0E0E0D0D0C0C0B0A84
:101280000A090908080707060605050404030302FE
:1012900002010000000000010000000100008000C9
:1012A000555555000000400033333300AAAA2A00E8
:1012B0004992240000002000C7711C009999190070
:1012C000D1451700555515003BB1130024491200B4
:1012D00011111100000010000F0F0F00E3380E0075
:1012E00043790D00CCCC0C00C3300C00E8A20B00FD
:1012F00064210B00AAAA0A00703D0A009DD80900CB
:10130000427B090092240900DCD308008888080089
:101310001042080000000800F0C10700878707009E
:1013200075500700711C07003EEB0600A1BC0600CB
:101330006990060066660600703E060061180600A9
:1013400017F4050074D105005BB00500B2900500EC
:10135000627205005555050078390500B81E050074
:10136000050505004EEC040087D40400A1BD04006F
:1013700090A7040049920400C17D0400EE690400B6
:10138000C7560400444404005C32040008210400F1
:1013900041100400000004003FF00300F8E00300E7
:1013A00026D20300C3C30300CCB503003AA8030050
:1013B0000A9B0300388E0300C08103009F75030061
:1013C000D0690300505E03001D530300344803003E
:1013D000913D03003333030016290300381F030037
:1013E00097150300300C0300030303000BFA0200FF
:1013F00049F10200BAE802005CE002002DD80200C8
:101400002DD0020059C80200B0C0020031B902005C
:10141000DAB10200AAAA0200A0A30200BC9C02004A
:10142000FA9502005C8F0200DF88020082820200CF
:10143000457C02002776020027700200436A020002
:101440007C640200D05E02003F590200C8530200D3
:101450006563686F3A004572726F723A00205A3ABB
:101460000020593A0020436F756E7420583A0023CB
:101470002C0000B8220000561800003A0F0000B8F7
:10148000080000B1040000710200003E01000024C9
:10149000F4D43050C38E20C2A24017828B70111238
:1014A0007A910D816CD90AA861E108C75866076175
:1014B0005143061E4B5D05C145A7041A411104099D
:1014C0003D9803713931034036DB0265339102D414
:1014D000305402802E1D02632CEE01752AC501B026
:1014E00028A001102781018F2564012B244B01E0E6
:1014F000223401AC211F018D200D01801FFC0084CE
:101500001EED00971DDF00B81CD200E61BC60020B0
:101510001BBC00641AB200B219A8000A19A0006A24
:10152000189900D117910040178B00B5168400312F
:10153000167E00B31579003A157300C7146F005872
:10154000146A00EE1366008813630025135E00C75B
:10155000125B006C12570015125400C1115100703B
:10156000114F0021114B00D61049008D1047004645
:1015700010440002104200C00F4000800F3E0042A5
:101580000F3C00060F3B00CB0E3800930E37005C7B
:101590000E3500270E3400F30D3200C10D310090DE
:1015A0000D3000600D2E00320D2D00050D2C00D9E0
:1015B0000C2B00AE0C2900850C29005C0C27003593
:1015C0000C27000E0C2600E80B2400C40B2400A0FE
:1015D0000B23007D0B23005A0B2100390B2100182F
:1015E0000B2000F80A1F00D90A1E00BB0A1E009D2E
:1015F0000A1D00800A1D00630A1C00470A1B002CFC
:101600000A1B00110A1A00F7091A00DD091900C4A3
:10161000091900AB091900920917007B091800632A
:101620000917004C09160036091600200916000A91
:10163000091500F5081500E0081400CC081400B8DE
:10164000081400A4081400900813007D0812006B11
:10165000081300580812004608120034081100232D
:101660000811001208110001081100F0071000E035
:10167000071000D0071000C0071000B0070F00A12E
:1016800007100091070E0083070F0074070F006515
:10169000070E0057070E0049070E003B070D002EEE
:1016A000070E0020070D0013070D0006070D00F9B7
:1016B000060C00ED060D00E0060C00D4060C00C878
:1016C000060C00BC060C00B0060C00A4060B00992A
:1016D000060C008D060B0082060B0077060B006CD3
:1016E000060B0061060A0057060B004C060A004272
:1016F000060A0038060A002E060A0024060A001A06
:10170000060A001006090007060A00FD050900F494
:10171000050900EB050900E2050900D9050900D01B
:10172000050900C7050900BE050900B5050800AD9B
:10173000050800A50509009C050800940508008C13
:10174000050800840508007C050800740508006C85
:10175000050700650508005D050700560508004EF1
:101760000507004705070040050800380507003158
:101770000507002A050700230507001C05060016BB
:101780000507000F0507000805060002050700FB16
:10179000040600F5040700EE040600E8040600E273
:1017A000040700DB040600D5040600CF040600C9C8
:1017B000040600C3040600BD040600B7040600B119
:1017C000040500AC040600A6040600A00405009B66
:1017D00004060095040500900406008A04050085AF
:1017E000040500800406007A0405007504050070F5
:1017F0000405006B04050066040500610405005C37
:1018000004050057040500520405004D0405004876
:10181000040500430405003E0404003A04050035B5
:10182000040500300404002C0405002704040023F0
:101830000405001E0404001A040400160405001127
:101840000404000D0404000904050004040400005D
:10185000040400FC030400F8030400F4030400F093
:10186000030400EC030400E8030400E4030400E0C4
:10187000030400DC030400D8030400D4030400D0F4
:10188000030400CC030400C8030300C503030024C1
:10189000F404D9201BC40C5C0E9804C4095F0265D3
:1018A000077101F405F900FB04B30048048700C187
:1018B0000369005803550003034500BE023A008443
:1018C00002310053022A002902250004022000E40C
:1018D000011C00C8011900AF011700980114008411
:1018E000011300710110006101100051010E00434D
:1018F000010D0036010B002B010B0020010B001520
:101900000109000C01090003010800FB000800F3B5
:10191000000800EB000700E4000600DE000600D827
:10192000000600D2000600CC000500C7000500C27A
:10193000000500BD000400B9000400B5000400B1BA
:10194000000400AD000400A9000400A5000300A2EB
:101950000003009F0004009B000300980003009513
:1019600000020093000300900003008D0002008B32
:10197000000300880002008600020084000300814A
:101980000002007F0002007D0002007B000200795F
:10199000000200770001007600020074000200726D
:1019A000000100710002006F0002006D0001006C78
:1019B0000002006A00010069000200670001006681
:1019C0000001006500010064000200620001006186
:1019D000000100600001005F0002005D0001005C8A
:1019E0000001005B0001005A00010059000100588D
:1019F000000100570001005600010055000100548D
:101A0000000100530000005300010052000100518A
:101A1000000100500001004F0001004E0000004E88
:101A20000001004D0001004C0001004B0000004B84
:101A30000001004A00010049000100480000004880
:101A4000000100470001004600000046000100457B
:101A50000000004500010044000100430000004375
:101A6000000100420000004200010041000000416E
:101A7000000100400001003F0000003F0001003E67
:101A80000000003E0001003D0000003D0001003C60
:101A90000000003C0000003C0001003B0000003B57
:101AA0000001003A0000003A00010039000000394E
:101AB0000001003800000038000000380001003745
:101AC000000000370001003600000036000000363C
:101AD0000001003500000035000000350001003431
:101AE0000000003400000034000100330000003327
:101AF000000000330001003200000032000000321C
:101B00000001003100000031000000310001003010
:101B100000000030000000300001002F0000002F06
:101B20000000002F0000002F0001002E0000002EFA
:101B30000000002E0001002D0000002D0000002DEF
:101B40000000002D0001002C0000002C0000002CE3
:101B50000000002C0001002B0000002B0000002BD7
:101B60000000002B0001002A0000002A0000002ACB
:101B70000000002A000100290000002900000029BF
:101B800000000029000000290001002800000028B2
:101B900000000028000000280000002800010027A5
:101BA0000000002700000027000000270000002799
:101BB000000100260000002600000026000000268C
:101BC000000000260001002500000025000000257F
:101BD0000000002500000025000000250001002471
:101BE0000000002400000024000000240000002465
:101BF0000001002300000023000000230000002358
:101C00000000002300000023000000230001002248
:101C1000000000220000002200000022000000223C
:101C2000000000220001002100000021000000212E
:101C30000000002100000021000000210000002120
:101C40000001002000000020000000200000002013
:101C50000000002000000020000000200000002004
:101C60000001001F0000001F0000001F0000001FF7
:101C70000000001F0000001F0000001F0001001EE8
:101C80000000001E0000001E0000001E00000020DA
:101C900042403A0020403A00202F004D383420586E
:101CA0002059205A204500546865726D616C20529D
:101CB000756E6177617900453120544845524D4138
:101CC0004C2052554E4157415900424544205448FA
:101CD00045524D414C2052554E41574159004B49B8
:101CE0004C4C45442E2000202D20496E76616C69B5
:101CF00064206578747275646572206E756D6265B6
:101D00007220210A0048656174696E672066616906
:101D10006C6564004265642068656174696E672063
:101D20006661696C65640048656174696E67206608
:101D300061696C65640045312048656174696E674E
:101D4000206661696C6564004D494E54454D5020D4
:101D50007472696767657265640045312045727207
:101D60003A204D494E54454D50004572723A204D2F
:101D7000494E54454D5020424544004D415854452C
:101D80004D50207472696767657265640045312043
:101D90004572723A204D415854454D50004572727B
:101DA0003A204D415854454D50204245440062650B
:101DB000640A002C2073797374656D2073746F70DE
:101DC00070656421204865617465725F49443A20FA
:101DD000002CFFFFFFFFFF000101010101236465EB
:101DE00066696E652044454641554C545F4B6420FE
:101DF0000023646566696E652044454641554C5430
:101E00005F4B69200023646566696E652044454622
:101E100041554C545F4B702000504944204175742B
:101E20006F74756E652066696E69736865642120DC
:101E300050757420746865206C617374204B702C2D
:101E4000204B6920616E64204B6420636F6E737455
:101E5000616E74732066726F6D2062656C6F77209F
:101E6000696E746F20436F6E66696775726174691D
:101E70006F6E2E680A00504944204175746F747566
:101E80006E65206661696C6564212074696D656F9B
:101E900075740A00546865726D616C2052756E61CC
:101EA00077617900453120544845524D414C2052CC
:101EB000554E415741590048656174696E67206607
:101EC00061696C65640045312048656174696E67BD
:101ED000206661696C656400504944204175746FE7
:101EE00074756E65206661696C6564212054656D4A
:101EF000706572617475726520746F6F20686967B0
:101F0000680A00204B643A2000204B693A200020E8
:101F10004B703A20000A20436C6173736963205050
:101F20004944200A002054753A2000204B753A207D
:101F300000206D61783A2000206D696E3A20002003
:101F4000643A200020626961733A200050494420BD
:101F50004175746F74756E652073746172740A00D4
:101F6000504944204175746F74756E6520666169CF
:101F70006C656421204261642065787472756465C3
:101F800072206E756D6265720A001000C902100140
:101F90002C014001220170011801B0010E01F00175
:101FA00004015002FA00B002F0003003E600D00352
:101FB000DC009004D2007005C800A006BE00000836
:101FC000B400B009AA00D00BA000600E960060110A
:101FD0008C000015820020197800C01D6E00A02220
:101FE0006400B0275A00902C500000314600E034C5
:101FF0003C0010383200903A2800603C1E00A03DA2
:102000001400803E0A00203F000070012C01900166
:102010002701B0012201C0011D01F00118011002C9
:10202000130130020E016002090190020401C00296
:10203000FF000003FA004003F5008003F000D00326
:10204000EB002004E6007004E100E004DC00400541
:10205000D700C005D2004006CD00D006C8008007DA
:10206000C3003008BE00F008B900C009B400B00ACF
:10207000AF00B00BAA00D00CA500000EA000500FBE
:102080009B00C01096005012910000148C00C015E7
:102090008700B0178200B0197D00D01B7800001EA9
:1020A000730040206E0090226900F02464004027F5
:1020B0005F0090295A00E02B5500102E5000203070
:1020C0004B0010324600E033410090353C001037A1
:1020D000370070383200A0392D00B03A2800A03BFC
:1020E0002300603C1E00103D1900903D1400103E7E
:1020F0000F00703E0A00C03E0500003F0000403F58
:10210000FBFF803FF6FFC03FF1FF052E2E0004527B
:10211000656672657368004D61696E0046696C2E74
:10212000204469612E0046696C2E204469612E00AE
:102130004520696E206D6D33004F6666004F6E203E
:1021400000416476616E6365204B00416476616E88
:102150006365204B00436F6E74726F6C0050726F3A
:102160006265205A204F666673657400436F6E7413
:10217000726F6C005049442D44005049442D440076
:102180005049442D49005049442D49005049442D9F
:1021900050005049442D50002002204661637400D5
:1021A00020022046616374002002204D61780020E7
:1021B00002204D6178002002204D696E002002202F
:1021C0004D696E004175746F74656D70004F666681
:1021D000004F6E200046616E207370656564004696
:1021E000616E2073706565640042656400426564D9
:1021F000004E6F7A7A6C65004E6F7A7A6C65004398
:102200006F6E74726F6C00526573746F72652066C6
:1022100061696C73616665004C6F616420736574FD
:1022200074696E67730053746F726520736574749C
:10223000696E67730046696C616D656E74004D6F01
:1022400074696F6E0054656D706572617475726546
:10225000004D61696E004578747275646572004D59
:102260006F7665205A004D6F76652059004D6F7668
:102270006520580050726570617265004D6F76651B
:1022800020302E316D6D004D6F766520316D6D0003
:102290004D6F76652031306D6D004D6F7665206134
:1022A000786973004578747275646572004D6F7655
:1022B00065205A004D6F76652059004D6F76652078
:1022C00058004578747275646572004D6F766520AC
:1022D0005A004D6F76652059004D6F766520580085
:1022E00050726568656174204142530050726568A0
:1022F00065617420504C4100436F6F6C646F776E62
:102300000044697361626C652073746570706572F6
:1023100073004D383400426564204C6576656C6905
:102320006E67004175746F20686F6D6500473238C5
:10233000004D6F76652061786973004D61696E00AC
:1023400053746F72652073657474696E6773004CA3
:102350006F61642073657474696E67730050726F87
:102360006265205A204F666673657400426564207A
:102370004C6576656C696E67004F6666004F6E202F
:10238000004C6576656C20626564004732380A4708
:10239000323900473239004175746F20686F6D65BE
:1023A0000047323800507265706172650050726586
:1023B0006865617420414253204265640050726533
:1023C000686561742041425320456E640050726517
:1023D0006865617420414253005072657061726596
:1023E000005072656865617420504C4120426564FC
:1023F000005072656865617420504C4120456E64E0
:10240000005072656865617420504C4100507265DF
:10241000706172650050726F6265205A204F666667
:1024200073657400466C6F7700466C6F7700466189
:102430006E2073706565640046616E20737065651B
:10244000640042656400426564004E6F7A7A6C6590
:10245000004E6F7A7A6C6500537065656400537046
:10246000656564004D61696E00496E69742E205384
:10247000442063617264004D3231004E6F2053443A
:102480002063617264004368616E67652053442075
:1024900063617264004D3231005072696E7420665F
:1024A000726F6D2053440053746F70207072696EA8
:1024B0007400526573756D65207072696E7400509A
:1024C00061757365207072696E7400436F6E74720B
:1024D0006F6C00507265706172650054756E6500B6
:1024E000496E666F2073637265656E005072696E27
:1024F000742061626F7274656400334420507269A5
:102500006E7465722052656164792E005072696E36
:1025100074696E672E2E2E005072696E7420706181
:10252000757365640025753A2530327500253032A3
:10253000753A2530327500202020200020202020F0
:102540002020002D2D2D00534400001C1F11111FB1
:1025500000000006191803130C00040E1F041C00D1
:102560000000000E1315110E00001C1018170506B0
:102570000500040A0A0A0A11110E0C12120C0000BE
:102580000000001F1511151F000050726F626520BA
:102590005A204F666673657400506C6561736520E0
:1025A0007265736574005052494E5445522048413B
:1025B0004C544544000129022904290829102920E6
:1025C0002940298029012C022C01260226042608F4
:1025D000261026202640268026402C802C0123020F
:1025E00023042308231023202340238023012002D7
:1025F00020042008201020202040208020102C20A3
:102600002C012F022F042F082F102F202F402F8056
:102610002F7EFE7EFD7EFB7EF77EEF7EDF7EBF7E21
:102620007F00010000D22612000200008F26430026
:102630000300008B26040103090471261802030914
:1026400004592616030309044B260C0C03310032EF
:1026500000330034003500000016035500530042DB
:10266000002000530065007200690061006C0000EA
:102670000018035400650065006E00730079006463
:1026800000750069006E006F000000040309040972
:10269000024300020100C0320904000001020201ED
:1026A0000005240010010524010001042402060590
:1026B0002406000107058203080040090401000206
:1026C0000A000000070503024000000705840240DD
:1026D00000001201000202000020C01683047202F2
:1026E000010203010001C102018036018136ED368D
:1026F000DF8C5EB582E4F13611241FBECFEFD0E24D
:10270000DEBFCDBF12E0A0E0B1E0E6EDFFED01E0FD
:102710000BBF02C007900D92A034B107D9F722E198
:10272000A0E4B2E001C01D92A43CB207E1F713E1BE
:10273000CBE7D3E104C02197FE010E940AE5C73729
:10274000D107C9F70E943FDD0C94DEEF0C94000026
:102750004F925F926F927F928F929F92AF92BF92B1
:10276000CF92DF92EF92FF92CF934B015C01690110
:102770007A0120E030E040EA51E40E9432E52B018A
:102780003C012FE632E143E85AEB0E944CE787FD1B
:1027900048C022E430E040E253E4C301B2010E94A9
:1027A000AAE518160CF43DC02FE632E143E85AEBD7
:1027B000C701B6010E944CE787FD33C022E430E038
:1027C00041E153E4C701B6010E94AAE518164CF195
:1027D00024EF3DEF4FE951E4C501B4010E944CE7FD
:1027E00087FD1FC022E430E046E153E4C501B40197
:1027F0000E94AAE51816ACF027EE3BEF4FE151E43A
:10280000C701B6010E944CE787FD0BC0C1E022E47E
:1028100030E046E053E4C701B6010E94AAE518166D
:102820000CF4C0E08C2FCF91FF90EF90DF90CF9011
:10283000BF90AF909F908F907F906F905F904F90E0
:102840000895FB0101900020E9F73197AF01461B85
:10285000570BDC01ED91FC910280F381E02D09948E
:10286000CF93DF931F92CDB7DEB76983DC01ED9183
:10287000FC910280F381E02D41E050E0BE016F5FEA
:102880007F4F09950F90DF91CF910895FF920F939D
:102890001F93CF93DF93F82E092F162FE9E6F4E06C
:1028A0006491EF012196662329F088EB92E1D8DF4D
:1028B000FE01F6CFEF2DF02F6491EF0121966623F4
:1028C00029F088EB92E1CCDFFE01F6CFE7E6F4E0F9
:1028D0006491EF012196662329F088EB92E1C0DF35
:1028E000FE01F6CF412F50E060E070E088EB92E10E
:1028F0000E948BDC6AE088EB92E1DF91CF911F911F
:102900000F91FF90ADCF0FB6F8948091AD129091DA
:10291000AE12A091AF12B091B0120FBE8093C1025F
:102920009093C202A093C302B093C40208954F9241
:102930005F926F927F92AF92BF92CF92DF92EF92AF
:10294000FF92CF93DF93EB01FC0160817181828163
:1029500093812CE3C22ED12CE12CF12CA7019601FE
:102960000E94CCE4B62EA72ECA01B901A701960198
:102970000E94CCE46B017C01CA01B90128E130E07E
:1029800040E050E00E94CCE42B013C01C9016DE61F
:1029900071E00E94A5E461157105D9F0AF92BF9274
:1029A000DF92CF925F924F929F938F937F936F931B
:1029B00085E197E09F938F93DF93CF930E94C4ECC0
:1029C0008DB79EB70E960FB6F8949EBF0FBE8DBF03
:1029D00061C00097C9F0AF92BF92DF92CF925F9231
:1029E0004F929F938F9385E097E09F938F93DF9310
:1029F000CF930E94C4ECEDB7FEB73C960FB6F894A7
:102A0000FEBF0FBEEDBF46C0411451046104710406
:102A1000B9F0AF92BF92DF92CF925F924F9289EF5F
:102A200096E09F938F93DF93CF930E94C4EC8DB772
:102A30009EB70A960FB6F8949EBF0FBE8DBF2AC0F0
:102A4000C114D104E104F104A9F0AF92BF92DF9266
:102A5000CF9281EF96E09F938F93DF93CF930E9465
:102A6000C4ECEDB7FEB738960FB6F894FEBF0FBEB4
:102A7000EDBF10C0AF92BF928DEE96E09F938F9303
:102A8000DF93CF930E94C4EC0F900F900F900F90A4
:102A90000F900F90DF91CF91FF90EF90DF90CF904C
:102AA000BF90AF907F906F905F904F90089581544A
:102AB0008A3108F040C0A82FB0E0409160095091E1
:102AC0006109609162097091630904C07695679508
:102AD000579547958A95D2F740FF2DC0E0916B0935
:102AE000F0916C09AA5BB64F8C918823E1F0E80F56
:102AF000F11D808190ED980F9A3080F08E3229F48C
:102B0000818180538A3078F409C08D3211F08B3284
:102B100051F4818190ED980F9A3018F49E2F8F2FE9
:102B200004C08E3251F090E080E09093670980936A
:102B3000680981E0089580E00895828180538A3099
:102B400090F7ECCFB4DF882341F081E02091670952
:102B500030916809232B09F480E008950F931F93A7
:102B6000CF938091670990916809009711F1FC015A
:102B70008F01C1912C2F2F7DA9F0C53411F0C536DE
:102B8000B9F7F801108260E070E0809167099091D8
:102B900068090E9430E8F801C083562F472F382F6C
:102BA000292F0BC060E070E0CF911F910F910C9422
:102BB00030E850E040E030E020E0652F742F832FB4
:102BC000922FCF911F910F91089580916709909155
:102BD0006809009731F04AE050E060E070E00C9442
:102BE00096E960E070E0CB010895809167099091CB
:102BF0006809009731F04AE050E060E070E00C9422
:102C0000BEEA60E070E0CB010895DFDF97FD0AC007
:102C1000DCDF6F3F71058105910509F02CF4D5DFEC
:102C2000862F089580E008958FEF089580916709B9
:102C300090916809892B31F0E8DF91E0811103C0A0
:102C400090E001C091E0892F08950F931F93CF93D7
:102C5000DF93CDB7DEB72C970FB6F894DEBF0FBE6B
:102C6000CDBFE6EAF4E080859185A285B3854481F5
:102C700055816681778100811181228133810987A5
:102C80001A872B873C874D835E836F837887898380
:102C90009A83AB83BC83AE014F5F5F4FBE016B5F16
:102CA0007F4FCE0109960E94EE7B22EB34E0AE010D
:102CB0004F5F5F4FBE016B5F7F4FCE0109960E9451
:102CC0008F8A2C960FB6F894DEBF0FBECDBFDF9172
:102CD000CF911F910F9108952F923F924F925F9243
:102CE0006F927F929F92AF92BF92CF92DF92EF92BC
:102CF000FF920F931F93CF93DF93CDB7DEB7649707
:102D00000FB6F894DEBF0FBECDBF2A013B01902E57
:102D1000A12E6901082F10E0F801E257F54FE49168
:102D2000BB24B3941E160CF4B12CFF24F39420E0C2
:102D300030E0A901C301B2010E944CE718160CF063
:102D4000F12C000F111F000F111FC8018A559B4F56
:102D50001C01FC01108211821282138276DFF101C4
:102D60004082518262827382E090CA0220E030E0A9
:102D7000A901692D7A2DC6010E94AAE5811108C01A
:102D8000F801E353F54F85919591A591B49103C056
:102D9000892D9A2DD601898B9A8BAB8BBC8B809118
:102DA000AE049091AF04A091B004B091B1044091F1
:102DB000AA045091AB046091AC047091AD040091F1
:102DC000A6041091A7042091A8043091A9040D87AE
:102DD0001E872F87388B49875A876B877C878D831F
:102DE0009E83AF83B88719821A821B821C82AE0130
:102DF0004B5F5F4FBE01675F7F4FCE010D960E9414
:102E0000EE7BCE0101966C018E010F5E1F4F22EB0F
:102E100034E0AE014B5F5F4FBE01675F7F4F0C96A2
:102E20000E94AD890E948A7DBF100E948C706496BA
:102E30000FB6F894DEBF0FBECDBFDF91CF911F91CB
:102E40000F91FF90EF90DF90CF90BF90AF909F9049
:102E50007F906F905F904F903F902F90089562EB1E
:102E600074E083E00C94B58B10928B04109289046B
:102E700010928A04089590918904E92FF0E0E855B2
:102E8000FD4F80839F5F943018F49093890402C0B3
:102E90001092890480918B048F5F80938B04089536
:102EA000CF93FC0180818B33A1F080918B0484301F
:102EB00080F4C62FBF018091890420E6829FC00163
:102EC0001124875F9C4F0E9495EC8C2FD4DF81E00A
:102ED00001C080E0CF910895EF92FF921F93CF93AE
:102EE000DF937C0160E0DCDF182F8823C9F0E0E588
:102EF000F4E16491EF012196662329F088EB92E1D9
:102F0000AFDCFE01F6CFB70181E89AE00E94E38CC6
:102F100062E288EB92E1A4DC6AE088EB92E1A0DC5B
:102F2000812FDF91CF911F91FF90EF900895DF9255
:102F3000EF92FF920F931F93CF93DF93CDB7DEB73E
:102F40006E970FB6F894DEBF0FBECDBF609107033A
:102F5000709108036115710541F14DE150E0CE011A
:102F600001967C010E9424EC1E8EF7018F010E1940
:102F70001F09D190DD2019F09AE0D912F7CFF7019F
:102F8000E00FF11F1082C701A7DF882371F0DD2059
:102F9000A9F00F5F1F4F8091070390910803080F5E
:102FA000191F109308030093070381E02091070382
:102FB00030910803232B29F480E003C000E010E0E7
:102FC000F0CF6E960FB6F894DEBF0FBECDBFDF9187
:102FD000CF911F910F91FF90EF90DF900895909304
:102FE000080380930703A3CFEF92FF920F931F93E1
:102FF000CF93DF937C0184E5A5DDD82F882369F189
:1030000004DEC82F18162CF5E0E5F4E164918F0179
:103010000F5F1F4F662329F088EB92E121DCF80156
:10302000F5CF6DE488EB92E11BDCA70160E070E076
:1030300020E088EB92E10E942FDC6C2FCC0F770B05
:1030400086E199E00E940B8D6AE088EB92E108DC52
:1030500008C08093BC02D0E004C08091CA02809373
:10306000BC028D2FDF91CF911F910F91FF90EF90B8
:1030700008950F931F93CF93DF9394E0899FE0010E
:1030800011248E0107521D4FFE01EB51FD4FDE0151
:10309000AF50BD4F2D913D914D915C9160817181FB
:1030A000828193810E9433E5F8016083718382837A
:1030B0009383FE01EF53F54F85919591A591B491BE
:1030C000FE01E353FD4F80839183A283B383FE010E
:1030D000EB54F54F85919591A591B491C55FDE4F65
:1030E00088839983AA83BB83DF91CF911F910F912E
:1030F0000895CF92DF92EF920F931F93CF93DF93B8
:10310000CDB7DEB760970FB6F894DEBF0FBECDBF68
:10311000E090CA02E6EAF4E080859185A285B38555
:1031200044815581668177810081118122813381BB
:103130000D871E872F87388B49875A876B877C8737
:103140008D839E83AF83B88719821A821B821C826B
:10315000AE014B5F5F4FBE01675F7F4FCE010D96A3
:103160000E94EE7BCE0101966C0109E111E022EB99
:1031700034E0AE014B5F5F4FBE01675F7F4F0C963F
:103180000E94AD8960960FB6F894DEBF0FBECDBF2A
:10319000DF91CF911F910F91EF90DF90CF90089525
:1031A0004F925F926F927F928F929F92AF92BF9257
:1031B000CF92DF92EF92FF920F931F93CF93DF9303
:1031C000CDB7DEB72C970FB6F894DEBF0FBECDBFDC
:1031D0006D837E838F83988729873A874B875C87A7
:1031E0004701580136018091190190911A01A0916F
:1031F0001B01B0911C0189839A83AB83BC83D601E8
:10320000CD90DD90ED90FC9020E030E0A901C70169
:10321000B6010E94AAE5811106C0E5EDFAE0C5906D
:10322000D590E590F490A50194016091AE04709161
:10323000AF048091B0049091B1040E94AAE587FF89
:1032400011C0C0921901D0921A01E0921B01F092B4
:103250001C018092AE049092AF04A092B004B09290
:10326000B10447DFF301408051806280738020E029
:1032700030E0A901C301B2010E94AAE5811108C092
:103280004090010150900201609003017090040190
:103290004092190150921A0160921B0170921C0118
:1032A0008D819E81AF81B8858093A6049093A704F9
:1032B000A093A804B093A90489859A85AB85BC85A1
:1032C0008093AA049093AB04A093AC04B093AD0494
:1032D00010DFA50194016091AE047091AF0480915C
:1032E000B0049091B1040E944CE718168CF4C0927F
:1032F0001901D0921A01E0921B01F0921C018092F8
:10330000AE049092AF04A092B004B092B104F1DE8A
:103310000E948A7D89819A81AB81BC818093190149
:1033200090931A01A0931B01B0931C012C960FB629
:10333000F894DEBF0FBECDBFDF91CF911F910F91EB
:10334000FF90EF90DF90CF90BF90AF909F908F90C5
:103350007F906F905F904F900895CF92DF92EF92A1
:10336000FF920F931F936B01FC01E080F1800281BB
:103370001381E6EAF4E0248135814681578160813A
:103380007181828193810CDF1F910F91FF90EF90EB
:10339000DF90CF900895CF92DF92EF92FF920F933C
:1033A0001F936A01E090AE04F090AF040091B00466
:1033B0001091B104FB012081318142815381FC01D4
:1033C0006081718182819381EBDE1F910F91FF906B
:1033D000EF90DF90CF9008958091190190911A019C
:1033E000A0911B01B0911C018093030390930403EF
:1033F000A0930503B09306038091170190911801E3
:10340000909302038093010384E690E09093180167
:103410008093170108958091030390910403A09174
:103420000503B09106038093190190931A01A093AC
:103430001B01B0931C0180910103909102039093B2
:103440001801809317010895EF92FF921F93CF9375
:10345000DF93882329F0D0919504D095D17001C0D5
:10346000D0E0662341F01091950411FB882780F984
:1034700011E0182701C010E0442341F0C0919504E9
:10348000C2FB882780F9C1E0C82701C0C0E0D11184
:1034900005C0111103C0CC2309F486C0E0E5F4E1B6
:1034A00064917F018FEFE81AF80A662329F088EB10
:1034B00092E1D6D9F701F4CFE0E1F9E064917F0120
:1034C0009FEFE91AF90A662329F088EB92E1C8D93F
:1034D000F701F4CFDD2371F0EEE0F9E064917F01B4
:1034E0008FEFE81AF80A662329F088EB92E1B8D941
:1034F000F701F4CF112371F0ECE0F9E064917F0162
:103500009FEFE91AF90A662329F088EB92E1A8D91E
:10351000F701F4CFC11103C0E2E0F9E00EC0EAE028
:10352000F9E064917F018FEFE81AF80A6623A1F3AE
:1035300088EB92E195D9F701F4CF64917F019FEF79
:10354000E91AF90A662329F088EB92E189D9F70193
:10355000F4CFC11103C044EE51E002C044ED51E08C
:10356000111103C024EE31E002C026ED31E0D1118B
:1035700003C084EE91E002C088ED91E05F934F9329
:103580003F932F939F938F9380EF98E09F938F9318
:103590001F920E94EEB28DB79EB709960FB6F894AF
:1035A0009EBF0FBE8DBFC1E08C2FDF91CF911F91C9
:1035B000FF90EF900895BF92CF92DF92EF92FF922B
:1035C0000F931F93CF93DF93CDB7DEB728970FB636
:1035D000F894DEBF0FBECDBF90914009981709F453
:1035E0007AC0B82E882309F453C080E090E0A0EAA6
:1035F000B0E48D839E83AF83B887C090B802D0902B
:10360000B902E090BA02F090BB0220E030E0A901DC
:10361000C701B6010E94AAE587FF0CC0A701960169
:1036200060E070E080EA90E40E9432E56D837E8382
:103630008F83988720E030E046E153E46D817E81FE
:103640008F8198850E944CE7181644F480E090E042
:10365000A6E1B3E48D839E83AF83B8872091AE0447
:103660003091AF044091B0045091B1046D817E81DE
:103670008F8198850E944CE7181654F419821A829B
:103680001B821C82BE016F5F7F4FCE01059665DEF7
:103690006091A6047091A7048091A8049091A90458
:1036A0002091AA043091AB044091AC045091AD0438
:1036B00019821A821B821C82E090AE04F090AF0443
:1036C0000091B0041091B104FE0131966F0168DDE4
:1036D0008B2D0E94977080E028960FB6F894DEBF7D
:1036E0000FBECDBFDF91CF911F910F91FF90EF9053
:1036F000DF90CF90BF9008954F925F926F927F922C
:103700008F929F92AF92BF92CF92DF92EF92FF92F1
:103710000F931F93CF93C82FE82EF12CF701E25798
:10372000F54FB490823021F481E045DF811107C16B
:103730006701CC0CDD1CCC0CDD1CF601E356F54F0B
:1037400045905590659074906B2DBB0C770B880B52
:10375000990B0E9449E64B015C0120E030E040EC0F
:103760005FE3C301B2010E9480E7A50194010E94BA
:1037700080E7AB01BC0100E010E098018C2FACDACF
:10378000C23041F0F601EF56F54F25913591459144
:10379000549104C020E030E040E450E4C501B4019D
:1037A0000E9480E74B015C0120E030E0A9010E940B
:1037B000AAE5882309F45CC0C23021F000E010E0E3
:1037C000980104C000E010E020E830E4B501A40155
:1037D00070588C2F81DAC23009F439C0F701E558EE
:1037E000F74F849181111DC0E0E5F4E164917F0100
:1037F0008FEFE81AF80A662329F088EB92E130D8B7
:10380000F701F4CFE9E5F8E064917F018FEFE81A62
:10381000F80A662329F088EB92E122D8F701F4CF69
:103820008AE0F601E353F54F45905590659074900A
:10383000682F70E080E090E00E9449E69B01AC01B7
:10384000C301B2010E94AEE52B013C0105C0412C31
:10385000512C612C90E4792EA5019401C501B4018D
:103860000E9433E5AB01BC01930182018C2F34DA55
:1038700081E090E00C2E01C0880F0A94EAF7909145
:103880009404982B9093940490919504892B8093A1
:103890009504F601EF50FD4F1082118212821382BF
:1038A0008C2FE7DBF601E755F54F85919591A591B2
:1038B000B491F601EA55FB4F80839183A283B383D1
:1038C000C230D1F42091B8023091B9024091BA02CD
:1038D0005091BB026091AE047091AF048091B0042E
:1038E0009091B1040E9432E56093AE047093AF04EE
:1038F0008093B0049093B104A8D9F601EA56FB4F27
:10390000D601AA55BB4F8D919D910D90BC91A02DD4
:1039100080839183A283B383C23089F480E0CF9106
:103920001F910F91FF90EF90DF90CF90BF90AF90DD
:103930009F908F907F906F905F904F903CCECF91F3
:103940001F910F91FF90EF90DF90CF90BF90AF90BD
:103950009F908F907F906F905F904F90089581E03F
:103960000895AF92BF92CF92DF92EF92FF920F93A2
:103970001F93CF93DF938CEFA82E81E0B82E96E9AA
:10398000E92E94E0F92E06EA14E029EDC22E22E099
:10399000D22EC0E0D0E0F50181915F0188D8882364
:1039A00019F1DCD8FE01E350FD4F2081211104C044
:1039B0002091C902222341F0F80120813181428106
:1039C00053810E9433E50AC0C330D10539F0F601B6
:1039D00020813181428153810E9432E5F701608369
:1039E0007183828393830AC0F80180819181A281CF
:1039F000B381F70180839183A283B3832196F4E09E
:103A0000EF0EF11C0C5F1F4F84E0C80ED11CC430B8
:103A1000D10509F0C0CF86E495D88823B9F09ED8A7
:103A200020E030E0A9010E944CE718167CF496D8FB
:103A300020E030E040E752E40E94AEE560931901D7
:103A400070931A0180931B0190931C01DF91CF9119
:103A50001F910F91FF90EF90DF90CF90BF90AF90AC
:103A60000895CF92DF92EF92FF920F931F93CF931F
:103A7000DF930FB6F894C090AD12D090AE12E090E4
:103A8000AF12F090B0120FBE8091C702811174C0C6
:103A900080910001882309F46FC08091A7028823D8
:103AA00009F46AC04091A3025091A4026091A5025A
:103AB0007091A60297018601041B150B260B370B8C
:103AC00037FD6DC0833031F134F481300CF454C0D3
:103AD000E0E5F4E106C0843009F04EC0E0E5F4E131
:103AE00033C06491EF012196662331F088EB92E1B7
:103AF0000E943014FE01F5CFEDEAF8E06491EF0189
:103B00002196662309F438C088EB92E10E943014B4
:103B1000FE01F4CFE0E5F4E16491EF012196662324
:103B200031F088EB92E10E943014FE01F5CFE6E916
:103B3000F8E06491EF0121966623F1F088EB92E1C1
:103B40000E943014FE01F5CF6491EF0121966623A7
:103B500031F088EB92E10E943014FE01F5CFEEE7E0
:103B6000F8E06491EF012196662331F088EB92E151
:103B70000E943014FE01F5CF2091000130E0A8EE44
:103B8000B3E00E9413E5C60ED71EE81EF91EC092D0
:103B9000A302D092A402E092A502F092A602DF91C5
:103BA000CF911F910F91FF90EF90DF90CF900895EC
:103BB0000F931F93CF93DF9300D000D0CDB7DEB724
:103BC000809194048370833011F160E08BE498E07D
:103BD0000E9474B2E0E5F4E164918F010F5F1F4F22
:103BE000662331F088EB92E10E943014F801F4CFA3
:103BF000ECE3F8E064918F010F5F1F4F662309F437
:103C00003DC088EB92E10E943014F801F3CF1DD83B
:103C100080E090E0A0E9B2E480939A0490939B0442
:103C2000A0939C04B0939D048091AE049091AF0446
:103C3000A091B004B091B10480939E0490939F042E
:103C4000A093A004B093A10480E090E0A0E7B2E4C8
:103C50008093960490939704A0939804B09399044A
:103C600019821A821B821C82AE014F5F5F4F6AE984
:103C700074E086E994E08FDB82E03EDD0F900F90E8
:103C80000F900F90DF91CF911F910F910895CF93D7
:103C9000DF93E4E5F7E06491EF012196662331F0CC
:103CA00088EB92E10E943014FE01F5CF87EB94E09F
:103CB0000E94AA56E5E4F7E06491EF01219666239D
:103CC00031F088EB92E10E943014FE01F5CFDF91D4
:103CD000CF9108958091BA048823A9F083E50E94CA
:103CE000A215882381F00E94E515AB01BC01409329
:103CF000250750932607609327077093280784E7CA
:103D000096E00C94354A0895CF93DF9383E40E94A4
:103D10005715882399F0E6E3F7E06491EF012196C7
:103D2000662331F088EB92E10E943014FE01F5CF5A
:103D300087EB94E0DF91CF910C94F05687EB94E001
:103D4000DF91CF910C941E580F931F93CF93DF9365
:103D5000CDB7DEB769970FB6F894DEBF0FBECDBF03
:103D60000E94979B6E8B7F8B888F998FBE016F5FB0
:103D70007F4FCE0146960E94971460E0CE010196D7
:103D80000E944DB2E0E5F4E164918F010F5F1F4F97
:103D9000662331F088EB92E10E943014F801F4CFF1
:103DA000BE016F5F7F4F89E297E00E94E38C6AE07B
:103DB00088EB92E10E94301469960FB6F894DEBF4A
:103DC0000FBECDBFDF91CF911F910F910895CF937B
:103DD0008091B90481110E948A7D8091BA04882360
:103DE000A9F180E50E94A215882321F00E941616F1
:103DF000C82F04C080E50E945715C82F609169093B
:103E000070916A092C2F41E087EB94E00E94575A89
:103E100083E50E94A215882381F00E94E515AB017D
:103E2000BC014093250750932607609327077093A2
:103E3000280784E796E00E94354A87EB94E00E94C9
:103E40008957C11103C0CF910C94D69BCF9108958F
:103E5000CF93DF93E6E5F4E16491EF0121966623C9
:103E600031F088EB92E10E943014FE01F5CFE1EBD6
:103E7000F6E06491EF012196662331F088EB92E140
:103E80000E943014FE01F5CFDF91CF91089588E6AE
:103E900090E0AAD8811124C08091B60483FD20C08F
:103EA00083E50E94A2158823C9F00E94AE150E94E6
:103EB00016E67093EF116093EE1180E00E94F59F7B
:103EC0000E94AE1520E030E04AEA52E40E94AAE5E2
:103ED000181624F00E94409B0E94AEB20C94AF8C46
:103EE0000895CF93DF9389E690E07ED8811116C0C4
:103EF000E3E6F6E06491EF012196662331F088EB6A
:103F000092E10E943014FE01F5CF0E94B6A56AE04E
:103F100088EB92E1DF91CF910C943014DF91CF9137
:103F20000895CF92DF92EF92FF9283E50E94A2154F
:103F3000882321F10E9405168D3308F08CE38093CD
:103F400084110FB6F894C090AD12D090AE12E090EC
:103F5000AF12F090B0120FBE282F30E0A8EEB3E001
:103F60000E9413E5C60ED71EE81EF91EC0928011EE
:103F7000D0928111E0928211F0928311FF90EF9024
:103F8000DF90CF90089580E50E94A215811106C0B0
:103F900083E50E94A215882359F005C00E940516EA
:103FA00081110CC0F5CF0E94E5156F3F710510F02F
:103FB0006FEF70E07093CC026093CB020895809114
:103FC000B60483FD14C083E50E94A215882379F00E
:103FD0000E94AE150E9416E66639710514F066E976
:103FE00070E07093E7116093E6110C9447A0089578
:103FF000DF92EF92FF920F931F93CF93DF9383E5AE
:104000000E945715882359F083E50E94A215882342
:1040100019F00E94051601C080E08093B604E0E527
:10402000F4E16491EF012196662331F088EB92E18F
:104030000E943014FE01F5CFEAEAF6E06491EF0148
:104040002196662331F088EB92E10E943014FE0144
:10405000F5CF8091B6048823A9F180EAE82E86E0A6
:10406000F82E00E010E020E08091B60490E0002EF1
:1040700002C0959587950A94E2F780FF1AC0DD2467
:10408000D394D20E222329F06CE288EB92E10E94B5
:104090003014F70185919491FC016491EC01219613
:1040A000662331F088EB92E10E943014CE01F4CF08
:1040B0002D2D0F5F1F4FF2E0EF0EF11C05301105A3
:1040C00099F60DC0ECE9F6E06491EF0121966623C4
:1040D00031F088EB92E10E943014FE01F5CF6AE0E6
:1040E00088EB92E1DF91CF911F910F91FF90EF90BC
:1040F000DF900C943014CF93DF9383E50E94A215D8
:10410000882351F00E9405168D3308F08CE38093CC
:104110000001DF91CF910895E0E5F4E16491EF01B2
:104120002196662331F088EB92E10E943014FE0163
:10413000F5CF4091000150E060E070E086E696E047
:104140000E94698D6AE088EB92E1DF91CF910C9437
:104150003014CF93DF9383E50E94A215882321F0CA
:104160000E94E515EB0102C0C0E0D0E0DD27C230BF
:10417000D105DCF0E6E5F4E16491EF0121966623D8
:1041800031F088EB92E10E943014FE01F5CFE1E4BA
:10419000F4E06491EF012196662309F452C088EBA4
:1041A00092E10E943014FE01F4CF88E40E94A2152F
:1041B0008823A9F00E94E5156A3A71053CF0653044
:1041C00081E078072CF064E071E002C06AEA70E0F8
:1041D000FE01EE0FFF1FE659FD4E7183608386E4FA
:1041E0000E94A2158823A9F00E94E515FE01EE0F9A
:1041F000FF1FEE59FD4E718360836F3F710519F00B
:1042000014F06FEF70E077FF02C060E070E0718340
:10421000608382E40E94A215882399F00E94E5152C
:104220006530710534F0683871052CF067E870E08E
:1042300002C065E070E0CC0FDD1FCA59DD4E798306
:104240006883DF91CF9108954F925F926F927F9232
:10425000AF92BF92CF92DF92EF92FF920F931F9394
:10426000CF938CEFA82E81E0B82E09E11AE0C0E0D0
:10427000F50181915F010E945715882309F46DC0F3
:10428000C33009F063C00E94AE156B017C0120E0D1
:1042900030E040EA51E40E94AAE587FF4EC0A70142
:1042A00096016091250A7091260A8091270A9091C3
:1042B000280A0E94AEE52B013C019B01AC016091F4
:1042C000F1097091F2098091F3099091F4090E942B
:1042D00080E76093F1097093F2098093F30990935A
:1042E000F409A30192016091350A7091360A809118
:1042F000370A9091380A0E9480E76093350A7093DC
:10430000360A8093370A9093380A6091490A70916F
:104310004A0A80914B0A90914C0A0E9447E6A301F9
:1043200092010E9480E70E941BE66093490A709305
:104330004A0A80934B0A90934C0AC092250AD09265
:10434000260AE092270AF092280A07C00E94AE15BA
:10435000F8016083718382839383CF5F0C5F1F4F6B
:10436000C43009F085CFCF911F910F91FF90EF904E
:10437000DF90CF90BF90AF907F906F905F904F9005
:104380000C948B8C0F931F93CF93DF93C6EAD4E0EA
:1043900009ED12E0F8012081318142815381688169
:1043A00079818A819B810E9433E5AB01BC0183E363
:1043B00098E00E94488DF80124813581468157811B
:1043C0006C817D818E819F810E9433E5AB01BC01B0
:1043D0008FE298E00E94488DF80120853185428562
:1043E0005385688579858A859B850E9433E5AB0175
:1043F000BC018BE298E00E94488D4C855D856E85FE
:104400007F8587E298E00E94488DDF91CF911F91D0
:104410000F910C949E9A4F925F926F927F928F921F
:104420009F92AF92BF92CF92DF92EF92FF920F9343
:104430001F93CF93DF938CEFC82E81E0D82E91EF9E
:10444000E92E92E0F92E00E010E0C0E0D0E0F601A5
:1044500081916F010E94A215882309F44DC00E942A
:10446000AE154B015C01C33059F0F801E752FD4F26
:1044700020813181428153810E9432E54B015C01F0
:10448000F801EA55FB4F2081318142815381C501FA
:10449000B4010E9432E52B013C012DEB37E346E8E5
:1044A00055EB0E944CE787FD0AC02DEB37E346E849
:1044B00055E3C301B2010E94AAE51816ECF4C3301B
:1044C00051F48092B2049092B304A092B404B092DA
:1044D000B504D1E011C0A3019201F701608171819F
:1044E000828193810E9433E5F70160837183828327
:1044F00093838C2F0E943918CF5FF4E0EF0EF11CEC
:104500000C5F1F4FC43009F0A2CFD1110E942F17AA
:10451000DF91CF911F910F91FF90EF90DF90CF909F
:10452000BF90AF909F908F907F906F905F904F90D3
:1045300029CFCF93DF93EDE4F5E06491EF0121966D
:10454000662331F088EB92E10E943014FE01F5CF32
:1045500060E08DE395E00E94461461E086E395E01B
:104560000E94461461E08BE295E00E94461461E0EF
:104570008BE195E00E94461460E082E195E00E94A4
:10458000461461E088E095E00E94461461E08EEFF9
:1045900094E00E94461461E086EF94E00E94461485
:1045A00061E088EE94E00E94461460E08AED94E0B9
:1045B0000E94461460E08BEC94E00E94461460E098
:1045C0008DEB94E00E94461460E087EA94E00E943C
:1045D000461460E086E994E00E94461460E081E8B9
:1045E00094E00E94461461E08EE694E0DF91CF9162
:1045F0000C944614FF920F931F93CF93DF93C091B7
:104600006909D0916A0983E0F12C40E08150D1F032
:104610009881292F2B7F2134C9F729812133B1F7C4
:10462000913421F0953421F441E002C0FF24F39449
:104630009E012E5F3F4FE9012F5F3F4F98819032DF
:10464000D1F3E4CF442371F0E0E5F4E164918F010C
:104650000F5F1F4F662331F088EB92E10E94301408
:10466000F801F4CFFF2071F0E3E6F4E064918F01EC
:104670000F5F1F4F662331F088EB92E10E943014E8
:10468000F801F4CFBE0188EB92E10E9421146AE0A8
:1046900088EB92E1DF91CF911F910F91FF900C94E5
:1046A0003014CF9388EC90E00E94F417811140C041
:1046B00084E40E9457158823C1F10E94AE15C1E021
:1046C00020E030E0A9010E94AAE5811101C0C0E00C
:1046D000C0936D09CC2349F10E94AE15E091BC0254
:1046E00024E0E29FF0011124EF51F64F60837183C3
:1046F0008283938320E030E0A9016091E109709109
:10470000E2098091E3099091E4090E94AAE58111F0
:104710000CC080E090E0A0EEBFE38093E1099093AD
:10472000E209A093E309B093E409CF910C94897B4B
:10473000CF910895CF9383E50E94A2158823A1F01D
:104740000E94AE156093010A7093020A8093030AD7
:104750009093040A6093F9097093FA098093FB0916
:104760009093FC09C0E001C0C1E080E50E94A21561
:10477000882359F00E94AE156093010A7093020AD3
:104780008093030A9093040AC0E082E50E94A21578
:10479000882359F00E94AE156093FD097093FE09BD
:1047A0008093FF099093000AC0E084E50E94A2155F
:1047B000882359F00E94AE156093F9097093FA09A5
:1047C0008093FB099093FC092CC0CC2351F14091BC
:1047D000010A5091020A6091030A7091040A81E370
:1047E00094E00E94488D4091FD095091FE0960912E
:1047F000FF097091000A8EE294E00E94488D40917A
:10480000F9095091FA096091FB097091FC098BE25A
:1048100094E00E94488D6AE088EB92E1CF910C947D
:104820003014CF91089581E50E945715882351F0E7
:104830000E94F5156093390A70933A0A80933B0AF7
:1048400090933C0A83E50E945715882351F00E94FB
:10485000AE156093050A7093060A8093070A909339
:10486000080A84E50E945715882351F00E94AE156E
:104870006093F5097093F6098093F7099093F8090E
:1048800088E50E945715882351F00E94AE15609369
:10489000E5097093E6098093E7099093E80989E5B3
:1048A0000E945715882351F00E94AE156093E909C4
:1048B0007093EA098093EB099093EC098AE50E94D2
:1048C0005715882351F00E94AE156093ED0970933F
:1048D000EE098093EF099093F00985E40E94571543
:1048E000882351F00E94AE156093F1097093F2098C
:1048F0008093F3099093F4090895EF92FF920F9338
:104900001F93CF938CEFE82E81E0F82E05EE12E096
:10491000C0E0F70181917F010E945715882351F073
:104920000E94AE15F80160837183828393838C2F7C
:104930000E943918CF5F0C5F1F4FC33051F7CF91E2
:104940001F910F91FF90EF901DCDCF93DF93E0E586
:10495000F4E16491EF012196662331F088EB92E156
:104960000E943014FE01F5CF83E50E94571588237D
:1049700021F00E94161680930A01EFEDF3E0649196
:10498000EF012196662331F088EB92E10E9430140A
:10499000FE01F5CF80910A01811103C0E7EDF3E03C
:1049A00002C0EBEDF3E06491EF012196662331F054
:1049B00088EB92E10E943014FE01F5CFEFECF3E0BA
:1049C0006491EF012196662331F088EB92E10E9419
:1049D0003014FE01F5CF2091D9023091DA024091D6
:1049E000DB025091DC026091CD027091CE02809189
:1049F000CF029091D0020E9433E5AB01BC018DEC57
:104A000093E00E94488D2091DD023091DE024091BA
:104A1000DF025091E0026091D1027091D202809148
:104A2000D3029091D4020E9433E5AB01BC018AEC21
:104A300093E00E94488D2091E1023091E202409182
:104A4000E3025091E4026091D5027091D602809108
:104A5000D7029091D8020E9433E5AB01BC0187ECEC
:104A600093E00E94488DEFEBF3E06491EF01219613
:104A7000662331F088EB92E10E943014FE01F5CFFD
:104A80002091D9023091DA024091DB025091DC0290
:104A900060910B0170910C0180910D0190910E01BC
:104AA0000E9433E5AB01BC018DEB93E00E94488D81
:104AB0002091DD023091DE024091DF025091E00250
:104AC00060910F017091100180911101909112017C
:104AD0000E9433E5AB01BC018AEB93E00E94488D54
:104AE0002091E1023091E2024091E3025091E40210
:104AF000609113017091140180911501909116013C
:104B00000E9433E5AB01BC0187EB93E00E94488D26
:104B10006AE088EB92E1DF91CF910C9430140F930F
:104B20001F93CF93DF938DED90E00E94F4178111D6
:104B300070C083E50E94A2158823B9F1C091BC0220
:104B4000D0E00E94E515CC0FDD1FC25DDE4F7983FA
:104B500068838091BC0290E0EC01CC0FDD1FCC0F8C
:104B6000DD1F8E01065D1E4F880F991FFC01E25D5F
:104B7000FE4F60817181072E000C880B990B0E94FB
:104B800049E62AE037ED43E25CE30E9480E7C35246
:104B9000D64F288139814A815B810E9480E7F801E4
:104BA000608371838283938334C0E0E5F4E1649190
:104BB000EF012196662331F088EB92E10E943014D8
:104BC000FE01F5CF65E488EB92E10E94301460911C
:104BD000BC02605D88EB92E10E943014E091BC025F
:104BE000F0E0EE0FFF1FE25DFE4F608171818FEA02
:104BF00093E00E940B8D65E288EB92E10E943014F5
:104C00006AE088EB92E1DF91CF911F910F910C94B4
:104C10003014DF91CF911F910F910895CF92DF92C1
:104C2000EF92FF92CF93DF938AE50E94A215811144
:104C300006C083E50E94A215882309F481C00E9462
:104C4000AE1520E030E040E050EC0E94AAE587FD80
:104C500015C00E94AE1520E030E040E050E40E9414
:104C60004CE718162CF00E94AE156B017C010BC0AE
:104C7000C12CD12CE12C90E4F92E05C0C12CD12CF3
:104C8000E12C80ECF82E2091210A3091220A4091EB
:104C9000230A5091240A8091940482FF10C0C0918D
:104CA000C911D091CA11C701B6010E9480E70E94C4
:104CB00016E6C60FD71FD093CA11C093C91180E55D
:104CC0000E945715882321F00E9416168823C1F1EF
:104CD000A70196016091B8027091B9028091BA0261
:104CE0009091BB020E9433E56093B8027093B902C1
:104CF0008093BA029093BB02E0E5F4E16491EF0186
:104D00002196662331F088EB92E10E943014FE0177
:104D1000F5CF4091B8025091B9026091BA027091FA
:104D2000BB028EE993E00E94488D6AE088EB92E135
:104D3000DF91CF91FF90EF90DF90CF900C943014E3
:104D4000DF91CF91FF90EF90DF90CF900895CF93B8
:104D5000DF9385E40E94A215811110C080E50E94B6
:104D60005715882391F00E94AE156093D31170936C
:104D7000D4118093D5119093D61107C00E940516C7
:104D8000882361F3E6E5F4E172C089E40E945715D7
:104D9000882381F00E94AE152CEA35EC47E25EE3F1
:104DA0000E9480E76093CF117093D0118093D1114E
:104DB0009093D21184E40E945715882381F00E94B9
:104DC000AE152CEA35EC47E25EE30E94AEE5609357
:104DD000CB117093CC118093CD119093CE11E0E55F
:104DE000F4E16491EF012196662331F088EB92E1C2
:104DF0000E943014FE01F5CF4091D3115091D4118F
:104E00006091D5117091D6118AE993E00E94488D86
:104E10002CEA35EC47E25EE36091CF117091D0113E
:104E20008091D1119091D2110E94AEE5AB01BC01ED
:104E300086E993E00E94488D2CEA35EC47E25EE378
:104E40006091CB117091CC118091CD119091CE11C8
:104E50000E9480E7AB01BC0182E993E00E94488D8B
:104E60006AE088EB92E1DF91CF910C943014649169
:104E7000EF012196662331F088EB92E10E94301415
:104E8000FE01F5CFE0E8F3E06491EF01219666239F
:104E900031F088EB92E10E943014FE01F5CFDF91F2
:104EA000CF910895CF93DF9383E50E945715C82FC4
:104EB000882371F00E94AE150E9416E67093490196
:104EC0006093480121E0672B09F020E02093BE1198
:104ED00080E50E945715882359F0209148013091B0
:104EE0004901232B11F00E9416168093BE1131C088
:104EF000C1112FC0E0E5F4E16491EF012196662332
:104F000031F088EB92E10E943014FE01F5CF8091E0
:104F1000BE11811103C06DED71E002C06AED71E058
:104F20008DE693E00E94E38C609148017091490105
:104F30008CE593E00E940B8DE8E5F3E06491EF01CE
:104F40002196662331F088EB92E10E943014FE0135
:104F5000F5CFDF91CF9108958F929F92AF92BF923C
:104F6000EF92FF920F931F93CF93DF9300D000D067
:104F7000CDB7DEB785E40E94A215882321F00E94F8
:104F8000E5158B0102C000E010E083E40E94A21549
:104F9000882321F00E94E515F62E02C025E0F22EAE
:104FA00085E50E94A215882321F00E941616E82E9E
:104FB00004C085E50E945715E82E17FD07C0812C17
:104FC000912C96E1A92E93E4B92E06C0812C912C48
:104FD0008CE8A82E82E4B82E83E50E94A2158823CF
:104FE00021F00E94AE154B015C01C501B4010E9485
:104FF00016E60115110511F41092BC02072E000CE3
:10500000880B990B0E9449E669837A838B839C8382
:105010002E2D4F2D602FCE0101960E9441A60F909C
:105020000F900F900F90DF91CF911F910F91FF90F4
:10503000EF90BF90AF909F908F9008952F923F92E6
:105040004F925F926F927F928F929F92AF92BF9298
:10505000CF92DF92EF92FF920F931F93CF93DF9344
:10506000CDB7DEB72F970FB6F894DEBF0FBECDBF1A
:1050700041E061E081E00E94241A8111DAC099EADE
:10508000892E9AE0992E86EA94E09E878D87FE010C
:1050900031965F010EE81AE01F01F3E0F00FFF8781
:1050A000F4016591759185919491ED85FE85C1908E
:1050B000D190E190F190FE87ED87A70196010E94C3
:1050C00032E52B013C0120E030E040EA51EC0E9447
:1050D0004CE787FD10C020E030E040EA51E4C30116
:1050E000B2010E94AAE5181634F0F1014082518203
:1050F000628273820DC0F80184911816B4F7F7FA32
:10510000F094F7F8F094F101C082D182E282F38248
:10511000F101C190D190E190F1901F0120E030E0C9
:1051200040EA51ECC701B6010E944CE787FF03C07B
:10513000E6E5F4E10BC020E030E040EA51E4C701CD
:10514000B6010E94AAE51816BCF5F2CF64918F0152
:105150000F5F1F4F662331F088EB92E10E943014FD
:10516000F801F4CFEDE0F4E064918F010F5F1F4F81
:10517000662331F088EB92E10E943014F801F4CFFD
:105180008FEF93E02F960FB6F894DEBF0FBECDBF22
:10519000DF91CF911F910F91FF90EF90DF90CF9013
:1051A000BF90AF909F908F907F906F905F904F9047
:1051B0003F902F900C940AB3F4E08F0E911C0F5F78
:1051C0001F4F8F8580136CCF85EEE82E82E0F82E7E
:1051D00010E0F50181919191A191B1915F01F701E9
:1051E00081939193A193B1937F01812F0E943918EC
:1051F0001F5F133071F7C6D860E08FEE93E02F96F3
:105200000FB6F894DEBF0FBECDBFDF91CF911F91D7
:105210000F91FF90EF90DF90CF90BF90AF909F9055
:105220008F907F906F905F904F903F902F900C9455
:1052300074B22F960FB6F894DEBF0FBECDBFDF91CC
:10524000CF911F910F91FF90EF90DF90CF90BF9083
:10525000AF909F908F907F906F905F904F903F9016
:105260002F900895CF93DF930E942B708823D1F065
:10527000E0E5F4E16491EF012196662331F088EBDB
:1052800092E10E943014FE01F5CFE4EFF2E0649168
:10529000EF012196662331F088EB92E10E943014F1
:1052A000FE01F5CFDF91CF910895CF92DF92EF927B
:1052B000FF92CF93DF938AE50E94A215882309F419
:1052C0003AC00E94AE156B017C0120E030E040EA5C
:1052D00050EC0E944CE787FD13C020E030E040EA2C
:1052E00051E4C701B6010E94AAE518164CF0C0921D
:1052F000B802D092B902E092BA02F092BB024CC05E
:10530000E6E5F4E16491EF01219661110EC0E8ED4C
:10531000F2E06491EF012196662309F43DC088EB29
:1053200092E10E943014FE01F4CF88EB92E10E94DA
:105330003014FE01E7CFE0E5F4E16491EF0121963E
:10534000662331F088EB92E10E943014FE01F5CF24
:10535000E9ECF2E06491EF012196662331F088EBED
:1053600092E10E943014FE01F5CF4091B8025091B5
:10537000B9026091BA027091BB0286EC92E00E9481
:10538000488D6AE088EB92E1DF91CF91FF90EF903A
:10539000DF90CF900C943014DF91CF91FF90EF907D
:1053A000DF90CF900895CF92DF92EF92FF92CF934C
:1053B000DF938BE40E94A2158823B1F18BE40E9455
:1053C000A2158823B1F00E94AE156B017C0120E08C
:1053D00030E0A9010E944CE787FD19C020E030E0D1
:1053E00040E251E4C701B6010E94AAE518167CF01C
:1053F00003C0C12CD12C76010E948A7DC0928A09FB
:10540000D0928B09E0928C09F0928D0931C0E7EAC5
:10541000F2E06491EF012196662351F188EB92E16D
:105420000E943014FE01F5CFE0E5F4E16491EF0154
:105430002196662331F088EB92E10E943014FE0140
:10544000F5CF40918A0950918B0960918C09709138
:105450008D098CE992E00E94488D6AE088EB92E128
:10546000DF91CF91FF90EF90DF90CF900C943014AC
:10547000DF91CF91FF90EF90DF90CF900895CF9381
:10548000DF93E6E5F4E16491EF012196662331F0C4
:1054900088EB92E10E943014FE01F5CFE9E4F3E0DD
:1054A0006491EF012196662331F088EB92E10E942E
:1054B0003014FE01F5CFDF91CF9108951F93CF9364
:1054C000DF93182FE0E5F4E16491EF012196662364
:1054D00031F088EB92E10E943014FE01F5CF64E5D3
:1054E00088EB92E10E943014412F50E060E070E0C0
:1054F00020E088EB92E10E942FDC60E288EB92E1F1
:105500000E943014E3E0F8E06491EF0121966623F5
:1055100031F088EB92E10E943014FE01F5CFDF916B
:10552000CF911F910895CF93DF93E0918A04F0E02B
:10553000E855FD4F80818823A1F0E0E9F2E0649115
:10554000EF012196662331F088EB92E10E9430143E
:10555000FE01F5CF6AE088EB92E1DF91CF910C94E8
:105560003014DF91CF910895CF92DF92EF92FF92A6
:10557000CF93DF9320910A01222309F485C0EC0127
:10558000C090CD02D090CE02E090CF02F090D00239
:10559000A7019601688179818A819B810E94AAE591
:1055A00087FF04C0C882D982EA82FB82C090D10200
:1055B000D090D202E090D302F090D402A7019601DD
:1055C0006C817D818E819F810E94AAE587FF04C046
:1055D000CC82DD82EE82FF82C0900B01D0900C0164
:1055E000E0900D01F0900E01A7019601688179818C
:1055F0008A819B810E944CE7181624F4C882D982C4
:10560000EA82FB82C0900F01D0901001E09011015E
:10561000F0901201A70196016C817D818E819F819E
:105620000E944CE7181624F4CC82DD82EE82FF82C1
:10563000C090D502D090D602E090D702F090D80268
:10564000A7019601688579858A859B850E94AAE5D0
:1056500087FF04C0C886D986EA86FB86C0901301FE
:10566000D0901401E0901501F0901601A701960169
:10567000688579858A859B850E944CE7181624F4F5
:10568000C886D986EA86FB86DF91CF91FF90EF909E
:10569000DF90CF900895CF93DF9380E00E94767DD6
:1056A000CCEAD2E0688379838A839B8381E00E947D
:1056B000767D6C837D838E839F8382E00E94767DDE
:1056C000688779878A879B87DF91CF910895CF93E9
:1056D000DF93E1DF6BE588EB92E10E943014CCEAC6
:1056E000D2E0488159816A817B8122E088EB92E196
:1056F0000E9498DC4C815D816E817F8189E398E016
:105700000E94488D488559856A857B8586E398E0A7
:105710000E94488D6DE588EB92E10E9430146AE0AA
:1057200088EB92E1DF91CF910C943014CF93C82F86
:10573000B2DF8CEA92E00E94747CCE3F51F48CE0A0
:10574000ECEAF2E0A6EAB4E001900D928A95E1F766
:1057500013C024E0C29FC0011124FC01EA55FB4F95
:10576000DC01A455BD4F8D919D910D90BC91A02D54
:1057700080839183A283B383CF910895CF93909137
:10578000DC09891789F0C82F0E948A7DC093DC0943
:10579000C11103C08EEFCADF04C086EA94E00E9404
:1057A000747CCF910C942516CF91089580E0E6DFAC
:1057B00088EB99E00C9443D88F929F92AF92BF925E
:1057C000EF92FF920F931F93CF93DF9300D000D0FF
:1057D000CDB7DEB7182F909194049770973079F475
:1057E0008FE40E94A215882329F00E9416168823B0
:1057F00031F097C08FE40E945715811192C00E942A
:105800008A7D80E0BBDF0E94EC1981E00E948470F9
:1058100011111AC088E50E945715F82E89E50E94DB
:105820005715082F8AE50E945715E82EF11007C07A
:10583000011111C0811110C0F02E11E00DC0002324
:1058400051F0F02E182F08C001E0FF24F394EE244D
:10585000E39411E001C010E080E1E6EAF4E0A6E99B
:10586000B4E001900D928A95E1F782E50E94A215BD
:10587000882361F00E94AE154B015C0120E030E00E
:10588000A9010E94AAE5882369F105C0812C912C09
:1058900080E4A82EBA2C111104C0F11002C000231C
:1058A00091F180929E0490929F04A092A004B092E5
:1058B000A1042091AE043091AF044091B004509106
:1058C000B104C501B4010E944CE718165CF41982BA
:1058D0001A821B821C82BE016F5F7F4F8EE994E0AB
:1058E0000E94AD19111105C0F11003C0011106C0CD
:1058F0000AC080E00E947C1B1123C1F381E00E945A
:105900007C1B111101C0E1100E94D81D0E942516B8
:105910000E9487700E940B1A83E080934F010E94BF
:10592000C2210F900F900F900F90DF91CF911F9198
:105930000F91FF90EF90BF90AF909F908F90089540
:10594000CF93DF93C82F0E948A7DD091DC0980E03D
:1059500015DFCC2321F08C2FDF91CF91AFCD1092AA
:10596000CA028D2F0BDFE0E5F4E16491EF0121968F
:10597000662331F088EB92E10E943014FE01F5CFEE
:105980006091CA0270E085E198E00E940B8D6AE0A8
:1059900088EB92E1DF91CF910C9430140F931F9319
:1059A000CF93DF93CDB7DEB72C970FB6F894DEBF59
:1059B0000FBECDBF83E50E945715882341F00E949A
:1059C0001616182F811105C080E0D8DE02C0109194
:1059D000DC098091A6049091A704A091A804B0913D
:1059E000A90489839A83AB83BC838091AA04909194
:1059F000AB04A091AC04B091AD048D839E83AF83C2
:105A0000B8878091AE049091AF04A091B004B0919A
:105A1000B10489879A87AB87BC8786E50E945715B2
:105A2000882331F06CE273E088EB99E00E9430DA71
:105A3000812FA4DE111103C0E0E5F4E120C08091C4
:105A4000DC098111F9CFE6E5F4E164918F010F5F84
:105A50001F4F662331F088EB92E10E943014F80169
:105A6000F4CFEDE0F3E064918F010F5F1F4F6623E9
:105A700019F388EB92E10E943014F801F4CF64919D
:105A80008F010F5F1F4F662331F088EB92E10E9478
:105A90003014F801F4CF8091DC09811103C065EE68
:105AA00071E002C061EE71E08FEF92E00E94E38C42
:105AB0006AE088EB92E10E9430144CE050E066EA24
:105AC00074E0CE0101960E944DEC892B61F02C967A
:105AD0000FB6F894DEBF0FBECDBFDF91CF911F91FF
