:100000000C943A120C9464120C9464120C946412C2
:100010000C9464120C9464120C9464120C94641288
:100020000C9464120C9464120C9406D70C9483D72D
:100030000C9464120C9464120C9464120C94641268
:100040000C9464120C94BA890C9464120C9464128B
:100050000C9464120C9464120C94549D0C9465D608
:100060000C9464120C9464120C9464120C94641238
:100070000C9464120C9464120C9464120C94641228
:100080000C9464120C9464120C9464120C94641218
:100090000C9464120C946412F4D320D442D442D44D
:1000A00042D442D442D442D442D442D442D442D4A0
:1000B00042D442D438D430D428D442D442D442D4C6
:1000C00042D442D442D442D41AD400D408D412D454
:1000D0004E414E494E495459494E46CDCCCC3D0A2D
:1000E000D7233C17B7D13877CC2B329595E6241F10
:1000F000B14F0A000020410000C84200401C4620C9
:10010000BCBE4CCA1B0E5AAEC59D74446F6E6520B2
:10011000736176696E672066696C652E0A004D32E0
:1001200039002020506C616E6E657242756666659E
:100130007242797465733A20002046726565204DDD
:10014000656D6F72793A2000436F6D70696C6564FC
:100150003A204E6F7620313520323031380A002077
:100160007C20417574686F723A2044722E50686921
:100170006C33440A00323031382D30382D303100A4
:10018000204C61737420557064617465643A20007A
:10019000312E312E390A004D61726C696E00205388
:1001A0006F6674776172652052657365740A00200A
:1001B0005761746368646F672052657365740A00E1
:1001C0002042726F776E206F75742052657365746C
:1001D0000A002045787465726E616C205265736503
:1001E000740A00506F77657255700A0073746172FB
:1001F000740A005072696E7465722068616C74656F
:10020000642E206B696C6C28292063616C6C6564BA
:10021000210A004B494C4C45442E20004B494C4C84
:100220002063617573656420627920746F6F206D3F
:1002300075636820696E6163746976652074696DA1
:1002400065202D2063757272656E7420636F6D6D0D
:10025000616E643A200020636F6C6420657874726C
:100260007573696F6E2070726576656E7465640A69
:10027000006F6B00526573656E643A2000416476CE
:10028000616E6365204B3D003F4B2076616C756568
:10029000206F7574206F662072616E67652028304C
:1002A0002D3130292E0A003A200050726F626520ED
:1002B0005A204F6666736574003F5A206F7574202C
:1002C0006F662072616E676520282D3520746F205F
:1002D0003230290A00454550524F4D204F4B0A00FD
:1002E000426564204C6576656C696E6720004661E6
:1002F000696C656420746F20656E61626C65204274
:100300006564204C6576656C696E670A00426564B9
:10031000204C6576656C20436F7272656374696FFB
:100320006E204D61747269783A004E6F206361737C
:1003300065206C696768740A0043290A0061626C71
:10034000656420286D696E2074656D702000436FB0
:100350006C642065787472756465732061726520C1
:1003600000496E76616C69642065787472756465A5
:10037000720A0020643A0020693A0020703A005066
:10038000726F6265205A204F66667365743A20006A
:1003900020466C6F773A2000205A00205900580000
:1003A00020204D61783A2000205A00205900580042
:1003B00020204D696E3A20004F6666004F6E200087
:1003C000536F667420656E6473746F70733A2000A7
:1003D0004F666673657473206170706C6965640044
:1003E0004572723A20546F6F206661722100546F1B
:1003F0006F206661722066726F6D2072656665722D
:10040000656E636520706F696E740A002054002069
:100410005200416363656C65726174696F6E3A2066
:1004200050004D31343520533C696E6465783E2070
:100430006F7574206F662072616E67652028302D9D
:1004400031290A002F2F20004649524D574152456D
:100450005F4E414D453A4D61726C696E20312E31CF
:100460002E3920284769746875622920534F5552E8
:1004700043455F434F44455F55524C3A687474702E
:10048000733A2F2F6769746875622E636F6D2F4DF5
:1004900061726C696E4669726D776172652F4D612C
:1004A000726C696E2050524F544F434F4C5F56450B
:1004B0005253494F4E3A312E30204D414348494E18
:1004C000455F545950453A506C6179205632204569
:1004D000585452554445525F434F554E543A31207B
:1004E000555549443A34306365363164312D3265AF
:1004F00064302D343533302D383330342D35356577
:100500003365656161656266660A00506C617920D9
:100510005632204F66662E0020573A004520436F22
:100520006F6C696E672E2E2E0045204865617469D8
:100530006E672E2E2E006F6B004D3131332053002D
:100540004B494C4C45442E20004543484F00494EF2
:10055000464F004552524F52530044525952554E45
:1005600000434F4D4D554E49434154494F4E006F46
:1005700066660049054E0553055A05610544454226
:1005800055473A0050726F74656374656420506912
:100590006E0A0000011C1D132FFFFFFFFF1E1F121C
:1005A000FF14FFFFFF20211124FFFFFFFFFFFFFFCC
:1005B0000E10FFFFFF22230DFFFFFF0E260F2C273B
:1005C0002569730025696D202569730025696820F8
:1005D00025696D20256973002569642025696820D7
:1005E00025696D20256973002569792025696420B6
:1005F0002569682025696D20256973005072696E30
:10060000742074696D653A200043757272656E746A
:100610002066696C653A2000456E642066696C65E9
:10062000206C6973740A00426567696E2066696CA4
:1006300065206C6973740A004E6F206D6F76652EAD
:1006400000436C69636B20746F20726573756D6510
:100650002E2E2E00205A3A200020593A20004265C2
:100660006420583A20000A0A426564204C65766589
:100670006C20436F7272656374696F6E204D617494
:100680007269783A00202844525952554E29004741
:100690003239204175746F20426564204C6576655F
:1006A0006C696E67003F2856296572626F7365201A
:1006B0006C6576656C20697320696D706C6175730B
:1006C00069626C652028302D34292E0A00536C6530
:1006D00065702E2E2E00496E76616C6964206578F7
:1006E0007472756465720A004163746976652045A9
:1006F000787472756465723A200020453A00205A79
:100700003A0020593A00583A002C20002C2000488A
:100710006F6D652058592066697273740A00486FBE
:100720006D65205859206669727374005761726E46
:10073000696E673A20486F6D696E672042756D700B
:100740002044697669736F72203C20310A000202EE
:1007500004627573793A2070617573656420666F01
:100760007220696E7075740A00627573793A207030
:10077000617573656420666F7220757365720A0017
:10078000627573793A2070726F63657373696E670F
:100790000A0050726F62696E67206661696C6564F9
:1007A0000A0050726F62696E67206661696C6564E9
:1007B00000205A3A200020593A200042656420580F
:1007C0003A2000486F6D65202573257325732066D8
:1007D00069727374002066697273740A005A005952
:1007E000005800486F6D65200020496E76616C6985
:1007F00064206578747275646572200053442072B9
:10080000656164206572726F720A00446F6E6520C4
:100810007072696E74696E672066696C650A004B58
:10082000494C4C45442E200053544F505045442EC3
:1008300020005072696E7465722073746F707065F9
:10084000642064756520746F206572726F72732EF8
:100850002046697820746865206572726F72206125
:100860006E6420757365204D39393920746F20729C
:100870006573746172742E202854656D70657261A1
:10088000747572652069732072657365742E2053C8
:100890006574206974206166746572207265737472
:1008A000617274696E67290A004E6F204368656340
:1008B0006B73756D2077697468206C696E65206E46
:1008C000756D6265722C204C617374204C696E6585
:1008D0003A20004E6F20436865636B73756D207717
:1008E000697468206C696E65206E756D6265722C26
:1008F000204C617374204C696E653A200063686512
:10090000636B73756D206D69736D617463682C2002
:100910004C617374204C696E653A20004C696E65B9
:10092000204E756D626572206973206E6F74204C65
:10093000617374204C696E65204E756D6265722B13
:10094000312C204C617374204C696E653A20004D47
:1009500031313000656E7175657565696E6720228D
:1009600000FF01FF0000A0400000A0400000004088
:100970000000C8420000C84200000243000000001E
:100980000000C842000000000000C8420000C84249
:100990000000024300000000000000000000000012
:1009A0000000484200004842000080400000000073
:1009B0007C3C3E5E2B3D3F2F5B5D3B2C2A225C0046
:1009C0004D33310043616E6E6F7420656E746572D5
:1009D000207375626469723A20006F70656E2066DC
:1009E00061696C65642C2046696C653A200061750C
:1009F000746F25692E67006572726F722077726955
:100A000074696E6720746F2066696C650A004E6FAA
:100A100074205344207072696E74696E670A0053C3
:100A200044207072696E74696E6720627974652003
:100A30000044656C6574696F6E206661696C6564FD
:100A40002C2046696C653A200046696C6520646517
:100A50006C657465643A0057726974696E672074D6
:100A60006F2066696C653A20006F70656E20666164
:100A7000696C65642C2046696C653A20006F70656E
:100A80006E206661696C65642C2046696C653A204D
:100A90000046696C652073656C65637465640A0063
:100AA0002053697A653A200046696C65206F70654D
:100AB0006E65643A20002066696C653A20006672B3
:100AC00065736800646F696E67004E6F772000453C
:100AD0004E4420535542524F5554494E450A002228
:100AE00020706F73002220706172656E743A22006C
:100AF000535542524F5554494E452043414C4C208A
:100B00007461726765743A22004B494C4C45442E1F
:100B10002000747279696E6720746F2063616C6C59
:100B2000207375622D67636F64652066696C6573F9
:100B3000207769746820746F6F206D616E79206C06
:100B40006576656C732E204D4158206C6576656C1A
:100B50002069733A004D3234004D32332025730042
:100B600053442063617264206F6B0A006F70656E7E
:100B7000526F6F74206661696C65640A00766F6CF1
:100B8000756D652E696E6974206661696C65640AAD
:100B900000534420696E6974206661696C0A0028FC
:100BA0006E6F2066696C65290043616E6E6F7420FC
:100BB0006F70656E2073756264697220003A0A0076
:100BC00020286D6D290020204D393030204B004CFD
:100BD000696E65617220416476616E63653A0A00F0
:100BE00020204D383531205A005A2D50726F6265E1
:100BF000204F666673657400204400204900202061
:100C00004D3330312050005049442073657474696D
:100C10006E67733A0A0020460020420020480020F8
:100C2000204D3134352053004D6174657269616C1B
:100C30002068656174757020706172616D6574659E
:100C400072733A0A0020204D34323020530041752F
:100C5000746F20426564204C6576656C696E673AF6
:100C60000A00205A0020590020204D3230362058EA
:100C700000486F6D65206F66667365743A0A0020E0
:100C80004500205A002059002058002054002053CD
:100C90000020204D32303520510020453C6D6178D8
:100CA0005F655F6A65726B3E0020583C6D61785FDE
:100CB000785F6A65726B3E20593C6D61785F795F41
:100CC0006A65726B3E205A3C6D61785F7A5F6A6537
:100CD000726B3E00416476616E6365643A20513CFC
:100CE0006D696E5F7365676D656E745F74696D6560
:100CF0005F75733E20533C6D696E5F666565647217
:100D00006174653E20543C6D696E5F7472617665F6
:100D10006C5F66656564726174653E0020540020F6
:100D2000520020204D323034205000416363656C06
:100D30002028756E6974732F7332293A20503C70E5
:100D400072696E745F616363656C3E20523C7265CC
:100D500074726163745F616363656C3E20543C74BC
:100D6000726176656C5F616363656C3E0A00204565
:100D700000205A0020590020204D323031205800E8
:100D80004D617820416363656C2028756E697473CA
:100D90002F7332293A0A00204500205A00205900BA
:100DA00020204D3230332058004D61782066656533
:100DB0006472617465732028756E6974732F73296A
:100DC0003A0A00204500205A0020590020204D39C1
:100DD0003220580053746570732070657220756EF0
:100DE00069743A0A0020204D3230302044300A0025
:100DF00020204D3230302044002044697361626C01
:100E000065640A0046696C616D656E742073657473
:100E100074696E67733A0020204D313439204320C5
:100E20003B20556E69747320696E2043656C73694D
:100E300075730A002020473231202020203B0048D3
:100E4000617264636F64656420446566204C6F6101
:100E50006465640A00DC050000DC050000DC0500B8
:100E6000001027000000000743000007430000A017
:100E7000400000C8410000A0420000A0420080FCE9
:100E8000440000BD42290A002062797465733B204A
:100E900063726320002073746F72656420736574DD
:100EA00074696E6773207265747269657665642013
:100EB0002800202863616C63756C61746564292166
:100EC0000A0020213D2000454550524F4D204352FD
:100ED00043206D69736D61746368202D20287374DD
:100EE0006F7265642920002053697A653A200049B1
:100EF0006E6465783A2000204D61726C696E3D56D3
:100F00003535290A0028454550524F4D3D0045458D
:100F100050524F4D206D69736D61746368200029D4
:100F20000A002062797465733B206372632000536A
:100F3000746F7265642028004553522E0A00457272
:100F4000726F722077726974696E6720746F2045C2
:100F50004550524F4D210A006F70656E0054524942
:100F6000474745524544003A20007A5F6D696E005C
:100F7000795F6D617800785F6D696E005265706FA2
:100F80007274696E6720656E6473746F7020737419
:100F9000617475730A00456E6473746F70732025F5
:100FA0006320256320256320256300205A3A002012
:100FB000593A0020583A00656E6473746F7073205C
:100FC0006869743A2000486F6D696E6720666169D0
:100FD0006C656400556E6B6E6F776E20636F6D6D20
:100FE000616E643A20220020636F6C64206578741F
:100FF000727573696F6E2070726576656E74656464
:101000000A00FFFDFCFAF8F6F4F2F0EEECEAE9E78C
:10101000E5E3E1E0DEDCDAD9D7D5D4D2D0CFCDCB51
:10102000CAC8C7C5C3C2C0BFBDBCBAB9B7B6B4B3DE
:10103000B2B0AFADACAAA9A8A6A5A4A2A1A09E9D3E
:101040009C9A99989795949392908F8E8D8B8A897C
:1010500088878684838281807F7E7D7B7A7978779A
:10106000767574737271706F6E6D6C6B6A69686798
:10107000666564636261605F5E5D5C5B5A59585887
:101080005756555453525150504F4E4D4C4B4A4A5F
:101090004948474646454443424241403F3E3E3D23
:1010A0003C3B3B3A393838373635353433323231D8
:1010B00030302F2E2E2D2C2B2B2A2929282727267E
:1010C000252524232322212120201F1E1E1D1C1C18
:1010D0001B1B1A19191818171616151514131312A5
:1010E000121111100F0F0E0E0D0D0C0C0B0A0A0928
:1010F00009080807070606050504040303020201A0
:1011000000000000000100000001000080005555B3
:1011100055000000400033333300AAAA2A00499248
:10112000240000002000C7711C0099991900D145C6
:101130001700555515003BB1130024491200111139
:101140001100000010000F0F0F00E3380E0043796C
:101150000D00CCCC0C00C3300C00E8A20B006421C5
:101160000B00AAAA0A00703D0A009DD80900427B24
:10117000090092240900DCD3080088880800104286
:10118000080000000800F0C10700878707007550BD
:101190000700711C07003EEB0600A1BC0600699029
:1011A000060066660600703E06006118060017F429
:1011B000050074D105005BB00500B29005006272B5
:1011C00005005555050078390500B81E05000505D0
:1011D00005004EEC040087D40400A1BD040090A7D4
:1011E000040049920400C17D0400EE690400C75662
:1011F0000400444404005C3204000821040041104F
:101200000400000004003FF00300F8E0030026D2D1
:101210000300C3C30300CCB503003AA803000A9B34
:101220000300388E0300C08103009F750300D0695E
:101230000300505E03001D53030034480300913D3A
:1012400003003333030016290300381F03009715EA
:101250000300300C0300030303000BFA020049F102
:101260000200BAE802005CE002002DD802002DD096
:10127000020059C80200B0C0020031B90200DAB160
:101280000200AAAA0200A0A30200BC9C0200FA95D8
:1012900002005C8F0200DF88020082820200457C2F
:1012A00002002776020027700200436A02007C6475
:1012B0000200D05E02003F590200C853020065637D
:1012C000686F3A004572726F723A00205A3A0020F5
:1012D000593A0020436F756E7420583A00232C0051
:1012E00000B8220000561800003A0F0000B80800AD
:1012F00000B1040000710200003E01000024F4D49B
:101300003050C38E20C2A24017828B7011127A9186
:101310000D816CD90AA861E108C75866076151437D
:10132000061E4B5D05C145A7041A411104093D98ED
:1013300003713931034036DB0265339102D43054F6
:1013400002802E1D02632CEE01752AC501B028A073
:1013500001102781018F2564012B244B01E02234E9
:1013600001AC211F018D200D01801FFC00841EEDAA
:1013700000971DDF00B81CD200E61BC600201BBC76
:1013800000641AB200B219A8000A19A0006A1899DC
:1013900000D117910040178B00B516840031167EDE
:1013A00000B31579003A157300C7146F0058146A1A
:1013B00000EE1366008813630025135E00C7125BFE
:1013C000006C12570015125400C111510070114FDA
:1013D0000021114B00D61049008D104700461044E3
:1013E0000002104200C00F4000800F3E00420F3C40
:1013F00000060F3B00CB0E3800930E37005C0E3515
:1014000000270E3400F30D3200C10D3100900D3075
:1014100000600D2E00320D2D00050D2C00D90C2B77
:1014200000AE0C2900850C29005C0C2700350C2728
:10143000000E0C2600E80B2400C40B2400A00B2394
:10144000007D0B23005A0B2100390B2100180B20C3
:1014500000F80A1F00D90A1E00BB0A1E009D0A1DC3
:1014600000800A1D00630A1C00470A1B002C0A1B8F
:1014700000110A1A00F7091A00DD091900C4091938
:1014800000AB091900920917007B091800630917BE
:10149000004C09160036091600200916000A091525
:1014A00000F5081500E0081400CC081400B8081472
:1014B00000A4081400900813007D0812006B0813A4
:1014C00000580812004608120034081100230811C1
:1014D000001208110001081100F0071000E00710C9
:1014E00000D0071000C0071000B0070F00A10710C0
:1014F0000091070E0083070F0074070F0065070EA9
:101500000057070E0049070E003B070D002E070E7F
:101510000020070D0013070D0006070D00F9060C4B
:1015200000ED060D00E0060C00D4060C00C8060C09
:1015300000BC060C00B0060C00A4060B0099060CBB
:10154000008D060B0082060B0077060B006C060B65
:101550000061060A0057060B004C060A0042060A04
:101560000038060A002E060A0024060A001A060A97
:10157000001006090007060A00FD050900F4050928
:1015800000EB050900E2050900D9050900D00509AD
:1015900000C7050900BE050900B5050800AD05082E
:1015A00000A50509009C050800940508008C0508A5
:1015B00000840508007C050800740508006C050718
:1015C00000650508005D050700560508004E050783
:1015D00000470507004005080038050700310507EA
:1015E000002A050700230507001C0506001605074D
:1015F000000F0507000805060002050700FB0406AA
:1016000000F5040700EE040600E8040600E2040703
:1016100000DB040600D5040600CF040600C904065A
:1016200000C3040600BD040600B7040600B10405AB
:1016300000AC040600A6040600A00405009B0406F6
:101640000095040500900406008A04050085040541
:1016500000800406007A0405007504050070040586
:10166000006B04050066040500610405005C0405C8
:101670000057040500520405004D04050048040508
:1016800000430405003E0404003A04050035040547
:1016900000300404002C0405002704040023040582
:1016A000001E0404001A04040016040500110404BA
:1016B000000D0404000904050004040400000404EF
:1016C00000FC030400F8030400F4030400F0030426
:1016D00000EC030400E8030400E4030400E0030456
:1016E00000DC030400D8030400D4030400D0030486
:1016F00000CC030400C8030300C503030024F40462
:10170000D9201BC40C5C0E9804C4095F02650771E4
:1017100001F405F900FB04B30048048700C1036924
:10172000005803550003034500BE023A008402310D
:101730000053022A002902250004022000E4011CB3
:1017400000C8011900AF01170098011400840113AB
:1017500000710110006101100051010E0043010DE4
:101760000036010B002B010B0020010B00150109B5
:10177000000C01090003010800FB000800F3000849
:1017800000EB000700E4000600DE000600D80006BB
:1017900000D2000600CC000500C7000500C200050D
:1017A00000BD000400B9000400B5000400B100044D
:1017B00000AD000400A9000400A5000300A200037E
:1017C000009F0004009B00030098000300950002A6
:1017D0000093000300900003008D0002008B0003C3
:1017E00000880002008600020084000300810002DD
:1017F000007F0002007D0002007B000200790002F1
:1018000000770001007600020074000200720001FF
:1018100000710002006F0002006D0001006C000208
:10182000006A000100690002006700010066000113
:101830000065000100640002006200010061000117
:1018400000600001005F0002005D0001005C00011B
:10185000005B0001005A000100590001005800011E
:10186000005700010056000100550001005400011E
:10187000005300000053000100520001005100011C
:1018800000500001004F0001004E0000004E00011A
:10189000004D0001004C0001004B0000004B000116
:1018A000004A000100490001004800000048000112
:1018B000004700010046000000460001004500000E
:1018C0000045000100440001004300000043000106
:1018D0000042000000420001004100000041000100
:1018E00000400001003F0000003F0001003E0000FA
:1018F000003E0001003D0000003D0001003C0000F2
:10190000003C0000003C0001003B0000003B0001E7
:10191000003A0000003A00010039000000390001DF
:1019200000380000003800000038000100370000D7
:1019300000370001003600000036000000360001CC
:1019400000350000003500000035000100340000C3
:1019500000340000003400010033000000330000B8
:1019600000330001003200000032000000320001AC
:1019700000310000003100000031000100300000A3
:101980000030000000300001002F0000002F000098
:10199000002F0000002F0001002E0000002E00008C
:1019A000002E0001002D0000002D0000002D000081
:1019B000002D0001002C0000002C0000002C000075
:1019C000002C0001002B0000002B0000002B000069
:1019D000002B0001002A0000002A0000002A00005D
:1019E000002A000100290000002900000029000051
:1019F0000029000000290001002800000028000044
:101A00000028000000280000002800010027000036
:101A10000027000000270000002700000027000129
:101A2000002600000026000000260000002600001E
:101A30000026000100250000002500000025000010
:101A40000025000000250000002500010024000002
:101A500000240000002400000024000000240001F5
:101A600000230000002300000023000000230000EA
:101A700000230000002300000023000100220000DA
:101A800000220000002200000022000000220000CE
:101A900000220001002100000021000000210000C0
:101AA00000210000002100000021000000210001B1
:101AB00000200000002000000020000000200000A6
:101AC0000020000000200000002000000020000195
:101AD000001F0000001F0000001F0000001F00008A
:101AE000001F0000001F0000001F0001001E00007A
:101AF000001E0000001E0000001E00000020403AF2
:101B000000202F004D383420582059205A204500FD
:101B1000546865726D616C2052756E6177617900F1
:101B2000453120544845524D414C2052554E415765
:101B30004159004B494C4C45442E2000202D204952
:101B40006E76616C69642065787472756465722064
:101B50006E756D62657220210A0048656174696E58
:101B600067206661696C6564004531204865617471
:101B7000696E67206661696C6564004D494E544525
:101B80004D50207472696767657265640045312045
:101B90004572723A204D494E54454D50004D4158C2
:101BA00054454D50207472696767657265640045DD
:101BB00031204572723A204D415854454D500062D3
:101BC00065640A002C2073797374656D2073746FDB
:101BD0007070656421204865617465725F49443A9C
:101BE00020002CFFFFFFFFFF000101010101236422
:101BF0006566696E652044454641554C545F4B64AB
:101C0000200023646566696E652044454641554C55
:101C1000545F4B69200023646566696E6520444506
:101C20004641554C545F4B7020005049442041754B
:101C3000746F74756E652066696E6973686564217A
:101C40002050757420746865206C617374204B702B
:101C50002C204B6920616E64204B6420636F6E738F
:101C600074616E74732066726F6D2062656C6F773D
:101C700020696E746F20436F6E6669677572617458
:101C8000696F6E2E680A00504944204175746F7464
:101C9000756E65206661696C6564212074696D6587
:101CA0006F75740A00546865726D616C2052756EB0
:101CB0006177617900453120544845524D414C20AF
:101CC00052554E415741590048656174696E67200D
:101CD0006661696C65640045312048656174696EB0
:101CE00067206661696C65640050494420417574E1
:101CF0006F74756E65206661696C6564212054653A
:101D00006D706572617475726520746F6F2068699B
:101D100067680A00204B643A2000204B693A200093
:101D2000204B703A20000A20436C61737369632072
:101D3000504944200A002054753A2000204B753A3F
:101D40002000206D61783A2000206D696E3A2000F5
:101D500020643A200020626961733A2000504944AF
:101D6000204175746F74756E652073746172740AA6
:101D700000504944204175746F74756E652066612A
:101D8000696C6564212042616420657874727564B1
:101D90006572206E756D6265720A0070012C01908B
:101DA000012701B0012201C0011D01F0011801103D
:101DB00002130130020E016002090190020401C009
:101DC00002FF000003FA004003F5008003F000D09A
:101DD00003EB002004E6007004E100E004DC0040B6
:101DE00005D700C005D2004006CD00D006C800804F
:101DF00007C3003008BE00F008B900C009B400B045
:101E00000AAF00B00BAA00D00CA500000EA0005035
:101E10000F9B00C01096005012910000148C00C05F
:101E2000158700B0178200B0197D00D01B78000024
:101E30001E730040206E0090226900F02464004070
:101E4000275F0090295A00E02B5500102E500020EB
:101E5000304B0010324600E033410090353C00101A
:101E600037370070383200A0392D00B03A2800A072
:101E70003B2300603C1E00103D1900903D140010F3
:101E80003E0F00703E0A00C03E0500003F000040CB
:101E90003FFBFF803FF6FFC03FF1FF052E2E000401
:101EA00052656672657368004D61696E0046696CC3
:101EB0002E204469612E0046696C2E204469612EF3
:101EC000004520696E206D6D33004F6666004F6ED1
:101ED0002000416476616E6365204B004164766149
:101EE0006E6365204B00436F6E74726F6C005072AE
:101EF0006F6265205A204F666673657400436F6E8B
:101F000074726F6C005049442D44005049442D4474
:101F1000005049442D49005049442D49005049443E
:101F20002D50005049442D5000200220466163741A
:101F30000020022046616374002002204D61780079
:101F40002002204D6178002002204D696E002002A1
:101F5000204D696E004175746F74656D70004F6639
:101F600066004F6E200046616E20737065656400E8
:101F700046616E207370656564004E6F7A7A6C6599
:101F8000004E6F7A7A6C6500436F6E74726F6C00EE
:101F9000526573746F7265206661696C7361666502
:101FA000004C6F61642073657474696E67730053CD
:101FB000746F72652073657474696E677300466927
:101FC0006C616D656E74004D6F74696F6E00546561
:101FD0006D7065726174757265004D61696E004562
:101FE00078747275646572004D6F7665205A004D85
:101FF0006F76652059004D6F7665205800507265E8
:1020000070617265004D6F766520302E316D6D0008
:102010004D6F766520316D6D004D6F7665203130E6
:102020006D6D004D6F766520617869730045787439
:102030007275646572004D6F7665205A004D6F763B
:10204000652059004D6F766520580045787472758B
:10205000646572004D6F7665205A004D6F7665207D
:1020600059004D6F7665205800507265686561743F
:1020700020414253005072656865617420504C41A4
:1020800000436F6F6C646F776E0044697361626CBC
:1020900065207374657070657273004D383400424A
:1020A0006564204C6576656C696E67004175746F78
:1020B00020686F6D6500473238004D6F766520618E
:1020C000786973004D61696E0053746F7265207397
:1020D000657474696E6773004C6F61642073657416
:1020E00074696E67730050726F6265205A204F6684
:1020F0006673657400426564204C6576656C696E34
:1021000067004F6666004F6E20004C6576656C2058
:10211000626564004732380A473239004732390075
:102120004175746F20686F6D6500473238005072DA
:1021300065706172650050726F6265205A204F664B
:10214000667365740050726F6265205A204F666630
:1021500073657400466C6F7700466C6F770046615C
:102160006E2073706565640046616E2073706565EE
:1021700064004E6F7A7A6C65004E6F7A7A6C6500F7
:102180005370656564005370656564004D61696EE8
:1021900000496E69742E2053442063617264004DBF
:1021A0003231004E6F2053442063617264004368F3
:1021B000616E67652053442063617264004D323163
:1021C000005072696E742066726F6D205344005324
:1021D000746F70207072696E7400526573756D65EE
:1021E000207072696E740050617573652070726939
:1021F0006E7400436F6E74726F6C00507265706124
:1022000072650054756E6500496E666F2073637267
:1022100065656E005072696E742061626F727465DC
:102220006400506C61792056322052656164792EC9
:10223000005072696E74696E672E2E2E005072699E
:102240006E74207061757365640025753A253032AF
:102250007500253032753A25303275002020202057
:1022600000202020202020002D2D2D005344005040
:102270006C65617365207265736574005052494ED8
:102280005445522048414C54454400001C1F111134
:102290001F00000006191803130C00040E1F041C75
:1022A000000000000E1315110E00001C1018170579
:1022B000060500040A0A0A0A11110E0C12120C007B
:1022C000000000001F1511151F0000000000000194
:1022D0000204040000001C1C0C04040402010000A1
:1022E00000000004081000000000002D2D2D2D2DF1
:1022F0002D007C4D61726C696E7C002D2D2D2D2D75
:102300002D00687474703A2F2F6D61726C696E665F
:10231000772E6F726700687474703A2F2F6D617238
:102320006C696E66772E6F72670020312E312E3900
:10233000000129022904290829102920294029807F
:1023400029012C022C01260226042608261026200C
:102350002640268026402C802C01230223042308BB
:10236000231023202340238023012002200420085F
:10237000201020202040208020102C202C012F0213
:102380002F042F082F102F202F402F802F7EFE7E0E
:10239000FD7EFB7EF77EEF7EDF7EBF7E7F0001004D
:1023A000004E2412000200000B244300030000072B
:1023B000240401030904ED231802030904D523169C
:1023C00003030904C7230C0C03310032003300342B
:1023D0000035000000160355005300420020005352
:1023E0000065007200690061006C00000018035471
:1023F00000650065006E0073007900640075006977
:10240000006E006F0000000403090409024300028B
:102410000100C0320904000001020201000524008D
:102420001001052401000104240206052406000110
:102430000705820308004009040100020A000000A9
:102440000705030240000007058402400000120156
:10245000000202000020C016830472020102030180
:102460000001C1020180360181365F34E77B5BAD3C
:10247000C9DA633411241FBECFEFD0E2DEBFCDBF77
:1024800012E0A0E0B1E0E6E9FCEC01E00BBF02C025
:1024900007900D92AE33B107D9F722E1AEE3B2E077
:1024A00001C01D92A13AB207E1F712E1C9E3D2E1FE
:1024B00004C02197FE010E946ADBC533D107C9F72A
:1024C0000E9486D30C943EE60C9400004F925F92DB
:1024D0006F927F928F929F92AF92BF92CF92DF9234
:1024E000EF92FF92CF934B015C0169017A0120E0EA
:1024F00030E040EA51E40E9492DB2B013C012FE6E0
:1025000032E143E85AEB0E94ACDD87FD48C023E886
:1025100030E048EC52E4C301B2010E940ADC181614
:102520000CF43DC02FE632E143E85AEBC701B60197
:102530000E94ACDD87FD33C023E830E048EC52E474
:10254000C701B6010E940ADC18164CF124EF3DEFDA
:102550004FE951E4C501B4010E94ACDD87FD1FC005
:1025600023E830E044EB52E4C501B4010E940ADCE8
:102570001816ACF027EE3BEF4FE151E4C701B6016E
:102580000E94ACDD87FD0BC0C1E023E830E044EBE6
:1025900052E4C701B6010E940ADC18160CF4C0E030
:1025A0008C2FCF91FF90EF90DF90CF90BF90AF90A6
:1025B0009F908F907F906F905F904F900895FB0158
:1025C00001900020E9F73197AF01461B570BDC0162
:1025D000ED91FC910280F381E02D0994CF93DF937C
:1025E0001F92CDB7DEB76983DC01ED91FC910280CB
:1025F000F381E02D41E050E0BE016F5F7F4F099510
:102600000F90DF91CF9108954F925F926F927F92DA
:10261000AF92BF92CF92DF92EF92FF92CF93DF9370
:10262000EB01FC0160817181828193812CE3C22ED8
:10263000D12CE12CF12CA70196010E942CDBB62EA7
:10264000A72ECA01B901A70196010E942CDB6B01DC
:102650007C01CA01B90128E130E040E050E00E946D
:102660002CDB2B013C01C9016DE671E00E9405DB0A
:1026700061157105D9F0AF92BF92DF92CF925F9250
:102680004F929F938F937F936F9388EE95E09F93E4
:102690008F93DF93CF930E9424E38DB79EB70E965E
:1026A0000FB6F8949EBF0FBE8DBF61C00097C9F0F2
:1026B000AF92BF92DF92CF925F924F929F938F9390
:1026C00088ED95E09F938F93DF93CF930E9424E34F
:1026D000EDB7FEB73C960FB6F894FEBF0FBEEDBF48
:1026E00046C04114510461047104B9F0AF92BF9225
:1026F000DF92CF925F924F928CEC95E09F938F93F5
:10270000DF93CF930E9424E38DB79EB70A960FB64E
:10271000F8949EBF0FBE8DBF2AC0C114D104E1043E
:10272000F104A9F0AF92BF92DF92CF9284EC95E0D2
:102730009F938F93DF93CF930E9424E3EDB7FEB76F
:1027400038960FB6F894FEBF0FBEEDBF10C0AF9223
:10275000BF9280EC95E09F938F93DF93CF930E947D
:1027600024E30F900F900F900F900F900F90DF9138
:10277000CF91FF90EF90DF90CF90BF90AF907F9080
:102780006F905F904F90089581548A3108F040C057
:10279000A82FB0E040915E0950915F0960916009F7
:1027A0007091610904C076956795579547958A950C
:1027B000D2F740FF2DC0E0916909F0916A09AC5B46
:1027C000B64F8C918823E1F0E80FF11D808190EDE8
:1027D000980F9A3080F08E3229F4818180538A30AC
:1027E00078F409C08D3211F08B3251F4818190ED73
:1027F000980F9A3018F49E2F8F2F04C08E3251F00C
:1028000090E080E0909365098093660981E00895E7
:1028100080E00895828180538A3090F7ECCFB4DF56
:10282000882341F081E02091650930916609232BCE
:1028300009F480E008950F931F93CF938091650969
:1028400090916609009711F1FC018F01C1912C2F25
:102850002F7DA9F0C53411F0C536B9F7F801108203
:1028600060E070E080916509909166090E9490DEB9
:10287000F801C083562F472F382F292F0BC060E057
:1028800070E0CF911F910F910C9490DE50E040E0EA
:1028900030E020E0652F742F832F922FCF911F916E
:1028A0000F9108958091650990916609009731F024
:1028B0004AE050E060E070E00C94F6DF60E070E029
:1028C000CB0108958091650990916609009731F0D8
:1028D0004AE050E060E070E00C941EE160E070E0DF
:1028E000CB010895DFDF97FD0AC0DCDF6F3F710584
:1028F0008105910509F02CF4D5DF862F089580E03D
:1029000008958FEF08958091650990916609892B4C
:1029100031F0E8DF91E0811103C090E001C091E067
:10292000892F08950F931F93CF93DF93CDB7DEB711
:102930002C970FB6F894DEBF0FBECDBFE4EAF4E0EB
:1029400080859185A285B385448155816681778193
:10295000008111812281338109871A872B873C8767
:102960004D835E836F83788789839A83AB83BC832F
:10297000AE014F5F5F4FBE016B5F7F4FCE01099687
:102980000E94937720EB34E0AE014F5F5F4FBE01B2
:102990006B5F7F4FCE0109960E9499792C960FB6F6
:1029A000F894DEBF0FBECDBFDF91CF911F910F9185
:1029B00008952F923F924F925F926F927F929F92D3
:1029C000AF92BF92CF92DF92EF92FF920F931F933D
:1029D000CF93DF93CDB7DEB764970FB6F894DEBF21
:1029E0000FBECDBF2A013B01902EA12E6901082FF9
:1029F00010E0F801EF59F64FE491BB24B3941E1692
:102A00000CF4B12CFF24F39420E030E0A901C301C1
:102A1000B2010E94ACDD18160CF0F12C000F111F52
:102A2000000F111FC8018C559B4F1C01FC01108227
:102A300011821282138276DFF1014082518262821A
:102A40007382E090C80220E030E0A901692D7A2D60
:102A5000C6010E940ADC811108C0F801E056F64F59
:102A600085919591A591B49103C0892D9A2DD60198
:102A7000898B9A8BAB8BBC8B8091AC049091AD040D
:102A8000A091AE04B091AF044091A8045091A90464
:102A90006091AA047091AB040091A4041091A50464
:102AA0002091A6043091A7040D871E872F87388BAD
:102AB00049875A876B877C878D839E83AF83B887CE
:102AC00019821A821B821C82AE014B5F5F4FBE01CE
:102AD000675F7F4FCE010D960E949377CE010196DE
:102AE0006C018E010F5E1F4F20EB34E0AE014B5F97
:102AF0005F4FBE01675F7F4F0C960E943C870E942C
:102B00002F79BF100E942F6C64960FB6F894DEBF29
:102B10000FBECDBFDF91CF911F910F91FF90EF902E
:102B2000DF90CF90BF90AF909F907F906F905F901D
:102B30004F903F902F90089560EB74E083E00C94E9
:102B4000BE7A109289041092870410928804089526
:102B500090918704E92FF0E0EA55FD4F80839F5F55
:102B6000943018F49093870402C0109287048091E7
:102B700089048F5F809389040895CF93FC0180813D
:102B80008B33A1F080918904843080F4C62FBF017B
:102B90008091870420E6829FC0011124895F9C4FA9
:102BA0000E94F5E28C2FD4DF81E001C080E0CF915C
:102BB0000895EF92FF921F93CF93DF937C0160E023
:102BC000DCDF182F8823C9F0EEEBF2E16491EF010E
:102BD0002196662329F085E992E100DDFE01F6CF1A
:102BE000B70184E599E00E941E8862E285E992E1DE
:102BF000F5DC6AE085E992E1F1DC812FDF91CF918C
:102C00001F91FF90EF900895DF92EF92FF920F9344
:102C10001F93CF93DF93CDB7DEB76E970FB6F894BF
:102C2000DEBF0FBECDBF6091050370910603611535
:102C3000710541F14DE150E0CE0101967C010E9409
:102C400084E21E8EF7018F010E191F09D190DD203D
:102C500019F09AE0D912F7CFF701E00FF11F1082B7
:102C6000C701A7DF882371F0DD20A9F00F5F1F4F98
:102C70008091050390910603080F191F1093060316
:102C80000093050381E02091050330910603232B77
:102C900029F480E003C000E010E0F0CF6E960FB69C
:102CA000F894DEBF0FBECDBFDF91CF911F910F9182
:102CB000FF90EF90DF9008959093060380930503B3
:102CC000A3CFEF92FF920F931F93CF93DF937C01DB
:102CD00084E5A5DDD82F882369F104DEC82F1816F6
:102CE0002CF5EEEBF2E164918F010F5F1F4F66232D
:102CF00029F085E992E172DCF801F5CF6DE485E910
:102D000092E16CDCA70160E070E020E085E992E1EF
:102D10000E9476D26C2FCC0F770B89EE97E00E9441
:102D200046886AE085E992E159DC08C08093BA02DE
:102D3000D0E004C08091C8028093BA028D2FDF9149
:102D4000CF911F910F91FF90EF9008950F931F93D4
:102D5000CF93DF9394E0899FE00111248E01095203
:102D60001D4FFE01ED51FD4FDE01A151BD4F2D91D3
:102D70003D914D915C9160817181828193810E942E
:102D800093DBF8016083718382839383FE01EC56A9
:102D9000F64F85919591A591B491FE01E553FD4FB4
:102DA00080839183A283B383FE01E857F64F859118
:102DB0009591A591B491C55FDE4F88839983AA83CD
:102DC000BB83DF91CF911F910F910895CF92DF9236
:102DD000EF920F931F93CF93DF93CDB7DEB760973A
:102DE0000FB6F894DEBF0FBECDBFE090C802E4EA94
:102DF000F4E080859185A285B38544815581668103
:102E0000778100811181228133810D871E872F8771
:102E1000388B49875A876B877C878D839E83AF83E6
:102E2000B88719821A821B821C82AE014B5F5F4FEA
:102E3000BE01675F7F4FCE010D960E949377CE0152
:102E400001966C0109E111E020EB34E0AE014B5F2B
:102E50005F4FBE01675F7F4F0C960E943C87609674
:102E60000FB6F894DEBF0FBECDBFDF91CF911F919B
:102E70000F91EF90DF90CF9008954F925F926F92F5
:102E80007F928F929F92AF92BF92CF92DF92EF92FA
:102E9000FF920F931F93CF93DF93CDB7DEB72C979D
:102EA0000FB6F894DEBF0FBECDBF6D837E838F83D8
:102EB000988729873A874B875C87470158013601F5
:102EC0008091190190911A01A0911B01B0911C01F0
:102ED00089839A83AB83BC83D601CD90DD90ED903E
:102EE000FC9020E030E0A901C701B6010E940ADC95
:102EF000811106C0E8EAF9E0C590D590E590F4901C
:102F0000A50194016091AC047091AD048091AE0470
:102F10009091AF040E940ADC87FF11C0C092190192
:102F2000D0921A01E0921B01F0921C018092AC0435
:102F30009092AD04A092AE04B092AF0447DFF301CB
:102F4000408051806280738020E030E0A901C3019D
:102F5000B2010E940ADC811108C04090010150902A
:102F60000201609003017090040140921901509297
:102F70001A0160921B0170921C018D819E81AF81AC
:102F8000B8858093A4049093A504A093A604B0935D
:102F9000A70489859A85AB85BC858093A804909306
:102FA000A904A093AA04B093AB0410DFA501940177
:102FB0006091AC047091AD048091AE049091AF0427
:102FC0000E94ACDD18168CF4C0921901D0921A013F
:102FD000E0921B01F0921C018092AC049092AD042F
:102FE000A092AE04B092AF04F1DE0E942F798981E5
:102FF0009A81AB81BC818093190190931A01A093AF
:103000001B01B0931C012C960FB6F894DEBF0FBEC7
:10301000CDBFDF91CF911F910F91FF90EF90DF9087
:10302000CF90BF90AF909F908F907F906F905F9068
:103030004F900895CF92DF92EF92FF920F931F93DC
:103040006B01FC01E080F18002811381E4EAF4E08D
:10305000248135814681578160817181828193818C
:103060000CDF1F910F91FF90EF90DF90CF900895AC
:10307000CF92DF92EF92FF920F931F936A01E0903D
:10308000AC04F090AD040091AE041091AF04FB01CC
:103090002081318142815381FC0160817181828173
:1030A0009381EBDE1F910F91FF90EF90DF90CF9017
:1030B00008958091190190911A01A0911B01B0917E
:1030C0001C018093010390930203A0930303B09328
:1030D000040380911701909118019093000380934D
:1030E000FF0284E690E09093180180931701089501
:1030F0008091010390910203A0910303B091040316
:103100008093190190931A01A0931B01B0931C01A5
:103110008091FF0290910003909318018093170112
:103120000895EF92FF921F93CF93DF93882329F0A6
:10313000D0919304D095D17001C0D0E0662341F0C6
:103140001091930411FB882780F911E0182701C022
:1031500010E0442341F0C0919304C2FB882780F91A
:10316000C1E0C82701C0C0E0D11105C0111103C0E2
:10317000CC2309F486C0EEEBF2E164917F018FEF7E
:10318000E81AF80A662329F085E992E127DAF701BF
:10319000F4CFE3EEF7E064917F019FEFE91AF90ABB
:1031A000662329F085E992E119DAF701F4CFDD23EE
:1031B00071F0E1EEF7E064917F018FEFE81AF80A11
:1031C000662329F085E992E109DAF701F4CF1123AA
:1031D00071F0EFEDF7E064917F019FEFE91AF90AD2
:1031E000662329F085E992E1F9D9F701F4CFC111FD
:1031F00003C0E5EDF7E00EC0EDEDF7E064917F016F
:103200008FEFE81AF80A6623A1F385E992E1E6D97F
:10321000F701F4CF64917F019FEFE91AF90A662361
:1032200029F085E992E1DAD9F701F4CFC11103C0A1
:1032300042EE51E002C042ED51E0111103C022EE16
:1032400031E002C024ED31E0D11103C082EE91E003
:1032500002C086ED91E05F934F933F932F939F932E
:103260008F9383EC97E09F938F931F920E94EFAA16
:103270008DB79EB709960FB6F8949EBF0FBE8DBF4F
:10328000C1E08C2FDF91CF911F91FF90EF900895B7
:10329000BF92CF92DF92EF92FF920F931F93CF9343
:1032A000DF93CDB7DEB728970FB6F894DEBF0FBE19
:1032B000CDBF90913E09981709F47AC0B82E8823A3
:1032C00009F453C080E090E0A0EAB0E48D839E83CF
:1032D000AF83B887C090B602D090B702E090B80232
:1032E000F090B90220E030E0A901C701B6010E94C8
:1032F0000ADC87FF0CC0A701960160E070E080EA5D
:1033000090E40E9492DB6D837E838F83988720E018
:1033100030E042E053E46D817E818F8198850E9488
:10332000ACDD181644F480E090E0A2E0B3E48D83B5
:103330009E83AF83B8872091AC043091AD04409157
:10334000AE045091AF046D817E818F8198850E947B
:10335000ACDD181654F419821A821B821C82BE013D
:103360006F5F7F4FCE01059665DE6091A40470917A
:10337000A5048091A6049091A7042091A8043091FF
:10338000A9044091AA045091AB0419821A821B82AD
:103390001C82E090AC04F090AD040091AE0410915A
:1033A000AF04FE0131966F0168DD8B2D0E943A6CEF
:1033B00080E028960FB6F894DEBF0FBECDBFDF9138
:1033C000CF911F910F91FF90EF90DF90CF90BF9022
:1033D00008954F925F926F927F928F929F92AF92D9
:1033E000BF92CF92DF92EF92FF920F931F93CF93F2
:1033F000C82FE82EF12CF701EF59F64FB490823028
:1034000021F481E045DF811107C16701CC0CDD1C8F
:10341000CC0CDD1CF601E059F64F459055906590B7
:1034200074906B2DBB0C770B880B990B0E94A9DC59
:103430004B015C0120E030E040EC5FE3C301B201EE
:103440000E94E0DDA50194010E94E0DDAB01BC011A
:1034500000E010E098018C2FACDAC23041F0F601A8
:10346000EC59F64F259135914591549104C020E0D7
:1034700030E040E450E4C501B4010E94E0DD4B01BE
:103480005C0120E030E0A9010E940ADC882309F4F5
:103490005CC0C23021F000E010E0980104C000E000
:1034A00010E020E830E4B501A40170588C2F81DAD7
:1034B000C23009F439C0F701E25BF84F8491811101
:1034C0001DC0EEEBF2E164917F018FEFE81AF80A7C
:1034D000662329F085E992E181D8F701F4CFECE287
:1034E000F7E064917F018FEFE81AF80A662329F06C
:1034F00085E992E173D8F701F4CF8AE0F601E0564E
:10350000F64F4590559065907490682F70E080E07C
:1035100090E00E94A9DC9B01AC01C301B2010E94B2
:103520000EDC2B013C0105C0412C512C612C90E498
:10353000792EA5019401C501B4010E9493DBAB0172
:10354000BC01930182018C2F34DA81E090E00C2ED3
:1035500001C0880F0A94EAF790919204982B9093F7
:10356000920490919304892B80939304F601E15186
:10357000FD4F10821182128213828C2FE7DBF6013D
:10358000E458F64F85919591A591B491F601EC55CB
:10359000FB4F80839183A283B383C230D1F4209107
:1035A000B6023091B7024091B8025091B9026091D1
:1035B000AC047091AD048091AE049091AF040E9470
:1035C00092DB6093AC047093AD048093AE0490934F
:1035D000AF04A8D9F601EC56FB4FD601AC55BB4F52
:1035E0008D919D910D90BC91A02D80839183A2839C
:1035F000B383C23089F480E0CF911F910F91FF9087
:10360000EF90DF90CF90BF90AF909F908F907F9082
:103610006F905F904F903CCECF911F910F91FF9094
:10362000EF90DF90CF90BF90AF909F908F907F9062
:103630006F905F904F90089581E00895AF92BF9290
:10364000CF92DF92EF92FF920F931F93CF93DF936E
:103650008AEFA82E81E0B82E94E9E92E94E0F92EA5
:1036600004EA14E027EDC22E22E0D22EC0E0D0E022
:10367000F50181915F0188D8882319F1DCD8FE011A
:10368000E550FD4F2081211104C02091C702222363
:1036900041F0F80120813181428153810E9493DB06
:1036A0000AC0C330D10539F0F60120813181428151
:1036B00053810E9492DBF70160837183828393833D
:1036C0000AC0F80180819181A281B381F7018083D2
:1036D0009183A283B3832196F4E0EF0EF11C0C5F7B
:1036E0001F4F84E0C80ED11CC430D10509F0C0CFF3
:1036F00086E495D88823B9F09ED820E030E0A9016F
:103700000E94ACDD18167CF496D820E030E040E74B
:1037100052E40E940EDC6093190170931A018093A9
:103720001B0190931C01DF91CF911F910F91FF908E
:10373000EF90DF90CF90BF90AF900895CF92DF923F
:10374000EF92FF920F931F93CF93DF930FB6F894EE
:10375000C0908A12D0908B12E0908C12F0908D1253
:103760000FBE8091C502811174C080910001882331
:1037700009F46FC08091A502882309F46AC04091C2
:10378000A1025091A2026091A3027091A40297013C
:103790008601041B150B260B370B37FD6DC08330DC
:1037A00031F134F481300CF454C0EEEBF2E106C098
:1037B000843009F04EC0EEEBF2E133C06491EF01CA
:1037C0002196662331F085E992E10E94EE12FE0116
:1037D000F5CFE0E8F7E06491EF012196662309F464
:1037E00038C085E992E10E94EE12FE01F4CFEEEBC3
:1037F000F2E16491EF012196662331F085E992E1CF
:103800000E94EE12FE01F5CFE9E6F7E06491EF01C8
:1038100021966623F1F085E992E10E94EE12FE0105
:10382000F5CF6491EF012196662331F085E992E1AD
:103830000E94EE12FE01F5CFE1E5F7E06491EF01A1
:103840002196662331F085E992E10E94EE12FE0195
:10385000F5CF2091000130E0A8EEB3E00E9473DBC9
:10386000C60ED71EE81EF91EC092A102D092A20277
:10387000E092A302F092A402DF91CF911F910F91E9
:10388000FF90EF90DF90CF9008950F931F93CF9309
:10389000DF9300D000D0CDB7DEB780919204837063
:1038A000833011F160E08EE197E00E9475AAEEEBA3
:1038B000F2E164918F010F5F1F4F662331F085E9BC
:1038C00092E10E94EE12F801F4CFEFE0F7E064918C
:1038D0008F010F5F1F4F662309F43DC085E992E118
:1038E0000E94EE12F801F3CF1DD880E090E0A8E42A
:1038F000B2E48093980490939904A0939A04B093AF
:103900009B048091AC049091AD04A091AE04B09161
:10391000AF0480939C0490939D04A0939E04B09365
:103920009F0480E090E0A0EFB1E480939404909332
:103930009504A0939604B093970419821A821B826F
:103940001C82AE014F5F5F4F68E974E084E994E048
:103950008FDB82E03EDD0F900F900F900F90DF9194
:10396000CF911F910F910895CF93DF93E7E2F6E097
:103970006491EF012196662331F085E992E10E947E
:10398000EE12FE01F5CF85EB94E00E944D52E8E186
:10399000F6E06491EF012196662331F085E992E12A
:1039A0000E94EE12FE01F5CFDF91CF910895809134
:1039B000B8048823A9F083E50E940F14882381F0BE
:1039C0000E945214AB01BC0140932307509324077B
:1039D000609325077093260782E796E00C94D845FC
:1039E0000895CF93DF9383E40E94C413882399F052
:1039F000E9E0F6E06491EF012196662331F085E974
:103A000092E10E94EE12FE01F5CF85EB94E0DF918A
:103A1000CF910C94935285EB94E0DF91CF910C946D
:103A2000C1530F931F93CF93DF93CDB7DEB7699741
:103A30000FB6F894DEBF0FBECDBF0E94D2966E8B3C
:103A40007F8B888F998FBE016F5F7F4FCE01469627
:103A50000E94041360E0CE0101960E944EAAEEEB94
:103A6000F2E164918F010F5F1F4F662331F085E90A
:103A700092E10E94EE12F801F4CFBE016F5F7F4F1A
:103A80008CEF95E00E941E886AE085E992E10E9431
:103A9000EE1269960FB6F894DEBF0FBECDBFDF9170
:103AA000CF911F910F910895CF938091B704811109
:103AB0000E942F798091B8048823A9F180E50E94A3
:103AC0000F14882321F00E948314C82F04C080E5BE
:103AD0000E94C413C82F60916709709168092C2F48
:103AE00041E085EB94E00E94FA5583E50E940F14B3
:103AF000882381F00E945214AB01BC01409323073C
:103B000050932407609325077093260782E796E079
:103B10000E94D84585EB94E00E942C53C11103C04C
:103B2000CF910C941197CF910895CF93DF93E4EC4C
:103B3000F2E16491EF012196662331F085E992E18B
:103B40000E94EE12FE01F5CFE4E8F5E06491EF018A
:103B50002196662331F085E992E10E94EE12FE0182
:103B6000F5CFDF91CF91089588E690E0AAD8811132
:103B700024C08091B40483FD20C083E50E940F140B
:103B80008823C9F00E941B140E9476DC7093D01128
:103B90006093CF1180E00E94489A0E941B1420E09D
:103BA00030E04AEA52E40E940ADC181624F00E942F
:103BB0007B960E94AFAA0C94B77B0895CF93DF93B6
:103BC00089E690E07ED8811116C0E6E3F5E06491C5
:103BD000EF012196662331F085E992E10E94EE1211
:103BE000FE01F5CF0E94869E6AE085E992E1DF91B1
:103BF000CF910C94EE12DF91CF910895CF92DF9286
:103C0000EF92FF9283E50E940F14882321F10E9416
:103C100072148D3308F08CE3809381110FB6F89401
:103C2000C0908A12D0908B12E0908C12F0908D127E
:103C30000FBE282F30E0A8EEB3E00E9473DBC60E63
:103C4000D71EE81EF91EC0927D11D0927E11E0921F
:103C50007F11F0928011FF90EF90DF90CF90089548
:103C600080E50E940F14811106C083E50E940F14A5
:103C7000882359F005C00E94721481110CC0F5CF41
:103C80000E9452146F3F710510F06FEF70E0709357
:103C9000CA026093C9020895DF92EF92FF920F93D8
:103CA0001F93CF93DF9383E50E94C413882359F0B9
:103CB00083E50E940F14882319F00E94721401C03A
:103CC00080E08093B404EEEBF2E16491EF01219681
:103CD000662331F085E992E10E94EE12FE01F5CFF4
:103CE000EDE7F5E06491EF012196662331F085E977
:103CF00092E10E94EE12FE01F5CF8091B404882378
:103D0000A9F183E7E82E85E0F82E00E010E020E03E
:103D10008091B40490E0002E02C0959587950A9496
:103D2000E2F780FF1AC0DD24D394D20E222329F0BB
:103D30006CE285E992E10E94EE12F701859194917F
:103D4000FC016491EC012196662331F085E992E152
:103D50000E94EE12CE01F4CF2D2D0F5F1F4FF2E027
:103D6000EF0EF11C0530110599F60DC0EFE6F5E0F8
:103D70006491EF012196662331F085E992E10E947A
:103D8000EE12FE01F5CF6AE085E992E1DF91CF9175
:103D90001F910F91FF90EF90DF900C94EE12CF9354
:103DA000DF9383E50E940F14882351F00E94721460
:103DB0008D3308F08CE380930001DF91CF9108955B
:103DC000EEEBF2E16491EF012196662331F085E993
:103DD00092E10E94EE12FE01F5CF4091000150E009
:103DE00060E070E089E395E00E94A4886AE085E9DC
:103DF00092E1DF91CF910C94EE12CF93DF9383E5A4
:103E00000E940F14882321F00E945214EB0102C07B
:103E1000C0E0D0E0DD27C230D105D4F0E4ECF2E11F
:103E20006491EF012196662331F085E992E10E94C9
:103E3000EE12FE01F5CFE2E2F4E06491EF0121968B
:103E40006623C9F185E992E10E94EE12FE01F5CFE9
:103E500088E40E940F148823A9F00E9452146A3A41
:103E600071053CF06E3181E078072CF06DE171E076
:103E700002C06AEA70E0FE01EE0FFF1FE95BFD4E33
:103E80007183608386E40E940F148823A1F00E944E
:103E90005214CC0FDD1FC15CDD4E798368836F3F08
:103EA000710519F014F06FEF70E077FF02C060E069
:103EB00070E079836883DF91CF9108954F925F928C
:103EC0006F927F92AF92BF92CF92DF92EF92FF926A
:103ED0000F931F93CF938AEFA82E81E0B82E07E1AE
:103EE0001AE0C0E0F50181915F010E94C4138823AC
:103EF00009F46DC0C33009F063C00E941B146B014C
:103F00007C0120E030E040EA51E40E940ADC87FFB7
:103F10004EC0A70196016091230A7091240A8091F6
:103F2000250A9091260A0E940EDC2B013C019B0180
:103F3000AC016091EF097091F0098091F1099091C5
:103F4000F2090E94E0DD6093EF097093F00980931D
:103F5000F1099093F209A30192016091330A7091E3
:103F6000340A8091350A9091360A0E94E0DD609310
:103F7000330A7093340A8093350A9093360A60911D
:103F8000470A7091480A8091490A90914A0A0E9412
:103F9000A7DCA30192010E94E0DD0E947BDC60931C
:103FA000470A7093480A8093490A90934A0AC0923C
:103FB000230AD092240AE092250AF092260A07C02A
:103FC0000E941B14F8016083718382839383CF5F07
:103FD0000C5F1F4FC43009F085CFCF911F910F9117
:103FE000FF90EF90DF90CF90BF90AF907F906F9059
:103FF0005F904F900C94937B0F931F93CF93DF931D
:10400000C4EAD4E007ED12E0F80120813181428159
:104010005381688179818A819B810E9493DBAB0106
:10402000BC0186E097E00E948388F80124813581F5
:10403000468157816C817D818E819F810E9493DBB7
:10404000AB01BC0182E097E00E948388F8012085E3
:10405000318542855385688579858A859B850E944F
:1040600093DBAB01BC018EEF96E00E9483884C8508
:104070005D856E857F858AEF96E00E948388DF915B
:10408000CF911F910F910C94D9954F925F926F929F
:104090007F928F929F92AF92BF92CF92DF92EF92D8
:1040A000FF920F931F93CF93DF938AEFC82E81E087
:1040B000D82E9FEEE92E92E0F92E00E010E0C0E04D
:1040C000D0E0F60181916F010E940F14882309F45A
:1040D0004DC00E941B144B015C01C33059F0F80124
:1040E000E952FD4F20813181428153810E9492DB50
:1040F0004B015C01F801EC55FB4F2081318142817D
:104100005381C501B4010E9492DB2B013C012DEBD0
:1041100037E346E855EB0E94ACDD87FD0AC02DEB86
:1041200037E346E855E3C301B2010E940ADC1816E2
:10413000ECF4C33051F48092B0049092B104A09298
:10414000B204B092B304D1E011C0A3019201F7010F
:1041500060817181828193810E9493DBF70160838A
:104160007183828393838C2F0E94A616CF5FF4E025
:10417000EF0EF11C0C5F1F4FC43009F0A2CFD1111C
:104180000E949C15DF91CF911F910F91FF90EF90AE
:10419000DF90CF90BF90AF909F908F907F906F9067
:1041A0005F904F9029CFFF920F931F93CF93DF9390
:1041B000C0916709D091680983E0F12C40E08150FB
:1041C000D1F09881292F2B7F2134C9F72981213300
:1041D000B1F7913421F0953421F441E002C0FF247D
:1041E000F3949E012E5F3F4FE9012F5F3F4F98816F
:1041F0009032D1F3E4CF442371F0EEEBF2E164911D
:104200008F010F5F1F4F662331F085E992E10E9415
:10421000EE12F801F4CFFF2071F0E4E4F4E06491D1
:104220008F010F5F1F4F662331F085E992E10E94F5
:10423000EE12F801F4CFBE0185E992E10E94DF128F
:104240006AE085E992E1DF91CF911F910F91FF9094
:104250000C94EE12CF9388EC90E00E9461168111CD
:1042600040C084E40E94C4138823C1F10E941B143F
:10427000C1E020E030E0A9010E940ADC811101C008
:10428000C0E0C0936B09CC2349F10E941B14E0915C
:10429000BA0224E0E29FF0011124E152F64F60835C
:1042A00071838283938320E030E0A9016091DF096C
:1042B0007091E0098091E1099091E2090E940ADC85
:1042C00081110CC080E090E0A0EEBFE38093DF0995
:1042D0009093E009A093E109B093E209CF910C9487
:1042E0002E77CF910895CF9383E50E940F148823F2
:1042F000A1F00E941B146093FF097093000A809341
:10430000010A9093020A6093F7097093F809809369
:10431000F9099093FA09C0E001C0C1E080E50E946C
:104320000F14882359F00E941B146093FF097093A7
:10433000000A8093010A9093020AC0E082E50E947D
:104340000F14882359F00E941B146093FB0970938B
:10435000FC098093FD099093FE09C0E084E50E946A
:104360000F14882359F00E941B146093F70970936F
:10437000F8098093F9099093FA092CC0CC2351F1E4
:104380004091FF095091000A6091010A7091020A60
:1043900082E194E00E9483884091FB095091FC09DE
:1043A0006091FD097091FE098FE094E00E9483887E
:1043B0004091F7095091F8096091F9097091FA0953
:1043C0008CE094E00E9483886AE085E992E1CF91D5
:1043D0000C94EE12CF91089581E50E94C4138823B6
:1043E00051F00E9462146093370A7093380A8093E8
:1043F000390A90933A0A83E50E94C413882351F046
:104400000E941B146093030A7093040A8093050AA8
:104410009093060A84E50E94C413882351F00E94F9
:104420001B146093F3097093F4098093F50990933A
:10443000F60988E50E94C413882351F00E941B14DA
:104440006093E3097093E4098093E5099093E6098A
:1044500089E50E94C413882351F00E941B146093C5
:10446000E7097093E8098093E9099093EA098AE5DE
:104470000E94C413882351F00E941B146093EB091F
:104480007093EC098093ED099093EE0985E40E9406
:10449000C413882351F00E941B146093EF0970939A
:1044A000F0098093F1099093F2090895EF92FF9239
:1044B0000F931F93CF938AEFE82E81E0F82E03EE3F
:1044C00012E0C0E0F70181917F010E94C4138823AC
:1044D00051F00E941B14F8016083718382839383DF
:1044E0008C2F0E94A616CF5F0C5F1F4FC33051F771
:1044F000CF911F910F91FF90EF907ECDCF93DF93DF
:10450000EEEBF2E16491EF012196662331F085E94B
:1045100092E10E94EE12FE01F5CF83E50E94C413E2
:10452000882321F00E94831480930A01E0ECF3E0D9
:104530006491EF012196662331F085E992E10E94B2
:10454000EE12FE01F5CF80910A01811103C0E8EB64
:10455000F3E002C0ECEBF3E06491EF0121966623F7
:1045600031F085E992E10E94EE12FE01F5CFE0EB19
:10457000F3E06491EF012196662331F085E992E141
:104580000E94EE12FE01F5CF2091D7023091D802A1
:104590004091D9025091DA026091CB027091CC0225
:1045A0008091CD029091CE020E9493DBAB01BC01C1
:1045B0008EEA93E00E9483882091DB023091DC0236
:1045C0004091DD025091DE026091CF027091D002E5
:1045D0008091D1029091D2020E9493DBAB01BC0189
:1045E0008BEA93E00E9483882091DF023091E00201
:1045F0004091E1025091E2026091D3027091D402A5
:104600008091D5029091D6020E9493DBAB01BC0150
:1046100088EA93E00E948388E0EAF3E06491EF0186
:104620002196662331F085E992E10E94EE12FE01A7
:10463000F5CF2091D7023091D8024091D902509104
:10464000DA0260910B0170910C0180910D01909143
:104650000E010E9493DBAB01BC018EE993E00E9446
:1046600083882091DB023091DC024091DD02509181
:10467000DE0260910F017091100180911101909103
:1046800012010E9493DBAB01BC018BE993E00E9415
:1046900083882091DF023091E0024091E102509145
:1046A000E2026091130170911401809115019091C3
:1046B00016010E9493DBAB01BC0188E993E00E94E4
:1046C00083886AE085E992E1DF91CF910C94EE1244
:1046D0000F931F93CF93DF938DED90E00E946116AF
:1046E000811170C083E50E940F148823B9F1C09135
:1046F000BA02D0E00E945214CC0FDD1FC25DDE4F23
:10470000798368838091BA0290E0EC01CC0FDD1FC1
:10471000CC0FDD1F8E01065D1E4F880F991FFC0117
:10472000E25DFE4F60817181072E000C880B990BB2
:104730000E94A9DC2AE037ED43E25CE30E94E0DD61
:10474000C552D64F288139814A815B810E94E0DDC4
:10475000F801608371838283938334C0EEEBF2E1CE
:104760006491EF012196662331F085E992E10E9480
:10477000EE12FE01F5CF65E485E992E10E94EE12AA
:104780006091BA02605D85E992E10E94EE12E091CB
:10479000BA02F0E0EE0FFF1FE25DFE4F6081718113
:1047A00080E993E00E94468865E285E992E10E94F3
:1047B000EE126AE085E992E1DF91CF911F910F91AE
:1047C0000C94EE12DF91CF911F910F910895CF922B
:1047D000DF92EF92FF92CF93DF938AE50E940F144E
:1047E000811106C083E50E940F14882309F481C05B
:1047F0000E941B1420E030E040E050EC0E940ADCF4
:1048000087FD15C00E941B1420E030E040E050E41A
:104810000E94ACDD18162CF00E941B146B017C0169
:104820000BC0C12CD12CE12C90E4F92E05C0C12C79
:10483000D12CE12C80ECF82E20911F0A3091200A17
:104840004091210A5091220A8091920482FF10C067
:10485000C091C111D091C211C701B6010E94E0DD23
:104860000E9476DCC60FD71FD093C211C093C1112E
:1048700080E50E94C413882321F00E9483148823BA
:10488000C1F1A70196016091B6027091B7028091C3
:10489000B8029091B9020E9493DB6093B6027093C4
:1048A000B7028093B8029093B902EEEBF2E1649103
:1048B000EF012196662331F085E992E10E94EE1224
:1048C000FE01F5CF4091B6025091B7026091B80257
:1048D0007091B9028FE793E00E9483886AE085E9CE
:1048E00092E1DF91CF91FF90EF90DF90CF900C9409
:1048F000EE12DF91CF91FF90EF90DF90CF9008956F
:10490000CF93DF9385E40E940F14811110C080E5DE
:104910000E94C413882391F00E941B146093CB1152
:104920007093CC118093CD119093CE1107C00E944B
:104930007214882361F3E4ECF2E172C089E40E940E
:10494000C413882381F00E941B142CEA35EC47E243
:104950005EE30E94E0DD6093C7117093C8118093FD
:10496000C9119093CA1184E40E94C413882381F072
:104970000E941B142CEA35EC47E25EE30E940EDC39
:104980006093C3117093C4118093C5119093C611A5
:10499000EEEBF2E16491EF012196662331F085E9B7
:1049A00092E10E94EE12FE01F5CF4091CB115091A1
:1049B000CC116091CD117091CE118BE793E00E94E4
:1049C00083882CEA35EC47E25EE36091C711709171
:1049D000C8118091C9119091CA110E940EDCAB01DF
:1049E000BC0187E793E00E9483882CEA35EC47E21C
:1049F0005EE36091C3117091C4118091C5119091D3
:104A0000C6110E94E0DDAB01BC0183E793E00E9488
:104A100083886AE085E992E1DF91CF910C94EE12F0
:104A20006491EF012196662331F085E992E10E94BD
:104A3000EE12FE01F5CFE1E6F3E06491EF0121967D
:104A4000662331F085E992E10E94EE12FE01F5CF76
:104A5000DF91CF910895CF93DF9383E50E94C41334
:104A6000C82F882371F00E941B140E9476DC70937B
:104A700049016093480121E0672B09F020E0209371
:104A8000B61180E50E94C413882359F02091480193
:104A900030914901232B11F00E9483148093B611A9
:104AA00031C0C1112FC0EEEBF2E16491EF0121960C
:104AB000662331F085E992E10E94EE12FE01F5CF06
:104AC0008091B611811103C06BED71E002C068EDF9
:104AD00071E08EE493E00E941E886091480170911D
:104AE00049018DE393E00E944688E9E3F3E0649195
:104AF000EF012196662331F085E992E10E94EE12E2
:104B0000FE01F5CFDF91CF9108958F929F92AF92E2
:104B1000BF92EF92FF920F931F93CF93DF9300D03A
:104B200000D0CDB7DEB785E40E940F14882321F0B2
:104B30000E9452148B0102C000E010E083E40E9446
:104B40000F14882321F00E945214F62E02C025E093
:104B5000F22E85E50E940F14882321F00E94831411
:104B6000E82E04C085E50E94C413E82E17FD07C097
:104B7000812C912C96E1A92E93E4B92E06C0812CAC
:104B8000912C8CE8A82E82E4B82E83E50E940F14A5
:104B9000882321F00E941B144B015C01C501B40164
:104BA0000E9476DC0115110511F41092BA02072E4D
:104BB000000C880B990B0E94A9DC69837A838B8394
:104BC0009C832E2D4F2D602FCE0101960E94D99EE1
:104BD0000F900F900F900F90DF91CF911F910F9139
:104BE000FF90EF90BF90AF909F908F9008952F927D
:104BF0003F924F925F926F927F928F929F92AF926D
:104C0000BF92CF92DF92EF92FF920F931F93CF93B9
:104C1000DF93CDB7DEB72F970FB6F894DEBF0FBE88
:104C2000CDBF41E061E081E00E9491188111DAC0BE
:104C30009CE7892E99E0992E84EA94E09E878D87DF
:104C4000FE0131965F0101E619E01F01F3E0F00F6C
:104C5000FF87F4016591759185919491ED85FE85AD
:104C6000C190D190E190F190FE87ED87A701960168
:104C70000E9492DB2B013C0120E030E040EA51EC45
:104C80000E94ACDD87FD10C020E030E040EA51E436
:104C9000C301B2010E940ADC181634F0F10140820F
:104CA0005182628273820DC0F80184911816B4F7A4
:104CB000F7FAF094F7F8F094F101C082D182E28221
:104CC000F382F101C190D190E190F1901F0120E0B9
:104CD00030E040EA51ECC701B6010E94ACDD87FF2D
:104CE00003C0E4ECF2E10BC020E030E040EA51E424
:104CF000C701B6010E940ADC1816BCF5F2CF649118
:104D00008F010F5F1F4F662331F085E992E10E940A
:104D1000EE12F801F4CFEEEEF3E064918F010F5F35
:104D20001F4F662331F085E992E10E94EE12F801EF
:104D3000F4CF80EE93E02F960FB6F894DEBF0FBE4F
:104D4000CDBFDF91CF911F910F91FF90EF90DF903A
:104D5000CF90BF90AF909F908F907F906F905F901B
:104D60004F903F902F900C940BABF4E08F0E911C62
:104D70000F5F1F4F8F8580136CCF83EEE82E82E08C
:104D8000F82E10E0F50181919191A191B1915F010F
:104D9000F70181939193A193B1937F01812F0E9499
:104DA000A6161F5F133071F727D960E080ED93E0FE
:104DB0002F960FB6F894DEBF0FBECDBFDF91CF9117
:104DC0001F910F91FF90EF90DF90CF90BF90AF9029
:104DD0009F908F907F906F905F904F903F902F901B
:104DE0000C9475AA2F960FB6F894DEBF0FBECDBFF8
:104DF000DF91CF911F910F91FF90EF90DF90CF90B7
:104E0000BF90AF909F908F907F906F905F904F90EA
:104E10003F902F900895CF93DF930E94CE6B88230D
:104E2000D1F0EEEBF2E16491EF012196662331F0CF
:104E300085E992E10E94EE12FE01F5CFE5EDF2E088
:104E40006491EF012196662331F085E992E10E9499
:104E5000EE12FE01F5CFDF91CF910895CF92DF9250
:104E6000EF92FF92CF93DF938AE50E940F1488237D
:104E700009F43AC00E941B146B017C0120E030E071
:104E800040EA50EC0E94ACDD87FD13C020E030E02A
:104E900040EA51E4C701B6010E940ADC18164CF042
:104EA000C092B602D092B702E092B802F092B90274
:104EB0004CC0E4ECF2E16491EF01219661110EC067
:104EC000E9EBF2E06491EF012196662309F43DC01D
:104ED00085E992E10E94EE12FE01F4CF85E992E1AC
:104EE0000E94EE12FE01E7CFEEEBF2E16491EF01DA
:104EF0002196662331F085E992E10E94EE12FE01CF
:104F0000F5CFEAEAF2E06491EF012196662331F0F1
:104F100085E992E10E94EE12FE01F5CF4091B602C2
:104F20005091B7026091B8027091B90287EA92E09D
:104F30000E9483886AE085E992E1DF91CF91FF903A
:104F4000EF90DF90CF900C94EE12DF91CF91FF9015
:104F5000EF90DF90CF900895CF92DF92EF92FF9283
:104F6000CF93DF938BE40E940F148823B1F18BE47D
:104F70000E940F148823B1F00E941B146B017C0166
:104F800020E030E0A9010E94ACDD87FD19C020E0DF
:104F900030E040E251E4C701B6010E940ADC181675
:104FA0007CF003C0C12CD12C76010E942F79C092D5
:104FB0008809D0928909E0928A09F0928B0931C060
:104FC000E8E8F2E06491EF012196662351F185E96A
:104FD00092E10E94EE12FE01F5CFEEEBF2E1649158
:104FE000EF012196662331F085E992E10E94EE12ED
:104FF000FE01F5CF409188095091890960918A0995
:1050000070918B098DE792E00E9483886AE085E9C0
:1050100092E1DF91CF91FF90EF90DF90CF900C94D1
:10502000EE12DF91CF91FF90EF90DF90CF90089537
:10503000CF93DF93E4ECF2E16491EF0121966623D4
:1050400031F085E992E10E94EE12FE01F5CFEAE22D
:10505000F3E06491EF012196662331F085E992E156
:105060000E94EE12FE01F5CFDF91CF9108951F93BC
:10507000CF93DF93182FEEEBF2E16491EF012196CD
:10508000662331F085E992E10E94EE12FE01F5CF30
:1050900064E585E992E10E94EE12412F50E060E064
:1050A00070E020E085E992E10E9476D260E285E935
:1050B00092E10E94EE12E6EDF6E06491EF01219696
:1050C000662331F085E992E10E94EE12FE01F5CFF0
:1050D000DF91CF911F910895CF93DF93E0918804E2
:1050E000F0E0EA55FD4F80818823A1F0E1E7F2E08E
:1050F0006491EF012196662331F085E992E10E94E7
:10510000EE12FE01F5CF6AE085E992E1DF91CF91E1
:105110000C94EE12DF91CF910895CF92DF92EF922F
:10512000FF92CF93DF9320910A01222309F485C0D7
:10513000EC01C090CB02D090CC02E090CD02F09078
:10514000CE02A7019601688179818A819B810E94A4
:105150000ADC87FF04C0C882D982EA82FB82C09041
:10516000CF02D090D002E090D102F090D202A701FD
:1051700096016C817D818E819F810E940ADC87FF70
:1051800004C0CC82DD82EE82FF82C0900B01D09001
:105190000C01E0900D01F0900E01A70196016881CD
:1051A00079818A819B810E94ACDD181624F4C88223
:1051B000D982EA82FB82C0900F01D0901001E0906A
:1051C0001101F0901201A70196016C817D818E8101
:1051D0009F810E94ACDD181624F4CC82DD82EE8221
:1051E000FF82C090D302D090D402E090D502F0901C
:1051F000D602A7019601688579858A859B850E94DC
:105200000ADC87FF04C0C886D986EA86FB86C09080
:105210001301D0901401E0901501F0901601A70140
:105220009601688579858A859B850E94ACDD181674
:1052300024F4C886D986EA86FB86DF91CF91FF9059
:10524000EF90DF90CF900895CF93DF9380E00E949E
:105250001B79CAEAD2E0688379838A839B8381E0E1
:105260000E941B796C837D838E839F8382E00E94E2
:105270001B79688779878A879B87DF91CF9108950B
:10528000CF93DF93E1DF6BE585E992E10E94EE12B7
:10529000CAEAD2E0488159816A817B8122E085E9AE
:1052A00092E10E94DFD24C815D816E817F818CE032
:1052B00097E00E948388488559856A857B8589E0C7
:1052C00097E00E9483886DE585E992E10E94EE12E5
:1052D0006AE085E992E1DF91CF910C94EE12CF93D1
:1052E000C82FB2DF8AEA92E00E941978CE3F51F4CB
:1052F0008CE0EAEAF2E0A4EAB4E001900D928A952B
:10530000E1F713C024E0C29FC0011124FC01EC5559
:10531000FB4FDC01A655BD4F8D919D910D90BC9129
:10532000A02D80839183A283B383CF910895CF93DF
:105330009091DA09891789F0C82F0E942F79C093BC
:10534000DA09C11103C08EEFCADF04C084EA94E019
:105350000E941978CF910C949214CF91089580E017
:10536000E6DF86EB99E00C948ACE8F929F92AF9203
:10537000BF92EF92FF920F931F93CF93DF9300D0D2
:1053800000D0CDB7DEB7182F909192049770973068
:1053900079F48FE40E940F14882329F00E9483146B
:1053A000882331F097C08FE40E94C413811192C00A
:1053B0000E942F7980E0BBDF0E94591881E00E9493
:1053C000276C11111AC088E50E94C413F82E89E5D4
:1053D0000E94C413082F8AE50E94C413E82EF1101E
:1053E00007C0011111C0811110C0F02E11E00DC0D5
:1053F000002351F0F02E182F08C001E0FF24F39491
:10540000EE24E39411E001C010E080E1E4EAF4E06E
:10541000A4E9B4E001900D928A95E1F782E50E943B
:105420000F14882361F00E941B144B015C0120E0E3
:1054300030E0A9010E940ADC882369F105C0812CB3
:10544000912C80E4A82EBA2C111104C0F11002C0D6
:10545000002391F180929C0490929D04A0929E045E
:10546000B0929F042091AC043091AD044091AE0401
:105470005091AF04C501B4010E94ACDD18165CF474
:1054800019821A821B821C82BE016F5F7F4F8CE9DA
:1054900094E00E941A18111105C0F11003C0011107
:1054A00006C00AC080E00E94E9191123C1F381E01F
:1054B0000E94E919111101C0E1100E94451C0E94CF
:1054C00092140E942A6C0E94781883E080934D0108
:1054D0000E94FC1F0F900F900F900F90DF91CF91C3
:1054E0001F910F91FF90EF90BF90AF909F908F9082
:1054F0000895CF93DF93C82F0E942F79D091DA09B6
:1055000080E015DFCC2321F08C2FDF91CF91AFCD40
:105510001092C8028D2F0BDFEEEBF2E16491EF01E8
:105520002196662331F085E992E10E94EE12FE0198
:10553000F5CF6091C80270E088EE96E00E94468840
:105540006AE085E992E1DF91CF910C94EE120F931E
:105550001F93CF93DF93CDB7DEB72C970FB6F89498
:10556000DEBF0FBECDBF83E50E94C413882341F088
:105570000E948314182F811105C080E0D8DE02C07C
:105580001091DA098091A4049091A504A091A60439
:10559000B091A70489839A83AB83BC838091A804CC
:1055A0009091A904A091AA04B091AB048D839E832D
:1055B000AF83B8878091AC049091AD04A091AE0404
:1055C000B091AF0489879A87AB87BC8786E50E9434
:1055D000C413882331F06DE073E086EB99E00E94FC
:1055E00077D0812FA4DE111103C0EEEBF2E120C0D1
:1055F0008091DA098111F9CFE4ECF2E164918F0135
:105600000F5F1F4F662331F085E992E10E94EE1291
:10561000F801F4CFEEEEF2E064918F010F5F1F4FBF
:10562000662319F385E992E10E94EE12F801F4CFA6
:1056300064918F010F5F1F4F662331F085E992E17E
:105640000E94EE12F801F4CF8091DA09811103C0B3
:1056500063EE71E002C06FED71E080EE92E00E94B7
:105660001E886AE085E992E10E94EE124CE050E06B
:1056700064EA74E0CE0101960E94ADE2892B61F0EC
:105680002C960FB6F894DEBF0FBECDBFDF91CF9141
:105690001F910F910C94FC1F2C960FB6F894DEBF4F
:1056A0000FBECDBFDF91CF911F910F9108950E9442
:1056B000B1780E942F798EEF12DE0C9492142F9203
:1056C0003F924F925F926F927F928F929F92AF9292
:1056D000BF92CF92DF92EF92FF920F931F93CF93DF
:1056E000DF93CDB7DEB7A0970FB6F894DEBF0FBE3D
:1056F000CDBF1C017F8F6E8F498F28A3DC018D9059
:105700009D90AD90BC90FB01408051806280738081
:105710000023A1F0A3019201C501B4010E94661209
:10572000882309F4F5C120E030E040EA51E4C501E6
:10573000B4010E9492DB4B015C012AC02FE632E1EA
:1057400043E85AEBC501B4010E94ACDD87FDE0C11E
:1057500023E830E048EC52E4C501B4010E940ADCC1
:1057600018160CF4D5C12FE632E143E85AEBC30119
:10577000B2010E94ACDD87FDCBC123E830E048ECEC
:1057800052E4C301B2010E940ADC18160CF4C0C135
:10579000E090AC04F090AD040091AE041091AF0421
:1057A0008091190190911A01A0911B01B0911C01E7
:1057B0008A8F9B8FAC8FBD8F8091010190910201E8
:1057C000A0910301B09104018093190190931A01F3
:1057D000A0931B01B0931C0119821A821B821C82A8
:1057E000DE0111966D01A3019201C501B4010E9471
:1057F0003D1781E00E9448198111E4C08091920414
:1058000082FF11C02091B6023091B7024091B802D8
:105810005091B90260E070E080E090EC0E9492DB71
:105820002B013C0106C0412C512C90E2692E91ECD9
:10583000792E4D865E866F86788AC12CD12C80E8C1
:10584000E82E80E4F82EC986DA86EB86FC86BE0157
:10585000675F7F4FCE010D960E941A181091400984
:105860001092400982E03BDD0E94921412FD05C0B7
:1058700060E070E080EC9FE75EC08090AC049090A8
:10588000AD04A090AE04B090AF04C982DA82EB827E
:10589000FC8220E030E040E450E4C501B4010E9405
:1058A00093DB6D837E838F839887BE016F5F7F4F0D
:1058B000CE0105960E941A184D825E826F8278860C
:1058C00080E090E0A0E0B0E489839A83AB83BC835E
:1058D000BE016F5F7F4FCE0105960E941A1810918E
:1058E00040091092400982E0FADC0E94921412FFF3
:1058F000BFCF20E030E040E450E46091AC04709110
:10590000AD048091AE049091AF040E94E0DD2B01C4
:105910003C01A5019401C501B4010E9493DB9B01E8
:10592000AC01C301B2010E9493DB2DEC3CEC4CE4D2
:105930005EE30E94E0DD2091B6023091B702409113
:10594000B8025091B9020E9493DB5B018C01898DF2
:105950008250823050F580E090E0A0E8B0E4898B7E
:105960009A8BAB8BBC8B6091AC047091AD04809131
:10597000AE049091AF04B98DB33029F020E030E04F
:1059800040E450E404C020E030E048EC51E40E94E0
:1059900093DB6D8B7E8B8F8B988FBE016F5E7F4FFD
:1059A000CE0145960E941A1808C0E98DE13029F40D
:1059B00080E00E944819811105C0F8A1F33008F475
:1059C0006FC008C098A1933008F4A7C0A12CB12CD7
:1059D00000EC1FE7EBEBF7E064914F012FEF821A29
:1059E000920A662331F085E992E10E94EE12F401F9
:1059F000F3CF2091D7023091D8024091D902509133
:105A0000DA02D1016D917D918D919C910E9493DB81
:105A1000AB01BC0123E085E992E10E94DFD2E6EB15
:105A2000F7E064914F01BFEF8B1A9B0A662331F0B8
:105A300085E992E10E94EE12F401F3CF2091DB029E
:105A40003091DC024091DD025091DE02EE8DFF8D3F
:105A500060817181828193810E9493DBAB01BC01E3
:105A600023E085E992E10E94DFD2E1EBF7E0649167
:105A70004F012FEF821A920A662331F085E992E1F5
:105A80000E94EE12F401F3CF23E0A501B80185E9ED
:105A900092E10E94DFD26AE085E992E10E94EE1273
:105AA0008A8D9B8DAC8DBD8D8093190190931A01C9
:105AB000A0931B01B0931C019501A801B501C80179
:105AC0000E9485DE882309F439C060E082EA97E00D
:105AD0000E9475AAE4ECF2E164914F019FEF891AEC
