:100000000C942A0F0C94540F0C94540F0C94540F0E
:100010000C94540F0C94540F0C94540F0C94540FD4
:100020000C94540F0C94540F0C9437900C94B4907F
:100030000C94540F0C94540F0C94540F0C94540FB4
:100040000C94540F0C9424690C94540F0C94540F7A
:100050000C94540F0C94540F0C94E67E0C94968FD1
:100060000C94540F0C94540F0C94540F0C94540F84
:100070000C94540F0C94540F0C94540F0C94540F74
:100080000C94540F0C94540F0C94540F0C94540F64
:100090000C94540F0C94540F258D518D738D738DCA
:1000A000738D738D738D738D738D738D738D738D50
:1000B000738D738D698D618D598D738D738D738D76
:1000C000738D738D738D738D4B8D318D398D438D04
:1000D0004E414E494E495459494E46CDCCCC3D0A2D
:1000E000D7233C17B7D13877CC2B329595E6241F10
:1000F000B14F0A000020410000C84200401C4620C9
:10010000BCBE4CCA1B0E5AAEC59D742020506C61FB
:100110006E6E657242756666657242797465733A91
:1001200020002046726565204D656D6F72793A201A
:1001300000436F6D70696C65643A204E6F762031B4
:100140003420323031380A00207C20417574686FC9
:10015000723A2044722E5068696C33440A0032307F
:1001600031382D30382D303100204C6173742055DA
:100170007064617465643A2000312E312E390A00B2
:100180004D61726C696E0020536F667477617265A1
:100190002052657365740A00205761746368646F48
:1001A000672052657365740A002042726F776E2073
:1001B0006F75742052657365740A00204578746504
:1001C000726E616C2052657365740A00506F7765BA
:1001D0007255700A0073746172740A005072696E0D
:1001E0007465722068616C7465642E206B696C6C38
:1001F00028292063616C6C6564210A004B494C4CD2
:1002000045442E20004B494C4C2063617573656456
:1002100020627920746F6F206D75636820696E614C
:1002200063746976652074696D65202D206375722D
:1002300072656E7420636F6D6D616E643A2000208C
:10024000746F6F206C6F6E67206578747275736958
:100250006F6E2070726576656E7465640A00206347
:100260006F6C6420657874727573696F6E2070723C
:100270006576656E7465640A006F6B005265736520
:100280006E643A2000416476616E6365204B3D00E8
:100290003F4B2076616C7565206F7574206F66200A
:1002A00072616E67652028302D3130292E0A003AA0
:1002B000200050726F6265205A204F666673657425
:1002C000003F5A206F7574206F662072616E6765FB
:1002D00020282D3520746F203230290A00454550E2
:1002E000524F4D204F4B0A00426564204C657665A5
:1002F0006C696E6720004661696C656420746F20CC
:10030000656E61626C6520426564204C6576656C43
:10031000696E670A00426564204C6576656C20430F
:100320006F7272656374696F6E204D617472697863
:100330003A004E6F2063617365206C696768740AC8
:100340000043290A0061626C656420286D696E2093
:1003500074656D702000436F6C64206578747275ED
:10036000646573206172652000496E76616C696412
:100370002065787472756465720A0020643A002002
:10038000693A0020703A0050726F6265205A204F1F
:1003900066667365743A200020466C6F773A2000D9
:1003A000205A00205900580020204D61783A200042
:1003B000205A00205900580020204D696E3A200034
:1003C0004F6666004F6E2000536F667420656E6442
:1003D00073746F70733A2000546F6F2066617220DF
:1003E00066726F6D207265666572656E63652070FA
:1003F0006F696E740A0020540020520041636365E7
:100400006C65726174696F6E3A2050002F2F200066
:100410003A004361703A00544845524D414C5F5098
:10042000524F54454354494F4E004155544F524545
:10043000504F52545F53445F5354415455530045F9
:100440004D455247454E43595F5041525345520026
:10045000434153455F4C494748545F4252494748DE
:10046000544E45535300544F47474C455F4C494702
:1004700048545300534F4654574152455F504F57CD
:100480004552004255494C445F50455243454E54F5
:10049000004C4556454C494E475F44415441005A33
:1004A0005F50524F4245004155544F4C4556454CC4
:1004B000005052494E545F4A4F420050524F4752EB
:1004C000455353004155544F5245504F52545F5479
:1004D000454D5000564F4C554D45545249430045EB
:1004E0004550524F4D0053455249414C5F584F4E75
:1004F0005F584F4646004649524D574152455F4E60
:10050000414D453A4D61726C696E20312E312E3964
:1005100020284769746875622920534F5552434516
:100520005F434F44455F55524C3A68747470733A58
:100530002F2F6769746875622E636F6D2F4D61721E
:100540006C696E4669726D776172652F4D61726C70
:10055000696E2050524F544F434F4C5F5645525393
:10056000494F4E3A312E30204D414348494E455F68
:10057000545950453A3344205072696E7465722064
:1005800045585452554445525F434F554E543A31A5
:1005900020555549443A34306365363164312D3243
:1005A0006564302D343533302D383330342D3535C6
:1005B000653365656161656266660A0020573A00C9
:1005C00020573A006F6B004D3131332053004B49B7
:1005D0004C4C45442E20004543484F00494E464F61
:1005E000004552524F52530044525952554E004307
:1005F0004F4D4D554E49434154494F4E006F66662D
:1006000000D705DC05E105E805EF054445425547FF
:100610003A0050726F7465637465642050696E0AA5
:100620000000011C1D132FFFFFFFFF1E1F12FF14F0
:10063000FFFFFF20211124FFFFFFFFFFFFFF0E1030
:10064000FFFFFF22230DFFFFFF0E260F2C2725693A
:10065000730025696D202569730025696820256967
:100660006D20256973002569642025696820256946
:100670006D20256973002569792025696420256925
:10068000682025696D20256973005072696E742099
:1006900074696D653A2000205A3A200020593A20AA
:1006A0000042656420583A20000A0A426564204CE2
:1006B0006576656C20436F7272656374696F6E2036
:1006C0004D61747269783A00202844525952554E4F
:1006D0002900473239204175746F20426564204CEF
:1006E0006576656C696E67003F2856296572626F92
:1006F0007365206C6576656C20697320696D706C1C
:1007000061757369626C652028302D34292E0A00CA
:10071000496E76616C69642065787472756465727F
:100720000A00416374697665204578747275646562
:10073000723A200020453A00205A3A0020593A00E7
:10074000583A002C20002C2000486F6D6520585925
:100750002066697273740A005761726E696E673A37
:1007600020486F6D696E672042756D702044697610
:1007700069736F72203C20310A00020204627573B3
:10078000793A2070617573656420666F7220696EB6
:100790007075740A00627573793A207061757365BB
:1007A0006420666F7220757365720A0062757379D2
:1007B0003A2070726F63657373696E670A005072D6
:1007C0006F62696E67206661696C65640A00205A11
:1007D0003A200020593A200042656420583A20000F
:1007E0002066697273740A005A0059005800486FF5
:1007F0006D65200020496E76616C696420657874AF
:10080000727564657220004B494C4C45442E2000A3
:100810005072696E7465722073746F7070656420B5
:1008200064756520746F206572726F72732E204636
:10083000697820746865206572726F7220616E64D9
:1008400020757365204D39393920746F20726573B6
:10085000746172742E202854656D706572617475B0
:1008600072652069732072657365742E20536574F8
:100870002069742061667465722072657374617298
:1008800074696E67290A004E6F20436865636B7355
:10089000756D2077697468206C696E65206E756D62
:1008A0006265722C204C617374204C696E653A202D
:1008B00000636865636B73756D206D69736D61743A
:1008C00063682C204C617374204C696E653A20007B
:1008D0004C696E65204E756D626572206973206E7D
:1008E0006F74204C617374204C696E65204E756D79
:1008F0006265722B312C204C617374204C696E65DB
:100900003A20004D31313000656E7175657565694D
:100910006E67202200FF01FF0000A0400000A04001
:10092000000000400000C8420000C8420000FA4237
:10093000000000000000C842000000000000C842A3
:100940000000C8420000FA42000000000000000061
:1009500000000000000048420000484200008040C3
:10096000000000003A0A0020286D6D290020204D6B
:10097000393030204B004C696E65617220416476DD
:10098000616E63653A0A0020204D383531205A00E7
:100990005A2D50726F6265204F6666736574002031
:1009A000440020490020204D333031205000504970
:1009B000442073657474696E67733A0A0020204D91
:1009C0003432302053004175746F20426564204CEE
:1009D0006576656C696E673A0A00205A00205900F6
:1009E00020204D323036205800486F6D65206F66EC
:1009F000667365743A0A00204500205A00205900A9
:100A000020580020540020530020204D3230352043
:100A1000510020453C6D61785F655F6A65726B3E91
:100A20000020583C6D61785F785F6A65726B3E208C
:100A3000593C6D61785F795F6A65726B3E205A3C04
:100A40006D61785F7A5F6A65726B3E0041647661C2
:100A50006E6365643A20513C6D696E5F7365676DC6
:100A6000656E745F74696D655F75733E20533C6D90
:100A7000696E5F66656564726174653E20543C6DA5
:100A8000696E5F74726176656C5F666565647261DC
:100A900074653E0020540020520020204D32303436
:100AA000205000416363656C65726174696F6E20EC
:100AB00028756E6974732F7332293A20503C707216
:100AC000696E745F616363656C3E20523C7265744D
:100AD000726163745F616363656C3E20543C747241
:100AE0006176656C5F616363656C3E0A002045005A
:100AF000205A0020590020204D3230312058004D1E
:100B00006178696D756D20416363656C65726174B0
:100B1000696F6E2028756E6974732F7332293A0AD3
:100B200000204500205A0020590020204D3230334B
:100B30002058004D6178696D756D20666565647239
:100B4000617465732028756E6974732F73293A0A6E
:100B500000204500205A0020590020204D39322025
:100B6000580053746570732070657220756E6974D7
:100B70003A0A0020204D3230302044300A00202034
:100B80004D3230302044002044697361626C6564EA
:100B90000A0046696C616D656E74207365747469D2
:100BA0006E67733A002020473231202020203B001E
:100BB00048617264636F6465642044656661756C46
:100BC000742053657474696E6773204C6F6164653B
:100BD000640A00DC050000DC050000DC05000010F4
:100BE0002700000000FA420000FA420000704100B5
:100BF00000C8410000A0420000A0420080FC440068
:100C000000BD42290A002062797465733B2063723B
:100C10006320002073746F72656420736574746957
:100C20006E6773207265747269657665642028004A
:100C3000202863616C63756C6174656429210A0006
:100C400020213D2000454550524F4D204352432026
:100C50006D69736D61746368202D202873746F72E1
:100C600065642920002053697A653A2000496E6442
:100C700065783A2000204D61726C696E3D563535BD
:100C8000290A0028454550524F4D3D0045455052D8
:100C90004F4D2076657273696F6E206D69736D615B
:100CA0007463682000290A002062797465733B2010
:100CB000637263200053657474696E6773205374A4
:100CC0006F726564202800454550524F4D20646185
:100CD000746173697A65206572726F722E0A0045BD
:100CE00072726F722077726974696E6720746F20F8
:100CF000454550524F4D210A006F70656E005452A9
:100D000049474745524544003A20007A5F6D696E75
:100D100000795F6D617800785F6D696E0052657073
:100D20006F7274696E6720656E6473746F70207380
:100D300074617475730A00205A3A0020593A0020F1
:100D4000583A00656E6473746F7073206869743A02
:100D50002000486F6D696E67206661696C6564008C
:100D6000556E6B6E6F776E20636F6D6D616E643A5A
:100D700020220020746F6F206C6F6E67206578747E
:100D8000727573696F6E2070726576656E746564D6
:100D90000A0020636F6C6420657874727573696FE4
:100DA0006E2070726576656E7465640A00FFFDFCE6
:100DB000FAF8F6F4F2F0EEECEAE9E7E5E3E1E0DE7A
:100DC000DCDAD9D7D5D4D2D0CFCDCBCAC8C7C5C32A
:100DD000C2C0BFBDBCBAB9B7B6B4B3B2B0AFADACA8
:100DE000AAA9A8A6A5A4A2A1A09E9D9C9A999897FD
:100DF00095949392908F8E8D8B8A89888786848331
:100E00008281807F7E7D7B7A797877767574737244
:100E100071706F6E6D6C6B6A69686766656463623A
:100E200061605F5E5D5C5B5A595858575655545324
:100E3000525150504F4E4D4C4B4A4A4948474646F6
:100E4000454443424241403F3E3E3D3C3B3B3A39B4
:100E5000383837363535343332323130302F2E2E64
:100E60002D2C2B2B2A292928272726252524232307
:100E700022212120201F1E1E1D1C1C1B1B1A19199C
:100E80001818171616151514131312121111100F26
:100E90000F0E0E0D0D0C0C0B0A0A090908080707A6
:100EA0000606050504040303020201000000000019
:100EB0000100000001000080005555550000004071
:100EC0000033333300AAAA2A0049922400000020EC
:100ED00000C7711C0099991900D145170055551587
:100EE000003BB11300244912001111110000001041
:100EF000000F0F0F00E3380E0043790D00CCCC0C2F
:100F000000C3300C00E8A20B0064210B00AAAA0A5F
:100F100000703D0A009DD80900427B090092240917
:100F200000DCD30800888808001042080000000890
:100F300000F0C107008787070075500700711C0784
:100F4000003EEB0600A1BC0600699006006666063E
:100F500000703E06006118060017F4050074D10504
:100F6000005BB00500B290050062720500555505A2
:100F70000078390500B81E0500050505004EEC0493
:100F80000087D40400A1BD040090A7040049920486
:100F900000C17D0400EE690400C756040044440407
:100FA000005C320400082104004110040000000429
:100FB000003FF00300F8E0030026D20300C3C303A0
:100FC00000CCB503003AA803000A9B0300388E0347
:100FD00000C08103009F750300D0690300505E03C9
:100FE000001D53030034480300913D0300333303D5
:100FF0000016290300381F030097150300300C0367
:1010000000030303000BFA020049F10200BAE802F0
:10101000005CE002002DD802002DD0020059C80269
:1010200000B0C0020031B90200DAB10200AAAA027F
:1010300000A0A30200BC9C0200FA9502005C8F0293
:1010400000DF88020082820200457C0200277602CF
:101050000027700200436A02007C640200D05E0236
:10106000003F590200C85302006563686F3A0045AB
:1010700072726F723A00205A3A0020593A002043A7
:101080006F756E7420583A00232C0000B8220000BF
:10109000561800003A0F0000B8080000B104000024
:1010A000710200003E01000024F4D43050C38E20B1
:1010B000C2A24017828B7011127A910D816CD90AED
:1010C000A861E108C7586607615143061E4B5D05DC
:1010D000C145A7041A411104093D98037139310330
:1010E0004036DB0265339102D4305402802E1D025B
:1010F000632CEE01752AC501B028A00110278101DB
:101100008F2564012B244B01E0223401AC211F0107
:101110008D200D01801FFC00841EED00971DDF0057
:10112000B81CD200E61BC600201BBC00641AB2002B
:10113000B219A8000A19A0006A189900D1179100E5
:1011400040178B00B516840031167E00B315790068
:101150003A157300C7146F0058146A00EE13660046
:101160008813630025135E00C7125B006C125700E2
:1011700015125400C111510070114F0021114B0084
:10118000D61049008D10470046104400021042005E
:10119000C00F4000800F3E00420F3C00060F3B0096
:1011A000CB0E3800930E37005C0E3500270E34004E
:1011B000F30D3200C10D3100900D3000600D2E0096
:1011C000320D2D00050D2C00D90C2B00AE0C290082
:1011D000850C29005C0C2700350C27000E0C26001E
:1011E000E80B2400C40B2400A00B23007D0B23007C
:1011F0005A0B2100390B2100180B2000F80A1F00A0
:10120000D90A1E00BB0A1E009D0A1D00800A1D008F
:10121000630A1C00470A1B002C0A1B00110A1A0053
:10122000F7091A00DD091900C4091900AB091900F2
:10123000920917007B091800630917004C09160072
:1012400036091600200916000A091500F5081500D0
:10125000E0081400CC081400B8081400A408140016
:10126000900813007D0812006B0813005808120044
:10127000460812003408110023081100120811005A
:1012800001081100F0071000E0071000D00710005F
:10129000C0071000B0070F00A107100091070E0053
:1012A00083070F0074070F0065070E0057070E0035
:1012B00049070E003B070D002E070E0020070D000A
:1012C00013070D0006070D00F9060C00ED060D00D2
:1012D000E0060C00D4060C00C8060C00BC060C008E
:1012E000B0060C00A4060B0099060C008D060B003E
:1012F00082060B0077060B006C060B0061060A00E5
:1013000057060B004C060A0042060A0038060A007F
:101310002E060A0024060A001A060A001006090012
:1013200007060A00FD050900F4050900EB050900A0
:10133000E2050900D9050900D0050900C705090023
:10134000BE050900B5050800AD050800A5050900A2
:101350009C050800940508008C0508008405080019
:101360007C050800740508006C0507006505080089
:101370005D050700560508004E05070047050700F4
:101380004005080038050700310507002A05070059
:10139000230507001C050600160507000F050700BA
:1013A0000805060002050700FB040600F504070017
:1013B000EE040600E8040600E2040700DB04060071
:1013C000D5040600CF040600C9040600C3040600C5
:1013D000BD040600B7040600B1040500AC04060015
:1013E000A6040600A00405009B0406009504050061
:1013F000900406008A0405008504050080040600A8
:101400007A04050075040500700405006B040500EE
:1014100066040500610405005C040500570405002E
:10142000520405004D04050048040500430405006E
:101430003E0404003A0405003504050030040400AD
:101440002C04050027040400230405001E040400E6
:101450001A04040016040500110404000D0404001D
:10146000090405000404040000040400FC03040053
:10147000F8030400F4030400F0030400EC03040088
:10148000E8030400E4030400E0030400DC030400B8
:10149000D8030400D4030400D0030400CC030400E8
:1014A000C8030300C503030024F404D9201BC40CA3
:1014B0005C0E9804C4095F0265077101F405F90028
:1014C000FB04B30048048700C103690058035500BA
:1014D00003034500BE023A008402310053022A0091
:1014E0002902250004022000E4011C00C8011900A3
:1014F000AF0117009801140084011300710110005E
:101500006101100051010E0043010D0036010B0076
:101510002B010B0020010B00150109000C01090033
:1015200003010800FB000800F3000800EB000700BF
:10153000E4000600DE000600D8000600D200060027
:10154000CC000500C7000500C2000500BD00040076
:10155000B9000400B5000400B1000400AD000400AF
:10156000A9000400A5000300A20003009F000400DE
:101570009B00030098000300950002009300030005
:10158000900003008D0002008B0003008800020021
:101590008600020084000300810002007F00020038
:1015A0007D0002007B00020079000200770001004C
:1015B0007600020074000200720001007100020057
:1015C0006F0002006D0001006C0002006A00010063
:1015D000690002006700010066000100650001006B
:1015E000640002006200010061000100600001006F
:1015F0005F0002005D0001005C0001005B00010073
:101600005A00010059000100580001005700010074
:101610005600010055000100540001005300000075
:101620005300010052000100510001005000010070
:101630004F0001004E0000004E0001004D0001006F
:101640004C0001004B0000004B0001004A0001006B
:101650004900010048000000480001004700010067
:101660004600000046000100450000004500010062
:10167000440001004300000043000100420000005C
:101680004200010041000000410001004000010053
:101690003F0000003F0001003E0000003E0001004E
:1016A0003D0000003D0001003C0000003C00000047
:1016B0003C0001003B0000003B0001003A0000003C
:1016C0003A00010039000000390001003800000034
:1016D000380000003800010037000000370001002A
:1016E0003600000036000000360001003500000022
:1016F0003500000035000100340000003400000017
:10170000340001003300000033000000330001000A
:101710003200000032000000320001003100000001
:1017200031000000310001003000000030000000F6
:10173000300001002F0000002F0000002F000000EB
:101740002F0001002E0000002E0000002E000100DE
:101750002D0000002D0000002D0000002D000100D4
:101760002C0000002C0000002C0000002C000100C8
:101770002B0000002B0000002B0000002B000100BC
:101780002A0000002A0000002A0000002A000100B0
:1017900029000000290000002900000029000000A5
:1017A0002900010028000000280000002800000097
:1017B000280000002800010027000000270000008A
:1017C000270000002700000027000100260000007D
:1017D0002600000026000000260000002600010070
:1017E0002500000025000000250000002500000065
:1017F0002500000025000100240000002400000056
:101800002400000024000000240001002300000048
:10181000230000002300000023000000230000003C
:10182000230000002300010022000000220000002D
:10183000220000002200000022000000220001001F
:101840002100000021000000210000002100000014
:101850002100000021000000210001002000000004
:1018600020000000200000002000000020000000F8
:101870002000000020000000200001001F000000E8
:101880001F0000001F0000001F0000001F000000DC
:101890001F0000001F0001001E0000001E000000CD
:1018A0001E0000001E0000002042403A0020403A86
:1018B00000202F00546865726D616C2052756E6156
:1018C00077617900453120544845524D414C2052B2
:1018D000554E415741590042454420544845524DC8
:1018E000414C2052554E41574159004B494C4C45B3
:1018F000442E2000202D20496E76616C696420659D
:1019000078747275646572206E756D6265722021DF
:101910000A0048656174696E67206661696C656478
:10192000004265642068656174696E67206661695C
:101930006C65640048656174696E67206661696CF6
:1019400065640045312048656174696E6720666191
:10195000696C6564004D494E54454D502074726960
:10196000676765726564004531204572723A204DA3
:10197000494E54454D50004572723A204D494E54DF
:10198000454D5020424544004D415854454D50204E
:1019900074726967676572656400453120457272CB
:1019A0003A204D415854454D50004572723A204DF1
:1019B000415854454D5020424544006265640A0038
:1019C0002C2073797374656D2073746F7070656407
:1019D00021204865617465725F49443A20002CFFFC
:1019E000FFFFFFFF00010101010123646566696ECD
:1019F000652044454641554C545F4B6420002364A8
:101A00006566696E652044454641554C545F4B6997
:101A1000200023646566696E652044454641554C47
:101A2000545F4B702000504944204175746F7475A9
:101A30006E652066696E69736865642120507574EF
:101A400020746865206C617374204B702C204B6986
:101A500020616E64204B6420636F6E7374616E74DA
:101A6000732066726F6D2062656C6F7720696E748B
:101A70006F20436F6E66696775726174696F6E2E51
:101A8000680A00504944204175746F74756E652072
:101A90006661696C6564212074696D656F75740A8F
:101AA00000546865726D616C2052756E6177617962
:101AB00000453120544845524D414C2052554E412D
:101AC0005741590048656174696E67206661696CA9
:101AD00065640045312048656174696E6720666100
:101AE000696C656400504944204175746F74756E6B
:101AF00065206661696C6564212054656D7065724E
:101B0000617475726520746F6F20686967680A0078
:101B1000204B643A2000204B693A2000204B703A59
:101B200020000A20436C617373696320504944208C
:101B30000A002054753A2000204B753A2000206D91
:101B400061783A2000206D696E3A200020643A20C6
:101B50000020626961733A20005049442041757445
:101B60006F74756E652073746172740A0050494415
:101B7000204175746F74756E65206661696C65646B
:101B80002120426164206578747275646572206EEC
:101B9000756D6265720A001000C90210012C0140C7
:101BA00001220170011801B0010E01F00104015081
:101BB00002FA00B002F0003003E600D003DC00902F
:101BC00004D2007005C800A006BE000008B400B032
:101BD00009AA00D00BA000600E960060118C0000D6
:101BE00015820020197800C01D6E00A0226400B08C
:101BF000275A00902C500000314600E0343C001081
:101C0000383200903A2800603C1E00A03D1400804D
:101C10003E0A00203F000070012C0190012701B016
:101C2000012201C0011D01F0011801100213013051
:101C3000020E016002090190020401C002FF0000CF
:101C400003FA004003F5008003F000D003EB00200E
:101C500004E6007004E100E004DC004005D700C0A9
:101C600005D2004006CD00D006C8008007C3003072
:101C700008BE00F008B900C009B400B00AAF00B057
:101C80000BAA00D00CA500000EA000500F9B00C0B6
:101C90001096005012910000148C00C0158700B0FF
:101CA000178200B0197D00D01B7800001E73004021
:101CB000206E0090226900F024640040275F0090AD
:101CC000295A00E02B5500102E500020304B0010F8
:101CD000324600E033410090353C00103737007049
:101CE000383200A0392D00B03A2800A03B23006014
:101CF0003C1E00103D1900903D1400103E0F007076
:101D00003E0A00C03E0500003F0000403FFBFF8050
:101D10003FF6FFC03FF1FF012902290429082910DD
:101D200029202940298029012C022C012602260481
:101D30002608261026202640268026402C802C01AE
:101D4000230223042308231023202340238023017C
:101D50002002200420082010202020402080201075
:101D60002C202C012F022F042F082F102F202F4062
:101D70002F802F7EFE7EFD7EFB7EF77EEF7EDF7E58
:101D8000BF7E7F00010000341E1200020000F11D22
:101D90004300030000ED1D0401030904D31D1802D4
:101DA000030904BB1D1603030904AD1D0C0C03310C
:101DB0000032003300340035000000160355005394
:101DC0000042002000530065007200690061006C51
:101DD00000000018035400650065006E0073007970
:101DE000006400750069006E006F000000040309C4
:101DF0000409024300020100C0320904000001028C
:101E00000201000524001001052401000104240240
:101E100006052406000107058203080040090401A5
:101E200000020A00000007050302400000070584C5
:101E3000024000001201000202000020C0168304CC
:101E40007202010203010001C102018036018136E4
:101E5000BF67FA9311241FBECFEFD0E2DEBFCDBF24
:101E600012E0A0E0B1E0E0E8FDE301E00BBF02C05A
:101E700007900D92A830B107D9F72DE0A8E0B2E0A5
:101E800001C01D92AC34B207E1F71FE0CAE2DFE007
:101E900004C02197FE010E946F94C832D107C9F790
:101EA0000E94B78C0C94BE9E0C9400004F925F92DF
:101EB0006F927F928F929F92AF92BF92CF92DF925A
:101EC000EF92FF92CF934B015C0169017A0120E010
:101ED00030E040EA51E40E9491942B013C012FE64E
:101EE00032E143E85AEB0E94AB9687FD48C023E8F5
:101EF00030E048EC52E4C301B2010E940995181683
:101F00000CF43DC02FE632E143E85AEBC701B601BD
:101F10000E94AB9687FD33C023E830E048EC52E4E2
:101F2000C701B6010E94099518164CF124EF3DEF48
:101F30004FE951E4C501B4010E94AB9687FD1FC073
:101F400023E830E044EB52E4C501B4010E94099556
:101F50001816ACF027EE3BEF4FE151E4C701B60194
:101F60000E94AB9687FD0BC0C1E023E830E044EB54
:101F700052E4C701B6010E94099518160CF4C0E09E
:101F80008C2FCF91FF90EF90DF90CF90BF90AF90CC
:101F90009F908F907F906F905F904F900895FB017E
:101FA00001900020E9F73197AF01461B570BDC0188
:101FB000ED91FC910280F381E02D0994CF93DF93A2
:101FC0001F92CDB7DEB76983DC01ED91FC910280F1
:101FD000F381E02D41E050E0BE016F5F7F4F099536
:101FE0000F90DF91CF910895FF920F931F93CF939E
:101FF000DF93F82E092F162FE2E1F4E06491EF0150
:102000002196662329F080E49DE0D8DFFE01F6CF1B
:10201000EF2DF02F6491EF012196662329F080E4E3
:102020009DE0CCDFFE01F6CFE0E1F4E06491EF014A
:102030002196662329F080E49DE0C0DFFE01F6CF03
:10204000412F50E060E070E080E49DE00E94038C4E
:102050006AE080E49DE0DF91CF911F910F91FF90A6
:10206000ADCF0FB6F8948091350D9091360DA091BB
:10207000370DB091380D0FBE809387029093880280
:10208000A0938902B0938A0208954F925F926F9253
:102090007F92AF92BF92CF92DF92EF92FF92CF9357
:1020A000DF93EB01FC0160817181828193812CE3DC
:1020B000C22ED12CE12CF12CA70196010E94319463
:1020C000B62EA72ECA01B901A70196010E9431942C
:1020D0006B017C01CA01B90128E130E040E050E029
:1020E0000E9431942B013C01C9016DE671E00E9410
:1020F0001D9461157105D9F0AF92BF92DF92CF9216
:102100005F924F929F938F937F936F9386E796E0B2
:102110009F938F93DF93CF930E94DC9B8DB79EB7E5
:102120000E960FB6F8949EBF0FBE8DBF61C000978C
:10213000C9F0AF92BF92DF92CF925F924F929F937E
:102140008F9386E696E09F938F93DF93CF930E94C1
:10215000DC9BEDB7FEB73C960FB6F894FEBF0FBE02
:10216000EDBF46C04114510461047104B9F0AF924F
:10217000BF92DF92CF925F924F928AE596E09F9353
:102180008F93DF93CF930E94DC9B8DB79EB70A9607
:102190000FB6F8949EBF0FBE8DBF2AC0C114D104E4
:1021A000E104F104A9F0AF92BF92DF92CF9282E5F1
:1021B00096E09F938F93DF93CF930E94DC9BEDB7C4
:1021C000FEB738960FB6F894FEBF0FBEEDBF10C035
:1021D000AF92BF928EE496E09F938F93DF93CF935D
:1021E0000E94DC9B0F900F900F900F900F900F901C
:1021F000DF91CF91FF90EF90DF90CF90BF90AF90A5
:102200007F906F905F904F90089581548A3108F0CD
:1022100040C0A82FB0E040919F045091A00460916D
:10222000A1047091A20404C07695679557954795CF
:102230008A95D2F740FF2DC0E091AA04F091AB043B
:10224000AB57BB4F8C918823E1F0E80FF11D8081E3
:1022500090ED980F9A3080F08E3229F4818180536E
:102260008A3078F409C08D3211F08B3251F48181BB
:1022700090ED980F9A3018F49E2F8F2F04C08E3255
:1022800051F090E080E09093A6048093A70481E051
:10229000089580E00895828180538A3090F7ECCFD2
:1022A000B4DF882341F081E02091A6043091A70497
:1022B000232B09F480E008950F931F93CF9380910F
:1022C000A6049091A704009711F1FC018F01C19120
:1022D0002C2F2F7DA9F0C53411F0C536B9F7F801C0
:1022E000108260E070E08091A6049091A7040E94A3
:1022F0008F97F801C083562F472F382F292F0BC0F7
:1023000060E070E0CF911F910F910C948F9750E097
:1023100040E030E020E0652F742F832F922FCF9183
:102320001F910F9108958091A6049091A7040097A2
:1023300031F04AE050E060E070E00C94F59860E025
:1023400070E0CB0108958091A6049091A7040097B6
:1023500031F04AE050E060E070E00C941D9A60E0DB
:1023600070E0CB010895DFDF97FD0AC0DCDF6F3F2F
:1023700071058105910509F02CF4D5DF862F0895AC
:1023800080E008958FEF08958091A6049091A704AE
:10239000892B31F0E8DF91E0811103C090E001C0AA
:1023A00091E0892F08950F931F93CF93DF93CDB7BB
:1023B000DEB72C970FB6F894DEBF0FBECDBFEBE6AD
:1023C000F4E080859185A285B3854481558166813D
:1023D0007781008111812281338109871A872B87B8
:1023E0003C874D835E836F83788789839A83AB8331
:1023F000BC83AE014F5F5F4FBE016B5F7F4FCE016D
:1024000009960E94FC5627E734E0AE014F5F5F4F0C
:10241000BE016B5F7F4FCE0109960E946F652C96BF
:102420000FB6F894DEBF0FBECDBFDF91CF911F91E5
:102430000F9108952F923F924F925F926F927F92E9
:102440009F92AF92BF92CF92DF92EF92FF920F9343
:102450001F93CF93DF93CDB7DEB764970FB6F89491
:10246000DEBF0FBECDBF2A013B01902EA12E690118
:10247000082F10E0F801EB5EF64FE491BB24B39413
:102480001E160CF4B12CFF24F39420E030E0A901D7
:10249000C301B2010E94AB9618160CF0F12C000F8C
:1024A000111F000F111FC80185599B4F1C01FC0112
:1024B000108211821282138276DFF10140825182F2
:1024C00062827382E0908F0220E030E0A901692DE2
:1024D0007A2DC6010E940995811108C0F801EC5AB5
:1024E000F64F85919591A591B49103C0892D9A2DB0
:1024F000D601898B9A8BAB8BBC8B809173049091A6
:102500007404A0917504B091760440916F045091C9
:102510007004609171047091720400916B041091C9
:102520006C0420916D0430916E040D871E872F87F7
:10253000388B49875A876B877C878D839E83AF83CF
:10254000B88719821A821B821C82AE014B5F5F4FD3
:10255000BE01675F7F4FCE010D960E94FC56CE01F3
:1025600001966C018E010F5E1F4F27E734E0AE012C
:102570004B5F5F4FBE01675F7F4F0C960E948D647B
:102580000E947D58BF100E94B94B64960FB6F89414
:10259000DEBF0FBECDBFDF91CF911F910F91FF9096
:1025A000EF90DF90CF90BF90AF909F907F906F9013
:1025B0005F904F903F902F90089567E774E083E01D
:1025C0000C949566CF93DF9300D0CDB7DEB7209102
:1025D000320D3091330DCE0101962115310529F4CC
:1025E0008C549D409A83898304C0821B930B9A83E9
:1025F000898389819A810F900F90DF91CF910895FF
:10260000FF920F931F93CF93DF93FC0120812B3315
:1026100019F1D0915004D430F8F4F62EBC01C091D9
:102620004E040C2F10E0F0E6CF9FC001112482531E
:102630009D4F0E94BC9BF801E259FD4FF082CF5F95
:10264000C43018F4C0934E0402C010924E04DF5FF1
:10265000D093500481E001C080E0DF91CF911F91C1
:102660000F91FF900895EF92FF921F93CF93DF9306
:102670007C0160E0C5DF182F8823C9F0E9E6F0E1AE
:102680006491EF012196662329F080E49DE096DCB9
:10269000FE01F6CFB70188E099E00E94C36762E2CD
:1026A00080E49DE08BDC6AE080E49DE087DC812FA4
:1026B000DF91CF911F91FF90EF900895DF92EF92FD
:1026C000FF920F931F93CF93DF93CDB7DEB76E9733
:1026D0000FB6F894DEBF0FBECDBF6091CC027091F3
:1026E000CD026115710541F14DE150E0CE01019639
:1026F0007C010E94729B1E8EF7018F010E191F092B
:10270000D190DD2019F09AE0D912F7CFF701E00F50
:10271000F11F1082C701A7DF882371F0DD20A9F027
:102720000F5F1F4F8091CC029091CD02080F191FAF
:102730001093CD020093CC0281E02091CC02309125
:10274000CD02232B29F480E003C000E010E0F0CF9D
:102750006E960FB6F894DEBF0FBECDBFDF91CF915E
:102760001F910F91FF90EF90DF900895EF92FF92ED
:102770000F931F93CF93DF937C0184E591DDD82FD6
:10278000882369F1F0DDC82F18162CF5E9E6F0E191
:1027900064918F010F5F1F4F662329F080E49DE055
:1027A0000DDCF801F5CF6DE480E49DE007DCA701C6
:1027B00060E070E020E080E49DE00E94A78B6C2F39
:1027C000CC0F770B84EF97E00E94EB676AE080E420
:1027D0009DE0F4DB08C080938202D0E004C08091C9
:1027E0008F02809382028D2FDF91CF911F910F91E5
:1027F000FF90EF9008950F931F93CF93DF9394E092
:10280000899FE00111248E0102561D4FFE01E655FD
:10281000FD4FDE01AA54BD4F2D913D914D915C912C
:1028200060817181828193810E949294F80160831A
:10283000718382839383FE01E85BF64F85919591C6
:10284000A591B491FE01EE56FD4F80839183A28342
:10285000B383FE01E45CF64F85919591A591B49107
:10286000C55FDE4F88839983AA83BB83DF91CF91B5
:102870001F910F910895CF92DF92EF920F931F93C4
:10288000CF93DF93CDB7DEB760970FB6F894DEBF76
:102890000FBECDBFE0908F02EBE6F4E0808591851E
:1028A000A285B3854481558166817781008111813C
:1028B000228133810D871E872F87388B49875A875E
:1028C0006B877C878D839E83AF83B88719821A823A
:1028D0001B821C82AE014B5F5F4FBE01675F7F4F63
:1028E000CE010D960E94FC56CE0101966C0109E1C5
:1028F00011E027E734E0AE014B5F5F4FBE01675F39
:102900007F4F0C960E948D6460960FB6F894DEBFE0
:102910000FBECDBFDF91CF911F910F91EF90DF9050
:10292000CF9008954F925F926F927F928F929F9275
:10293000AF92BF92CF92DF92EF92FF920F931F93CD
:10294000CF93DF93CDB7DEB72C970FB6F894DEBFE9
:102950000FBECDBF6D837E838F83988729873A878B
:102960004B875C874701580136018091190190918E
:102970001A01A0911B01B0911C0189839A83AB833A
:10298000BC83D601CD90DD90ED90FC9020E030E04E
:10299000A901C701B6010E940995811106C0ECE5A5
:1029A000F9E0C590D590E590F490A501940160916F
:1029B00073047091740480917504909176040E9460
:1029C000099587FF11C0C0921901D0921A01E092B7
:1029D0001B01F0921C018092730490927404A092E7
:1029E0007504B092760447DFF30140805180628025
:1029F000738020E030E0A901C301B2010E94099573
:102A0000811108C0409001015090020160900301C3
:102A1000709004014092190150921A0160921B01BA
:102A200070921C018D819E81AF81B88580936B046B
:102A300090936C04A0936D04B0936E0489859A857D
:102A4000AB85BC8580936F0490937004A093710450
:102A5000B093720410DFA50194016091730470912A
:102A6000740480917504909176040E94AB961816B8
:102A70008CF4C0921901D0921A01E0921B01F092DD
:102A80001C018092730490927404A0927504B09219
:102A90007604F1DE0E947D5889819A81AB81BC81E8
:102AA0008093190190931A01A0931B01B0931C010C
:102AB0002C960FB6F894DEBF0FBECDBFDF91CF913D
:102AC0001F910F91FF90EF90DF90CF90BF90AF904C
:102AD0009F908F907F906F905F904F900895CF92CE
:102AE000DF92EF92FF920F931F936B01FC01E08046
:102AF000F18002811381EBE6F4E024813581468187
:102B0000578160817181828193810CDF1F910F91C8
:102B1000FF90EF90DF90CF900895CF92DF92EF92E9
:102B2000FF920F931F936A01E0907304F090740476
:102B30000091750410917604FB012081318142815E
:102B40005381FC016081718182819381EBDE1F9151
:102B50000F91FF90EF90DF90CF9008958091190131
:102B600090911A01A0911B01B0911C018093C802A1
:102B70009093C902A093CA02B093CB02809117012F
:102B8000909118019093C7028093C60284E690E06A
:102B9000909318018093170108958091C802909135
:102BA000C902A091CA02B091CB02809319019093FF
:102BB0001A01A0931B01B0931C018091C602909151
:102BC000C70290931801809317010895EF92FF9226
:102BD0000F931F93CF93DF93882329F0D0915A044A
:102BE000D095D17001C0D0E0662341F010915A0415
:102BF00011FB882780F911E0182701C010E0442359
:102C000041F0C0915A04C2FB882780F9C1E0C8276F
:102C100001C0C0E0D11105C0111103C0CC2309F4DB
:102C200057C0E9E6F0E164917F018FEFE81AF80AF6
:102C3000662329F080E49DE0C1D9F701F4CFEEEEE0
:102C4000F7E064917F018FEFE81AF80A662329F014
:102C500080E49DE0B3D9F701F4CFDD2371F0ECEE11
:102C6000F7E064917F018FEFE81AF80A662329F0F4
:102C700080E49DE0A3D9F701F4CF112369F0EAEED7
:102C8000F7E064918F010F5F1F4F662329F080E406
:102C90009DE094D9F801F5CFC11103C0E0EEF7E053
:102CA0000CC0E8EEF7E06491EF0121966623B1F3E2
:102CB00080E49DE083D9FE01F6CF6491EF01219677
:102CC000662329F080E49DE079D9FE01F6CFC1E0CA
:102CD0008C2FDF91CF911F910F91FF90EF9008956E
:102CE000BF92CF92DF92EF92FF920F931F93CF93F9
:102CF000DF93CDB7DEB728970FB6F894DEBF0FBECF
:102D0000CDBF90917F04981709F47AC0B82E88231C
:102D100009F453C080E090E0A0EAB0E48D839E8384
:102D2000AF83B887C0907E02D0907F02E09080028F
:102D3000F090810220E030E0A901C701B6010E94B5
:102D4000099587FF0CC0A701960160E070E080EA5A
:102D500090E40E9491946D837E838F83988720E016
:102D600030E04AEF52E46D817E818F8198850E9428
:102D7000AB96181644F480E090E0AAEFB2E48D839D
:102D80009E83AF83B887209173043091740440917F
:102D90007504509176046D817E818F8198850E94A3
:102DA000AB96181654F419821A821B821C82BE013B
:102DB0006F5F7F4FCE01059692DE60916B0470913C
:102DC0006C0480916D0490916E0420916F04309199
:102DD0007004409171045091720419821A821B820E
:102DE0001C82E0907304F0907404009175041091BB
:102DF0007604FE0131966F0195DD8B2D0E94C44B48
:102E000080E028960FB6F894DEBF0FBECDBFDF91ED
:102E1000CF911F910F91FF90EF90DF90CF90BF90D7
:102E200008954F925F926F927F928F929F92AF928E
:102E3000BF92CF92DF92EF92FF920F931F93CF93A7
:102E4000C82FE82EF12CF701EB5EF64FB4908230DC
:102E500021F481E045DF811107C16701CC0CDD1C45
:102E6000CC0CDD1CF601EC5DF64F4590559065905D
:102E700074906B2DBB0C770B880B990B0E94A89557
:102E80004B015C0120E030E040EC5FE3C301B201A4
:102E90000E94DF96A50194010E94DF96AB01BC0160
:102EA00000E010E098018C2FC5DAC23041F0F60145
:102EB000E85EF64F259135914591549104C020E08C
:102EC00030E040E450E4C501B4010E94DF964B01BC
:102ED0005C0120E030E0A9010E940995882309F4F3
:102EE0005CC0C23021F000E010E0980104C000E0B6
:102EF00010E020E830E4B501A40170588C2F9ADA74
:102F0000C23009F439C0F701E658F84F84918111B5
:102F10001DC0E9E6F0E164917F018FEFE81AF80A3D
:102F2000662329F080E49DE049D8F701F4CFE8E575
:102F3000F7E064917F018FEFE81AF80A662329F021
:102F400080E49DE03BD8F701F4CF8AE0F601EC5A2B
:102F5000F64F4590559065907490682F70E080E032
:102F600090E00E94A8959B01AC01C301B2010E94B0
:102F70000D952B013C0105C0412C512C612C90E496
:102F8000792EA5019401C501B4010E949294AB0170
:102F9000BC01930182018C2F4DDA81E090E00C2E70
:102FA00001C0880F0A94EAF790915904982B9093E6
:102FB000590490915A04892B80935A04F601EA54DB
:102FC000FD4F10821182128213828C2F14DCF601C5
:102FD000E05DF64F85919591A591B491F601E55983
:102FE000FB4F80839183A283B383C230D1F42091BD
:102FF0007E0230917F024091800250918102609167
:1030000073047091740480917504909176040E9409
:1030100091946093730470937404809375049093F7
:103020007604C1D9F601E55AFB4FD601A559BB4F2D
:103030008D919D910D90BC91A02D80839183A28351
:10304000B383C23089F480E0CF911F910F91FF903C
:10305000EF90DF90CF90BF90AF909F908F907F9038
:103060006F905F904F903CCECF911F910F91FF904A
:10307000EF90DF90CF90BF90AF909F908F907F9018
:103080006F905F904F900895AF92BF92CF92DF9272
:10309000EF92FF920F931F93CF93DF938DEEA82EA5
:1030A00081E0B82E9BE5E92E94E0F92E0BE614E0C2
:1030B0002EE9C22E22E0D22EC0E0D0E0F5018191AF
:1030C0005F01A3D8882319F1F7D8FE01EE53FD4F15
:1030D0002081211104C020918E02222341F0F801A9
:1030E00020813181428153810E9492940AC0C33071
:1030F000D10539F0F60120813181428153810E944E
:103100009194F70160837183828393830AC0F801ED
:1031100080819181A281B381F70180839183A28311
:10312000B3832196F4E0EF0EF11C0C5F1F4F84E097
:10313000C80ED11CC430D10509F0C0CF86E4B0D888
:103140008823B9F0B9D820E030E0A9010E94AB96FD
:1031500018167CF4B1D820E030E040E752E40E9439
:103160000D956093190170931A0180931B01909340
:103170001C01DF91CF911F910F91FF90EF90DF9095
:10318000CF90BF90AF900895CF92DF92EF92FF92D1
:103190000F931F93CF93DF930FB6F894C090350D24
:1031A000D090360DE090370DF090380D0FBE809125
:1031B0008D02811174C080910001882309F46FC0D1
:1031C00080916D02882309F46AC040916902509190
:1031D0006A0260916B0270916C0297018601041B78
:1031E000150B260B370B37FD6DC0833031F134F4EE
:1031F00081300CF454C0E9E6F0E106C0843009F0F7
:103200004EC0E9E6F0E133C06491EF0121966623F8
:1032100031F080E49DE00E94DE0FFE01F5CFECEA84
:10322000F7E06491EF012196662309F438C080E449
:103230009DE00E94DE0FFE01F4CFE9E6F0E164912B
:10324000EF012196662331F080E49DE00E94DE0FBD
:10325000FE01F5CFE5E9F7E06491EF0121966623E1
:10326000F1F080E49DE00E94DE0FFE01F5CF649155
:10327000EF012196662331F080E49DE00E94DE0F8D
:10328000FE01F5CFEDE7F7E06491EF0121966623AB
:1032900031F080E49DE00E94DE0FFE01F5CF209129
:1032A000000130E0A8EEB3E00E947894C60ED71E6D
:1032B000E81EF91EC0926902D0926A02E0926B0287
:1032C000F0926C02DF91CF911F910F91FF90EF90E0
:1032D000DF90CF9008950F931F93CF93DF9300D08B
:1032E00000D0CDB7DEB78091590483708330E9F008
:1032F000E9E6F0E164918F010F5F1F4F662331F023
:1033000080E49DE00E94DE0FF801F4CFE9E4F7E0ED
:1033100064918F010F5F1F4F662309F43DC080E465
:103320009DE00E94DE0FF801F3CF3DD880E090E0F1
:10333000A8E4B2E480935F0490936004A0936104D6
:10334000B09362048091730490917404A091750409
:10335000B09176048093630490936404A093650411
:10336000B093660480E090E0A0EFB1E480935B044A
:1033700090935C04A0935D04B0935E0419821A825A
:103380001B821C82AE014F5F5F4F6FE574E08BE5DF
:1033900094E0C3DB82E045DD0F900F900F900F901B
:1033A000DF91CF911F910F9108950F931F93CF93AA
:1033B000DF93CDB7DEB769970FB6F894DEBF0FBEC7
:1033C000CDBF0E943C766E8B7F8B888F998FBE011C
:1033D0006F5F7F4FCE0146960E944510E9E6F0E10F
:1033E00064918F010F5F1F4F662331F080E49DE0F1
:1033F0000E94DE0FF801F4CFBE016F5F7F4F8AE8B5
:1034000096E00E94C3676AE080E49DE00E94DE0FC0
:1034100069960FB6F894DEBF0FBECDBFDF91CF9196
:103420001F910F910895CF93DF93EFE6F0E1649140
:10343000EF012196662331F080E49DE00E94DE0FCB
:10344000FE01F5CFE2E1F6E06491EF0121966623FB
:1034500031F080E49DE00E94DE0FFE01F5CFDF91A8
:10346000CF91089588E690E081D9811122C08091A2
:103470007B0483FD1EC083E50E9450118823B9F0B0
:103480000E945C110E94759570932A0D6093290D1E
:1034900080E00E949A7A0E945C1120E030E04AEAC3
:1034A00052E40E940995181614F00E94E5750C94D8
:1034B0008F670895CF93DF9389E690E057D9811104
:1034C00016C0E4ECF5E06491EF012196662331F03B
:1034D00080E49DE00E94DE0FFE01F5CF0E944D804A
:1034E0006AE080E49DE0DF91CF910C94DE0FDF91E4
:1034F000CF910895CF92DF92EF92FF9283E50E94E1
:103500005011882321F10E94B3118D3308F08CE310
:103510008093BF0C0FB6F894C090350DD090360D47
:10352000E090370DF090380D0FBE282F30E0A8EE58
:10353000B3E00E947894C60ED71EE81EF91EC09212
:10354000BB0CD092BC0CE092BD0CF092BE0CFF9074
:10355000EF90DF90CF90089580E50E945011811187
:1035600006C083E50E945011882359F005C00E94CF
:10357000B31181110CC0F5CF0E9493116F3F7105FB
:1035800010F06FEF70E070939102609390020895D5
:1035900080917B0483FD14C083E50E945011882331
:1035A00079F00E945C110E9475956639710514F0DE
:1035B00066E970E07093220D6093210D0C94EC7A13
:1035C0000895DF92EF92FF920F931F93CF93DF93B3
:1035D00083E50E940511882359F083E50E9450116C
:1035E000882319F00E94B31101C080E080937B040E
:1035F000E9E6F0E16491EF012196662331F080E481
:103600009DE00E94DE0FFE01F5CFEBE0F6E0649155
:10361000EF012196662331F080E49DE00E94DE0FE9
:10362000FE01F5CF80917B048823A9F181E0E82E8B
:1036300086E0F82E00E010E020E080917B0490E02E
:10364000002E02C0959587950A94E2F780FF1AC074
:10365000DD24D394D20E222329F06CE280E49DE095
:103660000E94DE0FF70185919491FC016491EC01B9
:103670002196662331F080E49DE00E94DE0FCE01AA
:10368000F4CF2D2D0F5F1F4FF2E0EF0EF11C053030
:10369000110599F60DC0EDEFF5E06491EF0121966B
:1036A000662331F080E49DE00E94DE0FFE01F5CF3D
:1036B0006AE080E49DE0DF91CF911F910F91FF9030
:1036C000EF90DF900C94DE0FCF93DF9383E50E94A1
:1036D0005011882351F00E94B3118D3308F08CE310
:1036E00080930001DF91CF910895E9E6F0E16491C4
:1036F000EF012196662331F080E49DE00E94DE0F09
:10370000FE01F5CF4091000150E060E070E087ECF1
:1037100095E00E9449686AE080E49DE0DF91CF91E6
:103720000C94DE0F4F925F926F927F92AF92BF9296
:10373000CF92DF92EF92FF920F931F93CF938DEE74
:10374000A82E81E0B82E04E515E0C0E0F5018191D6
:103750005F010E940511882309F46DC0C33009F090
:1037600063C00E945C116B017C0120E030E040EA04
:1037700051E40E94099587FF4EC0A7019601609110
:1037800060057091610580916205909163050E94CA
:103790000D952B013C019B01AC0160912C057091B2
:1037A0002D0580912E0590912F050E94DF96609344
:1037B0002C0570932D0580932E0590932F05A30162
:1037C00092016091700570917105809172059091E0
:1037D00073050E94DF966093700570937105809366
:1037E00072059093730560918405709185058091B1
:1037F0008605909187050E94A695A30192010E94DB
:10380000DF960E947A956093840570938505809376
:10381000860590938705C0926005D0926105E0927D
:103820006205F092630507C00E945C11F801608395
:10383000718382839383CF5F0C5F1F4FC43009F085
:1038400085CFCF911F910F91FF90EF90DF90CF9098
:10385000BF90AF907F906F905F904F900C946B678C
:103860000F931F93CF93DF93CBE6D4E00EE912E0E2
:10387000F8012081318142815381688179818A8177
:103880009B810E949294AB01BC0180E497E00E946E
:103890002868F80124813581468157816C817D81BA
:1038A0008E819F810E949294AB01BC018CE397E0D2
:1038B0000E942868F80120853185428553856885F6
:1038C00079858A859B850E949294AB01BC0188E32F
:1038D00097E00E9428684C855D856E857F8584E32E
:1038E00097E00E942868DF91CF911F910F910C946F
:1038F00043754F925F926F927F928F929F92AF9299
:10390000BF92CF92DF92EF92FF920F931F93CF93CC
:10391000DF938DEEC82E81E0D82E96EBE92E92E053
:10392000F92E00E010E0C0E0D0E0F60181916F01D7
:103930000E945011882309F44DC00E945C114B0174
:103940005C01C33059F0F801E256FD4F208131810E
:10395000428153810E9491944B015C01F801E55929
:10396000FB4F2081318142815381C501B4010E9406
:1039700091942B013C012DEB37E346E855EB0E9477
:10398000AB9687FD0AC02DEB37E346E855E3C3014C
:10399000B2010E9409951816ECF4C33051F48092DC
:1039A000770490927804A0927904B0927A04D1E0DE
:1039B00011C0A3019201F70160817181828193811D
:1039C0000E949294F70160837183828393838C2F8A
:1039D0000E94FB13CF5FF4E0EF0EF11C0C5F1F4F52
:1039E000C43009F0A2CFD1110E94DD12DF91CF9136
:1039F0001F910F91FF90EF90DF90CF90BF90AF900D
:103A00009F908F907F906F905F904F9029CFCF9332
:103A1000DF93E6EFF4E06491EF012196662331F045
:103A200080E49DE00E94DE0FFE01F5CF60E086EEAF
:103A300094E00E94F40F61E08FED94E00E94F40F97
:103A400061E084ED94E00E94F40F61E084EC94E086
:103A50000E94F40F60E08BEB94E00E94F40F61E0B1
:103A600081EB94E00E94F40F61E087EA94E00E9409
:103A7000F40F61E08FE994E00E94F40F61E081E9C6
:103A800094E00E94F40F60E083E894E00E94F40F59
:103A900060E084E794E00E94F40F60E086E694E042
:103AA0000E94F40F60E080E594E00E94F40F60E073
:103AB0008FE394E00E94F40F60E08AE294E00E94B9
:103AC000F40F61E087E194E0DF91CF910C94F40F63
:103AD000FF920F931F93CF93DF93C091A804D091CF
:103AE000A90483E0F12C40E08150D1F09881292F86
:103AF0002B7F2134C9F729812133B1F7913421F08B
:103B0000953421F441E002C0FF24F3949E012E5F1E
:103B10003F4FE9012F5F3F4F98819032D1F3E4CFBF
:103B2000442371F0E9E6F0E164918F010F5F1F4FCC
:103B3000662331F080E49DE00E94DE0FF801F4CFAF
:103B4000FF2071F0ECE0F4E064918F010F5F1F4FF4
:103B5000662331F080E49DE00E94DE0FF801F4CF8F
:103B6000BE0180E49DE00E94CF0F6AE080E49DE00A
:103B7000DF91CF911F910F91FF900C94DE0FCF93A7
:103B800088EC90E00E94B613811140C084E40E944A
:103B900005118823C1F10E945C11C1E020E030E0F2
:103BA000A9010E940995811101C0C0E0C093AC0435
:103BB000CC2349F10E945C11E091820224E0E29F53
:103BC000F0011124E45EFA4F608371838283938352
:103BD00020E030E0A90160911C0570911D058091E5
:103BE0001E0590911F050E94099581110CC080E06F
:103BF00090E0A0EEBFE380931C0590931D05A09379
:103C00001E05B0931F05CF910C949756CF91089540
:103C1000CF9383E50E9450118823A1F00E945C118C
:103C200060933C0570933D0580933E0590933F055E
:103C3000609334057093350580933605909337056E
:103C4000C0E001C0C1E080E50E945011882359F016
:103C50000E945C1160933C0570933D0580933E0586
:103C600090933F05C0E082E50E945011882359F0EF
:103C70000E945C11609338057093390580933A0572
:103C800090933B05C0E084E50E945011882359F0D1
:103C90000E945C116093340570933505809336055E
:103CA000909337052CC0CC2351F140913C055091A5
:103CB0003D0560913E0570913F058CEF93E00E94B9
:103CC0002868409138055091390560913A05709106
:103CD0003B0589EF93E00E9428684091340550919C
:103CE0003505609136057091370586EF93E00E94A7
:103CF00028686AE080E49DE0CF910C94DE0FCF91BC
:103D0000089581E50E940511882351F00E94A311B6
:103D1000609374057093750580937605909377058D
:103D200083E50E940511882351F00E945C11609385
:103D3000400570934105809342059093430584E5C7
:103D40000E940511882351F00E945C116093300598
:103D500070933105809332059093330588E50E9476
:103D60000511882351F00E945C1160932005709327
:103D70002105809322059093230589E50E94051172
:103D8000882351F00E945C116093240570932505EF
:103D900080932605909327058AE50E9405118823C4
:103DA00051F00E945C11609328057093290580935F
:103DB0002A0590932B0585E40E940511882351F074
:103DC0000E945C1160932C0570932D0580932E0545
:103DD00090932F050895EF92FF920F931F93CF9327
:103DE0008DEEE82E81E0F82E0AEA12E0C0E0F7013D
:103DF00081917F010E940511882351F00E945C117E
:103E0000F80160837183828393838C2F0E94FB135C
:103E1000CF5F0C5F1F4FC33051F7CF911F910F91B0
:103E2000FF90EF901DCDCF93DF93E9E6F0E1649131
:103E3000EF012196662331F080E49DE00E94DE0FC1
:103E4000FE01F5CF83E50E940511882321F00E9431
:103E5000C41180930A01E8ECF3E06491EF0121962C
:103E6000662331F080E49DE00E94DE0FFE01F5CF75
:103E700080910A01811103C0E0ECF3E002C0E4ECA0
:103E8000F3E06491EF012196662331F080E49DE038
:103E90000E94DE0FFE01F5CFE8EBF3E06491EF0145
:103EA0002196662331F080E49DE00E94DE0FFE0142
:103EB000F5CF20919E0230919F024091A002509137
:103EC000A10260919202709193028091940290916C
:103ED00095020E949294AB01BC0186EB93E00E9494
:103EE00028682091A2023091A3024091A40250912F
:103EF000A50260919602709197028091980290912C
:103F000099020E949294AB01BC0183EB93E00E9462
:103F100028682091A6023091A7024091A8025091F2
:103F2000A90260919A0270919B0280919C029091EB
:103F30009D020E949294AB01BC0180EB93E00E9431
:103F40002868E8EAF3E06491EF012196662331F0F6
:103F500080E49DE00E94DE0FFE01F5CF20919E02DD
:103F600030919F024091A0025091A10260910B01FB
:103F700070910C0180910D0190910E010E9492941C
:103F8000AB01BC0186EA93E00E9428682091A2025E
:103F90003091A3024091A4025091A50260910F01BB
:103FA0007091100180911101909112010E949294E0
:103FB000AB01BC0183EA93E00E9428682091A6022D
:103FC0003091A7024091A8025091A902609113017B
:103FD0007091140180911501909116010E949294A4
:103FE000AB01BC0180EA93E00E9428686AE080E4AB
:103FF0009DE0DF91CF910C94DE0F0F931F93CF9331
:10400000DF938DED90E00E94B613811170C083E5BF
:104010000E9450118823B9F1C0918202D0E00E9421
:104020009311CC0FDD1FC25DDE4F798368838091D1
:10403000820290E0EC01CC0FDD1FCC0FDD1F8E0162
:10404000065D1E4F880F991FFC01E25DFE4F6081E7
:104050007181072E000C880B990B0E94A8952AE00D
:1040600037ED43E25CE30E94DF96C85EDA4F2881B9
:1040700039814A815B810E94DF96F80160837183F8
:104080008283938334C0E9E6F0E16491EF012196E5
:10409000662331F080E49DE00E94DE0FFE01F5CF43
:1040A00065E480E49DE00E94DE0F60918202605D25
:1040B00080E49DE00E94DE0FE0918202F0E0EE0FCE
:1040C000FF1FE25DFE4F6081718188E993E00E94ED
:1040D000EB6765E280E49DE00E94DE0F6AE080E429
:1040E0009DE0DF91CF911F910F910C94DE0FDF9136
:1040F000CF911F910F910895CF92DF92EF92FF928F
:10410000CF93DF938AE50E945011811106C083E5A9
:104110000E945011882309F481C00E945C1120E0A4
:1041200030E040E050EC0E94099587FD15C00E94E8
:104130005C1120E030E040E050E40E94AB9618169D
:104140002CF00E945C116B017C010BC0C12CD12CA6
:10415000E12C90E4F92E05C0C12CD12CE12C80EC8F
:10416000F82E20915C0530915D0540915E055091DF
:104170005F058091590482FF10C0C091040DD09159
:10418000050DC701B6010E94DF960E947595C60F06
:10419000D71FD093050DC093040D80E50E94051133
:1041A000882321F00E94C4118823C1F1A701960140
:1041B00060917E0270917F028091800290918102D5
:1041C0000E94929460937E0270937F02809380029B
:1041D00090938102E9E6F0E16491EF012196662374
:1041E00031F080E49DE00E94DE0FFE01F5CF4091AA
:1041F0007E0250917F02609180027091810287E877
:1042000093E00E9428686AE080E49DE0DF91CF910E
:10421000FF90EF90DF90CF900C94DE0FDF91CF9165
:10422000FF90EF90DF90CF900895CF93DF9385E4D8
:104230000E945011811110C080E50E940511882351
:1042400091F00E945C1160930E0D70930F0D80939E
:10425000100D9093110D07C00E94B311882361F3D4
:10426000EFE6F0E172C089E40E940511882381F035
:104270000E945C112CEA35EC47E25EE30E94DF9677
:1042800060930A0D70930B0D80930C0D90930D0DA0
:1042900084E40E940511882381F00E945C112CEABD
:1042A00035EC47E25EE30E940D956093060D709336
:1042B000070D8093080D9093090DE9E6F0E16491F4
:1042C000EF012196662331F080E49DE00E94DE0F2D
:1042D000FE01F5CF40910E0D50910F0D6091100D24
:1042E0007091110D83E893E00E9428682CEA35EC68
:1042F00047E25EE360910A0D70910B0D80910C0D09
:1043000090910D0D0E940D95AB01BC018FE793E0DC
:104310000E9428682CEA35EC47E25EE36091060DC6
:104320007091070D8091080D9091090D0E94DF9604
:10433000AB01BC018BE793E00E9428686AE080E44F
:104340009DE0DF91CF910C94DE0F6491EF012196F7
:10435000662331F080E49DE00E94DE0FFE01F5CF80
:10436000E9E6F3E06491EF012196662331F080E401
:104370009DE00E94DE0FFE01F5CFDF91CF91089501
:10438000CF93DF9383E50E940511C82F882371F036
:104390000E945C110E9475957093490160934801D9
:1043A00021E0672B09F020E02093F90C80E50E94C2
:1043B0000511882359F02091480130914901232BA0
:1043C00011F00E94C4118093F90C31C0C1112FC0AB
:1043D000E9E6F0E16491EF012196662331F080E493
:1043E0009DE00E94DE0FFE01F5CF8091F90C811156
:1043F00003C062ED71E002C06FEC71E086E593E00E
:104400000E94C367609148017091490185E493E07F
:104410000E94EB67E1E4F3E06491EF0121966623EB
:1044200031F080E49DE00E94DE0FFE01F5CFDF91C8
:10443000CF9108958F929F92AF92BF92EF92FF9289
:104440000F931F93CF93DF9300D000D0CDB7DEB78B
:1044500085E40E945011882321F00E9493118B0162
:1044600002C000E010E083E40E945011882321F094
:104470000E949311F62E02C025E0F22E85E50E94DF
:104480005011882321F00E94C411E82E04C085E554
:104490000E940511E82E17FD07C0812C912C96E192
:1044A000A92E93E4B92E06C0812C912C8CE8A82E5D
:1044B00082E4B82E83E50E945011882321F00E94E7
:1044C0005C114B015C01C501B4010E947595011599
:1044D000110511F410928202072E000C880B990B23
:1044E0000E94A89569837A838B839C832E2D4F2D00
:1044F000602FCE0101960E94D8800F900F900F90F0
:104500000F90DF91CF911F910F91FF90EF90BF908F
:10451000AF909F908F9008952F923F924F925F920D
:104520006F927F928F929F92AF92BF92CF92DF92C3
:10453000EF92FF920F931F93CF93DF93CDB7DEB728
:104540002F970FB6F894DEBF0FBECDBF41E061E0FC
:1045500081E00E94E6158111BAC090E3892E99E0AE
:10456000992E8BE694E09E878D87FE0131965F0140
:1045700005E119E01F01F3E0F00FFF87F4016591F9
:10458000759185919491ED85FE85C190D190E190D2
:10459000F190FE87ED87A70196010E9491942B016F
:1045A0003C0120E030E040EA51EC0E94AB9687FDF0
:1045B00010C020E030E040EA51E4C301B2010E94A3
:1045C0000995181634F0F10140825182628273829B
:1045D0000DC0F80184911816B4F7F7FAF094F7F8C3
:1045E000F094F101C082D182E282F382F101C190A4
:1045F000D190E190F1901F0120E030E040EA51ECD1
:10460000C701B6010E94AB9687FF03C0EFE6F0E159
:104610000BC020E030E040EA51E4C701B6010E943F
:1046200009951816E4F4F2CF64918F010F5F1F4FC4
:10463000662331F080E49DE00E94DE0FF801F4CFA4
:10464000E8EDF3E064918F010F5F1F4F662309F4DB
:104650003EC080E49DE00E94DE0FF801F3CFF4E05D
:104660008F0E911C0F5F1F4F8F85801387CF8AEAB3
:10467000E82E82E0F82E10E0F50181919191A19150
:10468000B1915F01F70181939193A193B1937F0160
:10469000812F0E94FB131F5F133071F72F960FB607
:1046A000F894DEBF0FBECDBFDF91CF911F910F9168
:1046B000FF90EF90DF90CF90BF90AF909F908F9042
:1046C0007F906F905F904F903F902F90C9C82F962A
:1046D0000FB6F894DEBF0FBECDBFDF91CF911F9113
:1046E0000F91FF90EF90DF90CF90BF90AF909F9091
:1046F0008F907F906F905F904F903F902F90089594
:10470000CF93DF930E94584B8823D1F0E9E6F0E184
:104710006491EF012196662331F080E49DE00E94D0
:10472000DE0FFE01F5CFEDEDF2E06491EF01219691
:10473000662331F080E49DE00E94DE0FFE01F5CF9C
:10474000DF91CF910895CF92DF92EF92FF92CF93B6
:10475000DF938AE50E945011882309F43AC00E9431
:104760005C116B017C0120E030E040EA50EC0E94DB
:10477000AB9687FD13C020E030E040EA51E4C7016A
:10478000B6010E94099518164CF0C0927E02D09294
:104790007F02E0928002F09281024CC0EFE6F0E1ED
:1047A0006491EF01219661110EC0E1ECF2E0649199
:1047B000EF012196662309F43DC080E49DE00E944C
:1047C000DE0FFE01F4CF80E49DE00E94DE0FFE01CB
:1047D000E7CFE9E6F0E16491EF012196662331F03D
:1047E00080E49DE00E94DE0FFE01F5CFE2EBF2E0F7
:1047F0006491EF012196662331F080E49DE00E94F0
:10480000DE0FFE01F5CF40917E0250917F02609154
:104810008002709181028FEA92E00E9428686AE02B
:1048200080E49DE0DF91CF91FF90EF90DF90CF90FB
:104830000C94DE0FDF91CF91FF90EF90DF90CF903F
:104840000895CF92DF92EF92FF92CF93DF938BE4A4
:104850000E9450118823B1F18BE40E9450118823EB
:10486000B1F00E945C116B017C0120E030E0A901F5
:104870000E94AB9687FD19C020E030E040E251E491
:10488000C701B6010E94099518167CF003C0C12C1F
:10489000D12C76010E947D58C092C504D092C604E6
:1048A000E092C704F092C80431C0E0E9F2E06491FC
:1048B000EF012196662351F180E49DE00E94DE0F16
:1048C000FE01F5CFE9E6F0E16491EF012196662360
:1048D00031F080E49DE00E94DE0FFE01F5CF4091B3
:1048E000C5045091C6046091C7047091C80485E85E
:1048F00092E00E9428686AE080E49DE0DF91CF9119
:10490000FF90EF90DF90CF900C94DE0FDF91CF916E
:10491000FF90EF90DF90CF900895CF93DF93EFE675
:10492000F0E16491EF012196662331F080E49DE08F
:104930000E94DE0FFE01F5CFE2E3F3E06491EF01A8
:104940002196662331F080E49DE00E94DE0FFE0197
:10495000F5CFDF91CF9108951F93CF93DF93182F59
:10496000E9E6F0E16491EF012196662331F080E4FD
:104970009DE00E94DE0FFE01F5CF64E580E49DE03E
:104980000E94DE0F412F50E060E070E020E080E404
:104990009DE00E94A78B60E280E49DE00E94DE0F14
:1049A000E0E1F7E06491EF012196662331F080E4C5
:1049B0009DE00E94DE0FFE01F5CFDF91CF911F91A8
:1049C0000895CF93DF93E0914F04F0E0E259FD4F5B
:1049D00080818823A1F0E9E7F2E06491EF0121965C
:1049E000662331F080E49DE00E94DE0FFE01F5CFEA
:1049F0006AE080E49DE0DF91CF910C94DE0FDF91BF
:104A0000CF910895CF92DF92EF92FF92CF93DF93F1
:104A100020910A01222309F485C0EC01C090920282
:104A2000D0909302E0909402F0909502A701960135
:104A3000688179818A819B810E94099587FF04C0E2
:104A4000C882D982EA82FB82C0909602D0909702F7
:104A5000E0909802F0909902A70196016C817D8107
:104A60008E819F810E94099587FF04C0CC82DD82E0
:104A7000EE82FF82C0900B01D0900C01E0900D01FE
:104A8000F0900E01A7019601688179818A819B814E
:104A90000E94AB96181624F4C882D982EA82FB825F
:104AA000C0900F01D0901001E0901101F090120120
:104AB000A70196016C817D818E819F810E94AB96BA
:104AC000181624F4CC82DD82EE82FF82C0909A0216
:104AD000D0909B02E0909C02F0909D02A70196016D
:104AE000688579858A859B850E94099587FF04C022
:104AF000C886D986EA86FB86C0901301D09014013F
:104B0000E0901501F0901601A7019601688579855E
:104B10008A859B850E94AB96181624F4C886D98690
:104B2000EA86FB86DF91CF91FF90EF90DF90CF90E8
:104B30000895CF93DF9380E00E946958C2E7D2E0E6
:104B4000688379838A839B8381E00E9469586C83A0
:104B50007D838E839F8382E00E946958688779876E
:104B60008A879B87DF91CF910895CF93DF93E1DF11
:104B70006BE580E49DE00E94DE0FC2E7D2E0488151
:104B800059816A817B8122E080E49DE00E94108C43
:104B90004C815D816E817F8186E497E00E94286868
:104BA000488559856A857B8583E497E00E9428685B
:104BB0006DE580E49DE00E94DE0F6AE080E49DE008
:104BC000DF91CF910C94DE0FCF93C82FB2DF82E735
:104BD00092E00E948257CE3F51F48CE0E2E7F2E08F
:104BE000ABE6B4E001900D928A95E1F713C024E0A2
:104BF000C29FC0011124FC01E559FB4FDC01AE58F6
:104C0000BD4F8D919D910D90BC91A02D808391837E
:104C1000A283B383CF910895CF93909117058917FD
:104C200089F0C82F0E947D58C0931705C11103C099
:104C30008EEFCADF04C08BE694E00E948257CF91CA
:104C40000C94D311CF91089580E0E6DF83EF94E0D8
:104C50000C945B898F929F92AF92BF92EF92FF92DA
:104C60000F931F93CF93DF9300D000D0CDB7DEB763
:104C7000182F909159049770973079F48FE40E941F
:104C80005011882329F00E94C411882331F094C068
:104C90008FE40E94051181118FC00E947D5880E031
:104CA000BBDF0E94AE1581E00E94B14B11111AC00A
:104CB00088E50E940511F82E89E50E940511082F4C
:104CC0008AE50E940511E82EF11007C0011111C0FC
:104CD000811110C0F02E11E00DC0002351F0F02E14
:104CE000182F08C001E0FF24F394EE24E39411E0B0
:104CF00001C010E080E1EBE6F4E0ABE5B4E0019048
:104D00000D928A95E1F782E50E945011882361F0A7
:104D10000E945C114B015C0120E030E0A9010E947F
:104D20000995882369F105C0812C912C80E4A82E77
:104D3000BA2C111104C0F11002C0002391F180922D
:104D4000630490926404A0926504B092660420917A
:104D50007304309174044091750450917604C50138
:104D6000B4010E94AB9618165CF419821A821B8259
:104D70001C82BE016F5F7F4F83E694E00E946F1537
:104D8000111105C0F11003C0011106C00AC080E076
:104D90000E9411171123C1F381E00E941117111114
:104DA00001C0E1100E946B190E94D3110E94B44B04
:104DB0000E94CD150E94301C0F900F900F900F9005
:104DC000DF91CF911F910F91FF90EF90BF90AF9027
:104DD0009F908F900895CF93DF93C82F0E947D58A6
:104DE000D091170580E018DFCC2321F08C2FDF91C4
:104DF000CF91B2CD10928F028D2F0EDFE9E6F0E158
:104E00006491EF012196662331F080E49DE00E94D9
:104E1000DE0FFE01F5CF60918F0270E082E297E035
:104E20000E94EB676AE080E49DE0DF91CF910C94F3
:104E3000DE0F0F931F93CF93DF93CDB7DEB72C9781
:104E40000FB6F894DEBF0FBECDBF83E50E940511FB
:104E5000882341F00E94C411182F811105C080E001
:104E6000DBDE02C01091170580916B0490916C04F9
:104E7000A0916D04B0916E0489839A83AB83BC8347
:104E800080916F0490917004A0917104B0917204AC
:104E90008D839E83AF83B88780917304909174044F
:104EA000A0917504B091760489879A87AB87BC87F7
:104EB00086E50E940511882331F065E173E083EFF8
:104EC00094E00E94488B812FA7DE111103C0E9E610
:104ED000F0E120C0809117058111F9CFEFE6F0E1F4
:104EE00064918F010F5F1F4F662331F080E49DE0D6
:104EF0000E94DE0FF801F4CFE6EFF2E064918F013B
:104F00000F5F1F4F662319F380E49DE00E94DE0FC0
:104F1000F801F4CF64918F010F5F1F4F662331F0CA
:104F200080E49DE00E94DE0FF801F4CF8091170528
:104F3000811103C06AED71E002C066ED71E088EE98
:104F400092E00E94C3676AE080E49DE00E94DE0F69
:104F50004CE050E06BE674E0CE0101960E949B9B12
:104F6000892B61F02C960FB6F894DEBF0FBECDBF33
:104F7000DF91CF911F910F910C94301C2C960FB69E
:104F8000F894DEBF0FBECDBFDF91CF911F910F917F
:104F900008950E941A580E947D588EEF15DE0C94D9
:104FA000D3112F923F924F925F926F927F928F9286
:104FB0009F92AF92BF92CF92DF92EF92FF920F93A8
:104FC0001F93CF93DF93CDB7DEB7A0970FB6F894BA
:104FD000DEBF0FBECDBF1C017F8F6E8F498F28A310
:104FE000DC018D909D90AD90BC90FB014080518084
:104FF000628073800023A1F0A3019201C501B40176
:105000000E94560F882309F4EFC120E030E040EA07
:1050100051E4C501B4010E9491944B015C012AC086
:105020002FE632E143E85AEBC501B4010E94AB968A
:1050300087FDDAC123E830E048EC52E4C501B40151
:105040000E94099518160CF4CFC12FE632E143E80F
:105050005AEBC301B2010E94AB9687FDC5C123E89C
:1050600030E048EC52E4C301B2010E9409951816E1
:105070000CF4BAC1E0907304F090740400917504CC
:10508000109176048091190190911A01A0911B0151
:10509000B0911C018A8F9B8FAC8FBD8F80910101D5
:1050A00090910201A0910301B09104018093190134
:1050B00090931A01A0931B01B0931C0119821A82CC
:1050C0001B821C82DE0111966D01A3019201C501B4
:1050D000B4010E94921481E00E9470168111E4C014
:1050E0008091590482FF11C020917E0230917F028D
:1050F000409180025091810260E070E080E090EC8D
:105100000E9491942B013C0106C0412C512C90E24D
:10511000692E91EC792E4D865E866F86788AC12C39
:10512000D12C80E8E82E80E4F82EC986DA86EB865A
:10513000FC86BE01675F7F4FCE010D960E946F1502
:10514000109181041092810482E03EDD0E94D3110F
:1051500012FD05C060E070E080EC9FE75EC08090CB
:10516000730490907404A0907504B0907604C98282
:10517000DA82EB82FC8220E030E040E450E4C501BA
:10518000B4010E9492946D837E838F839887BE01C1
:105190006F5F7F4FCE0105960E946F154D825E8234
:1051A0006F82788680E090E0A0E0B0E489839A8303
:1051B000AB83BC83BE016F5F7F4FCE0105960E941B
:1051C0006F15109181041092810482E0FDDC0E9431
:1051D000D31112FFBFCF20E030E040E450E46091F3
:1051E00073047091740480917504909176040E9408
:1051F000DF962B013C01A5019401C501B4010E9479
:1052000092949B01AC01C301B2010E9492942DECD7
:105210003CEC4CE45EE30E94DF9620917E023091EC
:105220007F0240918002509181020E9492945B0122
:105230008C01898D8250823050F580E090E0A0E8AA
:10524000B0E4898B9A8BAB8BBC8B609173047091AB
:1052500074048091750490917604B98DB33029F06F
:1052600020E030E040E450E404C020E030E048ECCE
:1052700051E40E9492946D8B7E8B8F8B988FBE0130
:105280006F5E7F4FCE0145960E946F1508C0E98D75
:10529000E13029F480E00E947016811105C0F8A168
:1052A000F33008F46FC008C098A1933008F4A1C08F
:1052B000A12CB12C00EC1FE7E8EDF7E064914F0161
:1052C0002FEF821A920A662331F080E49DE00E945B
:1052D000DE0FF401F3CF20919E0230919F024091A6
:1052E000A0025091A102D1016D917D918D919C916F
:1052F0000E949294AB01BC0123E080E49DE00E94F7
:10530000108CE3EDF7E064914F01BFEF8B1A9B0A1D
:10531000662331F080E49DE00E94DE0FF401F3CFBC
:105320002091A2023091A3024091A4025091A502C3
:10533000EE8DFF8D60817181828193810E949294B4
:10534000AB01BC0123E080E49DE00E94108CEEECF8
:10535000F7E064914F012FEF821A920A662331F031
:1053600080E49DE00E94DE0FF401F3CF23E0A5016D
:10537000B80180E49DE00E94108C6AE080E49DE02A
:105380000E94DE0F8A8D9B8DAC8DBD8D809319019F
:1053900090931A01A0931B01B0931C019501A801E1
:1053A000B501C8010E9484978823A1F1EFE6F0E1DE
:1053B00064914F019FEF891A990A662331F080E4C6
:1053C0009DE00E94DE0FF401F3CFEEEBF7E0649175
:1053D0004F01AFEF8A1A9A0A6623E1F080E49DE05C
:1053E0000E94DE0FF401F3CFA12CB12C00EC1FE7DB
:1053F00011C08A8D9B8DAC8DBD8D809319019093CA
:105400001A01A0931B01B0931C01A12CB12C00EC3C
:105410001FE7CCCFB501C801A0960FB6F894DEBF48
:105420000FBECDBFDF91CF911F910F91FF90EF90F5
:10543000DF90CF90BF90AF909F908F907F906F90B4
:105440005F904F903F902F9008952F923F924F92F0
:105450005F926F927F928F929F92AF92BF92CF9204
:10546000DF92EF92FF920F931F93CF93DF93CDB70D
:10547000DEB7C558D1090FB6F894DEBF0FBECDBF59
:1054800041E061E081E00E94E61581119DC28091BA
:105490001705882379F08FE40E945011882329F0A2
:1054A0000E94C411882331F08FC28FE40E9405113D
:1054B00081118AC2C12CD12C760100E010E020E2DB
:1054C00031E440E050E060EA71E4CE0101960E94D0
:1054D000FB8500E010E020E231E440E050E064EBC6
:1054E00072E4CE010D960E94FB8500E010E024EBF3
:1054F00032E440E050E068E472E4CE0149960E9454
:10550000FB85F09017058AE40E940511882311F0AD
:105510009BDB5AC286E50E945011882321F00E942D
:1055200093111B0102C0212C312C25E022163104DD
:1055300080F0E8EEF6E064917F013FEFE31AF30AB2
:10554000662309F441C280E49DE00E94DE0FF7016A
:10555000F2CF84E40E945011882341F00E94C411CC
:10556000CB57DF4F8883C558D04008C084E40E94E1
:105570000511CB57DF4F8883C558D0402114310423
:1055800051F1E2EDF6E064916F014FEFC41AD40AD5
:10559000662331F080E49DE00E94DE0FF601F3CF38
:1055A000CB57DF4F5881C558D040552379F0E8ECF0
:1055B000F6E064916F018FEFC81AD80A662331F0C4
:1055C00080E49DE00E94DE0FF601F3CF6AE080E404
:1055D0009DE00E94DE0F0E947D5880E01DDB81E08F
:1055E0000E947016882319F08F2D16DBEDC10E94E2
:1055F000AE1519A21AA21BA21CA21D8A1E8A1F8AFE
:10560000188E19861A861B861C8685E40E94501106
:10561000882329F00E94C411882341F005C085E445
:105620000E940511882311F011E001C012E0DE0193
:1056300011966D015E01B5E2AB0EB11CF6018081E1
:105640009181A281B3816D968CAF9DAFAEAFBFAF9C
:105650006D9784819581A681B78169968CAF9DAF46
:10566000AEAFBFAF699701E0222D412FBE016B5A4B
:105670007F4FCE01875A9F4F94DC2B013C019B0149
:10568000AC010E948497882319F08F2DC5DAF1C0F0
:10569000D60118964D925D926D927C921B97BCE05C
:1056A000CB0ED11CCA14DB0449F6CB57DF4FB881AF
:1056B000C558D040B111DDC0AD84BE84CF84D88838
:1056C000E988FA880B891C892D893E894F89588D74
:1056D000BE01675E7F4FCE01C1960E94D886AD8421
:1056E000BE84CF84D888E988FA880B891C892D89E3
:1056F0003E894F89588DBE016F5F7F4FCE018596E1
:105700000E94D8864DB75EB74C5051090FB6F89439
:105710005EBF0FBE4DBFADB7BEB711968CE0FE01A8
:10572000F19601900D928A95E1F7CDA0DEA0EFA051
:10573000F8A409A51AA52BA53CA54DA55EA56FA5A6
:1057400078A9CE01CD960E941586BE01635C7F4F7D
:10575000CE01875B9F4F0E94E1872D96CCACDDACDC
:10576000EEACFFAC2D9761968CAD9DADAEADBFADEF
:105770006197CF57DF4F88839983AA83BB83C15832
:10578000D04065968CAC9DACAEACBFAC65970FB607
:10579000F894DEBF0FBECDBF20E030E0A901C50107
:1057A000B4010E94099587FF19C0F7FAF094F7F841
:1057B000F094CF57DF4F288139814A815B81C158EE
:1057C000D0405058CF57DF4F288339834A835B83BB
:1057D000C158D040B7FAB094B7F8B0942D96CCAE7B
:1057E000DDAEEEAEFFAE2D97CF57DF4F0881C1582B
:1057F000D040CF57DF4F288139814A815B81C15822
:10580000D04061962CAF3DAF4EAF5FAF6197482D52
:1058100065968CAE9DAEAEAEBFAE65972B96DFACF7
:105820002B972C96EFAC2C972D96FFAC2D972F969F
:105830001FAD2F9760962FAD609761963FAD619732
:1058400063965FAD639764966FAD649765967FAD21
:105850006597CE01835A9F4F0E94858984E2FE019D
:10586000E35AFF4FA3EFB4E001900D928A95E1F760
:10587000F12C80E00E947016882319F08F2DCCD96E
:1058800097C0A3019201C301B2010E9484978111C4
:105890008FC0232831F069EA76E083EF94E00E941C
:1058A000488BCB57DF4F3881C558D04031117DC070
:1058B0008CE0EBE6F4E0DE01DD9601900D928A9536
:1058C000E1F781E080931705CE01CD960E948257C3
:1058D00020E030E040EA51E46D966CAD7DAD8EADD8
:1058E0009FAD6D970E9491949B01AC0160916B04F8
:1058F00070916C0480916D0490916E040E9491945B
:105900006B017C012DEB37E346E855EB0E94AB962B
:1059100087FD40C02DEB37E346E855E3C701B601EC
:105920000E9409951816B4F169962CAD3DAD4EADA7
:105930005FAD699760916F047091700480917104FC
:10594000909172040E9491946B017C012DEB37E3DE
:1059500046E855EB0E94AB9687FD1CC02DEB37E364
:1059600046E855E3C701B6010E940995181694F060
:10597000A301920160917304709174048091750485
:10598000909176040E94919429966CAF7DAF8EAF72
:105990009FAF29978CE0FE01FD96ABE6B4E0019045
:1059A0000D928A95E1F781E001C08F2D8093170554
:1059B0000E94CD1581E080936D02809117058111C1
:1059C0000E94D3110E94301CCB57DF4F0FB6F894C2
:1059D000DEBF0FBECDBFDF91CF911F910F91FF9022
:1059E000EF90DF90CF90BF90AF909F908F907F907F
:1059F0006F905F904F903F902F9008958F929F925D
:105A0000AF92BF92CF92DF92EF92FF920F931F93CC
:105A1000CF93DF93CDB7DEB728970FB6F894DEBFEC
:105A20000FBECDBFC0906B04D0906C04E0906D04AD
:105A3000F0906E0488E50E945011811109C020E0A9
:105A400030E040EA51E4C701B6010E94929402C0DE
:105A50000E945C116D837E838F839887C0906F0452
:105A6000D0907004E0907104F090720489E50E9477
:105A7000501181110AC020E030E0A901C701B60130
:105A80000E9492949B01AC0104C00E945C119B0196
:105A9000AC0129833A834B835C836D817E818F8146
:105AA00098850E94560F882309F490C080E0B4D8EE
:105AB0000E94AE1585E40E945011882321F00E94B7
:105AC000C411182F04C085E40E94051111E086E579
:105AD0000E945011882321F00E949311262F01C0AB
