:100000000C94E1130C940B140C940B140C940B141F
:100010000C940B140C940B140C940B140C940B14E4
:100020000C940B140C940B140C9479E90C94F6E9D1
:100030000C940B140C940B140C940B140C940B14C4
:100040000C940B140C9485900C940B140C940B14BE
:100050000C940B140C940B140C94AEA70C94D8E8CD
:100060000C940B140C940B140C940B140C940B1494
:100070000C940B140C940B140C940B140C940B1484
:100080000C940B140C940B140C940B140C940B1474
:100090000C9417E20C940B1467E693E6B5E6B5E60C
:1000A000B5E6B5E6B5E6B5E6B5E6B5E6B5E6B5E678
:1000B000B5E6B5E6ABE6A3E69BE6B5E6B5E6B5E69E
:1000C000B5E6B5E6B5E6B5E68DE673E67BE685E62C
:1000D0004E414E494E495459494E46CDCCCC3D0A2D
:1000E000D7233C17B7D13877CC2B329595E6241F10
:1000F000B14F0A000020410000C84200401C4620C9
:10010000BCBE4CCA1B0E5AAEC59D74446F6E6520B2
:10011000736176696E672066696C652E0A004D32E0
:1001200039002020506C616E6E657242756666659E
:100130007242797465733A20002046726565204DDD
:10014000656D6F72793A2000436F6D70696C6564FC
:100150003A204E6F7620313220323031380A00207A
:100160007C20417574686F723A2044722E50686921
:100170006C33440A00323031382D30382D303100A4
:10018000204C61737420557064617465643A20007A
:10019000312E312E390A004D61726C696E00205388
:1001A0006F6674776172652052657365740A00200A
:1001B0005761746368646F672052657365740A00E1
:1001C0002042726F776E206F75742052657365746C
:1001D0000A002045787465726E616C205265736503
:1001E000740A00506F77657255700A0073746172FB
:1001F000740A005072696E7465722068616C74656F
:10020000642E206B696C6C28292063616C6C6564BA
:10021000210A004B494C4C45442E20004B494C4C84
:100220002063617573656420627920746F6F206D3F
:1002300075636820696E6163746976652074696DA1
:1002400065202D2063757272656E7420636F6D6D0D
:10025000616E643A200020746F6F206C6F6E6720AF
:10026000657874727573696F6E2070726576656EED
:100270007465640A0020636F6C642065787472751D
:1002800073696F6E2070726576656E7465640A00BE
:100290006F6B00526573656E643A2000416476614D
:1002A0006E6365204B3D003F4B2076616C75652089
:1002B0006F7574206F662072616E67652028302D1F
:1002C0003130292E0A003A200050726F6265205AA0
:1002D000204F6666736574003F5A206F7574206FF7
:1002E000662072616E676520282D3520746F20327C
:1002F00030290A00454550524F4D204F4B0A0042CD
:100300006564204C6576656C696E6720004661699E
:100310006C656420746F20656E61626C6520426557
:1003200064204C6576656C696E670A0042656420DE
:100330004C6576656C20436F7272656374696F6E8D
:10034000204D61747269783A004E6F206361736565
:10035000206C696768740A0043290A0061626C6551
:100360006420286D696E2074656D702000436F6C89
:10037000642065787472756465732061726520000D
:10038000496E76616C696420657874727564657213
:100390000A0020643A0020693A0020703A00507246
:1003A0006F6265205A204F66667365743A2000209C
:1003B000466C6F773A2000205A00205900580020E0
:1003C000204D61783A2000205A0020590058002022
:1003D000204D696E3A20004F6666004F6E20005334
:1003E0006F667420656E6473746F70733A20004F8B
:1003F000666673657473206170706C69656400452E
:1004000072723A20546F6F206661722100546F6FD0
:10041000206661722066726F6D2072656665726516
:100420006E636520706F696E740A0020540020525C
:1004300000416363656C65726174696F6E3A205048
:10044000004D31343520533C696E6465783E206F31
:100450007574206F662072616E67652028302D31BB
:10046000290A002F2F20003A004361703A005448B7
:1004700045524D414C5F50524F54454354494F4EA5
:10048000004155544F5245504F52545F53445F53AF
:10049000544154555300454D455247454E43595FCD
:1004A00050415253455200434153455F4C494748E0
:1004B000545F4252494748544E45535300544F47A6
:1004C000474C455F4C494748545300534F46545797
:1004D0004152455F504F574552004255494C445F89
:1004E00050455243454E54004C4556454C494E47A5
:1004F0005F44415441005A5F50524F4245004155BC
:10050000544F4C4556454C005052494E545F4A4F4B
:10051000420050524F4752455353004155544F5299
:1005200045504F52545F54454D5000564F4C554D19
:10053000455452494300454550524F4D0053455292
:1005400049414C5F584F4E5F584F4646004649520E
:100550004D574152455F4E414D453A4D61726C6970
:100560006E20312E312E3920284769746875622932
:1005700020534F555243455F434F44455F55524CBE
:100580003A68747470733A2F2F6769746875622EB5
:10059000636F6D2F4D61726C696E4669726D776124
:1005A00072652F4D61726C696E2050524F544F43EB
:1005B0004F4C5F56455253494F4E3A312E30204DE5
:1005C000414348494E455F545950453A33442050C1
:1005D00072696E7465722045585452554445525F95
:1005E000434F554E543A3120555549443A343063BF
:1005F00065363164312D326564302D343533302D1C
:10060000383330342D353565336565616165626633
:10061000660A003344205072696E746572204F661A
:10062000662E0020573A0042656420636F6F6C6944
:100630006E672E2E2E004265642068656174696EB7
:10064000672E2E2E0020573A004520436F6F6C69AD
:100650006E672E2E2E00452048656174696E672EE8
:100660002E2E006F6B004D3131332053004B494C1F
:100670004C45442E20004543484F00494E464F000C
:100680004552524F52530044525952554E00434F17
:100690004D4D554E49434154494F4E006F666600DB
:1006A00076067B06800687068E0644454255473A05
:1006B0000050726F7465637465642050696E0A003F
:1006C00000011C1D132FFFFFFFFF1E1F12FF18FF4D
:1006D000FFFF20211124FFFFFFFFFFFFFF0E10FF90
:1006E000FFFF22230DFFFFFF0E260F2C2725697326
:1006F0000025696D20256973002569682025696DCD
:100700002025697300256964202569682025696DA5
:100710002025697300256979202569642025696889
:100720002025696D20256973005072696E742074EC
:10073000696D653A200043757272656E7420666952
:100740006C653A2000456E642066696C65206C69B2
:1007500073740A00426567696E2066696C65206C77
:100760006973740A004E6F206D6F76652E00436CBE
:1007700069636B20746F20726573756D652E2E2E04
:1007800000205A3A200020593A200042656420583F
:100790003A20000A0A426564204C6576656C204365
:1007A0006F7272656374696F6E204D6174726978DF
:1007B0003A00202844525952554E290047323920D8
:1007C0004175746F20426564204C6576656C696E76
:1007D00067003F2856296572626F7365206C6576E5
:1007E000656C20697320696D706C61757369626CEA
:1007F000652028302D34292E0A00536C6565702E33
:100800002E2E00496E76616C69642065787472756D
:100810006465720A00416374697665204578747274
:10082000756465723A200020453A00205A3A00204B
:10083000593A00583A002C20002C2000486F6D6572
:100840002058592066697273740A00486F6D6520DC
:100850005859206669727374005761726E696E67C9
:100860003A20486F6D696E672042756D702044694B
:100870007669736F72203C20310A000202046275AF
:1008800073793A2070617573656420666F722069B0
:100890006E7075740A00627573793A2070617573B1
:1008A000656420666F7220757365720A00627573E5
:1008B000793A2070726F63657373696E670A0050CE
:1008C000726F62696E67206661696C65640A0050C8
:1008D000726F62696E67206661696C656400205A98
:1008E0003A200020593A200042656420583A2000FE
:1008F000486F6D65202573257325732066697273B3
:1009000074002066697273740A005A005900580016
:10091000486F6D65200020496E76616C69642065C2
:100920007874727564657220005344207265616446
:10093000206572726F720A00446F6E652070726972
:100940006E74696E672066696C650A004B494C4C91
:1009500045442E200053544F505045442E20005003
:1009600072696E7465722073746F70706564206450
:10097000756520746F206572726F72732E204669E0
:100980007820746865206572726F7220616E6420D1
:10099000757365204D39393920746F207265737411
:1009A0006172742E202854656D7065726174757261
:1009B000652069732072657365742E2053657420F9
:1009C00069742061667465722072657374617274F3
:1009D000696E67290A004E6F20436865636B737503
:1009E0006D2077697468206C696E65206E756D6224
:1009F00065722C204C617374204C696E653A20003E
:100A00004E6F20436865636B73756D2077697468FA
:100A1000206C696E65206E756D6265722C204C616C
:100A20007374204C696E653A2000636865636B736C
:100A3000756D206D69736D617463682C204C6173F2
:100A400074204C696E653A20004C696E65204E75C5
:100A50006D626572206973206E6F74204C617374CF
:100A6000204C696E65204E756D6265722B312C20AD
:100A70004C617374204C696E653A20004D31313001
:100A800000656E7175657565696E67202200FF01EE
:100A9000FF0000A0400000A0400000004000002037
:100AA0004300001143000016430000000000001145
:100AB0004300000000000020430000114300001626
:100AC000430000000000000000000000000000489B
:100AD000420000484200008040000000007C3C3E94
:100AE0005E2B3D3F2F5B5D3B2C2A225C004D33315A
:100AF0000043616E6E6F7420656E7465722073754D
:100B0000626469723A20006F70656E206661696C7C
:100B100065642C2046696C653A20006175746F2508
:100B2000692E67006572726F722077726974696EE0
:100B30006720746F2066696C650A004E6F742053DD
:100B400044207072696E74696E670A0053442070A5
:100B500072696E74696E67206279746520004465FD
:100B60006C6574696F6E206661696C65642C2046E3
:100B7000696C653A200046696C652064656C657433
:100B800065643A0057726974696E6720746F2066F5
:100B9000696C653A20006F70656E206661696C65EE
:100BA000642C2046696C653A20006F70656E206683
:100BB00061696C65642C2046696C653A2000466961
:100BC0006C652073656C65637465640A0020536905
:100BD0007A653A200046696C65206F70656E6564C1
:100BE0003A20002066696C653A2000667265736879
:100BF00000646F696E67004E6F772000454E442099
:100C0000535542524F5554494E450A002220706FA9
:100C100073002220706172656E743A22005355424F
:100C2000524F5554494E452043414C4C20746172FB
:100C30006765743A22004B494C4C45442E200074A1
:100C40007279696E6720746F2063616C6C207375B4
:100C5000622D67636F64652066696C6573207769D0
:100C6000746820746F6F206D616E79206C65766595
:100C70006C732E204D4158206C6576656C2069732D
:100C80003A004D3234004D32332025730053442056
:100C900063617264206F6B0A006F70656E526F6FD4
:100CA00074206661696C65640A00766F6C756D65A9
:100CB0002E696E6974206661696C65640A0053442C
:100CC00020696E6974206661696C0A00286E6F2065
:100CD00066696C65290043616E6E6F74206F706584
:100CE0006E2073756264697220003A0A0020286DD4
:100CF0006D290020204D393030204B004C696E6545
:100D0000617220416476616E63653A0A0020204D6D
:100D1000383531205A005A2D50726F6265204F6667
:100D2000667365740020440020490020204D333054
:100D3000312050005049442073657474696E6773A4
:100D40003A0A0020460020420020480020204D3171
:100D500034352053004D6174657269616C2068659B
:100D60006174757020706172616D65746572733A3B
:100D70000A0020204D3432302053004175746F201A
:100D8000426564204C6576656C696E673A0A00209E
:100D90005A0020590020204D323036205800486F2C
:100DA0006D65206F66667365743A0A002045002001
:100DB0005A002059002058002054002053002020C1
:100DC0004D32303520510020453C6D61785F655FC4
:100DD0006A65726B3E0020583C6D61785F785F6A8F
:100DE00065726B3E20593C6D61785F795F6A657210
:100DF0006B3E205A3C6D61785F7A5F6A65726B3E2C
:100E000000416476616E6365643A20513C6D696EA1
:100E10005F7365676D656E745F74696D655F75732B
:100E20003E20533C6D696E5F6665656472617465F2
:100E30003E20543C6D696E5F74726176656C5F66CE
:100E4000656564726174653E002054002052002084
:100E5000204D323034205000416363656C6572610F
:100E600074696F6E2028756E6974732F7332293A16
:100E700020503C7072696E745F616363656C3E20E4
:100E8000523C726574726163745F616363656C3E4A
:100E900020543C74726176656C5F616363656C3E7F
:100EA0000A00204500205A0020590020204D3230F1
:100EB000312058004D6178696D756D20416363651F
:100EC0006C65726174696F6E2028756E6974732F1A
:100ED0007332293A0A00204500205A002059002088
:100EE000204D3230332058004D6178696D756D208A
:100EF0006665656472617465732028756E697473C4
:100F00002F73293A0A00204500205A00205900205A
:100F1000204D39322058005374657073207065720B
:100F200020756E69743A0A0020204D32303020441A
:100F3000300A0020204D32303020440020446973B4
:100F400061626C65640A0046696C616D656E74204F
:100F500073657474696E67733A0020204D313439BB
:100F60002043203B20556E69747320696E204365D1
:100F70006C736975730A00202047323120202020CD
:100F80003B0048617264636F646564204465666118
:100F9000756C742053657474696E6773204C6F614F
:100FA0006465640A00DC050000DC050000DC050067
:100FB00000102700000000FA420000FA4200007012
:100FC000410000C8410000A0420000A0420080FC97
:100FD000440000BD42290A002062797465733B20F9
:100FE00063726320002073746F726564207365748C
:100FF00074696E67732072657472696576656420C2
:101000002800202863616C63756C61746564292114
:101010000A0020213D2000454550524F4D204352AB
:1010200043206D69736D61746368202D202873748B
:101030006F7265642920002053697A653A2000495F
:101040006E6465783A2000204D61726C696E3D5681
:101050003535290A0028454550524F4D3D0045453C
:1010600050524F4D2076657273696F6E206D6973B3
:101070006D617463682000290A00206279746573C9
:101080003B20637263200053657474696E6773203C
:1010900053746F726564202800454550524F4D20AF
:1010A0006461746173697A65206572726F722E0A69
:1010B000004572726F722077726974696E6720746E
:1010C0006F20454550524F4D210A006F70656E00EC
:1010D000545249474745524544003A20007A5F6DD3
:1010E000696E00795F6D617800785F6D696E00529E
:1010F00065706F7274696E6720656E6473746F706B
:10110000207374617475730A00456E6473746F7034
:101110007320256320256320256320256300205A42
:101120003A0020593A0020583A00656E6473746F93
:101130007073206869743A2000486F6D696E67208B
:101140006661696C656400556E6B6E6F776E2063C7
:101150006F6D6D616E643A20220020746F6F206C99
:101160006F6E6720657874727573696F6E20707228
:101170006576656E7465640A0020636F6C64206533
:101180007874727573696F6E2070726576656E74AF
:1011900065640A00FFFDFCFAF8F6F4F2F0EEECEA02
:1011A000E9E7E5E3E1E0DEDCDAD9D7D5D4D2D0CF88
:1011B000CDCBCAC8C7C5C3C2C0BFBDBCBAB9B7B61C
:1011C000B4B3B2B0AFADACAAA9A8A6A5A4A2A1A081
:1011D0009E9D9C9A99989795949392908F8E8D8BC3
:1011E0008A8988878684838281807F7E7D7B7A79E5
:1011F0007877767574737271706F6E6D6C6B6A69E7
:101200006867666564636261605F5E5D5C5B5A59D6
:1012100058585756555453525150504F4E4D4C4BB1
:101220004A4A4948474646454443424241403F3E78
:101230003E3D3C3B3B3A393838373635353433322E
:10124000323130302F2E2E2D2C2B2B2A29292827D6
:101250002726252524232322212120201F1E1E1D71
:101260001C1C1B1B1A191918181716161515141300
:101270001312121111100F0F0E0E0D0D0C0C0B0A84
:101280000A090908080707060605050404030302FE
:1012900002010000000000010000000100008000C9
:1012A000555555000000400033333300AAAA2A00E8
:1012B0004992240000002000C7711C009999190070
:1012C000D1451700555515003BB1130024491200B4
:1012D00011111100000010000F0F0F00E3380E0075
:1012E00043790D00CCCC0C00C3300C00E8A20B00FD
:1012F00064210B00AAAA0A00703D0A009DD80900CB
:10130000427B090092240900DCD308008888080089
:101310001042080000000800F0C10700878707009E
:1013200075500700711C07003EEB0600A1BC0600CB
:101330006990060066660600703E060061180600A9
:1013400017F4050074D105005BB00500B2900500EC
:10135000627205005555050078390500B81E050074
:10136000050505004EEC040087D40400A1BD04006F
:1013700090A7040049920400C17D0400EE690400B6
:10138000C7560400444404005C32040008210400F1
:1013900041100400000004003FF00300F8E00300E7
:1013A00026D20300C3C30300CCB503003AA8030050
:1013B0000A9B0300388E0300C08103009F75030061
:1013C000D0690300505E03001D530300344803003E
:1013D000913D03003333030016290300381F030037
:1013E00097150300300C0300030303000BFA0200FF
:1013F00049F10200BAE802005CE002002DD80200C8
:101400002DD0020059C80200B0C0020031B902005C
:10141000DAB10200AAAA0200A0A30200BC9C02004A
:10142000FA9502005C8F0200DF88020082820200CF
:10143000457C02002776020027700200436A020002
:101440007C640200D05E02003F590200C8530200D3
:101450006563686F3A004572726F723A00205A3ABB
:101460000020593A0020436F756E7420583A0023CB
:101470002C0000B8220000561800003A0F0000B8F7
:10148000080000B1040000710200003E01000024C9
:10149000F4D43050C38E20C2A24017828B70111238
:1014A0007A910D816CD90AA861E108C75866076175
:1014B0005143061E4B5D05C145A7041A411104099D
:1014C0003D9803713931034036DB0265339102D414
:1014D000305402802E1D02632CEE01752AC501B026
:1014E00028A001102781018F2564012B244B01E0E6
:1014F000223401AC211F018D200D01801FFC0084CE
:101500001EED00971DDF00B81CD200E61BC60020B0
:101510001BBC00641AB200B219A8000A19A0006A24
:10152000189900D117910040178B00B5168400312F
:10153000167E00B31579003A157300C7146F005872
:10154000146A00EE1366008813630025135E00C75B
:10155000125B006C12570015125400C1115100703B
:10156000114F0021114B00D61049008D1047004645
:1015700010440002104200C00F4000800F3E0042A5
:101580000F3C00060F3B00CB0E3800930E37005C7B
:101590000E3500270E3400F30D3200C10D310090DE
:1015A0000D3000600D2E00320D2D00050D2C00D9E0
:1015B0000C2B00AE0C2900850C29005C0C27003593
:1015C0000C27000E0C2600E80B2400C40B2400A0FE
:1015D0000B23007D0B23005A0B2100390B2100182F
:1015E0000B2000F80A1F00D90A1E00BB0A1E009D2E
:1015F0000A1D00800A1D00630A1C00470A1B002CFC
:101600000A1B00110A1A00F7091A00DD091900C4A3
:10161000091900AB091900920917007B091800632A
:101620000917004C09160036091600200916000A91
:10163000091500F5081500E0081400CC081400B8DE
:10164000081400A4081400900813007D0812006B11
:10165000081300580812004608120034081100232D
:101660000811001208110001081100F0071000E035
:10167000071000D0071000C0071000B0070F00A12E
:1016800007100091070E0083070F0074070F006515
:10169000070E0057070E0049070E003B070D002EEE
:1016A000070E0020070D0013070D0006070D00F9B7
:1016B000060C00ED060D00E0060C00D4060C00C878
:1016C000060C00BC060C00B0060C00A4060B00992A
:1016D000060C008D060B0082060B0077060B006CD3
:1016E000060B0061060A0057060B004C060A004272
:1016F000060A0038060A002E060A0024060A001A06
:10170000060A001006090007060A00FD050900F494
:10171000050900EB050900E2050900D9050900D01B
:10172000050900C7050900BE050900B5050800AD9B
:10173000050800A50509009C050800940508008C13
:10174000050800840508007C050800740508006C85
:10175000050700650508005D050700560508004EF1
:101760000507004705070040050800380507003158
:101770000507002A050700230507001C05060016BB
:101780000507000F0507000805060002050700FB16
:10179000040600F5040700EE040600E8040600E273
:1017A000040700DB040600D5040600CF040600C9C8
:1017B000040600C3040600BD040600B7040600B119
:1017C000040500AC040600A6040600A00405009B66
:1017D00004060095040500900406008A04050085AF
:1017E000040500800406007A0405007504050070F5
:1017F0000405006B04050066040500610405005C37
:1018000004050057040500520405004D0405004876
:10181000040500430405003E0404003A04050035B5
:10182000040500300404002C0405002704040023F0
:101830000405001E0404001A040400160405001127
:101840000404000D0404000904050004040400005D
:10185000040400FC030400F8030400F4030400F093
:10186000030400EC030400E8030400E4030400E0C4
:10187000030400DC030400D8030400D4030400D0F4
:10188000030400CC030400C8030300C503030024C1
:10189000F404D9201BC40C5C0E9804C4095F0265D3
:1018A000077101F405F900FB04B30048048700C187
:1018B0000369005803550003034500BE023A008443
:1018C00002310053022A002902250004022000E40C
:1018D000011C00C8011900AF011700980114008411
:1018E000011300710110006101100051010E00434D
:1018F000010D0036010B002B010B0020010B001520
:101900000109000C01090003010800FB000800F3B5
:10191000000800EB000700E4000600DE000600D827
:10192000000600D2000600CC000500C7000500C27A
:10193000000500BD000400B9000400B5000400B1BA
:10194000000400AD000400A9000400A5000300A2EB
:101950000003009F0004009B000300980003009513
:1019600000020093000300900003008D0002008B32
:10197000000300880002008600020084000300814A
:101980000002007F0002007D0002007B000200795F
:10199000000200770001007600020074000200726D
:1019A000000100710002006F0002006D0001006C78
:1019B0000002006A00010069000200670001006681
:1019C0000001006500010064000200620001006186
:1019D000000100600001005F0002005D0001005C8A
:1019E0000001005B0001005A00010059000100588D
:1019F000000100570001005600010055000100548D
:101A0000000100530000005300010052000100518A
:101A1000000100500001004F0001004E0000004E88
:101A20000001004D0001004C0001004B0000004B84
:101A30000001004A00010049000100480000004880
:101A4000000100470001004600000046000100457B
:101A50000000004500010044000100430000004375
:101A6000000100420000004200010041000000416E
:101A7000000100400001003F0000003F0001003E67
:101A80000000003E0001003D0000003D0001003C60
:101A90000000003C0000003C0001003B0000003B57
:101AA0000001003A0000003A00010039000000394E
:101AB0000001003800000038000000380001003745
:101AC000000000370001003600000036000000363C
:101AD0000001003500000035000000350001003431
:101AE0000000003400000034000100330000003327
:101AF000000000330001003200000032000000321C
:101B00000001003100000031000000310001003010
:101B100000000030000000300001002F0000002F06
:101B20000000002F0000002F0001002E0000002EFA
:101B30000000002E0001002D0000002D0000002DEF
:101B40000000002D0001002C0000002C0000002CE3
:101B50000000002C0001002B0000002B0000002BD7
:101B60000000002B0001002A0000002A0000002ACB
:101B70000000002A000100290000002900000029BF
:101B800000000029000000290001002800000028B2
:101B900000000028000000280000002800010027A5
:101BA0000000002700000027000000270000002799
:101BB000000100260000002600000026000000268C
:101BC000000000260001002500000025000000257F
:101BD0000000002500000025000000250001002471
:101BE0000000002400000024000000240000002465
:101BF0000001002300000023000000230000002358
:101C00000000002300000023000000230001002248
:101C1000000000220000002200000022000000223C
:101C2000000000220001002100000021000000212E
:101C30000000002100000021000000210000002120
:101C40000001002000000020000000200000002013
:101C50000000002000000020000000200000002004
:101C60000001001F0000001F0000001F0000001FF7
:101C70000000001F0000001F0000001F0001001EE8
:101C80000000001E0000001E0000001E00000029D1
:101C90000A002028002920453A0020280029205A3F
:101CA0003A002028002920593A0020280020583ADC
:101CB00000537465707065722063757272656E741E
:101CC0002076616C75657320696E20252028416D32
:101CD0007073293A0A002042403A0020403A00201E
:101CE0002F004D383420582059205A204500546880
:101CF00065726D616C2052756E6177617900453156
:101D000020544845524D414C2052554E415741595F
:101D10000042454420544845524D414C2052554EB6
:101D200041574159004B494C4C45442E2000202D31
:101D300020496E76616C696420657874727564659B
:101D400072206E756D62657220210A0048656174AB
:101D5000696E67206661696C65640042656420682D
:101D6000656174696E67206661696C6564004865C9
:101D70006174696E67206661696C65640045312035
:101D800048656174696E67206661696C6564004DC1
:101D9000494E54454D502074726967676572656499
:101DA000004531204572723A204D494E54454D5000
:101DB000004572723A204D494E54454D50204245DF
:101DC00044004D415854454D502074726967676511
:101DD000726564004531204572723A204D41585475
:101DE000454D50004572723A204D415854454D5072
:101DF00020424544006265640A002C2073797374A4
:101E0000656D2073746F707065642120486561741E
:101E100065725F49443A20002CFFFFFFFFFF00017D
:101E20000101010123646566696E652044454641F0
:101E3000554C545F4B64200023646566696E6520D1
:101E400044454641554C545F4B6920002364656608
:101E5000696E652044454641554C545F4B702000E7
:101E6000504944204175746F74756E652066696EC3
:101E70006973686564212050757420746865206CEE
:101E8000617374204B702C204B6920616E64204B71
:101E90006420636F6E7374616E74732066726F6D0D
:101EA0002062656C6F7720696E746F20436F6E6679
:101EB000696775726174696F6E2E680A00504944D3
:101EC000204175746F74756E65206661696C656418
:101ED000212074696D656F75740A00546865726DB0
:101EE000616C2052756E61776179004531205448EC
:101EF00045524D414C2052554E415741590048657D
:101F00006174696E67206661696C656400453120A3
:101F100048656174696E67206661696C656400502C
:101F20004944204175746F74756E65206661696CF3
:101F30006564212054656D706572617475726520E9
:101F4000746F6F20686967680A00204B643A20004C
:101F5000204B693A2000204B703A20000A20436C45
:101F6000617373696320504944200A002054753A14
:101F70002000204B753A2000206D61783A20002027
:101F80006D696E3A200020643A2000206269617316
:101F90003A2000504944204175746F74756E652075
:101FA00073746172740A00504944204175746F74EF
:101FB000756E65206661696C6564212042616420EC
:101FC0006578747275646572206E756D6265720AEB
:101FD000001000C90210012C0140012201700118FB
:101FE00001B0010E01F00104015002FA00B002F04C
:101FF000003003E600D003DC009004D2007005C876
:1020000000A006BE000008B400B009AA00D00BA0D2
:1020100000600E960060118C000015820020197877
:1020200000C01D6E00A0226400B0275A00902C5002
:102030000000314600E0343C0010383200903A286D
:1020400000603C1E00A03D1400803E0A00203F00BE
:102050000070012C0190012701B0012201C0011D77
:1020600001F00118011002130130020E0160020993
:102070000190020401C002FF000003FA004003F5D2
:10208000008003F000D003EB002004E6007004E1C0
:1020900000E004DC004005D700C005D2004006CDBA
:1020A00000D006C8008007C3003008BE00F008B9A1
:1020B00000C009B400B00AAF00B00BAA00D00CA554
:1020C00000000EA000500F9B00C01096005012910F
:1020D0000000148C00C0158700B0178200B0197D75
:1020E00000D01B7800001E730040206E0090226913
:1020F00000F024640040275F0090295A00E02B552F
:1021000000102E500020304B0010324600E03341CA
:102110000090353C001037370070383200A0392D60
:1021200000B03A2800A03B2300603C1E00103D197F
:1021300000903D1400103E0F00703E0A00C03E05A6
:1021400000003F0000403FFBFF803FF6FFC03FF133
:10215000FF052E2E000452656672657368004D619E
:10216000696E0046696C2E204469612E0046696CD8
:102170002E204469612E004520696E206D6D33006C
:102180004F6666004F6E2000416476616E63652085
:102190004B00416476616E6365204B00436F6E7443
:1021A000726F6C0050726F6265205A204F666673C2
:1021B000657400436F6E74726F6C005049442D4417
:1021C000005049442D44005049442D490050494491
:1021D0002D49005049442D50005049442D500020B5
:1021E000022046616374002002204661637400206F
:1021F00002204D6178002002204D617800200220ED
:102200004D696E002002204D696E004175746F7437
:10221000656D70004F6666004F6E200046616E204F
:1022200073706565640046616E2073706565640057
:1022300042656400426564004E6F7A7A6C65004EB8
:102240006F7A7A6C6500436F6E74726F6C005265C2
:1022500073746F7265206661696C73616665004CAA
:102260006F61642073657474696E67730053746F73
:1022700072652073657474696E6773004472697661
:102280006520537472656E6774680046696C616D91
:10229000656E74004D6F74696F6E0054656D706586
:1022A000726174757265004D61696E004578747273
:1022B00075646572004D6F7665205A004D6F7665C6
:1022C0002059004D6F76652058005072657061721C
:1022D00065004D6F766520302E316D6D004D6F7647
:1022E0006520316D6D004D6F76652031306D6D006C
:1022F0004D6F7665206178697300457874727564F6
:102300006572004D6F7665205A004D6F76652059D5
:10231000004D6F766520580045787472756465725B
:10232000004D6F7665205A004D6F76652059004D3F
:102330006F7665205800507265686561742041426F
:1023400053005072656865617420504C4100436FC2
:102350006F6C646F776E0044697361626C652073A3
:1023600074657070657273004D3834004265642086
:102370004C6576656C696E67004175746F20686F97
:102380006D6500473238004D6F766520617869735E
:10239000004D61696E0053746F72652073657474CB
:1023A000696E6773004C6F61642073657474696E45
:1023B00067730050726F6265205A204F66667365BE
:1023C0007400426564204C6576656C696E67004FE9
:1023D0006666004F6E20004C6576656C2062656411
:1023E000004732380A4732390047323900417574A4
:1023F0006F20686F6D6500473238005072657061FC
:1024000072650050726568656174204142532042D4
:1024100065640050726568656174204142532045CF
:102420006E640050726568656174204142530050CB
:1024300072657061726500507265686561742050E4
:102440004C4120426564005072656865617420509B
:102450004C4120456E64005072656865617420507F
:102460004C410050726570617265004441432045E3
:102470004550524F4D205772697465004520447293
:102480006976657220250045204472697665722060
:1024900025005A204472697665722025005A20442E
:1024A00072697665722025005920447269766572DA
:1024B0002025005920447269766572202500582035
:1024C00044726976657220250058204472697665E9
:1024D00072202500436F6E74726F6C0050726F62D1
:1024E00065205A204F666673657400466C6F7700EE
:1024F000466C6F770046616E2073706565640046B8
:10250000616E2073706565640042656400426564B5
:10251000004E6F7A7A6C65004E6F7A7A6C65005364
:1025200070656564005370656564004D61696E0097
:10253000496E69742E2053442063617264004D32E9
:1025400031004E6F20534420636172640043686120
:102550006E67652053442063617264004D32310020
:102560005072696E742066726F6D2053440053740C
:102570006F70207072696E7400526573756D65209E
:102580007072696E74005061757365207072696E47
:102590007400436F6E74726F6C005072657061727C
:1025A000650054756E6500496E666F2073637265D1
:1025B000656E005072696E742061626F727465643A
:1025C000003344205072696E7465722052656164F4
:1025D000792E005072696E74696E672E2E2E00502F
:1025E00072696E74207061757365640025753A2593
:1025F00030327500253032753A2530327500202092
:10260000202000202020202020002D2D2D005344AC
:1026100000001C1F11111F00000006191803130CE5
:1026200000040E1F041C000000000E1315110E0004
:10263000001C10181705060500040A0A0A0A1111E1
:102640000E0C12120C00000000001F1511151F00C7
:102650000050726F6265205A204F66667365740081
:10266000506C6561736520726573657400505249E2
:102670004E5445522048414C5445440001290229FA
:10268000042908291029202940298029012C022CFD
:10269000012602260426082610262026402680260B
:1026A000402C802C01230223042308231023202301
:1026B0004023802301200220042008201020202015
:1026C00040208020102C202C012F022F042F082FB7
:1026D000102F202F402F802F7EFE7EFD7EFB7EF769
:1026E0007EEF7EDF7EBF7E7F000100009927120013
:1026F000020000562743000300005227040103098B
:1027000004382718020309042027160303090412BA
:10271000270C0C0331003200330034003500000078
:10272000160355005300420020005300650072005C
:10273000690061006C00000018035400650065002A
:102740006E00730079006400750069006E006F0010
:1027500000000403090409024300020100C0320919
:1027600004000001020201000524001001052401FB
:10277000000104240206052406000107058203085F
:10278000004009040100020A00000007050302409E
:102790000000070584024000001201000202000050
:1027A00020C01683047202010203010001C102016C
:1027B000803601813600A637E58E47B935E13CED1C
:1027C000AA3711241FBECFEFD0E2DEBFCDBF12E08B
:1027D000A0E0B1E0E2E6F1EF01E00BBF02C007903C
:1027E0000D92AA35B107D9F723E1AAE5B2E001C0FD
:1027F0001D92A73AB207E1F713E1C0EED3E104C09E
:102800002197FE010E94D0EDCB3DD107C9F70E9470
:10281000F9E50C94A4F80C9400004F925F926F922B
:102820007F928F929F92AF92BF92CF92DF92EF9260
:10283000FF92CF934B015C0169017A0120E030E007
:1028400040EA51E40E94F8ED2B013C012FE632E111
:1028500043E85AEB0E9412F087FD48C022E430E0C2
:1028600040E253E4C301B2010E9470EE18160CF46A
:102870003DC02FE632E143E85AEBC701B6010E94A2
:1028800012F087FD33C022E430E041E153E4C70198
:10289000B6010E9470EE18164CF124EF3DEF4FE99F
:1028A00051E4C501B4010E9412F087FD1FC022E46B
:1028B00030E046E153E4C501B4010E9470EE181601
:1028C000ACF027EE3BEF4FE151E4C701B6010E94A7
:1028D00012F087FD0BC0C1E022E430E046E053E493
:1028E000C701B6010E9470EE18160CF4C0E08C2FE0
:1028F000CF91FF90EF90DF90CF90BF90AF909F90DF
:102900008F907F906F905F904F900895FB010190A2
:102910000020E9F73197AF01461B570BDC01ED9121
:10292000FC910280F381E02D0994CF93DF931F92F5
:10293000CDB7DEB76983DC01ED91FC910280F381B4
:10294000E02D41E050E0BE016F5F7F4F09950F9091
:10295000DF91CF910895FF920F931F93CF93DF9351
:10296000F82E092F162FE9E6F4E06491EF01219685
:10297000662329F08BE993E1D8DFFE01F6CFEF2D36
:10298000F02F6491EF012196662329F08BE993E102
:10299000CCDFFE01F6CFE7E6F4E06491EF0121968B
:1029A000662329F08BE993E1C0DFFE01F6CF412FCA
:1029B00050E060E070E08BE993E10E9440E56AE05E
:1029C0008BE993E1DF91CF911F910F91FF90ADCFF4
:1029D0000FB6F8948091901390919113A091921357
:1029E000B09193130FBE8093DB029093DC02A0930F
:1029F000DD02B093DE0208954F925F926F927F9254
:102A0000AF92BF92CF92DF92EF92FF92CF93DF937C
:102A1000EB01FC0160817181828193812CE3C22EE4
:102A2000D12CE12CF12CA70196010E9492EDB62E3B
:102A3000A72ECA01B901A70196010E9492ED6B0170
:102A40007C01CA01B90128E130E040E050E00E9479
:102A500092ED2B013C01C9016DE671E00E946BED26
:102A600061157105D9F0AF92BF92DF92CF925F925C
:102A70004F929F938F937F936F9385E197E09F93FE
:102A80008F93DF93CF930E948AF58DB79EB70E96F2
:102A90000FB6F8949EBF0FBE8DBF61C00097C9F0FE
:102AA000AF92BF92DF92CF925F924F929F938F939C
:102AB00085E097E09F938F93DF93CF930E948AF5F1
:102AC000EDB7FEB73C960FB6F894FEBF0FBEEDBF54
:102AD00046C04114510461047104B9F0AF92BF9231
:102AE000DF92CF925F924F9289EF96E09F938F9300
:102AF000DF93CF930E948AF58DB79EB70A960FB6E3
:102B0000F8949EBF0FBE8DBF2AC0C114D104E1044A
:102B1000F104A9F0AF92BF92DF92CF9281EF96E0DD
:102B20009F938F93DF93CF930E948AF5EDB7FEB703
:102B300038960FB6F894FEBF0FBEEDBF10C0AF922F
:102B4000BF928DEE96E09F938F93DF93CF930E9479
:102B50008AF50F900F900F900F900F900F90DF91CC
:102B6000CF91FF90EF90DF90CF90BF90AF907F908C
:102B70006F905F904F90089581548A3108F040C063
:102B8000A82FB0E040918209509183096091840997
:102B90007091850904C076956795579547958A95F4
:102BA000D2F740FF2DC0E0918D09F0918E09A85910
:102BB000B64F8C918823E1F0E80FF11D808190EDF4
:102BC000980F9A3080F08E3229F4818180538A30B8
:102BD00078F409C08D3211F08B3251F4818190ED7F
:102BE000980F9A3018F49E2F8F2F04C08E3251F018
:102BF00090E080E09093890980938A0981E00895AC
:102C000080E00895828180538A3090F7ECCFB4DF62
:102C1000882341F081E02091890930918A09232B92
:102C200009F480E008950F931F93CF938091890951
:102C300090918A09009711F1FC018F01C1912C2F0D
:102C40002F7DA9F0C53411F0C536B9F7F80110820F
:102C500060E070E08091890990918A090E94F6F005
:102C6000F801C083562F472F382F292F0BC060E063
:102C700070E0CF911F910F910C94F6F050E040E07E
:102C800030E020E0652F742F832F922FCF911F917A
:102C90000F9108958091890990918A09009731F0E8
:102CA0004AE050E060E070E00C945CF260E070E0BC
:102CB000CB0108958091890990918A09009731F09C
:102CC0004AE050E060E070E00C9484F360E070E073
:102CD000CB010895DFDF97FD0AC0DCDF6F3F710590
:102CE0008105910509F02CF4D5DF862F089580E049
:102CF00008958FEF08958091890990918A09892B11
:102D000031F0E8DF91E0811103C090E001C091E073
:102D1000892F08950F931F93CF93DF93CDB7DEB71D
:102D20002C970FB6F894DEBF0FBECDBFE0ECF4E0F9
:102D300080859185A285B38544815581668177819F
:102D4000008111812281338109871A872B873C8773
:102D50004D835E836F83788789839A83AB83BC833B
:102D6000AE014F5F5F4FBE016B5F7F4FCE01099693
:102D70000E94F47D2CEC34E0AE014F5F5F4FBE014A
:102D80006B5F7F4FCE0109960E94958C2C960FB6F3
:102D9000F894DEBF0FBECDBFDF91CF911F910F9191
:102DA00008952F923F924F925F926F927F929F92DF
:102DB000AF92BF92CF92DF92EF92FF920F931F9349
:102DC000CF93DF93CDB7DEB764970FB6F894DEBF2D
:102DD0000FBECDBF2A013B01902EA12E6901082F05
:102DE00010E0F801E257F54FE491BB24B3941E16AE
:102DF0000CF4B12CFF24F39420E030E0A901C301CE
:102E0000B2010E9412F018160CF0F12C000F111FE5
:102E1000000F111FC80180549B4F1C01FC01108240
:102E200011821282138276DFF10140825182628226
:102E30007382E090E40220E030E0A901692D7A2D50
:102E4000C6010E9470EE811108C0F801E353F54FEE
:102E500085919591A591B49103C0892D9A2DD601A4
:102E6000898B9A8BAB8BBC8B8091C8049091C904E1
:102E7000A091CA04B091CB044091C4045091C50400
:102E80006091C6047091C7040091C0041091C10400
:102E90002091C2043091C3040D871E872F87388B81
:102EA00049875A876B877C878D839E83AF83B887DA
:102EB00019821A821B821C82AE014B5F5F4FBE01DA
:102EC000675F7F4FCE010D960E94F47DCE01019683
:102ED0006C018E010F5E1F4F2CEC34E0AE014B5F96
:102EE0005F4FBE01675F7F4F0C960E94B38B0E94BD
:102EF000907FBF100E94917264960FB6F894DEBF67
:102F00000FBECDBFDF91CF911F910F91FF90EF903A
:102F1000DF90CF90BF90AF909F907F906F905F9029
:102F20004F903F902F9008956CEC74E083E00C94E8
:102F3000BB8D1092A5041092A3041092A4040895CE
:102F40009091A304E92FF0E0EE53FD4F80839F5F43
:102F5000943018F49093A30402C01092A3048091BB
:102F6000A5048F5F8093A5040895CF93FC01808111
:102F70008B33A1F08091A504843080F4C62FBF016B
:102F80008091A30420E6829FC00111248D5D9C4F97
:102F90000E945BF58C2FD4DF81E001C080E0CF91EF
:102FA0000895EF92FF921F93CF93DF937C0160E02F
:102FB000DCDF182F8823C9F0E0E5F4E16491EF012C
:102FC0002196662329F08BE993E1AFDCFE01F6CF71
:102FD000B70181E89AE00E94E98E62E28BE993E111
:102FE000A4DC6AE08BE993E1A0DC812FDF91CF9133
:102FF0001F91FF90EF900895DF92EF92FF920F9351
:103000001F93CF93DF93CDB7DEB76E970FB6F894CB
:10301000DEBF0FBECDBF6091210370912203611509
:10302000710541F14DE150E0CE0101967C010E9415
:10303000EAF41E8EF7018F010E191F09D190DD20D1
:1030400019F09AE0D912F7CFF701E00FF11F1082C3
:10305000C701A7DF882371F0DD20A9F00F5F1F4FA4
:103060008091210390912203080F191F10932203CE
:103070000093210381E02091210330912203232B2F
:1030800029F480E003C000E010E0F0CF6E960FB6A8
:10309000F894DEBF0FBECDBFDF91CF911F910F918E
:1030A000FF90EF90DF900895909322038093210387
:1030B000A3CFEF92FF920F931F93CF93DF937C01E7
:1030C00084E5A5DDD82F882369F104DEC82F181602
:1030D0002CF5E0E5F4E164918F010F5F1F4F66234B
:1030E00029F08BE993E121DCF801F5CF6DE48BE960
:1030F00093E11BDCA70160E070E020E08BE993E145
:103100000E94E4E46C2FCC0F770B86E199E00E94DB
:10311000118F6AE08BE993E108DC08C08093D60246
:10312000D0E004C08091E4028093D6028D2FDF911D
:10313000CF911F910F91FF90EF9008950F931F93E0
:10314000CF93DF9394E0899FE00111248E010D500D
:103150001D4FFE01E150FD4FDE01A55FBC4F2D91DB
:103160003D914D915C9160817181828193810E943A
:10317000F9EDF8016083718382839383FE01EF533D
:10318000F54F85919591A591B491FE01E951FD4FBF
:1031900080839183A283B383FE01EB54F54F859125
:1031A0009591A591B491C55FDE4F88839983AA83D9
:1031B000BB83DF91CF911F910F910895CF92DF9242
:1031C000EF920F931F93CF93DF93CDB7DEB7609746
:1031D0000FB6F894DEBF0FBECDBFE090E402E0EC86
:1031E000F4E080859185A285B3854481558166810F
:1031F000778100811181228133810D871E872F877E
:10320000388B49875A876B877C878D839E83AF83F2
:10321000B88719821A821B821C82AE014B5F5F4FF6
:10322000BE01675F7F4FCE010D960E94F47DCE01F7
:1032300001966C0109E111E02CEC34E0AE014B5F2A
:103240005F4FBE01675F7F4F0C960E94B38B609605
:103250000FB6F894DEBF0FBECDBFDF91CF911F91A7
:103260000F91EF90DF90CF9008954F925F926F9201
:103270007F928F929F92AF92BF92CF92DF92EF9206
:10328000FF920F931F93CF93DF93CDB7DEB72C97A9
:103290000FB6F894DEBF0FBECDBF6D837E838F83E4
:1032A000988729873A874B875C8747015801360101
:1032B0008091190190911A01A0911B01B0911C01FC
:1032C00089839A83AB83BC83D601CD90DD90ED904A
:1032D000FC9020E030E0A901C701B6010E9470EE29
:1032E000811106C0E5EDFAE0C590D590E590F49027
:1032F000A50194016091C8047091C9048091CA0429
:103300009091CB040E9470EE87FF11C0C09219010A
:10331000D0921A01E0921B01F0921C018092C80425
:103320009092C904A092CA04B092CB0447DFF30183
:10333000408051806280738020E030E0A901C301A9
:10334000B2010E9470EE811108C0409001015090BE
:1033500002016090030170900401409219015092A3
:103360001A0160921B0170921C018D819E81AF81B8
:10337000B8858093C0049093C104A093C204B09315
:10338000C30489859A85AB85BC858093C4049093DA
:10339000C504A093C604B093C70410DFA50194012F
:1033A0006091C8047091C9048091CA049091CB04C3
:1033B0000E9412F018168CF4C0921901D0921A01D2
:1033C000E0921B01F0921C018092C8049092C90403
:1033D000A092CA04B092CB04F1DE0E94907F898152
:1033E0009A81AB81BC818093190190931A01A093BB
:1033F0001B01B0931C012C960FB6F894DEBF0FBED4
:10340000CDBFDF91CF911F910F91FF90EF90DF9093
:10341000CF90BF90AF909F908F907F906F905F9074
:103420004F900895CF92DF92EF92FF920F931F93E8
:103430006B01FC01E080F18002811381E0ECF4E09B
:103440002481358146815781608171818281938198
:103450000CDF1F910F91FF90EF90DF90CF900895B8
:10346000CF92DF92EF92FF920F931F936A01E09049
:10347000C804F090C9040091CA041091CB04FB0168
:103480002081318142815381FC016081718182817F
:103490009381EBDE1F910F91FF90EF90DF90CF9023
:1034A00008958091190190911A01A0911B01B0918A
:1034B0001C0180931D0390931E03A0931F03B093E0
:1034C0002003809117019091180190931C03809321
:1034D0001B0384E690E090931801809317010895F0
:1034E00080911D0390911E03A0911F03B0912003B2
:1034F0008093190190931A01A0931B01B0931C01B2
:1035000080911B0390911C039093180180931701E5
:103510000895EF92FF921F93CF93DF93882329F0B2
:10352000D091AF04D095D17001C0D0E0662341F0B6
:103530001091AF0411FB882780F911E0182701C012
:1035400010E0442341F0C091AF04C2FB882780F90A
:10355000C1E0C82701C0C0E0D11105C0111103C0EE
:10356000CC2309F486C0E0E5F4E164917F018FEF9C
:10357000E81AF80A662329F08BE993E1D6D9F70116
:10358000F4CFE0E1F9E064917F019FEFE91AF90AD5
:10359000662329F08BE993E1C8D9F701F4CFDD2345
:1035A00071F0EEE0F9E064917F018FEFE81AF80A1C
:1035B000662329F08BE993E1B8D9F701F4CF112301
:1035C00071F0ECE0F9E064917F019FEFE91AF90AEC
:1035D000662329F08BE993E1A8D9F701F4CFC11153
:1035E00003C0E2E0F9E00EC0EAE0F9E064917F0197
:1035F0008FEFE81AF80A6623A1F38BE993E195D9D6
:10360000F701F4CF64917F019FEFE91AF90A66236D
:1036100029F08BE993E189D9F701F4CFC11103C0F7
:1036200048EE51E002C048ED51E0111103C028EE10
:1036300031E002C02AED31E0D11103C088EE91E003
:1036400002C08CED91E05F934F933F932F939F9334
:103650008F9380EF98E09F938F931F920E94D6B62E
:103660008DB79EB709960FB6F8949EBF0FBE8DBF5B
:10367000C1E08C2FDF91CF911F91FF90EF900895C3
:10368000BF92CF92DF92EF92FF920F931F93CF934F
:10369000DF93CDB7DEB728970FB6F894DEBF0FBE25
:1036A000CDBF90916209981709F47AC0B82E88238B
:1036B00009F453C080E090E0A0EAB0E48D839E83DB
:1036C000AF83B887C090D202D090D302E090D402EA
:1036D000F090D50220E030E0A901C701B6010E94B8
:1036E00070EE87FF0CC0A701960160E070E080EAF1
:1036F00090E40E94F8ED6D837E838F83988720E0AD
:1037000030E046E153E46D817E818F8198850E948F
:1037100012F0181644F480E090E0A6E1B3E48D8343
:103720009E83AF83B8872091C8043091C90440912B
:10373000CA045091CB046D817E818F8198850E944F
:1037400012F0181654F419821A821B821C82BE01D0
:103750006F5F7F4FCE01059665DE6091C00470916A
:10376000C1048091C2049091C3042091C40430919B
:10377000C5044091C6045091C70419821A821B8265
:103780001C82E090C804F090C9040091CA04109112
:10379000CB04FE0131966F0168DD8B2D0E949C7277
:1037A00080E028960FB6F894DEBF0FBECDBFDF9144
:1037B000CF911F910F91FF90EF90DF90CF90BF902E
:1037C00008954F925F926F927F928F929F92AF92E5
:1037D000BF92CF92DF92EF92FF920F931F93CF93FE
:1037E000C82FE82EF12CF701E257F54FB490823044
:1037F00021F481E045DF811107C16701CC0CDD1C9C
:10380000CC0CDD1CF601E356F54F459055906590C4
:1038100074906B2DBB0C770B880B990B0E940FEFEC
:103820004B015C0120E030E040EC5FE3C301B201FA
:103830000E9446F0A50194010E9446F0AB01BC0134
:1038400000E010E098018C2FACDAC23041F0F601B4
:10385000EF56F54F259135914591549104C020E0E4
:1038600030E040E450E4C501B4010E9446F04B0151
:103870005C0120E030E0A9010E9470EE882309F489
:103880005CC0C23021F000E010E0980104C000E00C
:1038900010E020E830E4B501A40170588C2F81DAE3
:1038A000C23009F439C0F701E558F74F849181110E
:1038B0001DC0E0E5F4E164917F018FEFE81AF80A9A
:1038C000662329F08BE993E130D8F701F4CFE9E5DD
:1038D000F8E064917F018FEFE81AF80A662329F077
:1038E0008BE993E122D8F701F4CF8AE0F601E353A4
:1038F000F54F4590559065907490682F70E080E08A
:1039000090E00E940FEF9B01AC01C301B2010E9445
:1039100074EE2B013C0105C0412C512C612C90E42C
:10392000792EA5019401C501B4010E94F9EDAB0106
:10393000BC01930182018C2F34DA81E090E00C2EDF
:1039400001C0880F0A94EAF79091AE04982B9093E7
:10395000AE049091AF04892B8093AF04F601E55F2C
:10396000FC4F10821182128213828C2FE7DBF6014A
:10397000E755F54F85919591A591B491F601E054E5
:10398000FB4F80839183A283B383C230D1F4209113
:10399000D2023091D3024091D4025091D50260916D
:1039A000C8047091C9048091CA049091CB040E940C
:1039B000F8ED6093C8047093C9048093CA0490938F
:1039C000CB04A8D9F601E055FB4FD601A054BB4F5C
:1039D0008D919D910D90BC91A02D80839183A283A8
:1039E000B383C23089F480E0CF911F910F91FF9093
:1039F000EF90DF90CF90BF90AF909F908F907F908F
:103A00006F905F904F903CCECF911F910F91FF90A0
:103A1000EF90DF90CF90BF90AF909F908F907F906E
:103A20006F905F904F90089581E00895AF92BF929C
:103A3000CF92DF92EF92FF920F931F93CF93DF937A
:103A400080E0A82E82E0B82E90EBE92E94E0F92ECB
:103A500000EC14E023EFC22E22E0D22EC0E0D0E032
:103A6000F50181915F0188D8882319F1DCD8FE0126
:103A7000E95EFC4F2081211104C02091E302222342
:103A800041F0F80120813181428153810E94F9ED9A
:103A90000AC0C330D10539F0F6012081318142815D
:103AA00053810E94F8EDF7016083718382839383D1
:103AB0000AC0F80180819181A281B381F7018083DE
:103AC0009183A283B3832196F4E0EF0EF11C0C5F87
:103AD0001F4F84E0C80ED11CC430D10509F0C0CFFF
:103AE00086E495D88823B9F09ED820E030E0A9017B
:103AF0000E9412F018167CF496D820E030E040E7DF
:103B000052E40E9474EE6093190170931A0180933D
:103B10001B0190931C01DF91CF911F910F91FF909A
:103B2000EF90DF90CF90BF90AF900895CF92DF924B
:103B3000EF92FF920F931F93CF93DF930FB6F894FA
:103B4000C0909013D0909113E0909213F090931343
:103B50000FBE8091E102811174C080910001882321
:103B600009F46FC08091C102882309F46AC04091B2
:103B7000BD025091BE026091BF027091C0029701D8
:103B80008601041B150B260B370B37FD6DC08330E8
:103B900031F134F481300CF454C0E0E5F4E106C0B6
:103BA000843009F04EC0E0E5F4E133C06491EF01E8
:103BB0002196662331F08BE993E10E949514FE0172
:103BC000F5CFEDEAF8E06491EF012196662309F460
:103BD00038C08BE993E10E949514FE01F4CFE0E533
:103BE000F4E16491EF012196662331F08BE993E1D2
:103BF0000E949514FE01F5CFE6E9F8E06491EF012B
:103C000021966623F1F08BE993E10E949514FE0161
:103C1000F5CF6491EF012196662331F08BE993E1B2
:103C20000E949514FE01F5CFEEE7F8E06491EF01F4
:103C30002196662331F08BE993E10E949514FE01F1
:103C4000F5CF2091000130E0A8EEB3E00E94D9ED5D
:103C5000C60ED71EE81EF91EC092BD02D092BE024B
:103C6000E092BF02F092C002DF91CF911F910F91BD
:103C7000FF90EF90DF90CF9008950F931F93CF9315
:103C8000DF9300D000D0CDB7DEB78091AE04837053
:103C9000833011F160E08BE498E00E945CB6E0E5CF
:103CA000F4E164918F010F5F1F4F662331F08BE9C0
:103CB00093E10E949514F801F4CFECE3F8E06491ED
:103CC0008F010F5F1F4F662309F43DC08BE993E11D
:103CD0000E949514F801F3CF1DD880E090E0A0E990
:103CE000B2E48093B4049093B504A093B604B09367
:103CF000B7048091C8049091C904A091CA04B091FE
:103D0000CB048093B8049093B904A093BA04B09301
:103D1000BB0480E090E0A0E7B2E48093B00490930D
:103D2000B104A093B204B093B30419821A821B8227
:103D30001C82AE014F5F5F4F64EB74E080EB94E058
:103D40008FDB82E03EDD0F900F900F900F90DF91A0
:103D5000CF911F910F910895CF93DF93E4E5F7E0A2
:103D60006491EF012196662331F08BE993E10E9483
:103D70009514FE01F5CF81ED94E00E948157E5E4B2
:103D8000F7E06491EF012196662331F08BE993E12E
:103D90000E949514FE01F5CFDF91CF910895809197
:103DA000D4048823A9F083E50E940716882381F0B4
:103DB0000E944A16AB01BC0140933F075093400755
:103DC00060934107709342078EE896E00C940C4B89
:103DD0000895CF93DF9383E40E94BC15882399F064
:103DE000E6E3F7E06491EF012196662331F08BE979
:103DF00093E10E949514FE01F5CF81ED94E0DF91EF
:103E0000CF910C94C75781ED94E0DF91CF910C9442
:103E1000F5580F931F93CF93DF93CDB7DEB7699714
:103E20000FB6F894DEBF0FBECDBF0E94049F6E8B0D
:103E30007F8B888F998FBE016F5F7F4FCE01469633
:103E40000E94FC1460E0CE0101960E9435B6E0E5C8
:103E5000F4E164918F010F5F1F4F662331F08BE90E
:103E600093E10E949514F801F4CFBE016F5F7F4F7C
:103E700089E297E00E94E98E6AE08BE993E10E9473
:103E8000951469960FB6F894DEBF0FBECDBFDF91D3
:103E9000CF911F910F910895CF938091D3048111F9
:103EA0000E94907F8091D4048823A9F180E50E942C
:103EB0000716882321F00E947B16C82F04C080E5D6
:103EC0000E94BC15C82F60918B0970918C092C2F12
:103ED00041E081ED94E00E942E5B83E50E9407168D
:103EE000882381F00E944A16AB01BC0140933F0732
:103EF0005093400760934107709342078EE896E025
:103F00000E940C4B81ED94E00E946058C11103C0E7
:103F1000CF910C94439FCF910895CF93DF93E6E523
:103F2000F4E16491EF012196662331F08BE993E18E
:103F30000E949514FE01F5CFE1EBF6E06491EF01EC
:103F40002196662331F08BE993E10E949514FE01DE
:103F5000F5CFDF91CF91089588E690E0AAD881113E
:103F600024C08091D00483FD20C083E50E94071601
:103F70008823C9F00E9413160E94DCEE709312127F
:103F80006093111280E00E9462A30E94131620E049
:103F900030E04AEA52E40E9470EE181624F00E94C3
:103FA000AD9E0E9496B60C94B58E0895CF93DF9384
:103FB00089E690E07ED8811116C0E3E6F6E06491D0
:103FC000EF012196662331F08BE993E10E9495146D
:103FD000FE01F5CF0E9423A96AE08BE993E1DF910E
:103FE000CF910C949514DF91CF910895CF92DF92E9
:103FF000EF92FF9283E50E940716882321F10E9429
:104000006A168D3308F08CE38093A7110FB6F894ED
:10401000C0909013D0909113E0909213F09093136E
:104020000FBE282F30E0A8EEB3E00E94D9EDC60EF7
:10403000D71EE81EF91EC092A311D092A411E092DF
:10404000A511F092A611FF90EF90DF90CF90089508
:1040500080E50E940716811106C083E50E940716BD
:10406000882359F005C00E946A1681110CC0F5CF53
:104070000E944A166F3F710510F06FEF70E0709369
:10408000E6026093E50208958091D00483FD14C098
:1040900083E50E940716882379F00E9413160E9478
:1040A000DCEE6639710514F066E970E070930A126F
:1040B000609309120C94B4A30895DF92EF92FF92DB
:1040C0000F931F93CF93DF9383E50E94BC15882342
:1040D00059F083E50E940716882319F00E946A169A
:1040E00001C080E08093D004E0E5F4E16491EF0149
:1040F0002196662331F08BE993E10E949514FE012D
:10410000F5CFEAEAF6E06491EF012196662331F0FB
:104110008BE993E10E949514FE01F5CF8091D004C4
:104120008823A9F180EAE82E86E0F82E00E010E06E
:1041300020E08091D00490E0002E02C095958795F4
:104140000A94E2F780FF1AC0DD24D394D20E222312
:1041500029F06CE28BE993E10E949514F7018591B7
:104160009491FC016491EC012196662331F08BE976
:1041700093E10E949514CE01F4CF2D2D0F5F1F4FB8
:10418000F2E0EF0EF11C0530110599F60DC0ECE9D7
:10419000F6E06491EF012196662331F08BE993E11B
:1041A0000E949514FE01F5CF6AE08BE993E1DF915F
:1041B000CF911F910F91FF90EF90DF900C94951489
:1041C000CF93DF9383E50E940716882351F00E9466
:1041D0006A168D3308F08CE380930001DF91CF9154
:1041E0000895E0E5F4E16491EF012196662331F052
:1041F0008BE993E10E949514FE01F5CF40910001F7
:1042000050E060E070E086E696E00E946F8F6AE022
:104210008BE993E1DF91CF910C949514CF93DF93C9
:1042200083E50E940716882321F00E944A16EB01BD
:1042300002C0C0E0D0E0DD27C230D105DCF0E6E509
:10424000F4E16491EF012196662331F08BE993E16B
:104250000E949514FE01F5CFE1E4F4E06491EF01D2
:104260002196662309F452C08BE993E10E949514CC
:10427000FE01F4CF88E40E9407168823A9F00E946B
:104280004A166A3A71053CF0653081E078072CF0F7
:1042900064E071E002C06AEA70E0FE01EE0FFF1F09
:1042A000EF56FD4E7183608386E40E9407168823D3
:1042B000A9F00E944A16FE01EE0FFF1FE757FD4EC0
:1042C000718360836F3F710519F014F06FEF70E038
:1042D00077FF02C060E070E07183608382E40E9437
:1042E0000716882399F00E944A166530710534F04C
:1042F000683871052CF067E870E002C065E070E096
:10430000CC0FDD1FC357DD4E79836883DF91CF91DA
:1043100008954F925F926F927F92AF92BF92CF9229
:10432000DF92EF92FF920F931F93CF9380E0A82E1E
:1043300082E0B82E0BE31AE0C0E0F50181915F0145
:104340000E94BC15882309F46DC0C33009F063C016
:104350000E9413166B017C0120E030E040EA51E43A
:104360000E9470EE87FF4EC0A70196016091470A38
:104370007091480A8091490A90914A0A0E9474EE0D
:104380002B013C019B01AC016091130A7091140A4E
:104390008091150A9091160A0E9446F06093130AC4
:1043A0007093140A8093150A9093160AA301920140
:1043B0006091570A7091580A8091590A90915A0A4F
:1043C0000E9446F06093570A7093580A8093590AE6
:1043D00090935A0A60916B0A70916C0A80916D0AF1
:1043E00090916E0A0E940DEFA30192010E9446F087
:1043F0000E94E1EE60936B0A70936C0A80936D0AE1
:1044000090936E0AC092470AD092480AE092490AF5
:10441000F0924A0A07C00E941316F8016083718364
:1044200082839383CF5F0C5F1F4FC43009F085CF29
:10443000CF911F910F91FF90EF90DF90CF90BF90A1
:10444000AF907F906F905F904F900C94918E0F93F0
:104450001F93CF93DF93C0ECD4E003EF12E0F80199
:104460002081318142815381688179818A819B8158
:104470000E94F9EDAB01BC0183E398E00E944E8FEE
:10448000F80124813581468157816C817D818E813F
:104490009F810E94F9EDAB01BC018FE298E00E9480
:1044A0004E8FF80120853185428553856885798551
:1044B0008A859B850E94F9EDAB01BC018BE298E0F7
:1044C0000E944E8F4C855D856E857F8587E298E0E2
:1044D0000E944E8FDF91CF911F910F910C94AA9C57
:1044E0004F925F926F927F928F929F92AF92BF9204
:1044F000CF92DF92EF92FF920F931F93CF93DF93B0
:1045000080E0C82E82E0D82E9BE0E92E93E0F92EC1
:1045100000E010E0C0E0D0E0F60181916F010E9460
:104520000716882309F44DC00E9413164B015C0145
:10453000C33059F0F801ED50FD4F208131814281A7
:1045400053810E94F8ED4B015C01F801E054FB4FF0
:104550002081318142815381C501B4010E94F8ED6F
:104560002B013C012DEB37E346E855EB0E9412F09E
:1045700087FD0AC02DEB37E346E855E3C301B201DE
:104580000E9470EE1816ECF4C33051F48092CC0403
:104590009092CD04A092CE04B092CF04D1E011C08D
:1045A000A3019201F70160817181828193810E9450
:1045B000F9EDF70160837183828393838C2F0E94CE
:1045C0009E18CF5FF4E0EF0EF11C0C5F1F4FC4305C
:1045D00009F0A2CFD1110E949417DF91CF911F91C2
:1045E0000F91FF90EF90DF90CF90BF90AF909F9092
:1045F0008F907F906F905F904F9029CFCF93DF93F4
:10460000EDE4F5E06491EF012196662331F08BE94A
:1046100093E10E949514FE01F5CF60E08DE395E0F3
:104620000E94AB1461E086E395E00E94AB1461E068
:104630008BE295E00E94AB1461E08BE195E00E9473
:10464000AB1460E082E195E00E94AB1461E088E089
:1046500095E00E94AB1461E08EEF94E00E94AB14F1
:1046600061E086EF94E00E94AB1461E088EE94E094
:104670000E94AB1460E08AED94E00E94AB1460E00D
:104680008BEC94E00E94AB1460E08DEB94E00E9410
:10469000AB1460E087EA94E00E94AB1460E086E926
:1046A00094E00E94AB1460E081E894E00E94AB14B7
:1046B00061E08EE694E0DF91CF910C94AB14FF9211
:1046C0000F931F93CF93DF93C0918B09D0918C09E7
:1046D00083E0F12C40E08150D1F09881292F2B7F8D
:1046E0002134C9F729812133B1F7913421F0953470
:1046F00021F441E002C0FF24F3949E012E5F3F4F5E
:10470000E9012F5F3F4F98819032D1F3E4CF4423EA
:1047100071F0E0E5F4E164918F010F5F1F4F6623B4
:1047200031F08BE993E10E949514F801F4CFFF205A
:1047300071F0E3E6F4E064918F010F5F1F4F662391
:1047400031F08BE993E10E949514F801F4CFBE019A
:104750008BE993E10E9486146AE08BE993E1DF9193
:10476000CF911F910F91FF900C949514CF9388ECEB
:1047700090E00E945918811140C084E40E94BC1549
:104780008823C1F10E941316C1E020E030E0A901A6
:104790000E9470EE811101C0C0E0C0938F09CC234C
:1047A00049F10E941316E091D60224E0E29FF00145
:1047B0001124ED5FF54F608371838283938320E042
:1047C00030E0A9016091030A7091040A8091050A02
:1047D0009091060A0E9470EE81110CC080E090E07A
:1047E000A0EEBFE38093030A9093040AA093050A06
:1047F000B093060ACF910C948F7DCF910895CF93FB
:1048000083E50E9407168823A1F00E941316609387
:10481000230A7093240A8093250A9093260A6093B2
:104820001B0A70931C0A80931D0A90931E0AC0E015
:1048300001C0C1E080E50E940716882359F00E945C
:1048400013166093230A7093240A8093250A909389
:10485000260AC0E082E50E940716882359F00E94CC
:10486000131660931F0A7093200A8093210A909375
:10487000220AC0E084E50E940716882359F00E94AE
:10488000131660931B0A70931C0A80931D0A909361
:104890001E0A2CC0CC2351F14091230A5091240AC6
:1048A0006091250A7091260A81E394E00E944E8F60
:1048B00040911F0A5091200A6091210A7091220AAA
:1048C0008EE294E00E944E8F40911B0A50911C0A88
:1048D00060911D0A70911E0A8BE294E00E944E8F37
:1048E0006AE08BE993E1CF910C949514CF910895F0
:1048F00081E50E94BC15882351F00E945A166093EE
:104900005B0A70935C0A80935D0A90935E0A83E56C
:104910000E94BC15882351F00E9413166093270A49
:104920007093280A8093290A90932A0A84E50E94AA
:10493000BC15882351F00E9413166093170A7093D8
:10494000180A8093190A90931A0A88E50E94BC15E8
:10495000882351F00E9413166093070A7093080A87
:104960008093090A90930A0A89E50E94BC1588235E
:1049700051F00E94131660930B0A70930C0A8093F7
:104980000D0A90930E0A8AE50E94BC15882351F007
:104990000E94131660930F0A7093100A8093110AF5
:1049A0009093120A85E40E94BC15882351F00E945E
:1049B00013166093130A7093140A8093150A909348
:1049C000160A0895EF92FF920F931F93CF9380E002
:1049D000E82E82E0F82E0FEF12E0C0E0F70181919F
:1049E0007F010E94BC15882351F00E941316F80124
:1049F00060837183828393838C2F0E949E18CF5F84
:104A00000C5F1F4FC33051F7CF911F910F91FF9053
:104A1000EF901DCDCF93DF93E0E5F4E16491EF01DA
:104A20002196662331F08BE993E10E949514FE01F3
:104A3000F5CF83E50E94BC15882321F00E947B16E8
:104A400080930A01EFEDF3E06491EF012196662374
:104A500031F08BE993E10E949514FE01F5CF80912E
:104A60000A01811103C0E7EDF3E002C0EBEDF3E0D2
:104A70006491EF012196662331F08BE993E10E9466
:104A80009514FE01F5CFEFECF3E06491EF01219670
:104A9000662331F08BE993E10E949514FE01F5CF76
:104AA0002091F3023091F4024091F5025091F60208
:104AB0006091E7027091E8028091E9029091EA0228
:104AC0000E94F9EDAB01BC018DEC93E00E944E8F8A
:104AD0002091F7023091F8024091F9025091FA02C8
:104AE0006091EB027091EC028091ED029091EE02E8
:104AF0000E94F9EDAB01BC018AEC93E00E944E8F5D
:104B00002091FB023091FC024091FD025091FE0287
:104B10006091EF027091F0028091F1029091F202A7
:104B20000E94F9EDAB01BC0187EC93E00E944E8F2F
:104B3000EFEBF3E06491EF012196662331F08BE90E
:104B400093E10E949514FE01F5CF2091F30230917C
:104B5000F4024091F5025091F60260910B017091C0
:104B60000C0180910D0190910E010E94F9EDAB01B5
:104B7000BC018DEB93E00E944E8F2091F7023091A3
:104B8000F8024091F9025091FA0260910F01709180
:104B9000100180911101909112010E94F9EDAB0179
:104BA000BC018AEB93E00E944E8F2091FB02309172
:104BB000FC024091FD025091FE0260911301709140
:104BC000140180911501909116010E94F9EDAB013D
:104BD000BC0187EB93E00E944E8F6AE08BE993E182
:104BE000DF91CF910C9495140F931F93CF93DF9384
:104BF0008DED90E00E945918811170C083E50E94EC
:104C000007168823B9F1C091D602D0E00E944A1657
:104C1000CC0FDD1FC25DDE4F798368838091D602A1
:104C200090E0EC01CC0FDD1FCC0FDD1F8E01065D87
:104C30001E4F880F991FFC01E25DFE4F608171815C
:104C4000072E000C880B990B0E940FEF2AE037ED1E
:104C500043E25CE30E9446F0C150D64F288139817F
:104C60004A815B810E9446F0F801608371838283F0
:104C7000938334C0E0E5F4E16491EF01219666236B
:104C800031F08BE993E10E949514FE01F5CF65E4C4
:104C90008BE993E10E9495146091D602605D8BE9E7
:104CA00093E10E949514E091D602F0E0EE0FFF1F11
:104CB000E25DFE4F608171818FEA93E00E94118F67
:104CC00065E28BE993E10E9495146AE08BE993E138
:104CD000DF91CF911F910F910C949514DF91CF919B
:104CE0001F910F910895CF92DF92EF92FF92CF9391
:104CF000DF938AE50E940716811106C083E50E94B2
:104D00000716882309F481C00E94131620E030E0C2
:104D100040E050EC0E9470EE87FD15C00E94131613
:104D200020E030E040E050E40E9412F018162CF031
:104D30000E9413166B017C010BC0C12CD12CE12CFD
:104D400090E4F92E05C0C12CD12CE12C80ECF82E7A
:104D50002091430A3091440A4091450A5091460AF5
:104D60008091AE0482FF10C0C091EC11D091ED1182
:104D7000C701B6010E9446F00E94DCEEC60FD71FA5
:104D8000D093ED11C093EC1180E50E94BC158823EF
:104D900021F00E947B168823C1F1A7019601609142
:104DA000D2027091D3028091D4029091D5020E94D8
:104DB000F9ED6093D2027093D3028093D402909362
:104DC000D502E0E5F4E16491EF012196662331F02C
:104DD0008BE993E10E949514FE01F5CF4091D20238
:104DE0005091D3026091D4027091D5028EE993E084
:104DF0000E944E8F6AE08BE993E1DF91CF91FF90A3
:104E0000EF90DF90CF900C949514DF91CF91FF90AD
:104E1000EF90DF90CF900895CF93DF9385E40E94C9
:104E20000716811110C080E50E94BC15882391F0FF
:104E30000E9413166093F6117093F7118093F81186
:104E40009093F91107C00E946A16882361F3E6E582
:104E5000F4E172C089E40E94BC15882381F00E94AD
:104E600013162CEA35EC47E25EE30E9446F06093AD
:104E7000F2117093F3118093F4119093F51184E47F
:104E80000E94BC15882381F00E9413162CEA35EC91
:104E900047E25EE30E9474EE6093EE117093EF11AF
:104EA0008093F0119093F111E0E5F4E16491EF014A
:104EB0002196662331F08BE993E10E949514FE015F
:104EC000F5CF4091F6115091F7116091F811709162
:104ED000F9118AE993E00E944E8F2CEA35EC47E203
:104EE0005EE36091F2117091F3118091F411909151
:104EF000F5110E9474EEAB01BC0186E993E00E94BB
:104F00004E8F2CEA35EC47E25EE36091EE11709132
:104F1000EF118091F0119091F1110E9446F0AB01D8
:104F2000BC0182E993E00E944E8F6AE08BE993E135
:104F3000DF91CF910C9495146491EF012196662333
:104F400031F08BE993E10E949514FE01F5CFE0E882
:104F5000F3E06491EF012196662331F08BE993E150
:104F60000E949514FE01F5CFDF91CF910895CF9364
:104F7000DF9383E50E94BC15C82F882371F00E943F
:104F800013160E94DCEE70934D0160934C0121E0FA
:104F9000672B09F020E02093E11180E50E94BC1509
:104FA000882359F020914C0130914D01232B11F0B1
:104FB0000E947B168093E11131C0C1112FC0E0E542
:104FC000F4E16491EF012196662331F08BE993E1DE
:104FD0000E949514FE01F5CF8091E111811103C06B
:104FE00061EE71E002C06EED71E08DE693E00E942B
:104FF000E98E60914C0170914D018CE593E00E9427
:10500000118FE8E5F3E06491EF012196662331F01A
:105010008BE993E10E949514FE01F5CFDF91CF91CA
:1050200008958F929F92AF92BF92EF92FF920F934B
:105030001F93CF93DF9300D000D0CDB7DEB785E4C8
:105040000E940716882321F00E944A168B0102C095
:1050500000E010E083E40E940716882321F00E94FC
:105060004A16F62E02C025E0F22E85E50E940716AC
:10507000882321F00E947B16E82E04C085E50E945B
:10508000BC15E82E17FD07C0812C912C96E1A92EA6
:1050900093E4B92E06C0812C912C8CE8A82E82E4D2
:1050A000B82E83E50E940716882321F00E9413166C
:1050B0004B015C01C501B4010E94DCEE0115110534
:1050C00011F41092D602072E000C880B990B0E9447
:1050D0000FEF69837A838B839C832E2D4F2D602F56
:1050E000CE0101960E94AEA90F900F900F900F90E5
:1050F000DF91CF911F910F91FF90EF90BF90AF90F4
:105100009F908F9008952F923F924F925F926F924F
:105110007F928F929F92AF92BF92CF92DF92EF9247
:10512000FF920F931F93CF93DF93CDB7DEB72F97E7
:105130000FB6F894DEBF0FBECDBF41E061E081E065
:105140000E94891A8111DAC099EA892E9AE0992E73
:1051500080EC94E09E878D87FE0131965F010EE81A
:105160001AE01F01F3E0F00FFF87F40165917591DC
:1051700085919491ED85FE85C190D190E190F1905B
:10518000FE87ED87A70196010E94F8ED2B013C01F7
:1051900020E030E040EA51EC0E9412F087FD10C0A0
:1051A00020E030E040EA51E4C301B2010E9470EE19
:1051B000181634F0F10140825182628273820DC070
:1051C000F80184911816B4F7F7FAF094F7F8F09410
:1051D000F101C082D182E282F382F101C190D190CB
:1051E000E190F1901F0120E030E040EA51ECC7016E
:1051F000B6010E9412F087FF03C0E6E5F4E10BC0A0
:1052000020E030E040EA51E4C701B6010E9470EEB0
:105210001816BCF5F2CF64918F010F5F1F4F662304
:1052200031F08BE993E10E949514F801F4CFEDE0A1
:10523000F4E064918F010F5F1F4F662331F08BE91B
:1052400093E10E949514F801F4CF8FEF93E02F962D
:105250000FB6F894DEBF0FBECDBFDF91CF911F9187
:105260000F91FF90EF90DF90CF90BF90AF909F9005
:105270008F907F906F905F904F903F902F900C9405
:10528000F2B6F4E08F0E911C0F5F1F4F8F858013D5
:105290006CCF8FEFE82E82E0F82E10E0F5018191BF
:1052A0009191A191B1915F01F70181939193A193A4
:1052B000B1937F01812F0E949E181F5F133071F7F9
:1052C000C6D860E08FEE93E02F960FB6F894DEBF5D
:1052D0000FBECDBFDF91CF911F910F91FF90EF9047
:1052E000DF90CF90BF90AF909F908F907F906F9006
:1052F0005F904F903F902F900C945CB62F960FB616
:10530000F894DEBF0FBECDBFDF91CF911F910F91FB
:10531000FF90EF90DF90CF90BF90AF909F908F90D5
:105320007F906F905F904F903F902F900895CF9314
:10533000DF930E9402718823D1F0E0E5F4E16491EB
:10534000EF012196662331F08BE993E10E949514D9
:10535000FE01F5CFE4EFF2E06491EF0121966623C0
:1053600031F08BE993E10E949514FE01F5CFDF91B6
:10537000CF910895CF92DF92EF92FF92CF93DF9378
:105380008AE50E940716882309F43AC00E94131682
:105390006B017C0120E030E040EA50EC0E9412F00A
:1053A00087FD13C020E030E040EA51E4C701B601B8
:1053B0000E9470EE18164CF0C092D202D092D30226
:1053C000E092D402F092D5024CC0E6E5F4E164919B
:1053D000EF01219661110EC0E8EDF2E06491EF015A
:1053E0002196662309F43DC08BE993E10E94951450
:1053F000FE01F4CF8BE993E10E949514FE01E7CF03
:10540000E0E5F4E16491EF012196662331F08BE948
:1054100093E10E949514FE01F5CFE9ECF2E064916E
:10542000EF012196662331F08BE993E10E949514F8
:10543000FE01F5CF4091D2025091D3026091D40287
:105440007091D50286EC92E00E944E8F6AE08BE963
:1054500093E1DF91CF91FF90EF90DF90CF900C948C
:105460009514DF91CF91FF90EF90DF90CF9008954A
:10547000CF92DF92EF92FF92CF93DF938BE40E9463
:1054800007168823B1F18BE40E9407168823B1F038
:105490000E9413166B017C0120E030E0A9010E94FC
:1054A00012F087FD19C020E030E040E251E4C7016E
:1054B000B6010E9470EE18167CF003C0C12CD12CEE
:1054C00076010E94907FC092AC09D092AD09E09223
:1054D000AE09F092AF0931C0E7EAF2E06491EF0162
:1054E0002196662351F18BE993E10E949514FE0108
:1054F000F5CFE0E5F4E16491EF012196662331F008
:105500008BE993E10E949514FE01F5CF4091AC091F
:105510005091AD096091AE097091AF098CE992E0AC
:105520000E944E8F6AE08BE993E1DF91CF91FF906B
:10553000EF90DF90CF900C949514DF91CF91FF9076
:10554000EF90DF90CF900895CF92DF92EF92FF928D
:105550000F931F93CF9383E50E94BC15811104C064
:1055600000E012E0C0E00EC00E9413166B017C0147
:10557000C0E0B701A6018C2F0E94B59DCF5FC5305A
:10558000C1F7EECFF80181918F010E94BC158823ED
:1055900039F00E941316AB01BC018C2F0E94B59DFF
:1055A000CF5FC43079F7CF911F910F91FF90EF90AB
:1055B000DF90CF900895CF93DF9383E50E94071685
:1055C000882321F00E944A16EB0102C0C0E0D0E01F
:1055D00080E50E940716882319F00E946A1601C010
:1055E0008FEFBE01DF91CF910C94F69DCF93DF93A7
:1055F000E6E5F4E16491EF012196662331F08BE951
:1056000093E10E949514FE01F5CFE9E4F3E0649183
:10561000EF012196662331F08BE993E10E94951406
:10562000FE01F5CFDF91CF9108951F93CF93DF93C4
:10563000182FE0E5F4E16491EF012196662331F043
:105640008BE993E10E949514FE01F5CF64E58BE9A7
:1056500093E10E949514412F50E060E070E020E05B
:105660008BE993E10E94E4E460E28BE993E10E941C
:105670009514E3E0F8E06491EF012196662331F0A0
:105680008BE993E10E949514FE01F5CFDF91CF9154
:105690001F910895CF93DF93E091A404F0E0EE53BF
:1056A000FD4F80818823A1F0E0E9F2E06491EF01F1
:1056B0002196662331F08BE993E10E949514FE0157
:1056C000F5CF6AE08BE993E1DF91CF910C949514CB
:1056D000DF91CF910895CF92DF92EF92FF92CF9317
:1056E000DF9320910A01222309F485C0EC01C090C8
:1056F000E702D090E802E090E902F090EA02A70108
:105700009601688179818A819B810E9470EE87FF72
:1057100004C0C882D982EA82FB82C090EB02D0909A
:10572000EC02E090ED02F090EE02A70196016C8190
:105730007D818E819F810E9470EE87FF04C0CC82A4
:10574000DD82EE82FF82C0900B01D0900C01E090D0
:105750000D01F0900E01A7019601688179818A817F
:105760009B810E9412F0181624F4C882D982EA8222
:10577000FB82C0900F01D0901001E0901101F090D9
:105780001201A70196016C817D818E819F810E940B
:1057900012F0181624F4CC82DD82EE82FF82C090D3
:1057A000EF02D090F002E090F102F090F202A70137
:1057B0009601688579858A859B850E9470EE87FFB2
:1057C00004C0C886D986EA86FB86C0901301D090B3
:1057D0001401E0901501F0901601A701960168856B
:1057E00079858A859B850E9412F0181624F4C88654
:1057F000D986EA86FB86DF91CF91FF90EF90DF900C
:10580000CF900895CF93DF9380E00E947C7FC6EC19
:10581000D2E0688379838A839B8381E00E947C7FC6
:105820006C837D838E839F8382E00E947C7F688768
:1058300079878A879B87DF91CF910895CF93DF93F4
:10584000E1DF6BE58BE993E10E949514C6ECD2E0B1
:10585000488159816A817B8122E08BE993E10E9432
:105860004DE54C815D816E817F8189E398E00E94E6
:105870004E8F488559856A857B8586E398E00E942E
:105880004E8F6DE58BE993E10E9495146AE08BE9F8
:1058900093E1DF91CF910C949514CF93C82FB2DF91
:1058A00086EC92E00E947A7ECE3F51F48CE0E6ECEA
:1058B000F2E0A0ECB4E001900D928A95E1F713C0FC
:1058C00024E0C29FC0011124FC01E054FB4FDC0125
:1058D000AA53BD4F8D919D910D90BC91A02D8083B9
:1058E0009183A283B383CF910895CF939091FE09C2
:1058F000891789F0C82F0E94907FC093FE09C111BB
:1059000003C08EEFCADF04C080EC94E00E947A7E70
:10591000CF910C948A16CF91089580E0E6DF8AED4E
:1059200099E00C941CDE8F929F92AF92BF92EF92FF
:10593000FF920F931F93CF93DF9300D000D0CDB78A
:10594000DEB7182F9091AE049770973079F48FE4FA
:105950000E940716882329F00E947B16882331F0C5
:1059600097C08FE40E94BC15811192C00E94907F65
:1059700080E0BBDF0E94511A81E00E948972111100
:105980001AC088E50E94BC15F82E89E50E94BC1556
:10599000082F8AE50E94BC15E82EF11007C00111FE
:1059A00011C0811110C0F02E11E00DC0002351F084
:1059B000F02E182F08C001E0FF24F394EE24E394A6
:1059C00011E001C010E080E1E0ECF4E0A0EBB4E015
:1059D00001900D928A95E1F782E50E9407168823CF
:1059E00061F00E9413164B015C0120E030E0A90138
:1059F0000E9470EE882369F105C0812C912C80E40F
:105A0000A82EBA2C111104C0F11002C0002391F18C
:105A10008092B8049092B904A092BA04B092BB04E8
:105A20002091C8043091C9044091CA045091CB041C
:105A3000C501B4010E9412F018165CF419821A8292
:105A40001B821C82BE016F5F7F4F88EB94E00E9437
:105A5000121A111105C0F11003C0011106C00AC0CD
:105A600080E00E94E11B1123C1F381E00E94E11B51
:105A7000111101C0E1100E943D1E0E948A160E9471
:105A80008C720E94701A83E0809353010E94272237
:105A90000F900F900F900F90DF91CF911F910F916A
:105AA000FF90EF90BF90AF909F908F900895CF930D
:105AB000DF93C82F0E94907FD091FE0980E015DF10
:105AC000CC2321F08C2FDF91CF91AFCD1092E40247
:105AD0008D2F0BDFE0E5F4E16491EF012196662361
