:100000000C94C2120C94EC120C94EC120C94EC12A2
:100010000C94EC120C94EC120C94EC120C94EC1268
:100020000C94EC120C94EC120C94EEDF0C946BE03C
:100030000C94EC120C94EC120C94EC120C94EC1248
:100040000C94EC120C94E88B0C94EC120C94EC12C3
:100050000C94EC120C94EC120C94E9A00C944DDF6F
:100060000C94EC120C94EC120C94EC120C94EC1218
:100070000C94EC120C94EC120C94EC120C94EC1208
:100080000C94EC120C94EC120C94EC120C94EC12F8
:100090000C948CD80C94EC12DCDC08DD2ADD2ADD13
:1000A0002ADD2ADD2ADD2ADD2ADD2ADD2ADD2ADD18
:1000B0002ADD2ADD20DD18DD10DD2ADD2ADD2ADD3E
:1000C0002ADD2ADD2ADD2ADD02DDE8DCF0DCFADCCF
:1000D0004E414E494E495459494E46CDCCCC3D0A2D
:1000E000D7233C17B7D13877CC2B329595E6241F10
:1000F000B14F0A000020410000C84200401C4620C9
:10010000BCBE4CCA1B0E5AAEC59D74446F6E6520B2
:10011000736176696E672066696C652E0A004D32E0
:1001200039002020506C616E6E657242756666659E
:100130007242797465733A20002046726565204DDD
:10014000656D6F72793A2000436F6D70696C6564FC
:100150003A204E6F7620313520323031380A002077
:100160007C20417574686F723A2044722E50686921
:100170006C33440A00323031382D30382D303100A4
:10018000204C61737420557064617465643A20007A
:10019000312E312E390A004D61726C696E00205388
:1001A0006F6674776172652052657365740A00200A
:1001B0005761746368646F672052657365740A00E1
:1001C0002042726F776E206F75742052657365746C
:1001D0000A002045787465726E616C205265736503
:1001E000740A00506F77657255700A0073746172FB
:1001F000740A005072696E7465722068616C74656F
:10020000642E206B696C6C28292063616C6C6564BA
:10021000210A004B494C4C45442E20004B494C4C84
:100220002063617573656420627920746F6F206D3F
:1002300075636820696E6163746976652074696DA1
:1002400065202D2063757272656E7420636F6D6D0D
:10025000616E643A200020636F6C6420657874726C
:100260007573696F6E2070726576656E7465640A69
:10027000006F6B00526573656E643A2000416476CE
:10028000616E6365204B3D003F4B2076616C756568
:10029000206F7574206F662072616E67652028304C
:1002A0002D3130292E0A003A200050726F626520ED
:1002B0005A204F6666736574003F5A206F7574202C
:1002C0006F662072616E676520282D3520746F205F
:1002D0003230290A00454550524F4D204F4B0A00FD
:1002E000426564204C6576656C696E6720004661E6
:1002F000696C656420746F20656E61626C65204274
:100300006564204C6576656C696E670A00426564B9
:10031000204C6576656C20436F7272656374696FFB
:100320006E204D61747269783A004E6F206361737C
:1003300065206C696768740A0043290A0061626C71
:10034000656420286D696E2074656D702000436FB0
:100350006C642065787472756465732061726520C1
:1003600000496E76616C69642065787472756465A5
:10037000720A0020643A0020693A0020703A005066
:10038000726F6265205A204F66667365743A20006A
:1003900020466C6F773A2000205A00205900580000
:1003A00020204D61783A2000205A00205900580042
:1003B00020204D696E3A20004F6666004F6E200087
:1003C000536F667420656E6473746F70733A2000A7
:1003D0004F666673657473206170706C6965640044
:1003E0004572723A20546F6F206661722100546F1B
:1003F0006F206661722066726F6D2072656665722D
:10040000656E636520706F696E740A002054002069
:100410005200416363656C65726174696F6E3A2066
:1004200050004D31343520533C696E6465783E2070
:100430006F7574206F662072616E67652028302D9D
:1004400031290A002F2F20004649524D574152456D
:100450005F4E414D453A4D61726C696E20312E31CF
:100460002E3920284769746875622920534F5552E8
:1004700043455F434F44455F55524C3A687474702E
:10048000733A2F2F6769746875622E636F6D2F4DF5
:1004900061726C696E4669726D776172652F4D612C
:1004A000726C696E2050524F544F434F4C5F56450B
:1004B0005253494F4E3A312E30204D414348494E18
:1004C000455F545950453A506C6179205632204569
:1004D000585452554445525F434F554E543A31207B
:1004E000555549443A34306365363164312D3265AF
:1004F00064302D343533302D383330342D35356577
:100500003365656161656266660A00506C617920D9
:100510005632204F66662E0020573A004520436F22
:100520006F6C696E672E2E2E0045204865617469D8
:100530006E672E2E2E006F6B004D3131332053002D
:100540004B494C4C45442E20004543484F00494EF2
:10055000464F004552524F52530044525952554E45
:1005600000434F4D4D554E49434154494F4E006F46
:1005700066660049054E0553055A05610544454226
:1005800055473A0050726F74656374656420506912
:100590006E0A0000011C1D132FFFFFFFFF1E1F121C
:1005A000FF18FFFFFF20211124FFFFFFFFFFFFFFC8
:1005B0000E10FFFFFF22230DFFFFFF0E260F2C273B
:1005C0002569730025696D202569730025696820F8
:1005D00025696D20256973002569642025696820D7
:1005E00025696D20256973002569792025696420B6
:1005F0002569682025696D20256973005072696E30
:10060000742074696D653A200043757272656E746A
:100610002066696C653A2000456E642066696C65E9
:10062000206C6973740A00426567696E2066696CA4
:1006300065206C6973740A004E6F206D6F76652EAD
:1006400000436C69636B20746F20726573756D6510
:100650002E2E2E00205A3A200020593A20004265C2
:100660006420583A20000A0A426564204C65766589
:100670006C20436F7272656374696F6E204D617494
:100680007269783A00202844525952554E29004741
:100690003239204175746F20426564204C6576655F
:1006A0006C696E67003F2856296572626F7365201A
:1006B0006C6576656C20697320696D706C6175730B
:1006C00069626C652028302D34292E0A00536C6530
:1006D00065702E2E2E00496E76616C6964206578F7
:1006E0007472756465720A004163746976652045A9
:1006F000787472756465723A200020453A00205A79
:100700003A0020593A00583A002C20002C2000488A
:100710006F6D652058592066697273740A00486FBE
:100720006D65205859206669727374005761726E46
:10073000696E673A20486F6D696E672042756D700B
:100740002044697669736F72203C20310A000202EE
:1007500004627573793A2070617573656420666F01
:100760007220696E7075740A00627573793A207030
:10077000617573656420666F7220757365720A0017
:10078000627573793A2070726F63657373696E670F
:100790000A0050726F62696E67206661696C6564F9
:1007A0000A0050726F62696E67206661696C6564E9
:1007B00000205A3A200020593A200042656420580F
:1007C0003A2000486F6D65202573257325732066D8
:1007D00069727374002066697273740A005A005952
:1007E000005800486F6D65200020496E76616C6985
:1007F00064206578747275646572200053442072B9
:10080000656164206572726F720A00446F6E6520C4
:100810007072696E74696E672066696C650A004B58
:10082000494C4C45442E200053544F505045442EC3
:1008300020005072696E7465722073746F707065F9
:10084000642064756520746F206572726F72732EF8
:100850002046697820746865206572726F72206125
:100860006E6420757365204D39393920746F20729C
:100870006573746172742E202854656D70657261A1
:10088000747572652069732072657365742E2053C8
:100890006574206974206166746572207265737472
:1008A000617274696E67290A004E6F204368656340
:1008B0006B73756D2077697468206C696E65206E46
:1008C000756D6265722C204C617374204C696E6585
:1008D0003A20004E6F20436865636B73756D207717
:1008E000697468206C696E65206E756D6265722C26
:1008F000204C617374204C696E653A200063686512
:10090000636B73756D206D69736D617463682C2002
:100910004C617374204C696E653A20004C696E65B9
:10092000204E756D626572206973206E6F74204C65
:10093000617374204C696E65204E756D6265722B13
:10094000312C204C617374204C696E653A20004D47
:1009500031313000656E7175657565696E6720228D
:1009600000FF01FF0000A0400000A0400000004088
:100970000000204300005C430000434300000000EF
:1009800000005C43000000000000204300005C43C6
:1009900000004343000000000000000000000000D1
:1009A0000000484200004842000080400000000073
:1009B0007C3C3E5E2B3D3F2F5B5D3B2C2A225C0046
:1009C0004D33310043616E6E6F7420656E746572D5
:1009D000207375626469723A20006F70656E2066DC
:1009E00061696C65642C2046696C653A200061750C
:1009F000746F25692E67006572726F722077726955
:100A000074696E6720746F2066696C650A004E6FAA
:100A100074205344207072696E74696E670A0053C3
:100A200044207072696E74696E6720627974652003
:100A30000044656C6574696F6E206661696C6564FD
:100A40002C2046696C653A200046696C6520646517
:100A50006C657465643A0057726974696E672074D6
:100A60006F2066696C653A20006F70656E20666164
:100A7000696C65642C2046696C653A20006F70656E
:100A80006E206661696C65642C2046696C653A204D
:100A90000046696C652073656C65637465640A0063
:100AA0002053697A653A200046696C65206F70654D
:100AB0006E65643A20002066696C653A20006672B3
:100AC00065736800646F696E67004E6F772000453C
:100AD0004E4420535542524F5554494E450A002228
:100AE00020706F73002220706172656E743A22006C
:100AF000535542524F5554494E452043414C4C208A
:100B00007461726765743A22004B494C4C45442E1F
:100B10002000747279696E6720746F2063616C6C59
:100B2000207375622D67636F64652066696C6573F9
:100B3000207769746820746F6F206D616E79206C06
:100B40006576656C732E204D4158206C6576656C1A
:100B50002069733A004D3234004D32332025730042
:100B600053442063617264206F6B0A006F70656E7E
:100B7000526F6F74206661696C65640A00766F6CF1
:100B8000756D652E696E6974206661696C65640AAD
:100B900000534420696E6974206661696C0A0028FC
:100BA0006E6F2066696C65290043616E6E6F7420FC
:100BB0006F70656E2073756264697220003A0A0076
:100BC00020286D6D290020204D393030204B004CFD
:100BD000696E65617220416476616E63653A0A00F0
:100BE00020204D383531205A005A2D50726F6265E1
:100BF000204F666673657400204400204900202061
:100C00004D3330312050005049442073657474696D
:100C10006E67733A0A0020460020420020480020F8
:100C2000204D3134352053004D6174657269616C1B
:100C30002068656174757020706172616D6574659E
:100C400072733A0A0020204D34323020530041752F
:100C5000746F20426564204C6576656C696E673AF6
:100C60000A00205A0020590020204D3230362058EA
:100C700000486F6D65206F66667365743A0A0020E0
:100C80004500205A002059002058002054002053CD
:100C90000020204D32303520510020453C6D6178D8
:100CA0005F655F6A65726B3E0020583C6D61785FDE
:100CB000785F6A65726B3E20593C6D61785F795F41
:100CC0006A65726B3E205A3C6D61785F7A5F6A6537
:100CD000726B3E00416476616E6365643A20513CFC
:100CE0006D696E5F7365676D656E745F74696D6560
:100CF0005F75733E20533C6D696E5F666565647217
:100D00006174653E20543C6D696E5F7472617665F6
:100D10006C5F66656564726174653E0020540020F6
:100D2000520020204D323034205000416363656C06
:100D300065726174696F6E2028756E6974732F73A4
:100D400032293A20503C7072696E745F616363654A
:100D50006C3E20523C726574726163745F616363C0
:100D6000656C3E20543C74726176656C5F616363B0
:100D7000656C3E0A00204500205A002059002020C2
:100D80004D3230312058004D6178696D756D2041CC
:100D90006363656C65726174696F6E2028756E6936
:100DA00074732F7332293A0A00204500205A00201C
:100DB000590020204D3230332058004D6178696D44
:100DC000756D206665656472617465732028756E43
:100DD0006974732F73293A0A00204500205A0020B5
:100DE000590020204D39322058005374657073200B
:100DF00070657220756E69743A0A0020204D323099
:100E0000302044300A0020204D3230302044002071
:100E100044697361626C65640A0046696C616D6562
:100E20006E742073657474696E67733A0020204D88
:100E30003134392043203B20556E69747320696E2C
:100E40002043656C736975730A0020204732312096
:100E50002020203B0048617264636F646564204415
:100E6000656661756C742053657474696E67732070
:100E70004C6F616465640A00DC050000DC0500005D
:100E8000DC050000102700000000074300000743B6
:100E9000000020410000C8410000A0420000A04224
:100EA0000000C8430000F242290A002062797465FC
:100EB000733B2063726320002073746F726564203B
:100EC00073657474696E6773207265747269657690
:100ED0006564202800202863616C63756C6174650B
:100EE0006429210A0020213D2000454550524F4DE4
:100EF00020435243206D69736D61746368202D2017
:100F00002873746F7265642920002053697A653AEA
:100F10002000496E6465783A2000204D61726C694A
:100F20006E3D563535290A0028454550524F4D3DF6
:100F300000454550524F4D2076657273696F6E20A3
:100F40006D69736D617463682000290A00206279FD
:100F50007465733B20637263200053657474696E1B
:100F600067732053746F72656420280045455052A2
:100F70004F4D206461746173697A65206572726F88
:100F8000722E0A004572726F722077726974696EF0
:100F90006720746F20454550524F4D210A006F70F5
:100FA000656E00545249474745524544003A200077
:100FB0007A5F6D696E00795F6D617800785F6D6949
:100FC0006E005265706F7274696E6720656E64732F
:100FD000746F70207374617475730A00456E647366
:100FE000746F70732025632025632025632025639B
:100FF00000205A3A0020593A0020583A00656E64A1
:1010000073746F7073206869743A2000486F6D695B
:101010006E67206661696C656400556E6B6E6F77F4
:101020006E20636F6D6D616E643A20220020636FE5
:101030006C6420657874727573696F6E2070726568
:1010400076656E7465640A00FFFDFCFAF8F6F4F24A
:10105000F0EEECEAE9E7E5E3E1E0DEDCDAD9D7D56A
:10106000D4D2D0CFCDCBCAC8C7C5C3C2C0BFBDBC08
:10107000BAB9B7B6B4B3B2B0AFADACAAA9A8A6A579
:10108000A4A2A1A09E9D9C9A9998979594939290C2
:101090008F8E8D8B8A8988878684838281807F7EEC
:1010A0007D7B7A797877767574737271706F6E6DF7
:1010B0006C6B6A696867666564636261605F5E5DE8
:1010C0005C5B5A5958585756555453525150504FCB
:1010D0004E4D4C4B4A4A4948474646454443424296
:1010E00041403F3E3E3D3C3B3B3A39383837363550
:1010F00035343332323130302F2E2E2D2C2B2B2AFB
:101100002929282727262525242323222121202099
:101110001F1E1E1D1C1C1B1B1A191918181716162A
:10112000151514131312121111100F0F0E0E0D0DB1
:101130000C0C0B0A0A09090808070706060505042E
:10114000040303020201000000000001000000018E
:101150000000800055555500000040003333330037
:10116000AAAA2A004992240000002000C7711C008E
:1011700099991900D1451700555515003BB1130039
:101180002449120011111100000010000F0F0F0070
:10119000E3380E0043790D00CCCC0C00C3300C00BA
:1011A000E8A20B0064210B00AAAA0A00703D0A0005
:1011B0009DD80900427B090092240900DCD3080075
:1011C000888808001042080000000800F0C10700ED
:1011D0008787070075500700711C07003EEB06006B
:1011E000A1BC06006990060066660600703E060017
:1011F0006118060017F4050074D105005BB0050006
:10120000B290050062720500555505007839050059
:10121000B81E0500050505004EEC040087D4040047
:10122000A1BD040090A7040049920400C17D040000
:10123000EE690400C7560400444404005C32040014
:101240000821040041100400000004003FF00300E6
:10125000F8E0030026D20300C3C30300CCB50300AB
:101260003AA803000A9B0300388E0300C0810300E4
:101270009F750300D0690300505E03001D530300F7
:1012800034480300913D0300333303001629030063
:10129000381F030097150300300C030003030300FD
:1012A0000BFA020049F10200BAE802005CE0020019
:1012B0002DD802002DD0020059C80200B0C0020093
:1012C00031B90200DAB10200AAAA0200A0A302000A
:1012D000BC9C0200FA9502005C8F0200DF880200CD
:1012E00082820200457C02002776020027700200FD
:1012F000436A02007C640200D05E02003F59020093
:10130000C85302006563686F3A004572726F723AA3
:1013100000205A3A0020593A0020436F756E74201D
:10132000583A00232C0000B8220000561800003A5A
:101330000F0000B8080000B1040000710200003E78
:1013400001000024F4D43050C38E20C2A240178282
:101350008B7011127A910D816CD90AA861E108C7CE
:10136000586607615143061E4B5D05C145A7041A27
:10137000411104093D9803713931034036DB0265A0
:10138000339102D4305402802E1D02632CEE01757D
:101390002AC501B028A001102781018F2564012BE7
:1013A000244B01E0223401AC211F018D200D01806E
:1013B0001FFC00841EED00971DDF00B81CD200E664
:1013C0001BC600201BBC00641AB200B219A8000A98
:1013D00019A0006A189900D117910040178B00B529
:1013E00016840031167E00B31579003A157300C7D4
:1013F000146F0058146A00EE13660088136300250A
:10140000135E00C7125B006C12570015125400C126
:1014100011510070114F0021114B00D61049008D61
:101420001047004610440002104200C00F400080E8
:101430000F3E00420F3C00060F3B00CB0E380093DE
:101440000E37005C0E3500270E3400F30D3200C15C
:101450000D3100900D3000600D2E00320D2D000575
:101460000D2C00D90C2B00AE0C2900850C29005C3A
:101470000C2700350C27000E0C2600E80B2400C4B6
:101480000B2400A00B23007D0B23005A0B210039F5
:101490000B2100180B2000F80A1F00D90A1E00BB00
:1014A0000A1E009D0A1D00800A1D00630A1C0047D9
:1014B0000A1B002C0A1B00110A1A00F7091A00DD8A
:1014C000091900C4091900AB091900920917007B1A
:1014D000091800630917004C091600360916002088
:1014E0000916000A091500F5081500E0081400CCDB
:1014F000081400B8081400A4081400900813007D14
:101500000812006B08130058081200460812003435
:10151000081100230811001208110001081100F041
:10152000071000E0071000D0071000C0071000B03F
:10153000070F00A107100091070E0083070F00742A
:10154000070F0065070E0057070E0049070E003B06
:10155000070D002E070E0020070D0013070D0006D3
:10156000070D00F9060C00ED060D00E0060C00D496
:10157000060C00C8060C00BC060C00B0060C00A44B
:10158000060B0099060C008D060B0082060B0077F7
:10159000060B006C060B0061060A0057060B004C98
:1015A000060A0042060A0038060A002E060A00242F
:1015B000060A001A060A001006090007060A00FDBE
:1015C000050900F4050900EB050900E2050900D949
:1015D000050900D0050900C7050900BE050900B5C9
:1015E000050800AD050800A50509009C0508009444
:1015F0000508008C050800840508007C05080074B7
:101600000508006C050700650508005D0507005624
:101610000508004E0507004705070040050800388B
:10162000050700310507002A050700230507001CF0
:10163000050600160507000F05070008050600024D
:10164000050700FB040600F5040700EE040600E8A9
:10165000040600E2040700DB040600D5040600CF00
:10166000040600C9040600C3040600BD040600B752
:10167000040600B1040500AC040600A6040600A0A0
:101680000405009B04060095040500900406008AEA
:1016900004050085040500800406007A0405007531
:1016A000040500700405006B040500660405006174
:1016B0000405005C04050057040500520405004DB4
:1016C00004050048040500430405003E0404003AF4
:1016D00004050035040500300404002C040500272F
:1016E000040400230405001E0404001A0404001668
:1016F000040500110404000D04040009040500049D
:1017000004040000040400FC030400F8030400F4D3
:10171000030400F0030400EC030400E8030400E405
:10172000030400E0030400DC030400D8030400D435
:10173000030400D0030400CC030400C8030300C565
:1017400003030024F404D9201BC40C5C0E9804C4C9
:10175000095F0265077101F405F900FB04B3004855
:10176000048700C10369005803550003034500BE08
:10177000023A008402310053022A002902250004A3
:10178000022000E4011C00C8011900AF01170098F5
:101790000114008401130071011000610110005157
:1017A000010E0043010D0036010B002B010B002040
:1017B000010B00150109000C01090003010800FBE1
:1017C000000800F3000800EB000700E4000600DE5C
:1017D000000600D8000600D2000600CC000500C7B5
:1017E000000500C2000500BD000400B9000400B5FA
:1017F000000400B1000400AD000400A9000400A52D
:10180000000300A20003009F0004009B0003009857
:101810000003009500020093000300900003008D78
:101820000002008B00030088000200860002008492
:10183000000300810002007F0002007D0002007BA7
:1018400000020079000200770001007600020074B7
:1018500000020072000100710002006F0002006DC2
:101860000001006C0002006A0001006900020067CC
:1018700000010066000100650001006400020062D2
:1018800000010061000100600001005F0002005DD6
:101890000001005C0001005B0001005A00010059DA
:1018A00000010058000100570001005600010055DA
:1018B00000010054000100530000005300010052D9
:1018C00000010051000100500001004F0001004ED6
:1018D0000000004E0001004D0001004C0001004BD3
:1018E0000000004B0001004A0001004900010048CF
:1018F00000000048000100470001004600000046CB
:1019000000010045000000450001004400010043C3
:1019100000000043000100420000004200010041BD
:1019200000000041000100400001003F0000003FB6
:101930000001003E0000003E0001003D0000003DAF
:101940000001003C0000003C0000003C0001003BA6
:101950000000003B0001003A0000003A000100399D
:101960000000003900010038000000380000003895
:10197000000100370000003700010036000000368B
:101980000000003600010035000000350000003581
:101990000001003400000034000000340001003376
:1019A000000000330000003300010032000000326C
:1019B0000000003200010031000000310000003161
:1019C0000001003000000030000000300001002F56
:1019D0000000002F0000002F0000002F0001002E4B
:1019E0000000002E0000002E0001002D0000002D40
:1019F0000000002D0000002D0001002C0000002C34
:101A00000000002C0000002C0001002B0000002B27
:101A10000000002B0000002B0001002A0000002A1B
:101A20000000002A0000002A00010029000000290F
:101A30000000002900000029000000290001002802
:101A400000000028000000280000002800000028F6
:101A500000010027000000270000002700000027E9
:101A600000000027000100260000002600000026DC
:101A700000000026000000260001002500000025CF
:101A800000000025000000250000002500000025C2
:101A900000010024000000240000002400000024B5
:101AA00000000024000100230000002300000023A8
:101AB000000000230000002300000023000000239A
:101AC000000100220000002200000022000000228D
:101AD000000000220000002200010021000000217F
:101AE0000000002100000021000000210000002172
:101AF0000000002100010020000000200000002064
:101B00000000002000000020000000200000002055
:101B1000000000200001001F0000001F0000001F47
:101B20000000001F0000001F0000001F0000001F39
:101B30000001001E0000001E0000001E0000001E2C
:101B4000000000290A002028002920453A0020280A
:101B50000029205A3A002028002920593A0020283C
:101B60000020583A00537465707065722063757276
:101B700072656E742076616C75657320696E2025C0
:101B80002028416D7073293A0A0020403A00202F26
:101B9000004D383420582059205A2045005468659B
:101BA000726D616C2052756E6177617900453120EC
:101BB000544845524D414C2052554E4157415900D1
:101BC0004B494C4C45442E2000202D20496E766117
:101BD0006C6964206578747275646572206E756DC9
:101BE00062657220210A0048656174696E6720662B
:101BF00061696C65640045312048656174696E6790
:101C0000206661696C6564004D494E54454D502015
:101C10007472696767657265640045312045727248
:101C20003A204D494E54454D50004D415854454D74
:101C3000502074726967676572656400453120459C
:101C400072723A204D415854454D50006265640A05
:101C5000002C2073797374656D2073746F707065D8
:101C60006421204865617465725F49443A20002C04
:101C7000FFFFFFFFFF0001010101012364656669A9
:101C80006E652044454641554C545F4B642000230B
:101C9000646566696E652044454641554C545F4B0A
:101CA00069200023646566696E6520444546415598
:101CB0004C545F4B702000504944204175746F7440
:101CC000756E652066696E6973686564212050755C
:101CD0007420746865206C617374204B702C204BE9
:101CE0006920616E64204B6420636F6E7374616E53
:101CF00074732066726F6D2062656C6F7720696EF9
:101D0000746F20436F6E66696775726174696F6E78
:101D10002E680A00504944204175746F74756E65D1
:101D2000206661696C6564212074696D656F7574E6
:101D30000A00546865726D616C2052756E6177613E
:101D40007900453120544845524D414C2052554E62
:101D5000415741590048656174696E672066616941
:101D60006C65640045312048656174696E67206662
:101D700061696C656400504944204175746F7475E5
:101D80006E65206661696C6564212054656D7065BF
:101D900072617475726520746F6F20686967680A74
:101DA00000204B643A2000204B693A2000204B7001
:101DB0003A20000A20436C617373696320504944E0
:101DC000200A002054753A2000204B753A2000204C
:101DD0006D61783A2000206D696E3A200020643AE7
:101DE000200020626961733A200050494420417507
:101DF000746F74756E652073746172740A00504953
:101E000044204175746F74756E65206661696C65F8
:101E10006421204261642065787472756465722063
:101E20006E756D6265720A0070012C0190012701C8
:101E3000B0012201C0011D01F001180110021301BF
:101E400030020E016002090190020401C002FF008D
:101E50000003FA004003F5008003F000D003EB001C
:101E60002004E6007004E100E004DC004005D70037
:101E7000C005D2004006CD00D006C8008007C300D0
:101E80003008BE00F008B900C009B400B00AAF00C5
:101E9000B00BAA00D00CA500000EA000500F9B00B4
:101EA000C01096005012910000148C00C0158700DD
:101EB000B0178200B0197D00D01B7800001E73009F
:101EC00040206E0090226900F024640040275F00EB
:101ED00090295A00E02B5500102E500020304B0066
:101EE00010324600E033410090353C001037370097
:101EF00070383200A0392D00B03A2800A03B2300F2
:101F0000603C1E00103D1900903D1400103E0F0073
:101F1000703E0A00C03E0500003F0000403FFBFF4E
:101F2000803FF6FFC03FF1FF052E2E00045265668C
:101F300072657368004D61696E0046696C2E2044BD
:101F400069612E0046696C2E204469612E0045208F
:101F5000696E206D6D33004F6666004F6E20004144
:101F60006476616E6365204B00416476616E6365E3
:101F7000204B00436F6E74726F6C0050726F62651D
:101F8000205A204F666673657400436F6E74726FDB
:101F90006C005049442D44005049442D44005049A0
:101FA000442D49005049442D49005049442D5000CA
:101FB0005049442D500020022046616374002002E5
:101FC0002046616374002002204D617800200220C9
:101FD0004D6178002002204D696E002002204D697D
:101FE0006E004175746F74656D70004F6666004FCA
:101FF0006E200046616E2073706565640046616EF8
:10200000207370656564004E6F7A7A6C65004E6F60
:102010007A7A6C6500436F6E74726F6C00526573F0
:10202000746F7265206661696C73616665004C6FE0
:1020300061642073657474696E67730053746F72A2
:10204000652073657474696E6773004472697665A0
:1020500020537472656E6774680046696C616D65C3
:102060006E74004D6F74696F6E0054656D706572AB
:102070006174757265004D61696E004578747275A2
:10208000646572004D6F7665205A004D6F7665204D
:1020900059004D6F76652058005072657061726509
:1020A000004D6F766520302E316D6D004D6F766579
:1020B00020316D6D004D6F76652031306D6D004DB6
:1020C0006F76652061786973004578747275646510
:1020D00072004D6F7665205A004D6F76652059006D
:1020E0004D6F76652058004578747275646572008E
:1020F0004D6F7665205A004D6F76652059004D6F03
:1021000076652058005072656865617420414253BD
:10211000005072656865617420504C4100436F6FD8
:102120006C646F776E0044697361626C65207374D0
:10213000657070657273004D383400426564204CE0
:102140006576656C696E67004175746F20686F6DA8
:102150006500473238004D6F7665206178697300FD
:102160004D61696E0053746F726520736574746994
:102170006E6773004C6F61642073657474696E6779
:10218000730050726F6265205A204F6666736574E3
:1021900000426564204C6576656C696E67004F6629
:1021A00066004F6E20004C6576656C2062656400A9
:1021B0004732380A47323900473239004175746F67
:1021C00020686F6D6500473238005072657061722B
:1021D000650044414320454550524F4D2057726998
:1021E000746500452044726976657220250045209B
:1021F0004472697665722025005A204472697665BA
:10220000722025005A204472697665722025005993
:1022100020447269766572202500592044726976DF
:102220006572202500582044726976657220250069
:102230005820447269766572202500436F6E74726F
:102240006F6C0050726F6265205A204F666673652E
:10225000740050726F6265205A204F666673657411
:1022600000466C6F7700466C6F770046616E207396
:10227000706565640046616E207370656564004E2C
:102280006F7A7A6C65004E6F7A7A6C650053706570
:102290006564005370656564004D61696E00496E48
:1022A00069742E2053442063617264004D32310002
:1022B0004E6F2053442063617264004368616E670F
:1022C000652053442063617264004D3231005072C6
:1022D000696E742066726F6D2053440053746F7082
:1022E000207072696E7400526573756D652070722E
:1022F000696E74005061757365207072696E740048
:10230000436F6E74726F6C0050726570617265001D
:1023100054756E6500496E666F2073637265656EF5
:10232000005072696E742061626F7274656400504F
:102330006C61792056322052656164792E005072AA
:10234000696E74696E672E2E2E005072696E74204D
:102350007061757365640025753A25303275002506
:102360003032753A253032750020202020002020A0
:1023700020202020002D2D2D00534400506C65613D
:102380007365207265736574005052494E5445520E
:102390002048414C54454400001C1F11111F0000EF
:1023A0000006191803130C00040E1F041C00000083
:1023B000000E1315110E00001C101817050605005D
:1023C000040A0A0A0A11110E0C12120C0000000075
:1023D000001F1511151F0000000000000102040479
:1023E0000000001C1C0C040404020100000000009A
:1023F00004081000000000002D2D2D2D2D2D007C37
:102400004D61726C696E7C002D2D2D2D2D2D006877
:102410007474703A2F2F6D61726C696E66772E6FCF
:10242000726700687474703A2F2F6D61726C696EF8
:1024300066772E6F72670020312E312E3900012908
:102440000229042908291029202940298029012C42
:10245000022C0126022604260826102620264026C5
:102460008026402C802C01230223042308231023E0
:102470002023402380230120022004200820102054
:10248000202040208020102C202C012F022F042FF0
:10249000082F102F202F402F802F7EFE7EFD7EFBE9
:1024A0007EF77EEF7EDF7EBF7E7F000100005B2532
:1024B0001200020000182543000300001425040147
:1024C000030904FA241802030904E2241603030989
:1024D00004D4240C0C0331003200330034003500E6
:1024E0000000160355005300420020005300650011
:1024F0007200690061006C00000018035400650060
:1025000065006E00730079006400750069006E005C
:102510006F0000000403090409024300020100C027
:102520003209040000010202010005240010010527
:102530002401000104240206052406000107058287
:102540000308004009040100020A00000007050317
:102550000240000007058402400000120100020250
:10256000000020C01683047202010203010001C1B1
:1025700002018036018136003B35157E6CB1AAD749
:10258000B1E33F3511241FBECFEFD0E2DEBFCDBF98
:1025900012E0A0E0B1E0E6E6FEED01E00BBF02C014
:1025A00007900D92A835B107D9F723E1A8E5B2E06D
:1025B00001C01D92A438B207E1F712E1C1ECD2E1EB
:1025C00004C02197FE010E9452E4CC3BD107C9F719
:1025D0000E946EDC0C9426EF0C9400004F925F92E8
:1025E0006F927F928F929F92AF92BF92CF92DF9223
:1025F000EF92FF92CF934B015C0169017A0120E0D9
:1026000030E040EA51E40E947AE42B013C012FE6DD
:1026100032E143E85AEB0E9494E687FD48C022E489
:1026200030E040E253E4C301B2010E94F2E4181624
:102630000CF43DC02FE632E143E85AEBC701B60186
:102640000E9494E687FD33C022E430E04CE553E479
:10265000C701B6010E94F2E418164CF124EF3DEFD9
:102660004FE951E4C501B4010E9494E687FD1FC003
:1026700022E430E046E153E4C501B4010E94F2E4F3
:102680001816ACF027EE3BEF4FE151E4C701B6015D
:102690000E9494E687FD0BC0C1E022E430E042E5F1
:1026A00053E4C701B6010E94F2E418160CF4C0E02E
:1026B0008C2FCF91FF90EF90DF90CF90BF90AF9095
:1026C0009F908F907F906F905F904F900895FB0147
:1026D00001900020E9F73197AF01461B570BDC0151
:1026E000ED91FC910280F381E02D0994CF93DF936B
:1026F0001F92CDB7DEB76983DC01ED91FC910280BA
:10270000F381E02D41E050E0BE016F5F7F4F0995FE
:102710000F90DF91CF9108954F925F926F927F92C9
:10272000AF92BF92CF92DF92EF92FF92CF93DF935F
:10273000EB01FC0160817181828193812CE3C22EC7
:10274000D12CE12CF12CA70196010E9414E4B62EA5
:10275000A72ECA01B901A70196010E9414E46B01DA
:102760007C01CA01B90128E130E040E050E00E945C
:1027700014E42B013C01C9016DE671E00E94EDE318
:1027800061157105D9F0AF92BF92DF92CF925F923F
:102790004F929F938F937F936F9388EE95E09F93D3
:1027A0008F93DF93CF930E940CEC8DB79EB70E965C
:1027B0000FB6F8949EBF0FBE8DBF61C00097C9F0E1
:1027C000AF92BF92DF92CF925F924F929F938F937F
:1027D00088ED95E09F938F93DF93CF930E940CEC4D
:1027E000EDB7FEB73C960FB6F894FEBF0FBEEDBF37
:1027F00046C04114510461047104B9F0AF92BF9214
:10280000DF92CF925F924F928CEC95E09F938F93E3
:10281000DF93CF930E940CEC8DB79EB70A960FB64C
:10282000F8949EBF0FBE8DBF2AC0C114D104E1042D
:10283000F104A9F0AF92BF92DF92CF9284EC95E0C1
:102840009F938F93DF93CF930E940CECEDB7FEB76D
:1028500038960FB6F894FEBF0FBEEDBF10C0AF9212
:10286000BF9280EC95E09F938F93DF93CF930E946C
:102870000CEC0F900F900F900F900F900F90DF9136
:10288000CF91FF90EF90DF90CF90BF90AF907F906F
:102890006F905F904F90089581548A3108F040C046
:1028A000A82FB0E040918009509181096091820980
:1028B0007091830904C076956795579547958A95D9
:1028C000D2F740FF2DC0E0918B09F0918C09AA59F5
:1028D000B64F8C918823E1F0E80FF11D808190EDD7
:1028E000980F9A3080F08E3229F4818180538A309B
:1028F00078F409C08D3211F08B3251F4818190ED62
:10290000980F9A3018F49E2F8F2F04C08E3251F0FA
:1029100090E080E0909387098093880981E0089592
:1029200080E00895828180538A3090F7ECCFB4DF45
:10293000882341F081E02091870930918809232B79
:1029400009F480E008950F931F93CF938091870936
:1029500090918809009711F1FC018F01C1912C2FF2
:102960002F7DA9F0C53411F0C536B9F7F8011082F2
:1029700060E070E080918709909188090E9478E773
:10298000F801C083562F472F382F292F0BC060E046
:1029900070E0CF911F910F910C9478E750E040E0E8
:1029A00030E020E0652F742F832F922FCF911F915D
:1029B0000F9108958091870990918809009731F0CF
:1029C0004AE050E060E070E00C94DEE860E070E027
:1029D000CB0108958091870990918809009731F083
:1029E0004AE050E060E070E00C9406EA60E070E0DD
:1029F000CB010895DFDF97FD0AC0DCDF6F3F710573
:102A00008105910509F02CF4D5DF862F089580E02B
:102A100008958FEF08958091870990918809892BF7
:102A200031F0E8DF91E0811103C090E001C091E056
:102A3000892F08950F931F93CF93DF93CDB7DEB700
:102A40002C970FB6F894DEBF0FBECDBFEEEBF4E0CF
:102A500080859185A285B385448155816681778182
:102A6000008111812281338109871A872B873C8756
:102A70004D835E836F83788789839A83AB83BC831E
:102A8000AE014F5F5F4FBE016B5F7F4FCE01099676
:102A90000E94C1792AEC34E0AE014F5F5F4FBE0166
:102AA0006B5F7F4FCE0109960E94C77B2C960FB6B5
:102AB000F894DEBF0FBECDBFDF91CF911F910F9174
:102AC00008952F923F924F925F926F927F929F92C2
:102AD000AF92BF92CF92DF92EF92FF920F931F932C
:102AE000CF93DF93CDB7DEB764970FB6F894DEBF10
:102AF0000FBECDBF2A013B01902EA12E6901082FE8
:102B000010E0F801EF59F64FE491BB24B3941E1680
:102B10000CF4B12CFF24F39420E030E0A901C301B0
:102B2000B2010E9494E618160CF0F12C000F111F50
:102B3000000F111FC80182549B4F1C01FC01108221
:102B400011821282138276DFF10140825182628209
:102B50007382E090E20220E030E0A901692D7A2D35
:102B6000C6010E94F2E4811108C0F801E056F64F58
:102B700085919591A591B49103C0892D9A2DD60187
:102B8000898B9A8BAB8BBC8B8091C6049091C704C8
:102B9000A091C804B091C9044091C2045091C304EB
:102BA0006091C4047091C5040091BE041091BF04EB
:102BB0002091C0043091C1040D871E872F87388B68
:102BC00049875A876B877C878D839E83AF83B887BD
:102BD00019821A821B821C82AE014B5F5F4FBE01BD
:102BE000675F7F4FCE010D960E94C179CE0101969D
:102BF0006C018E010F5E1F4F2AEC34E0AE014B5F7B
:102C00005F4FBE01675F7F4F0C960E946A890E94EA
:102C10005D7BBF100E945C6E64960FB6F894DEBFB9
:102C20000FBECDBFDF91CF911F910F91FF90EF901D
:102C3000DF90CF90BF90AF909F907F906F905F900C
:102C40004F903F902F9008956AEC74E083E00C94CD
:102C5000EC7C1092A3041092A1041092A204089597
:102C60009091A104E92FF0E0E054FD4F80839F5F35
:102C7000943018F49093A10402C01092A1048091A2
:102C8000A3048F5F8093A3040895CF93FC018081F8
:102C90008B33A1F08091A304843080F4C62FBF0150
:102CA0008091A10420E6829FC00111248F5D9C4F7A
:102CB0000E94DDEB8C2FD4DF81E001C080E0CF915A
:102CC0000895EF92FF921F93CF93DF937C0160E012
:102CD000DCDF182F8823C9F0E4E0F3E16491EF0111
:102CE0002196662329F088E793E100DDFE01F6CF07
:102CF000B70184E599E00E944C8A62E288E793E19B
:102D0000F5DC6AE088E793E1F1DC812FDF91CF9178
:102D10001F91FF90EF900895DF92EF92FF920F9333
:102D20001F93CF93DF93CDB7DEB76E970FB6F894AE
:102D3000DEBF0FBECDBF60911F03709120036115F0
:102D4000710541F14DE150E0CE0101967C010E94F8
:102D50006CEB1E8EF7018F010E191F09D190DD203B
:102D600019F09AE0D912F7CFF701E00FF11F1082A6
:102D7000C701A7DF882371F0DD20A9F00F5F1F4F87
:102D800080911F0390912003080F191F10932003B7
:102D900000931F0381E020911F0330912003232B18
:102DA00029F480E003C000E010E0F0CF6E960FB68B
:102DB000F894DEBF0FBECDBFDF91CF911F910F9171
:102DC000FF90EF90DF9008959093200380931F036E
:102DD000A3CFEF92FF920F931F93CF93DF937C01CA
:102DE00084E5A5DDD82F882369F104DEC82F1816E5
:102DF0002CF5E4E0F3E164918F010F5F1F4F662330
:102E000029F088E793E172DCF801F5CF6DE488E7FB
:102E100093E16CDCA70160E070E020E088E793E1DB
:102E20000E9459DB6C2FCC0F770B89EE97E00E9444
:102E3000748A6AE088E793E159DC08C08093D40281
:102E4000D0E004C08091E2028093D4028D2FDF9104
:102E5000CF911F910F91FF90EF9008950F931F93C3
:102E6000CF93DF9394E0899FE00111248E010F50EE
:102E70001D4FFE01E350FD4FDE01A75FBC4F2D91BA
:102E80003D914D915C9160817181828193810E941D
:102E90007BE4F8016083718382839383FE01EC56A7
:102EA000F64F85919591A591B491FE01EB51FD4F9F
:102EB00080839183A283B383FE01E857F64F859107
:102EC0009591A591B491C55FDE4F88839983AA83BC
:102ED000BB83DF91CF911F910F910895CF92DF9225
:102EE000EF920F931F93CF93DF93CDB7DEB7609729
:102EF0000FB6F894DEBF0FBECDBFE090E202EEEB5E
:102F0000F4E080859185A285B385448155816681F1
:102F1000778100811181228133810D871E872F8760
:102F2000388B49875A876B877C878D839E83AF83D5
:102F3000B88719821A821B821C82AE014B5F5F4FD9
:102F4000BE01675F7F4FCE010D960E94C179CE0111
:102F500001966C0109E111E02AEC34E0AE014B5F0F
:102F60005F4FBE01675F7F4F0C960E946A89609633
:102F70000FB6F894DEBF0FBECDBFDF91CF911F918A
:102F80000F91EF90DF90CF9008954F925F926F92E4
:102F90007F928F929F92AF92BF92CF92DF92EF92E9
:102FA000FF920F931F93CF93DF93CDB7DEB72C978C
:102FB0000FB6F894DEBF0FBECDBF6D837E838F83C7
:102FC000988729873A874B875C87470158013601E4
:102FD0008091190190911A01A0911B01B0911C01DF
:102FE00089839A83AB83BC83D601CD90DD90ED902D
:102FF000FC9020E030E0A901C701B6010E94F2E494
:10300000811106C0E8EAF9E0C590D590E590F4900A
:10301000A50194016091C6047091C7048091C80411
:103020009091C9040E94F2E487FF11C0C092190177
:10303000D0921A01E0921B01F0921C018092C6040A
:103040009092C704A092C804B092C90447DFF3016C
:10305000408051806280738020E030E0A901C3018C
:10306000B2010E94F2E4811108C040900101509029
:103070000201609003017090040140921901509286
:103080001A0160921B0170921C018D819E81AF819B
:10309000B8858093BE049093BF04A093C004B093FE
:1030A000C10489859A85AB85BC858093C2049093C1
:1030B000C304A093C404B093C50410DFA501940118
:1030C0006091C6047091C7048091C8049091C904AE
:1030D0000E9494E618168CF4C0921901D0921A013D
:1030E000E0921B01F0921C018092C6049092C704EA
:1030F000A092C804B092C904F1DE0E945D7B898170
:103100009A81AB81BC818093190190931A01A0939D
:103110001B01B0931C012C960FB6F894DEBF0FBEB6
:10312000CDBFDF91CF911F910F91FF90EF90DF9076
:10313000CF90BF90AF909F908F907F906F905F9057
:103140004F900895CF92DF92EF92FF920F931F93CB
:103150006B01FC01E080F18002811381EEEBF4E071
:10316000248135814681578160817181828193817B
:103170000CDF1F910F91FF90EF90DF90CF9008959B
:10318000CF92DF92EF92FF920F931F936A01E0902C
:10319000C604F090C7040091C8041091C904FB0153
:1031A0002081318142815381FC0160817181828162
:1031B0009381EBDE1F910F91FF90EF90DF90CF9006
:1031C00008958091190190911A01A0911B01B0916D
:1031D0001C0180931B0390931C03A0931D03B093C9
:1031E0001E03809117019091180190931A03809308
:1031F000190384E690E090931801809317010895D5
:1032000080911B0390911C03A0911D03B0911E039C
:103210008093190190931A01A0931B01B0931C0194
:103220008091190390911A039093180180931701CC
:103230000895EF92FF921F93CF93DF93882329F095
:10324000D091AD04D095D17001C0D0E0662341F09B
:103250001091AD0411FB882780F911E0182701C0F7
:1032600010E0442341F0C091AD04C2FB882780F9EF
:10327000C1E0C82701C0C0E0D11105C0111103C0D1
:10328000CC2309F486C0E4E0F3E164917F018FEF81
:10329000E81AF80A662329F088E793E127DAF701AC
:1032A000F4CFE3EEF7E064917F019FEFE91AF90AAA
:1032B000662329F088E793E119DAF701F4CFDD23DB
:1032C00071F0E1EEF7E064917F018FEFE81AF80A00
:1032D000662329F088E793E109DAF701F4CF112397
:1032E00071F0EFEDF7E064917F019FEFE91AF90AC1
:1032F000662329F088E793E1F9D9F701F4CFC111EA
:1033000003C0E5EDF7E00EC0EDEDF7E064917F015D
:103310008FEFE81AF80A6623A1F388E793E1E6D96C
:10332000F701F4CF64917F019FEFE91AF90A662350
:1033300029F088E793E1DAD9F701F4CFC11103C08E
:1033400046EE51E002C046ED51E0111103C026EEF9
:1033500031E002C028ED31E0D11103C086EE91E0EA
:1033600002C08AED91E05F934F933F932F939F9319
:103370008F9383EC97E09F938F931F920E9400AFEF
:103380008DB79EB709960FB6F8949EBF0FBE8DBF3E
:10339000C1E08C2FDF91CF911F91FF90EF900895A6
:1033A000BF92CF92DF92EF92FF920F931F93CF9332
:1033B000DF93CDB7DEB728970FB6F894DEBF0FBE08
:1033C000CDBF90916009981709F47AC0B82E882370
:1033D00009F453C080E090E0A0EAB0E48D839E83BE
:1033E000AF83B887C090D002D090D102E090D202D3
:1033F000F090D30220E030E0A901C701B6010E949D
:10340000F2E487FF0CC0A701960160E070E080EA5B
:1034100090E40E947AE46D837E838F83988720E016
:1034200030E043E453E46D817E818F8198850E9472
:1034300094E6181644F480E090E0A3E4B3E48D83AE
:103440009E83AF83B8872091C6043091C704409112
:10345000C8045091C9046D817E818F8198850E9436
:1034600094E6181654F419821A821B821C82BE013B
:103470006F5F7F4FCE01059665DE6091BE0470914F
:10348000BF048091C0049091C1042091C204309186
:10349000C3044091C4045091C50419821A821B824E
:1034A0001C82E090C604F090C7040091C8041091FB
:1034B000C904FE0131966F0168DD8B2D0E94676E95
:1034C00080E028960FB6F894DEBF0FBECDBFDF9127
:1034D000CF911F910F91FF90EF90DF90CF90BF9011
:1034E00008954F925F926F927F928F929F92AF92C8
:1034F000BF92CF92DF92EF92FF920F931F93CF93E1
:10350000C82FE82EF12CF701EF59F64FB490823016
:1035100021F481E045DF811107C16701CC0CDD1C7E
:10352000CC0CDD1CF601E059F64F459055906590A6
:1035300074906B2DBB0C770B880B990B0E9491E557
:103540004B015C0120E030E040EC5FE3C301B201DD
:103550000E94C8E6A50194010E94C8E6AB01BC0127
:1035600000E010E098018C2FACDAC23041F0F60197
:10357000EC59F64F259135914591549104C020E0C6
:1035800030E040E450E4C501B4010E94C8E64B01BC
:103590005C0120E030E0A9010E94F2E4882309F4F4
:1035A0005CC0C23021F000E010E0980104C000E0EF
:1035B00010E020E830E4B501A40170588C2F81DAC6
:1035C000C23009F439C0F701E25BF84F84918111F0
:1035D0001DC0E4E0F3E164917F018FEFE81AF80A7F
:1035E000662329F088E793E181D8F701F4CFECE274
:1035F000F7E064917F018FEFE81AF80A662329F05B
:1036000088E793E173D8F701F4CF8AE0F601E0563A
:10361000F64F4590559065907490682F70E080E06B
:1036200090E00E9491E59B01AC01C301B2010E94B0
:10363000F6E42B013C0105C0412C512C612C90E497
:10364000792EA5019401C501B4010E947BE4AB0170
:10365000BC01930182018C2F34DA81E090E00C2EC2
:1036600001C0880F0A94EAF79091AC04982B9093CC
:10367000AC049091AD04892B8093AD04F601E75F13
:10368000FC4F10821182128213828C2FE7DBF6012D
:10369000E458F64F85919591A591B491F601E254C5
:1036A000FB4F80839183A283B383C230D1F42091F6
:1036B000D0023091D1024091D2025091D302609158
:1036C000C6047091C7048091C8049091C9040E94F7
:1036D0007AE46093C6047093C7048093C8049093FF
:1036E000C904A8D9F601E255FB4FD601A254BB4F3D
:1036F0008D919D910D90BC91A02D80839183A2838B
:10370000B383C23089F480E0CF911F910F91FF9075
:10371000EF90DF90CF90BF90AF909F908F907F9071
:103720006F905F904F903CCECF911F910F91FF9083
:10373000EF90DF90CF90BF90AF909F908F907F9051
:103740006F905F904F90089581E00895AF92BF927F
:10375000CF92DF92EF92FF920F931F93CF93DF935D
:103760008EEFA82E81E0B82E9EEAE92E94E0F92E85
:103770000EEB14E021EFC22E22E0D22EC0E0D0E00A
:10378000F50181915F0188D8882319F1DCD8FE0109
:10379000EB5EFC4F2081211104C02091E102222325
:1037A00041F0F80120813181428153810E947BE404
:1037B0000AC0C330D10539F0F60120813181428140
:1037C00053810E947AE4F70160837183828393833B
:1037D0000AC0F80180819181A281B381F7018083C1
:1037E0009183A283B3832196F4E0EF0EF11C0C5F6A
:1037F0001F4F84E0C80ED11CC430D10509F0C0CFE2
:1038000086E495D88823B9F09ED820E030E0A9015D
:103810000E9494E618167CF496D820E030E040E749
:1038200052E40E94F6E46093190170931A018093A8
:103830001B0190931C01DF91CF911F910F91FF907D
:10384000EF90DF90CF90BF90AF900895CF92DF922E
:10385000EF92FF920F931F93CF93DF930FB6F894DD
:10386000C0906D13D0906E13E0906F13F0907013B2
:103870000FBE8091DF02811174C080910001882306
:1038800009F46FC08091BF02882309F46AC0409197
:10389000BB025091BC026091BD027091BE029701C3
:1038A0008601041B150B260B370B37FD6DC08330CB
:1038B00031F134F481300CF454C0E4E0F3E106C09B
:1038C000843009F04EC0E4E0F3E133C06491EF01CD
:1038D0002196662331F088E793E10E947613FE017A
:1038E000F5CFE0E8F7E06491EF012196662309F453
:1038F00038C088E793E10E947613FE01F4CFE4E03C
:10390000F3E16491EF012196662331F088E793E1BA
:103910000E947613FE01F5CFE9E6F7E06491EF012E
:1039200021966623F1F088E793E10E947613FE0169
:10393000F5CF6491EF012196662331F088E793E19A
:103940000E947613FE01F5CFE1E5F7E06491EF0107
:103950002196662331F088E793E10E947613FE01F9
:10396000F5CF2091000130E0A8EEB3E00E945BE4C7
:10397000C60ED71EE81EF91EC092BB02D092BC0232
:10398000E092BD02F092BE02DF91CF911F910F91A4
:10399000FF90EF90DF90CF9008950F931F93CF93F8
:1039A000DF9300D000D0CDB7DEB78091AC04837038
:1039B000833011F160E08EE197E00E9486AEE4E092
:1039C000F3E164918F010F5F1F4F662331F088E7A9
:1039D00093E10E947613F801F4CFEFE0F7E06491F1
:1039E0008F010F5F1F4F662309F43DC088E793E105
:1039F0000E947613F801F3CF1DD880E090E0ACED83
:103A0000B2E48093B2049093B304A093B404B0934F
:103A1000B5048091C6049091C704A091C804B091E8
:103A2000C9048093B6049093B704A093B804B093EC
:103A3000B90480E090E0A0E7B2E48093AE049093F4
:103A4000AF04A093B004B093B10419821A821B8210
:103A50001C82AE014F5F5F4F62EB74E08EEA94E030
:103A60008FDB82E03EDD0F900F900F900F90DF9183
:103A7000CF911F910F910895CF93DF93E7E2F6E086
:103A80006491EF012196662331F088E793E10E946B
:103A90007613FE01F5CF8FEC94E00E944C53E8E1E1
:103AA000F6E06491EF012196662331F088E793E117
:103AB0000E947613FE01F5CFDF91CF91089580919A
:103AC000D2048823A9F083E50E949714882381F00B
:103AD0000E94DA14AB01BC0140933D0750933E07AE
:103AE00060933F07709340078CE896E00C94D746AC
:103AF0000895CF93DF9383E40E944C14882399F0B8
:103B0000E9E0F6E06491EF012196662331F088E761
:103B100093E10E947613FE01F5CF8FEC94E0DF91E4
:103B2000CF910C9492538FEC94E0DF91CF910C9451
:103B3000C0540F931F93CF93DF93CDB7DEB7699730
:103B40000FB6F894DEBF0FBECDBF0E94679A6E8B92
:103B50007F8B888F998FBE016F5F7F4FCE01469616
:103B60000E948C1360E0CE0101960E945FAEE4E0FB
:103B7000F3E164918F010F5F1F4F662331F088E7F7
:103B800093E10E947613F801F4CFBE016F5F7F4F7F
:103B90008CEF95E00E944C8A6AE088E793E10E94EE
:103BA000761369960FB6F894DEBF0FBECDBFDF91D6
:103BB000CF911F910F910895CF938091D1048111DE
:103BC0000E945D7B8091D2048823A9F180E50E9448
:103BD0009714882321F00E940B15C82F04C080E59C
:103BE0000E944C14C82F6091890970918A092C2F6A
:103BF00041E08FEC94E00E94F95683E50E9497140F
:103C0000882381F00E94DA14AB01BC0140933D0788
:103C100050933E0760933F07709340078CE896E00F
:103C20000E94D7468FEC94E00E942B54C11103C030
:103C3000CF910C94A69ACF910895CF93DF93EAE0A9
:103C4000F3E16491EF012196662331F088E793E177
:103C50000E947613FE01F5CFE4E8F5E06491EF01F0
:103C60002196662331F088E793E10E947613FE01E6
:103C7000F5CFDF91CF91089588E690E0AAD8811121
:103C800024C08091CE0483FD20C083E50E94971458
:103C90008823C9F00E94A3140E945EE57093F3117B
:103CA0006093F21180E00E94DD9D0E94A31420E049
:103CB00030E04AEA52E40E94F2E4181624F00E942E
:103CC000109A0E94C0AE0C94E57D0895CF93DF93C7
:103CD00089E690E07ED8811116C0E6E3F5E06491B4
:103CE000EF012196662331F088E793E10E94761375
:103CF000FE01F5CF0E941CA26AE088E793E1DF9104
:103D0000CF910C947613DF91CF910895CF92DF92EB
:103D1000EF92FF9283E50E949714882321F10E947D
:103D2000FA148D3308F08CE38093A4110FB6F89445
:103D3000C0906D13D0906E13E0906F13F0907013DD
:103D40000FBE282F30E0A8EEB3E00E945BE4C60E61
:103D5000D71EE81EF91EC092A011D092A111E092C8
:103D6000A211F092A311FF90EF90DF90CF900895F1
:103D700080E50E949714811106C083E50E94971484
:103D8000882359F005C00E94FA1481110CC0F5CFA8
:103D90000E94DA146F3F710510F06FEF70E07093BE
:103DA000E4026093E3020895DF92EF92FF920F9393
:103DB0001F93CF93DF9383E50E944C14882359F01F
:103DC00083E50E949714882319F00E94FA1401C019
:103DD00080E08093CE04E4E0F3E16491EF0121966A
:103DE000662331F088E793E10E947613FE01F5CF58
:103DF000EDE7F5E06491EF012196662331F088E765
:103E000093E10E947613FE01F5CF8091CE048823C2
:103E1000A9F183E7E82E85E0F82E00E010E020E02D
:103E20008091CE0490E0002E02C0959587950A946B
:103E3000E2F780FF1AC0DD24D394D20E222329F0AA
:103E40006CE288E793E10E947613F70185919491E3
:103E5000FC016491EC012196662331F088E793E13F
:103E60000E947613CE01F4CF2D2D0F5F1F4FF2E08D
:103E7000EF0EF11C0530110599F60DC0EFE6F5E0E7
:103E80006491EF012196662331F088E793E10E9467
:103E90007613FE01F5CF6AE088E793E1DF91CF91D9
:103EA0001F910F91FF90EF90DF900C947613CF93BA
:103EB000DF9383E50E949714882351F00E94FA143F
:103EC0008D3308F08CE380930001DF91CF9108954A
:103ED000E4E0F3E16491EF012196662331F088E795
:103EE00093E10E947613FE01F5CF4091000150E06E
:103EF00060E070E089E395E00E94D28A6AE088E79A
:103F000093E1DF91CF910C947613CF93DF9383E508
:103F10000E949714882321F00E94DA14EB0102C05A
:103F2000C0E0D0E0DD27C230D105D4F0EAE0F3E113
:103F30006491EF012196662331F088E793E10E94B6
:103F40007613FE01F5CFE2E2F4E06491EF012196F1
:103F50006623C9F188E793E10E947613FE01F5CF4D
:103F600088E40E9497148823A9F00E94DA146A3A20
:103F700071053CF06E3181E078072CF06DE171E065
:103F800002C06AEA70E0FE01EE0FFF1FE259FD4E2B
:103F90007183608386E40E9497148823A1F00E94B5
:103FA000DA14CC0FDD1FCA59DD4E798368836F3F69
:103FB000710519F014F06FEF70E077FF02C060E058
:103FC00070E079836883DF91CF9108954F925F927B
:103FD0006F927F92AF92BF92CF92DF92EF92FF9259
:103FE0000F931F93CF938EEFA82E81E0B82E09E395
:103FF0001AE0C0E0F50181915F010E944C14882312
:1040000009F46DC0C33009F063C00E94A3146B01B2
:104010007C0120E030E040EA51E40E94F2E487FFB6
:104020004EC0A70196016091450A7091460A8091A1
:10403000470A9091480A0E94F6E42B013C019B013B
:10404000AC016091110A7091120A8091130A90914B
:10405000140A0E94C8E66093110A7093120A8093B2
:10406000130A9093140AA30192016091550A70916A
:10407000560A8091570A9091580A0E94C8E66093A8
:10408000550A7093560A8093570A9093580A609184
:10409000690A70916A0A80916B0A90916C0A0E9479
:1040A0008FE5A30192010E94C8E60E9463E5609338
:1040B000690A70936A0A80936B0A90936C0AC092A3
:1040C000450AD092460AE092470AF092480A07C091
:1040D0000E94A314F8016083718382839383CF5F6E
:1040E0000C5F1F4FC43009F085CFCF911F910F9106
:1040F000FF90EF90DF90CF90BF90AF907F906F9048
:104100005F904F900C94C17D0F931F93CF93DF93DB
:10411000CEEBD4E001EF12E0F80120813181428141
:104120005381688179818A819B810E947BE4AB0104
:10413000BC0186E097E00E94B18AF80124813581B4
:10414000468157816C817D818E819F810E947BE4B5
:10415000AB01BC0182E097E00E94B18AF8012085A2
:10416000318542855385688579858A859B850E943E
:104170007BE4AB01BC018EEF96E00E94B18A4C85D6
:104180005D856E857F858AEF96E00E94B18ADF911A
:10419000CF911F910F910C940D984F925F926F9257
:1041A0007F928F929F92AF92BF92CF92DF92EF92C7
:1041B000FF920F931F93CF93DF938EEFC82E81E072
:1041C000D82E99E0E92E93E0F92E00E010E0C0E04F
:1041D000D0E0F60181916F010E949714882309F4C1
:1041E0004DC00E94A3144B015C01C33059F0F8018B
:1041F000EF50FD4F20813181428153810E947AE44A
:104200004B015C01F801E254FB4F20813181428176
:104210005381C501B4010E947AE42B013C012DEBCE
:1042200037E346E855EB0E9494E687FD0AC02DEB84
:1042300037E346E855E3C301B2010E94F2E41816E1
:10424000ECF4C33051F48092CA049092CB04A09253
:10425000CC04B092CD04D1E011C0A3019201F701CA
:1042600060817181828193810E947BE4F701608388
:104270007183828393838C2F0E942E17CF5FF4E08B
:10428000EF0EF11C0C5F1F4FC43009F0A2CFD1110B
:104290000E942416DF91CF911F910F91FF90EF9014
:1042A000DF90CF90BF90AF909F908F907F906F9056
:1042B0005F904F9029CFFF920F931F93CF93DF937F
:1042C000C0918909D0918A0983E0F12C40E08150A6
:1042D000D1F09881292F2B7F2134C9F729812133EF
:1042E000B1F7913421F0953421F441E002C0FF246C
:1042F000F3949E012E5F3F4FE9012F5F3F4F98815E
:104300009032D1F3E4CF442371F0E4E0F3E164911F
:104310008F010F5F1F4F662331F088E793E10E9402
:104320007613F801F4CFFF2071F0E4E4F4E0649137
:104330008F010F5F1F4F662331F088E793E10E94E2
:104340007613F801F4CFBE0188E793E10E9467136A
:104350006AE088E793E1DF91CF911F910F91FF9081
:104360000C947613CF9388EC90E00E94E9168111AB
:1043700040C084E40E944C148823C1F10E94A3141D
:10438000C1E020E030E0A9010E94F2E4811101C007
:10439000C0E0C0938D09CC2349F10E94A314E091A1
:1043A000D40224E0E29FF0011124EF5FF54F608317
:1043B00071838283938320E030E0A9016091010A38
:1043C0007091020A8091030A9091040A0E94F2E41B
:1043D00081110CC080E090E0A0EEBFE38093010A61
:1043E0009093020AA093030AB093040ACF910C940D
:1043F0005C79CF910895CF9383E50E949714882329
:10440000A1F00E94A3146093210A7093220A809362
:10441000230A9093240A6093190A70931A0A8093CE
:104420001B0A90931C0AC0E001C0C1E080E50E9415
:104430009714882359F00E94A3146093210A709363
:10444000220A8093230A9093240AC0E082E50E9406
:104450009714882359F00E94A31460931D0A709347
:104460001E0A80931F0A9093200AC0E084E50E94F0
:104470009714882359F00E94A3146093190A70932B
:104480001A0A80931B0A90931C0A2CC0CC2351F16A
:104490004091210A5091220A6091230A7091240AC6
:1044A00082E194E00E94B18A40911D0A50911E0A57
:1044B00060911F0A7091200A8FE094E00E94B18AF7
:1044C0004091190A50911A0A60911B0A70911C0AB6
:1044D0008CE094E00E94B18A6AE088E793E1CF9192
:1044E0000C947613CF91089581E50E944C14882393
:1044F00051F00E94EA146093590A70935A0A80930B
:104500005B0A90935C0A83E50E944C14882351F067
:104510000E94A3146093250A7093260A8093270AA9
:104520009093280A84E50E944C14882351F00E943D
:10453000A3146093150A7093160A8093170A909338
:10454000180A88E50E944C14882351F00E94A31495
:104550006093050A7093060A8093070A9093080AED
:1045600089E50E944C14882351F00E94A3146093A3
:10457000090A70930A0A80930B0A90930C0A8AE541
:104580000E944C14882351F00E94A31460930D0ADA
:1045900070930E0A80930F0A9093100A85E40E948C
:1045A0004C14882351F00E94A3146093110A709355
:1045B000120A8093130A9093140A0895EF92FF92BF
:1045C0000F931F93CF938EEFE82E81E0F82E0DEF1F
:1045D00012E0C0E0F70181917F010E944C14882312
:1045E00051F00E94A314F801608371838283938346
:1045F0008C2F0E942E17CF5F0C5F1F4FC33051F7D7
:10460000CF911F910F91FF90EF907ECDCF93DF93CD
:10461000E4E0F3E16491EF012196662331F088E74D
:1046200093E10E947613FE01F5CF83E50E944C14BE
:10463000882321F00E940B1580930A01E0ECF3E03F
:104640006491EF012196662331F088E793E10E949F
:104650007613FE01F5CF80910A01811103C0E8EBCA
:10466000F3E002C0ECEBF3E06491EF0121966623E6
:1046700031F088E793E10E947613FE01F5CFE0EB7D
:10468000F3E06491EF012196662331F088E793E12E
:104690000E947613FE01F5CF2091F1023091F202D3
:1046A0004091F3025091F4026091E5027091E602AC
:1046B0008091E7029091E8020E947BE4AB01BC018B
:1046C0008EEA93E00E94B18A2091F5023091F602C1
:1046D0004091F7025091F8026091E9027091EA026C
:1046E0008091EB029091EC020E947BE4AB01BC0153
:1046F0008BEA93E00E94B18A2091F9023091FA028C
:104700004091FB025091FC026091ED027091EE022B
:104710008091EF029091F0020E947BE4AB01BC011A
:1047200088EA93E00E94B18AE0EAF3E06491EF0145
:104730002196662331F088E793E10E947613FE010B
:10474000F5CF2091F1023091F2024091F3025091A5
:10475000F40260910B0170910C0180910D01909118
:104760000E010E947BE4AB01BC018EE993E00E9444
:10477000B18A2091F5023091F6024091F7025091F2
:10478000F80260910F0170911001809111019091D8
:1047900012010E947BE4AB01BC018BE993E00E9413
:1047A000B18A2091F9023091FA024091FB025091B6
:1047B000FC02609113017091140180911501909198
:1047C00016010E947BE4AB01BC0188E993E00E94E2
:1047D000B18A6AE088E793E1DF91CF910C94761378
:1047E0000F931F93CF93DF938DED90E00E94E91616
:1047F000811170C083E50E9497148823B9F1C0919C
:10480000D402D0E00E94DA14CC0FDD1FC25DDE4F6F
:10481000798368838091D40290E0EC01CC0FDD1F96
:10482000CC0FDD1F8E01065D1E4F880F991FFC0106
:10483000E25DFE4F60817181072E000C880B990BA1
:104840000E9491E52AE037ED43E25CE30E94C8E66E
:10485000C350D64F288139814A815B810E94C8E6C6
:10486000F801608371838283938334C0E4E0F3E1D1
:104870006491EF012196662331F088E793E10E946D
:104880007613FE01F5CF65E488E793E10E94761385
:104890006091D402605D88E793E10E947613E09115
:1048A000D402F0E0EE0FFF1FE25DFE4F60817181E8
:1048B00080E993E00E94748A65E288E793E10E94B0
:1048C00076136AE088E793E1DF91CF911F910F9112
:1048D0000C947613DF91CF911F910F910895CF9291
:1048E000DF92EF92FF92CF93DF938AE50E949714B5
:1048F000811106C083E50E949714882309F481C0C2
:104900000E94A31420E030E040E050EC0E94F2E46A
:1049100087FD15C00E94A31420E030E040E050E481
:104920000E9494E618162CF00E94A3146B017C01DF
:104930000BC0C12CD12CE12C90E4F92E05C0C12C68
:10494000D12CE12C80ECF82E2091410A3091420AC2
:104950004091430A5091440A8091AC0482FF10C0F8
:10496000C091E411D091E511C701B6010E94C8E6DB
:104970000E945EE5C60FD71FD093E511C093E411E6
:1049800080E50E944C14882321F00E940B15882397
:10499000C1F1A70196016091D0027091D10280917E
:1049A000D2029091D3020E947BE46093D002709374
:1049B000D1028093D2029093D302E4E0F3E16491B8
:1049C000EF012196662331F088E793E10E94761388
:1049D000FE01F5CF4091D0025091D1026091D202F8
:1049E0007091D3028FE793E00E94B18A6AE088E772
:1049F00093E1DF91CF91FF90EF90DF90CF900C94F7
:104A00007613DF91CF91FF90EF90DF90CF900895D4
:104A1000CF93DF9385E40E949714811110C080E545
:104A20000E944C14882391F00E94A3146093EE110D
:104A30007093EF118093F0119093F11107C00E94D1
:104A4000FA14882361F3EAE0F3E172C089E40E947A
:104A50004C14882381F00E94A3142CEA35EC47E221
:104A60005EE30E94C8E66093EA117093EB118093B5
:104A7000EC119093ED1184E40E944C14882381F092
:104A80000E94A3142CEA35EC47E25EE30E94F6E4B0
:104A90006093E6117093E7118093E8119093E91108
:104AA000E4E0F3E16491EF012196662331F088E7B9
:104AB00093E10E947613FE01F5CF4091EE115091E3
:104AC000EF116091F0117091F1118BE793E00E946A
:104AD000B18A2CEA35EC47E25EE36091EA1170910D
:104AE000EB118091EC119091ED110E94F6E4AB0175
:104AF000BC0187E793E00E94B18A2CEA35EC47E2DB
:104B00005EE36091E6117091E7118091E811909158
:104B1000E9110E94C8E6AB01BC0183E793E00E9463
:104B2000B18A6AE088E793E1DF91CF910C94761324
:104B30006491EF012196662331F088E793E10E94AA
:104B40007613FE01F5CFE1E6F3E06491EF012196E3
:104B5000662331F088E793E10E947613FE01F5CFDA
:104B6000DF91CF910895CF93DF9383E50E944C149A
:104B7000C82F882371F00E94A3140E945EE57093F1
:104B80004D0160934C0121E0672B09F020E0209358
:104B9000D91180E50E944C14882359F020914C01D2
:104BA00030914D01232B11F00E940B158093D911E8
:104BB00031C0C1112FC0E4E0F3E16491EF0121960F
:104BC000662331F088E793E10E947613FE01F5CF6A
:104BD0008091D911811103C06FED71E002C06CEDBD
:104BE00071E08EE493E00E944C8A60914C017091D8
:104BF0004D018DE393E00E94748AE9E3F3E0649150
:104C0000EF012196662331F088E793E10E94761345
:104C1000FE01F5CFDF91CF9108958F929F92AF92D1
:104C2000BF92EF92FF920F931F93CF93DF9300D029
:104C300000D0CDB7DEB785E40E949714882321F019
:104C40000E94DA148B0102C000E010E083E40E94AD
:104C50009714882321F00E94DA14F62E02C025E072
:104C6000F22E85E50E949714882321F00E940B15EF
:104C7000E82E04C085E50E944C14E82E17FD07C0FD
:104C8000812C912C96E1A92E93E4B92E06C0812C9B
:104C9000912C8CE8A82E82E4B82E83E50E9497140C
:104CA000882321F00E94A3144B015C01C501B401CB
:104CB0000E945EE50115110511F41092D402072E31
:104CC000000C880B990B0E9491E569837A838B8392
:104CD0009C832E2D4F2D602FCE0101960E946FA236
:104CE0000F900F900F900F90DF91CF911F910F9128
:104CF000FF90EF90BF90AF909F908F9008952F926C
:104D00003F924F925F926F927F928F929F92AF925B
:104D1000BF92CF92DF92EF92FF920F931F93CF93A8
:104D2000DF93CDB7DEB72F970FB6F894DEBF0FBE77
:104D3000CDBF41E061E081E00E9419198111DAC024
:104D40009CE7892E99E0992E8EEB94E09E878D87C3
:104D5000FE0131965F0101E619E01F01F3E0F00F5B
:104D6000FF87F4016591759185919491ED85FE859C
:104D7000C190D190E190F190FE87ED87A701960157
:104D80000E947AE42B013C0120E030E040EA51EC43
:104D90000E9494E687FD10C020E030E040EA51E434
:104DA000C301B2010E94F2E4181634F0F10140820E
:104DB0005182628273820DC0F80184911816B4F793
:104DC000F7FAF094F7F8F094F101C082D182E28210
:104DD000F382F101C190D190E190F1901F0120E0A8
:104DE00030E040EA51ECC701B6010E9494E687FF2B
:104DF00003C0EAE0F3E10BC020E030E040EA51E418
:104E0000C701B6010E94F2E41816BCF5F2CF649116
:104E10008F010F5F1F4F662331F088E793E10E94F7
:104E20007613F801F4CFEEEEF3E064918F010F5F9B
:104E30001F4F662331F088E793E10E947613F80153
:104E4000F4CF80EE93E02F960FB6F894DEBF0FBE3E
:104E5000CDBFDF91CF911F910F91FF90EF90DF9029
:104E6000CF90BF90AF909F908F907F906F905F900A
:104E70004F903F902F900C941CAFF4E08F0E911C3C
:104E80000F5F1F4F8F8580136CCF8DEFE82E82E070
:104E9000F82E10E0F50181919191A191B1915F01FE
:104EA000F70181939193A193B1937F01812F0E9488
:104EB0002E171F5F133071F727D960E080ED93E064
:104EC0002F960FB6F894DEBF0FBECDBFDF91CF9106
:104ED0001F910F91FF90EF90DF90CF90BF90AF9018
:104EE0009F908F907F906F905F904F903F902F900A
:104EF0000C9486AE2F960FB6F894DEBF0FBECDBFD2
:104F0000DF91CF911F910F91FF90EF90DF90CF90A5
:104F1000BF90AF909F908F907F906F905F904F90D9
:104F20003F902F900895CF93DF930E94CD6C8823FC
:104F3000D1F0E4E0F3E16491EF012196662331F0D2
:104F400088E793E10E947613FE01F5CFE5EDF2E0EC
:104F50006491EF012196662331F088E793E10E9486
:104F60007613FE01F5CFDF91CF910895CF92DF92B6
:104F7000EF92FF92CF93DF938AE50E9497148823E4
:104F800009F43AC00E94A3146B017C0120E030E0D8
:104F900040EA50EC0E9494E687FD13C020E030E028
:104FA00040EA51E4C701B6010E94F2E418164CF041
:104FB000C092D002D092D102E092D202F092D302FB
:104FC0004CC0EAE0F3E16491EF01219661110EC05B
:104FD000E9EBF2E06491EF012196662309F43DC00C
:104FE00088E793E10E947613FE01F4CF88E793E10E
:104FF0000E947613FE01E7CFE4E0F3E16491EF0154
:105000002196662331F088E793E10E947613FE0132
:10501000F5CFEAEAF2E06491EF012196662331F0E0
:1050200088E793E10E947613FE01F5CF4091D0020C
:105030005091D1026091D2027091D30287EA92E03E
:105040000E94B18A6AE088E793E1DF91CF91FF90F7
:10505000EF90DF90CF900C947613DF91CF91FF907B
:10506000EF90DF90CF900895CF92DF92EF92FF9272
:10507000CF93DF938BE40E9497148823B1F18BE4E4
:105080000E9497148823B1F00E94A3146B017C0145
:1050900020E030E0A9010E9494E687FD19C020E0DD
:1050A00030E040E251E4C701B6010E94F2E4181674
:1050B0007CF003C0C12CD12C76010E945D7BC09294
:1050C000AA09D092AB09E092AC09F092AD0931C0C7
:1050D000E8E8F2E06491EF012196662351F188E758
:1050E00093E10E947613FE01F5CFE4E0F3E16491D1
:1050F000EF012196662331F088E793E10E94761351
:10510000FE01F5CF4091AA095091AB096091AC091D
:105110007091AD098DE792E00E94B18A6AE088E75C
:1051200093E1DF91CF91FF90EF90DF90CF900C94BF
:105130007613DF91CF91FF90EF90DF90CF9008959D
:10514000CF92DF92EF92FF920F931F93CF9383E55D
:105150000E944C14811104C00EEF11E0C0E00EC09B
:105160000E94A3146B017C01C0E0B701A6018C2F43
:105170000E941899CF5FC530C1F7EECFF801819139
:105180008F010E944C14882339F00E94A314AB01B4
:10519000BC018C2F0E941899CF5FC43079F7CF9152
:1051A0001F910F91FF90EF90DF90CF900895CF93D4
:1051B000DF9383E50E949714882321F00E94DA147C
:1051C000EB0102C0C0E0D0E080E50E949714882384
:1051D00019F00E94FA1401C08FEFBE01DF91CF9148
:1051E0000C945999CF93DF93EAE0F3E16491EF01D6
:1051F0002196662331F088E793E10E947613FE0141
:10520000F5CFEAE2F3E06491EF012196662331F0F5
:1052100088E793E10E947613FE01F5CFDF91CF91ED
:1052200008951F93CF93DF93182FE4E0F3E1649187
:10523000EF012196662331F088E793E10E9476130F
:10524000FE01F5CF64E588E793E10E947613412FD4
:1052500050E060E070E020E088E793E10E9459DBD5
:1052600060E288E793E10E947613E6EDF6E0649150
:10527000EF012196662331F088E793E10E947613CF
:10528000FE01F5CFDF91CF911F910895CF93DF936A
:10529000E091A204F0E0E054FD4F80818823A1F06A
:1052A000E1E7F2E06491EF012196662331F088E7AF
:1052B00093E10E947613FE01F5CF6AE088E793E15F
:1052C000DF91CF910C947613DF91CF910895CF9217
:1052D000DF92EF92FF92CF93DF9320910A01222376
:1052E00009F485C0EC01C090E502D090E602E090A0
:1052F000E702F090E802A7019601688179818A812E
:105300009B810E94F2E487FF04C0C882D982EA82AE
:10531000FB82C090E902D090EA02E090EB02F090AC
:10532000EC02A70196016C817D818E819F810E9494
:10533000F2E487FF04C0CC82DD82EE82FF82C0905F
:105340000B01D0900C01E0900D01F0900E01A7012F
:105350009601688179818A819B810E9494E6181662
:1053600024F4C882D982EA82FB82C0900F01D090D7
:105370001001E0901101F0901201A70196016C81DB
:105380007D818E819F810E9494E6181624F4CC8240
:10539000DD82EE82FF82C090ED02D090EE02E090BE
:1053A000EF02F090F002A7019601688579858A8561
:1053B0009B850E94F2E487FF04C0C886D986EA86EE
:1053C000FB86C0901301D0901401E0901501F0907D
:1053D0001601A7019601688579858A859B850E94BB
:1053E00094E6181624F4C886D986EA86FB86DF91EF
:1053F000CF91FF90EF90DF90CF900895CF93DF9300
:1054000080E00E94497BC4ECD2E0688379838A8380
:105410009B8381E00E94497B6C837D838E839F8385
:1054200082E00E94497B688779878A879B87DF9122
:10543000CF910895CF93DF93E1DF6BE588E793E1A8
:105440000E947613C4ECD2E0488159816A817B8145
:1054500022E088E793E10E94C2DB4C815D816E818E
:105460007F818CE097E00E94B18A488559856A85E2
:105470007B8589E097E00E94B18A6DE588E793E13A
:105480000E9476136AE088E793E1DF91CF910C9454
:105490007613CF93C82FB2DF84EC92E00E94477A54
:1054A000CE3F51F48CE0E4ECF2E0AEEBB4E00190DE
:1054B0000D928A95E1F713C024E0C29FC001112428
:1054C000FC01E254FB4FDC01AC53BD4F8D919D912B
:1054D0000D90BC91A02D80839183A283B383CF9143
:1054E0000895CF939091FC09891789F0C82F0E94E5
:1054F0005D7BC093FC09C11103C08EEFCADF04C0FD
:105500008EEB94E00E94477ACF910C941A15CF91BC
:10551000089580E0E6DF88ED99E00C9491D48F92B5
:105520009F92AF92BF92EF92FF920F931F93CF93F0
:10553000DF9300D000D0CDB7DEB7182F9091AC0428
:105540009770973079F48FE40E949714882329F09C
:105550000E940B15882331F097C08FE40E944C14F1
:10556000811192C00E945D7B80E0BBDF0E94E11848
:1055700081E00E94546E11111AC088E50E944C14FB
:10558000F82E89E50E944C14082F8AE50E944C14DD
:10559000E82EF11007C0011111C0811110C0F02ECA
:1055A00011E00DC0002351F0F02E182F08C001E0CB
:1055B000FF24F394EE24E39411E001C010E080E1B5
:1055C000EEEBF4E0AEEAB4E001900D928A95E1F7DB
:1055D00082E50E949714882361F00E94A3144B0176
:1055E0005C0120E030E0A9010E94F2E4882369F127
:1055F00005C0812C912C80E4A82EBA2C111104C076
:10560000F11002C0002391F18092B6049092B70489
:10561000A092B804B092B9042091C6043091C70496
:105620004091C8045091C904C501B4010E9494E698
:1056300018165CF419821A821B821C82BE016F5FED
:105640007F4F86EB94E00E94A218111105C0F11063
:1056500003C0011106C00AC080E00E94711A112324
:10566000C1F381E00E94711A111101C0E1100E9482
:10567000CD1C0E941A150E94576E0E94001983E0EB
:10568000809351010E9484200F900F900F900F90F3
:10569000DF91CF911F910F91FF90EF90BF90AF904E
:1056A0009F908F900895CF93DF93C82F0E945D7BCA
:1056B000D091FC0980E015DFCC2321F08C2FDF9105
:1056C000CF91AFCD1092E2028D2F0BDFE4E0F3E13A
:1056D0006491EF012196662331F088E793E10E94FF
:1056E0007613FE01F5CF6091E20270E088EE96E05D
:1056F0000E94748A6AE088E793E1DF91CF910C946D
:1057000076130F931F93CF93DF93CDB7DEB72C970C
:105710000FB6F894DEBF0FBECDBF83E50E944C14D8
:10572000882341F00E940B15182F811105C080E0DD
:10573000D8DE02C01091FC098091BE049091BF0494
:10574000A091C004B091C10489839A83AB83BC83C8
:105750008091C2049091C304A091C404B091C50487
:105760008D839E83AF83B8878091C6049091C704D0
:10577000A091C804B091C90489879A87AB87BC8778
:1057800086E50E944C14882331F06DE073E088EDCB
:1057900099E00E947ED6812FA4DE111103C0E4E0BF
:1057A000F3E120C08091FC098111F9CFEAE0F3E137
:1057B00064918F010F5F1F4F662331F088E793E1FB
:1057C0000E947613F801F4CFEEEEF2E064918F01BF
:1057D0000F5F1F4F662319F388E793E10E9476134A
:1057E000F801F4CF64918F010F5F1F4F662331F0F2
:1057F00088E793E10E947613F801F4CF8091FC09C9
:10580000811103C067EE71E002C063EE71E080EECB
:1058100092E00E944C8A6AE088E793E10E94761346
:105820004CE050E06EEB74E0CE0101960E9495EBE7
:10583000892B61F02C960FB6F894DEBF0FBECDBF5A
:10584000DF91CF911F910F910C9484202C960FB66D
:10585000F894DEBF0FBECDBFDF91CF911F910F91A6
:1058600008950E94DF7A0E945D7B8EEF12DE0C9419
:105870001A152F923F924F925F926F927F928F9262
:105880009F92AF92BF92CF92DF92EF92FF920F93CF
:105890001F93CF93DF93CDB7DEB7A0970FB6F894E1
:1058A000DEBF0FBECDBF1C017F8F6E8F498F28A337
:1058B000DC018D909D90AD90BC90FB0140805180AB
:1058C000628073800023A1F0A3019201C501B4019D
:1058D0000E94EE12882309F4F5C120E030E040EA8E
:1058E00051E4C501B4010E947AE44B015C012AC075
:1058F0002FE632E143E85AEBC501B4010E9494E679
:1059000087FDE0C122E430E040E253E4C501B40188
:105910000E94F2E418160CF4D5C12FE632E143E8F8
:105920005AEBC301B2010E9494E687FDCBC122E489
:1059300030E04CE553E4C301B2010E94F2E41816D2
:105940000CF4C0C1E090C604F090C7040091C804F4
:105950001091C9048091190190911A01A0911B0125
:10596000B0911C018A8F9B8FAC8FBD8F80910101FC
:1059700090910201A0910301B0910401809319015B
:1059800090931A01A0931B01B0931C0119821A82F3
:105990001B821C82DE0111966D01A3019201C501DB
:1059A000B4010E94C51781E00E94D0198111E4C0A2
:1059B0008091AC0482FF11C02091D0023091D102BD
:1059C0004091D2025091D30260E070E080E090EC10
:1059D0000E947AE42B013C0106C0412C512C90E23C
:1059E000692E91EC792E4D865E866F86788AC12C61
:1059F000D12C80E8E82E80E4F82EC986DA86EB8682
:105A0000FC86BE01675F7F4FCE010D960E94A218F3
:105A1000109162091092620982E03BDD0E941A1522
:105A200012FD05C060E070E080EC9FE75EC08090F2
:105A3000C6049090C704A090C804B090C904C9825D
:105A4000DA82EB82FC8220E030E040E450E4C501E1
:105A5000B4010E947BE46D837E838F839887BE01AF
:105A60006F5F7F4FCE0105960E94A2184D825E8225
:105A70006F82788680E090E0A0E0B0E489839A832A
:105A8000AB83BC83BE016F5F7F4FCE0105960E9442
:105A9000A218109162091092620982E0FADC0E9459
:105AA0001A1512FFBFCF20E030E040E450E46091CF
:105AB000C6047091C7048091C8049091C9040E94E3
:105AC000C8E62B013C01A5019401C501B4010E9467
:105AD0007BE49B01AC01C301B2010E947BE42DEC8D
