:100000000C9467160C9491160C9491160C949116FE
:100010000C9491160C9491160C9491160C949116C4
:100020000C9491160C9491160C94C8D90C9445DA42
:100030000C9491160C9491160C9491160C949116A4
:100040000C9491160C9447840C9491160C94911670
:100050000C9491160C9491160C94099A0C9427D92F
:100060000C9491160C9491160C9491160C94911674
:100070000C9491160C9491160C9491160C94911664
:100080000C9491160C9491160C9491160C94911654
:100090000C9491160C949116B6D6E2D604D704D7D8
:1000A00004D704D704D704D704D704D704D704D778
:1000B00004D704D7FAD6F2D6EAD604D704D704D7A1
:1000C00004D704D704D704D7DCD6C2D6CAD6D4D630
:1000D000084AD73B3BCE016E84BCBFFDC12F3D6CAF
:1000E00074319ABD56833DDA3D00C77F11BED9E415
:1000F000BB4C3E916BAAAABE000000803F05A84CF5
:10010000CDB2D44EB93836A9020C50B991868808C0
:100110003CA6AAAA2ABE000000803F004E414E49DC
:100120004E495459494E46CDCCCC3D0AD7233C17B5
:10013000B7D13877CC2B329595E6241FB14F0A0002
:100140000020410000C84200401C4620BCBE4CCAF2
:100150001B0E5AAEC59D742020506C616E6E657288
:1001600042756666657242797465733A200020466E
:10017000726565204D656D6F72793A2000436F6D31
:1001800070696C65643A204E6F76203130203230D1
:1001900031380A00207C20417574686F723A20283B
:1001A00044722E5068696C3344290A003230313869
:1001B0002D30382D303100204C617374205570641F
:1001C000617465643A2000312E312E390A004D6188
:1001D000726C696E0020536F66747761726520528D
:1001E000657365740A00205761746368646F6720E3
:1001F00052657365740A002042726F776E206F75C6
:10020000742052657365740A002045787465726EB7
:10021000616C2052657365740A00506F7765725582
:10022000700A0073746172740A005072696E7465AA
:10023000722068616C7465642E206B696C6C28296F
:100240002063616C6C6564210A004B494C4C454449
:100250002E20004B494C4C2063617573656420620D
:100260007920746F6F206D75636820696E616374A7
:100270006976652074696D65202D206375727265DD
:100280006E7420636F6D6D616E643A200020746F30
:100290006F206C6F6E6720657874727573696F6E0E
:1002A0002070726576656E7465640A0020636F6CF9
:1002B0006420657874727573696F6E2070726576EC
:1002C000656E7465640A006F6B00526573656E64D9
:1002D0003A20003C3C3C2067636F64655F540A0031
:1002E000202063757272656E745F706F73697469D4
:1002F0006F6E3D00203A2041465445520A002020AE
:1003000063757272656E745F706F736974696F6E16
:100310003D00203A204245464F52450A003E3E3EAF
:100320002067636F64655F542800416476616E6383
:1003300065204B3D003F4B2076616C7565206F75E5
:1003400074206F662072616E67652028302D313011
:10035000292E0A003A200050726F6265205A204F01
:100360006666736574003F5A206F7574206F66204F
:1003700072616E676520282D3520746F2032302918
:100380000A00454550524F4D204F4B0A00426564CC
:10039000204C6576656C696E6720004661696C6506
:1003A0006420746F20656E61626C65204265642014
:1003B0004C6576656C696E670A00426564204C6521
:1003C00076656C20436F7272656374696F6E204D41
:1003D00061747269783A004E6F2063617365206CB6
:1003E000696768740A0043290A0061626C656420C9
:1003F000286D696E2074656D702000436F6C6420F9
:100400006578747275646573206172652000496E49
:1004100076616C69642065787472756465720A002F
:1004200020643A0020693A0020703A0050726F62EE
:1004300065205A204F66667365743A200020466C2A
:100440006F773A2000205A00205900580020204D94
:1004500061783A2000205A00205900580020204D91
:10046000696E3A20004F6666004F6E2000536F663B
:100470007420656E6473746F70733A20004F666603
:1004800073657473206170706C6965640045727285
:100490003A20546F6F206661722100546F6F20669E
:1004A00061722066726F6D207265666572656E633B
:1004B0006520706F696E740A00205400205200415C
:1004C0006363656C65726174696F6E3A2050004DAC
:1004D00031343520533C696E6465783E206F757405
:1004E000206F662072616E67652028302D31290AE1
:1004F000002F2F20003A004361703A0054484552C3
:100500004D414C5F50524F54454354494F4E00416A
:1005100055544F5245504F52545F53445F535441CA
:1005200054555300454D455247454E43595F504140
:100530005253455200434153455F4C494748545F2D
:100540004252494748544E45535300544F47474C35
:10055000455F4C494748545300534F465457415206
:10056000455F504F574552004255494C445F5045F6
:100570005243454E54004C4556454C494E475F4406
:10058000415441005A5F50524F4245004155544F2B
:100590004C4556454C005052494E545F4A4F42001C
:1005A00050524F4752455353004155544F524550B6
:1005B0004F52545F54454D5000564F4C554D455485
:1005C00052494300454550524F4D00534552494111
:1005D0004C5F584F4E5F584F4646004649524D5764
:1005E0004152455F4E414D453A4D61726C696E20F6
:1005F000312E312E392028476974687562292053BD
:100600004F555243455F434F44455F55524C3A68FE
:10061000747470733A2F2F6769746875622E636FF4
:100620006D2F4D61726C696E4669726D776172658E
:100630002F4D61726C696E2050524F544F434F4C96
:100640005F56455253494F4E3A312E30204D41436B
:1006500048494E455F545950453A334420507269D9
:100660006E7465722045585452554445525F434F4D
:10067000554E543A3120555549443A343063653625
:100680003164312D326564302D343533302D3833BB
:1006900030342D3535653365656161656266660A9E
:1006A000003344205072696E746572204F66662E66
:1006B0000020573A0042656420636F6F6C696E6773
:1006C0002E2E2E004265642068656174696E672E67
:1006D0002E2E0020573A004520436F6F6C696E67DD
:1006E0002E2E2E00452048656174696E672E2E2ED1
:1006F000006F6B004D3131332053004B494C4C455A
:10070000442E20004543484F00494E464F00455275
:10071000524F52530044525952554E00434F4D4D83
:10072000554E49434154494F4E004C4556454C495E
:100730004E47006F666600040709070E0715071C81
:10074000072A0744454255473A0050726F74656363
:100750007465642050696E0A0000011C1D132FFF90
:10076000FFFFFF1E1F12FF14FFFFFF20211124FFB8
:10077000FFFFFFFFFFFF0E10FFFFFF22230DFFFF14
:10078000FF0E260F2C272569730025696D2025692A
:1007900073002569682025696D2025697300256926
:1007A00064202569682025696D2025697300256905
:1007B0007920256964202569682025696D202569CF
:1007C00073005072696E742074696D653A20004E32
:1007D0006F206D6F76652E00436C69636B20746FBC
:1007E00020726573756D652E2E2E00205A3A2000FA
:1007F00020593A200042656420583A20003C3C3C95
:10080000204732390A004731205A313020463730EC
:1008100030300A47312058302059302046373030A8
:1008200030005A2050726F626520456E6420536319
:10083000726970743A2000202063757272656E745C
:100840005F706F736974696F6E3D00203A204732A4
:100850003920636F727265637465642058595A0A4F
:1008600000202044697363726570616E63793A0099
:1008700020204D61747269783A005A2066726F6D5B
:100880002050726F62653A00202063757272656E47
:10089000745F706F736974696F6E3D00203A204712
:1008A000323920756E636F727265637465642058A7
:1008B000595A0A000A0A426564204C6576656C2024
:1008C000436F7272656374696F6E204D61747269F3
:1008D000783A00202063757272656E745F706F7372
:1008E0006974696F6E3D00203A203E2070726F621D
:1008F000696E6720636F6D706C6574650A003E20D9
:10090000332D706F696E74204C6576656C696E6707
:100910000A00202844525952554E290047323920A6
:100920004175746F20426564204C6576656C696E14
:1009300067003F2856296572626F7365206C657683
:10094000656C20697320696D706C61757369626C88
:10095000652028302D34292E0A003C3C3C204732AB
:10096000390A003E204175746F2D6C6576656C20E8
:100970006E6F74206E65656465642C20736B69709E
:100980000A00202063757272656E745F706F736900
:1009900074696F6E3D00203A203E3E3E204732395A
:1009A0000A00536C6565702E2E2E0047322F473398
:1009B0002062616420706172616D65746572730A92
:1009C00000496E76616C696420657874727564653F
:1009D000720A0041637469766520457874727564A3
:1009E00065723A200020453A00205A3A0020593AD0
:1009F00000583A002C20002C20003C3C3C205A5F40
:100A0000534146455F484F4D494E470A00202064F8
:100A1000657374696E6174696F6E3D00203A205A87
:100A20005F534146455F484F4D494E470A005A5F64
:100A3000534146455F484F4D494E47203E3E3E0A92
:100A400000486F6D652058592066697273740A00FA
:100A5000486F6D65205859206669727374003C3C7C
:100A60003C207365745F617869735F69735F61745B
:100A70005F686F6D652800202063757272656E7403
:100A80005F706F736974696F6E3D00203A200A00D1
:100A90005D203D20003E20686F6D655F6F66667368
:100AA00065745B003E207A70726F62655F7A6F6674
:100AB00066736574203D20002A2A2A205A20484F58
:100AC0004D454420574954482050524F4245202814
:100AD0005A5F4D494E5F50524F42455F5553455303
:100AE0005F5A5F4D494E5F454E4453544F505F50DF
:100AF000494E29202A2A2A0A003E3E3E2073657468
:100B00005F617869735F69735F61745F686F6D655A
:100B100028003C3C3C20646F5F686F6D696E675FC6
:100B20006D6F76652800290A005B002C20002C20C0
:100B3000003E3E3E20646F5F686F6D696E675F6D5B
:100B40006F766528005761726E696E673A20486F4C
:100B50006D696E672042756D702044697669736FA8
:100B600072203C20310A000202043C3C3C20686FA9
:100B70006D65617869732800202063757272656EF7
:100B8000745F706F736974696F6E3D00203A203E28
:100B9000204146544552207365745F617869735FE4
:100BA00069735F61745F686F6D650A00486F6D659A
:100BB000203220536C6F773A0A004D6F76652041E2
:100BC0007761793A0A00486F6D652031204661737C
:100BD000743A0A003E3E3E20686F6D656178697325
:100BE00028003C3C3C204732380A0052616973655A
:100BF000205A20286265666F726520686F6D696E85
:100C0000672920746F20003E20656E6473746F70D6
:100C1000732E656E61626C652874727565290A00B1
:100C20003C3C3C204732380A003E20686F6D696EBC
:100C300067206E6F74206E65656465642C20736B2D
:100C400069700A003E3E3E204732380A0020286480
:100C5000697361626C6564290A00205A002059009A
:100C600041424C2041646A7573746D656E742058FE
:100C7000002028656E61626C6564290A0033504F5C
:100C8000494E54004175746F20426564204C65766E
:100C9000656C696E673A2000204E6F7A7A6C652920
:100CA0000A0020262053616D65205A2061730020C0
:100CB000262041626F76650020262042656C6F77A2
:100CC000002D43656E746572002028526967687450
:100CD00000205A3A0020593A0050726F6265204F46
:100CE000666673657420583A004649585F4D4F5503
:100CF0004E5445445F50524F42450A0050726F6255
:100D0000653A200043617274657369616E0A004D33
:100D1000616368696E6520547970653A2000627578
:100D200073793A2070617573656420666F7220690B
:100D30006E7075740A00627573793A20706175730C
:100D4000656420666F7220757365720A0062757340
:100D5000793A2070726F63657373696E670A007207
:100D6000657365745F6265645F6C6576656C0A00C7
:100D7000202063757272656E745F706F7369746939
:100D80006F6E3D00203A203C3C3C20646F5F7072E7
:100D90006F62655F6D6F76650A0020206375727201
:100DA000656E745F706F736974696F6E3D00203A91
:100DB000203E3E3E20646F5F70726F62655F6D6FB4
:100DC00076650A00202063757272656E745F706FBD
:100DD000736974696F6E3D00203A203C3C3C207280
:100DE000756E5F7A5F70726F62650A002044697386
:100DF00063726570616E63793A00326E642050727E
:100E00006F6265205A3A00202063757272656E74B5
:100E10005F706F736974696F6E3D00203A203C3CCF
:100E20003C2072756E5F7A5F70726F62650A005364
:100E30004C4F572050726F6265206661696C210AC1
:100E4000003173742050726F6265205A3A0020207E
:100E500063757272656E745F706F736974696F6EBB
:100E60003D00203A203C3C3C2072756E5F7A5F70FA
:100E7000726F62650A00464153542050726F62657A
:100E8000206661696C210A00202063757272656EAC
:100E9000745F706F736974696F6E3D00203A203E15
:100EA0003E3E2072756E5F7A5F70726F62650A00F7
:100EB0003C3C3C2070726F62655F70740A00507237
:100EC0006F62696E67206661696C65640A005072C2
:100ED0006F62696E67206661696C656400205A3ACA
:100EE000200020593A200042656420583A20002012
:100EF0002063757272656E745F706F736974696F69
:100F00006E3D00203A200A005F72656C617469765C
:100F100065290A002C20002C20002C20002C200009
:100F20003E3E3E2070726F62655F70742800646F91
:100F30005F70726F62655F726169736528006465D6
:100F4000706C6F793A2000202063757272656E7440
:100F50005F706F736974696F6E3D00203A2073652E
:100F6000745F70726F62655F6465706C6F796564E1
:100F70000A00486F6D652025732573257320666907
:100F8000727374002066697273740A005A00590003
:100F90005800486F6D652000202063757272656E81
:100FA000745F706F736974696F6E3D00203A2063DF
:100FB0006C65616E5F75705F61667465725F656EAA
:100FC0006473746F705F6F725F70726F62655F6D74
:100FD0006F76650A00202063757272656E745F70AB
:100FE0006F736974696F6E3D00203A207365747584
:100FF000705F666F725F656E6473746F705F6F723F
:101000005F70726F62655F6D6F76650A003C3C3C95
:1010100020646F5F626C6F636B696E675F6D6F7684
:10102000655F746F0A003E3E3E20646F5F626C6FC6
:10103000636B696E675F6D6F76655F746F000A2022
:10104000736F66745F656E6473746F705F6D6178E3
:10105000203D20000A20736F66745F656E647374B0
:101060006F705F6D696E203D20000A20706F73699C
:1010700074696F6E5F7368696674203D200020613B
:101080007869733A0A20686F6D655F6F666673658D
:1010900074203D2000466F72200020496E76616CFE
:1010A000696420657874727564657220004B494CE0
:1010B0004C45442E200053544F505045442E2000A0
:1010C0005072696E7465722073746F7070656420FD
:1010D00064756520746F206572726F72732E20467E
:1010E000697820746865206572726F7220616E6421
:1010F00020757365204D39393920746F20726573FE
:10110000746172742E202854656D706572617475F7
:1011100072652069732072657365742E205365743F
:1011200020697420616674657220726573746172DF
:1011300074696E67290A004E6F20436865636B739C
:10114000756D2077697468206C696E65206E756DA9
:101150006265722C204C617374204C696E653A2074
:1011600000636865636B73756D206D69736D617481
:1011700063682C204C617374204C696E653A2000C2
:101180004C696E65204E756D626572206973206EC4
:101190006F74204C617374204C696E65204E756DC0
:1011A0006265722B312C204C617374204C696E6522
:1011B0003A20004D31313000656E71756575656995
:1011C0006E67202200202063757272656E745F70F6
:1011D0006F736974696F6E3D00203A2073796E6396
:1011E0005F706C616E5F706F736974696F6E0A0017
:1011F0002C20002C2000FF01FF0000A0400000A0D8
:1012000040000000400000C8420000C84200000347
:1012100043000000000000C842000000000000C8B9
:10122000420000C84200000343000000000000002C
:10123000000000000000004842000048420000801A
:1012400040000000003A0A0020286D6D290020208F
:101250004D393030204B004C696E6561722041641D
:1012600076616E63653A0A0020204D383531205A88
:10127000005A2D50726F6265204F66667365740068
:1012800020440020490020204D33303120500050B0
:1012900049442073657474696E67733A0A00204686
:1012A0000020420020480020204D313435205300DA
:1012B0004D6174657269616C206865617475702038
:1012C000706172616D65746572733A0A0020204D19
:1012D0003432302053004175746F20426564204CD5
:1012E0006576656C696E673A0A00205A00205900DD
:1012F00020204D323036205800486F6D65206F66D3
:10130000667365743A0A00204500205A002059008F
:1013100020580020540020530020204D323035202A
:10132000510020453C6D61785F655F6A65726B3E78
:101330000020583C6D61785F785F6A65726B3E2073
:10134000593C6D61785F795F6A65726B3E205A3CEB
:101350006D61785F7A5F6A65726B3E0041647661A9
:101360006E6365643A20513C6D696E5F7365676DAD
:10137000656E745F74696D655F75733E20533C6D77
:10138000696E5F66656564726174653E20543C6D8C
:10139000696E5F74726176656C5F666565647261C3
:1013A00074653E0020540020520020204D3230341D
:1013B000205000416363656C65726174696F6E20D3
:1013C00028756E6974732F7332293A20503C7072FD
:1013D000696E745F616363656C3E20523C72657434
:1013E000726163745F616363656C3E20543C747228
:1013F0006176656C5F616363656C3E0A0020450041
:10140000205A0020590020204D3230312058004D04
:101410006178696D756D20416363656C6572617497
:10142000696F6E2028756E6974732F7332293A0ABA
:1014300000204500205A0020590020204D32303332
:101440002058004D6178696D756D20666565647220
:10145000617465732028756E6974732F73293A0A55
:1014600000204500205A0020590020204D3932200C
:10147000580053746570732070657220756E6974BE
:101480003A0A0020204D3230302044300A0020201B
:101490004D3230302044002044697361626C6564D1
:1014A0000A0046696C616D656E74207365747469B9
:1014B0006E67733A0020204D3134392043203B20A1
:1014C000556E69747320696E2043656C736975731A
:1014D0000A002020473231202020203B0048617242
:1014E00064636F6465642044656661756C74205341
:1014F000657474696E6773204C6F616465640A007B
:10150000DC050000DC050000DC0500001027000001
:101510000000FA420000FA420000C0400000C8414A
:101520000000A0420000A0420080FC440000C14234
:10153000290A002062797465733B2063726320007E
:101540002073746F7265642073657474696E677359
:1015500020726574726965766564202800202863AE
:10156000616C63756C6174656429210A0020213DFA
:101570002000454550524F4D20435243206D697322
:101580006D61746368202D202873746F72656429FF
:1015900020002053697A653A2000496E6465783AE4
:1015A0002000204D61726C696E3D563535290A0068
:1015B00028454550524F4D3D00454550524F4D2016
:1015C00076657273696F6E206D69736D617463689F
:1015D0002000290A002062797465733B20637263DE
:1015E000200053657474696E67732053746F72655D
:1015F00064202800454550524F4D2064617461734A
:10160000697A65206572726F722E0A004572726F78
:10161000722077726974696E6720746F2045455037
:10162000524F4D210A006F70656E00545249474772
:1016300045524544003A20007A5F6D696E00795F3B
:101640006D617800785F6D696E005265706F7274BD
:10165000696E6720656E6473746F70207374617453
:1016600075730A00456E6473746F70732025632070
:10167000256320256320256300205A3A0020593A2B
:101680000020583A00656E6473746F707320686947
:10169000743A2000486F6D696E67206661696C65F9
:1016A0006400556E6B6E6F776E20636F6D6D616E4B
:1016B000643A20220020746F6F206C6F6E67206583
:1016C0007874727573696F6E2070726576656E746A
:1016D00065640A0020636F6C6420657874727573AA
:1016E000696F6E2070726576656E7465640A00FFBE
:1016F000FDFCFAF8F6F4F2F0EEECEAE9E7E5E3E1F6
:10170000E0DEDCDAD9D7D5D4D2D0CFCDCBCAC8C7AA
:10171000C5C3C2C0BFBDBCBAB9B7B6B4B3B2B0AF2F
:10172000ADACAAA9A8A6A5A4A2A1A09E9D9C9A9989
:10173000989795949392908F8E8D8B8A89888786BF
:1017400084838281807F7E7D7B7A797877767574D9
:10175000737271706F6E6D6C6B6A696867666564D1
:10176000636261605F5E5D5C5B5A595858575655BD
:101770005453525150504F4E4D4C4B4A4A49484792
:101780004646454443424241403F3E3E3D3C3B3B52
:101790003A39383837363535343332323130302F04
:1017A0002E2E2D2C2B2B2A292928272726252524A8
:1017B000232322212120201F1E1E1D1C1C1B1B1A3F
:1017C00019191818171616151514131312121111CA
:1017D000100F0F0E0E0D0D0C0C0B0A0A090908084C
:1017E00007070606050504040303020201000000C2
:1017F0000000010000000100008000555555000068
:1018000000400033333300AAAA2A00499224000082
:10181000002000C7711C0099991900D14517005587
:101820005515003BB113002449120011111100009D
:101830000010000F0F0F00E3380E0043790D00CCAD
:10184000CC0C00C3300C00E8A20B0064210B00AAF2
:10185000AA0A00703D0A009DD80900427B09009247
:10186000240900DCD3080088880800104208000022
:10187000000800F0C1070087870700755007007156
:101880001C07003EEB0600A1BC060069900600663E
:10189000660600703E06006118060017F405007425
:1018A000D105005BB00500B29005006272050055DD
:1018B00055050078390500B81E0500050505004EE0
:1018C000EC040087D40400A1BD040090A7040049E3
:1018D000920400C17D0400EE690400C75604004470
:1018E0004404005C3204000821040041100400009C
:1018F0000004003FF00300F8E0030026D20300C319
:10190000C30300CCB503003AA803000A9B030038C8
:101910008E0300C08103009F750300D0690300504F
:101920005E03001D53030034480300913D03003360
:1019300033030016290300381F03009715030030F6
:101940000C0300030303000BFA020049F10200BA82
:10195000E802005CE002002DD802002DD002005900
:10196000C80200B0C0020031B90200DAB10200AA18
:10197000AA0200A0A30200BC9C0200FA9502005C2F
:101980008F0200DF88020082820200457C0200276D
:1019900076020027700200436A02007C640200D0D5
:1019A0005E02003F590200C85302006563686F3A47
:1019B000004572726F723A00205A3A0020593A007C
:1019C00020436F756E7420583A00232C0000B82213
:1019D0000000561800003A0F0000B8080000B104DB
:1019E0000000710200003E01000024F4D43050C316
:1019F0008E20C2A24017828B7011127A910D816CD9
:101A0000D90AA861E108C7586607615143061E4B11
:101A10005D05C145A7041A411104093D98037139B8
:101A200031034036DB0265339102D4305402802EFC
:101A30001D02632CEE01752AC501B028A0011027F4
:101A400081018F2564012B244B01E0223401AC215C
:101A50001F018D200D01801FFC00841EED00971DCD
:101A6000DF00B81CD200E61BC600201BBC00641AB5
:101A7000B200B219A8000A19A0006A189900D1177B
:101A8000910040178B00B516840031167E00B31507
:101A900079003A157300C7146F0058146A00EE13EA
:101AA00066008813630025135E00C7125B006C128A
:101AB000570015125400C111510070114F0021112F
:101AC0004B00D61049008D1047004610440002100C
:101AD0004200C00F4000800F3E00420F3C00060F46
:101AE0003B00CB0E3800930E37005C0E3500270EFE
:101AF0003400F30D3200C10D3100900D3000600D47
:101B00002E00320D2D00050D2C00D90C2B00AE0C33
:101B10002900850C29005C0C2700350C27000E0CD1
:101B20002600E80B2400C40B2400A00B23007D0B2F
:101B300023005A0B2100390B2100180B2000F80A52
:101B40001F00D90A1E00BB0A1E009D0A1D00800A44
:101B50001D00630A1C00470A1B002C0A1B00110A07
:101B60001A00F7091A00DD091900C4091900AB09A8
:101B70001900920917007B091800630917004C0926
:101B8000160036091600200916000A091500F50886
:101B90001500E0081400CC081400B8081400A408CC
:101BA0001400900813007D0812006B0813005808F9
:101BB0001200460812003408110023081100120810
:101BC000110001081100F0071000E0071000D00715
:101BD0001000C0071000B0070F00A1071000910708
:101BE0000E0083070F0074070F0065070E005707EC
:101BF0000E0049070E003B070D002E070E002007C0
:101C00000D0013070D0006070D00F9060C00ED0688
:101C10000D00E0060C00D4060C00C8060C00BC0643
:101C20000C00B0060C00A4060B0099060C008D06F3
:101C30000B0082060B0077060B006C060B0061069A
:101C40000A0057060B004C060A0042060A00380636
:101C50000A002E060A0024060A001A060A001006C8
:101C6000090007060A00FD050900F4050900EB0557
:101C70000900E2050900D9050900D0050900C705DA
:101C80000900BE050900B5050800AD050800A50559
:101C900009009C050800940508008C0508008405CF
:101CA00008007C050800740508006C050700650540
:101CB00008005D050700560508004E0507004705AA
:101CC00007004005080038050700310507002A0510
:101CD0000700230507001C050600160507000F0571
:101CE00007000805060002050700FB040600F504CE
:101CF0000700EE040600E8040600E2040700DB0427
:101D00000600D5040600CF040600C9040600C3047B
:101D10000600BD040600B7040600B1040500AC04CB
:101D20000600A6040600A00405009B040600950416
:101D30000500900406008A0405008504050080045F
:101D400006007A04050075040500700405006B04A4
:101D5000050066040500610405005C0405005704E5
:101D60000500520405004D04050048040500430425
:101D700005003E0404003A04050035040500300463
:101D800004002C04050027040400230405001E049D
:101D900004001A04040016040500110404000D04D4
:101DA0000400090405000404040000040400FC030A
:101DB0000400F8030400F4030400F0030400EC033F
:101DC0000400E8030400E4030400E0030400DC036F
:101DD0000400D8030400D4030400D0030400CC039F
:101DE0000400C8030300C503030024F404D9201B26
:101DF000C40C5C0E9804C4095F0265077101F40508
:101E0000F900FB04B30048048700C10369005803CC
:101E1000550003034500BE023A008402310053021C
:101E20002A002902250004022000E4011C00C80148
:101E30001900AF011700980114008401130071010B
:101E400010006101100051010E0043010D00360128
:101E50000B002B010B0020010B00150109000C01E8
:101E6000090003010800FB000800F3000800EB0074
:101E70000700E4000600DE000600D8000600D200DD
:101E80000600CC000500C7000500C2000500BD002B
:101E90000400B9000400B5000400B1000400AD0066
:101EA0000400A9000400A5000300A20003009F0095
:101EB00004009B00030098000300950002009300BB
:101EC0000300900003008D0002008B0003008800D7
:101ED00002008600020084000300810002007F00EF
:101EE00002007D0002007B00020079000200770002
:101EF000010076000200740002007200010071000F
:101F000002006F0002006D0001006C0002006A0018
:101F10000100690002006700010066000100650021
:101F20000100640002006200010061000100600025
:101F300001005F0002005D0001005C0001005B0029
:101F400001005A000100590001005800010057002B
:101F5000010056000100550001005400010053002B
:101F60000000530001005200010051000100500028
:101F700001004F0001004E0000004E0001004D0026
:101F800001004C0001004B0000004B0001004A0022
:101F9000010049000100480000004800010047001E
:101FA0000100460000004600010045000000450019
:101FB0000100440001004300000043000100420012
:101FC000000042000100410000004100010040000B
:101FD00001003F0000003F0001003E0000003E0005
:101FE00001003D0000003D0001003C0000003C00FD
:101FF00000003C0001003B0000003B0001003A00F3
:1020000000003A00010039000000390001003800EA
:1020100000003800000038000100370000003700E1
:1020200001003600000036000000360001003500D7
:1020300000003500000035000100340000003400CD
:1020400000003400010033000000330000003300C2
:1020500001003200000032000000320001003100B7
:1020600000003100000031000100300000003000AD
:102070000000300001002F0000002F0000002F00A2
:1020800000002F0001002E0000002E0000002E0096
:1020900001002D0000002D0000002D0000002D008B
:1020A00001002C0000002C0000002C0000002C007F
:1020B00001002B0000002B0000002B0000002B0073
:1020C00001002A0000002A0000002A0000002A0067
:1020D000010029000000290000002900000029005B
:1020E000000029000100280000002800000028004E
:1020F0000000280000002800010027000000270041
:102100000000270000002700000027000100260033
:102110000000260000002600000026000000260027
:10212000010025000000250000002500000025001A
:10213000000025000000250001002400000024000C
:1021400000002400000024000000240001002300FF
:1021500000002300000023000000230000002300F3
:1021600000002300000023000100220000002200E4
:1021700000002200000022000000220000002200D7
:1021800001002100000021000000210000002100CA
:1021900000002100000021000000210001002000BB
:1021A00000002000000020000000200000002000AF
:1021B00000002000000020000000200001001F009F
:1021C00000001F0000001F0000001F0000001F0093
:1021D00000001F0000001F0001001E0000001E0084
:1021E00000001E0000001E0000002042403A0020B7
:1021F000403A00202F00546865726D616C20527562
:102200006E6177617900453120544845524D414C0B
:102210002052554E415741590042454420544845AB
:10222000524D414C2052554E41574159004B494C5B
:102230004C45442E2000202D20496E76616C696447
:10224000206578747275646572206E756D62657252
:1022500020210A0048656174696E67206661696CB7
:102260006564004265642068656174696E67206614
:1022700061696C65640048656174696E67206661B8
:10228000696C65640045312048656174696E67203A
:102290006661696C6564004D494E54454D5020742B
:1022A0007269676765726564004531204572723AEC
:1022B000204D494E54454D50004572723A204D49CB
:1022C0004E54454D5020424544004D415854454DD3
:1022D00050207472696767657265640045312045F6
:1022E00072723A204D415854454D50004572723A31
:1022F000204D415854454D5020424544006265648C
:102300000A002C2073797374656D2073746F70707C
:10231000656421204865617465725F49443A200014
:102320002CFFFFFFFFFF000101010101236465662F
:10233000696E652044454641554C545F4B6420000E
:1023400023646566696E652044454641554C545F7B
:102350004B69200023646566696E652044454641EB
:10236000554C545F4B702000504944204175746FA8
:1023700074756E652066696E6973686564212050A6
:10238000757420746865206C617374204B702C2008
:102390004B6920616E64204B6420636F6E737461BF
:1023A0006E74732066726F6D2062656C6F77206942
:1023B0006E746F20436F6E66696775726174696FC2
:1023C0006E2E680A00504944204175746F74756E12
:1023D00065206661696C6564212074696D656F753F
:1023E000740A00546865726D616C2052756E617775
:1023F000617900453120544845524D414C20525599
:102400004E415741590048656174696E67206661A5
:10241000696C65640045312048656174696E6720A8
:102420006661696C656400504944204175746F743D
:10243000756E65206661696C6564212054656D70F8
:102440006572617475726520746F6F206869676862
:102450000A00204B643A2000204B693A2000204BB0
:10246000703A20000A20436C6173736963205049FD
:1024700044200A002054753A2000204B753A200071
:10248000206D61783A2000206D696E3A200020644A
:102490003A200020626961733A200050494420418B
:1024A00075746F74756E652073746172740A005070
:1024B0004944204175746F74756E65206661696C5E
:1024C0006564212042616420657874727564657268
:1024D000206E756D6265720A001000C90210012C31
:1024E000014001220170011801B0010E01F0010448
:1024F000015002FA00B002F0003003E600D003DC25
:10250000009004D2007005C800A006BE000008B408
:1025100000B009AA00D00BA000600E960060118CDC
:10252000000015820020197800C01D6E00A02264F2
:1025300000B0275A00902C500000314600E0343C97
:102540000010383200903A2800603C1E00A03D1474
:1025500000803E0A00203F000070012C01900127FE
:1025600001B0012201C0011D01F001180110021388
:102570000130020E016002090190020401C002FF55
:10258000000003FA004003F5008003F000D003EBE5
:10259000002004E6007004E100E004DC004005D700
:1025A00000C005D2004006CD00D006C8008007C399
:1025B000003008BE00F008B900C009B400B00AAF8E
:1025C00000B00BAA00D00CA500000EA000500F9B7D
:1025D00000C01096005012910000148C00C01587A6
:1025E00000B0178200B0197D00D01B7800001E7368
:1025F0000040206E0090226900F024640040275FB4
:102600000090295A00E02B5500102E500020304B2E
:102610000010324600E033410090353C001037375F
:102620000070383200A0392D00B03A2800A03B23BA
:1026300000603C1E00103D1900903D1400103E0F3C
:1026400000703E0A00C03E0500003F0000403FFB16
:10265000FF803FF6FFC03FF1FF46696C2E204469C2
:10266000612E0046696C2E204469612E0045206968
:102670006E206D6D33004F6666004F6E2000416422
:1026800076616E6365204B00416476616E63652000
:102690004B00436F6E74726F6C0050726F626520F6
:1026A0005A204F666673657400436F6E74726F6C68
:1026B000005049442D44005049442D4400504944A1
:1026C0002D49005049442D49005049442D50005097
:1026D00049442D50002002204661637400200220EE
:1026E00046616374002002204D6178002002204D75
:1026F0006178002002204D696E002002204D696E35
:10270000004175746F74656D70004F6666004F6EA2
:10271000200046616E2073706565640046616E201E
:1027200073706565640042656400426564004E6FC5
:102730007A7A6C65004E6F7A7A6C6500436F6E74BE
:10274000726F6C00526573746F7265206661696C9C
:1027500073616665004C6F61642073657474696EA3
:1027600067730053746F72652073657474696E6764
:10277000730046696C616D656E74004D6F74696FAE
:102780006E0054656D7065726174757265004D619F
:10279000696E004578747275646572004D6F766578
:1027A000205A004D6F76652059004D6F7665205890
:1027B0000050726570617265004D6F766520302E35
:1027C000316D6D004D6F766520316D6D004D6F760A
:1027D000652031306D6D004D6F76652061786973CD
:1027E000004578747275646572004D6F7665205A85
:1027F000004D6F76652059004D6F76652058004575
:1028000078747275646572004D6F7665205A004D5C
:102810006F76652059004D6F7665205800507265BF
:102820006865617420414253005072656865617447
:1028300020504C4100436F6F6C646F776E004469A9
:102840007361626C65207374657070657273004D9E
:10285000383400426564204C6576656C696E6700AB
:102860004175746F20686F6D6500473238004D6F99
:1028700076652061786973004D61696E0053746FED
:1028800072652073657474696E6773004C6F616460
:102890002073657474696E67730050726F6265208F
:1028A0005A204F666673657400426564204C6576F5
:1028B000656C696E67004F6666004F6E20004C6560
:1028C00076656C20626564004732380A4732390009
:1028D000473239004175746F20686F6D650047326B
:1028E000380050726570617265005072656865618C
:1028F00074204142532042656400507265686561EE
:10290000742041425320456E6400507265686561D1
:1029100074204142530050726570617265005072BC
:10292000656865617420504C4120426564005072B6
:10293000656865617420504C4120456E640050729A
:10294000656865617420504C410050726570617219
:10295000650050726F6265205A204F666673657419
:1029600000466C6F7700466C6F770046616E20738F
:10297000706565640046616E207370656564004231
:10298000656400426564004E6F7A7A6C65004E6F34
:102990007A7A6C6500537065656400537065656490
:1029A000004D61696E00436F6E74726F6C005072FF
:1029B00065706172650054756E6500437573746F60
:1029C0006D20436F6D6D616E647300496E666F209C
:1029D00073637265656E00486F6D65202620496ED1
:1029E000666F0048656174204265642F486F6D65AD
:1029F0002F4C6576656C0050726568656174206661
:102A00006F722041425300507265686561742066A0
:102A10006F7220504C4100486F6D65202620554252
:102A20004C20496E666F004D61696E004732380A6E
:102A30004D3530330A4D313137205573657220538F
:102A4000637269707420446F6E65004D31343020BC
:102A5000533131300A4732380A4732390A4D313161
:102A60003720557365722053637269707420446F08
:102A70006E65004D31343020533131300A4D3130E4
:102A80003420533234300A4D31313720557365725A
:102A90002053637269707420446F6E65004D313449
:102AA00030205337300A4D31303420533138300A1A
:102AB0004D313137205573657220536372697074DC
:102AC00020446F6E65004732380A47323920570A72
:102AD0004D313137205573657220536372697074BC
:102AE00020446F6E65003344205072696E746572C5
:102AF0002052656164792E005072696E74696E6748
:102B00002E2E2E005072696E74207061757365648C
:102B10000025753A2530327500253032753A25305A
:102B200032750020202020002020202020200004BA
:102B30000E1F041C000000000E1315110E00001CD7
:102B400010181705060500040A0A0A0A11110E0CCE
:102B500012120C00000000001F1511151F0000507C
:102B6000726F6265205A204F666673657400506C00
:102B700065617365207265736574005052494E54E7
:102B800045522048414C544544000129022904295A
:102B900008291029202940298029012C022C0126EE
:102BA0000226042608261026202640268026402CB1
:102BB000802C0123022304230823102320234023F5
:102BC0008023012002200420082010202020402003
:102BD0008020102C202C012F022F042F082F102FC3
:102BE000202F402F802F7EFE7EFD7EFB7EF77EEF26
:102BF0007EDF7EBF7E7F00010000A72C1200020056
:102C000000642C4300030000602C04010309044607
:102C10002C18020309042E2C1603030904202C0C83
:102C20000C0331003200330034003500000016037D
:102C300055005300420020005300650072006900F7
:102C400061006C00000018035400650065006E0010
:102C5000730079006400750069006E006F00000069
:102C60000403090409024300020100C03209040000
:102C700000010202010005240010010524010001E9
:102C8000042402060524060001070582030800400B
:102C900009040100020A00000007050302400000C9
:102CA000070584024000001201000202000020C05B
:102CB0001683047202010203010001C10201803681
:102CC000018136004F678F8281AA8BDD58671124FE
:102CD0001FBECFEFD0E2DEBFCDBF12E0A0E0B1E07B
:102CE000ECE0F4ED01E00BBF02C007900D92AE38AE
:102CF000B107D9F72EE0AEE8B2E001C01D92AF39BE
:102D0000B207E1F716E1C6E6D6E104C02197FE015D
:102D10000E9413DEC236D107C9F70E941AD50C945F
:102D2000F9E90C9400004F925F926F927F928F921C
:102D30009F92AF92BF92CF92DF92EF92FF92CF938A
:102D40004B015C0169017A0120E030E040EA51E486
:102D50000E943BDE2B013C012FE632E143E85AEBB7
:102D60000E9418E187FD48C023E830E048EC52E4B7
:102D7000C301B2010E9415DF18160CF43DC02FE606
:102D800032E143E85AEBC701B6010E9418E187FD22
:102D900033C023E830E048EC52E4C701B6010E949A
:102DA00015DF18164CF124EF3DEF4FE951E4C50152
:102DB000B4010E9418E187FD1FC023E830E044EB16
:102DC00052E4C501B4010E9415DF1816ACF027EEDD
:102DD0003BEF4FE151E4C701B6010E9418E187FDC6
:102DE0000BC0C1E023E830E044EB52E4C701B60178
:102DF0000E9415DF18160CF4C0E08C2FCF91FF90C5
:102E0000EF90DF90CF90BF90AF909F908F907F908A
:102E10006F905F904F900895FB0101900020E9F7BB
:102E20003197AF01461B570BDC01ED91FC910280FD
:102E3000F381E02D09940C94EDD3CF93DF931F928F
:102E4000CDB7DEB76983DC01ED91FC910280F3819F
:102E5000E02D41E050E0BE016F5F7F4F09950F907C
:102E6000DF91CF910895FF920F931F93CF93DF933C
:102E7000F82E092F162FE7EFF4E06491EF01219669
:102E8000662329F081E99EE0D8DFFE01F6CFEF2D21
:102E9000F02F6491EF012196662329F081E99EE0ED
:102EA000CCDFFE01F6CFE5EFF4E06491EF0121966F
:102EB000662329F081E99EE0C0DFFE01F6CF412FB5
:102EC00050E060E070E081E99EE00E94E0D36AE0BB
:102ED00081E99EE0DF91CF911F910F91FF90ADCFDF
:102EE0000FB6F8948091860E9091870EA091880E6F
:102EF000B091890E0FBE80930D0390930E03A093A3
:102F00000F03B093100308954F925F926F927F92D8
:102F1000AF92BF92CF92DF92EF92FF92CF93DF9367
:102F2000EB01FC0160817181828193812CE3C22ECF
:102F3000D12CE12CF12CA70196010E94D5DDB62EF3
:102F4000A72ECA01B901A70196010E94D5DD6B0128
:102F50007C01CA01B90128E130E040E050E00E9464
:102F6000D5DD2B013C01C9016DE671E00E94AEDDAB
:102F700061157105D9F0AF92BF92DF92CF925F9247
:102F80004F929F938F937F936F938EEA97E09F93D7
:102F90008F93DF93CF930E94DFE68DB79EB70E9697
:102FA0000FB6F8949EBF0FBE8DBF61C00097C9F0E9
:102FB000AF92BF92DF92CF925F924F929F938F9387
:102FC0008EE997E09F938F93DF93CF930E94DFE684
:102FD000EDB7FEB73C960FB6F894FEBF0FBEEDBF3F
:102FE00046C04114510461047104B9F0AF92BF921C
:102FF000DF92CF925F924F9282E997E09F938F93F7
:10300000DF93CF930E94DFE68DB79EB70A960FB687
:10301000F8949EBF0FBE8DBF2AC0C114D104E10435
:10302000F104A9F0AF92BF92DF92CF928AE897E0C5
:103030009F938F93DF93CF930E94DFE6EDB7FEB7A8
:1030400038960FB6F894FEBF0FBEEDBF10C0AF921A
:10305000BF9286E897E09F938F93DF93CF930E9470
:10306000DFE60F900F900F900F900F900F90DF9171
:10307000CF91FF90EF90DF90CF90BF90AF907F9077
:103080006F905F904F90089581548A3108F040C04E
:10309000A82FB0E040913D0550913E0560913F055D
:1030A0007091400504C076956795579547958A9528
:1030B000D2F740FF2DC0E0914805F0914905AD5D84
:1030C000BA4F8C918823E1F0E80FF11D808190EDDB
:1030D000980F9A3080F08E3229F4818180538A30A3
:1030E00078F409C08D3211F08B3251F4818190ED6A
:1030F000980F9A3018F49E2F8F2F04C08E3251F003
:1031000090E080E0909344058093450581E0089528
:1031100080E00895828180538A3090F7ECCFB4DF4D
:10312000882341F081E02091440530914505232B0F
:1031300009F480E008950F931F93CF938091440585
:1031400090914505009711F1FC018F01C1912C2F41
:103150002F7DA9F0C53411F0C536B9F7F8011082FA
:1031600060E070E080914405909145050E9472E214
:10317000F801C083562F472F382F292F0BC060E04E
:1031800070E0CF911F910F910C9472E250E040E0FB
:1031900030E020E0652F742F832F922FCF911F9165
:1031A0000F9108958091440590914505009731F065
:1031B0004AE050E060E070E00C94D8E360E070E03A
:1031C000CB0108958091440590914505009731F019
:1031D0004AE050E060E070E00C9400E560E070E0F0
:1031E000CB010895DFDF97FD0AC0DCDF6F3F71057B
:1031F0008105910509F02CF4D5DF862F089580E034
:1032000008958FEF08958091440590914505892B8D
:1032100031F0E8DF91E0811103C090E001C091E05E
:10322000892F08954F925F926F927F928F929F9213
:10323000AF92BF92CF92DF92EF92FF920F931F93C4
:10324000CF93DF9300D000D0CDB7DEB74B012983F9
:103250003A834B835C8327013801FC0164918C0124
:103260000F5F1F4F662329F081E99EE0E6DDC8016C
:10327000F4CF68E281E99EE0E0DD22E030E04981C0
:103280005A816B817C8181E99EE0D5DDB301A20189
:1032900083EF91E10E941083B601A50180EF91E1D7
:1032A0000E94108369E281E99EE0C7DD81149104E8
:1032B00069F0F40164914F018FEF881A980A662330
:1032C000E9F081E99EE0B9DDF401F4CF6AE081E93B
:1032D0009EE00F900F900F900F90DF91CF911F9174
:1032E0000F91FF90EF90DF90CF90BF90AF909F90A5
:1032F0008F907F906F905F904F909FCD0F900F9029
:103300000F900F90DF91CF911F910F91FF90EF9051
:10331000DF90CF90BF90AF909F908F907F906F90F5
:103320005F904F900895AF92BF92CF92DF92EF924D
:10333000FF920F931F93FA01A084B184C284D384B7
:10334000E480F5800681178120813181428153819B
:1033500069DF1F910F91FF90EF90DF90CF90BF90AA
:10336000AF9008950F931F93CF93DF93CDB7DEB740
:103370002C970FB6F894DEBF0FBECDBF809102052B
:1033800085FF07C042EF54E069ED71E185EC91E102
:10339000CADF8091FA049091FB04A091FC04B091E3
:1033A000FD044091F6045091F7046091F804709187
:1033B000F9040091F2041091F3042091F404309187
:1033C000F50409871A872B873C874D835E836F83BB
:1033D000788789839A83AB83BC83AE014F5F5F4F4D
:1033E000BE016B5F7F4FCE0109960E949E712EEF4A
:1033F00034E0AE014F5F5F4FBE016B5F7F4FCE0188
:1034000009960E943F802C960FB6F894DEBF0FBE3F
:10341000CDBFDF91CF911F910F9108952F923F92D1
:103420004F925F926F927F928F929F92AF92BF92D4
:10343000CF92DF92EF92FF920F931F93CF93DF9380
:10344000CDB7DEB764970FB6F894DEBF0FBECDBF21
:103450001A012B01702E812E690190910205A82E70
:10346000B12C95FF4EC0F501E55CFD4F608181E315
:103470009BE00E94BB82B201A1018EE29BE00E9410
:103480001083EBE2FBE064918F010F5F1F4F662317
:1034900029F081E99EE0D1DCF801F5CF20E030E0B1
:1034A000A901672D782DC6010E9415DF882349F0F8
:1034B00022E030E0472D582DB60181E99EE0BBDCCB
:1034C00013C0F501EE0FFF1FEE0FFF1FEB5CFD4E6B
:1034D000459155916591749189E29BE00E9410831A
:1034E0006DE581E99EE0A9DCE6E2FBE064918F01F5
:1034F0000F5F1F4F662329F081E99EE09EDCF801F3
:10350000F5CFF501EA50FE4EE491992493941E16EE
:103510000CF4912C6624639420E030E0A901C201F0
:10352000B1010E9418E118160CF0612C8501000F02
:10353000111F000F111FC8018E509B4F7C01FC0111
:1035400010821182128213820DDFF70120823182F4
:1035500042825382E090160320E030E0A901672DFB
:10356000782DC6010E9415DF811108C0F801EB5CBF
:10357000FD4E85919591A591B49103C0872D982D0D
:10358000D601898B9A8BAB8BBC8B8091FA0490917E
:10359000FB04A091FC04B091FD044091F60450910D
:1035A000F7046091F8047091F9040091F20410910D
:1035B000F3042091F4043091F5040D871E872F87C2
:1035C000388B49875A876B877C878D839E83AF832F
:1035D000B88719821A821B821C82AE014B5F5F4F33
:1035E000BE01675F7F4FCE010D960E949E71CE0196
:1035F00001966C018E010F5E1F4F2EEF34E0AE017D
:103600004B5F5F4FBE01675F7F4F0C960E945D7FEF
:103610000E943A7396100E9457658091020585FFBB
:1036200010C0F501E55CFD4F608182E19BE00E94E6
:10363000BB8269E281E99EE000DC6AE081E99EE00C
:10364000FCDB64960FB6F894DEBF0FBECDBFDF91F2
:10365000CF911F910F91FF90EF90DF90CF90BF908F
:10366000AF909F908F907F906F905F904F903F9022
:103670002F9008956EEF74E083E00C946581CF93F2
:10368000DF9300D0CDB7DEB72091830E3091840E4A
:10369000CE0101962115310529F48F599E409A8358
:1036A000898304C0821B930B9A83898389819A81C1
:1036B0000F900F90DF91CF910895FF920F931F937A
:1036C000CF93DF93FC0120812B3319F1D091D704E4
:1036D000D430F8F4F62EBC01C091D5040C2F10E0C4
:1036E000F0E6CF9FC00111248B5A9C4F0E94B0E698
:1036F000F801EC50FD4FF082CF5FC43018F4C09356
:10370000D50402C01092D504DF5FD093D70481E0C6
:1037100001C080E0DF91CF911F910F91FF9008953C
:10372000EF92FF921F93CF93DF937C0160E0C5DFA0
:10373000182F8823C9F0EBEAF9E16491EF01219693
:10374000662329F081E99EE078DBFE01F6CFB70120
:1037500088EB91E10E94938262E281E99EE06DDB59
:103760006AE081E99EE069DB812FDF91CF911F91B3
:10377000FF90EF900895DF92EF92FF920F931F93C7
:10378000CF93DF93CDB7DEB76E970FB6F894DEBF59
:103790000FBECDBF60915303709154036115710545
:1037A00041F14DE150E0CE0101967C010E945FE6BF
:1037B0001E8EF7018F010E191F09D190DD2019F01F
:1037C0009AE0D912F7CFF701E00FF11F1082C7017D
:1037D000A7DF882371F0DD20A9F00F5F1F4F8091D4
:1037E000530390915403080F191F1093540300932F
:1037F000530381E02091530330915403232B29F488
:1038000080E003C000E010E0F0CF6E960FB6F894B1
:10381000DEBF0FBECDBFDF91CF911F910F91FF9003
:10382000EF90DF9008959093540380935303A3CFB8
:10383000EF92FF920F931F93CF93DF937C0184E568
:103840006EDCD82F882369F1CDDCC82F18162CF533
:10385000EBEAF9E164918F010F5F1F4F662329F0B6
:1038600081E99EE0EADAF801F5CF6DE481E99EE0B6
:10387000E4DAA70160E070E020E081E99EE00E94C8
:1038800084D36C2FCC0F770B8AE990E10E94D3820E
:103890006AE081E99EE0D1DA08C080930803D0E0B5
:1038A00004C080911603809308038D2FDF91CF9180
:1038B0001F910F91FF90EF900895AF92BF92CF921A
:1038C000DF92EF92FF920F931F93CF93DF93082F16
:1038D00010E0E801CC0FDD1FCC0FDD1F9E012B5D3A
:1038E0003C4F7901CE018F5C9C4F5C01FE01E35C93
:1038F000FC4F6F012081318142815381FC01608145
:103900007181828193810E943CDEF7016083718323
:1039100082839383FE01E75DFD4E85919591A5918C
:10392000B4919E01275E3C4F7901F9018083918318
:10393000A283B383FE01E35EFD4E85919591A5912F
:10394000B491C15FDE4F88839983AA83BB83809142
:10395000020585FF39C0F801E55CFD4F608185E90E
:1039600090E10E94BB82F5014081518162817381A7
:103970008EE790E10E941083F601408151816281BF
:1039800073818AE690E10E941083F70140815181A2
:103990006281738184E590E10E941083488159819E
:1039A0006A817B818EE390E10E9410836AE081E965
:1039B0009EE0DF91CF911F910F91FF90EF90DF90EC
:1039C000CF90BF90AF9039CADF91CF911F910F91E7
:1039D000FF90EF90DF90CF90BF90AF900895CF927F
:1039E000DF92EF920F931F93CF93DF93CDB7DEB7A4
:1039F00060970FB6F894DEBF0FBECDBFE090160300
:103A0000E2EFF4E080859185A285B38544815581FC
:103A10006681778100811181228133810D871E8724
:103A20002F87388B49875A876B877C878D839E8346
:103A3000AF83B88719821A821B821C82AE014B5F4A
:103A40005F4FBE01675F7F4FCE010D960E949E7152
:103A5000CE0101966C010DE111E02EEF34E0AE01D4
:103A60004B5F5F4FBE01675F7F4F0C960E945D7F8B
:103A700060960FB6F894DEBF0FBECDBFDF91CF9139
:103A80001F910F91EF90DF90CF9008952F923F926A
:103A90004F925F926F927F928F929F92AF92BF925E
:103AA000CF92DF92EF92FF920F931F93CF93DF930A
:103AB000CDB7DEB760970FB6F894DEBF0FBECDBFAF
:103AC00069837A838B839C832D833E834F835887BE
:103AD00027013801160180911D0190911E01A091CE
:103AE0001F01B091200189879A87AB87BC8780919D
:103AF000020585FF39C020912D0330912E0340919E
:103B00002F0350913003C801B7010E943CDE5B01D6
:103B10006C012091290330912A0340912B0350918D
:103B20002C036D817E818F8198850E943CDE6D879C
:103B30007E878F87988B20912503309126034091B3
:103B400027035091280369817A818B819C810E948F
:103B50003CDE9B01AC01ED84FE840F85188960E09A
:103B600070E086E290E15EDBD1018D909D90AD909A
:103B7000BC9020E030E0A901C501B4010E9415DF2E
:103B8000811106C0EDE3F2E185909590A590B49087
:103B9000A30192016091FA047091FB048091FC04EE
:103BA0009091FD040E9415DF87FF11C080921D01D6
:103BB00090921E01A0921F01B09220014092FA043F
:103BC0005092FB046092FC047092FD0408DFF10146
:103BD000C080D180E280F38020E030E0A901C701FD
:103BE000B6010E9415DF811108C0C0900501D09078
:103BF0000601E0900701F0900801C0921D01D092EB
:103C00001E01E0921F01F092200189819A81AB810F
:103C1000BC818093F2049093F304A093F404B093D6
:103C2000F5048D819E81AF81B8858093F6049093D1
:103C3000F704A093F804B093F904D1DEA301920134
:103C40006091FA047091FB048091FC049091FD0452
:103C50000E9418E118168CF480921D0190921E01AA
:103C6000A0921F01B09220014092FA045092FB04EE
:103C70006092FC047092FD04B2DE0E943A73898562
:103C80009A85AB85BC8580931D0190931E01A093FE
:103C90001F01B09320018091020585FF0EC0EDE069
:103CA000F0E164917F019FEFE91AF90A662329F098
:103CB00081E99EE0C2D8F701F4CF60960FB6F89480
:103CC000DEBF0FBECDBFDF91CF911F910F91FF904F
:103CD000EF90DF90CF90BF90AF909F908F907F90AC
:103CE0006F905F904F903F902F900895CF92DF920A
:103CF000EF92FF920F931F936B01FC01E080F18024
:103D000002811381E2EFF4E02481358146815781FD
:103D10006081718182819381B9DE1F910F91FF9043
:103D2000EF90DF90CF900895CF92DF92EF92FF92C5
:103D30000F931F936A01E090FA04F090FB04009146
:103D4000FC041091FD04FB012081318142815381EB
:103D5000FC01608171818281938198DE1F910F91B6
:103D6000FF90EF90DF90CF9008958091020585FF3E
:103D700007C042EF54E069EE7FE085ED9FE0D3DAC3
:103D800080911D0190911E01A0911F01B091200111
:103D900080934F0390935003A0935103B093520329
:103DA00080911B0190911C0190934E0380934D03D1
:103DB00084E690E090931C0180931B01089580910C
:103DC000020585FF07C042EF54E06CEA7FE088E916
:103DD0009FE0A9DA80914F0390915003A091510385
:103DE000B091520380931D0190931E01A0931F0177
:103DF000B093200180914D0390914E0390931C014C
:103E000080931B010895EF92FF921F93CF93DF934E
:103E1000882329F0D091E104D095D17001C0D0E081
:103E2000662341F01091E10411FB882780F911E02D
:103E3000182701C010E0442341F0C091E104C2FB07
:103E4000882780F9C1E0C82701C0C0E0D11105C0B2
:103E5000111103C0CC2309F48CC0EBEAF9E16491A1
:103E60007F018FEFE81AF80A662331F081E99EE0BE
:103E70000E941D17F701F3CFE2E9FFE064917F0193
:103E80009FEFE91AF90A662331F081E99EE00E946A
:103E90001D17F701F3CFDD2379F0E0E9FFE064912E
:103EA0007F018FEFE81AF80A662331F081E99EE07E
:103EB0000E941D17F701F3CF112379F0EEE8FFE020
:103EC00064917F019FEFE91AF90A662331F081E9D5
:103ED0009EE00E941D17F701F3CFC11103C0E4E873
:103EE000FFE00FC0ECE8FFE064917F018FEFE81A7C
:103EF000F80A6623A1F381E99EE00E941D17F701ED
:103F0000F3CF64917F019FEFE91AF90A662331F03C
:103F100081E99EE00E941D17F701F3CFC11103C094
:103F200047E252E002C04EED51E0111103C027E21A
:103F300032E002C020EE31E0D11103C087E292E00E
:103F400002C082EE91E05F934F933F932F939F9334
:103F50008F9382E79FE09F938F931F920E941CA8EC
:103F60008DB79EB709960FB6F8949EBF0FBE8DBF52
:103F7000C1E08C2FDF91CF911F91FF90EF900895BA
:103F80008F929F92AF92BF92CF92DF92EF92FF9269
:103F9000CF93DF93CDB7DEB728970FB6F894DEBF87
:103FA0000FBECDBF6B017C018091020585FF10C063
:103FB000B701A6018EE29FE00E94108369E281E9C9
:103FC0009EE00E941D176AE081E99EE00E941D1795
:103FD000CD82DE82EF82F886809004039090050304
:103FE000A0900603B090070320E030E0A901C501CE
:103FF000B4010E9415DF87FF0AC0A5019401C70123
:10400000B6010E943BDE6D837E838F83988720E01C
:1040100030E043E053E46D817E818F8198850E947A
:1040200018E1181644F480E090E0A3E0B3E48D8337
:104030009E83AF83B8872091FA043091FB044091AE
:10404000FC045091FD046D817E818F8198850E94D2
:1040500018E1181654F419821A821B821C82BE01C0
:104060006F5F7F4FCE01059641DE28960FB6F8941C
:10407000DEBF0FBECDBFDF91CF91FF90EF90DF90FD
:10408000CF90BF90AF909F908F900895BF92CF92A6
:10409000DF92EF92FF920F931F93CF93DF9300D0A5
:1040A00000D0CDB7DEB7B82E8091020585FF12C0D3
:1040B00042EF54E06BE57FE087E49FE034D96B2D5D
:1040C00070E08EE39FE00E94D3826AE081E99EE087
:1040D0000E941D17809106058B1551F1BB2029F018
:1040E00060E070E080EA90E44BDF6091F204709150
:1040F000F3048091F4049091F5042091F60430913A
:10410000F7044091F8045091F90419821A821B8235
:104110001C82E090FA04F090FB040091FC041091E2
:10412000FD04FE0131966F01B1DC8B2D0E946265AA
:1041300080E00F900F900F900F90DF91CF911F9123
:104140000F91FF90EF90DF90CF90BF9008954F9226
:104150005F926F927F928F929F92AF92BF92CF9217
:10416000DF92EF92FF920F931F93CF93C82F80910E
:104170000205CC2ED12C85FF12C0F601E55CFD4F67
:10418000608184ED9BE00E94BB8269E281E99EE050
:104190000E941D176AE081E99EE00E941D17F6014A
:1041A000EA50FE4EB490C23021F481E06FDF8111FD
:1041B000D7C18091020585FF0FC0E6ECFBE064915A
:1041C0007F018FEFE81AF80A662331F081E99EE05B
:1041D0000E941D17F701F3CF7601EE0CFF1CEE0CC9
:1041E000FF1CF701EB5FFD4E459055906590749074
:1041F0006B2DBB0C770B880B990B0E94B7DF4B0123
:104200005C0120E030E040EC5FE3C301B2010E94BA
:1042100053E1A50194010E9453E1AB01BC0100E010
:1042200010E098018C2FFAD8C23041F0F701E75026
:10423000FE4E259135914591549104C020E030E027
:1042400040E450E4C501B4010E9453E14B015C011C
:1042500020E030E0A9010E9415DF882309F483C023
:104260008091020585FF0FC0EAEBFBE064913F01FE
:104270008FEF681A780A662331F081E99EE00E9488
:104280001D17F301F3CFC23021F000E010E09801D8
:1042900004C000E010E020E830E4B501A40170584B
:1042A0008C2FBCD88091020585FF0FC0ECEAFBE0A3
:1042B00064913F018FEF681A780A662331F081E933
:1042C0009EE00E941D17F301F3CFC23009F43AC0FB
:1042D000F601E959F44F649161111FC0EBEAF9E16D
:1042E00064913F018FEF681A780A662331F081E903
:1042F0009EE00E941D17F301F3CFE5E4FBE064911B
:104300003F018FEF681A780A662331F081E99EE059
:104310000E941D17F301F3CF6AE0F701EB5CFD4E3D
:10432000459055906590749070E080E090E00E9418
:10433000B7DF9B01AC01C301B2010E941CDF2B015E
:104340003C0105C0412C512C612C80E4782EA50144
:104350009401C501B4010E943CDEAB01BC01930194
:1043600082018C2F5BD88091020585FF12C0F60177
:10437000E55CFD4F608189EF9AE00E94BB8269E2B3
:1043800081E99EE00E941D176AE081E99EE00E949B
:104390001D1781E090E00C2E01C0880F0A94EAF707
:1043A0009091E004982B9093E0049091E104892B84
:1043B0008093E104F701E35CFC4F108211821282CA
:1043C00013828C2F7ADAF701EF5EFD4E859195917D
:1043D000A591B491F701EE50FB4F80839183A283A6
:1043E000B383C23009F03EC020910403309105032D
:1043F00040910603509107036091FA047091FB0409
:104400008091FC049091FD040E943BDE6093FA04CD
:104410007093FB048093FC049093FD04809102054B
:1044200085FF20C0E8EBFAE064915F018FEFA81AE6
:10443000B80A662331F081E99EE00E941D17F5015C
:10444000F3CF4091040350910503609106037091EE
:10445000070384EA9AE00E9410836AE081E99EE003
:104460000E941D178091020585FF30C0F601E55CB2
:10447000FD4FB0806B2D85E99AE00E94BB82F70169
:10448000EF5CFC4F408151816281738180E99AE049
:104490000E9410836AE081E99EE00E941D1742EFAE
:1044A00054E06BE87AE087E79AE00E9493196B2D5D
:1044B0008EE59AE00E94BB8269E281E99EE00E945B
:1044C0001D176AE081E99EE00E941D170E94B21943
:1044D000D701AE51BB4FF701EE50FB4F40815181E8
:1044E000628173814D935D936D937C93139780915B
:1044F000020585FF33C042EF54E06CE87BE088E7BB
:104500009BE00E949319C23021F480E0BFDD81114D
:1045100027C08091020585FF23C0F601E55CFD4FB1
:1045200060818AE69BE00E94BB8269E281E99EE0AD
:104530000E941D176AE081E99EE0CF911F910F91C3
:10454000FF90EF90DF90CF90BF90AF909F908F90B3
:104550007F906F905F904F900C941D17C230A9F21E
:10456000CF911F910F91FF90EF90DF90CF90BF9070
:10457000AF909F908F907F906F905F904F90089535
:1045800081E00895AF92BF92CF92DF92EF92FF92B7
:104590000F931F93CF93DF938BE3A82E82E0B82E67
:1045A00092EEE92E94E0F92E02EF14E025E2C22EFD
:1045B00023E0D22EC0E0D0E0F50181915F010E949E
:1045C0004418882321F10E949B18FE01E75BFC4FF1
:1045D0002081211104C020911503222341F0F8010C
:1045E00020813181428153810E943CDE0AC0C33068
:1045F000D10539F0F60120813181428153810E9439
:104600003BDEF70160837183828393830AC0F801E4
:1046100080819181A281B381F70180839183A283FC
:10462000B3832196F4E0EF0EF11C0C5F1F4F84E082
:10463000C80ED11CC430D10509F0BECF86E40E945B
:104640008F188823C9F00E949B1820E030E0A90150
:104650000E9418E1181684F40E949B1820E030E0B4
:1046600040E752E40E941CDF60931D0170931E011D
:1046700080931F0190932001DF91CF911F910F91A3
:10468000FF90EF90DF90CF90BF90AF900895CF92C2
:10469000DF92EF92FF920F931F93CF93DF930FB6AA
:1046A000F894C090860ED090870EE090880EF0901F
:1046B000890E0FBE80911303811174C08091040193
:1046C000882309F46FC08091F302882309F46AC03B
:1046D0004091EF025091F0026091F1027091F2026C
:1046E00097018601041B150B260B370B37FD6DC098
:1046F000833031F134F481300CF454C0EBEAF9E149
:1047000006C0843009F04EC0EBEAF9E133C0649191
:10471000EF012196662331F081E99EE00E941D178A
:10472000FE01F5CFEDE4FDE06491EF0121966623F3
:1047300009F438C081E99EE00E941D17FE01F4CF04
:10474000EBEAF9E16491EF012196662331F081E90A
:104750009EE00E941D17FE01F5CFE6E3FDE06491A7
:10476000EF0121966623F1F081E99EE00E941D177A
:10477000FE01F5CF6491EF012196662331F081E9C6
:104780009EE00E941D17FE01F5CFEEE1FDE0649171
:10479000EF012196662331F081E99EE00E941D170A
:1047A000FE01F5CF2091040130E0A8EEB3E00E94B5
:1047B0001CDEC60ED71EE81EF91EC092EF02D09274
:1047C000F002E092F102F092F202DF91CF911F919C
:1047D0000F91FF90EF90DF90CF9008954F925F92EE
:1047E0006F927F928F929F92AF92BF92CF92DF9201
:1047F000EF92FF92CF93DF93EFE0FDE06491EF0142
:104800002196662331F081E99EE00E941D17FE018A
:10481000F5CFE4E0FDE06491EF012196662331F0ED
:1048200081E99EE00E941D17FE01F5CFECEFFCE050
:104830006491EF012196662331F081E99EE00E94A8
:104840001D17FE01F5CFE9EEFCE06491EF01219622
:10485000662331F081E99EE00E941D17FE01F5CF2D
:1048600064E170E089ED9CE00E94D38260E070E03A
:1048700085ED9CE00E94D382409104035091050392
:10488000609106037091070381ED9CE00E94108304
:10489000E9ECFCE06491EF012196662331F081E9B7
:1048A0009EE00E941D17FE01F5CFE1ECFCE0649153
:1048B000EF012196662331F081E99EE00E941D17E9
:1048C000FE01F5CFC0900403D0900503E0900603ED
:1048D000F090070320E030E0A901C701B6010E9473
:1048E00015DF87FF10C0E8EBFCE06491EF01219633
:1048F000611103C0E8E9FCE029C081E99EE00E9463
:104900001D17FE01F2CF20E030E0A901C701B6017A
:104910000E9418E118166CF4EFEAFCE06491EF01D4
:104920002196662339F381E99EE00E941D17FE015E
:10493000F5CFE2EAFCE06491EF0121966623D1F223
:1049400081E99EE00E941D17FE01F5CF6491EF0101
:104950002196662331F081E99EE00E941D17FE0139
:10496000F5CFE4E8FCE06491EF012196662331F095
:1049700081E99EE00E941D17FE01F5CFEDE7FCE006
:104980006491EF012196662331F081E99EE00E9457
:104990001D17FE01F5CF8091B905882309F4A4C045
:1049A000E1E7FCE06491EF012196662331F081E9B3
:1049B0009EE00E941D17FE01F5CF80E00E94267345
:1049C0002091F2043091F3044091F4045091F504E5
:1049D0000E943BDE2B013C0181E00E942673209166
:1049E000F6043091F7044091F8045091F9040E94C4
:1049F0003BDE4B015C0182E00E9426732091FA04A9
:104A00003091FB044091FC045091FD040E943BDE78
:104A10006B017C01E0E6FCE06491EF0121966623E6
:104A200031F081E99EE00E941D17FE01F5CF20E0E4
:104A300030E0A901C301B2010E9418E118162CF45C
:104A40006BE281E99EE00E941D1722E030E0B30195
:104A5000A20181E99EE00E941B17EDE5FCE0649154
:104A6000EF012196662331F081E99EE00E941D1737
:104A7000FE01F5CF20E030E0A901C501B4010E949C
:104A800018E118162CF46BE281E99EE00E941D17D4
:104A900022E030E0B501A40181E99EE00E941B17ED
:104AA000EAE5FCE06491EF012196662331F081E9AB
:104AB0009EE00E941D17FE01F5CF20E030E0A90125
:104AC000C701B6010E9418E118162CF46BE281E9C7
:104AD0009EE00E941D1722E030E0B701A60181E9A7
:104AE0009EE00E941B170DC0EDE4FCE06491EF0115
:104AF0002196662331F081E99EE00E941D17FE0198
:104B0000F5CF6AE081E99EE0DF91CF91FF90EF90D1
:104B1000DF90CF90BF90AF909F908F907F906F90DD
:104B20005F904F900C941D170F931F93CF93DF93BB
:104B300000D000D0CDB7DEB78091E0048370833021
:104B400011F160E080E59AE00E94D2A7EBEAF9E17A
:104B500064918F010F5F1F4F662331F081E99EE062
:104B60000E941D17F801F4CFE1E4FAE064918F018F
:104B70000F5F1F4F662309F46EC081E99EE00E941B
:104B80001D17F801F3CF8091020585FF0EC0EEE2FC
:104B9000FAE064918F010F5F1F4F662331F081E9C6
:104BA0009EE00E941D17F801F4CF0E94B21980E028
:104BB00090E0A8E4B2E48093E6049093E704A09325
:104BC000E804B093E9048091FA049091FB04A09169
:104BD000FC04B091FD048093EA049093EB04A0934D
:104BE000EC04B093ED0480E090E0A0EFB1E480939A
:104BF000E2049093E304A093E404B093E50480916D
:104C0000020585FF08C042EE54E06CE17AE08DE0D9
:104C10009AE00E94931919821A821B821C82AE01AB
:104C20004F5F5F4F66EE74E082EE94E07DD882E0E5
:104C30008EDA8091020585FF0EC0EAEFF9E06491FB
:104C40008F010F5F1F4F662331F081E99EE00E94C4
:104C50001D17F801F4CF0F900F900F900F90DF9178
:104C6000CF911F910F9108950F931F93CF93DF93CF
:104C7000CDB7DEB769970FB6F894DEBF0FBECDBFD4
:104C80000E945F916E8B7F8B888F998FBE016F5FC3
:104C90007F4FCE0146960E94841760E0CE010196B8
:104CA0000E94ABA7EBEAF9E164918F010F5F1F4F00
:104CB000662331F081E99EE00E941D17F801F4CFD0
:104CC000BE016F5F7F4F82EC97E00E9493826AE0A3
:104CD00081E99EE00E941D1769960FB6F894DEBF29
:104CE0000FBECDBFDF91CF911F910F910895CF934C
:104CF000DF93E1EBF9E16491EF012196662331F056
:104D000081E99EE00E941D17FE01F5CFEAE4F7E07D
:104D10006491EF012196662331F081E99EE00E94C3
:104D20001D17FE01F5CFDF91CF91089588E690E041
:104D30000E94181C811124C08091020583FD20C0AF
:104D400083E50E948F188823C9F00E949B180E9457
:104D500084DF7093CA0D6093C90D80E00E94BD95F9
:104D60000E949B1820E030E04AEA52E40E9415DFDE
:104D7000181624F00E9408910E940CA80C945F82DF
:104D80000895CF93DF9389E690E00E94181C81116B
:104D900016C0E1EFF6E06491EF012196662331F051
:104DA00081E99EE00E941D17FE01F5CF0E94629BE3
:104DB0006AE081E99EE0DF91CF910C941D17DF91AD
:104DC000CF910895CF92DF92EF92FF9283E50E94F8
:104DD0008F18882321F10E94F2188D3308F08CE39C
:104DE0008093610D0FB6F894C090860ED090870E18
:104DF000E090880EF090890E0FBE282F30E0A8EECC
:104E0000B3E00E941CDEC60ED71EE81EF91EC0923B
:104E10005D0DD0925E0DE0925F0DF092600DFF90FF
:104E2000EF90DF90CF90089580E50E948F18811158
:104E300006C083E50E948F18882359F005C00E94A0
:104E4000F21881110CC0F5CF0E94D2186F3F710586
:104E500010F06FEF70E070931803609317030895DC
:104E60008091020583FD14C083E50E948F1888237A
:104E700079F00E949B180E9484DF6639710514F056
:104E800066E970E07093C20D6093C10D0C940F96AB
:104E90000895DF92EF92FF920F931F93CF93DF93CA
:104EA00083E50E944418882359F083E50E948F18F7
:104EB000882319F00E94F21801C080E08093020557
:104EC000EBEAF9E16491EF012196662331F081E983
:104ED0009EE00E941D17FE01F5CFE3E4F7E0649128
:104EE000EF012196662331F081E99EE00E941D17B3
:104EF000FE01F5CF809102058823A9F187E3E82E12
:104F000087E0F82E00E010E020E08091020590E0BC
:104F1000002E02C0959587950A94E2F780FF1AC08B
:104F2000DD24D394D20E222329F06CE281E99EE0A5
:104F30000E941D17F70185919491FC016491EC0189
:104F40002196662331F081E99EE00E941D17CE0173
:104F5000F4CF2D2D0F5F1F4FF2E0EF0EF11C063046
:104F6000110599F60DC0E3E3F7E06491EF01219696
:104F7000662331F081E99EE00E941D17FE01F5CF06
:104F80006AE081E99EE0DF91CF911F910F91FF9040
:104F9000EF90DF900C941D17CF93DF9383E50E9471
:104FA0008F18882351F00E94F2188D3308F08CE39B
:104FB00080930401DF91CF910895EBEAF9E16491C8
:104FC000EF012196662331F081E99EE00E941D17D2
:104FD000FE01F5CF4091040150E060E070E084EF05
:104FE00096E00E9431836AE081E99EE0DF91CF91F3
:104FF0000C941D17CF93DF9383E50E948F188823AD
:1050000021F00E94D218EB0102C0C0E0D0E0DD2701
:10501000C230D105DCF0E1EBF9E16491EF012196BA
:10502000662331F081E99EE00E941D17FE01F5CF55
:10503000EFECF4E06491EF012196662309F452C08D
:1050400081E99EE00E941D17FE01F4CF88E40E94D2
:105050008F188823A9F00E94D2186A3A71053CF093
:10506000653081E078072CF064E071E002C06AEA04
:1050700070E0FE01EE0FFF1FEC5BF14F7183608368
:1050800086E40E948F188823A9F00E94D218FE019E
:10509000EE0FFF1FE45CF14F718360836F3F71057A
:1050A00019F014F06FEF70E077FF02C060E070E07D
:1050B0007183608382E40E948F18882399F00E9494
:1050C000D2186530710534F0683871052CF067E846
:1050D00070E002C065E070E0CC0FDD1FC05CD14F16
:1050E00079836883DF91CF9108954F925F926F9299
:1050F0007F92AF92BF92CF92DF92EF92FF920F9387
:105100001F93CF938BE3A82E82E0B82E06EF15E015
:10511000C0E0F50181915F010E944418882309F4E1
:105120006DC0C33009F063C00E949B186B017C0105
:1051300020E030E040EA51E40E9415DF87FF4EC0D6
:10514000A701960160910206709103068091040602
:10515000909105060E941CDF2B013C019B01AC01D4
:105160006091CE057091CF058091D0059091D105C9
:105170000E9453E16093CE057093CF058093D005D4
:105180009093D105A30192016091120670911306CC
:1051900080911406909115060E9453E160931206C7
:1051A000709313068093140690931506609126065B
:1051B0007091270680912806909129060E94B5DFFC
:1051C000A30192010E9453E10E9489DF60932606A9
:1051D000709327068093280690932906C0920206B2
:1051E000D0920306E0920406F092050607C00E94E2
:1051F0009B18F8016083718382839383CF5F0C5F78
:105200001F4FC43009F085CFCF911F910F91FF90B0
:10521000EF90DF90CF90BF90AF907F906F905F90B6
:105220004F900C943B820F931F93CF93DF93C2EF69
:10523000D4E005E213E0F8012081318142815381FD
:10524000688179818A819B810E943CDEAB01BC012F
:1052500081EF99E00E941083F80124813581468115
:1052600057816C817D818E819F810E943CDEAB01E4
:10527000BC018DEE99E00E941083F80120853185F4
:1052800042855385688579858A859B850E943CDEA9
:10529000AB01BC0189EE99E00E9410834C855D85CD
:1052A0006E857F8585EE99E00E941083DF91CF9116
:1052B0001F910F910C9466904F925F926F927F9224
:1052C0008F929F92AF92BF92CF92DF92EF92FF9216
:1052D0000F931F93CF93DF938BE3C82E82E0D82EDA
:1052E0009DE3E92E93E0F92E00E010E0C0E0D0E06D
:1052F000F60181916F010E948F18882309F44DC037
:105300000E949B184B015C01C33059F0F801EB5D22
:10531000FC4F20813181428153810E943BDE4B0151
:105320005C01F801EE50FB4F2081318142815381B5
:10533000C501B4010E943BDE2B013C012DEB37E39C
:1053400046E855EB0E9418E187FD0AC02DEB37E3D4
:1053500046E855E3C301B2010E9415DF1816ECF4CC
:10536000C33051F48092FE049092FF04A092000595
:10537000B0920105D1E011C0A3019201F701608153
:105380007181828193810E943CDEF7016083718389
:10539000828393838C2F0E945D1CCF5FF4E0EF0E1D
:1053A000F11C0C5F1F4FC43009F0A2CFD1110E9435
:1053B0003A1BDF91CF911F910F91FF90EF90DF90FB
:1053C000CF90BF90AF909F908F907F906F905F90A5
:1053D0004F9029CFCF93DF93EBEDF5E06491EF0190
:1053E0002196662331F081E99EE00E941D17FE019F
:1053F000F5CF60E08BEC95E00E94331761E084EC20
:1054000095E00E94331761E089EB95E00E94331725
:1054100061E089EA95E00E94331760E080EA95E058
:105420000E94331761E086E995E00E94331761E03E
:105430008CE895E00E94331761E084E895E00E94D3
:10544000331761E086E795E00E94331760E088E655
:1054500095E00E94331760E089E595E00E943317DC
:1054600060E08BE495E00E94331760E085E395E00F
:105470000E94331760E084E295E00E94331760E0F9
:105480008FE095E00E94331761E08CEF94E0DF91AC
:10549000CF910C943317FF920F931F93CF93DF9309
:1054A000C0914605D091470583E0F12C40E0815042
:1054B000D1F09881292F2B7F2134C9F729812133FD
:1054C000B1F7913421F0953421F441E002C0FF247A
:1054D000F3949E012E5F3F4FE9012F5F3F4F98816C
:1054E0009032D1F3E4CF442371F0EBEAF9E1649117
:1054F0008F010F5F1F4F662331F081E99EE00E940C
:105500001D17F801F4CFFF2071F0E1EFF4E0649192
:105510008F010F5F1F4F662331F081E99EE00E94EB
:105520001D17F801F4CFBE0181E99EE00E940C171F
:105530006AE081E99EE0DF91CF911F910F91FF908A
:105540000C941D17EF92FF920F931F93CF93DF934D
:1055500000D000D01F92CDB7DEB780E50E9444187E
:10556000882351F08091440590914505892B51F095
:105570000E94F218182F07C08DE095E00E94D9D044
:10558000182F01C01FEF87E50E944418882351F0AF
:105590008091440590914505892B31F00E94F218C5
:1055A000082F03C000E001C00FEF82E40E944418FE
:1055B000882351F08091440590914505892B31F065
:1055C0000E94F218F82E04C0F12C02C0FF24FA94B5
:1055D00085E50E944418882351F0809144059091FC
:1055E0004505892B31F00E94F218E82E04C0E12C09
:1055F00002C0EE24EA9482E50E944418882349F010
:105600008091440590914505892B29F00E94F2185C
:1056100003C080E001C08FEF8983EA82FB820C83A4
:105620001D8360E0CE0101960E9484660F900F906A
:105630000F900F900F90DF91CF911F910F91FF90DE
:10564000EF900895CF9388EC90E00E94181C811190
:1056500040C084E40E9444188823C1F10E949B1832
:10566000C1E020E030E0A9010E9415DF811101C0F6
:10567000C0E0C0934A05CC2349F10E949B18E091F9
:10568000080324E0E29FF0011124E254FA4F608302
:1056900071838283938320E030E0A9016091BE058D
:1056A0007091BF058091C0059091C1050E9415DFE2
:1056B00081110CC080E090E0A0EEBFE38093BE05B6
:1056C0009093BF05A093C005B093C105CF910C94F2
:1056D0003971CF910895CF9383E50E948F18882365
:1056E000A1F00E949B186093DE057093DF05809304
:1056F000E0059093E1056093D6057093D7058093FC
:10570000D8059093D905C0E001C0C1E080E50E94B2
:105710008F18882359F00E949B186093DE057093C0
:10572000DF058093E0059093E105C0E082E50E94EB
:105730008F18882359F00E949B186093DA057093A4
:10574000DB058093DC059093DD05C0E084E50E94D5
:105750008F18882359F00E949B186093D605709388
:10576000D7058093D8059093D9052CC0CC2351F14F
:105770004091DE055091DF056091E0057091E105F3
:105780008FEB94E00E9410834091DA055091DB0585
:105790006091DC057091DD058CEB94E00E94108334
:1057A0004091D6055091D7056091D8057091D905E3
:1057B00089EB94E00E9410836AE081E99EE0CF913A
:1057C0000C941D17CF91089581E50E9444188823F9
:1057D00051F00E94E21860931606709317068093AA
:1057E00018069093190683E50E944418882351F007
:1057F0000E949B186093E2057093E3058093E40593
:105800009093E50584E50E944418882351F00E9496
:105810009B186093D2057093D3058093D405909321
:10582000D50588E50E944418882351F00E949B18F2
:105830006093C2057093C3058093C4059093C5051A
:1058400089E50E944418882351F00E949B186093B8
:10585000C6057093C7058093C8059093C9058AE56E
:105860000E944418882351F00E949B186093CA0537
:105870007093CB058093CC059093CD0585E40E9471
:105880004418882351F00E949B186093CE057093B2
:10589000CF058093D0059093D1050895EF92FF92A4
:1058A0000F931F93CF938BE3E82E82E0F82E01E352
:1058B00013E0C0E0F70181917F010E944418882322
:1058C00051F00E949B18F801608371838283938357
:1058D0008C2F0E945D1CCF5F0C5F1F4FC33051F7B0
:1058E000CF911F910F91FF90EF909DCCCF93DF93BD
:1058F000EBEAF9E16491EF012196662331F081E949
:105900009EE00E941D17FE01F5CF83E50E9444181A
:10591000882321F00E94031980930E01EDE6F4E044
:105920006491EF012196662331F081E99EE00E94A7
:105930001D17FE01F5CF80910E01811103C0E5E630
:10594000F4E002C0E9E6F4E06491EF0121966623F9
:1059500031F081E99EE00E941D17FE01F5CFEDE5D3
:10596000F4E06491EF012196662331F081E99EE035
:105970000E941D17FE01F5CF2091250330912603CB
:1059800040912703509128036091190370911A03E5
:1059900080911B0390911C030E943CDEAB01BC0173
:1059A0008BE594E00E9410832091290330912A0313
:1059B00040912B0350912C0360911D0370911E03A5
:1059C00080911F03909120030E943CDEAB01BC013B
:1059D00088E594E00E94108320912D0330912E03DE
:1059E00040912F0350913003609121037091220365
:1059F00080912303909124030E943CDEAB01BC0103
:105A000085E594E00E941083EDE4F4E06491EF01F9
:105A10002196662331F081E99EE00E941D17FE0168
:105A2000F5CF209125033091260340912703509113
:105A3000280360910F0170911001809111019091E4
:105A400012010E943CDEAB01BC018BE494E00E9499
:105A500010832091290330912A0340912B03509108
:105A60002C036091130170911401809115019091A4
:105A700016010E943CDEAB01BC0188E494E00E9468
:105A8000108320912D0330912E0340912F035091CC
:105A90003003609117017091180180911901909164
:105AA0001A010E943CDEAB01BC0185E494E00E9437
:105AB00010836AE081E99EE0DF91CF910C941D177D
:105AC0000F931F93CF93DF938DED90E00E94181CEE
:105AD000811170C083E50E948F188823B9F1C091AD
