:100000000C94A3120C94CD120C94CD120C94CD121E
:100010000C94CD120C94CD120C94CD120C94CD12E4
:100020000C94CD120C94CD120C9440B10C94BDB133
:100030000C94CD120C94CD120C94CD120C94CD12C4
:100040000C94CD120C94528B0C94CD120C94CD12B6
:100050000C94CD120C94CD120C9460A20C949FB011
:100060000C94CD120C94CD120C94CD120C94CD1294
:100070000C94CD120C94CD120C94CD120C94CD1284
:100080000C94CD120C94CD120C94CD120C94CD1274
:100090000C941EAB0C94CD12B122CA22D922D422C8
:1000A000CF22C522B622BB22C0229625E0250626F5
:1000B000F925EC25D225A225B225C22505AE31AE03
:1000C00053AE53AE53AE53AE53AE53AE53AE53AE28
:1000D00053AE53AE53AE53AE49AE41AE39AE53AE4E
:1000E00053AE53AE53AE53AE53AE53AE2BAE11AE72
:1000F00019AE23AE084AD73B3BCE016E84BCBFFD90
:10010000C12F3D6C74319ABD56833DDA3D00C77FE7
:1001100011BED9E4BB4C3E916BAAAABE0000008080
:100120003F05A84CCDB2D44EB93836A9020C50B90F
:10013000918688083CA6AAAA2ABE000000803F003B
:100140002020506C616E6E65724275666665724203
:10015000797465733A20002046726565204D656D9F
:100160006F72793A2000436F6D70696C65643A2054
:100170004A616E20313720323031390A00207C202C
:10018000417574686F723A202844722E5068696C09
:100190003344290A00323031382D30382D303100C7
:1001A000204C61737420557064617465643A20005A
:1001B000312E312E390A004D61726C696E00205368
:1001C0006F6674776172652052657365740A0020EA
:1001D0005761746368646F672052657365740A00C1
:1001E0002042726F776E206F75742052657365744C
:1001F0000A002045787465726E616C2052657365E3
:10020000740A00506F77657255700A0073746172DA
:10021000740A005072696E7465722068616C74654E
:10022000642E206B696C6C28292063616C6C65649A
:10023000210A004B494C4C45442E20004B494C4C64
:100240002063617573656420627920746F6F206D1F
:1002500075636820696E6163746976652074696D81
:1002600065202D2063757272656E7420636F6D6DED
:10027000616E643A200020746F6F206C6F6E67208F
:10028000657874727573696F6E2070726576656ECD
:100290007465640A0020636F6C64206578747275FD
:1002A00073696F6E2070726576656E7465640A009E
:1002B0006F6B00526573656E643A2000416476612D
:1002C0006E6365204B3D003F4B2076616C75652069
:1002D0006F7574206F662072616E67652028302DFF
:1002E0003130292E0A003A200050726F6265205A80
:1002F000204F6666736574003F5A206F7574206FD7
:10030000662072616E676520282D3520746F20325B
:1003100030290A00454550524F4D204F4B0A004DA1
:1003200065736820706F696E742063616E6E6F74A0
:10033000206265207265736F6C7665640A004D34C7
:10034000323120696E636F727265637420706172FE
:10035000616D657465722075736167650A004F662B
:10036000660A004661646520486569676874200014
:10037000426564204C6576656C696E672000466155
:10038000696C656420746F20656E61626C652042E3
:100390006564204C6576656C696E670A004E6F2057
:1003A00063617365206C696768740A0043290A00F9
:1003B00061626C656420286D696E2074656D7020C3
:1003C00000436F6C64206578747275646573206196
:1003D00072652000496E76616C696420657874727C
:1003E000756465720A0020643A0020693A00207042
:1003F0003A0050726F6265205A204F6666736574CA
:100400003A200020466C6F773A2000205A0020598D
:1004100000580020204D61783A2000205A002059D1
:1004200000580020204D696E3A20004F6666004F4C
:100430006E2000536F667420656E6473746F707302
:100440003A2000546F6F206661722066726F6D20D3
:100450007265666572656E636520706F696E740A99
:10046000005741524E494E4721204C6F77205A2069
:100470004A65726B206D6179206C65616420746FD0
:1004800020756E77616E7465642070617573657335
:100490002E0A00205400205200416363656C65728F
:1004A0006174696F6E3A2050002F2F20003A00438C
:1004B00061703A00544845524D414C5F50524F5480
:1004C000454354494F4E004155544F5245504F52A9
:1004D000545F53445F53544154555300454D455266
:1004E00047454E43595F5041525345520043415393
:1004F000455F4C494748545F4252494748544E452E
:10050000535300544F47474C455F4C494748545359
:1005100000534F4654574152455F504F5745520084
:100520004255494C445F50455243454E54004C455A
:1005300056454C494E475F44415441005A5F505222
:100540004F4245004155544F4C4556454C00505282
:10055000494E545F4A4F420050524F475245535301
:10056000004155544F5245504F52545F54454D50E1
:1005700000564F4C554D4554524943004545505245
:100580004F4D0053455249414C5F584F4E5F584FB5
:100590004646004649524D574152455F4E414D45F2
:1005A0003A4D61726C696E20312E312E3920284708
:1005B00069746875622920534F555243455F434F14
:1005C00044455F55524C3A68747470733A2F2F67E4
:1005D00069746875622E636F6D2F4D61726C696E00
:1005E0004669726D776172652F4D61726C696E201C
:1005F00050524F544F434F4C5F56455253494F4E04
:100600003A312E30204D414348494E455F545950B0
:10061000453A3344205072696E74657220455854CF
:1006200052554445525F434F554E543A312055552B
:1006300049443A63656465326132662D3431613212
:100640002D343734382D396231322D6335356336E8
:10065000326633363766660A0020573A0020573A2A
:10066000006F6B004D3131332053004B494C4C45EA
:10067000442E20004543484F00494E464F00455206
:10068000524F52530044525952554E00434F4D4D14
:10069000554E49434154494F4E006F6666007406FB
:1006A00079067E0685068C0644454255473A002069
:1006B000697320616C736F207469656420746F20A6
:1006C000746869732070696E0054494D4552304119
:1006D000000A202E00202000496E70757420203DF5
:1006E00020004F7574707574203D200050574D3AAE
:1006F00020202534640050574D3A202025346400D2
:1007000050574D3A20202534640050574D3A202050
:100710002534640050574D3A20202534640050574A
:100720004D3A20202534640050574D3A202025347E
:10073000640050574D3A20202534640050574D3AFC
:1007400020202534640020202000202020416E61DC
:100750006C6F6720696E203D20253564003C756E06
:10076000757365642F756E6B6E6F776E3E00202813
:100770004125326429202000257350494E3A202516
:1007800033642000416E616C6F6720696E203D20EC
:100790002535640070726F74656374656420002091
:1007A000284125326429202000257350494E3A20E3
:1007B0002533642000534552564F206E6F742073CA
:1007C000657475700A00446F6E652E0A0057617477
:1007D0006368696E672070696E730A0061626C6598
:1007E000640A0064697300656E00656E6473746FFB
:1007F00070206D6F6E69746F72200050726F746537
:10080000637465642050696E0A0000011C1D132F7B
:10081000FFFFFFFF1E1F12FF18FFFFFF2021112403
:10082000FFFFFFFFFFFFFF0E10FFFFFF22230DFF63
:10083000FFFF0E260F2C272569730025696D2025E3
:100840006973002569682025696D20256973002575
:100850006964202569682025696D20256973002554
:10086000697920256964202569682025696D20251E
:100870006973005072696E742074696D653A200066
:100880004D65736820706F696E742063616E6E6F62
:1008900074206265207265736F6C7665640A00204F
:1008A0005A3A200020593A200042656420583A20E4
:1008B0000042696C696E656172204C6576656C6991
:1008C0006E6720477269643A0A004731205A313016
:1008D0002046373030300A473120583020593020F8
:1008E000463730303000202844525952554E2900A6
:1008F000473239204175746F20426564204C65761B
:10090000656C696E67003F20284C2C522C462C42A7
:1009100029206F7574206F6620626F756E64732E68
:100920000A003F2856296572626F7365206C6576F0
:10093000656C20697320696D706C61757369626C98
:10094000652028302D34292E0A00426164205A2067
:1009500076616C75650A004E6F2062696C696E6520
:10096000617220677269640A0047322F4733206240
:10097000616420706172616D65746572730A00490B
:100980006E76616C69642065787472756465720A4C
:100990000041637469766520457874727564657288
:1009A0003A200020453A00205A3A0020593A00588F
:1009B0003A002020506F72743A20002020206F7679
:1009C0006572666C6F7720696E746572727570748B
:1009D00020656E61626C656400202020636F6D701D
:1009E00061726520696E7465727275707420656ECF
:1009F00061626C6564002020206E6F6E2D737461DF
:100A00006E646172642050574D206D6F6465003ACA
:100A100020002020202054494D534B00423A200012
:100A2000202020205443435200413A20002020201F
:100A30002054434352002020202043533A200020DA
:100A400020202057474D3A200050574D3A2020256E
:100A500034640050574D3A20202534640020202073
:100A60002054494D455200433A2000423A2000416B
:100A70003A200020202020434F4D002C20002C2025
:100A800000486F6D652058592066697273740A00BA
:100A90005761726E696E673A20486F6D696E6720A4
:100AA00042756D702044697669736F72203C203105
:100AB0000A00020204627573793A207061757365E9
:100AC0006420666F7220696E7075740A00627573B7
:100AD000793A2070617573656420666F7220757352
:100AE00065720A00627573793A2070726F6365737C
:100AF00073696E670A0050726F62696E6720666183
:100B0000696C65640A00205A3A200020593A200096
:100B100042656420583A20002066697273740A00A6
:100B20005A0059005800486F6D65200020496E76C4
:100B3000616C696420657874727564657220004B1D
:100B4000494C4C45442E20005072696E74657220E9
:100B500073746F707065642064756520746F2065B0
:100B600072726F72732E20466978207468652065F2
:100B700072726F7220616E6420757365204D393911
:100B80003920746F20726573746172742E2028543A
:100B9000656D706572617475726520697320726528
:100BA0007365742E205365742069742061667465C2
:100BB000722072657374617274696E67290A004EDF
:100BC0006F20436865636B73756D20776974682067
:100BD0006C696E65206E756D6265722C204C617358
:100BE00074204C696E653A2000636865636B7375A9
:100BF0006D206D69736D617463682C204C61737432
:100C0000204C696E653A20004C696E65204E756D0A
:100C1000626572206973206E6F74204C617374205A
:100C20004C696E65204E756D6265722B312C204CBF
:100C3000617374204C696E653A20004D313130008B
:100C4000656E7175657565696E67202200000048E4
:100C500000000088008A008C00B300B400000098F7
:100C6000009A009C00440045006E00800081006FE7
:100C700000B000B100700090009100710004040405
:100C80000404040404050503030303030303030529
:100C90000502020202020202020101010101010138
:100CA00001050506060606060606060505440F2884
:100CB00000390F27002E0F2800230F2900160F26BA
:100CC00000090F1701FC0E1601F00E1501E50E14B8
:100CD00001D50E2C01CA0E2301BC0E0D01B00E224F
:100CE00001A50E2501970E2A018B0E1901800E0316
:100CF00001720E2B01660E02015E0E1001510E0FE5
:100D000001440E2C01370E2D01280E0E011F0E1767
:100D100001160E16010E0E1501090E1401020E1415
:100D200001F80D1D01EB0D1301E10D2F01D60D1C76
:100D300001CB0D2F01C10D1F01B40D1201AA0D1819
:100D4000019F0D1E01940D18018A0D21017D0D11C9
:100D500001730D2401680D20015D0D24015A5F53BC
:100D6000544F505F50494E005A5F535445505F50A6
:100D7000494E005A5F4D494E5F50494E005A5F45FB
:100D80004E41424C455F50494E005A5F4449525FC4
:100D900050494E00595F53544F505F50494E0059CF
:100DA0005F535445505F50494E00595F4D41585F65
:100DB00050494E00595F454E41424C455F50494EA7
:100DC00000595F4449525F50494E00585F53544F99
:100DD000505F50494E00585F535445505F50494E44
:100DE00000585F4D494E5F50494E00585F454E4197
:100DF000424C455F50494E00585F4449525F50494C
:100E00004E0053535F50494E0053445353005343D5
:100E10004B5F50494E004D4F53495F50494E004D76
:100E200049534F5F50494E004845415445525F4237
:100E300045445F50494E004845415445525F325F3A
:100E400050494E004845415445525F315F50494E2C
:100E5000004845415445525F305F50494E0046417D
:100E60004E5F50494E0045325F535445505F5049E4
:100E70004E0045325F454E41424C455F50494E0061
:100E800045325F4449525F50494E0045315F5354EB
:100E900045505F50494E0045315F454E41424C45FB
:100EA0005F50494E0045315F4449525F50494E0002
:100EB00045305F535445505F50494E0045305F45C3
:100EC0004E41424C455F50494E0045305F444952C7
:100ED0005F50494E0045305F4155544F5F46414E8B
:100EE0005F50494E004156525F53535F50494E0088
:100EF0004156525F53434B5F50494E004156525F3B
:100F00004D4F53495F50494E004156525F4D495332
:100F10004F5F50494E0054454D505F4245445F502D
:100F2000494E0054454D505F325F50494E00544584
:100F30004D505F315F50494E0054454D505F305F1A
:100F400050494E0046494C57494454485F50494E19
:100F500000FF01FF0000A0400000A0400000004092
:100F60000000C8420000C842000003430000000027
:100F70000000C842000000000000C8420000C84253
:100F8000000003430000000000000000000000001B
:100F9000000048420000484200008040000000007D
:100FA0003A0A0020286D6D290020204D393030206C
:100FB0004B004C696E65617220416476616E6365B9
:100FC0003A0A0020204D383531205A005A2D5072EF
:100FD0006F6265204F666673657400204400204987
:100FE0000020204D3330312050005049442073659B
:100FF0007474696E67733A0A00205A00204A002010
:10100000204732392057204900205A0020204D34F3
:1010100032302053004175746F20426564204C6566
:1010200076656C696E673A0A00205A0020590020E4
:10103000204D323036205800486F6D65206F66664F
:101040007365743A0A00204500205A002059002098
:10105000580020540020530020204D3230352051BC
:101060000020453C6D61785F655F6A65726B3E008C
:1010700020583C6D61785F785F6A65726B3E2059DD
:101080003C6D61785F795F6A65726B3E205A3C6D9A
:1010900061785F7A5F6A65726B3E00416476616E6B
:1010A0006365643A20513C6D696E5F7365676D6579
:1010B0006E745F74696D655F75733E20533C6D6936
:1010C0006E5F66656564726174653E20543C6D694F
:1010D0006E5F74726176656C5F666565647261747B
:1010E000653E0020540020520020204D3230342034
:1010F0005000416363656C65726174696F6E20288E
:10110000756E6974732F7332293A20503C7072697E
:101110006E745F616363656C3E20523C72657472ED
:101120006163745F616363656C3E20543C747261FB
:1011300076656C5F616363656C3E0A002045002044
:101140005A0020590020204D3230312058004D6186
:1011500078696D756D20416363656C657261746952
:101160006F6E2028756E6974732F7332293A0A00E6
:10117000204500205A0020590020204D32303320D5
:1011800058004D6178696D756D20666565647261A2
:101190007465732028756E6974732F73293A0A0079
:1011A000204500205A0020590020204D3932205877
:1011B0000053746570732070657220756E69743A9F
:1011C0000A0020204D3230302044300A0020204DCB
:1011D0003230302044002044697361626C65640AD7
:1011E0000046696C616D656E742073657474696E18
:1011F00067733A002020473231202020203B0048EE
:10120000617264636F6465642044656661756C74C3
:101210002053657474696E6773204C6F61646564F4
:101220000A00D0070000D0070000D00700001027F8
:1012300000000000FA420000FA420000A040000056
:10124000C8410000A0420000A0420080FC44000011
:10125000C042290A002062797465733B206372637F
:1012600020002073746F7265642073657474696EF6
:101270006773207265747269657665642028002042
:101280002863616C63756C6174656429210A0020B0
:10129000213D2000454550524F4D20435243206D83
:1012A00069736D61746368202D202873746F726593
:1012B000642920002053697A653A2000496E6465EC
:1012C000783A2000204D61726C696E3D56353529A3
:1012D0000A0028454550524F4D3D00454550524F5C
:1012E0004D2076657273696F6E206D69736D6174E0
:1012F00063682000290A002062797465733B2063CB
:101300007263200053657474696E67732053746F41
:10131000726564202800454550524F4D2064617429
:101320006173697A65206572726F722E0A00457268
:10133000726F722077726974696E6720746F2045CE
:101340004550524F4D210A000A0A0020205A5F4D95
:10135000494E3A002020595F4D41583A002020580C
:101360005F4D494E3A006F70656E005452494747D1
:1013700045524544003A20007A5F6D696E00795FFE
:101380006D617800785F6D696E005265706F727480
:10139000696E6720656E6473746F70207374617416
:1013A00075730A00205A3A0020593A0020583A0032
:1013B000656E6473746F7073206869743A200048B6
:1013C0006F6D696E67206661696C656400556E6B50
:1013D0006E6F776E20636F6D6D616E643A202200D0
:1013E00020746F6F206C6F6E6720657874727573F0
:1013F000696F6E2070726576656E7465640A002090
:10140000636F6C6420657874727573696F6E207099
:10141000726576656E7465640A00FFFDFCFAF8F685
:10142000F4F2F0EEECEAE9E7E5E3E1E0DEDCDAD95C
:10143000D7D5D4D2D0CFCDCBCAC8C7C5C3C2C0BF01
:10144000BDBCBAB9B7B6B4B3B2B0AFADACAAA9A877
:10145000A6A5A4A2A1A09E9D9C9A999897959493C5
:1014600092908F8E8D8B8A898887868483828180F3
:101470007F7E7D7B7A797877767574737271706F01
:101480006E6D6C6B6A696867666564636261605FF4
:101490005E5D5C5B5A5958585756555453525150DB
:1014A000504F4E4D4C4B4A4A4948474646454443A7
:1014B000424241403F3E3E3D3C3B3B3A3938383763
:1014C000363535343332323130302F2E2E2D2C2B11
:1014D0002B2A2929282727262525242323222121B1
:1014E00020201F1E1E1D1C1C1B1B1A191918181743
:1014F0001616151514131312121111100F0F0E0ECC
:101500000D0D0C0C0B0A0A09090808070706060549
:1015100005040403030202010000000000010000B2
:101520000001000080005555550000004000333395
:101530003300AAAA2A004992240000002000C771A3
:101540001C0099991900D1451700555515003BB15C
:1015500013002449120011111100000010000F0F98
:101560000F00E3380E0043790D00CCCC0C00C330E3
:101570000C00E8A20B0064210B00AAAA0A00703D2F
:101580000A009DD80900427B090092240900DCD39F
:101590000800888808001042080000000800F0C118
:1015A00007008787070075500700711C07003EEB96
:1015B0000600A1BC06006990060066660600703E43
:1015C00006006118060017F4050074D105005BB031
:1015D0000500B29005006272050055550500783986
:1015E0000500B81E0500050505004EEC040087D473
:1015F0000400A1BD040090A7040049920400C17D2D
:101600000400EE690400C7560400444404005C3240
:1016100004000821040041100400000004003FF011
:101620000300F8E0030026D20300C3C30300CCB5D7
:1016300003003AA803000A9B0300388E0300C08110
:1016400003009F750300D0690300505E03001D5323
:10165000030034480300913D03003333030016298F
:101660000300381F030097150300300C0300030329
:1016700003000BFA020049F10200BAE802005CE044
:1016800002002DD802002DD0020059C80200B0C0BF
:10169000020031B90200DAB10200AAAA0200A0A336
:1016A0000200BC9C0200FA9502005C8F0200DF88F9
:1016B000020082820200457C020027760200277029
:1016C0000200436A02007C640200D05E02003F59BF
:1016D0000200C85302006563686F3A004572726F7A
:1016E000723A00205A3A0020593A0020436F756E32
:1016F0007420583A00232C0000B82200005618002D
:10170000003A0F0000B8080000B1040000710200A8
:10171000003E01000024F4D43050C38E20C2A24009
:1017200017828B7011127A910D816CD90AA861E130
:1017300008C7586607615143061E4B5D05C145A7A2
:10174000041A411104093D9803713931034036DB15
:101750000265339102D4305402802E1D02632CEEB8
:1017600001752AC501B028A001102781018F2564C9
:10177000012B244B01E0223401AC211F018D200DEF
:1017800001801FFC00841EED00971DDF00B81CD2F5
:1017900000E61BC600201BBC00641AB200B219A8E8
:1017A000000A19A0006A189900D117910040178B00
:1017B00000B516840031167E00B31579003A157312
:1017C00000C7146F0058146A00EE13660088136394
:1017D0000025135E00C7125B006C125700151254EF
:1017E00000C111510070114F0021114B00D610495A
:1017F000008D1047004610440002104200C00F4008
:1018000000800F3E00420F3C00060F3B00CB0E381D
:1018100000930E37005C0E3500270E3400F30D32B6
:1018200000C10D3100900D3000600D2E00320D2DE5
:1018300000050D2C00D90C2B00AE0C2900850C29BD
:10184000005C0C2700350C27000E0C2600E80B244A
:1018500000C40B2400A00B23007D0B23005A0B2196
:1018600000390B2100180B2000F80A1F00D90A1EAE
:1018700000BB0A1E009D0A1D00800A1D00630A1C91
:1018800000470A1B002C0A1B00110A1A00F7091A4C
:1018900000DD091900C4091900AB091900920917E4
:1018A000007B091800630917004C09160036091659
:1018B00000200916000A091500F5081500E00814B3
:1018C00000CC081400B8081400A4081400900813F1
:1018D000007D0812006B0813005808120046081219
:1018E000003408110023081100120811000108112A
:1018F00000F0071000E0071000D0071000C007102C
:1019000000B0070F00A107100091070E0083070F1A
:101910000074070F0065070E0057070E0049070EF9
:10192000003B070D002E070E0020070D0013070DCA
:101930000006070D00F9060C00ED060D00E0060C90
:1019400000D4060C00C8060C00BC060C00B0060C47
:1019500000A4060B0099060C008D060B0082060BF6
:101960000077060B006C060B0061060A0057060B99
:10197000004C060A0042060A0038060A002E060A33
:101980000024060A001A060A001006090007060AC3
:1019900000FD050900F4050900EB050900E2050951
:1019A00000D9050900D0050900C7050900BE0509D1
:1019B00000B5050800AD050800A50509009C05084F
:1019C00000940508008C050800840508007C0508C3
:1019D00000740508006C050700650508005D050733
:1019E00000560508004E050700470507004005089A
:1019F0000038050700310507002A05070023050701
:101A0000001C050600160507000F0507000805065F
:101A10000002050700FB040600F5040700EE0406BB
:101A200000E8040600E2040700DB040600D5040613
:101A300000CF040600C9040600C3040600BD040666
:101A400000B7040600B1040500AC040600A60406B5
:101A500000A00405009B0406009504050090040600
:101A6000008A04050085040500800406007A040548
:101A70000075040500700405006B0405006604058C
:101A800000610405005C04050057040500520405CC
:101A9000004D04050048040500430405003E04040D
:101AA000003A04050035040500300404002C040548
:101AB0000027040400230405001E0404001A040483
:101AC0000016040500110404000D040400090405B7
:101AD000000404040000040400FC030400F80304F0
:101AE00000F4030400F0030400EC030400E8030422
:101AF00000E4030400E0030400DC030400D8030452
:101B000000D4030400D0030400CC030400C8030382
:101B100000C503030024F404D9201BC40C5C0E98F8
:101B200004C4095F0265077101F405F900FB04B301
:101B30000048048700C103690058035500030345AA
:101B400000BE023A008402310053022A0029022515
:101B50000004022000E4011C00C8011900AF0117B5
:101B6000009801140084011300710110006101103C
:101B70000051010E0043010D0036010B002B010B3B
:101B80000020010B00150109000C010900030108E8
:101B900000FB000800F3000800EB000700E400066B
:101BA00000DE000600D8000600D2000600CC0005CA
:101BB00000C7000500C2000500BD000400B9000414
:101BC00000B5000400B1000400AD000400A9000449
:101BD00000A5000300A20003009F0004009B000377
:101BE000009800030095000200930003009000039A
:101BF000008D0002008B00030088000200860002B6
:101C00000084000300810002007F0002007D0002CA
:101C1000007B0002007900020077000100760002DC
:101C2000007400020072000100710002006F0002E7
:101C3000006D0001006C0002006A000100690002F2
:101C400000670001006600010065000100640002F9
:101C5000006200010061000100600001005F0002FD
:101C6000005D0001005C0001005B0001005A000102
:101C70000059000100580001005700010056000102
:101C80000055000100540001005300000053000102
:101C9000005200010051000100500001004F0001FE
:101CA000004E0000004E0001004D0001004C0001FC
:101CB000004B0000004B0001004A000100490001F8
:101CC00000480000004800010047000100460000F5
:101CD00000460001004500000045000100440001ED
:101CE00000430000004300010042000000420001E8
:101CF000004100000041000100400001003F0000E1
:101D0000003F0001003E0000003E0001003D0000D9
:101D1000003D0001003C0000003C0000003C0001D0
:101D2000003B0000003B0001003A0000003A0001C7
:101D300000390000003900010038000000380000C0
:101D400000380001003700000037000100360000B5
:101D500000360000003600010035000000350000AC
:101D600000350001003400000034000000340001A0
:101D70000033000000330000003300010032000097
:101D8000003200000032000100310000003100008C
:101D90000031000100300000003000000030000180
:101DA000002F0000002F0000002F0000002F000176
:101DB000002E0000002E0000002E0001002D00006B
:101DC000002D0000002D0000002D0001002C00005F
:101DD000002C0000002C0000002C0001002B000053
:101DE000002B0000002B0000002B0001002A000047
:101DF000002A0000002A0000002A0001002900003B
:101E0000002900000029000000290000002900012D
:101E10000028000000280000002800000028000022
:101E20000028000100270000002700000027000014
:101E30000027000000270001002600000026000007
:101E400000260000002600000026000100250000FA
:101E500000250000002500000025000000250000EE
:101E600000250001002400000024000000240000E0
:101E700000240000002400010023000000230000D3
:101E800000230000002300000023000000230000C6
:101E900000230001002200000022000000220000B8
:101EA00000220000002200000022000100210000AA
:101EB000002100000021000000210000002100009E
:101EC000002100000021000100200000002000008F
:101ED0000020000000200000002000000020000082
:101EE0000020000000200001001F0000001F000073
:101EF000001F0000001F0000001F0000001F000066
:101F0000001F0001001E0000001E0000001E000057
:101F1000001E000000290A002028002920453A0060
:101F200020280029205A3A002028002920593A0068
:101F300020280020583A0053746570706572206341
:101F4000757272656E742076616C75657320696E4A
:101F500020252028416D7073293A0A002042403A1A
:101F60000020403A00202F00546865726D616C209B
:101F700052756E6177617900453120544845524D64
:101F8000414C2052554E415741590042454420543E
:101F90004845524D414C2052554E41574159004BF6
:101FA000494C4C45442E2000202D20496E76616C12
:101FB0006964206578747275646572206E756D62EF
:101FC000657220210A0048656174696E6720666148
:101FD000696C6564004265642068656174696E6758
:101FE000206661696C65640048656174696E67208C
:101FF0006661696C65640045312048656174696E8D
:1020000067206661696C6564004D494E54454D50CA
:102010002074726967676572656400453120457296
:10202000723A204D494E54454D50004572723A2047
:102030004D494E54454D5020424544004D41585461
:10204000454D50207472696767657265640045315B
:10205000204572723A204D415854454D500045720A
:10206000723A204D415854454D502042454400623B
:1020700065640A002C2073797374656D2073746F26
:102080007070656421204865617465725F49443AE7
:1020900020002CFFFFFFFFFF00010101010123646D
:1020A0006566696E652044454641554C545F4B64F6
:1020B000200023646566696E652044454641554CA1
:1020C000545F4B69200023646566696E6520444552
:1020D0004641554C545F4B70200050494420417597
:1020E000746F74756E652066696E697368656421C6
:1020F0002050757420746865206C617374204B7077
:102100002C204B6920616E64204B6420636F6E73DA
:1021100074616E74732066726F6D2062656C6F7788
:1021200020696E746F20436F6E66696775726174A3
:10213000696F6E2E680A00504944204175746F74AF
:10214000756E65206661696C6564212074696D65D2
:102150006F75740A00546865726D616C2052756EFB
:102160006177617900453120544845524D414C20FA
:1021700052554E415741590048656174696E672058
:102180006661696C65640045312048656174696EFB
:1021900067206661696C656400504944204175742C
:1021A0006F74756E65206661696C65642120546585
:1021B0006D706572617475726520746F6F206869E7
:1021C00067680A00204B643A2000204B693A2000DF
:1021D000204B703A20000A20436C617373696320BE
:1021E000504944200A002054753A2000204B753A8B
:1021F0002000206D61783A2000206D696E3A200041
:1022000020643A200020626961733A2000504944FA
:10221000204175746F74756E652073746172740AF1
:1022200000504944204175746F74756E6520666175
:10223000696C6564212042616420657874727564FC
:102240006572206E756D6265720A001000C9021019
:10225000012C014001220170011801B0010E01F0B2
:102260000104015002FA00B002F0003003E600D091
:1022700003DC009004D2007005C800A006BE000078
:1022800008B400B009AA00D00BA000600E96006050
:10229000118C000015820020197800C01D6E00A06E
:1022A000226400B0275A00902C500000314600E014
:1022B000343C0010383200903A2800603C1E00A0E8
:1022C0003D1400803E0A00203F000070012C019068
:1022D000012701B0012201C0011D01F00118011008
:1022E00002130130020E016002090190020401C0D4
:1022F00002FF000003FA004003F5008003F000D065
:1023000003EB002004E6007004E100E004DC004080
:1023100005D700C005D2004006CD00D006C8008019
:1023200007C3003008BE00F008B900C009B400B00F
:102330000AAF00B00BAA00D00CA500000EA0005000
:102340000F9B00C01096005012910000148C00C02A
:10235000158700B0178200B0197D00D01B780000EF
:102360001E730040206E0090226900F0246400403B
:10237000275F0090295A00E02B5500102E500020B6
:10238000304B0010324600E033410090353C0010E5
:1023900037370070383200A0392D00B03A2800A03D
:1023A0003B2300603C1E00103D1900903D140010BE
:1023B0003E0F00703E0A00C03E0500003F00004096
:1023C0003FFBFF803FF6FFC03FF1FF0129022904D8
:1023D0002908291029202940298029012C022C01B3
:1023E000260226042608261026202640268026407F
:1023F0002C802C01230223042308231023202340B4
:1024000023802301200220042008201020202040C7
:10241000208020102C202C012F022F042F082F1099
:102420002F202F402F802F7EFE7EFD7EFB7EF77EAD
:10243000EF7EDF7EBF7E7F00010000E824120002F5
:102440000000A5244300030000A1240401030904A3
:10245000872418020309046F241603030904612466
:102460000C0C03310032003300340035000000163C
:1024700003550053004200200053006500720069BC
:102480000061006C00000018035400650065006ED8
:1024900000730079006400750069006E006F000031
:1024A000000403090409024300020100C0320904C8
:1024B00000000102020100052400100105240100B2
:1024C0000104240206052406000107058203080012
:1024D0004009040100020A00000007050302400051
:1024E00000070584024000001201000202000020E3
:1024F000C01683047202010203010001C1020180BF
:10250000360181364E414E494E495459494E46CDC9
:10251000CCCC3D0AD7233C17B7D13877CC2B32959A
:1025200095E6241FB14F0A000020410000C8420078
:10253000401C4620BCBE4CCA1B0E5AAEC59D740042
:10254000E0893CAA03B511241FBECFEFD0E2DEBF65
:10255000CDBF12E0A0E0B1E0EAE5F1E801E00BBF99
:1025600002C007900D92A437B107D9F72EE0A4E777
:10257000B2E001C01D92A03DB207E1F712E1C3EA4B
:10258000D2E104C02197FE010E9478B5C03AD1077C
:10259000C9F70E9460AD0C94ABC00C94000090E0B1
:1025A000FC01EE0FFF1FE80FF91FE60FF11DEE0F04
:1025B000FF1FEE0FFF1FE55EFC4F6081718182817E
:1025C00093810895EAE0F8E09DE29E0F249182173E
:1025D00029F031969E13FACF80E0089581E00895A6
:1025E0004F925F926F927F928F929F92AF92BF9223
:1025F000CF92DF92EF92FF92CF934B015C01690182
:102600007A0120E030E040EA51E40E949AB52B01C3
:102610003C012FE632E143E85AEB0E9477B887FD90
:1026200048C023E830E048EC52E4C301B2010E9404
:1026300074B618160CF43DC02FE632E143E85AEBAD
:10264000C701B6010E9477B887FD33C023E830E0A8
:1026500048EC52E4C701B6010E9474B618164CF15A
:1026600024EF3DEF4FE951E4C501B4010E9477B872
:1026700087FD1FC023E830E044EB52E4C501B401FC
:102680000E9474B61816ACF027EE3BEF4FE151E410
:10269000C701B6010E9477B887FD0BC0C1E023E8EF
:1026A00030E044EB52E4C701B6010E9474B618163C
:1026B0000CF4C0E08C2FCF91FF90EF90DF90CF9083
:1026C000BF90AF909F908F907F906F905F904F9052
:1026D0000895FB0101900020E9F73197AF01461BF7
:1026E000570BDC01ED91FC910280F381E02D099400
:1026F000462F50E060E070E020E00C944BACAB0162
:10270000770F660B770B0C94A7ACCF93DF931F92D8
:10271000CDB7DEB76983DC01ED91FC910280F381D6
:10272000E02D41E050E0BE016F5F7F4F09950F90B3
:10273000DF91CF9108952F923F924F925F926F92C7
:102740007F928F929F92AF92BF92CF92DF92EF9241
:10275000FF920F931F93CF93DF93CDB7DEB72C97E4
:102760000FB6F894DEBF0FBECDBFF82EE62ED42EE6
:10277000322E90E09A878987A62FB0E0BC87AB877E
:102780008C01000F111F080F191FFD01E00FF11F31
:10279000EE0FFF1FEE0FFF1FE55EFC4F60817181A2
:1027A000828193819B01AC010E9460B9882309F466
:1027B00041C16AE084EC9EE0A8DFFD0C6E2D630D44
:1027C0008F2D90E0DC01AA0FBB1FA80FB91F8B85CE
:1027D0009C858A0F9B1FFC01EE0FFF1FEE0FFF1F52
:1027E000E55EFC4F9080A180B280C380FD0C8F2DF0
:1027F00090E09C01220F331F280F391F8B859C8589
:10280000820F931FFC01EE0FFF1FEE0FFF1FE55E0F
:10281000FC4FD080E180F2808380862F90E0F80129
:10282000E80FF91FEE0FFF1FEE0FFF1FE55EFC4FD5
:102830007080618052804380630D462F50E0F80124
:10284000E40FF51FEE0FFF1FEE0FFF1FE55EFC4FBD
:102850001081018132802380A80FB91FAA0FBB1FEE
:10286000AA0FBB1FA55EBC4FEC91E9831196FC91AA
:102870001197FA8312968C9112978B8313969C91E1
:102880009C83240F351F220F331F220F331FD901C2
:10289000A55EBC4FEC91ED831196FC911197FE83E0
:1028A00012968C9112978F8313969C9198872D2D59
:1028B0003E2D4F2D582D6D2D7E2D8F2D982D0E9444
:1028C00060B9882321F0D12CE12CF12C812C292D09
:1028D0003A2D4B2D5C2D692D7A2D8B2D9C2D0E9430
:1028E00060B9882319F09D2C5701C82C212F302F57
:1028F000432D522D612F702F832D922D0E9460B990
:10290000882321F010E000E0312C212C272D362DDA
:10291000452D542D672D762D852D942D0E9460B95F
:10292000882311F0380121012D813E814F81588586
:102930006D817E818F8198850E9460B9882321F006
:102940001D821E821F82188629813A814B815C81FB
:1029500069817A818B819C810E9460B9882341F0D2
:10296000AD81A983BE81BA83EF81EB83F885FC83B7
:1029700029853A85220F331F89859A85280F391FAB
:10298000AB85BC852A0F3B1F220F331F220F331F3D
:10299000F901E55EFC4FFA87E987292D3A2D4B2D89
:1029A0005C2D692D7A2D8B2D9C2D0E949BB52D2D94
:1029B0003E2D4F2D582D0E949AB56B017C01272D7D
:1029C000362D452D542D672D762D852D942D0E9465
:1029D0009BB5212F302F432D522D0E949AB59B017C
:1029E000AC01C701B6010E949BB56B017C01298136
:1029F0003A814B815C8169817A818B819C810E94C3
:102A00009BB52D813E814F8158850E949AB59B01CF
:102A1000AC01C701B6010E949BB520E030E040E464
:102A200050E40E947BB6A985BA856D937D938D9302
:102A30009C9313972C960FB6F894DEBF0FBECDBFB4
:102A4000DF91CF911F910F91FF90EF90DF90CF908A
:102A5000BF90AF909F908F907F906F905F904F90BE
:102A60003F902F900895CF93DF93E6EFF9E06491C4
:102A7000EF012196662329F084EC9EE046DEFE01FC
:102A8000F6CFDF91CF910895CF93DF93811103C0EB
:102A9000E8EDF6E002C0E2EEF6E06491EF01219687
:102AA000662329F084EC9EE030DEFE01F6CFDF9154
:102AB000CF910895FF920F931F93CF93DF93F82E3A
:102AC000092F162FEFEAF4E06491EF0121966623B7
:102AD00029F084EC9EE019DEFE01F6CFEF2DF02FF9
:102AE0006491EF012196662329F084EC9EE00DDECF
:102AF000FE01F6CFEDEAF4E06491EF012196662342
:102B000029F084EC9EE001DEFE01F6CF612F70E03B
:102B100084EC9EE0F4DD6AE084EC9EE0DF91CF91EE
:102B20001F910F91FF90F1CD0FB6F8948091B90EDF
:102B30009091BA0EA091BB0EB091BC0E0FBE8093C7
:102B4000580390935903A0935A03B0935B030895DD
:102B500080E1ECE3F5E0ACE2B5E001900D928A95FE
:102B6000E1F708954F925F926F927F92AF92BF927A
:102B7000CF92DF92EF92FF92CF93DF93EB01FC01B4
:102B800060817181828193812CE3C22ED12CE12C52
:102B9000F12CA70196010E943AB5B62EA72ECA01C4
:102BA000B901A70196010E943AB56B017C01CA01E7
:102BB000B90128E130E040E050E00E943AB52B0135
:102BC0003C01C9016DE671E00E9426B561157105F1
:102BD000D9F0AF92BF92DF92CF925F924F929F93C4
:102BE0008F937F936F938FE598E09F938F93DF93FD
:102BF000CF930E94C9BD8DB79EB70E960FB6F894BD
:102C00009EBF0FBE8DBF61C00097C9F0AF92BF924B
:102C1000DF92CF925F924F929F938F938FE498E0D1
:102C20009F938F93DF93CF930E94C9BDEDB7FEB7FB
:102C30003C960FB6F894FEBF0FBEEDBF46C04114E0
:102C4000510461047104B9F0AF92BF92DF92CF9248
:102C50005F924F9283E498E09F938F93DF93CF939B
:102C60000E94C9BD8DB79EB70A960FB6F8949EBF55
:102C70000FBE8DBF2AC0C114D104E104F104A9F034
:102C8000AF92BF92DF92CF928BE398E09F938F93A6
:102C9000DF93CF930E94C9BDEDB7FEB738960FB64C
:102CA000F894FEBF0FBEEDBF10C0AF92BF9287E396
:102CB00098E09F938F93DF93CF930E94C9BD0F90AD
:102CC0000F900F900F900F900F90DF91CF91FF908A
:102CD000EF90DF90CF90BF90AF907F906F905F901C
:102CE0004F90089581548A3108F040C0A82FB0E079
:102CF0004091800550918105609182057091830516
:102D000004C076956795579547958A95D2F740FF09
:102D10002DC0E0918B05F0918C05AA59BA4F8C918A
:102D20008823E1F0E80FF11D808190ED980F9A3033
:102D300080F08E3229F4818180538A3078F409C082
:102D40008D3211F08B3251F4818190ED980F9A30D1
:102D500018F49E2F8F2F04C08E3251F090E080E047
:102D6000909387058093880581E0089580E0089519
:102D7000828180538A3090F7ECCFB4DF882341F012
:102D800081E02091870530918805232B09F480E0AC
:102D900008950F931F93CF93809187059091880595
:102DA000009711F1FC018F01C1912C2F2F7DA9F00B
:102DB000C53411F0C536B9F7F801108260E070E053
:102DC00080918705909188050E947CB9F801C083A5
:102DD000562F472F382F292F0BC060E070E0CF917E
:102DE0001F910F910C947CB950E040E030E020E05E
:102DF000652F742F832F922FCF911F910F910895DC
:102E00008091870590918805009731F04AE050E065
:102E100060E070E00C94E2BA60E070E0CB010895ED
:102E20008091870590918805009731F04AE050E045
:102E300060E070E00C940ABC60E070E0CB010895A3
:102E4000DFDF97FD0AC0DCDF6F3F7105810591056B
:102E500009F02CF4D5DF862F089580E008958FEFD8
:102E600008958091870590918805892B31F0E8DFDE
:102E700091E0811103C090E001C091E0892F089595
:102E80000F931F93CF93DF93CDB7DEB72C970FB679
:102E9000F894DEBF0FBECDBFECE3F5E080859185F1
:102EA000A285B38544815581668177810081118136
:102EB0002281338109871A872B873C874D835E8364
:102EC0006F83788789839A83AB83BC83AE014F5F1E
:102ED0005F4FBE016B5F7F4FCE0109960E948E79D6
:102EE00028E435E0AE014F5F5F4FBE016B5F7F4F5F
:102EF000CE0109960E9490872C960FB6F894DEBFFB
:102F00000FBECDBFDF91CF911F910F9108952F92EA
:102F10003F924F925F926F927F929F92AF92BF9239
:102F2000CF92DF92EF92FF920F931F93CF93DF9395
:102F3000CDB7DEB764970FB6F894DEBF0FBECDBF36
:102F40002A013B01902EA12E6901082F10E0F80103
:102F5000EF5AF04FE491BB24B3941E160CF4B12C3D
:102F6000FF24F39420E030E0A901C301B2010E94E4
:102F700077B818160CF0F12C000F111F000F111F5D
:102F8000C801845C9A4F1C01FC01108211821282DC
:102F9000138276DFF1014082518262827382E09077
:102FA000600320E030E0A901692D7A2DC6010E945E
:102FB00074B6811108C0F801E057F04F85919591E2
:102FC000A591B49103C0892D9A2DD601898B9A8B36
:102FD000AB8BBC8B8091440590914505A091460533
:102FE000B0914705409140055091410560914205DF
:102FF0007091430500913C0510913D0520913E05DF
:1030000030913F050D871E872F87388B49875A8758
:103010006B877C878D839E83AF83B88719821A82E2
:103020001B821C82AE014B5F5F4FBE01675F7F4F0B
:10303000CE010D960E948E79CE0101966C018E0113
:103040000F5E1F4F28E435E0AE014B5F5F4FBE01BE
:10305000675F7F4F0C960E94AE860E949E7ABF10DB
:103060000E946B6D64960FB6F894DEBF0FBECDBFA5
:10307000DF91CF911F910F91FF90EF90DF90CF9054
:10308000BF90AF909F907F906F905F904F903F90D8
:103090002F90089568E475E083E00C94B688CF9390
:1030A000DF9300D0CDB7DEB72091B60E3091B70ECA
:1030B000CE0101962115310529F4805D9E409A8349
:1030C000898304C0821B930B9A83898389819A81A7
:1030D0000F900F90DF91CF910895FF920F931F9360
:1030E000CF93DF93FC0120812B3319F1D09121057F
:1030F000D430F8F4F62EBC01C0911F050C2F10E05F
:10310000F0E6CF9FC001112481569C4F0E94A9BDBB
:10311000F801E55FFC4FF082CF5FC43018F4C09334
:103120001F0502C010921F05DF5FD093210581E0CB
:1031300001C080E0DF91CF911F910F91FF90089522
:10314000EF92FF921F93CF93DF937C0160E0C5DF86
:10315000182F8823C9F0E6EDF6E16491EF0121967E
:10316000662329F084EC9EE0D0DAFE01F6CFB701A9
:1031700080E49CE00E94E48962E284EC9EE0C5DA8F
:103180006AE084EC9EE0C1DA812FDF91CF911F913C
:10319000FF90EF900895DF92EF92FF920F931F93AD
:1031A000CF93DF93CDB7DEB76E970FB6F894DEBF3F
:1031B0000FBECDBF60919D0370919E036115710597
:1031C00041F14DE150E0CE0101967C010E945FBDCE
:1031D0001E8EF7018F010E191F09D190DD2019F005
:1031E0009AE0D912F7CFF701E00FF11F1082C70163
:1031F000A7DF882371F0DD20A9F00F5F1F4F8091BA
:103200009D0390919E03080F191F10939E03009336
:103210009D0381E020919D0330919E03232B29F48F
:1032200080E003C000E010E0F0CF6E960FB6F89497
:10323000DEBF0FBECDBFDF91CF911F910F91FF90E9
:10324000EF90DF900895EF92FF920F931F93CF932B
:10325000DF937C0184E591DDD82F882369F1F0DDCF
:10326000C82F18162CF5E6EDF6E164918F010F5F7B
:103270001F4F662329F084EC9EE047DAF801F5CF72
:103280006DE484EC9EE041DAA70160E070E020E0AC
:1032900084EC9EE00E944BAC6C2FCC0F770B8CE241
:1032A0009BE00E940C8A6AE084EC9EE02EDA08C063
:1032B00080935303D0E004C0809160038093530354
:1032C0008D2FDF91CF911F910F91FF90EF90089577
:1032D0000F931F93CF93DF9394E0899FE001112414
:1032E0008E0101591C4FFE01E558FC4FDE01A95724
:1032F000BC4F2D913D914D915C9160817181828196
:1033000093810E949BB5F8016083718382839383CC
:10331000FE01EC57F04F85919591A591B491FE0176
:10332000ED59FC4F80839183A283B383FE01E8585B
:10333000F04F85919591A591B491C75EDE4F88833A
:103340009983AA83BB83DF91CF911F910F91089539
:10335000CF92DF92EF920F931F93CF93DF93CDB76E
:10336000DEB760970FB6F894DEBF0FBECDBFE0901A
:103370006003ECE3F5E080859185A285B385448107
:1033800055816681778100811181228133810D878A
:103390001E872F87388B49875A876B877C878D8359
:1033A0009E83AF83B88719821A821B821C82AE016A
:1033B0004B5F5F4FBE01675F7F4FCE010D960E944E
:1033C0008E79CE0101966C0107E211E028E435E028
:1033D000AE014B5F5F4FBE01675F7F4F0C960E944F
:1033E000AE8660960FB6F894DEBF0FBECDBFDF91FC
:1033F000CF911F910F91EF90DF90CF9008954F9252
:103400005F926F927F928F929F92AF92BF92CF9274
:10341000DF92EF92FF920F931F93CF93DF93CDB77D
:10342000DEB72C970FB6F894DEBF0FBECDBF6D830D
:103430007E838F83988729873A874B875C874701EC
:10344000580136018091270190912801A09129010E
:10345000B0912A0189839A83AB83BC83D601CD9036
:10346000DD90ED90FC9020E030E0A901C701B601AD
:103470000E9474B6811106C0E8E9FFE0C590D590BE
:10348000E590F490A5019401609144057091450583
:1034900080914605909147050E9474B687FF11C040
:1034A000C0922701D0922801E0922901F0922A01CE
:1034B0008092440590924505A0924605B09247053A
:1034C00047DFF301408051806280738020E030E06C
:1034D000A901C301B2010E9474B6811108C04090D5
:1034E0000F015090100160901101709012014092F4
:1034F0002701509228016092290170922A018D8142
:103500009E81AF81B88580933C0590933D05A09343
:103510003E05B0933F0589859A85AB85BC85809330
:10352000400590934105A0934205B093430510DFF9
:10353000A50194016091440570914505809146056F
:10354000909147050E9477B818168CF4C092270115
:10355000D0922801E0922901F0922A01809244053C
:1035600090924505A0924605B0924705F1DE0E9473
:103570009E7A89819A81AB81BC8180932701909347
:103580002801A0932901B0932A012C960FB6F89434
:10359000DEBF0FBECDBFDF91CF911F910F91FF9086
:1035A000EF90DF90CF90BF90AF909F908F907F90E3
:1035B0006F905F904F900895CF92DF92EF92FF92BD
:1035C0000F931F936B01FC01E080F1800281138156
:1035D000ECE3F5E02481358146815781608171817A
:1035E000828193810CDF1F910F91FF90EF90DF900C
:1035F000CF900895CF92DF92EF92FF920F931F9397
:103600006A01E0904405F09045050091460510914F
:103610004705FB012081318142815381FC0160819A
:10362000718182819381EBDE1F910F91FF90EF906A
:10363000DF90CF9008958091270190912801A0916B
:103640002901B0912A018093990390939A03A09342
:103650009B03B0939C038091250190912601909348
:1036600098038093970384E690E0909326018093DB
:10367000250108958091990390919A03A0919B034D
:10368000B0919C038093270190932801A093290176
:10369000B0932A018091970390919803909326010B
:1036A000809325010895EF92FF920F931F93CF937C
:1036B000DF93882329F0D0912B05D095D17001C0DC
:1036C000D0E0662341F010912B0511FB882780F98B
:1036D00011E0182701C010E0442341F0C0912B05F0
:1036E000C2FB882780F9C1E0C82701C0C0E0D11122
:1036F00005C0111103C0CC2309F45DC0E6EDF6E16D
:1037000064917F018FEFE81AF80A662331F084ECA8
:103710009EE00E948513F701F3CFE6E2FBE064919F
:103720007F018FEFE81AF80A662331F084EC9EE0FF
:103730000E948513F701F3CFDD2379F0E4E2FBE08B
:1037400064917F018FEFE81AF80A662331F084EC68
:103750009EE00E948513F701F3CF112371F0E2E29E
:10376000FBE064918F010F5F1F4F662331F084EC03
:103770009EE00E948513F801F4CFC11103C0E8E177
:10378000FBE00DC0E0E2FBE06491EF0121966623CF
:10379000B1F384EC9EE00E948513FE01F5CF6491A5
:1037A000EF012196662331F084EC9EE00E948513A0
:1037B000FE01F5CFC1E08C2FDF91CF911F910F91CA
:1037C000FF90EF900895BF92CF92DF92EF92FF9219
:1037D0000F931F93CF93DF93CDB7DEB728970FB624
:1037E000F894DEBF0FBECDBF90916005981709F425
:1037F0007AC0B82E882309F453C080E090E0A0EA94
:10380000B0E48D839E83AF83B887C0904F03D09080
:103810005003E0905103F090520320E030E0A90102
:10382000C701B6010E9474B687FF0CC0A7019601BC
:1038300060E070E080EA90E40E949AB56D837E8338
:103840008F83988720E030E043E053E46D817E81F0
:103850008F8198850E9477B8181644F480E090E034
:10386000A3E0B3E48D839E83AF83B88720914405A2
:103870003091450540914605509147056D817E8107
:103880008F8198850E9477B8181654F419821A828D
:103890001B821C82BE016F5F7F4FCE0105968CDEBE
:1038A00060913C0570913D0580913E0590913F05EA
:1038B00020914005309141054091420550914305CA
:1038C00019821A821B821C82E0904405F090450503
:1038D0000091460510914705FE0131966F018FDD7D
:1038E0008B2D0E94766D80E028960FB6F894DEBF8F
:1038F0000FBECDBFDF91CF911F910F91FF90EF9041
:10390000DF90CF90BF9008954F925F926F927F9219
:103910008F929F92AF92BF92CF92DF92EF92FF92DF
:103920000F931F93CF93C82FE82EF12CF701EF5A76
:10393000F04FB490823021F481E045DF811109C15C
:103940006701CC0CDD1CCC0CDD1CF601E05AF04FFD
:1039500045905590659074906B2DBB0C770B880B40
:10396000990B0E9416B74B015C0120E030E040EC5F
:103970005FE3C301B2010E94B2B8A50194010E94A5
:10398000B2B8AB01BC0100E010E098018C2FBFDAA7
:10399000C23041F0F601EC5AF04F25913591459136
:1039A000549104C020E030E040E450E4C501B4018B
:1039B0000E94B2B84B015C0120E030E0A9010E94F6
:1039C00074B6882309F45EC0C23021F000E010E034
:1039D000980104C000E010E020E830E4B501A40143
:1039E00070588C2F94DAC23009F43BC0F701EE54C2
:1039F000F54F849181111FC0E6EDF6E164917F01DE
:103A00008FEFE81AF80A662331F084EC9EE00E94FA
:103A10008513F701F3CFE0E9FAE064917F018FEFBE
:103A2000E81AF80A662331F084EC9EE00E948513C0
:103A3000F701F3CF8AE0F601E057F04F459055903B
:103A400065907490682F70E080E090E00E9416B757
:103A50009B01AC01C301B2010E947BB62B013C016A
:103A600005C0412C512C612C90E4792EA5019401C4
:103A7000C501B4010E949BB5AB01BC019301820159
:103A80008C2F45DA81E090E00C2E01C0880F0A945B
:103A9000EAF790912A05982B90932A0590912B058F
:103AA000892B80932B05F601E957FC4F1082118278
:103AB000128213828C2F0CDCF601E459F04F8591B1
:103AC0009591A591B491F601E45CFA4F80839183BE
:103AD000A283B383C230D1F420914F0330915003BD
:103AE00040915103509152036091440570914505F6
:103AF00080914605909147050E949AB560934405D0
:103B0000709345058093460590934705B9D9F60112
:103B1000E45DFA4FD601A45CBA4F8D919D910D9052
:103B2000BC91A02D80839183A283B383C23089F49A
:103B300080E0CF911F910F91FF90EF90DF90CF9099
:103B4000BF90AF909F908F907F906F905F904F90BD
:103B50003ACECF911F910F91FF90EF90DF90CF90D1
:103B6000BF90AF909F908F907F906F905F904F909D
:103B7000089581E020914B0330914C03232B09F4ED
:103B800080E008953F924F925F926F927F928F9262
:103B90009F92AF92BF92CF92DF92EF92FF920F93DC
:103BA0001F93CF93DF93882EE62E942E6901A82EC3
:103BB000B12CC0E0D0E0042F10E00E5F1F4FCA15FB
:103BC000DB05E1F0F12C2F2D30E081E090E0CA30F0
:103BD00010F080E090E0800F911F281739073CF427
:103BE00060E284EC9EE00E948513F394ECCFBE016A
:103BF00084EC9EE00E947F132196E1CF6AE084EC82
:103C00009EE00E948513F12CC0E0D0E0A92CB12CDD
:103C100082E0A80EB11C3C2ECE15DF0509F451C080
:103C2000E9E0E31528F060E284EC9EE00E94851351
:103C3000BE0184EC9EE00E947F1310E01815D1F1C4
:103C400060E284EC9EE00E948513632D812FF601D3
:103C500009952B013C019B01AC010E9460B98111C7
:103C600016C020E030E0A901C301B2010E9477B87C
:103C700087FD05C06BE284EC9EE00E948513292D30
:103C8000B301A20184EC9EE00E94B4AC11C000E03C
:103C9000802F90E0A816B9065CF0011102C060E226
:103CA00001C06DE384EC9EE00E9485130F5FF0CFAE
:103CB0001F5FC4CF6AE084EC9EE00E9485132196CA
:103CC000AACF6AE084EC9EE0DF91CF911F910F9123
:103CD000FF90EF90DF90CF90BF90AF909F908F902C
:103CE0007F906F905F904F903F900C948513CF938F
:103CF000DF93E1EBF8E06491EF012196662331F068
:103D000084EC9EE00E948513FE01F5CF2FEC32E19A
:103D100043E063E083E0DF91CF9134CFCF92DF9235
:103D2000EF92FF9260914B0370914C03072E000CB1
:103D3000880B990B0E9416B76B017C012DEB37E3C2
:103D400046E855EB0E9477B887FD0AC02DEB37E3B4
:103D500046E855E3C701B6010E9474B618164CF444
:103D6000A701960160E070E080E89FE30E947BB6C7
:103D700003C060E070E0CB0160933F0370934003A9
:103D8000809341039093420360914D0370914E03E1
:103D9000072E000C880B990B0E9416B76B017C0153
:103DA0002DEB37E346E855EB0E9477B887FD0AC054
:103DB0002DEB37E346E855E3C701B6010E9474B620
:103DC00018164CF4A701960160E070E080E89FE3CC
:103DD0000E947BB603C060E070E0CB0160934303B8
:103DE000709344038093450390934603FF90EF90B4
:103DF000DF90CF900895AF92BF92CF92DF92EF9273
:103E0000FF920F931F93CF93DF9383E4A82E82E05A
:103E1000B82E9CE2E92E95E0F92E0CE315E02FE692
:103E2000C22E23E0D22EC0E0D0E0F50181915F01E7
:103E30000E947216882321F10E94C916FE01ED56D8
:103E4000FC4F2081211104C020915F03222341F007
:103E5000F80120813181428153810E949BB50AC0C3
:103E6000C330D10539F0F60120813181428153817F
:103E70000E949AB5F70160837183828393830AC09D
:103E8000F80180819181A281B381F70180839183C0
:103E9000A283B3832196F4E0EF0EF11C0C5F1F4F59
:103EA00084E0C80ED11CC430D10509F0BECF86E431
:103EB0000E94BD168823C9F00E94C91620E030E098
:103EC000A9010E9477B8181684F40E94C91620E050
:103ED00030E040E752E40E947BB660932701709384
:103EE00028018093290190932A01DF91CF911F919E
:103EF0000F91FF90EF90DF90CF90BF90AF9008951B
:103F0000CF92DF92EF92FF920F931F93CF93DF93A5
:103F10000FB6F894C090B90ED090BA0EE090BB0ED8
:103F2000F090BC0E0FBE80915E03811174C0809131
:103F30000E01882309F46FC080910A03882309F4D5
:103F40006AC0409106035091070360910803709185
:103F5000090397018601041B150B260B370B37FD50
:103F60006DC0833031F134F481300CF454C0E6ED8F
:103F7000F6E106C0843009F04EC0E6EDF6E133C04C
:103F80006491EF012196662331F084EC9EE00E945B
:103F90008513FE01F5CFE4EEFAE06491EF0121967E
:103FA000662309F438C084EC9EE00E948513FE016C
:103FB000F4CFE6EDF6E16491EF012196662331F04E
:103FC00084EC9EE00E948513FE01F5CFEDECFAE053
:103FD0006491EF0121966623F1F084EC9EE00E944B
:103FE0008513FE01F5CF6491EF012196662331F030
:103FF00084EC9EE00E948513FE01F5CFE5EBFAE02C
:104000006491EF012196662331F084EC9EE00E94DA
:104010008513FE01F5CF20910E0130E0A8EEB3E04C
:104020000E9481B5C60ED71EE81EF91EC092060377
:10403000D0920703E0920803F0920903DF91CF9139
:104040001F910F91FF90EF90DF90CF9008950F9305
:104050001F93CF93DF9300D000D0CDB7DEB7809110
:104060002A0583708330E9F0E6EDF6E164918F0173
:104070000F5F1F4F662331F084EC9EE00E94851392
:10408000F801F4CFE1E8FAE064918F010F5F1F4F70
:10409000662309F43EC084EC9EE00E948513F8017B
:1040A000F3CF0E94401780E090E0A8E4B2E4809350
:1040B000300590933105A0933205B093330580917C
:1040C000440590914505A0914605B0914705809320
:1040D000340590933505A0933605B093370580E0FD
:1040E00090E0A0EFB1E480932C0590932D05A09370
:1040F0002E05B0932F0519821A821B821C82AE01F5
:104100004F5F5F4F60E375E08CE295E073DA82E029
:10411000FBDB0F900F900F900F90DF91CF911F91CD
:104120000F9108950F931F93CF93DF93CDB7DEB711
:1041300069970FB6F894DEBF0FBECDBF0E94B69947
:104140006E8B7F8B888F998FBE016F5F7F4FCE0103
:1041500046960E94B215E6EDF6E164918F010F5F7D
:104160001F4F662331F084EC9EE00E948513F80116
:10417000F4CFBE016F5F7F4F83E798E00E94E48930
:104180006AE084EC9EE00E94851369960FB6F8946D
:10419000DEBF0FBECDBFDF91CF911F910F9108956C
:1041A000CF93DF93ECEDF6E16491EF012196662366
:1041B00031F084EC9EE00E948513FE01F5CFEBEF19
:1041C000F7E06491EF012196662331F084EC9EE0E4
:1041D0000E948513FE01F5CFDF91CF910895EF92F4
:1041E000FF920F931F93CF93DF93182F062F86E034
:1041F000189FF0011124EB59F34FE590F490E3E799
:10420000FAE06491EF012196662331F084EC9EE0A0
:104210000E948513FE01F5CF60E3610F84EC9EE000
:104220000E948513023471F00334C1F0013441F56A
:10423000F7016081629566956695637070E08FE620
:104240009AE016C0F7016081607370E094E07595A4
:1042500067959A95E1F78BE69AE00AC0F7016081CD
:104260006C7070E0759567957595679587E69AE02F
:10427000DF91CF911F910F91FF90EF900C940C8ADA
:10428000DF91CF911F910F91FF90EF9008955F9272
:104290006F927F928F929F92AF92BF92CF92DF9256
:1042A000EF92FF920F931F93CF93DF93CDB7DEB7BB
:1042B00064970FB6F894DEBF0FBECDBFE82E062F71
:1042C000542EC82ED12C26E0829FC0011124FC015F
:1042D000E959F34FA590B490FC01EB59F34F859049
:1042E0009490F5018081282F287030E0359527952E
:1042F000F40110811370122BF4E04F1305C080718C
:1043000090E095958795182BEDE5FAE064913F01D3
:104310002FEF621A720A662331F084EC9EE00E944D
:104320008513F301F3CF80E3F82EFE0C6F2D84ECA0
:104330009EE00E948513602F84EC9EE00E9485130E
:1043400083E00E948B8A802F002E000C990BF601CF
:10435000EE0FFF1F9E012F5F3F4F390133E0815465
:104360009109EC0DFD1DE80FF91FEE0FFF1FE35B38
:10437000F34F531208C0A591B4918C911F928F9363
:1043800083E59AE00AC0A591B49111968C9111979A
:104390008F938C918F9389E49AE09F938F937F9270
:1043A0006F920E94C9BDB30184EC9EE00E94691324
:1043B0000F900F900F900F900F900F90612F70E063
:1043C0008FE39AE00E940C8A602F8E2D08DFF501A2
:1043D0006081677070E086E39AE00E940C8AEDE2EB
:1043E000FAE064913F012FEF621A720A662331F0FE
:1043F00084EC9EE00E948513F301F3CF6F2D84ECD3
:104400009EE00E948513F401608170E089E29AE0E9
:104410000E940C8AE0E2FAE064914F012FEF821AC9
:10442000920A662331F084EC9EE00E948513F40129
:10443000F3CF6F2D84EC9EE00E948513F50160811F
:1044400070E08CE19AE00E940C8A86E08C9DF0017D
:104450008D9DF00D1124E759F34FC590D490E2E102
:10446000FAE064915F012FEFA21AB20A662331F0DD
:1044700084EC9EE00E948513F501F3CF6F2D84EC50
:104480009EE00E948513F601608170E08FE09AE063
:104490000E940C8A0054F3E05F1205C0197F49F4B2
:1044A0000E94331506C0812F8B7FD1F31C50123030
:1044B000B8F3F601808190E002C0959587950A9542
:1044C000E2F780FF0EC0E9EDF9E064918F010F5F24
:1044D0001F4F662331F084EC9EE00E948513F801A3
:1044E000F4CFF601808180FF0EC0EBEBF9E0649120
:1044F0008F010F5F1F4F662331F084EC9EE00E9416
:104500008513F801F4CF64960FB6F894DEBF0FBEA2
:10451000CDBFDF91CF911F910F91FF90EF90DF9072
:10452000CF90BF90AF909F908F907F906F905F9053
:1045300008950F931F93CF93DF93C82F8C3108F00A
:104540003CC0E82FF0E0E95DFD4FE0818E2F90E068
:10455000FC013197E930F10580F5E45BFF4F0C94E5
:1045600078B543E062E480E092DE27C044E061E495
:1045700081E08DDE22C044E062E481E088DE1DC07F
:1045800044E063E481E083DE18C043E061E482E05C
:104590007EDE13C043E062E482E079DE0EC044E0D8
:1045A00061E483E074DE09C044E062E483E06FDE2E
:1045B00004C044E063E483E06ADEE5EDF6E0649184
:1045C0008F010F5F1F4F662331F084EC9EE00E9445
:1045D0008513F801F4CF8C2F90E0FC01E358F34FE2
:1045E000E491E23009F03EC0FC01EE0FFF1FE553FD
:1045F000FC4DE491E03809F035C0E1EDF6E064915E
:10460000EF012196662331F084EC9EE00E94851331
:10461000FE01F5CF82E10E948B8AE9ECF6E064911D
:10462000EF012196662331F084EC9EE00E94851311
:10463000FE01F5CFEFEAF6E06491EF0121966623E3
:1046400031F084EC9EE00E948513FE01F5CF8EE0F0
:104650000E948B8A43E061E480E0DF91CF911F915B
:104660000F9115CEDF91CF911F910F9108950F9368
:104670001F93CF93C82FE2EBF9E064918F010F5F96
:104680001F4F662331F084EC9EE00E948513F801F1
:10469000F4CF82ED8C0F823048F0EC2F0C2E000C02
:1046A000FF0BE358F34F6491605C01C065E484EC58
:1046B0009EE00E948513CE3281F0CF3281F0EC2F44
:1046C000EE0FFF0BE553FC4DE49160E3E13041F068
:1046D000E6956F5F6933D1F703C062E301C063E31E
:1046E00084EC9EE0CF911F910F910C9485132F9233
:1046F0003F924F925F926F927F928F929F92AF9272
:10470000BF92CF92DF92EF92FF920F931F93CF93BE
:10471000DF93CDB7DEB7EC970FB6F894DEBF0FBED0
:10472000CDBFF82E68AF4DAB922E832E5DEA252EBD
:104730005CE0352EE12C80E04F2C0F2C000C55084E
:1047400022ED2F0D29AF2F2D30E03CAB2BAB295D97
:104750003D4F3BAF2AAF8E01015E1F4FDE01119628
:104760005D019201265231093FAB2EABF101329629
:10477000E491CE2ED12CC414D50409F0AFC0811120
:104780003AC0E11038C05F92FF928F929F9289EAFF
:1047900097E09F938F93BF92AF920E94C9BDB501DE
:1047A00084EC9EE00E9469138F2D61DF0FB6F894B0
:1047B000DEBF0FBECDBF8AED8F0D8830C0F49FA93C
:1047C0009F93AEA9AF938FE997E09F938F93BF928A
:1047D000AF920E94C9BDB50184EC9EE00E946913AE
:1047E0000F900F900F900F900F900F9016C088E0D1
:1047F0000E948B8A12C06EE284EC9EE00E948513B8
:10480000E92DF82DDF010D900020E9F78A2F891995
:10481000875E0E948B8AEE24E394F1016590749088
:1048200020E0F3016491611107C030E04CE1642E97
:10483000712C621A710811C084EC9EE02CAF0E94AA
:1048400085132CAD2F5FFFEF6F1A7F0A2C3149F7CC
:104850002DA9222309F43CC00EC0832F90E08615B9
:104860009705B4F760E284EC9EE03CAF0E948513AC
:104870003CAD3F5FF2CF8F2D0E94E212882391F072
:1048800038AD31110FC0E4E9F7E064916F018FEFAB
:10489000C81AD80A6623E1F084EC9EE00E948513D2
:1048A000F601F3CF29AD223008F0FEC09EE28DB1B3
:1048B000F912EBC082FB882780F90E9444156CB185
:1048C00062FB662760F970E084EC9EE00E947F1333
:1048D0006AE084EC9EE00E94851381E0F4E02F0EF4
:1048E000311C2DE522162DE0320609F03FCF811153
:1048F000BCC15F924F928F929F9288E797E09F93FF
:104900008F938E010F5F1F4F1F930F930E94C9BD9E
:10491000B80184EC9EE00E9469138F2DA8DE9AED09
:10492000E92EEF0C0FB6F894DEBF0FBECDBF97E0B7
:104930009E15C0F0C20186979F938F938EE697E0F5
:104940009F938F931F930F930E94C9BDB80184EC6E
:104950009EE00E9469130F900F900F900F900F90A0
:104960000F9003C088E00E948B8AEDE5F7E0649128
:104970006F01AFEFCA1ADA0A662331F084EC9EE0C9
:104980000E948513F601F3CFBDA9BB2309F477C0BC
:1049900082ED8F0D823028F58CE00E948B8AEEE24A
:1049A0008DB1FE120FC082FB882780F90E9444154A
:1049B0006CB162FB662760F970E084EC9EE00E94B7
:1049C0007F135DC083FB882780F90E9444156CB17A
:1049D00063FB662760F970E084EC9EE00E947F1321
:1049E0004EC09201220F331FF901E453FC4DE491B4
:1049F000F0E08181F901E553FC4DE491E82329F0D1
:104A00008CE00E948B8A81E02DC0F7E0FE1530F12A
:104A10008E2D0E94BAAD9F938F938AE497E09F9367
:104A20008F931F930F930E94C9BDB80184EC9EE041
:104A30000E9469130F900F900F900F900F900F909E
:104A4000E6E4F7E064918F010F5F1F4F662349F0A2
:104A500084EC9EE00E948513F801F4CF8CE00E9464
:104A60008B8A80E00E944415EF2DF0E00E94AEAFEB
:104A70006E2F84EC9EE00E9478138F2D5ADD6AE041
:104A800084EC9EE00E948513F0C083FB882780F9A8
:104A90000E9444156CB163FB662760F970E084ECFA
:104AA0009EE00E947F1314CFF1013396E491E1114F
:104AB0001AC08AED8F0D0E94BAAD9F938F9384E840
:104AC00097E09F938F93BF92AF920E94C9BDB501AB
:104AD00084EC9EE00E9469130F900F900F900F904E
:104AE0000F900F90BDC0C601880F991FFC01E453C1
:104AF000FC4DE491F0E02181FC01E553FC4D8491F3
:104B0000822309F4A2C0ABE1AF1508F49DC0AAADA1
:104B1000BBADEC918E2F90E0FC013197E930F105AF
:104B200008F092C0EB5AFF4F0C9478B584B58073AF
:104B300009F48AC088B51F928F938CE397E09F9306
:104B40008F9372C080918000807C09F47DC0809139
:104B50008800909189009F938F9382E397E09F93C1
:104B60008F9362C080918000807309F46DC0809142
:104B70008A0090918B009F938F9388E297E09F9398
:104B80008F9352C0809180008C7009F45DC0809139
:104B90008C0090918D009F938F938EE197E09F936F
:104BA0008F9342C08091B000807C09F44DC0809109
:104BB000B3001F928F9384E197E09F938F9334C04B
:104BC0008091B000807309F43FC08091B4001F92BF
:104BD0008F93AAE0B7E026C080919000807CA1F17D
:104BE00080919800909199009F938F93A0E0B7E0F7
:104BF00019C080919000807339F180919A00909152
:104C00009B009F938F93A6EFB6E00CC0809190001D
:104C10008C70D1F080919C0090919D009F938F9318
:104C2000ACEEB6E0BF93AF931F930F930E94C9BD44
:104C3000B80184EC9EE00E9469130F900F900F90D2
:104C40000F900F900F900CC081E00E944415EBA9CB
:104C5000FCA90E94AEAF6E2F84EC9EE00E947813F8
:104C6000E11036CE8F2D65DC33CEEC960FB6F8947E
:104C7000DEBF0FBECDBFDF91CF911F910F91FF908F
:104C8000EF90DF90CF90BF90AF909F908F907F90EC
:104C90006F905F904F903F902F9008956F927F920A
:104CA0008F929F92AF92BF92CF92DF92EF92FF923C
:104CB0000F931F93CF93DF9389E40E94BD1688233F
:104CC00021F00E943117D82F04C089E40E94721687
:104CD000D82F82E50E94BD16882321F00E9400177C
:104CE0008B0102C001E010E083E50E94BD1688231D
:104CF00021F00E940017C62F01C0C0E08CE40E9482
:104D0000BD16882321F00E9400175B0103C08FE2CB
:104D1000A82EB12C87E50E94BD16882319F00E94A9
:104D2000001702C064EF71E06B01770FEE08FF0817
:104D30008C2E912CA814B904CCF0D11126C08C2F44
:104D40000E94E212882309F123EF31E041E060E0A4
:104D50008C2FCDDC6AE084EC9EE00E9485136AE033
:104D600084EC9EE00E948513CF5FE2CFE6ECF7E093
:104D700064918F010F5F1F4F662309F465C084ECB7
:104D80009EE00E948513F801F3CF2EEF31E041E061
:104D90006D2F8C2FACDCCE32C9F46A9A812C912C09
:104DA00080169106E4F67298C701B6010E941FA909
:104DB000729AC701B6010E941FA97298C701B60175
:104DC0000E941FA98FEF881A980AEACFCF32D1F438
:104DD0006B9A812C912C801691060CF0C0CF7398A1
:104DE000C701B6010E941FA9739AC701B6010E94AC
:104DF0001FA97398C701B6010E941FA98FEF881AD7
:104E0000980AE9CF8C2F0E94E4AD612C712C6016BA
:104E100071060CF0A4CFF4010E94BBAEC701B6012D
:104E20000E941FA9F4010E94B5AEC701B6010E94FD
:104E30001FA9F4010E94BBAEC701B6010E941FA9C1
:104E40008FEF681A780AE3CFDF91CF911F910F910E
:104E5000FF90EF90DF90CF90BF90AF909F908F909A
:104E60007F906F9008956F927F928F929F92AF92F2
:104E7000BF92CF92DF92EF92FF920F931F93CF9347
:104E8000DF93CDB7DEB7EDB6FEB684E50E947216AD
:104E9000882379F0DF91CF911F910F91FF90EF90D0
:104EA000DF90CF90BF90AF909F908F907F906F904A
:104EB000F5CE85E40E947216882309F436C00E945C
:104EC000311780930503EAEEF7E064918F010F5FDD
:104ED0001F4F662331F084EC9EE00E948513F80199
:104EE000F4CF80910503811103C0E3EEF7E002C027
:104EF000E7EEF7E064918F010F5F1F4F662331F0FB
:104F000084EC9EE00E948513F801F4CFECEDF7E00D
:104F100064918F010F5F1F4F662309F4DDC084EC9D
:104F20009EE00E948513F801F3CF83E50E9472167C
:104F30008823E9F0ECEDF6E164918F010F5F1F4FDC
:104F4000662331F084EC9EE00E948513F801F4CFD3
:104F5000E5EBF7E064918F010F5F1F4F662309F4C3
:104F6000BBC084EC9EE00E948513F801F3CF80E57E
:104F70000E94BD16882321F00E942017182F01C01F
:104F800010E0012F80E50E94BD16811106C010338C
:104F90000CF0A2C08FE2682E01C0612E89E40E944D
:104FA000BD16882321F00E943117782E04C089E4B1
:104FB0000E947216782E87E50E94BD16882331F074
:104FC0000E943117882309F466C006C087E50E9455
:104FD0007216882309F45FC0EDECF7E064917F015D
:104FE0002FEFE21AF20A662331F084EC9EE00E9471
:104FF0008513F701F3CFA12E012E000CBB08862DDF
:10500000062C000C990B8A199B090196EDB7FEB787
:10501000E81BF90B0FB6F894FEBF0FBEEDBF2DB71E
:105020003EB72F5F3F4F4901012F71103EC0802FC7
:105030000E94E2128823C9F10F5F6016B4F7012FB6
:10504000711005C0802F0E94E21281111AC0E02E5B
:10505000F12CF7010E94AEAF7F01C02E002E000C94
:10506000DD08CA18DB08C80CD91CF60180818E1532
:1050700041F028E032E040E0672D802F38DBF60178
:10508000E0820F5F6016E4F668EC70E080E090E08C
:105090000E941FA9D4CF28E032E041E0672D802F85
:1050A00026DB0F5F6016BCF717C0802F0E9489AE09
:1050B00061E070E080E090E00E94DFB0E02FF0E07F
:1050C0000E94AEAFA02F002E000CBB0BAA19BB098B
:1050D000A80DB91DEC93B0CF0FB6F894FEBE0FBE6D
:1050E000EDBEDF91CF911F910F91FF90EF90DF9078
:1050F000CF90BF90AF909F908F907F906F900895CA
:1051000088E690E00E942319811122C080914C050D
:1051100083FD1EC083E50E94BD168823B9F00E945E
:10512000C9160E94E3B67093F20D6093F10D80E012
:105130000E94149E0E94C91620E030E04AEA52E420
:105140000E9474B6181614F00E945F990C94B089EE
:105150000895CF93DF9389E690E00E94231981118F
:1051600016C0E1E6F6E06491EF012196662331F086
:1051700084EC9EE00E948513FE01F5CF0E94B6A349
:105180006AE084EC9EE0DF91CF910C948513DF916F
:10519000CF910895CF92DF92EF92FF9283E50E9424
:1051A000BD16882321F10E9420178D3308F08CE36F
:1051B0008093890D0FB6F894C090B90ED090BA0EB6
:1051C000E090BB0EF090BC0E0FBE282F30E0A8EE92
:1051D000B3E00E9481B5C60ED71EE81EF91EC0922C
:1051E000850DD092860DE092870DF092880DFF908C
:1051F000EF90DF90CF90089580E50E94BD16811159
:1052000006C083E50E94BD16882359F005C00E94A0
:10521000201781110CC0F5CF0E9400176F3F710558
:1052200010F06FEF70E07093620360936103089574
:1052300080914C0583FD14C083E50E94BD16882330
:1052400079F00E94C9160E94E3B66639710514F020
:1052500066E970E07093EA0D6093E90D0C94669E28
:105260000895DF92EF92FF920F931F93CF93DF93F6
:1052700083E50E947216882359F083E50E94BD16CB
:10528000882319F00E94201701C080E080934C050C
:10529000E6EDF6E16491EF012196662331F084ECAE
:1052A0009EE00E948513FE01F5CFE8EAF6E06491E6
:1052B000EF012196662331F084EC9EE00E94851375
:1052C000FE01F5CF80914C058823A9F18EE9E82EE7
:1052D00086E0F82E00E010E020E080914C0590E0A0
:1052E000002E02C0959587950A94E2F780FF1AC0B8
:1052F000DD24D394D20E222329F06CE284EC9EE0CC
:105300000E948513F70185919491FC016491EC0151
:105310002196662331F084EC9EE00E948513CE0135
:10532000F4CF2D2D0F5F1F4FF2E0EF0EF11C053073
:10533000110599F60DC0EAE9F6E06491EF012196B6
:10534000662331F084EC9EE00E948513FE01F5CFC8
:105350006AE084EC9EE0DF91CF911F910F91FF9066
:10536000EF90DF900C948513CF93DF9383E50E9439
:10537000BD16882351F00E9420178D3308F08CE36E
:1053800080930E01DF91CF910895E6EDF6E16491EF
:10539000EF012196662331F084EC9EE00E94851394
:1053A000FE01F5CF40910E0150E060E070E084E630
:1053B00096E00E946A8A6AE084EC9EE0DF91CF91D9
:1053C0000C9485134F925F926F927F92AF92BF922F
:1053D000CF92DF92EF92FF920F931F93CF9383E4CC
:1053E000A82E82E0B82E0DE116E0C0E0F501819113
:1053F0005F010E947216882309F46DC0C33009F062
:1054000063C00E94C9166B017C0120E030E040EAD5
:1054100051E40E9474B687FF4EC0A70196016091C7
:10542000290670912A0680912B0690912C060E94E5
:105430007BB62B013C019B01AC016091F50570919D
:10544000F6058091F7059091F8050E94B2B8609337
:10545000F5057093F6058093F7059093F805A30181
:1054600092016091390670913A0680913B069091C5
:105470003C060E94B2B86093390670933A06809356
:105480003B0690933C0660914D0670914E068091CC
:105490004F06909150060E9414B7A30192010E94FA
:1054A000B2B80E94E8B660934D0670934E068093A2
:1054B0004F0690935006C0922906D0922A06E09299
:1054C0002B06F0922C0607C00E94C916F8016083D3
:1054D000718382839383CF5F0C5F1F4FC43009F0C9
:1054E00085CFCF911F910F91FF90EF90DF90CF90DC
:1054F000BF90AF907F906F905F904F900C948C898D
:105500000F931F93CF93DF93CCE3D5E00FE613E027
:10551000F8012081318142815381688179818A81BA
:105520009B810E949BB5AB01BC018FEA99E00E9470
:10553000498AF80124813581468157816C817D81BA
:105540008E819F810E949BB5AB01BC018BEA99E0E3
:105550000E94498AF80120853185428553856885F6
:1055600079858A859B850E949BB5AB01BC0187EA42
:1055700099E00E94498A4C855D856E857F8583EA26
:1055800099E00E94498ADF91CF911F910F910C946D
:1055900077974F925F926F927F928F929F92AF9286
:1055A000BF92CF92DF92EF92FF920F931F93CF9310
:1055B000DF9383E4C82E82E0D82E97E8E92E93E0AB
:1055C000F92E00E010E0C0E0D0E0F60181916F011B
:1055D0000E94BD16882309F44DC00E94C9164B01D4
:1055E0005C01C33059F0F801E159FC4F2081318151
:1055F000428153810E949AB54B015C01F801E45C41
:10560000FA4F2081318142815381C501B4010E944A
:105610009AB52B013C012DEB37E346E855EB0E9490
:1056200077B887FD0AC02DEB37E346E855E3C301A1
:10563000B2010E9474B61816ECF4C33051F4809293
:10564000480590924905A0924A05B0924B05D1E0D9
:1056500011C0A3019201F701608171818281938160
:105660000E949BB5F70160837183828393838C2FA3
:105670000E946819CF5FF4E0EF0EF11C0C5F1F4F22
:10568000C43009F0A2CFD1110E944A18DF91CF9106
:105690001F910F91FF90EF90DF90CF90BF90AF9050
:1056A0009F908F907F906F905F904F9029CFCF9376
:1056B000DF93E3E9F5E06491EF012196662331F091
:1056C00084EC9EE00E948513FE01F5CF60E083E844
:1056D00095E00E945A1561E08CE795E00E945A150A
:1056E00061E081E795E00E945A1561E081E695E06E
:1056F0000E945A1560E088E595E00E945A1561E025
:105700008EE495E00E945A1561E084E495E00E94E1
:105710005A1561E08CE395E00E945A1561E08EE233
:1057200095E00E945A1560E080E295E00E945A15CB
:1057300060E081E195E00E945A1560E083E095E029
:105740000E945A1560E08DEE94E00E945A1560E0C8
:105750008CED94E00E945A1560E087EC94E00E9482
:105760005A1561E084EB94E0DF91CF910C945A15C7
:10577000FF920F931F93CF93DF93C0918905D09130
:105780008A0583E0F12C40E08150D1F09881292FE7
:105790002B7F2134C9F729812133B1F7913421F0CE
:1057A000953421F441E002C0FF24F3949E012E5F62
:1057B0003F4FE9012F5F3F4F98819032D1F3E4CF03
:1057C000442371F0E6EDF6E164918F010F5F1F4F06
:1057D000662331F084EC9EE00E948513F801F4CF3B
:1057E000FF2071F0E9EAF4E064918F010F5F1F4F31
:1057F000662331F084EC9EE00E948513F801F4CF1B
:10580000BE0184EC9EE00E9469136AE084EC9EE095
:10581000DF91CF911F910F91FF900C948513CF933F
:1058200088EC90E00E942319811140C084E40E941A
:1058300072168823C1F10E94C916C1E020E030E051
:10584000A9010E9474B6811101C0C0E0C0938D050A
:10585000CC2349F10E94C916E091530324E0E29F52
:10586000F0011124EB51FA4F60837183828393839B
:1058700020E030E0A9016091E5057091E605809196
:10588000E7059091E8050E9474B681110CC080E094
:1058900090E0A0EEBFE38093E5059093E605A0932A
:1058A000E705B093E805CF910C942979CF9108953D
:1058B000CF9383E50E94BD168823A1F00E94C916EC
:1058C000609305067093060680930706909308067A
:1058D0006093FD057093FE058093FF05909300068D
:1058E000C0E001C0C1E080E50E94BD16882359F0E8
:1058F0000E94C916609305067093060680930706FA
:1059000090930806C0E082E50E94BD16882359F0F6
:105910000E94C916609301067093020680930306E5
:1059200090930406C0E084E50E94BD16882359F0D8
:105930000E94C9166093FD057093FE058093FF05D4
:10594000909300062CC0CC2351F140910506509154
:105950000606609107067091080689E994E00E94A6
:10596000498A4091010650910206609103067091A8
:10597000040686E994E00E94498A4091FD05509111
:10598000FE056091FF057091000683E994E00E9496
:10599000498A6AE084EC9EE0CF910C948513CF9104
:1059A0000895CF93DF9381E50E947216882351F00A
:1059B0000E94101760933D0670933E0680933F0649
:1059C0009093400683E50E947216882351F00E944E
:1059D000C9166093090670930A0680930B0690938C
:1059E0000C0684E50E947216882351F00E94C916A5
:1059F0006093F9057093FA058093FB059093FC057D
:105A000088E50E947216882351F00E94C91660939F
:105A1000E9057093EA058093EB059093EC0589E521
:105A20000E947216882351F00E94C9166093ED05FA
:105A30007093EE058093EF059093F0058AE50E9440
:105A400072168823F9F00E94C9166093F1057093CD
:105A5000F2058093F3059093F4052DEC3CEC4CECAF
:105A60005DE30E9474B618166CF0E1E6F4E0649110
:105A7000EF012196662331F084EC9EE00E948513AD
:105A8000FE01F5CF85E40E947216882351F00E9432
:105A9000C9166093F5057093F6058093F70590930A
:105AA000F805DF91CF910895EF92FF920F931F9326
:105AB000CF9383E4E82E82E0F82E0BE713E0C0E0FA
:105AC000F70181917F010E947216882351F00E9494
:105AD000C916F80160837183828393838C2F0E949F
