:100000000C94D9120C9403130C9403130C94031343
:100010000C9403130C9403130C9403130C94031308
:100020000C9403130C9403130C941FDD0C949CDDAF
:100030000C9403130C9403130C9403130C940313E8
:100040000C9403130C94FD910C9403130C94031360
:100050000C9403130C9403130C949AA50C947EDC5B
:100060000C9403130C9403130C9403130C940313B8
:100070000C9403130C9403130C9403130C940313A8
:100080000C9403130C9403130C9403130C94031398
:100090000C9403130C9403130DDA39DA5BDA5BDA90
:1000A0005BDA5BDA5BDA5BDA5BDA5BDA5BDA5BDAA8
:1000B0005BDA5BDA51DA49DA41DA5BDA5BDA5BDACE
:1000C0005BDA5BDA5BDA5BDA33DA19DA21DA2BDA5C
:1000D000084AD73B3BCE016E84BCBFFDC12F3D6CAF
:1000E00074319ABD56833DDA3D00C77F11BED9E415
:1000F000BB4C3E916BAAAABE000000803F05A84CF5
:10010000CDB2D44EB93836A9020C50B991868808C0
:100110003CA6AAAA2ABE000000803F004E414E49DC
:100120004E495459494E46CDCCCC3D0AD7233C17B5
:10013000B7D13877CC2B329595E6241FB14F0A0002
:100140000020410000C84200401C4620BCBE4CCAF2
:100150001B0E5AAEC59D74446F6E6520736176693F
:100160006E672066696C652E0A004D3239002020CA
:10017000506C616E6E657242756666657242797426
:1001800065733A20002046726565204D656D6F727B
:10019000793A2000436F6D70696C65643A204A7546
:1001A0006E20323720323031390A00207C204175F0
:1001B00074686F723A202844722E5068696C334418
:1001C000290A00323031382D30382D303100204CA2
:1001D00061737420557064617465643A2000312E37
:1001E000312E390A004D61726C696E0020536F66C2
:1001F00074776172652052657365740A00205761D7
:10020000746368646F672052657365740A002042E6
:10021000726F776E206F75742052657365740A0073
:100220002045787465726E616C2052657365740A3E
:1002300000506F77657255700A0073746172740AAA
:10024000005072696E7465722068616C7465642E0A
:10025000206B696C6C28292063616C6C6564210AD1
:10026000004B494C4C45442E20004B494C4C2063DC
:10027000617573656420627920746F6F206D75639A
:100280006820696E6163746976652074696D6520A4
:100290002D2063757272656E7420636F6D6D616E73
:1002A000643A200020746F6F206C6F6E6720657851
:1002B00074727573696F6E2070726576656E7465A1
:1002C000640A0020636F6C642065787472757369CA
:1002D0006F6E2070726576656E7465640A006F6B70
:1002E00000526573656E643A20003A004361703ACB
:1002F0000000011C1D132FFFFFFFFF1E1F12FF1424
:10030000FFFFFF20211124FFFFFFFFFFFFFF0E1063
:10031000FFFFFF22230DFFFFFF0E260F2C27416357
:10032000746976652045787472756465723A200048
:1003300020453A00205A3A0020593A00583A002CF9
:1003400020002C2000627573793A20706175736506
:100350006420666F7220696E7075740A006275732E
:10036000793A2070617573656420666F72207573C9
:1003700065720A00627573793A2070726F636573F3
:1003800073696E670A0050726F62696E67206661FA
:10039000696C65640A0050726F62696E67206661FD
:1003A000696C656400205A3A200020593A200042C6
:1003B000656420583A2000486F6D652025732573C9
:1003C0002573206669727374002066697273740AFB
:1003D000005A0059005800486F6D65200020496E92
:1003E00076616C696420657874727564657220004A
:1003F000656E7175657565696E67202200496E7658
:10040000616C69642065787472756465720A004E67
:100410006F2063617365206C696768740A004164CA
:1004200076616E6365204B3D003F4B2076616C75B5
:1004300065206F7574206F662072616E6765202875
:10044000302D3130292E0A003A200050726F62653B
:10045000205A204F6666736574003F5A206F75748A
:10046000206F662072616E676520282D3220746FC0
:10047000203230290A00454550524F4D204F4B0A3B
:10048000004F666673657473206170706C69656493
:10049000004572723A20546F6F20666172210054D9
:1004A0006F6F206661722066726F6D20726566657F
:1004B00072656E636520706F696E740A00426564D0
:1004C000204C6576656C696E6720004661696C65D5
:1004D0006420746F20656E61626C652042656420E3
:1004E0004C6576656C696E670A00426564204C65F0
:1004F00076656C20436F7272656374696F6E204D10
:1005000061747269783A0043290A0061626C65641B
:1005100020286D696E2074656D702000436F6C64D7
:100520002065787472756465732061726520004976
:100530006E76616C69642065787472756465720AA0
:100540000020643A0020693A0020703A0050726F2F
:100550006265205A204F66667365743A2000204613
:100560006C6F773A2000205A002059005800202054
:100570004D61783A2000205A002059005800202070
:100580004D696E3A20004F6666004F6E2000536F33
:10059000667420656E6473746F70733A2000205423
:1005A00000205200416363656C65726174696F6E0F
:1005B0003A2050002F2F2000544845524D414C5FA7
:1005C00050524F54454354494F4E004155544F5299
:1005D00045504F52545F53445F5354415455530058
:1005E000454D455247454E43595F50415253455240
:1005F00000434153455F4C494748545F4252494785
:1006000048544E45535300544F47474C455F4C495F
:100610004748545300534F4654574152455F504F3B
:10062000574552004255494C445F50455243454E50
:1006300054004C4556454C494E475F444154410097
:100640005A5F50524F4245004155544F4C45564514
:100650004C005052494E545F4A4F420050524F474F
:1006600052455353004155544F5245504F52545FD9
:1006700054454D5000564F4C554D4554524943003A
:10068000454550524F4D0053455249414C5F584FDC
:100690004E5F584F4646004649524D574152455FBE
:1006A0004E414D453A4D61726C696E20312E312EAE
:1006B0003920284769746875622920534F55524381
:1006C000455F434F44455F55524C3A6874747073AC
:1006D0003A2F2F6769746875622E636F6D2F4D61B5
:1006E000726C696E4669726D776172652F4D6172C9
:1006F0006C696E2050524F544F434F4C5F564552D9
:1007000053494F4E3A312E30204D414348494E45D2
:100710005F545950453A5072696E7472626F74201A
:1007200053696D706C65204D6574616C204558543B
:1007300052554445525F434F554E543A312055551A
:1007400049443A34306365363164312D3265643062
:100750002D343533302D383330342D353565336510
:10076000656161656266660A005072696E747262E4
:100770006F742053696D706C65204D6574616C20D9
:100780004F66662E004D31343520533C696E6465EA
:10079000783E206F7574206F662072616E676520E9
:1007A00028302D31290A004D3131332053006F6636
:1007B000660044454255473A00E407DF07D807D1B1
:1007C00007C307434F4D4D554E49434154494F4E82
:1007D0000044525952554E004552524F525300490F
:1007E0004E464F004543484F0020573A00452043AE
:1007F0006F6F6C696E672E2E2E0045204865617400
:10080000696E672E2E2E004B494C4C45442E20001D
:100810006F6B0050726F7465637465642050696E0D
:100820000A005072696E742074696D653A20004345
:10083000757272656E742066696C653A2000456E4B
:10084000642066696C65206C6973740A0042656790
:10085000696E2066696C65206C6973740A004E6F5E
:10086000206D6F76652E00436C69636B20746F207A
:10087000726573756D652E2E2E00205A3A20002069
:10088000593A200042656420583A20004731205AE6
:100890003130204637303030000A0A426564204C3F
:1008A0006576656C20436F7272656374696F6E2044
:1008B0004D61747269783A00202844525952554E5D
:1008C0002900473239204175746F20426564204CFD
:1008D0006576656C696E67003F2856296572626FA0
:1008E0007365206C6576656C20697320696D706C2A
:1008F00061757369626C652028302D34292E0A00D9
:10090000486F6D652058592066697273740A0048F3
:100910006F6D6520585920666972737400536C6559
:1009200065702E2E2E0047322F47332062616420DF
:10093000706172616D65746572730A005761726EE1
:10094000696E673A20486F6D696E672042756D70F9
:100950002044697669736F72203C20310A000202DC
:100960000453442072656164206572726F720A00DC
:10097000446F6E65207072696E74696E6720666977
:100980006C650A004B494C4C45442E200053544F93
:10099000505045442E20005072696E746572207369
:1009A000746F707065642064756520746F20657263
:1009B000726F72732E2046697820746865206572A4
:1009C000726F7220616E6420757365204D393939FC
:1009D00020746F20726573746172742E20285465C0
:1009E0006D706572617475726520697320726573CC
:1009F00065742E2053657420697420616674657275
:100A00002072657374617274696E67290A004E6F93
:100A100020436865636B73756D2077697468206C1B
:100A2000696E65206E756D6265722C204C61737401
:100A3000204C696E653A20004E6F20436865636BF9
:100A400073756D2077697468206C696E65206E75AA
:100A50006D6265722C204C617374204C696E653A2E
:100A60002000636865636B73756D206D69736D61DC
:100A70007463682C204C617374204C696E653A2055
:100A8000004C696E65204E756D6265722069732039
:100A90006E6F74204C617374204C696E65204E75C6
:100AA0006D6265722B312C204C617374204C696E21
:100AB000653A20004D31313000FF01FF0000A040B9
:100AC0000000A040000000400000184300001A434E
:100AD0000000184300000000000018430000000060
:100AE00000001843000018430000184300000000F5
:100AF000000000C000000000000048420000484222
:100B000000008040000000002569730025696D2009
:100B1000256973002569682025696D2025697300A2
:100B2000256964202569682025696D202569730081
:100B300025697920256964202569682025696D204B
:100B4000256973007C3C3E5E2B3D3F2F5B5D3B2C5B
:100B50002A225C004D33310043616E6E6F74206554
:100B60006E746572207375626469723A20006F70EA
:100B7000656E206661696C65642C2046696C653A17
:100B800020006175746F25692E67006572726F723F
:100B90002077726974696E6720746F2066696C656E
:100BA0000A004E6F74205344207072696E74696E2F
:100BB000670A005344207072696E74696E67206220
:100BC000797465200044656C6574696F6E20666198
:100BD000696C65642C2046696C653A200046696C36
:100BE000652064656C657465643A00577269746960
:100BF0006E6720746F2066696C653A20006F7065BF
:100C00006E206661696C65642C2046696C653A20CB
:100C1000006F70656E206661696C65642C204669A2
:100C20006C653A200046696C652073656C65637479
:100C300065640A002053697A653A200046696C654C
:100C4000206F70656E65643A20002066696C653AB5
:100C50002000667265736800646F696E67004E6F8E
:100C6000772000454E4420535542524F5554494E2B
:100C7000450A002220706F73002220706172656E39
:100C8000743A2200535542524F5554494E45204321
:100C9000414C4C207461726765743A22004B494C98
:100CA0004C45442E2000747279696E6720746F2061
:100CB00063616C6C207375622D67636F6465206679
:100CC000696C6573207769746820746F6F206D613B
:100CD0006E79206C6576656C732E204D4158206CC2
:100CE0006576656C2069733A004D3234004D3233BD
:100CF0002025730053442063617264206F6B0A00E7
:100D00006F70656E526F6F74206661696C65640AFE
:100D100000766F6C756D652E696E69742066616909
:100D20006C65640A00534420696E697420666169C9
:100D30006C0A00286E6F2066696C65290043616E3D
:100D40006E6F74206F70656E2073756264697220B7
:100D50000020204D393030204B004C696E656172A7
:100D600020416476616E63653A0A0020204D383573
:100D700031205A005A2D50726F6265204F6666739B
:100D800065740020440020490020204D333031207C
:100D900050005049442073657474696E67733A0A51
:100DA0000020460020420020480020204D313435EC
:100DB0002053004D6174657269616C2068656174CF
:100DC000757020706172616D65746572733A0A00A6
:100DD00020204D3432302053004175746F2042651D
:100DE00064204C6576656C696E673A0A00205A008B
:100DF00020590020204D323036205800486F6D6554
:100E0000206F66667365743A0A00204500205A0018
:100E100020590020580020540020530020204D323B
:100E2000303520510020453C6D61785F655F6A6513
:100E3000726B3E0020583C6D61785F785F6A657226
:100E40006B3E20593C6D61785F795F6A65726B3EDD
:100E5000205A3C6D61785F7A5F6A65726B3E004133
:100E60006476616E6365643A20513C6D696E5F73B0
:100E700065676D656E745F74696D655F75733E203F
:100E8000533C6D696E5F66656564726174653E2092
:100E9000543C6D696E5F74726176656C5F66656502
:100EA00064726174653E0020540020520020204D81
:100EB000323034205000416363656C65726174693F
:100EC0006F6E2028756E6974732F7332293A205023
:100ED0003C7072696E745F616363656C3E20523C66
:100EE000726574726163745F616363656C3E205404
:100EF0003C74726176656C5F616363656C3E0A0089
:100F0000204500205A0020590020204D3230312049
:100F100058004D6178696D756D20416363656C653E
:100F2000726174696F6E2028756E6974732F7332E5
:100F3000293A0A00204500205A0020590020204D5F
:100F40003230332058004D6178696D756D206665CB
:100F5000656472617465732028756E6974732F738C
:100F6000293A0A00204500205A0020590020204D2F
:100F70003932205800537465707320706572207583
:100F80006E69743A0A0020204D3230302044300A15
:100F90000020204D323030204400204469736162CB
:100FA0006C65640A0046696C616D656E74207365DA
:100FB0007474696E67733A0020204D3134392043D0
:100FC000203B20556E69747320696E2043656C73F5
:100FD0006975730A002020473231202020203B0011
:100FE00048617264636F6465642044656661756C12
:100FF000742053657474696E6773204C6F61646507
:10100000640A00D0070000D0070000640000001050
:1010100027000000001643000016430000E04000D7
:101020000020420000A0420000A0420080FC4400DA
:1010300000BD42290A002062797465733B20637207
:101040006320002073746F72656420736574746923
:101050006E67732072657472696576656420280016
:10106000202863616C63756C6174656429210A00D2
:1010700020213D2000454550524F4D2043524320F2
:101080006D69736D61746368202D202873746F72AD
:1010900065642920002053697A653A2000496E640E
:1010A00065783A2000204D61726C696E3D56353589
:1010B000290A0028454550524F4D3D0045455052A4
:1010C0004F4D2076657273696F6E206D69736D6127
:1010D0007463682000290A002062797465733B20DC
:1010E000637263200053657474696E677320537470
:1010F0006F726564202800454550524F4D20646151
:10110000746173697A65206572726F722E0A004588
:1011100072726F722077726974696E6720746F20C3
:10112000454550524F4D210A003A0A0020286D6D66
:1011300029006F70656E0054524947474552454437
:10114000003A20007A5F6D696E00795F6D6178000A
:10115000785F6D696E005265706F7274696E67209A
:10116000656E6473746F70207374617475730A00B4
:10117000456E6473746F707320256320256320258A
:101180006320256300205A3A0020593A0020583A3B
:1011900000656E6473746F7073206869743A200020
:1011A000486F6D696E67206661696C656400556E95
:1011B0006B6E6F776E20636F6D6D616E643A202287
:1011C0000020746F6F206C6F6E6720657874727585
:1011D00073696F6E2070726576656E7465640A005F
:1011E00020636F6C6420657874727573696F6E200C
:1011F00070726576656E7465640A00FFFDFCFAF82E
:10120000F6F4F2F0EEECEAE9E7E5E3E1E0DEDCDA61
:10121000D9D7D5D4D2D0CFCDCBCAC8C7C5C3C2C009
:10122000BFBDBCBAB9B7B6B4B3B2B0AFADACAAA982
:10123000A8A6A5A4A2A1A09E9D9C9A9998979594D2
:101240009392908F8E8D8B8A898887868483828102
:10125000807F7E7D7B7A7978777675747372717012
:101260006F6E6D6C6B6A6968676665646362616006
:101270005F5E5D5C5B5A59585857565554535251EE
:1012800050504F4E4D4C4B4A4A49484746464544BC
:1012900043424241403F3E3E3D3C3B3B3A39383879
:1012A00037363535343332323130302F2E2E2D2C27
:1012B0002B2B2A29292827272625252423232221C9
:1012C0002120201F1E1E1D1C1C1B1B1A191918185B
:1012D000171616151514131312121111100F0F0EE5
:1012E0000E0D0D0C0C0B0A0A090908080707060663
:1012F00005050404030302020100000000000100D0
:1013000000000100008000555555000000400033EA
:10131000333300AAAA2A004992240000002000C703
:10132000711C0099991900D1451700555515003BBE
:10133000B113002449120011111100000010000F18
:101340000F0F00E3380E0043790D00CCCC0C00C326
:10135000300C00E8A20B0064210B00AAAA0A00705E
:101360003D0A009DD80900427B090092240900DC57
:10137000D30800888808001042080000000800F028
:10138000C107008787070075500700711C07003EE2
:10139000EB0600A1BC0600699006006666060070B8
:1013A0003E06006118060017F4050074D105005BC5
:1013B000B00500B290050062720500555505007831
:1013C000390500B81E0500050505004EEC04008730
:1013D000D40400A1BD040090A7040049920400C1F8
:1013E0007D0400EE690400C7560400444404005C18
:1013F0003204000821040041100400000004003FF2
:10140000F00300F8E0030026D20300C3C30300CCBE
:10141000B503003AA803000A9B0300388E0300C0FE
:101420008103009F750300D0690300505E03001D17
:1014300053030034480300913D0300333303001687
:10144000290300381F030097150300300C03000325
:101450000303000BFA020049F10200BAE802005C43
:10146000E002002DD802002DD0020059C80200B0C1
:10147000C0020031B90200DAB10200AAAA0200A03B
:10148000A30200BC9C0200FA9502005C8F0200DF00
:1014900088020082820200457C0200277602002733
:1014A000700200436A02007C640200D05E02003FCA
:1014B000590200C85302006563686F3A00457272B2
:1014C0006F723A00205A3A0020593A0020436F7553
:1014D0006E7420583A00232C0000B82200005618E1
:1014E00000003A0F0000B8080000B10400007102CB
:1014F00000003E01000024F4D43050C38E20C2A26C
:101500004017828B7011127A910D816CD90AA861F3
:10151000E108C7586607615143061E4B5D05C1458A
:10152000A7041A411104093D98037139310340366B
:10153000DB0265339102D4305402802E1D02632CED
:10154000EE01752AC501B028A001102781018F2561
:1015500064012B244B01E0223401AC211F018D20BA
:101560000D01801FFC00841EED00971DDF00B81CDC
:10157000D200E61BC600201BBC00641AB200B219E0
:10158000A8000A19A0006A189900D1179100401705
:101590008B00B516840031167E00B31579003A151C
:1015A0007300C7146F0058146A00EE1366008813A6
:1015B000630025135E00C7125B006C125700151202
:1015C0005400C111510070114F0021114B00D61071
:1015D00049008D1047004610440002104200C00F21
:1015E0004000800F3E00420F3C00060F3B00CB0E38
:1015F0003800930E37005C0E3500270E3400F30DD3
:101600003200C10D3100900D3000600D2E00320D02
:101610002D00050D2C00D90C2B00AE0C2900850CDB
:1016200029005C0C2700350C27000E0C2600E80B67
:101630002400C40B2400A00B23007D0B23005A0BB5
:101640002100390B2100180B2000F80A1F00D90ACD
:101650001E00BB0A1E009D0A1D00800A1D00630AB1
:101660001C00470A1B002C0A1B00110A1A00F7096C
:101670001A00DD091900C4091900AB091900920903
:1016800017007B091800630917004C09160036097A
:101690001600200916000A091500F5081500E008D3
:1016A0001400CC081400B8081400A4081400900812
:1016B00013007D0812006B0813005808120046083A
:1016C000120034081100230811001208110001084B
:1016D0001100F0071000E0071000D0071000C0074D
:1016E0001000B0070F00A107100091070E0083073C
:1016F0000F0074070F0065070E0057070E0049071B
:101700000E003B070D002E070E0020070D001307EB
:101710000D0006070D00F9060C00ED060D00E006B1
:101720000C00D4060C00C8060C00BC060C00B00669
:101730000C00A4060B0099060C008D060B00820617
:101740000B0077060B006C060B0061060A005706BB
:101750000B004C060A0042060A0038060A002E0654
:101760000A0024060A001A060A00100609000706E5
:101770000A00FD050900F4050900EB050900E20572
:101780000900D9050900D0050900C7050900BE05F3
:101790000900B5050800AD050800A50509009C0570
:1017A0000800940508008C050800840508007C05E5
:1017B0000800740508006C050700650508005D0554
:1017C0000700560508004E050700470507004005BD
:1017D000080038050700310507002A050700230522
:1017E00007001C050600160507000F050700080581
:1017F000060002050700FB040600F5040700EE04DE
:101800000600E8040600E2040700DB040600D50435
:101810000600CF040600C9040600C3040600BD0488
:101820000600B7040600B1040500AC040600A604D7
:101830000600A00405009B04060095040500900422
:1018400006008A04050085040500800406007A0469
:10185000050075040500700405006B0405006604AE
:101860000500610405005C040500570405005204EE
:1018700005004D04050048040500430405003E042E
:1018800004003A04050035040500300404002C046B
:10189000050027040400230405001E0404001A04A4
:1018A000040016040500110404000D0404000904DA
:1018B00005000404040000040400FC030400F80311
:1018C0000400F4030400F0030400EC030400E80344
:1018D0000400E4030400E0030400DC030400D80374
:1018E0000400D4030400D0030400CC030400C803A4
:1018F0000300C503030024F404D9201BC40C5C0EB0
:101900009804C4095F0265077101F405F900FB043E
:10191000B30048048700C10369005803550003035E
:101920004500BE023A008402310053022A00290217
:10193000250004022000E4011C00C8011900AF01C9
:101940001700980114008401130071011000610157
:10195000100051010E0043010D0036010B002B0158
:101960000B0020010B00150109000C010900030107
:101970000800FB000800F3000800EB000700E4008B
:101980000600DE000600D8000600D2000600CC00EB
:101990000500C7000500C2000500BD000400B90035
:1019A0000400B5000400B1000400AD000400A9006B
:1019B0000400A5000300A20003009F0004009B0098
:1019C00003009800030095000200930003009000BC
:1019D00003008D0002008B000300880002008600D7
:1019E000020084000300810002007F0002007D00ED
:1019F00002007B00020079000200770001007600FF
:101A000002007400020072000100710002006F0009
:101A100002006D0001006C0002006A000100690014
:101A2000020067000100660001006500010064001B
:101A300002006200010061000100600001005F001F
:101A400002005D0001005C0001005B0001005A0023
:101A50000100590001005800010057000100560024
:101A60000100550001005400010053000000530024
:101A700001005200010051000100500001004F0020
:101A800001004E0000004E0001004D0001004C001E
:101A900001004B0000004B0001004A00010049001A
:101AA0000100480000004800010047000100460016
:101AB0000000460001004500000045000100440010
:101AC000010043000000430001004200000042000A
:101AD00001004100000041000100400001003F0002
:101AE00000003F0001003E0000003E0001003D00FC
:101AF00000003D0001003C0000003C0000003C00F4
:101B000001003B0000003B0001003A0000003A00E9
:101B100001003900000039000100380000003800E1
:101B200000003800010037000000370001003600D7
:101B300000003600000036000100350000003500CE
:101B400000003500010034000000340000003400C3
:101B500001003300000033000000330001003200B8
:101B600000003200000032000100310000003100AE
:101B700000003100010030000000300000003000A3
:101B800001002F0000002F0000002F0000002F0098
:101B900001002E0000002E0000002E0001002D008C
:101BA00000002D0000002D0000002D0001002C0081
:101BB00000002C0000002C0000002C0001002B0075
:101BC00000002B0000002B0000002B0001002A0069
:101BD00000002A0000002A0000002A00010029005D
:101BE0000000290000002900000029000000290051
:101BF0000100280000002800000028000000280044
:101C00000000280001002700000027000000270036
:101C10000000270000002700010026000000260029
:101C2000000026000000260000002600010025001C
:101C30000000250000002500000025000000250010
:101C40000000250001002400000024000000240002
:101C500000002400000024000100230000002300F5
:101C600000002300000023000000230000002300E8
:101C700000002300010022000000220000002200DA
:101C800000002200000022000000220001002100CC
:101C900000002100000021000000210000002100C0
:101CA00000002100000021000100200000002000B1
:101CB00000002000000020000000200000002000A4
:101CC000000020000000200001001F0000001F0095
:101CD00000001F0000001F0000001F0000001F0088
:101CE00000001F0001001E0000001E0000001E007A
:101CF00000001E00000020403A00202F00546865BC
:101D0000726D616C2052756E61776179004531208A
:101D1000544845524D414C2052554E41574159006F
:101D20004B494C4C45442E2000202D20496E7661B5
:101D30006C6964206578747275646572206E756D67
:101D400062657220210A0048656174696E672066C9
:101D500061696C65640045312048656174696E672E
:101D6000206661696C6564004D494E54454D5020B4
:101D700074726967676572656400453120457272E7
:101D80003A204D494E54454D50004D415854454D13
:101D9000502074726967676572656400453120453B
:101DA00072723A204D415854454D50006265640AA4
:101DB000002C2073797374656D2073746F70706577
:101DC0006421204865617465725F49443A20002CA3
:101DD000FFFFFFFFFF000101010101236465666948
:101DE0006E652044454641554C545F4B64200023AA
:101DF000646566696E652044454641554C545F4BA9
:101E000069200023646566696E6520444546415536
:101E10004C545F4B702000504944204175746F74DE
:101E2000756E652066696E697368656421205075FA
:101E30007420746865206C617374204B702C204B87
:101E40006920616E64204B6420636F6E7374616EF1
:101E500074732066726F6D2062656C6F7720696E97
:101E6000746F20436F6E66696775726174696F6E17
:101E70002E680A00504944204175746F74756E6570
:101E8000206661696C6564212074696D656F757485
:101E90000A00546865726D616C2052756E617761DD
:101EA0007900453120544845524D414C2052554E01
:101EB000415741590048656174696E6720666169E0
:101EC0006C65640045312048656174696E67206601
:101ED00061696C656400504944204175746F747584
:101EE0006E65206661696C6564212054656D70655E
:101EF00072617475726520746F6F20686967680A13
:101F000000204B643A2000204B693A2000204B709F
:101F10003A20000A20436C6173736963205049447E
:101F2000200A002054753A2000204B753A200020EA
:101F30006D61783A2000206D696E3A200020643A85
:101F4000200020626961733A2000504944204175A5
:101F5000746F74756E652073746172740A005049F1
:101F600044204175746F74756E65206661696C6597
:101F70006421204261642065787472756465722002
:101F80006E756D6265720A004D38342058205920F4
:101F90005A20450070012C0190012701B001220157
:101FA000C0011D01F00118011002130130020E01E1
:101FB0006002090190020401C002FF000003FA0060
:101FC0004003F5008003F000D003EB002004E6009E
:101FD0007004E100E004DC004005D700C005D20039
:101FE0004006CD00D006C8008007C3003008BE0000
:101FF000F008B900C009B400B00AAF00B00BAA00E5
:10200000D00CA500000EA000500F9B00C010960041
:102010005012910000148C00C0158700B017820088
:10202000B0197D00D01B7800001E730040206E00A8
:1020300090226900F024640040275F0090295A0034
:10204000E02B5500102E500020304B00103246007F
:10205000E033410090353C001037370070383200D3
:10206000A0392D00B03A2800A03B2300603C1E00A0
:10207000103D1900903D1400103E0F00703E0A0004
:10208000C03E0500003F0000403FFBFF803FF6FFE1
:10209000C03FF1FF052E2E0004526566726573681D
:1020A000004D61696E0046696C2E204469612E0006
:1020B00046696C2E204469612E004520696E206DB2
:1020C0006D33004F6666004F6E2000416476616E8E
:1020D0006365204B00416476616E6365204B00436D
:1020E0006F6E74726F6C0050726F6265205A204F71
:1020F000666673657400436F6E74726F6C0050494E
:10210000442D44005049442D44005049442D490079
:102110005049442D49005049442D50005049442D08
:102120005000200220466163740020022046616353
:1021300074002002204D6178002002204D6178005B
:102140002002204D696E002002204D696E0041750D
:10215000746F74656D70004F6666004F6E200046A8
:10216000616E2073706565640046616E20737065F2
:102170006564004E6F7A7A6C65004E6F7A7A6C6592
:1021800000436F6E74726F6C00526573746F72658A
:10219000206661696C73616665004C6F61642073D1
:1021A000657474696E67730053746F72652073652C
:1021B0007474696E67730046696C616D656E740056
:1021C0004D6F74696F6E0054656D706572617475E2
:1021D0007265004D61696E00457874727564657250
:1021E000004D6F7665205A004D6F76652059004D81
:1021F0006F7665205800536F667420456E64737463
:102200006F7073004F6666004F6E200050726570ED
:10221000617265004D6F766520302E316D6D004D19
:102220006F766520316D6D004D6F76652031306DB4
:102230006D004D6F76652061786973004578747222
:1022400075646572004D6F7665205A004D6F766536
:102250002059004D6F76652058004578747275647A
:102260006572004D6F7665205A004D6F7665205976
:10227000004D6F7665205800507265686561742066
:10228000414253005072656865617420504C4100B2
:10229000436F6F6C646F776E0044697361626C6545
:1022A000207374657070657273004D383400417529
:1022B000746F20686F6D6500473238004D6F76652A
:1022C0002061786973004D61696E0050726F6265BC
:1022D000205A204F666673657400466C6F7700461F
:1022E0006C6F770046616E207370656564004661AF
:1022F0006E207370656564004E6F7A7A6C65004E6F
:102300006F7A7A6C6500537065656400537065651B
:1023100064004D61696E00496E69742E205344203B
:1023200063617264004D3231004E6F20534420636C
:10233000617264004368616E676520534420636185
:102340007264004D3231005072696E742066726F93
:102350006D2053440053746F70207072696E740066
:10236000526573756D65207072696E740050617589
:102370007365207072696E7400436F6E74726F6C57
:1023800000507265706172650054756E6500496E2B
:10239000666F2073637265656E005072696E74209B
:1023A00061626F72746564005072696E7472626FFC
:1023B000742053696D706C65204D6574616C20529A
:1023C000656164792E005072696E74696E672E2E95
:1023D0002E005072696E7420706175736564002DF3
:1023E0002D2D00534400001C1F11111F000000067A
:1023F000191803130C00040E1F041C000000000E2B
:102400001315110E00001C10181705060500040A0C
:102410000A0A0A11110E0C12120C00000000001F13
:102420001511151F000050726F6265205A204F660B
:102430006673657400506C656173652072657365C1
:1024400074005052494E5445522048414C54454422
:102450000020202020002020202020200025753A68
:102460002530327500253032753A2530327500013D
:102470002902290429082910292029402980290115
:102480002C022C012602260426082610262026408F
:10249000268026402C802C012302230423082310AD
:1024A0002320234023802301200220042008201021
:1024B00020202040208020102C202C012F022F04CF
:1024C0002F082F102F202F402F802F7EFE7EFD7E85
:1024D000FB7EF77EEF7EDF7EBF7E7F000100008CFB
:1024E0002512000200004925430003000045250491
:1024F000010309042B2518020309041325160303FD
:10250000090405250C0C033100320033003400357A
:1025100000000016035500530042002000530065E0
:10252000007200690061006C00000018035400652F
:102530000065006E00730079006400750069006E2C
:10254000006F0000000403090409024300020100B7
:10255000C03209040000010202010005240010013C
:1025600005240100010424020605240600010705D4
:10257000820308004009040100020A000000070568
:10258000030240000007058402400000120100021F
:1025900002000020C0168304720201020301000140
:1025A000C1020180360181369D36649040B5E9E074
:1025B000A13611241FBECFEFD0E2DEBFCDBF12E0A7
:1025C000A0E0B1E0EAE1FAED01E00BBF02C0079044
:1025D0000D92A234B107D9F722E1A2E4B2E001C022
:1025E0001D92A93AB207E1F712E1C8EDD2E104C0A9
:1025F0002197FE010E9471E1C43DD107C9F70E94F5
:102600009FD90C9400ED0C9400004F925F926F9252
:102610007F928F929F92AF92BF92CF92DF92EF9272
:10262000FF92CF934B015C0169017A0120E030E019
:1026300040EA51E40E9499E12B013C012FE632E18E
:1026400043E85AEB0E9476E487FD48C022E430E07C
:1026500048E153E4C301B2010E9473E218160CF47E
:102660003DC022E630E140E050ECC701B6010E94D7
:1026700076E487FD33C022E430E048E153E4C7014B
:10268000B6010E9473E218164CF124EF3DEF4FE9BA
:1026900051E4C501B4010E9476E487FD1FC022E425
:1026A00030E04EE053E4C501B4010E9473E2181615
:1026B000ACF027EE3BEF4FE151E4C701B6010E94B9
:1026C00076E487FD0BC0C1E022E430E04EE053E445
:1026D000C701B6010E9473E218160CF4C0E08C2FFB
:1026E000CF91FF90EF90DF90CF90BF90AF909F90F1
:1026F0008F907F906F905F904F900895CF93DF936E
:102700001F92CDB7DEB76983DC01ED91FC910280A9
:10271000F381E02D41E050E0BE016F5F7F4F0995EE
:102720000F90DF91CF910895FF920F931F93CF9356
:10273000DF93F82E092F162FECEEF2E06491EF01F3
:102740002196662329F08DE992E1D8DFFE01F6CFCC
:10275000EF2DF02F6491EF012196662329F08DE98A
:1027600092E1CCDFFE01F6CFEAEEF2E06491EF01F8
:102770002196662329F08DE992E1C0DFFE01F6CFB4
:10278000412F50E060E070E08DE992E10E94EBD8CB
:102790006AE08DE992E1DF91CF911F910F91FF9057
:1027A000ADCFFC01238121110C94AC4E08952F92E2
:1027B0003F924F925F926F927F928F929F92AF92D1
:1027C000BF92CF92DF92EF92FF920F931F93CF931E
:1027D000DF93EB01FC0180809180A280B380C50172
:1027E000B40120E831E541E050E00E9433E1C90145
:1027F0006DE671E00E940CE16B017C01C501B40142
:1028000020E13EE040E050E00E9433E1CA01B9011E
:1028100028E130E040E050E00E9433E1362E272EE0
:10282000062F172F8CE3482E512C612C712CC501DB
:10283000B401A30192010E9433E1B62EA72ECA0172
:10284000B901A30192010E9433E1CB01C114D1046B
:10285000D9F0AF92BF927F936F932F923F92FF92E6
:10286000EF92DF92CF9280E39BE09F938F93DF9371
:10287000CF930E94D4E98DB79EB70E960FB6F89409
:102880009EBF0FBE8DBF5CC0E114F104C9F0AF92D2
:10289000BF927F936F932F923F92FF92EF9280E2CD
:1028A0009BE09F938F93DF93CF930E94D4E9EDB782
:1028B000FEB73C960FB6F894FEBF0FBEEDBF40C00A
:1028C000012BB9F0AF92BF927F936F932F923F92FB
:1028D00084E19BE09F938F93DF93CF930E94D4E991
:1028E0008DB79EB70A960FB6F8949EBF0FBE8DBFE8
:1028F00027C0892BA9F0AF92BF927F936F938CE092
:102900009BE09F938F93DF93CF930E94D4E9EDB721
:10291000FEB738960FB6F894FEBF0FBEEDBF10C0DD
:10292000AF92BF9288E09BE09F938F93DF93CF930A
:102930000E94D4E90F900F900F900F900F900F907E
:10294000DF91CF911F910F91FF90EF90DF90CF908B
:10295000BF90AF909F908F907F906F905F904F90BF
:102960003F902F90089581548A3108F041C0E82F9C
:10297000F0E040916209509163096091640970919F
:10298000650904C076956795579547958A95D2F75E
:10299000842F817040FF33C0E85BF64F908199230C
:1029A00001F1E0916D09F0916E09E90FF11D90813F
:1029B00020ED290F2A3080F09E3229F49181905326
:1029C0009A3078F409C09D3211F09B3251F4918114
:1029D00020ED290F2A3018F42E2F9F2F04C09E328D
:1029E00049F020E090E02093690990936A090895E6
:1029F00080E00895928190539A3098F7EDCF089532
:102A0000B2DF882341F081E02091690930916A09A1
:102A1000232B09F480E008950F931F93CF938091A7
:102A2000690990916A09009711F1FC018F01C19128
:102A30002C2F2F7DA9F0C53411F0C536B9F7F80158
:102A4000108260E070E08091690990916A090E94AB
:102A50007BE5F801C083562F472F382F292F0BC055
:102A600060E070E0CF911F910F910C947BE550E0F6
:102A700040E030E020E0652F742F832F922FCF911C
:102A80001F910F9108958091690990916A090097AB
:102A900031F04AE050E060E070E00C94CEE660E097
:102AA00070E0CB0108958091690990916A090097BF
:102AB00031F04AE050E060E070E00C94F9E760E04B
:102AC00070E0CB010895DFDF97FD0AC0DCDF6F3FC8
:102AD00071058105910509F02CF4D5DF862F089545
:102AE00080E008958FEF08958091690990916A09B7
:102AF000892B31F0E8DF91E0811103C090E001C043
:102B000091E0892F08950F931F93CF93DF93CDB753
:102B1000DEB72C970FB6F894DEBF0FBECDBFE8EA44
:102B2000F4E080859185A285B385448155816681D5
:102B30007781008111812281338109871A872B8750
:102B40003C874D835E836F83788789839A83AB83C9
:102B5000BC83AE014F5F5F4FBE016B5F7F4FCE0105
:102B600009960E94837F24EB34E0AE014F5F5F4FF4
:102B7000BE016B5F7F4FCE0109960E94258E2C9679
:102B80000FB6F894DEBF0FBECDBFDF91CF911F917E
:102B90000F9108952F923F924F925F926F927F9282
:102BA0009F92AF92BF92CF92DF92EF92FF920F93DC
:102BB0001F93CF93DF93CDB7DEB764970FB6F8942A
:102BC000DEBF0FBECDBF1A012B01922EF32EC82EF1
:102BD000D12CF601E754F54FE491AA24A3941E16D4
:102BE0000CF4A12CBB24B39420E030E0A901C20175
:102BF000B1010E9476E418160CF0B12CCC0CDD1C4F
:102C0000CC0CDD1CC60188559B4F3C01FC01108299
:102C100011821282138277DFF30120823182428295
:102C20005382E090CC0220E030E0A901B801892D68
:102C30009F2D0E9473E281110AC0F601E850F54F02
:102C400085919591A591B4918C019A2EFB2EC80186
:102C5000A92DBF2D898B9A8BAB8BBC8B8091B00437
:102C60009091B104A091B204B091B3044091AC042E
:102C70005091AD046091AE047091AF040091A8042E
:102C80001091A9042091AA043091AB040D871E87EE
:102C90002F87388B49875A876B877C878D839E83E4
:102CA000AF83B88719821A821B821C82AE014B5FE8
:102CB0005F4FBE01675F7F4FCE010D960E94837FFD
:102CC000CE0101966C018E010F5E1F4F24EB34E0A4
:102CD000AE014B5F5F4FBE01675F7F4F0C960E9456
:102CE000438D0E942181AB100E941A7464960FB626
:102CF000F894DEBF0FBECDBFDF91CF911F910F9132
:102D0000FF90EF90DF90CF90BF90AF909F907F901B
:102D10006F905F904F903F902F90089564EB74E018
:102D200083E00C944A8F10928D0410928B041092C1
:102D30008C04089590918B04E92FF0E0E655FD4F47
:102D400080839F5F943018F490938B0402C010929C
:102D50008B0480918D048F5F80938D040895CF93B1
:102D6000FC0120812B33A1F020918D04243080F4CC
:102D7000C62FBC0180918B04F0E68F9FC001112407
:102D8000855F9C4F0E94A5E98C2FD4DF81E001C0B4
:102D900080E0CF910895EF92FF921F93CF93DF933E
:102DA0007C0160E0DCDF182F8823C9F0E7EBF4E159
:102DB0006491EF012196662329F08DE992E19EDC72
:102DC000FE01F6CFB70180EF93E00E94E79062E248
:102DD0008DE992E193DC6AE08DE992E18FDC812F4D
:102DE000DF91CF911F91FF90EF900895DF92EF92C6
:102DF000FF920F931F93CF93DF93CDB7DEB76E97FC
:102E00000FB6F894DEBF0FBECDBF6091090370917D
:102E10000A036115710541F14DE150E0CE010196C3
:102E20007C010E9434E91E8EF7018F010E191F09E3
:102E3000D190DD2019F09AE0D912F7CFF701E00F19
:102E4000F11F1082C701A7DF882371F0DD20A9F0F0
:102E50000F5F1F4F8091090390910A03080F191FFC
:102E600010930A030093090381E020910903309134
:102E70000A03232B29F480E003C000E010E0F0CF28
:102E80006E960FB6F894DEBF0FBECDBFDF91CF9127
:102E90001F910F91FF90EF90DF90089590930A0398
:102EA00080930903A3CF8F929F92AF92BF92CF924C
:102EB000DF92EF92FF920F931F93CF93DF93809156
:102EC000BB04882309F4E0C080918D04811102C005
:102ED0001092430201E04091230750912407609132
:102EE0002507709126078091270790912807A091C8
:102EF0002907B0912A0784179507A607B70708F492
:102F000000E0C0E0D0E0DD24D39480E6C82E8091BC
:102F10008D04843008F0B8C00111B6C0809143021E
:102F20008111B2C080917E0690917F06A0918006AB
:102F3000B09181068093270790932807A0932907D3
:102F4000B0932A0786E796E00E94034D182F8090E1
:102F5000270790902807A0902907B0902A07409152
:102F6000230750912407609125077091260701E0FF
:102F700084169506A606B70608F400E084169506A2
:102F8000A606B706A0F48F3F2FEF920731F11A3053
:102F900009F448C01D3009F445C0133219F01A3342
:102FA00009F057C020914202211153C032C089EB71
:102FB00094E00E9434628091BB0481112DC0E0E74F
:102FC000F9E064917F018FEFE81AF80A662309F1AE
:102FD0008DE992E193DBF701F4CFEDEBF4E164913D
:102FE0007F012FEFE21AF20A662329F08DE992E1C0
:102FF00085DBF701F4CFE1E6F9E064917F018FEF23
:10300000E81AF80A662329F08DE992E177DBF701E7
:10301000F4CF133239F404C0133299F5C0E0D0E094
:10302000D092430210924202209729F40E9473A486
:10303000C0E0D0E06CCF80918B04C89EC00DD11D44
:103040001124C55FDC4F188280E074DEC0E0D0E060
:103050005ECFCF35D10508F05ACF1B3311F4D09293
:10306000420220914202211152CF90918B04FE0125
:10307000C99EE00DF11D1124E55FFC4F8083219670
:1030800046CF10924202D2CFDF91CF911F910F9184
:10309000FF90EF90DF90CF90BF90AF909F908F9078
:1030A0000895EF92FF920F931F93CF93DF937C01CC
:1030B00084E5A6DCD82F882369F105DDC82F181612
:1030C0002CF5E7EBF4E164918F010F5F1F4F66234E
:1030D00029F08DE992E112DBF801F5CF6DE48DE97D
:1030E00092E10CDBA70160E070E020E08DE992E165
:1030F0000E947FD86C2FCC0F770B8DED93E00E9450
:1031000068906AE08DE992E1F9DA08C08093BE0226
:10311000D0E004C08091CC028093BE028D2FDF915D
:10312000CF911F910F91FF90EF9008950F931F93F0
:10313000CF93DF9394E0899FE00111248E01055223
:103140001D4FFE01E951FD4FDE01AD50BD4F2D91E8
:103150003D914D915C9160817181828193810E944A
:103160009AE1F8016083718382839383FE01E451C5
:10317000F54F85919591A591B491FE01E153FD4FD5
:1031800080839183A283B383FE01E052F54F859142
:103190009591A591B491C55FDE4F88839983AA83E9
:1031A000BB83DF91CF911F910F910895CF92DF9252
:1031B000EF920F931F93CF93DF93CDB7DEB7609756
:1031C0000FB6F894DEBF0FBECDBFE090CC02E8EAA8
:1031D000F4E080859185A285B3854481558166811F
:1031E000778100811181228133810D871E872F878E
:1031F000388B49875A876B877C878D839E83AF8303
:10320000B88719821A821B821C82AE014B5F5F4F06
:10321000BE01675F7F4FCE010D960E94837FCE0176
:1032200001966C0109E111E024EB34E0AE014B5F43
:103230005F4FBE01675F7F4F0C960E94438D609683
:103240000FB6F894DEBF0FBECDBFDF91CF911F91B7
:103250000F91EF90DF90CF9008958F929F92AF9251
:10326000BF92CF92DF92EF920F931F93CF93DF9392
:10327000CDB7DEB760970FB6F894DEBF0FBECDBFF7
:103280008C01E090CC02E8E9F4E080859185A2858C
:10329000B385448155816681778180809180A28049
:1032A000B3808D869E86AF86B88A49875A876B879A
:1032B0007C878D839E83AF83B88719821A821B8295
:1032C0001C82AE014B5F5F4FBE01675F7F4FCE0137
:1032D0000D960E94837FCE0101966C0124EA34E0B2
:1032E000AE014B5F5F4FBE01675F7F4F0C960E9440
:1032F000438D60960FB6F894DEBF0FBECDBFDF9151
:10330000CF911F910F91EF90DF90CF90BF90AF9032
:103310009F908F9008953F924F925F926F927F920D
:103320008F929F92AF92BF92CF92DF92EF92FF92D5
:103330000F931F93CF93DF93CDB7DEB72A970FB6C6
:10334000F894DEBF0FBECDBF2B013C012D833E8321
:103350004F83588747015801DA86C9868091190141
:1033600090911A01A0911B01B0911C0189839A834D
:10337000AB83BC83D601EC901196FC90119712960A
:103380000C91129713961C9120E030E0A901B7012F
:10339000C8010E9473E2811108C0E0E0FBE0859162
:1033A0009591A591B4917C018D01A5019401609145
:1033B000B0047091B1048091B2049091B3040E9462
:1033C00073E287FF13C0C701D8018093190190935E
:1033D0001A01A0931B01B0931C018092B00490923B
:1033E000B104A092B204B092B304E0DEE985FA859C
:1033F000D080C1803280F381F98720E030E0A901DC
:103400006D2D7C2D832D9F2F0E9473E2811109C0A9
:10341000D0900101C090020130900301809104011D
:1034200089878D2D9C2DA32DB985809319019093AB
:103430001A01A0931B01B0931C014092A804509262
:10344000A9046092AA047092AB048D819E81AF8121
:10345000B8858093AC049093AD04A093AE04B09370
:10346000AF04A4DE2091B0043091B1044091B204C5
:103470005091B304C501B4010E9473E287FF13C0E9
:10348000C701D8018093190190931A01A0931B01E1
:10349000B0931C018092B0049092B104A092B20447
:1034A000B092B30483DE0E94218189819A81AB812D
:1034B000BC818093190190931A01A0931B01B093D2
:1034C0001C012A960FB6F894DEBF0FBECDBFDF9168
:1034D000CF911F910F91FF90EF90DF90CF90BF9011
:1034E000AF909F908F907F906F905F904F903F90A4
:1034F0000895CF92DF92EF92FF920F931F936B018B
:10350000FC01E080F18002811381E8EAF4E024818B
:103510003581468157816081718182819381FBDE93
:103520001F910F91FF90EF90DF90CF900895CF9271
:10353000DF92EF92FF920F931F936A01E090B00425
:10354000F090B1040091B2041091B304FB0120810A
:10355000318142815381FC0160817181828193813B
:10356000DADE1F910F91FF90EF90DF90CF900895DA
:103570008091190190911A01A0911B01B0911C0139
:103580008093050390930603A0930703B093080369
:103590008091170190911801909304038093030385
:1035A00084E690E09093180180931701089580912C
:1035B000050390910603A0910703B091080380933F
:1035C000190190931A01A0931B01B0931C018091E3
:1035D00003039091040390931801809317010895B9
:1035E000EF92FF921F93CF93DF93882329F0D0911E
:1035F0009704D095D17001C0D0E0662339F01091C6
:1036000097041695117081E0182701C010E044233B
:1036100041F0C0919704C2FB882780F9C1E0C82718
:1036200001C0C0E0D11102C0112319F0E7EBF4E1B1
:1036300007C0C111FBCF84C08DE992E15FD8F701CB
:1036400064917F018FEFE81AF80A6111F5CFE7ED79
:10365000F3E064917F019FEFE91AF90A662329F0EC
:103660008DE992E14BD8F701F4CFDD2371F0E5ED60
:10367000F3E064917F018FEFE81AF80A662329F0DE
:103680008DE992E13BD8F701F4CF112371F0E3ED1E
:10369000F3E064917F019FEFE91AF90A662329F0AC
:1036A0008DE992E12BD8F701F4CFCC2319F0E1EDAD
:1036B000F3E003C0E9ECF3E00CC064917F018FEF0D
:1036C000E81AF80A6623B1F38DE992E117D8F701F9
:1036D000F4CF64917F019FEFE91AF90A662329F07C
:1036E0008DE992E10BD8F701F4CFCC2319F042ED2C
:1036F00051E002C042EE51E0112319F024ED31E017
:1037000002C022EE31E0DD2319F086ED91E002C027
:1037100082EE91E05F934F933F932F939F938F930C
:1037200087EB93E09F938F931F920E94D2B28DB745
:103730009EB709960FB6F8949EBF0FBE8DBFC1E02D
:103740008C2FDF91CF911F91FF90EF900895BF9242
:10375000CF92DF92EF92FF920F931F93CF93DF935D
:10376000CDB7DEB728970FB6F894DEBF0FBECDBF3A
:1037700090914209981709F47AC0B82E882309F469
:1037800053C080E090E0A0E8B0E48D839E83AF83D7
:10379000B887C090BA02D090BB02E090BC02F09013
:1037A000BD0220E030E0A901C701B6010E9473E22A
:1037B00087FF0CC0A701960160E070E080E890E40C
:1037C0000E9499E16D837E838F83988720E030E0AB
:1037D00048E153E46D817E818F8198850E9476E473
:1037E000181644F480E090E0A8E1B3E48D839E8352
:1037F000AF83B8872D813E814F8158856091B00499
:103800007091B1048091B2049091B3040E9473E26C
:1038100087FF0AC019821A821B821C82BE016F5F59
:103820007F4FCE01059665DE6091A8047091A904D2
:103830008091AA049091AB042091AC043091AD0426
:103840004091AE045091AF0419821A821B821C82EF
:10385000E090B004F090B1040091B2041091B30470
:10386000FE0131966F0157DD8B2D0E94257480E09B
:1038700028960FB6F894DEBF0FBECDBFDF91CF9173
:103880001F910F91FF90EF90DF90CF90BF90089520
:103890004F925F926F927F928F929F92AF92BF9260
:1038A000CF92DF92EF92FF920F931F93CF93C82F87
:1038B000E82EF12CF701E754F54FB490823021F453
:1038C00081E045DF811110C16701CC0CDD1CCC0CFF
:1038D000DD1CF601E853F54F4590559065907490C6
:1038E0006B2DBB0C770B880B990B0E9415E34B01DA
:1038F0005C0120E030E040EC5FE3C301B2010E94D4
:10390000B1E4A50194010E94B1E4AB01BC0100E067
:1039100010E098018C2F3ED9C23061F0F601E454DA
:10392000F54F85919591A591B491E82F792F6A2F44
:103930008B2F04C0E0E070E060E480E42E2F372F8E
:10394000462F582FC501B4010E94B1E44B015C0120
:1039500020E030E0A9010E9473E2882309F45DC0F1
:10396000C23021F000E010E0980104C000E010E057
:1039700020E830E4B501A40170588C2F0BD9C23077
:1039800009F43AC0F701E25AF64F649161111FC081
:10399000E7EBF4E164917F018FEFE81AF80A662300
:1039A00031F08DE992E10E947E13F701F3CFECE351
:1039B000F9E064917F018FEFE81AF80A662331F08D
:1039C0008DE992E10E947E13F701F3CF6AE0F601E0
:1039D000E850F54F459055906590749070E080E008
:1039E00090E00E9415E39B01AC01C301B2010E946B
:1039F0007AE22B013C0105C0412C512C612C90E452
:103A0000792EA5019401C501B4010E949AE1AB0190
:103A1000BC01930182018C2FBDD881E090E00C2E77
:103A200001C0880F0A94EAF790919604982B90931E
:103A3000960490919704892B80939704F601ED509A
:103A4000FD4F10821182128213828C2F6FDBF601E0
:103A5000EC52F54F85919591A591B491F601E855F9
:103A6000FB4F80839183A283B383C230D1F4209132
:103A7000BA023091BB024091BC025091BD026091EC
:103A8000B0047091B1048091B2049091B3040E948B
:103A900099E16093B0047093B1048093B204909361
:103AA000B30431D8F601E856FB4FD601A855BB4FF9
:103AB0008D919D910D90BC91A02D80839183A283C7
:103AC000B383C23089F480E0CF911F910F91FF90B2
:103AD000EF90DF90CF90BF90AF909F908F907F90AE
:103AE0006F905F904F9033CECF911F910F91FF90C9
:103AF000EF90DF90CF90BF90AF909F908F907F908E
:103B00006F905F904F9008959F92AF92BF92CF9227
:103B1000DF92EF92FF920F931F93CF93DF938AEF81
:103B2000A82E81E0B82E08E914E0C8EAD4E09BEDA5
:103B3000C92E92E0D92E2FEFE22E22E0F22E912C08
:103B4000F50181915F010E94B314882309F10E945D
:103B50000C15F7012081211104C02091CB022223F2
:103B600039F0288139814A815B810E949AE10AC03B
:103B7000F3E09F1639F0F6012081318142815381B3
:103B80000E9499E1F801608371838283938309C065
:103B900088819981AA81BB81F80180839183A28366
:103BA000B38393940C5F1F4F2496F4E0CF0ED11C87
:103BB0002FEFE21AF20A84E09812C2CF86E40E9444
:103BC00000158823C9F00E940C1520E030E0A901FF
:103BD0000E9476E4181684F40E940C1520E030E070
:103BE00040E752E40E947AE26093190170931A014F
:103BF00080931B0190931C01DF91CF911F910F9136
:103C0000FF90EF90DF90CF90BF90AF909F9008957E
:103C1000CF92DF92EF92FF920F931F93CF93DF9398
:103C20000FB6F894C0909212D0909312E090941234
:103C3000F09095120FBE8091C902811174C08091DD
:103C40000001882309F46FC08091A902882309F438
:103C50006AC04091A5025091A6026091A70270919E
:103C6000A80297018601041B150B260B370B37FDA5
:103C70006DC0833031F134F481300CF454C0E7EB83
:103C8000F4E106C0843009F04EC0E7EBF4E133C044
:103C90006491EF012196662331F08DE992E10E9453
:103CA0007E13FE01F5CFE4E7F3E06491EF01219686
:103CB000662309F438C08DE992E10E947E13FE016B
:103CC000F4CFE7EBF4E16491EF012196662331F044
:103CD0008DE992E10E947E13FE01F5CFEDE5F3E060
:103CE0006491EF0121966623F1F08DE992E10E9443
:103CF0007E13FE01F5CF6491EF012196662331F02A
:103D00008DE992E10E947E13FE01F5CFE5E4F3E038
:103D10006491EF012196662331F08DE992E10E94D2
:103D20007E13FE01F5CF2091000130E0A8EEB3E054
:103D30000E947AE1C60ED71EE81EF91EC092A502A7
:103D4000D092A602E092A702F092A802DF91CF9152
:103D50001F910F91FF90EF90DF90CF9008950F93F8
:103D60001F93CF93DF9300D000D0CDB7DEB7809103
:103D700096048370833011F160E08FE099E00E9437
:103D800058B2E7EBF4E164918F010F5F1F4F662398
:103D900031F08DE992E10E947E13F801F4CFE0E06A
:103DA000F9E064918F010F5F1F4F662309F43EC055
:103DB0008DE992E10E947E13F801F3CF0E948315F2
:103DC00080E090E0A8E9B2E480939C0490939D0485
:103DD000A0939E04B0939F048091B0049091B1048D
:103DE000A091B204B091B3048093A0049093A10475
:103DF000A093A204B093A30480E090E0A0E6B2E414
:103E00008093980490939904A0939A04B0939B0490
:103E100019821A821B821C82AE014F5F5F4F6CE9D0
:103E200074E088E994E083DB82E032DD0F900F904C
:103E30000F900F90DF91CF911F910F9108950F93E5
:103E40001F93CF93DF93CDB7DEB769970FB6F89482
:103E5000DEBF0FBECDBF0E941E9F6E8B7F8B888FF3
:103E6000998FBE016F5F7F4FCE0146960E94D71398
:103E700060E0CE0101960E9432B2E7EBF4E164917A
:103E80008F010F5F1F4F662331F08DE992E10E9491
:103E90007E13F801F4CFBE016F5F7F4F82E298E09E
:103EA0000E94E7906AE08DE992E10E947E13699694
:103EB0000FB6F894DEBF0FBECDBFDF91CF911F913B
:103EC0000F910895CF938091BB0481110E942181AD
:103ED0008091BC048823A9F180E50E940015882305
:103EE00021F00E947415C82F04C080E50E94B3140D
:103EF000C82F60916B0970916C092C2F41E089EB00
:103F000094E00E94E05D83E50E940015882381F023
:103F10000E944315AB01BC0140932707509328072B
:103F20006093290770932A0786E796E00E94C84DA0
:103F300089EB94E00E941D5BC11103C0CF910C94EA
:103F40005D9FCF910895CF93DF93EDEBF4E1649102
:103F5000EF012196662331F08DE992E10E947E13F4
:103F6000FE01F5CFE3E1F8E06491EF0121966623CD
:103F700031F08DE992E10E947E13FE01F5CFDF91D1
:103F8000CF9108950F931F93CF9383E50E9400155F
:103F9000882309F440C00E946315082F80E50E9421
:103FA00000158823C1F10E946315C82F87FD33C017
:103FB00089E40E940015882339F00E94741581114C
:103FC00012C0E1EFF2E00BC089E40E94B31481114A
:103FD0000AC0F7CF319683E0EE31F80721F08491E3
:103FE000C813F8CF14C08C2F0E94ECD9EC2FF0E04E
:103FF000002E0E9491DA10E0B8018C2F0E94FDD9AA
:10400000C03149F41093CE020093CD0204C0CF9189
:104010001F910F9198CFCF911F910F91089588E62E
:1040200090E03FD8811124C08091B80483FD20C066
:1040300083E50E9400158823C9F00E940C150E9498
:10404000E2E27093D4116093D31180E00E949AA2AF
:104050000E940C1520E030E04AEA52E40E9473E22C
:10406000181624F00E94C79E0E9492B20C943490BD
:104070000895CF92DF92EF92FF9283E50E940015A0
:10408000882321F10E9463158D3308F08CE380931F
:1040900085110FB6F894C0909212D0909312E090D0
:1040A0009412F09095120FBE282F30E0A8EEB3E0E6
:1040B0000E947AE1C60ED71EE81EF91EC092811139
:1040C000D0928211E0928311F0928411FF90EF90D0
:1040D000DF90CF90089580E50E940015811106C001
:1040E00083E50E940015882359F005C00E946315DE
:1040F00081110CC0F5CF0E9443156F3F710510F080
:104100006FEF70E07093CE026093CD020895DF925E
:10411000EF92FF920F931F93CF93DF9383E50E945B
:10412000B314882359F083E50E940015882319F001
:104130000E94631501C080E08093B804E7EBF4E1CE
:104140006491EF012196662331F08DE992E10E949E
:104150007E13FE01F5CFE2EBF7E06491EF012196CB
:10416000662331F08DE992E10E947E13FE01F5CFC6
:104170008091B8048823A9F189EBE82E87E0F82E16
:1041800000E010E020E08091B80490E0002E02C032
:10419000959587950A94E2F780FF1AC0DD24D394A1
:1041A000D20E222329F06CE28DE992E10E947E1367
:1041B000F70185919491FC016491EF0121966623AA
:1041C00031F08DE992E10E947E13FE01F5CF2D2D95
:1041D0000F5F1F4F82E0E80EF11C0530110599F6C4
:1041E0000DC0EEEAF7E06491EF012196662331F00D
:1041F0008DE992E10E947E13FE01F5CF6AE08DE920
:1042000092E1DF91CF911F910F91FF90EF90DF909E
:104210000C947E13CF93DF9383E50E9400158823CF
:1042200051F00E9463158D3308F08CE380930001F8
:10423000DF91CF910895E7EBF4E16491EF012196CE
:10424000662331F08DE992E10E947E13FE01F5CFE5
:104250004091000150E060E070E087EA97E00E9442
:10426000C6906AE08DE992E1DF91CF910C947E13C4
:10427000CF93DF9383E50E940015882321F00E94ED
:104280004315EB0102C0C0E0D0E0DD27C230D1050C
:10429000D4F0EDEBF4E16491EF012196662331F067
:1042A0008DE992E10E947E13FE01F5CFE5E8F7E08B
:1042B0006491EF0121966623C9F18DE992E10E9494
:1042C0007E13FE01F5CF88E40E9400158823A9F033
:1042D0000E9443156A3A71053CF0653081E0780729
:1042E0002CF064E071E002C06AEA70E0FE01EE0FBB
:1042F000FF1FE15BFD4E7183608386E40E94001521
:104300008823A1F00E944315CC0FDD1FC95BDD4E51
:10431000798368836F3F710519F014F06FEF70E0D7
:1043200077FF02C060E070E079836883DF91CF910E
:1043300008954F925F926F927F92AF92BF92CF9209
:10434000DF92EF92FF920F931F93CF938AEFA82EE5
:1043500081E0B82E0BE11AE0C0E0F50181915F0128
:104360000E94B314882309F46DC0C33009F063C000
:104370000E940C156B017C0120E030E040EA51E422
:104380000E9473E287FF4EC0A70196016091270A41
:104390007091280A8091290A90912A0A0E947AE253
:1043A0002B013C019B01AC016091F3097091F40970
:1043B0008091F5099091F6090E94B1E46093F309A8
:1043C0007093F4098093F5099093F609A301920183
:1043D0006091370A7091380A8091390A90913A0AAF
:1043E0000E94B1E46093370A7093380A8093390AC7
:1043F00090933A0A60914B0A70914C0A80914D0A51
:1044000090914E0A0E9413E3A30192010E94B1E42D
:104410000E94E7E260934B0A70934C0A80934D0A26
:1044200090934E0AC092270AD092280AE092290A55
:10443000F0922A0A07C00E940C15F801608371836C
:1044400082839383CF5F0C5F1F4FC43009F085CF09
:10445000CF911F910F91FF90EF90DF90CF90BF9081
:10446000AF907F906F905F904F900C9410900F934F
:104470001F93CF93DF93C8EAD4E00BED12E0F8016D
:104480002081318142815381688179818A819B8138
:104490000E949AE1AB01BC018CE393E00E94A590DD
:1044A000F80124813581468157816C817D818E811F
:1044B0009F810E949AE1AB01BC0188E393E00E94D6
:1044C000A590F801208531854285538568857985D9
:1044D0008A859B850E949AE1AB01BC0184E393E04D
:1044E0000E94A5904C855D856E857F8580E393E075
:1044F0000E94A590DF91CF911F910F910C94269E61
:104500002F923F924F925F926F927F928F929F92E3
:10451000AF92BF92CF92DF92EF92FF920F931F93D1
:10452000CF93DF938AEF882E81E0982EC3EFD2E0FD
:1045300098EAA92E94E0B92E0BED12E0312C212C33
:10454000F40181914F010E940015882309F44AC0AB
:104550000E940C156B017C01F3E03F1649F0F80155
:1045600020813181428153810E9499E16B017C015C
:10457000F5012081318142815381C701B6010E943A
:1045800099E12B013C012DEB37E346E855EB0E9406
:1045900076E487FD0AC02DEB37E346E855E3C30117
:1045A000B2010E9473E21816ECF4F3E03F120BC064
:1045B000C092B404D092B504E092B604F092B7046D
:1045C000222423940FC0A3019201688179818A81FA
:1045D0009B810E949AE1688379838A839B83832DE0
:1045E0000E9496183394249684E0A80EB11C0C5FA8
:1045F0001F4FE4E03E12A4CF21100E948E16DF91DF
:10460000CF911F910F91FF90EF90DF90CF90BF90CF
:10461000AF909F908F907F906F905F904F903F9062
:104620002F9025CFCF93DF93E7E9F6E06491EF0178
:104630002196662331F08DE992E10E947E13FE01FE
:10464000F5CF60E087E896E00E94941361E080E88F
:1046500096E00E94941361E085E796E00E9494132F
:1046600061E085E696E00E94941360E08CE596E0B8
:104670000E94941361E082E596E00E94941361E049
:1046800088E496E00E94941361E080E496E00E9442
:10469000941361E082E396E00E94941360E084E268
:1046A00096E00E94941360E085E196E00E949413E6
:1046B00060E087E096E00E94941360E081EF95E06F
:1046C0000E94941360E080EE95E00E94941360E0F5
:1046D0008BEC95E00E94941361E088EB95E0DF910C
:1046E000CF910C949413CF92DF92EF92FF92CF93DD
:1046F00088EC90E00E94511881114EC084E40E9421
:10470000B314882309F441C00E940C156B017C018D
:10471000C1E020E030E0A9010E9473E2811101C0F4
:10472000C0E0C0936F0920E030E0A901C701B601E5
:104730000E9473E2882349F10E940C15E091BE02A9
:1047400024E0E29FF0011124ED51F64F6083718364
:104750008283938320E030E0A9016091E3097091A6
:10476000E4098091E5099091E6090E9473E28111C4
:104770000CC080E090E0A0EEBFE38093E30990934B
:10478000E409A093E509B093E609CF91FF90EF907B
:10479000DF90CF900C941E7FCF91FF90EF90DF9031
:1047A000CF900895CF9383E50E9400158823A1F050
:1047B0000E940C156093030A7093040A8093050A03
:1047C0009093060A6093FB097093FC098093FD099E
:1047D0009093FE09C0E001C0C1E080E50E94001591
:1047E000882359F00E940C156093030A7093040A01
:1047F0008093050A9093060AC0E082E50E940015A6
:10480000882359F00E940C156093FF097093000AE9
:104810008093010A9093020AC0E084E50E9400158B
:10482000882359F00E940C156093FB097093FC09D2
:104830008093FD099093FE092CC0CC2351F1409147
:10484000030A5091040A6091050A7091060A84EAED
:1048500095E00E94A5904091FF095091000A609157
:10486000010A7091020A81EA95E00E94A5904091A8
:10487000FB095091FC096091FD097091FE098EE9D8
:1048800095E00E94A5906AE08DE992E1CF910C94A9
:104890007E13CF91089581E50E94B314882351F0CF
:1048A0000E94531560933B0A70933C0A80933D0A23
:1048B00090933E0A83E50E94B314882351F00E942E
:1048C0000C156093070A7093080A8093090A909365
:1048D0000A0A84E50E94B314882351F00E940C1543
:1048E0006093F7097093F8098093F9099093FA0996
:1048F00088E50E94B314882351F00E940C15609340
:10490000E7097093E8098093E9099093EA0989E53A
:104910000E94B314882351F00E940C156093EB0998
:104920007093EC098093ED099093EE098AE50E945B
:10493000B314882351F00E940C156093EF09709313
:10494000F0098093F1099093F20985E40E94B31471
:10495000882351F00E940C156093F3097093F409B9
:104960008093F5099093F6090895CF93DF93E7EBD1
:10497000F4E16491EF012196662331F08DE992E133
:104980000E947E13FE01F5CF83E50E94B3148823B5
:1049900021F00E94741580930A01EEE8F5E064911D
:1049A000EF012196662331F08DE992E10E947E139A
:1049B000FE01F5CF80910A01811103C0E6E8F5E020
:1049C00002C0EAE8F5E06491EF012196662331F038
:1049D0008DE992E10E947E13FE01F5CFEEE7F5E04E
:1049E0006491EF012196662331F08DE992E10E94F6
:1049F0007E13FE01F5CF2091DB023091DC02409165
:104A0000DD025091DE026091CF027091D002809160
:104A1000D1029091D2020E949AE1AB01BC018CE7D5
:104A200095E00E94A5902091DF023091E002409134
:104A3000E1025091E2026091D3027091D402809120
:104A4000D5029091D6020E949AE1AB01BC0189E7A0
:104A500095E00E94A5902091E3023091E4024091FC
:104A6000E5025091E6026091D7027091D8028091E0
:104A7000D9029091DA020E949AE1AB01BC0186E76B
:104A800095E00E94A590EEE6F5E06491EF01219695
:104A9000662331F08DE992E10E947E13FE01F5CF8D
:104AA0002091DB023091DC024091DD025091DE0268
:104AB00060910B0170910C0180910D0190910E019C
:104AC0000E949AE1AB01BC018CE695E00E94A590A2
:104AD0002091DF023091E0024091E1025091E20228
:104AE00060910F017091100180911101909112015C
:104AF0000E949AE1AB01BC0189E695E00E94A59075
:104B00002091E3023091E4024091E5025091E602E7
:104B1000609113017091140180911501909116011B
:104B20000E949AE1AB01BC0186E695E00E94A59047
:104B30006AE08DE992E1DF91CF910C947E130F939F
:104B40001F93CF93DF938DED90E00E945118811158
:104B500070C083E50E9400158823B9F1C091BE02A0
:104B6000D0E00E944315CC0FDD1FC25DDE4F79837C
:104B700068838091BE0290E0EC01CC0FDD1FCC0F6A
:104B8000DD1F8E01065D1E4F880F991FFC01E25D3F
:104B9000FE4F60817181072E000C880B990B0E94DB
:104BA00015E32AE037ED43E25CE30E94B1E4C15231
:104BB000D64F288139814A815B810E94B1E4F80196
:104BC000608371838283938334C0E7EBF4E1649163
:104BD000EF012196662331F08DE992E10E947E1368
:104BE000FE01F5CF65E48DE992E10E947E136091AC
:104BF000BE02605D8DE992E10E947E13E091BE02EB
:104C0000F0E0EE0FFF1FE25DFE4F608171818EE5E7
:104C100095E00E94689065E28DE992E10E947E1322
:104C20006AE08DE992E1DF91CF911F910F910C9491
:104C30007E13DF91CF911F910F910895CF92DF9254
:104C4000EF92FF92CF93DF938AE50E9400158111C6
:104C500006C083E50E940015882309F481C00E94E4
:104C60000C1520E030E040E050EC0E9473E287FD3C
:104C700015C00E940C1520E030E040E050E40E9496
:104C800076E418162CF00E940C156B017C010BC009
:104C9000C12CD12CE12C90E4F92E05C0C12CD12CD3
:104CA000E12C80ECF82E8091960482FF18C0C09110
:104CB000C511D091C6112091230A3091240A409148
:104CC000250A5091260AC701B6010E94B1E40E944C
:104CD000E2E2C60FD71FD093C611C093C51180E57D
:104CE0000E94B314882321F00E9474158823C1F117
:104CF000A70196016091BA027091BB028091BC023B
:104D00009091BD020E949AE16093BA027093BB0237
:104D10008093BC029093BD02E7EBF4E16491EF0154
:104D20002196662331F08DE992E10E947E13FE0107
:104D3000F5CF4091BA025091BB026091BC027091D4
:104D4000BD028DE495E00E94A5906AE08DE992E1B4
:104D5000DF91CF91FF90EF90DF90CF900C947E1376
:104D6000DF91CF91FF90EF90DF90CF900895CF9398
:104D7000DF9385E40E940015811110C080E50E9438
:104D8000B314882391F00E940C156093CF11709397
:104D9000D0118093D1119093D21107C00E94631556
:104DA000882361F3EDEBF4E172C089E40E94B3144F
:104DB000882381F00E940C152CEA35EC47E25EE373
:104DC0000E94B1E46093CB117093CC118093CD110C
:104DD0009093CE1184E40E94B314882381F00E9442
:104DE0000C152CEA35EC47E25EE30E947AE2609310
:104DF000C7117093C8118093C9119093CA11E7EB42
:104E0000F4E16491EF012196662331F08DE992E19E
:104E10000E947E13FE01F5CF4091CF115091D01129
:104E20006091D1117091D21189E495E00E94A59012
:104E30002CEA35EC47E25EE36091CB117091CC1126
:104E40008091CD119091CE110E947AE2AB01BC010C
:104E500085E495E00E94A5902CEA35EC47E25EE3FC
:104E60006091C7117091C8118091C9119091CA11B8
:104E70000E94B1E4AB01BC0181E495E00E94A590E1
:104E80006AE08DE992E1DF91CF910C947E136491F9
:104E9000EF012196662331F08DE992E10E947E13A5
:104EA000FE01F5CFEFE2F5E06491EF012196662374
:104EB00031F08DE992E10E947E13FE01F5CFDF9182
:104EC000CF910895CF93DF9383E50E94B314C82F49
:104ED000882371F00E940C150E94E2E27093490150
:104EE0006093480121E0672B09F020E02093BA117C
:104EF00080E50E94B314882359F020914801309135
:104F00004901232B11F00E9474158093BA1131C00E
:104F1000C1112FC0E7EBF4E16491EF012196662304
:104F200031F08DE992E10E947E13FE01F5CF809170
:104F3000BA11811103C06BED71E002C068ED71E040
:104F40008CE195E00E94E7906091480170914901E1
:104F50008BE095E00E946890E7E0F5E06491EF0156
:104F60002196662331F08DE992E10E947E13FE01C5
:104F7000F5CFDF91CF9108958F929F92AF92BF921C
:104F8000EF92FF920F931F93CF93DF9300D000D047
:104F9000CDB7DEB785E40E940015882321F00E947A
:104FA00043158B0102C000E010E083E40E9400156D
:104FB000882321F00E944315F62E02C025E0F22E30
:104FC00085E50E940015882321F00E947415E82EC3
:104FD00004C085E50E94B314E82E17FD07C0812C9C
:104FE000912C96E1A92E93E4B92E06C0812C912C28
:104FF0008CE8A82E82E4B82E83E50E940015882351
:1050000021F00E940C154B015C01C501B4010E9406
:10501000E2E20115110511F41092BE02072E000CF8
:10502000880B990B0E9415E369837A838B839C8399
:105030002E2D4F2D602FCE0101960E9421A70F909B
:105040000F900F900F90DF91CF911F910F91FF90D4
:10505000EF90BF90AF909F908F9008952F923F92C6
:105060004F925F926F927F928F929F92AF92BF9278
:10507000CF92DF92EF92FF920F931F93CF93DF9324
:10508000CDB7DEB72E970FB6F894DEBF0FBECDBFFB
:1050900041E061E081E00E94F01A8111DAC004ED84
:1050A0001AE088EA94E09E878D87FE0131965F01C1
:1050B00099EB892E9AE0992E1F01F801659175915F
:1050C00085919491ED85FE85C190D190E190F1900C
:1050D000FE87ED87A70196010E9499E12B013C0113
:1050E000F101608371838283938320E030E040EAA2
:1050F00051EC0E9476E487FD0AC020E030E040EAEF
:1051000051E4C301B2010E9473E218162CF4F401B9
:10511000849118160CF493C0F101C190D190E190E4
:10512000F1901F0120E030E040EA51ECC701B601E8
:105130000E9476E487FD0BC020E030E040EA51E4B5
:10514000C701B6010E9473E218160CF039C0EDEBEE
:10515000F4E164918F010F5F1F4F611103C0EFE90C
:10516000F4E006C08DE992E10E947E13F801F1CFD0
:1051700064918F010F5F1F4F662331F08DE992E13B
:105180000E947E13F801F4CF81E994E02E960FB6C9
:10519000F894DEBF0FBECDBFDF91CF911F910F916D
:1051A000FF90EF90DF90CF90BF90AF909F908F9047
:1051B0007F906F905F904F903F902F900C94EEB245
:1051C0000C5F1F4FFFEF8F1A9F0A8AE0003E1807FF
:1051D00009F073CF87EEE82E82E0F82E10E0F5019B
:1051E00081919191A191B1915F01F7018193919387
:1051F000A193B1937F01812F0E9496181F5F1330F6
:1052000071F735D960E081E894E02E960FB6F894F6
:10521000DEBF0FBECDBFDF91CF911F910F91FF90E9
:10522000EF90DF90CF90BF90AF909F908F907F9046
:105230006F905F904F903F902F900C9458B2F7FA78
:10524000F094F7F8F094F101C082D182E282F38207
:1052500063CF2E960FB6F894DEBF0FBECDBFDF91A1
:10526000CF911F910F91FF90EF90DF90CF90BF9063
:10527000AF909F908F907F906F905F904F903F90F6
:105280002F900895CF93DF930E94B9738823D1F0B4
:10529000E7EBF4E16491EF012196662331F08DE9AB
:1052A00092E10E947E13FE01F5CFE6E7F4E06491FF
:1052B000EF012196662331F08DE992E10E947E1381
:1052C000FE01F5CFDF91CF910895CF92DF92EF925B
:1052D000FF92CF93DF938AE50E940015811103C0EE
:1052E000E7EBF4E13EC00E940C156B017C0120E06D
:1052F00030E040E050EC0E9476E487FD0AC020E0F8
:1053000030E040EA51E4C701B6010E9473E218168A
:105310001CF4EDEBF4E10EC0C092BA02D092BB02D5
:10532000E092BC02F092BD0245C08DE992E10E947C
:105330007E13FE016491EF0121966111F6CFEAE53B
:10534000F4E06491EF0121966623A1F18DE992E1E9
:105350000E947E13FE01F5CF8DE992E10E947E133B
:10536000FE016491EF0121966111F6CFEBE4F4E0C8
:105370006491EF012196662331F08DE992E10E945C
:105380007E13FE01F5CF4091BA025091BB026091AD
:10539000BC027091BD0288E494E00E94A5906AE08E
:1053A0008DE992E1DF91CF91FF90EF90DF90CF9068
:1053B0000C947E13DF91CF91FF90EF90DF90CF9010
:1053C0000895CF92DF92EF92FF92CF93DF938BE419
:1053D0000E940015811103C0E7EBF4E136C08BE4B5
:1053E0000E9400158823C1F00E940C156B017C01FE
:1053F00020E030E0A9010E9476E487FD0AC020E0A9
:1054000030E040E251E4C701B6010E9473E2181691
:1054100034F4E9E2F4E00EC0C12CD12C76010E94F4
:105420002181C0928C09D0928D09E0928E09F09270
:105430008F092DC06491EF012196662341F18DE91A
:1054400092E10E947E13FE01F5CF6491EF01219657
:10545000662331F08DE992E10E947E13FE01F5CFC3
:1054600040918C0950918D0960918E0970918F093E
:105470008EE194E00E94A5906AE08DE992E1DF91CF
:10548000CF91FF90EF90DF90CF900C947E13DF913F
:10549000CF91FF90EF90DF90CF9008951F93CF931F
:1054A000DF93182FE7EBF4E16491EF012196662377
:1054B00031F08DE992E10E947E13FE01F5CF64E5A3
:1054C0008DE992E10E947E13412F50E060E070E090
:1054D00020E08DE992E10E947FD860E28DE992E1BF
:1054E0000E947E13EDEFF3E06491EF0121966623B5
:1054F00031F08DE992E10E947E13FE01F5CFDF913C
:10550000CF911F910895CF93DF93E0918C04F0E049
:10551000E655FD4F80818823A1F0EEEDF2E0649125
:10552000EF012196662331F08DE992E10E947E130E
:10553000FE01F5CF6AE08DE992E1DF91CF910C9405
:105540007E13DF91CF910895CF92DF92EF92FF9279
:10555000CF93DF9320910A01222309F485C0EC0147
:10556000C090CF02D090D002E090D102F090D20251
:10557000A7019601688179818A819B810E9473E2EB
:1055800087FF04C0C882D982EA82FB82C090D3021E
:10559000D090D402E090D502F090D602A7019601F7
:1055A0006C817D818E819F810E9473E287FF04C0A0
:1055B000CC82DD82EE82FF82C0900B01D0900C0184
:1055C000E0900D01F0900E01A701960168817981AC
:1055D0008A819B810E9476E4181624F4C882D982BD
:1055E000EA82FB82C0900F01D0901001E09011017F
:1055F000F0901201A70196016C817D818E819F81BF
:105600000E9476E4181624F4CC82DD82EE82FF82BA
:10561000C090D702D090D802E090D902F090DA0280
:10562000A7019601688579858A859B850E9473E22A
:1056300087FF04C0C886D986EA86FB86C09013011E
:10564000D0901401E0901501F0901601A701960189
:10565000688579858A859B850E9476E4181624F4EE
:10566000C886D986EA86FB86DF91CF91FF90EF90BE
:10567000DF90CF900895CF93DF9380E00E940B815D
:10568000CEEAD2E0688379838A839B8381E00E949B
:105690000B816C837D838E839F8382E00E940B81CC
:1056A000688779878A879B87DF91CF910895CF9309
:1056B000DF93E1DF6BE58DE992E10E947E13CEEA94
:1056C000D2E0488159816A817B8122E08DE992E1B3
:1056D0000E94F8D84C815D816E817F8182E493E0E5
:1056E0000E94A590488559856A857B858FE393E064
:1056F0000E94A5906DE58DE992E10E947E136AE01B
:105700008DE992E1DF91CF910C947E13CF93C82F56
:10571000B2DF8EEA92E00E940980CE3F51F48CE025
:10572000EEEAF2E0A8EAB4E001900D928A95E1F782
:1057300013C024E0C29FC0011124FC01E855FB4FB7
:10574000DC01A255BD4F8D919D910D90BC91A02D76
:1057500080839183A283B383CF910895CF93909157
:10576000DE09981789F0C82F0E942181C093DE09B5
:10577000C11103C08EEFCADF04C088EA94E00E9422
:105780000980CF910C948315CF91089580E0E6DFD6
:105790008AEB99E00C94C7D48F929F92AF92BF92FC
:1057A000DF92EF92FF920F931F93CF93DF9300D07E
:1057B00000D0CDB7DEB7182F809196048770873060
:1057C00079F48FE40E940015882329F00E94741553
:1057D00081119CC005C08FE40E94B314811196C052
:1057E0000E942181D090DE0980E0B8DF0E94B81AC3
:1057F00081E00E94127411111CC088E50E94B3144C
:10580000F82E89E50E94B314082F8AE50E94B3148C
:10581000E82EF11007C001110AC0811108C0F02E56
:1058200011E00DC0002319F0F02E182F08C010E071
:1058300006C0FF24F39401E0EE24E39411E080E13C
:10584000E8EAF4E0A8E9B4E001900D928A95E1F766
:1058500082E50E940015882361F00E940C154B011F
:105860005C0120E030E0A9010E9473E2882369F125
:1058700005C0812C912C80E4A82EBA2C111104C0F3
:10588000F11002C0002391F18092A0049092A10433
:10589000A092A204B092A304A50194016091B00467
:1058A0007091B1048091B2049091B3040E9473E2AC
:1058B00087FF0BC019821A821B821C82BE016F5F98
:1058C0007F4F80EA94E00E94791A111105C0F1100F
:1058D00003C0011106C00AC080E00E94481C1123C9
:1058E000C1F381E00E94481C111101C0E1100E9427
:1058F000AF1E0E9483150E9415748D2D2FDF0E940C
:10590000D71A83E080934D010E9437220F900F90A9
:105910000F900F90DF91CF911F910F91FF90EF901B
:10592000DF90BF90AF909F908F900895CF93DF93BB
:10593000C82F0E942181D091DE0980E00FDFCC23A7
:1059400021F08C2FDF91CF91A9CD1092CC028D2F19
:1059500005DFE7EBF4E16491EF012196662331F076
:105960008DE992E10E947E13FE01F5CF6091CC0299
:1059700070E08EE193E00E9468906AE08DE992E128
:10598000DF91CF910C947E130F931F93CF93DF93EE
:10599000CDB7DEB72C970FB6F894DEBF0FBECDBFE4
:1059A00083E50E94B314882341F00E947415182FD8
:1059B000811105C080E0D2DE02C01091DE09809125
:1059C000A8049091A904A091AA04B091AB04898382
:1059D0009A83AB83BC838091AC049091AD04A09179
:1059E000AE04B091AF048D839E83AF83B88780915E
:1059F000B0049091B104A091B204B091B30489872E
:105A00009A87AB87BC8786E50E94B314882331F060
:105A10006AEE74E08AEB99E00E9492D6812F9EDEB6
:105A2000111103C0E7EBF4E120C08091DE09811180
:105A3000F9CFEDEBF4E164918F010F5F1F4F662307
:105A400031F08DE992E10E947E13F801F4CFEBEC86
:105A5000F4E064918F010F5F1F4F662319F38DE906
:105A600092E10E947E13F801F4CF64918F010F5FE1
:105A70001F4F662331F08DE992E10E947E13F801F9
:105A8000F4CF8091DE09811103C063EE71E002C0A2
:105A90006FED71E08DEB94E00E94E7906AE08DE994
:105AA00092E10E947E134CE050E068EA74E0CE017F
:105AB00001960E945DE9892B61F02C960FB6F8944F
:105AC000DEBF0FBECDBFDF91CF911F910F910C9420
:105AD00037222C960FB6F894DEBF0FBECDBFDF91F4
