:100000000C9445100C946F100C946F100C946F109E
:100010000C946F100C946F100C946F100C946F1064
:100020000C946F100C946F100C94A7AF0C9424B028
:100030000C946F100C946F100C946F100C946F1044
:100040000C946F100C940E8B0C946F100C946F101A
:100050000C946F100C946F100C94AB9E0C9406AF24
:100060000C946F100C946F100C946F100C946F1014
:100070000C946F100C946F100C946F100C946F1004
:100080000C946F100C946F100C946F100C946F10F4
:100090000C946F100C946F1095ACC1ACE3ACE3AC56
:1000A000E3ACE3ACE3ACE3ACE3ACE3ACE3ACE3ACD8
:1000B000E3ACE3ACD9ACD1ACC9ACE3ACE3ACE3ACFE
:1000C000E3ACE3ACE3ACE3ACBBACA1ACA9ACB3AC8C
:1000D000084AD73B3BCE016E84BCBFFDC12F3D6CAF
:1000E00074319ABD56833DDA3D00C77F11BED9E415
:1000F000BB4C3E916BAAAABE000000803F05A84CF5
:10010000CDB2D44EB93836A9020C50B991868808C0
:100110003CA6AAAA2ABE000000803F004E414E49DC
:100120004E495459494E46CDCCCC3D0AD7233C17B5
:10013000B7D13877CC2B329595E6241FB14F0A0002
:100140000020410000C84200401C4620BCBE4CCAF2
:100150001B0E5AAEC59D74446F6E6520736176693F
:100160006E672066696C652E0A004D3239002020CA
:10017000506C616E6E657242756666657242797426
:1001800065733A20002046726565204D656D6F727B
:10019000793A2000436F6D70696C65643A204A7546
:1001A0006E20323720323031390A00207C204175F0
:1001B00074686F723A202844722E5068696C334418
:1001C000290A00323031382D30382D303100204CA2
:1001D00061737420557064617465643A2000312E37
:1001E000312E390A004D61726C696E0020536F66C2
:1001F00074776172652052657365740A00205761D7
:10020000746368646F672052657365740A002042E6
:10021000726F776E206F75742052657365740A0073
:100220002045787465726E616C2052657365740A3E
:1002300000506F77657255700A0073746172740AAA
:10024000005072696E7465722068616C7465642E0A
:10025000206B696C6C28292063616C6C6564210AD1
:10026000004B494C4C45442E20004B494C4C2063DC
:10027000617573656420627920746F6F206D75639A
:100280006820696E6163746976652074696D6520A4
:100290002D2063757272656E7420636F6D6D616E73
:1002A000643A200020746F6F206C6F6E6720657851
:1002B00074727573696F6E2070726576656E7465A1
:1002C000640A0020636F6C642065787472757369CA
:1002D0006F6E2070726576656E7465640A006F6B70
:1002E00000526573656E643A20003A004361703ACB
:1002F0000000011C1D132FFFFFFFFF1E1F12FF1424
:10030000FFFFFF20211124FFFFFFFFFFFFFF0E1063
:10031000FFFFFF22230DFFFFFF0E260F2C27416357
:10032000746976652045787472756465723A200048
:1003300020453A00205A3A0020593A00583A002CF9
:1003400020002C2000627573793A20706175736506
:100350006420666F7220696E7075740A006275732E
:10036000793A2070617573656420666F72207573C9
:1003700065720A00627573793A2070726F636573F3
:1003800073696E670A0050726F62696E67206661FA
:10039000696C65640A00205A3A200020593A20000E
:1003A00042656420583A20002066697273740A001E
:1003B0005A0059005800486F6D65200020496E763C
:1003C000616C69642065787472756465722000657B
:1003D0006E7175657565696E67202200496E76617C
:1003E0006C69642065787472756465720A004E6F7A
:1003F0002063617365206C696768740A00416476E4
:10040000616E6365204B3D003F4B2076616C7565E6
:10041000206F7574206F662072616E6765202830CA
:100420002D3130292E0A003A200050726F6265206B
:100430005A204F6666736574003F5A206F757420AA
:100440006F662072616E676520282D3220746F20E0
:100450003230290A00454550524F4D204F4B0A007B
:10046000546F6F206661722066726F6D20726566D0
:100470006572656E636520706F696E740A0042650F
:1004800064204C6576656C696E6720004661696C16
:10049000656420746F20656E61626C6520426564DE
:1004A000204C6576656C696E670A00426564204C75
:1004B0006576656C20436F7272656374696F6E2038
:1004C0004D61747269783A0043290A0061626C6573
:1004D0006420286D696E2074656D702000436F6C18
:1004E000642065787472756465732061726520009C
:1004F000496E76616C6964206578747275646572A2
:100500000A0020643A0020693A0020703A005072D4
:100510006F6265205A204F66667365743A2000202A
:10052000466C6F773A2000205A002059005800206E
:10053000204D61783A2000205A00205900580020B0
:10054000204D696E3A20004F6666004F6E200053C2
:100550006F667420656E6473746F70733A20002048
:100560005400205200416363656C65726174696F69
:100570006E3A2050002F2F2000544845524D414CD8
:100580005F50524F54454354494F4E004155544FCC
:100590005245504F52545F53445F53544154555346
:1005A00000454D455247454E43595F5041525345D2
:1005B0005200434153455F4C494748545F425249BA
:1005C0004748544E45535300544F47474C455F4CA2
:1005D000494748545300534F4654574152455F5082
:1005E0004F574552004255494C445F504552434590
:1005F0004E54004C4556454C494E475F444154418A
:10060000005A5F50524F4245004155544F4C455699
:10061000454C005052494E545F4A4F420050524F91
:100620004752455353004155544F5245504F525431
:100630005F54454D5000564F4C554D45545249431B
:1006400000454550524F4D0053455249414C5F586B
:100650004F4E5F584F4646004649524D574152450E
:100660005F4E414D453A4D61726C696E20312E31BD
:100670002E3920284769746875622920534F5552D6
:1006800043455F434F44455F55524C3A687474701C
:10069000733A2F2F6769746875622E636F6D2F4DE3
:1006A00061726C696E4669726D776172652F4D611A
:1006B000726C696E2050524F544F434F4C5F5645F9
:1006C0005253494F4E3A312E30204D414348494E06
:1006D000455F545950453A5072696E7472626F7436
:1006E0002053696D706C65204D6574616C204558B0
:1006F0005452554445525F434F554E543A3120555C
:100700005549443A34306365363164312D3265647D
:10071000302D343533302D383330342D3535653385
:1007200065656161656266660A004D31313320534B
:10073000006F66660044454255473A006707620706
:100740005B0754074607434F4D4D554E49434154AF
:10075000494F4E0044525952554E004552524F5245
:100760005300494E464F004543484F0020573A003A
:100770004B494C4C45442E20006F6B0050726F74F7
:1007800065637465642050696E0A005072696E7406
:100790002074696D653A200043757272656E74202D
:1007A00066696C653A2000456E642066696C652058
:1007B0006C6973740A00426567696E2066696C65CE
:1007C000206C6973740A00205A3A200020593A209C
:1007D0000042656420583A20004731205A313020C9
:1007E0004637303030000A0A426564204C65766531
:1007F0006C20436F7272656374696F6E204D617413
:100800007269783A00202844525952554E290047BF
:100810003239204175746F20426564204C657665DD
:100820006C696E67003F2856296572626F73652098
:100830006C6576656C20697320696D706C61757389
:1008400069626C652028302D34292E0A00486F6DAE
:10085000652058592066697273740A0047322F4721
:10086000332062616420706172616D6574657273BA
:100870000A005761726E696E673A20486F6D696E43
:10088000672042756D702044697669736F72203CF1
:1008900020310A000202045344207265616420651D
:1008A00072726F720A00446F6E65207072696E74A6
:1008B000696E672066696C650A004B494C4C45447B
:1008C0002E20005072696E7465722073746F7070A0
:1008D00065642064756520746F206572726F727331
:1008E0002E2046697820746865206572726F7220C8
:1008F000616E6420757365204D39393920746F201D
:10090000726573746172742E202854656D706572FF
:1009100061747572652069732072657365742E2029
:100920005365742069742061667465722072657302
:1009300074617274696E67290A004E6F204368659E
:10094000636B73756D2077697468206C696E6520C0
:100950006E756D6265722C204C617374204C696EEB
:10096000653A20004E6F20436865636B73756D2098
:1009700077697468206C696E65206E756D6265724A
:100980002C204C617374204C696E653A20006368BA
:1009900065636B73756D206D69736D617463682C2D
:1009A000204C617374204C696E653A20004C696E6E
:1009B00065204E756D626572206973206E6F7420BC
:1009C0004C617374204C696E65204E756D62657262
:1009D0002B312C204C617374204C696E653A2000D9
:1009E0004D31313000FF01FF0000A0400000A04069
:1009F000000000400000184300001A4300001843A4
:100A00000000000000001843000000000000184330
:100A1000000018430000184300000000000000C060
:100A200000000000000048420000484200008040F2
:100A3000000000002569730025696D202569730099
:100A40002569682025696D20256973002569642062
:100A50002569682025696D2025697300256979203D
:100A6000256964202569682025696D202569730042
:100A70007C3C3E5E2B3D3F2F5B5D3B2C2A225C0085
:100A80004D3331006F70656E206661696C65642C52
:100A90002046696C653A20006175746F25692E6780
:100AA000006572726F722077726974696E67207464
:100AB0006F2066696C650A004E6F74205344207085
:100AC00072696E74696E670A005344207072696EB1
:100AD00074696E672062797465200044656C657482
:100AE000696F6E206661696C65642C2046696C656F
:100AF0003A200046696C652064656C657465643AEB
:100B00000057726974696E6720746F2066696C653E
:100B10003A20006F70656E206661696C65642C20F8
:100B200046696C653A20006F70656E206661696C7D
:100B300065642C2046696C653A200046696C652026
:100B400073656C65637465640A002053697A653A5D
:100B5000200046696C65206F70656E65643A200000
:100B60002066696C653A2000667265736800646F80
:100B7000696E67004E6F772000454E442053554202
:100B8000524F5554494E450A002220706F7300227F
:100B900020706172656E743A2200535542524F556F
:100BA00054494E452043414C4C2074617267657432
:100BB0003A22004B494C4C45442E2000747279690E
:100BC0006E6720746F2063616C6C207375622D6793
:100BD000636F64652066696C65732077697468204B
:100BE000746F6F206D616E79206C6576656C732E05
:100BF000204D4158206C6576656C2069733A004D34
:100C00003234004D32332025730053442063617227
:100C100064206F6B0A006F70656E526F6F74206690
:100C200061696C65640A00766F6C756D652E696E1E
:100C30006974206661696C65640A00534420696EBA
:100C40006974206661696C0A00286E6F2066696CA1
:100C500065290043616E6E6F74206F70656E20733E
:100C60007562646972200020204D393030204B00BD
:100C70004C696E65617220416476616E63653A0A03
:100C80000020204D383531205A005A2D50726F62A5
:100C900065204F666673657400204400204900207B
:100CA000204D333031205000504944207365747416
:100CB000696E67733A0A0020204D343230205300A9
:100CC0004175746F20426564204C6576656C696E71
:100CD000673A0A00205A0020590020204D32303651
:100CE000205800486F6D65206F66667365743A0A18
:100CF00000204500205A00205900205800205400B0
:100D000020530020204D32303520510020453C6DCD
:100D100061785F655F6A65726B3E0020583C6D616B
:100D2000785F785F6A65726B3E20593C6D61785FD1
:100D3000795F6A65726B3E205A3C6D61785F7A5FBD
:100D40006A65726B3E00416476616E6365643A2049
:100D5000513C6D696E5F7365676D656E745F746934
:100D60006D655F75733E20533C6D696E5F666565AA
:100D700064726174653E20543C6D696E5F7472618B
:100D800076656C5F66656564726174653E002054CB
:100D90000020520020204D32303420500041636347
:100DA000656C65726174696F6E2028756E69747305
:100DB0002F7332293A20503C7072696E745F616300
:100DC00063656C3E20523C726574726163745F614E
:100DD0006363656C3E20543C74726176656C5F6140
:100DE0006363656C3E0A00204500205A00205900CC
:100DF00020204D3230312058004D6178696D756D7D
:100E000020416363656C65726174696F6E2028753B
:100E10006E6974732F7332293A0A00204500205AF4
:100E20000020590020204D3230332058004D617889
:100E3000696D756D206665656472617465732028DF
:100E4000756E6974732F73293A0A00204500205A81
:100E50000020590020204D3932205800537465700D
:100E6000732070657220756E69743A0A0020204DF7
:100E70003230302044300A0020204D3230302044BF
:100E8000002044697361626C65640A0046696C61A4
:100E90006D656E742073657474696E67733A0020B3
:100EA00020473231202020203B0048617264636F6C
:100EB0006465642044656661756C74205365747460
:100EC000696E6773204C6F616465640A00D0070027
:100ED00000D007000064000000102700000000168A
:100EE00043000016430000E040000020420000A044
:100EF000420000A0420080FC440000BD42290A00DC
:100F00002062797465733B206372632000207374E0
:100F10006F7265642073657474696E67732072659F
:100F200074726965766564202800202863616C63AB
:100F3000756C6174656429210A0020213D200045FB
:100F40004550524F4D20435243206D69736D61747B
:100F50006368202D202873746F7265642920002037
:100F600053697A653A2000496E6465783A2000201A
:100F70004D61726C696E3D563535290A002845452C
:100F800050524F4D3D00454550524F4D20766572B1
:100F900073696F6E206D69736D61746368200029D9
:100FA0000A002062797465733B20637263200053EA
:100FB000657474696E67732053746F72656420285A
:100FC00000454550524F4D206461746173697A65E4
:100FD000206572726F722E0A004572726F722077EE
:100FE000726974696E6720746F20454550524F4D89
:100FF000210A003A0A0020286D6D29006F70656E85
:1010000000545249474745524544003A20007A5F10
:101010006D696E00795F6D617800785F6D696E0053
:101020005265706F7274696E6720656E6473746F59
:1010300070207374617475730A00205A3A00205945
:101040003A0020583A00656E6473746F70732068BC
:1010500069743A2000486F6D696E67206661696C3B
:10106000656400556E6B6E6F776E20636F6D6D619A
:101070006E643A20220020746F6F206C6F6E6720C0
:10108000657874727573696F6E2070726576656EBF
:101090007465640A0020636F6C64206578747275EF
:1010A00073696F6E2070726576656E7465640A0090
:1010B000FFFDFCFAF8F6F4F2F0EEECEAE9E7E5E31E
:1010C000E1E0DEDCDAD9D7D5D4D2D0CFCDCBCAC8D7
:1010D000C7C5C3C2C0BFBDBCBAB9B7B6B4B3B2B05E
:1010E000AFADACAAA9A8A6A5A4A2A1A09E9D9C9ABA
:1010F00099989795949392908F8E8D8B8A898887F3
:101100008684838281807F7E7D7B7A79787776750D
:1011100074737271706F6E6D6C6B6A696867666507
:1011200064636261605F5E5D5C5B5A5958585756F4
:10113000555453525150504F4E4D4C4B4A4A4948CA
:10114000474646454443424241403F3E3E3D3C3B8C
:101150003B3A39383837363535343332323130303E
:101160002F2E2E2D2C2B2B2A2929282727262525E3
:1011700024232322212120201F1E1E1D1C1C1B1B7B
:101180001A19191818171616151514131312121107
:1011900011100F0F0E0E0D0D0C0C0B0A0A09090889
:1011A0000807070606050504040303020201000000
:1011B00000000001000000010000800055555500AE
:1011C0000000400033333300AAAA2A0049922400C9
:1011D00000002000C7711C0099991900D145170023
:1011E000555515003BB1130024491200111111008F
:1011F000000010000F0F0F00E3380E0043790D00C0
:10120000CCCC0C00C3300C00E8A20B0064210B0016
:10121000AAAA0A00703D0A009DD80900427B090075
:1012200092240900DCD308008888080010420800D6
:1012300000000800F0C1070087870700755007000D
:10124000711C07003EEB0600A1BC06006990060079
:1012500066660600703E06006118060017F4050079
:1012600074D105005BB00500B29005006272050004
:101270005555050078390500B81E0500050505001F
:101280004EEC040087D40400A1BD040090A7040024
:1012900049920400C17D0400EE690400C7560400B1
:1012A000444404005C32040008210400411004009E
:1012B000000004003FF00300F8E0030026D2030022
:1012C000C3C30300CCB503003AA803000A9B030084
:1012D000388E0300C08103009F750300D0690300AE
:1012E000505E03001D53030034480300913D03008A
:1012F0003333030016290300381F0300971503003A
:10130000300C0300030303000BFA020049F1020052
:10131000BAE802005CE002002DD802002DD00200E5
:1013200059C80200B0C0020031B90200DAB10200AF
:10133000AAAA0200A0A30200BC9C0200FA95020027
:101340005C8F0200DF88020082820200457C02007E
:101350002776020027700200436A02007C640200C4
:10136000D05E02003F590200C85302006563686FF7
:101370003A004572726F723A00205A3A0020593A88
:101380000020436F756E7420583A00232C0000B87B
:10139000220000561800003A0F0000B8080000B103
:1013A000040000710200003E01000024F4D430501B
:1013B000C38E20C2A24017828B7011127A910D81C8
:1013C0006CD90AA861E108C7586607615143061E37
:1013D0004B5D05C145A7041A411104093D980371ED
:1013E0003931034036DB0265339102D43054028038
:1013F0002E1D02632CEE01752AC501B028A0011034
:101400002781018F2564012B244B01E0223401AC9C
:10141000211F018D200D01801FFC00841EED00970F
:101420001DDF00B81CD200E61BC600201BBC0064F8
:101430001AB200B219A8000A19A0006A189900D1BE
:1014400017910040178B00B516840031167E00B34B
:101450001579003A157300C7146F0058146A00EE2E
:101460001366008813630025135E00C7125B006CCF
:1014700012570015125400C111510070114F002174
:10148000114B00D61049008D104700461044000251
:10149000104200C00F4000800F3E00420F3C00068B
:1014A0000F3B00CB0E3800930E37005C0E35002743
:1014B0000E3400F30D3200C10D3100900D3000608C
:1014C0000D2E00320D2D00050D2C00D90C2B00AE79
:1014D0000C2900850C29005C0C2700350C27000E18
:1014E0000C2600E80B2400C40B2400A00B23007D75
:1014F0000B23005A0B2100390B2100180B2000F898
:101500000A1F00D90A1E00BB0A1E009D0A1D00808A
:101510000A1D00630A1C00470A1B002C0A1B00114D
:101520000A1A00F7091A00DD091900C4091900ABED
:10153000091900920917007B091800630917004C6C
:1015400009160036091600200916000A091500F5CB
:10155000081500E0081400CC081400B8081400A412
:10156000081400900813007D0812006B081300583F
:101570000812004608120034081100230811001256
:1015800008110001081100F0071000E0071000D05A
:10159000071000C0071000B0070F00A1071000914E
:1015A000070E0083070F0074070F0065070E005732
:1015B000070E0049070E003B070D002E070E002006
:1015C000070D0013070D0006070D00F9060C00EDCE
:1015D000060D00E0060C00D4060C00C8060C00BC8A
:1015E000060C00B0060C00A4060B0099060C008D3A
:1015F000060B0082060B0077060B006C060B0061E1
:10160000060A0057060B004C060A0042060A00387C
:10161000060A002E060A0024060A001A060A00100E
:1016200006090007060A00FD050900F4050900EB9C
:10163000050900E2050900D9050900D0050900C720
:10164000050900BE050900B5050800AD050800A59F
:101650000509009C050800940508008C0508008415
:101660000508007C050800740508006C0507006586
:101670000508005D050700560508004E05070047F0
:101680000507004005080038050700310507002A56
:10169000050700230507001C050600160507000FB7
:1016A0000507000805060002050700FB040600F513
:1016B000040700EE040600E8040600E2040700DB6D
:1016C000040600D5040600CF040600C9040600C3C2
:1016D000040600BD040600B7040600B1040500AC12
:1016E000040600A6040600A00405009B040600955D
:1016F000040500900406008A0405008504050080A6
:101700000406007A04050075040500700405006BEA
:1017100004050066040500610405005C040500572B
:10172000040500520405004D04050048040500436B
:101730000405003E0404003A0405003504050030A9
:101740000404002C04050027040400230405001EE3
:101750000404001A04040016040500110404000D1A
:10176000040400090405000404040000040400FC4F
:10177000030400F8030400F4030400F0030400EC85
:10178000030400E8030400E4030400E0030400DCB5
:10179000030400D8030400D4030400D0030400CCE5
:1017A000030400C8030300C503030024F404D92084
:1017B0001BC40C5C0E9804C4095F0265077101F438
:1017C00005F900FB04B30048048700C10369005811
:1017D00003550003034500BE023A00840231005362
:1017E000022A002902250004022000E4011C00C88E
:1017F000011900AF01170098011400840113007152
:101800000110006101100051010E0043010D00366E
:10181000010B002B010B0020010B00150109000C2E
:1018200001090003010800FB000800F3000800EBB9
:10183000000700E4000600DE000600D8000600D223
:10184000000600CC000500C7000500C2000500BD71
:10185000000400B9000400B5000400B1000400ADAC
:10186000000400A9000400A5000300A20003009FDB
:101870000004009B00030098000300950002009301
:10188000000300900003008D0002008B000300881D
:101890000002008600020084000300810002007F35
:1018A0000002007D0002007B000200790002007748
:1018B0000001007600020074000200720001007155
:1018C0000002006F0002006D0001006C0002006A5F
:1018D0000001006900020067000100660001006568
:1018E000000100640002006200010061000100606C
:1018F0000001005F0002005D0001005C0001005B70
:101900000001005A00010059000100580001005771
:101910000001005600010055000100540001005371
:10192000000000530001005200010051000100506E
:101930000001004F0001004E0000004E0001004D6C
:101940000001004C0001004B0000004B0001004A68
:101950000001004900010048000000480001004764
:10196000000100460000004600010045000000455F
:101970000001004400010043000000430001004258
:101980000000004200010041000000410001004051
:101990000001003F0000003F0001003E0000003E4B
:1019A0000001003D0000003D0001003C0000003C43
:1019B0000000003C0001003B0000003B0001003A39
:1019C0000000003A00010039000000390001003831
:1019D0000000003800000038000100370000003728
:1019E000000100360000003600000036000100351E
:1019F0000000003500000035000100340000003414
:101A00000000003400010033000000330000003308
:101A100000010032000000320000003200010031FD
:101A200000000031000000310001003000000030F3
:101A3000000000300001002F0000002F0000002FE8
:101A40000000002F0001002E0000002E0000002EDC
:101A50000001002D0000002D0000002D0000002DD1
:101A60000001002C0000002C0000002C0000002CC5
:101A70000001002B0000002B0000002B0000002BB9
:101A80000001002A0000002A0000002A0000002AAD
:101A900000010029000000290000002900000029A1
:101AA0000000002900010028000000280000002894
:101AB0000000002800000028000100270000002787
:101AC000000000270000002700000027000100267A
:101AD000000000260000002600000026000000266E
:101AE0000001002500000025000000250000002561
:101AF0000000002500000025000100240000002453
:101B00000000002400000024000000240001002345
:101B10000000002300000023000000230000002339
:101B2000000000230000002300010022000000222A
:101B3000000000220000002200000022000000221D
:101B40000001002100000021000000210000002110
:101B50000000002100000021000000210001002001
:101B600000000020000000200000002000000020F5
:101B70000000002000000020000000200001001FE5
:101B80000000001F0000001F0000001F0000001FD9
:101B90000000001F0000001F0001001E0000001ECA
:101BA0000000001E0000001E00000020403A00203F
:101BB0002F00546865726D616C2052756E6177619B
:101BC0007900453120544845524D414C2052554EE4
:101BD00041574159004B494C4C45442E2000202D83
:101BE00020496E76616C69642065787472756465ED
:101BF00072206E756D62657220210A0048656174FD
:101C0000696E67206661696C6564004531204865CE
:101C10006174696E67206661696C6564004D494E48
:101C200054454D502074726967676572656400455C
:101C300031204572723A204D494E54454D50004D69
:101C4000415854454D5020747269676765726564E8
:101C5000004531204572723A204D415854454D504F
:101C6000006265640A002C2073797374656D2073BB
:101C7000746F7070656421204865617465725F4996
:101C8000443A20002CFFFFFFFFFF0001010101018A
:101C900023646566696E652044454641554C545F32
:101CA0004B64200023646566696E652044454641A7
:101CB000554C545F4B69200023646566696E65204E
:101CC00044454641554C545F4B70200050494420D8
:101CD0004175746F74756E652066696E69736865A9
:101CE00064212050757420746865206C61737420C1
:101CF0004B702C204B6920616E64204B6420636F15
:101D00006E7374616E74732066726F6D2062656CA1
:101D10006F7720696E746F20436F6E6669677572A6
:101D20006174696F6E2E680A0050494420417574D1
:101D30006F74756E65206661696C656421207469D5
:101D40006D656F75740A00546865726D616C205220
:101D5000756E6177617900453120544845524D4197
:101D60004C2052554E415741590048656174696E87
:101D700067206661696C656400453120486561745F
:101D8000696E67206661696C656400504944204152
:101D900075746F74756E65206661696C6564212069
:101DA00054656D706572617475726520746F6F2013
:101DB000686967680A00204B643A2000204B693A42
:101DC0002000204B703A20000A20436C6173736935
:101DD0006320504944200A002054753A2000204BCB
:101DE000753A2000206D61783A2000206D696E3AC6
:101DF000200020643A200020626961733A2000507C
:101E00004944204175746F74756E652073746172F6
:101E1000740A00504944204175746F74756E6520D2
:101E20006661696C65642120426164206578747222
:101E300075646572206E756D6265720A004D383486
:101E400020582059205A20450070012C019001276C
:101E500001B0012201C0011D01F00118011002139F
:101E60000130020E016002090190020401C002FF6C
:101E7000000003FA004003F5008003F000D003EBFC
:101E8000002004E6007004E100E004DC004005D717
:101E900000C005D2004006CD00D006C8008007C3B0
:101EA000003008BE00F008B900C009B400B00AAFA5
:101EB00000B00BAA00D00CA500000EA000500F9B94
:101EC00000C01096005012910000148C00C01587BD
:101ED00000B0178200B0197D00D01B7800001E737F
:101EE0000040206E0090226900F024640040275FCB
:101EF0000090295A00E02B5500102E500020304B46
:101F00000010324600E033410090353C0010373776
:101F10000070383200A0392D00B03A2800A03B23D1
:101F200000603C1E00103D1900903D1400103E0F53
:101F300000703E0A00C03E0500003F0000403FFB2D
:101F4000FF803FF6FFC03FF1FF0129022904290865
:101F5000291029202940298029012C022C01260240
:101F600026042608261026202640268026402C807F
:101F70002C01230223042308231023202340238041
:101F8000230120022004200820102020204020804F
:101F900020102C202C012F022F042F082F102F206F
:101FA0002F402F802F7EFE7EFD7EFB7EF77EEF7E14
:101FB000DF7EBF7E7F00010000662012000200006D
:101FC000232043000300001F20040103090405200F
:101FD0001802030904ED1F1603030904DF1F0C0C8C
:101FE0000331003200330034003500000016035581
:101FF0000053004200200053006500720069006138
:10200000006C00000018035400650065006E00734A
:102010000079006400750069006E006F0000000424
:1020200003090409024300020100C0320904000050
:102030000102020100052400100105240100010431
:102040002402060524060001070582030800400952
:10205000040100020A000000070503024000000717
:102060000584024000001201000202000020C01698
:1020700083047202010203010001C10201803601E2
:1020800081363633AF8971B33A3311241FBECFEF97
:10209000D0E2DEBFCDBF12E0A0E0B1E0E6E7FEE7B0
:1020A00001E00BBF02C007900D92A432B107D9F72F
:1020B00021E1A4E2B2E001C01D92A33DB207E1F725
:1020C00010E1C4E4D0E104C02197FE010E94E6B310
:1020D000C134D107C9F70E9427AC0C942EBF0C94D1
:1020E00000004F925F926F927F928F929F92AF9279
:1020F000BF92CF92DF92EF92FF92CF934B015C01A0
:1021000069017A0120E030E040EA51E40E9408B41D
:102110002B013C012FE632E143E85AEB0E94E5B681
:1021200087FD48C022E430E048E153E4C301B20136
:102130000E94E2B418160CF43DC022E630E140E003
:1021400050ECC701B6010E94E5B687FD33C022E41A
:1021500030E048E153E4C701B6010E94E2B418162A
:102160004CF124EF3DEF4FE951E4C501B4010E9469
:10217000E5B687FD1FC022E430E04EE053E4C50120
:10218000B4010E94E2B41816ACF027EE3BEF4FE129
:1021900051E4C701B6010E94E5B687FD0BC0C1E05E
:1021A00022E430E04EE053E4C701B6010E94E2B4FD
:1021B00018160CF4C0E08C2FCF91FF90EF90DF90B9
:1021C000CF90BF90AF909F908F907F906F905F90D7
:1021D0004F900895CF93DF931F92CDB7DEB76983F9
:1021E000DC01ED91FC910280F381E02D41E050E0B3
:1021F000BE016F5F7F4F09950F90DF91CF910895DA
:10220000FF920F931F93CF93DF93F82E092F162F72
:10221000ECEEF2E06491EF012196662329F087EC61
:1022200091E1D8DFFE01F6CFEF2DF02F6491EF01A1
:102230002196662329F087EC91E1CCDFFE01F6CFF1
:10224000EAEEF2E06491EF012196662329F087EC33
:1022500091E1C0DFFE01F6CF412F50E060E070E079
:1022600087EC91E10E9473AB6AE087EC91E1DF912A
:10227000CF911F910F91FF90ADCFFC0123812111D0
:102280000C94034A08952F923F924F925F926F925F
:102290007F928F929F92AF92BF92CF92DF92EF92F6
:1022A000FF920F931F93CF93DF93EB01FC0180808C
:1022B0009180A280B380C501B40120E831E541E0FE
:1022C00050E00E94A8B3C9016DE671E00E9494B38A
:1022D0006B017C01C501B40120E13EE040E050E02B
:1022E0000E94A8B3CA01B90128E130E040E050E003
:1022F0000E94A8B3362E272E062F172F8CE3482EC8
:10230000512C612C712CC501B401A30192010E94D2
:10231000A8B3B62EA72ECA01B901A30192010E944B
:10232000A8B3CB01C114D104D9F0AF92BF927F936F
:102330006F932F923F92FF92EF92DF92CF928CE5B4
:102340009AE09F938F93DF93CF930E943ABC8DB70F
:102350009EB70E960FB6F8949EBF0FBE8DBF5CC0A1
:10236000E114F104C9F0AF92BF927F936F932F9263
:102370003F92FF92EF928CE49AE09F938F93DF93CA
:10238000CF930E943ABCEDB7FEB73C960FB6F894D7
:10239000FEBF0FBEEDBF40C0012BB9F0AF92BF92A0
:1023A0007F936F932F923F9280E49AE09F938F9355
:1023B000DF93CF930E943ABC8DB79EB70A960FB6B3
:1023C000F8949EBF0FBE8DBF27C0892BA9F0AF9296
:1023D000BF927F936F9388E39AE09F938F93DF93ED
:1023E000CF930E943ABCEDB7FEB738960FB6F8947B
:1023F000FEBF0FBEEDBF10C0AF92BF9284E39AE064
:102400009F938F93DF93CF930E943ABC0F900F90CE
:102410000F900F900F900F90DF91CF911F910F9120
:10242000FF90EF90DF90CF90BF90AF909F908F90F4
:102430007F906F905F904F903F902F9008958154C0
:102440008A3108F041C0E82FF0E0409143095091F3
:102450004409609145097091460904C076956795D5
:10246000579547958A95D2F7842F817040FF33C0E6
:10247000E75DF64F9081992301F1E0914E09F091CB
:102480004F09E90FF11D908120ED290F2A3080F0CE
:102490009E3229F4918190539A3078F409C09D328C
:1024A00011F09B3251F4918120ED290F2A3018F45C
:1024B0002E2F9F2F04C09E3249F020E090E0209301
:1024C0004A0990934B09089580E0089592819053B2
:1024D0009A3098F7EDCF0895B2DF882341F081E07C
:1024E00020914A0930914B09232B09F480E008958B
:1024F0000F931F93CF9380914A0990914B090097B6
:1025000011F1FC018F01C1912C2F2F7DA9F0C53451
:1025100011F0C536B9F7F801108260E070E08091E3
:102520004A0990914B090E94EAB7F801C083562FDF
:10253000472F382F292F0BC060E070E0CF911F91FB
:102540000F910C94EAB750E040E030E020E0652FB6
:10255000742F832F922FCF911F910F910895809107
:102560004A0990914B09009731F04AE050E060E051
:1025700070E00C943DB960E070E0CB01089580916B
:102580004A0990914B09009731F04AE050E060E031
:1025900070E00C9468BA60E070E0CB010895DFDF72
:1025A00097FD0AC0DCDF6F3F71058105910509F0D9
:1025B0002CF4D5DF862F089580E008958FEF0895DD
:1025C00080914A0990914B09892B31F0E8DF91E025
:1025D000811103C090E001C091E0892F08950F930D
:1025E0001F93CF93DF93CDB7DEB72C970FB6F89438
:1025F000DEBF0FBECDBFE9E8F4E080859185A285FE
:10260000B385448155816681778100811181228162
:10261000338109871A872B873C874D835E836F83BD
:10262000788789839A83AB83BC83AE014F5F5F4F0A
:10263000BE016B5F7F4FCE0109960E940E7925E99E
:1026400034E0AE014F5F5F4FBE016B5F7F4FCE0145
:1026500009960E9470872C960FB6F894DEBF0FBEC5
:10266000CDBFDF91CF911F910F9108952F923F928F
:102670004F925F926F927F929F92AF92BF92CF9252
:10268000DF92EF92FF920F931F93CF93DF93CDB71B
:10269000DEB764970FB6F894DEBF0FBECDBF1A0148
:1026A0002B01922EF32EC82ED12CF601EB51F64FB2
:1026B000E491AA24A3941E160CF4A12CBB24B39479
:1026C00020E030E0A901C201B1010E94E5B6181670
:1026D0000CF0B12CCC0CDD1CCC0CDD1CC6018757DA
:1026E0009B4F3C01FC01108211821282138277DF22
:1026F000F3012082318242825382E090AD0220E0D9
:1027000030E0A901B801892D9F2D0E94E2B481110A
:102710000AC0F601EC5DF54F85919591A591B491B4
:102720008C019A2EFB2EC801A92DBF2D898B9A8B67
:10273000AB8BBC8B8091910490919204A0919304F7
:10274000B091940440918D0450918E0460918F0457
:10275000709190040091890410918A0420918B0457
:1027600030918C040D871E872F87388B49875A87B5
:102770006B877C878D839E83AF83B88719821A828B
:102780001B821C82AE014B5F5F4FBE01675F7F4FB4
:10279000CE010D960E940E79CE0101966C018E013C
:1027A0000F5E1F4F25E934E0AE014B5F5F4FBE0166
:1027B000675F7F4F0C960E948E860E94927AAB10C4
:1027C0000E94C66D64960FB6F894DEBF0FBECDBFF3
:1027D000DF91CF911F910F91FF90EF90DF90CF90FD
:1027E000BF90AF909F907F906F905F904F903F9081
:1027F0002F90089565E974E083E00C94958890919A
:102800006C04E92FF0E0E457FD4F80839F5F943024
:1028100018F490936C0402C010926C0480916E04C2
:102820008F5F80936E040895CF93FC0120812B333A
:10283000A1F020916E04243080F4C62FBC01809159
:102840006C04F0E68F9FC001112484519D4F0E94BB
:102850000BBC8C2FD4DF81E001C080E0CF910895C4
:10286000EF92FF921F93CF93DF937C0160E0DCDF58
:10287000182F8823C9F0ECE6F3E16491EF0121966B
:10288000662329F087EC91E1A5DCFE01F6CFB701C4
:102890008FEC93E00E94328A62E287EC91E19ADC4D
:1028A0006AE087EC91E196DC812FDF91CF911F9157
:1028B000FF90EF900895DF92EF92FF920F931F9396
:1028C000CF93DF93CDB7DEB76E970FB6F894DEBF28
:1028D0000FBECDBF6091EA027091EB0261157105E8
:1028E00041F14DE150E0CE0101967C010E949ABB7E
:1028F0001E8EF7018F010E191F09D190DD2019F0EE
:102900009AE0D912F7CFF701E00FF11F1082C7014B
:10291000A7DF882371F0DD20A9F00F5F1F4F8091A2
:10292000EA029091EB02080F191F1093EB0200933B
:10293000EA0281E02091EA023091EB02232B29F494
:1029400080E003C000E010E0F0CF6E960FB6F89480
:10295000DEBF0FBECDBFDF91CF911F910F91FF90D2
:10296000EF90DF9008959093EB028093EA02A3CF5B
:102970008F929F92AF92BF92CF92DF92EF92FF928F
:102980000F931F93CF93DF9380919C04882309F4C6
:10299000E0C080916E04811102C01092250201E016
:1029A0004091040750910507609106077091070751
:1029B0008091080790910907A0910A07B0910B0731
:1029C00084179507A607B70708F400E0C0E0D0E039
:1029D000DD24D39480E6C82E80916E04843008F004
:1029E000B8C00111B6C0809125028111B2C080919A
:1029F0005F0690916006A0916106B0916206809397
:102A0000080790930907A0930A07B0930B0787E57F
:102A100096E00E945A48182F809008079090090766
:102A2000A0900A07B0900B0740910407509105074A
:102A3000609106077091070701E084169506A606C7
:102A4000B70608F400E084169506A606B706A0F4BB
:102A50008F3F2FEF920731F11A3009F448C01D3033
:102A600009F445C0133219F01A3309F057C0209108
:102A70002402211153C032C08AE994E00E94645CB0
:102A800080919C0481112DC0E6EAF8E064917F01F9
:102A90008FEFE81AF80A662309F187EC91E19ADBD7
:102AA000F701F4CFE2E7F3E164917F012FEFE21A3F
:102AB000F20A662329F087EC91E18CDBF701F4CF71
:102AC000E7E9F8E064917F018FEFE81AF80A6623DE
:102AD00029F087EC91E17EDBF701F4CF133239F472
:102AE00004C0133299F5C0E0D0E0D09225021092D4
:102AF0002402209729F40E94849DC0E0D0E06CCF8E
:102B000080916C04C89EC00DD11D1124C451DD4FAD
:102B1000188280E074DEC0E0D0E05ECFCF35D10512
:102B200008F05ACF1B3311F4D092240220912402D2
:102B3000211152CF90916C04FE01C99EE00DF11D50
:102B40001124E451FD4F8083219646CF1092240238
:102B5000D2CFDF91CF911F910F91FF90EF90DF9037
:102B6000CF90BF90AF909F908F900895EF92FF927B
:102B70000F931F93CF93DF937C0184E5ADDCD82FB7
:102B8000882369F10CDDC82F18162CF5ECE6F3E16B
:102B900064918F010F5F1F4F662329F087EC91E14D
:102BA00019DBF801F5CF6DE487EC91E113DBA701A8
:102BB00060E070E020E087EC91E10E9407AB6C2FB1
:102BC000CC0F770B8CEB93E00E94B3896AE087EC23
:102BD00091E100DB08C08093A002D0E004C08091A6
:102BE000AD028093A0028D2FDF91CF911F910F91A5
:102BF000FF90EF9008950F931F93CF93DF9394E08E
:102C0000899FE00111248E0104541D4FFE01E853F9
:102C1000FD4FDE01AC52BD4F2D913D914D915C9128
:102C200060817181828193810E9409B4F80160837F
:102C3000718382839383FE01E85EF54F85919591C0
:102C4000A591B491FE01E055FD4F80839183A2834D
:102C5000B383FE01E45FF54F85919591A591B49101
:102C6000C55FDE4F88839983AA83BB83DF91CF91B1
:102C70001F910F910895CF92DF92EF920F931F93C0
:102C8000CF93DF93CDB7DEB760970FB6F894DEBF72
:102C90000FBECDBFE090AD02E9E8F4E080859185FC
:102CA000A285B38544815581668177810081118138
:102CB000228133810D871E872F87388B49875A875A
:102CC0006B877C878D839E83AF83B88719821A8236
:102CD0001B821C82AE014B5F5F4FBE01675F7F4F5F
:102CE000CE010D960E940E79CE0101966C0109E18C
:102CF00011E025E934E0AE014B5F5F4FBE01675F35
:102D00007F4F0C960E948E8660960FB6F894DEBFB9
:102D10000FBECDBFDF91CF911F910F91EF90DF904C
:102D2000CF9008958F929F92AF92BF92CF92DF92F1
:102D3000EF920F931F93CF93DF93CDB7DEB76097DA
:102D40000FB6F894DEBF0FBECDBF8C01E090AD0290
:102D5000E9E7F4E080859185A285B38544815581BA
:102D60006681778180809180A280B3808D869E86E7
:102D7000AF86B88A49875A876B877C878D839E8305
:102D8000AF83B88719821A821B821C82AE014B5F07
:102D90005F4FBE01675F7F4FCE010D960E940E7997
:102DA000CE0101966C0125E834E0AE014B5F5F4F28
:102DB000BE01675F7F4F0C960E948E8660960FB6AD
:102DC000F894DEBF0FBECDBFDF91CF911F910F9161
:102DD000EF90DF90CF90BF90AF909F908F9008952D
:102DE0003F924F925F926F927F928F929F92AF929B
:102DF000BF92CF92DF92EF92FF920F931F93CF93E8
:102E0000DF93CDB7DEB72A970FB6F894DEBF0FBEBB
:102E1000CDBF2B013C012D833E834F835887470153
:102E20005801DA86C9868091190190911A01A09102
:102E30001B01B0911C0189839A83AB83BC83D601AB
:102E4000EC901196FC90119712960C911297139694
:102E50001C9120E030E0A901B701C8010E94E2B452
:102E6000811108C0ECE2FAE085919591A591B491A9
:102E70007C018D01A50194016091910470919204EF
:102E800080919304909194040E94E2B487FF13C050
:102E9000C701D8018093190190931A01A0931B01D7
:102EA000B0931C018092910490929204A09293049A
:102EB000B0929404E0DEE985FA85D080C18032804A
:102EC000F381F98720E030E0A9016D2D7C2D832D61
:102ED0009F2F0E94E2B4811109C0D0900101C090DF
:102EE0000201309003018091040189878D2D9C2D72
:102EF000A32DB9858093190190931A01A0931B010A
:102F0000B0931C014092890450928A0460928B0411
:102F100070928C048D819E81AF81B88580938D04E1
:102F200090938E04A0938F04B0939004A4DE20911C
:102F30009104309192044091930450919404C501FE
:102F4000B4010E94E2B487FF13C0C701D801809387
:102F5000190190931A01A0931B01B0931C01809258
:102F6000910490929204A0929304B092940483DE10
:102F70000E94927A89819A81AB81BC8180931901E8
:102F800090931A01A0931B01B0931C012A960FB6CF
:102F9000F894DEBF0FBECDBFDF91CF911F910F918F
:102FA000FF90EF90DF90CF90BF90AF909F908F9069
:102FB0007F906F905F904F903F900895CF92DF92F7
:102FC000EF92FF920F931F936B01FC01E080F18061
:102FD00002811381E9E8F4E024813581468157813B
:102FE0006081718182819381FBDE1F910F91FF903F
:102FF000EF90DF90CF900895CF92DF92EF92FF9203
:103000000F931F936A01E0909104F0909204009155
:10301000930410919404FB012081318142815381FA
:10302000FC016081718182819381DADE1F910F91B1
:10303000FF90EF90DF90CF900895809119019091CB
:103040001A01A0911B01B0911C018093E60290939C
:10305000E702A093E802B093E902809117019091F2
:1030600018019093E5028093E40284E690E0909347
:1030700018018093170108958091E6029091E7026C
:10308000A091E802B091E9028093190190931A018E
:10309000A0931B01B0931C018091E4029091E50282
:1030A00090931801809317010895FF920F931F9337
:1030B000CF93DF93882329F0D0917804D095D170F5
:1030C00001C0D0E0662341F080917804869581703C
:1030D00091E0F82EF92601C0F12C442341F0C09173
:1030E0007804C2FB882780F9C1E0C82701C0C0E08E
:1030F000D11102C0FF2019F0ECE6F3E107C0C111C5
:10310000FBCF52C087EC91E165D8F80164918F0143
:103110000F5F1F4F6111F6CFE6EBF3E064918F0173
:103120000F5F1F4F662329F087EC91E153D8F80118
:10313000F5CFDD2369F0E4EBF3E064918F010F5FDD
:103140001F4F662329F087EC91E144D8F801F5CFB1
:10315000FF2069F0E2EBF3E064918F010F5F1F4FF6
:10316000662329F087EC91E135D8F801F5CFCC231F
:1031700019F0E0EBF3E003C0E8EAF3E00AC0649181
:10318000EF0121966623C1F387EC91E123D8FE017C
:10319000F6CF6491EF012196662329F087EC91E147
:1031A00019D8FE01F6CFC1E08C2FDF91CF911F918E
:1031B0000F91FF900895BF92CF92DF92EF92FF920E
:1031C0000F931F93CF93DF93CDB7DEB728970FB63A
:1031D000F894DEBF0FBECDBF90912309981709F474
:1031E0007AC0B82E882309F453C080E090E0A0E8AC
:1031F000B0E48D839E83AF83B887C0909C02D0904B
:103200009D02E0909E02F0909F0220E030E0A90134
:10321000C701B6010E94E2B487FF0CC0A701960166
:1032200060E070E080E890E40E9408B46D837E83E3
:103230008F83988720E030E048E153E46D817E8100
:103240008F8198850E94E5B6181644F480E090E0DE
:10325000A8E1B3E48D839E83AF83B8872D813E813F
:103260004F815885609191047091920480919304EC
:10327000909194040E94E2B487FF0AC019821A82D6
:103280001B821C82BE016F5F7F4FCE01059696DECA
:103290006091890470918A0480918B0490918C04D0
:1032A00020918D0430918E0440918F0450919004B0
:1032B00019821A821B821C82E0909104F090920481
:1032C0000091930410919404FE0131966F0188DD02
:1032D0008B2D0E94D16D80E028960FB6F894DEBF4A
:1032E0000FBECDBFDF91CF911F910F91FF90EF9057
:1032F000DF90CF90BF9008954F925F926F927F9230
:103300008F929F92AF92BF92CF92DF92EF92FF92F5
:103310000F931F93CF93C82FE82EF12CF701EB5199
:10332000F64FB490823021F481E045DF811110C165
:103330006701CC0CDD1CCC0CDD1CF601EC50F64F0B
:1033400045905590659074906B2DBB0C770B880B56
:10335000990B0E9484B54B015C0120E030E040EC09
:103360005FE3C301B2010E9420B7A50194010E944E
:1033700020B7AB01BC0100E010E098018C2F76D99A
:10338000C23061F0F601E851F64F85919591A59113
:10339000B491E82F792F6A2F8B2F04C0E0E070E002
:1033A00060E480E42E2F372F462F582FC501B4013B
:1033B0000E9420B74B015C0120E030E0A9010E948F
:1033C000E2B4882309F45DC0C23021F000E010E0CF
:1033D000980104C000E010E020E830E4B501A40149
:1033E00070588C2F43D9C23009F43AC0F701EC561B
:1033F000F74F649161111FC0ECE6F3E164917F0126
:103400008FEFE81AF80A662331F087EC91E10E9409
:10341000EA10F701F3CFE2E7F8E064917F018FEF64
:10342000E81AF80A662331F087EC91E10E94EA106D
:10343000F701F3CF6AE0F601EC5DF54F459055904A
:103440006590749070E080E090E00E9484B59B01EC
:10345000AC01C301B2010E94E9B42B013C0105C0DB
:10346000412C512C612C90E4792EA5019401C501C9
:10347000B4010E9409B4AB01BC01930182018C2FFD
:10348000F5D881E090E00C2E01C0880F0A94EAF78D
:1034900090917704982B9093770490917804892BDE
:1034A00080937804F601EC52FD4F10821182128253
:1034B00013828C2FA0DBF601E050F64F8591959199
:1034C000A591B491F601E757FB4F80839183A283C6
:1034D000B383C230D1F420919C0230919D0240917F
:1034E0009E0250919F02609191047091920480918C
:1034F0009304909194040E9408B460939104709393
:103500009204809393049093940469D8F601E75849
:10351000FB4FD601A757BB4F8D919D910D90BC914C
:10352000A02D80839183A283B383C23089F480E08D
:10353000CF911F910F91FF90EF90DF90CF90BF90B0
:10354000AF909F908F907F906F905F904F9033CE11
:10355000CF911F910F91FF90EF90DF90CF90BF9090
:10356000AF909F908F907F906F905F904F90089555
:103570009F92AF92BF92CF92DF92EF92FF920F9302
:103580001F93CF93DF9387EFA82E81E0B82E09E732
:1035900014E0C9E8D4E09CEBC92E92E0D92E20EECD
:1035A000E22E22E0F22E912CF50181915F010E9422
:1035B0001F12882309F10E947812F701208121113E
:1035C00004C02091AC02222339F0288139814A813C
:1035D0005B810E9409B40AC0F3E09F1639F0F6013E
:1035E00020813181428153810E9408B4F8016083B7
:1035F00071838283938309C088819981AA81BB8169
:10360000F80180839183A283B38393940C5F1F4F4F
:103610002496F4E0CF0ED11C2FEFE21AF20A84E0D8
:103620009812C2CF86E40E946C128823C9F00E94CF
:10363000781220E030E0A9010E94E5B6181684F463
:103640000E94781220E030E040E752E40E94E9B4A2
:103650006093190170931A0180931B0190931C01D0
:10366000DF91CF911F910F91FF90EF90DF90CF905E
:10367000BF90AF909F900895CF92DF92EF92FF920C
:103680000F931F93CF93DF930FB6F894C090BC11A4
:10369000D090BD11E090BE11F090BF110FBE80918F
:1036A000AB02811174C080910001882309F46FC0BE
:1036B00080918B02882309F46AC04091870250915F
:1036C00088026091890270918A0297018601041B29
:1036D000150B260B370B37FD6DC0833031F134F4F9
:1036E00081300CF454C0ECE6F3E106C0843009F0FC
:1036F0004EC0ECE6F3E133C06491EF0121966623FE
:1037000031F087EC91E10E94EA10FE01F5CFE4E789
:10371000F3E06491EF012196662309F438C087EC49
:1037200091E10E94EA10FE01F4CFECE6F3E164912E
:10373000EF012196662331F087EC91E10E94EA10B7
:10374000FE01F5CFEDE5F3E06491EF0121966623EC
:10375000F1F087EC91E10E94EA10FE01F5CF64914F
:10376000EF012196662331F087EC91E10E94EA1087
:10377000FE01F5CFE5E4F3E06491EF0121966623C5
:1037800031F087EC91E10E94EA10FE01F5CF209123
:10379000000130E0A8EEB3E00E94EFB3C60ED71EE2
:1037A000E81EF91EC0928702D0928802E092890238
:1037B000F0928A02DF91CF911F910F91FF90EF90CD
:1037C000DF90CF9008950F931F93CF93DF9300D096
:1037D00000D0CDB7DEB78091770483708330E9F0F5
:1037E000ECE6F3E164918F010F5F1F4F662331F028
:1037F00087EC91E10E94EA10F801F4CFEDE4F8E0E3
:1038000064918F010F5F1F4F662309F43EC087EC60
:1038100091E10E94EA10F801F3CF0E94EF1280E0DC
:1038200090E0A8E9B2E480937D0490937E04A09395
:103830007F04B09380048091910490919204A091B0
:103840009304B09194048093810490938204A09394
:103850008304B093840480E090E0A0E6B2E4809317
:10386000790490937A04A0937B04B0937C0419822A
:103870001A821B821C82AE014F5F5F4F6DE774E0BE
:1038800089E794E0B9DB82E037DD0F900F900F906D
:103890000F90DF91CF911F910F9108950F931F9378
:1038A000CF93DF93CDB7DEB769970FB6F894DEBF3D
:1038B0000FBECDBF0E942F986E8B7F8B888F998F04
:1038C000BE016F5F7F4FCE0146960E944311ECE62A
:1038D000F3E164918F010F5F1F4F662331F087EC96
:1038E00091E10E94EA10F801F4CFBE016F5F7F4FB3
:1038F0008BE897E00E94328A6AE087EC91E10E94AF
:10390000EA1069960FB6F894DEBF0FBECDBFDF9107
:10391000CF911F910F910895CF9380919C048111B5
:103920000E94927A80919D048823A9F180E50E94EB
:103930006C12882321F00E94E012C82F04C080E599
:103940000E941F12C82F60914C0970914D092C2FB5
:1039500041E08AE994E00E94E75883E50E946C12F6
:10396000882381F00E94AF12AB01BC01409308078D
:103970005093090760930A0770930B0787E596E059
:103980000E941F498AE994E00E947456C11103C045
:10399000CF910C946E98CF910895CF93DF93E2E787
:1039A000F3E16491EF012196662331F087EC91E118
:1039B0000E94EA10FE01F5CFECE7F7E06491EF0119
:1039C0002196662331F087EC91E10E94EA10FE0116
:1039D000F5CFDF91CF9108950F931F93CF9383E598
:1039E0000E946C12882309F440C00E94CF12082F55
:1039F00080E50E946C128823C1F10E94CF12C82F6B
:103A000087FD33C089E40E946C12882339F00E943C
:103A1000E012811112C0E1EFF2E00BC089E40E94D4
:103A20001F1281110AC0F7CF319683E0EE31F807FB
:103A300021F08491C813F8CF14C08C2F0E9474AC6D
:103A4000EC2FF0E0002E0E9419AD10E0B8018C2F91
:103A50000E9485ACC03149F41093AF020093AE02CE
:103A600004C0CF911F910F9198CFCF911F910F91CB
:103A7000089588E690E07AD8811122C08091990457
:103A800083FD1EC083E50E946C128823B9F00E945A
:103A900078120E9451B57093B1116093B01180E01B
:103AA0000E94AB9B0E94781220E030E04AEA52E488
:103AB0000E94E2B4181614F00E94D8970C947F89E3
:103AC0000895CF92DF92EF92FF9283E50E946C12ED
:103AD000882321F10E94CF128D3308F08CE380936C
:103AE00062110FB6F894C090BC11D090BD11E09057
:103AF000BE11F090BF110FBE282F30E0A8EEB3E04A
:103B00000E94EFB3C60ED71EE81EF91EC0925E11CA
:103B1000D0925F11E0926011F0926111FF90EF90EE
:103B2000DF90CF90089580E50E946C12811106C04D
:103B300083E50E946C12882359F005C00E94CF12C1
:103B400081110CC0F5CF0E94AF126F3F710510F0CC
:103B50006FEF70E07093AF026093AE020895DF9252
:103B6000EF92FF920F931F93CF93DF9383E50E9411
:103B70001F12882359F083E50E946C12882319F0E4
:103B80000E94CF1201C080E080939904ECE6F3E13B
:103B90006491EF012196662331F087EC91E10E9458
:103BA000EA10FE01F5CFE5E3F7E06491EF0121961D
:103BB000662331F087EC91E10E94EA10FE01F5CF17
:103BC000809199048823A9F18CE3E82E87E0F82EF0
:103BD00000E010E020E08091990490E0002E02C007
:103BE000959587950A94E2F780FF1AC0DD24D39457
:103BF000D20E222329F06CE287EC91E10E94EA10B8
:103C0000F70185919491FC016491EF01219666235F
:103C100031F087EC91E10E94EA10FE01F5CF2D2DE5
:103C20000F5F1F4F82E0E80EF11C0530110599F679
:103C30000DC0E1E3F7E06491EF012196662331F0D6
:103C400087EC91E10E94EA10FE01F5CF6AE087EC73
:103C500091E1DF91CF911F910F91FF90EF90DF9055
:103C60000C94EA10CF93DF9383E50E946C128823B3
:103C700051F00E94CF128D3308F08CE38093000145
:103C8000DF91CF910895ECE6F3E16491EF01219685
:103C9000662331F087EC91E10E94EA10FE01F5CF36
:103CA0004091000150E060E070E08AE297E00E94FD
:103CB000118A6AE087EC91E1DF91CF910C94EA10D0
:103CC0004F925F926F927F92AF92BF92CF92DF92AC
:103CD000EF92FF920F931F93CF9387EFA82E81E06F
:103CE000B82E08EF19E0C0E0F50181915F010E9454
:103CF0001F12882309F46DC0C33009F063C00E940D
:103D000078126B017C0120E030E040EA51E40E942F
:103D1000E2B487FF4EC0A70196016091040A70913A
:103D2000050A8091060A9091070A0E94E9B42B01C6
:103D30003C019B01AC016091D0097091D109809147
:103D4000D2099091D3090E9420B76093D009709353
:103D5000D1098093D2099093D309A3019201609174
:103D6000140A7091150A8091160A9091170A0E9400
:103D700020B76093140A7093150A8093160A9093E3
:103D8000170A6091280A7091290A80912A0A909155
:103D90002B0A0E9482B5A30192010E9420B70E94C3
:103DA00056B56093280A7093290A80932A0A909343
:103DB0002B0AC092040AD092050AE092060AF092F9
:103DC000070A07C00E947812F8016083718382831A
:103DD0009383CF5F0C5F1F4FC43009F085CFCF9125
:103DE0001F910F91FF90EF90DF90CF90BF90AF9019
:103DF0007F906F905F904F900C945B890F931F930F
:103E0000CF93DF93C9E8D4E00CEB12E0F8012081F6
:103E1000318142815381688179818A819B810E94AD
:103E200009B4AB01BC018CE393E00E94F089F80176
:103E300024813581468157816C817D818E819F816E
:103E40000E9409B4AB01BC0188E393E00E94F089B1
:103E5000F8012085318542855385688579858A8575
:103E60009B850E9409B4AB01BC0184E393E00E94EE
:103E7000F0894C855D856E857F8580E393E00E94A7
:103E8000F089DF91CF911F910F910C9437972F926A
:103E90003F924F925F926F927F928F929F92AF92DA
:103EA000BF92CF92DF92EF92FF920F931F93CF9327
:103EB000DF9387EF882E81E0982EC4EDD2E099E859
:103EC000A92E94E0B92E0CEB12E0312C212CF40138
:103ED00081914F010E946C12882309F44AC00E940C
:103EE00078126B017C01F3E03F1649F0F801208164
:103EF0003181428153810E9408B46B017C01F5013C
:103F00002081318142815381C701B6010E9408B4EA
:103F10002B013C012DEB37E346E855EB0E94E5B65B
:103F200087FD0AC02DEB37E346E855E3C301B20134
:103F30000E94E2B41816ECF4F3E03F120BC0C092FA
:103F40009504D0929604E0929704F092980422246B
:103F500023940FC0A3019201688179818A819B819A
:103F60000E9409B4688379838A839B83832D0E948E
:103F7000FB153394249684E0A80EB11C0C5F1F4FF0
:103F8000E4E03E12A4CF21100E94FA13DF91CF91FA
:103F90001F910F91FF90EF90DF90CF90BF90AF9067
:103FA0009F908F907F906F905F904F903F902F9059
:103FB00025CFCF93DF93E8E5F6E06491EF012196FA
:103FC000662331F087EC91E10E94EA10FE01F5CF03
:103FD00060E088E496E00E94001161E081E496E0F0
:103FE0000E94001161E086E396E00E94001161E00A
:103FF00086E296E00E94001160E08DE196E00E946A
:10400000001161E083E196E00E94001161E089E027
:1040100096E00E94001161E081E096E00E940011AC
:1040200061E083EF95E00E94001160E085EE95E08D
:104030000E94001160E086ED95E00E94001160E0B2
:1040400088EC95E00E94001160E082EB95E00E9410
:10405000001160E081EA95E00E94001160E08CE8C8
:1040600095E00E94001161E089E795E0DF91CF9132
:104070000C940011CF92DF92EF92FF92CF9388ECD5
:1040800090E00E94B61581114EC084E40E941F1278
:10409000882309F441C00E9478126B017C01C1E0C1
:1040A00020E030E0A9010E94E2B4811101C0C0E02B
:1040B000C093500920E030E0A901C701B6010E9479
:1040C000E2B4882349F10E947812E091A00224E032
:1040D000E29FF0011124E054F64F608371838283E4
:1040E000938320E030E0A9016091C0097091C1097B
:1040F0008091C2099091C3090E94E2B481110CC061
:1041000080E090E0A0EEBFE38093C0099093C109E6
:10411000A093C209B093C309CF91FF90EF90DF90B5
:10412000CF900C94A978CF91FF90EF90DF90CF9033
:104130000895CF9383E50E946C128823A1F00E941A
:1041400078126093E0097093E1098093E2099093FB
:10415000E3096093D8097093D9098093DA099093A1
:10416000DB09C0E001C0C1E080E50E946C12882339
:1041700059F00E9478126093E0097093E1098093EE
:10418000E2099093E309C0E082E50E946C12882363
:1041900059F00E9478126093DC097093DD098093D6
:1041A000DE099093DF09C0E084E50E946C12882349
:1041B00059F00E9478126093D8097093D9098093BE
:1041C000DA099093DB092CC0CC2351F14091E0092E
:1041D0005091E1096091E2097091E30985E695E06B
:1041E0000E94F0894091DC095091DD096091DE095F
:1041F0007091DF0982E695E00E94F0894091D8092C
:104200005091D9096091DA097091DB098FE595E049
:104210000E94F0896AE087EC91E1CF910C94EA105A
:10422000CF91089581E50E941F12882351F00E94CA
:10423000BF126093180A7093190A80931A0A909318
:104240001B0A83E50E941F12882351F00E947812F6
:104250006093E4097093E5098093E6099093E70978
:1042600084E50E941F12882351F00E947812609307
:10427000D4097093D5098093D6099093D70988E51E
:104280000E941F12882351F00E9478126093C40983
:104290007093C5098093C6099093C70989E50E9468
:1042A0001F12882351F00E9478126093C8097093FE
:1042B000C9098093CA099093CB098AE50E941F120D
:1042C000882351F00E9478126093CC097093CD0935
:1042D0008093CE099093CF0985E40E941F12882312
:1042E00051F00E9478126093D0097093D1098093A5
:1042F000D2099093D3090895CF93DF93ECE6F3E1CD
:104300006491EF012196662331F087EC91E10E94E0
:10431000EA10FE01F5CF83E50E941F12882321F0E9
:104320000E94E01280930A01EFE4F5E06491EF014E
:104330002196662331F087EC91E10E94EA10FE019C
:10434000F5CF80910A01811103C0E7E4F5E002C0D6
:10435000EBE4F5E06491EF012196662331F087EC00
:1043600091E10E94EA10FE01F5CFEFE3F5E06491E0
:10437000EF012196662331F087EC91E10E94EA106B
:10438000FE01F5CF2091BC023091BD024091BE02EA
:104390005091BF026091B0027091B1028091B2025F
:1043A0009091B3020E9409B4AB01BC018DE395E08A
:1043B0000E94F0892091C0023091C1024091C20256
:1043C0005091C3026091B4027091B5028091B6021F
:1043D0009091B7020E9409B4AB01BC018AE395E059
:1043E0000E94F0892091C4023091C5024091C6021A
:1043F0005091C7026091B8027091B9028091BA02DF
:104400009091BB020E9409B4AB01BC0187E395E027
:104410000E94F089EFE2F5E06491EF0121966623B6
:1044200031F087EC91E10E94EA10FE01F5CF209176
:10443000BC023091BD024091BE025091BF0260911A
:104440000B0170910C0180910D0190910E010E9461
:1044500009B4AB01BC018DE295E00E94F089209186
:10446000C0023091C1024091C2025091C3026091DA
:104470000F017091100180911101909112010E9421
:1044800009B4AB01BC018AE295E00E94F089209159
:10449000C4023091C5024091C6025091C70260919A
:1044A00013017091140180911501909116010E94E1
:1044B00009B4AB01BC0187E295E00E94F0896AE093
:1044C00087EC91E1DF91CF910C94EA100F931F9349
:1044D000CF93DF938DED90E00E94B615811170C0EF
:1044E00083E50E946C128823B9F1C091A002D0E04C
:1044F0000E94AF12CC0FDD1FC25DDE4F798368834F
:104500008091A00290E0EC01CC0FDD1FCC0FDD1FED
:104510008E01065D1E4F880F991FFC01E25DFE4F64
:1045200060817181072E000C880B990B0E9484B565
:104530002AE037ED43E25CE30E9420B7C454D64F33
:10454000288139814A815B810E9420B7F80160830C
:1045500071838283938334C0ECE6F3E16491EF01CD
:104560002196662331F087EC91E10E94EA10FE016A
:10457000F5CF65E487EC91E10E94EA106091A0021A
:10458000605D87EC91E10E94EA10E091A002F0E00A
:10459000EE0FFF1FE25DFE4F608171818FE195E0BC
:1045A0000E94B38965E287EC91E10E94EA106AE01B
:1045B00087EC91E1DF91CF911F910F910C94EA105C
:1045C000DF91CF911F910F910895CF92DF92EF92DB
:1045D000FF92CF93DF938AE50E946C12811106C08F
:1045E00083E50E946C12882309F481C00E9478122E
:1045F00020E030E040E050EC0E94E2B487FD15C0BE
:104600000E94781220E030E040E050E40E94E5B6DD
:1046100018162CF00E9478126B017C010BC0C12C83
:10462000D12CE12C90E4F92E05C0C12CD12CE12C29
:1046300080ECF82E8091770482FF18C0C091A211FF
:10464000D091A3112091000A3091010A4091020AF1
:104650005091030AC701B6010E9420B70E9451B5CC
:10466000C60FD71FD093A311C093A21180E50E945B
:104670001F12882321F00E94E0128823C1F1A701B4
:10468000960160919C0270919D0280919E02909192
:104690009F020E9409B460939C0270939D028093D4
:1046A0009E0290939F02ECE6F3E16491EF01219664
:1046B000662331F087EC91E10E94EA10FE01F5CF0C
:1046C00040919C0250919D0260919E0270919F02C8
:1046D0008EE095E00E94F0896AE087EC91E1DF913D
:1046E000CF91FF90EF90DF90CF900C94EA10DF9184
:1046F000CF91FF90EF90DF90CF900895CF93DF930D
:1047000085E40E946C12811110C080E50E941F1286
:10471000882391F00E9478126093AC117093AD11D0
:104720008093AE119093AF1107C00E94CF128823DF
:1047300061F3E2E7F3E172C089E40E941F1288236B
:1047400081F00E9478122CEA35EC47E25EE30E9489
:1047500020B76093A8117093A9118093AA11909328
:10476000AB1184E40E941F12882381F00E9478120A
:104770002CEA35EC47E25EE30E94E9B46093A411B1
:104780007093A5118093A6119093A711ECE6F3E125
:104790006491EF012196662331F087EC91E10E944C
:1047A000EA10FE01F5CF4091AC115091AD1160912E
:1047B000AE117091AF118AE095E00E94F0892CEA69
:1047C00035EC47E25EE36091A8117091A9118091E8
:1047D000AA119091AB110E94E9B4AB01BC0186E033
:1047E00095E00E94F0892CEA35EC47E25EE36091A7
:1047F000A4117091A5118091A6119091A7110E940A
:1048000020B7AB01BC0182E095E00E94F0896AE02C
:1048100087EC91E1DF91CF910C94EA106491EF0164
:104820002196662331F087EC91E10E94EA10FE01A7
:10483000F5CFE0EFF4E06491EF012196662331F0CB
:1048400087EC91E10E94EA10FE01F5CFDF91CF9154
:104850000895CF93DF9383E50E941F12C82F88230A
:1048600071F00E9478120E9451B5709349016093D3
:10487000480121E0672B09F020E02093971180E5A3
:104880000E941F12882359F020914801309149015C
:10489000232B11F00E94E0128093971131C0C111B7
:1048A0002FC0ECE6F3E16491EF012196662331F02D
:1048B00087EC91E10E94EA10FE01F5CF80919711FB
:1048C000811103C068ED71E002C065ED71E08DED0E
:1048D00094E00E94328A60914801709149018CEC09
:1048E00094E00E94B389E8ECF4E06491EF01219632
:1048F000662331F087EC91E10E94EA10FE01F5CFCA
:10490000DF91CF9108958F929F92AF92BF92EF92D5
:10491000FF920F931F93CF93DF9300D000D0CDB7BA
:10492000DEB785E40E946C12882321F00E94AF124A
:104930008B0102C000E010E083E40E946C12882327
:1049400021F00E94AF12F62E02C025E0F22E85E57E
:104950000E946C12882321F00E94E012E82E04C00D
:1049600085E50E941F12E82E17FD07C0812C912CAF
:1049700096E1A92E93E4B92E06C0812C912C8CE8E7
:10498000A82E82E4B82E83E50E946C12882321F0C1
:104990000E9478124B015C01C501B4010E9451B51F
:1049A0000115110511F41092A002072E000C880BBE
:1049B000990B0E9484B569837A838B839C832E2D07
:1049C0004F2D602FCE0101960E942FA00F900F90C7
:1049D0000F900F90DF91CF911F910F91FF90EF906B
:1049E000BF90AF909F908F9008952F923F924F92DB
:1049F0005F926F927F928F929F92AF92BF92CF926F
:104A0000DF92EF92FF920F931F93CF93DF93CDB777
:104A1000DEB72E970FB6F894DEBF0FBECDBF41E0D4
:104A200061E081E00E9455188111B9C000E01AE0F0
:104A300089E894E09E878D87FE0131965F0195EEAF
:104A4000892E99E0992E1F01F80165917591859144
:104A50009491ED85FE85C190D190E190F190FE8713
:104A6000ED87A70196010E9408B42B013C01F101DA
:104A7000608371838283938320E030E040EA51ECCD
:104A80000E94E5B687FD0AC020E030E040EA51E42C
:104A9000C301B2010E94E2B418162CF4F40184910F
:104AA00018160CF472C0F101C190D190E190F19010
:104AB0001F0120E030E040EA51ECC701B6010E943E
:104AC000E5B687FD0AC020E030E040EA51E4C701C6
:104AD000B6010E94E2B41816F4F4E2E7F3E164913F
:104AE0008F010F5F1F4F611103C0E0E6F4E006C0C5
:104AF00087EC91E10E94EA10F801F1CF64918F01F7
:104B00000F5F1F4F662309F44AC087EC91E10E94B2
:104B1000EA10F801F3CF0C5F1F4FFFEF8F1A9F0AC7
:104B20008AE00C30180709F08FCF88ECE82E82E07D
:104B3000F82E10E0F50181919191A191B1915F0161
:104B4000F70181939193A193B1937F01812F0E94EB
:104B5000FB151F5F133071F72E960FB6F894DEBF6A
:104B60000FBECDBFDF91CF911F910F91FF90EF90BE
:104B7000DF90CF90BF90AF909F908F907F906F907D
:104B80005F904F903F902F9039C9F7FAF094F7F863
:104B9000F094F101C082D182E282F38284CF2E961A
:104BA0000FB6F894DEBF0FBECDBFDF91CF911F913E
:104BB0000F91FF90EF90DF90CF90BF90AF909F90BC
:104BC0008F907F906F905F904F903F902F900895BF
:104BD000CF93DF930E94656D8823D1F0ECE6F3E17B
:104BE0006491EF012196662331F087EC91E10E94F8
:104BF000EA10FE01F5CFE5E5F4E06491EF012196BE
:104C0000662331F087EC91E10E94EA10FE01F5CFB6
:104C1000DF91CF910895CF92DF92EF92FF92CF93E1
:104C2000DF938AE50E946C12811103C0ECE6F3E188
:104C30003EC00E9478126B017C0120E030E040E031
:104C400050EC0E94E5B687FD0AC020E030E040EA63
:104C500051E4C701B6010E94E2B418161CF4E2E761
:104C6000F3E10EC0C0929C02D0929D02E0929E029F
:104C7000F0929F0245C087EC91E10E94EA10FE018C
:104C80006491EF0121966111F6CFE9E3F4E06491BC
:104C9000EF0121966623A1F187EC91E10E94EA10D1
:104CA000FE01F5CF87EC91E10E94EA10FE016491CC
:104CB000EF0121966111F6CFEAE2F4E06491EF0191
:104CC0002196662331F087EC91E10E94EA10FE0103
:104CD000F5CF40919C0250919D0260919E0270918F
:104CE0009F0287E294E00E94F0896AE087EC91E1FC
:104CF000DF91CF91FF90EF90DF90CF900C94EA106E
:104D0000DF91CF91FF90EF90DF90CF900895CF92F9
:104D1000DF92EF92FF92CF93DF938BE40E946C12AD
:104D2000811103C0ECE6F3E136C08BE40E946C1203
:104D30008823C1F00E9478126B017C0120E030E0F2
:104D4000A9010E94E5B687FD0AC020E030E040E2FC
:104D500051E4C701B6010E94E2B4181634F4E8E049
:104D6000F4E00EC0C12CD12C76010E94927AC09240
:104D70006909D0926A09E0926B09F0926C092DC022
:104D80006491EF012196662341F187EC91E10E9445
:104D9000EA10FE01F5CF6491EF012196662331F010
:104DA00087EC91E10E94EA10FE01F5CF409169097C
:104DB00050916A0960916B0970916C098DEF93E0D5
:104DC0000E94F0896AE087EC91E1DF91CF91FF903A
:104DD000EF90DF90CF900C94EA10DF91CF91FF908D
:104DE000EF90DF90CF9008951F93CF93DF93182F0C
:104DF000ECE6F3E16491EF012196662331F087EC54
:104E000091E10E94EA10FE01F5CF64E587EC91E1A3
:104E10000E94EA10412F50E060E070E020E087EC53
:104E200091E10E9407AB60E287EC91E10E94EA10F9
:104E3000ECEDF3E06491EF012196662331F087EC0D
:104E400091E10E94EA10FE01F5CFDF91CF911F9111
:104E50000895CF93DF93E0916D04F0E0E457FD4FA8
:104E600080818823A1F0EEEDF2E06491EF012196BC
:104E7000662331F087EC91E10E94EA10FE01F5CF44
:104E80006AE087EC91E1DF91CF910C94EA10DF9119
:104E9000CF910895CF92DF92EF92FF92CF93DF935D
:104EA00020910A01222309F485C0EC01C090B002D0
:104EB000D090B102E090B202F090B302A701960147
:104EC000688179818A819B810E94E2B487FF04C056
:104ED000C882D982EA82FB82C090B402D090B50227
:104EE000E090B602F090B702A70196016C817D8137
:104EF0008E819F810E94E2B487FF04C0CC82DD8254
:104F0000EE82FF82C0900B01D0900C01E0900D0169
:104F1000F0900E01A7019601688179818A819B81B9
:104F20000E94E5B6181624F4C882D982EA82FB8270
:104F3000C0900F01D0901001E0901101F09012018B
:104F4000A70196016C817D818E819F810E94E5B6CB
:104F5000181624F4CC82DD82EE82FF82C090B80263
:104F6000D090B902E090BA02F090BB02A70196017E
:104F7000688579858A859B850E94E2B487FF04C095
:104F8000C886D986EA86FB86C0901301D0901401AA
:104F9000E0901501F0901601A701960168857985CA
:104FA0008A859B850E94E5B6181624F4C886D986A2
:104FB000EA86FB86DF91CF91FF90EF90DF90CF9054
:104FC0000895CF93DF9380E00E947C7AC0E9D2E01D
:104FD000688379838A839B8381E00E947C7A6C83D7
:104FE0007D838E839F8382E00E947C7A68877987A5
:104FF0008A879B87DF91CF910895CF93DF93E1DF7D
:105000006BE587EC91E10E94EA10C0E9D2E04881AB
:1050100059816A817B8122E087EC91E10E9480AB1B
:105020004C815D816E817F8182E493E00E94F089F2
:10503000488559856A857B858FE393E00E94F089D6
:105040006DE587EC91E10E94EA106AE087EC91E15E
:10505000DF91CF910C94EA10CF93C82FB2DF80E993
:1050600092E00E949479CE3F51F48CE0E0E9F2E0C6
:10507000A9E8B4E001900D928A95E1F713C024E00D
:10508000C29FC0011124FC01E757FB4FDC01A05770
:10509000BD4F8D919D910D90BC91A02D80839183EA
:1050A000A283B383CF910895CF939091BB099817B2
:1050B00089F0C82F0E94927AC093BB09C11103C026
:1050C0008EEFCADF04C089E894E00E949479CF9102
:1050D0000C94EF12CF91089580E0E6DF87E999E024
:1050E0000C94B4A88F929F92AF92BF92DF92EF92EE
:1050F000FF920F931F93CF93DF9300D000D0CDB7D3
:10510000DEB7182F809177048770873079F48FE4A9
:105110000E946C12882329F00E94E012811199C02C
:1051200005C08FE40E941F12811193C00E94927AE1
:10513000D090BB0980E0B8DF0E941D1881E00E947A
:10514000BE6D11111CC088E50E941F12F82E89E562
:105150000E941F12082F8AE50E941F12E82EF110EC
:1051600007C001110AC0811108C0F02E11E00DC066
:10517000002319F0F02E182F08C010E006C0FF24FD
:10518000F39401E0EE24E39411E080E1E9E8F4E037
:10519000A9E7B4E001900D928A95E1F782E50E94BB
:1051A0006C12882361F00E9478124B015C0120E0B0
:1051B00030E0A9010E94E2B4882369F105C0812C86
:1051C000912C80E4A82EBA2C111104C0F11002C059
:1051D000002391F18092810490928204A092830432
:1051E000B0928404A501940160919104709192049D
:1051F00080919304909194040E94E2B487FF0BC0C5
:1052000019821A821B821C82BE016F5F7F4F81E868
:1052100094E00E94DE17111105C0F11003C00111C6
:1052200006C00AC080E00E947C191123C1F381E00E
:105230000E947C19111101C0E1100E94E31B0E9421
:10524000EF120E94C16D8D2D2FDF0E943C180E942D
:10525000FE1E0F900F900F900F90DF91CF911F9136
:105260000F91FF90EF90DF90BF90AF909F908F9045
:105270000895CF93DF93C82F0E94927AD091BB09F3
:1052800080E012DFCC2321F08C2FDF91CF91ACCDC9
:105290001092AD028D2F08DFECE6F3E16491EF018F
:1052A0002196662331F087EC91E10E94EA10FE011D
:1052B000F5CF6091AD0270E08EE193E00E94B3897A
:1052C0006AE087EC91E1DF91CF910C94EA100F93A3
:1052D0001F93CF93DF93CDB7DEB72C970FB6F8941B
:1052E000DEBF0FBECDBF83E50E941F12882341F0B1
:1052F0000E94E012182F811105C080E0D5DE02C0A7
:105300001091BB098091890490918A04A0918B042B
:10531000B0918C0489839A83AB83BC8380918D0484
:1053200090918E04A0918F04B09190048D839E8300
:10533000AF83B8878091910490919204A0919304D7
:10534000B091940489879A87AB87BC8786E50E94D1
:105350001F12882331F06BEA74E087E999E00E941C
:105360007FAA812FA1DE111103C0ECE6F3E120C07A
:105370008091BB098111F9CFE2E7F3E164918F01DC
:105380000F5F1F4F662331F087EC91E10E94EA1016
:10539000F801F4CFECE8F4E064918F010F5F1F4F48
:1053A000662319F387EC91E10E94EA10F801F4CF2B
:1053B00064918F010F5F1F4F662331F087EC91E1FD
:1053C0000E94EA10F801F4CF8091BB09811103C05B
:1053D00060EE71E002C06CED71E08EE794E00E9437
:1053E000328A6AE087EC91E10E94EA104CE050E0DA
:1053F00069E874E0CE0101960E94C3BB892B61F07D
:105400002C960FB6F894DEBF0FBECDBFDF91CF91C3
:105410001F910F910C94FE1E2C960FB6F894DEBFD0
:105420000FBECDBFDF91CF911F910F9108950E94C4
:105430002C7A0E94927A8EEF0FDE0C94EF122F924C
:105440003F924F925F926F927F928F929F92AF9214
:10545000BF92CF92DF92EF92FF920F931F93CF9361
:10546000DF93CDB7DEB7A0970FB6F894DEBF0FBEBF
:10547000CDBF1C017F8F6E8F498F28A3DC018D90DB
:105480009D90AD90BC90FB01408051806280738004
:105490000023A1F0A3019201C501B4010E94711083
:1054A000882309F4EFC120E030E040EA51E4C5016F
:1054B000B4010E9408B44B015C012AC02FE632E11E
:1054C00043E85AEBC501B4010E94E5B687FDDAC195
:1054D00022E430E048E153E4C501B4010E94E2B4A3
:1054E00018160CF4CFC122E630E140E050ECC301C5
:1054F000B2010E94E5B687FDC5C122E430E048E173
:1055000053E4C301B2010E94E2B418160CF4BAC10C
:10551000E0909104F090920400919304109194040F
:105520008091190190911A01A0911B01B0911C0169
:105530008A8F9B8FAC8FBD8F80910101909102016A
:10554000A0910301B09104018093190190931A0175
:10555000A0931B01B0931C0119821A821B821C822A
:10556000DE0111966D01A3019201C501B4010E94F3
:10557000F01681E00E94DB188111E4C0809177046D
:1055800082FF11C020919C0230919D0240919E02A9
:1055900050919F0260E070E080E090EC0E9408B4BF
:1055A0002B013C0106C0412C512C90E2692E91EC5C
:1055B000792E4D865E866F86788AC12CD12C80E844
:1055C000E82E80E4F82EC986DA86EB86FC86BE01DA
:1055D000675F7F4FCE010D960E94DE17109125095F
:1055E0001092250982E038DD0E94EF1212FD05C0FD
:1055F00060E070E080EC9FE75EC080909104909046
:105600009204A0909304B0909404C982DA82EB8251
:10561000FC8220E030E040E450E4C501B4010E9487
:1056200009B46D837E838F839887BE016F5F7F4F40
:10563000CE0105960E94DE174D825E826F827886CB
:1056400080E090E0A0E0B0E489839A83AB83BC83E0
:10565000BE016F5F7F4FCE0105960E94DE1710914D
:1056600025091092250982E0F7DC0E94EF1212FF53
:10567000BFCF20E030E040E450E4609191047091AD
:10568000920480919304909194040E9420B76B013E
:105690007C01A5019401C501B4010E9409B49B01DC
:1056A000AC01C701B6010E9409B42DEC3CEC4CE4FE
:1056B0005EE30E9420B720919C0230919D024091B0
:1056C0009E0250919F020E9409B46B018C01898D4A
:1056D0008250823050F580E090E0A0E8B0E4898B01
:1056E0009A8BAB8BBC8B20919104309192044091AA
:1056F000930450919404B98DB33029F060E070E0C8
:1057000080E490E404C060E070E088EC91E40E94E2
:1057100009B46D8B7E8B8F8B988FBE016F5E7F4F30
:10572000CE0145960E94DE1708C0E98DE13029F4CC
:1057300080E00E94DB18811105C0F8A1F33008F465
:105740006FC008C098A1933008F4A1C0C12CD12C1F
:1057500000EC1FE7E0EAF3E064917F018FEFE81AC5
:10576000F80A662331F087EC91E10E94EA10F70114
:10577000F3CF2091BC023091BD024091BE02509106
:10578000BF02D1016D917D918D919C910E9409B4D0
:10579000AB01BC0123E087EC91E10E9480ABEBE917
:1057A000F3E064917F01BFEFEB1AFB0A662331F04F
:1057B00087EC91E10E94EA10F701F3CF2091C0023B
:1057C0003091C1024091C2025091C302EE8DFF8D13
:1057D00060817181828193810E9409B4AB01BC0117
:1057E00023E087EC91E10E9480ABE6E9F3E064916D
:1057F0007F018FEFE81AF80A662331F087EC91E118
:105800000E94EA10F701F3CF23E0A601B80187EC6C
:1058100091E10E9480AB6AE087EC91E10E94EA107E
:105820008A8D9B8DAC8DBD8D8093190190931A014B
:10583000A0931B01B0931C019601A801B601C801F9
:105840000E94CEB78823A1F1E2E7F3E164917F01E2
:105850009FEFE91AF90A662331F087EC91E10E9483
:10586000EA10F701F3CFE6E8F3E064917F01AFEFD0
:10587000EA1AFA0A6623E1F087EC91E10E94EA1045
:10588000F701F3CFC12CD12C00EC1FE711C08A8D9A
:105890009B8DAC8DBD8D8093190190931A01A093BF
:1058A0001B01B0931C01C12CD12C00EC1FE7CCCF05
:1058B000B601C801A0960FB6F894DEBF0FBECDBFEB
:1058C000DF91CF911F910F91FF90EF90DF90CF90DC
:1058D000BF90AF909F908F907F906F905F904F9010
:1058E0003F902F9008952F923F924F925F926F9228
:1058F0007F928F929F92AF92BF92CF92DF92EF9260
:10590000FF920F931F93CF93DF93CDB7DEB7C558A8
:10591000D1090FB6F894DEBF0FBECDBF41E061E004
:1059200081E00E9455188111AEC28091BB09882385
:1059300079F08FE40E946C12882329F00E94E01213
:105940008111A1C205C08FE40E941F1281119BC268
:10595000C12CD12C760100E010E020E231E440E0DF
:1059600050E060EA71E4CE0101960E9451A500E08A
:1059700010E020E231E440E050E06EE073E4CE015C
:105980000D960E9451A500E010E02EE033E440E0C7
:1059900050E068E972E4CE0149960E9451A5F0906A
:1059A000BB098AE40E941F12882311F095DB6BC2A9
:1059B00086E50E946C12882321F00E94AF121B0121
:1059C00002C0212C312C25E02216310480F0E5E2C2
:1059D000F8E064917F013FEFE31AF30A662309F4CC
:1059E00052C287EC91E10E94EA10F701F2CF84E401
:1059F0000E946C12882341F00E94E012CF57DF4FC3
:105A00008883C158D04008C084E40E941F12CF5739
:105A1000DF4F8883C158D0402114310451F1EFE0A9
:105A2000F8E064916F014FEFC41AD40A662331F095
:105A300087EC91E10E94EA10F601F3CFCF57DF4FD8
:105A40005881C158D040552379F0E5E0F8E06491E1
:105A50006F018FEFC81AD80A662331F087EC91E105
:105A60000E94EA10F601F3CF6AE087EC91E10E9410
:105A7000EA100E94927A80E017DB81E00E94DB1836
:105A8000882319F08F2D10DBFEC10E941D1819A26A
:105A90001AA21BA21CA21D8A1E8A1F8A188E198692
:105AA0001A861B861C8685E40E946C12882331F0BE
:105AB0000E94E012882339F011E006C085E40E94BC
:105AC0001F128111F9CF12E0DE0111966D015E0106
:105AD000B5E2AB0EB11CF60180819181A281B38148
