:100000000C9492130C94BC130C94BC130C94BC135E
:100010000C94BC130C94BC130C94BC130C94BC1324
:100020000C94BC130C94BC130C9438E90C94B5E9F3
:100030000C94BC130C94BC130C94BC130C94BC1304
:100040000C94BC130C9413960C94BC130C94BC131A
:100050000C94BC130C94BC130C94EFAC0C9497E868
:100060000C94BC130C94BC130C94BC130C94BC13D4
:100070000C94BC130C94BC130C94BC130C94BC13C4
:100080000C94BC130C94BC130C94BC130C94BC13B4
:100090000C94BC130C94BC1326E652E674E674E68A
:1000A00074E674E674E674E674E674E674E674E680
:1000B00074E674E66AE662E65AE674E674E674E6A6
:1000C00074E674E674E674E64CE632E63AE644E634
:1000D000084AD73B3BCE016E84BCBFFDC12F3D6CAF
:1000E00074319ABD56833DDA3D00C77F11BED9E415
:1000F000BB4C3E916BAAAABE000000803F05A84CF5
:10010000CDB2D44EB93836A9020C50B991868808C0
:100110003CA6AAAA2ABE000000803F004E414E49DC
:100120004E495459494E46CDCCCC3D0AD7233C17B5
:10013000B7D13877CC2B329595E6241FB14F0A0002
:100140000020410000C84200401C4620BCBE4CCAF2
:100150001B0E5AAEC59D74446F6E6520736176693F
:100160006E672066696C652E0A004D3239002020CA
:10017000506C616E6E657242756666657242797426
:1001800065733A20002046726565204D656D6F727B
:10019000793A2000436F6D70696C65643A204A7546
:1001A0006E20323720323031390A00207C204175F0
:1001B00074686F723A202844722E5068696C334418
:1001C000290A00323031382D30382D303100204CA2
:1001D00061737420557064617465643A2000312E37
:1001E000312E390A004D61726C696E0020536F66C2
:1001F00074776172652052657365740A00205761D7
:10020000746368646F672052657365740A002042E6
:10021000726F776E206F75742052657365740A0073
:100220002045787465726E616C2052657365740A3E
:1002300000506F77657255700A0073746172740AAA
:10024000005072696E7465722068616C7465642E0A
:10025000206B696C6C28292063616C6C6564210AD1
:10026000004B494C4C45442E20004B494C4C2063DC
:10027000617573656420627920746F6F206D75639A
:100280006820696E6163746976652074696D6520A4
:100290002D2063757272656E7420636F6D6D616E73
:1002A000643A200020746F6F206C6F6E6720657851
:1002B00074727573696F6E2070726576656E7465A1
:1002C000640A0020636F6C642065787472757369CA
:1002D0006F6E2070726576656E7465640A006F6B70
:1002E00000526573656E643A20003A004361703ACB
:1002F0000000011C1D132FFFFFFFFF1E1F12FF1424
:10030000FFFFFF20211124FFFFFFFFFFFFFF0E1063
:10031000FFFFFF22230DFFFFFF0E260F2C27416357
:10032000746976652045787472756465723A200048
:1003300020453A00205A3A0020593A00583A002CF9
:1003400020002C2000627573793A20706175736506
:100350006420666F7220696E7075740A006275732E
:10036000793A2070617573656420666F72207573C9
:1003700065720A00627573793A2070726F636573F3
:1003800073696E670A0050726F62696E67206661FA
:10039000696C65640A0050726F62696E67206661FD
:1003A000696C656400205A3A200020593A200042C6
:1003B000656420583A2000486F6D652025732573C9
:1003C0002573206669727374002066697273740AFB
:1003D000005A0059005800486F6D65200020496E92
:1003E00076616C696420657874727564657220004A
:1003F000656E7175657565696E67202200496E7658
:10040000616C69642065787472756465720A004E67
:100410006F2063617365206C696768740A004164CA
:1004200076616E6365204B3D003F4B2076616C75B5
:1004300065206F7574206F662072616E6765202875
:10044000302D3130292E0A003A200050726F62653B
:10045000205A204F6666736574003F5A206F75748A
:10046000206F662072616E676520282D3220746FC0
:10047000203230290A00454550524F4D204F4B0A3B
:10048000004F666673657473206170706C69656493
:10049000004572723A20546F6F20666172210054D9
:1004A0006F6F206661722066726F6D20726566657F
:1004B00072656E636520706F696E740A00426564D0
:1004C000204C6576656C696E6720004661696C65D5
:1004D0006420746F20656E61626C652042656420E3
:1004E0004C6576656C696E670A00426564204C65F0
:1004F00076656C20436F7272656374696F6E204D10
:1005000061747269783A0043290A0061626C65641B
:1005100020286D696E2074656D702000436F6C64D7
:10052000206578747275646573206172652000209F
:10053000643A0020693A0020703A00496E76616C96
:1005400069642065787472756465720A0020643A83
:100550000020693A0020703A0050726F6265205A9C
:10056000204F66667365743A200020466C6F773AB8
:100570002000205A00205900580020204D61783A70
:100580002000205A00205900580020204D696E3A62
:1005900020004F6666004F6E2000536F6674206522
:1005A0006E6473746F70733A200020540020520000
:1005B000416363656C65726174696F6E3A205000C7
:1005C0002F2F2000544845524D414C5F50524F54FC
:1005D000454354494F4E004155544F5245504F5298
:1005E000545F53445F53544154555300454D455255
:1005F00047454E43595F5041525345520043415382
:10060000455F4C494748545F4252494748544E451C
:10061000535300544F47474C455F4C494748545348
:1006200000534F4654574152455F504F5745520073
:100630004255494C445F50455243454E54004C4549
:1006400056454C494E475F44415441005A5F505211
:100650004F4245004155544F4C4556454C00505271
:10066000494E545F4A4F420050524F4752455353F0
:10067000004155544F5245504F52545F54454D50D0
:1006800000564F4C554D4554524943004545505234
:100690004F4D0053455249414C5F584F4E5F584FA4
:1006A0004646004649524D574152455F4E414D45E1
:1006B0003A4D61726C696E20312E312E39202847F7
:1006C00069746875622920534F555243455F434F03
:1006D00044455F55524C3A68747470733A2F2F67D3
:1006E00069746875622E636F6D2F4D61726C696EEF
:1006F0004669726D776172652F4D61726C696E200B
:1007000050524F544F434F4C5F56455253494F4EF2
:100710003A312E30204D414348494E455F5459509F
:10072000453A5072696E7472626F742053696D70CD
:100730006C65204D6574616C204558545255444594
:10074000525F434F554E543A3120555549443A343F
:10075000306365363164312D326564302D34353384
:10076000302D383330342D3535653365656161653D
:100770006266660A005072696E7472626F7420530A
:10078000696D706C65204D6574616C204F66662ED6
:10079000004D31343520533C696E6465783E206FDE
:1007A0007574206F662072616E67652028302D3168
:1007B000290A004D3131332053006F6666004445ED
:1007C0004255473A00F007EB07E407DD07CF074340
:1007D0004F4D4D554E49434154494F4E0044525997
:1007E00052554E004552524F525300494E464F000B
:1007F0004543484F0020573A0042656420636F6FBD
:100800006C696E672E2E2E004265642068656174E7
:10081000696E672E2E2E0020573A004520436F6FD9
:100820006C696E672E2E2E00452048656174696ED6
:10083000672E2E2E004B494C4C45442E20006F6BEA
:100840000050726F7465637465642050696E0A00AD
:100850005072696E742074696D653A200043757238
:1008600072656E742066696C653A2000456E64207E
:1008700066696C65206C6973740A00426567696E0D
:100880002066696C65206C6973740A004E6F206D78
:100890006F76652E00436C69636B20746F20726500
:1008A00073756D652E2E2E00205A3A200020593A7D
:1008B000200042656420583A20004731205A3130E8
:1008C000204637303030000A0A426564204C657695
:1008D000656C20436F7272656374696F6E204D6141
:1008E000747269783A00202844525952554E2900B2
:1008F000473239204175746F20426564204C65761B
:10090000656C696E67003F2856296572626F736572
:10091000206C6576656C20697320696D706C6175FB
:100920007369626C652028302D34292E0A00486FC7
:100930006D652058592066697273740A00486F6D9E
:100940006520585920666972737400536C65657030
:100950002E2E2E0047322F473320626164207061B3
:1009600072616D65746572730A005761726E696EAB
:10097000673A20486F6D696E672042756D7020443C
:10098000697669736F72203C20310A0002020453B9
:10099000442072656164206572726F720A00446F50
:1009A0006E65207072696E74696E672066696C6529
:1009B0000A004B494C4C45442E200053544F505094
:1009C00045442E20005072696E7465722073746FF6
:1009D000707065642064756520746F206572726F35
:1009E00072732E2046697820746865206572726F74
:1009F0007220616E6420757365204D393939207419
:100A00006F20726573746172742E202854656D7046
:100A1000657261747572652069732072657365749F
:100A20002E2053657420697420616674657220728B
:100A3000657374617274696E67290A004E6F204392
:100A40006865636B73756D2077697468206C696E77
:100A500065206E756D6265722C204C617374204C3C
:100A6000696E653A20004E6F20436865636B73754D
:100A70006D2077697468206C696E65206E756D6293
:100A800065722C204C617374204C696E653A2000AD
:100A9000636865636B73756D206D69736D617463F5
:100AA000682C204C617374204C696E653A20004CB0
:100AB000696E65204E756D626572206973206E6F78
:100AC00074204C617374204C696E65204E756D62A4
:100AD00065722B312C204C617374204C696E653A21
:100AE00020004D31313000FF01FF0000A040000028
:100AF000A040000000400000184300001A4300001E
:100B0000184300000000000018430000000000002F
:100B100018430000184300001843000000000000C4
:100B200000C00000000000004842000048420000F1
:100B30008040000000002569730025696D2025694B
:100B400073002569682025696D2025697300256972
:100B500064202569682025696D2025697300256951
:100B60007920256964202569682025696D2025691B
:100B700073007C3C3E5E2B3D3F2F5B5D3B2C2A226D
:100B80005C004D33310043616E6E6F7420656E748E
:100B90006572207375626469723A20006F70656EC9
:100BA000206661696C65642C2046696C653A20009A
:100BB0006175746F25692E67006572726F72207798
:100BC000726974696E6720746F2066696C650A00CB
:100BD0004E6F74205344207072696E74696E670A98
:100BE000005344207072696E74696E672062797474
:100BF00065200044656C6574696F6E206661696C80
:100C000065642C2046696C653A200046696C652055
:100C100064656C657465643A0057726974696E67DF
:100C200020746F2066696C653A20006F70656E20D5
:100C30006661696C65642C2046696C653A20006FBA
:100C400070656E206661696C65642C2046696C6510
:100C50003A200046696C652073656C656374656451
:100C60000A002053697A653A200046696C65206F56
:100C700070656E65643A20002066696C653A2000F4
:100C8000667265736800646F696E67004E6F7720E7
:100C900000454E4420535542524F5554494E450A43
:100CA000002220706F73002220706172656E743AAA
:100CB0002200535542524F5554494E452043414C12
:100CC0004C207461726765743A22004B494C4C4564
:100CD000442E2000747279696E6720746F206361FE
:100CE0006C6C207375622D67636F64652066696C38
:100CF0006573207769746820746F6F206D616E79F9
:100D0000206C6576656C732E204D4158206C65769D
:100D1000656C2069733A004D3234004D3233202522
:100D2000730053442063617264206F6B0A006F701C
:100D3000656E526F6F74206661696C65640A007637
:100D40006F6C756D652E696E6974206661696C657E
:100D5000640A00534420696E6974206661696C0AF4
:100D600000286E6F2066696C65290043616E6E6FA6
:100D700074206F70656E2073756264697220002044
:100D8000204D393030204B004C696E656172204136
:100D90006476616E63653A0A0020204D3835312053
:100DA0005A005A2D50726F6265204F6666736574E3
:100DB0000020440020490020204D333034205000D2
:100DC00020440020490020204D3330312050005075
:100DD00049442073657474696E67733A0A0020464B
:100DE0000020420020480020204D3134352053009F
:100DF0004D6174657269616C2068656174757020FD
:100E0000706172616D65746572733A0A0020204DDD
:100E10003432302053004175746F20426564204C99
:100E20006576656C696E673A0A00205A00205900A1
:100E300020204D323036205800486F6D65206F6697
:100E4000667365743A0A00204500205A0020590054
:100E500020580020540020530020204D32303520EF
:100E6000510020453C6D61785F655F6A65726B3E3D
:100E70000020583C6D61785F785F6A65726B3E2038
:100E8000593C6D61785F795F6A65726B3E205A3CB0
:100E90006D61785F7A5F6A65726B3E00416476616E
:100EA0006E6365643A20513C6D696E5F7365676D72
:100EB000656E745F74696D655F75733E20533C6D3C
:100EC000696E5F66656564726174653E20543C6D51
:100ED000696E5F74726176656C5F66656564726188
:100EE00074653E0020540020520020204D323034E2
:100EF000205000416363656C65726174696F6E2098
:100F000028756E6974732F7332293A20503C7072C1
:100F1000696E745F616363656C3E20523C726574F8
:100F2000726163745F616363656C3E20543C7472EC
:100F30006176656C5F616363656C3E0A0020450005
:100F4000205A0020590020204D3230312058004DC9
:100F50006178696D756D20416363656C657261745C
:100F6000696F6E2028756E6974732F7332293A0A7F
:100F700000204500205A0020590020204D323033F7
:100F80002058004D6178696D756D206665656472E5
:100F9000617465732028756E6974732F73293A0A1A
:100FA00000204500205A0020590020204D393220D1
:100FB000580053746570732070657220756E697483
:100FC0003A0A0020204D3230302044300A002020E0
:100FD0004D3230302044002044697361626C656496
:100FE0000A0046696C616D656E742073657474697E
:100FF0006E67733A0020204D3134392043203B2066
:10100000556E69747320696E2043656C73697573DE
:101010000A002020473231202020203B0048617206
:1010200064636F6465642044656661756C74205305
:10103000657474696E6773204C6F616465640A003F
:10104000D0070000D0070000640000001027000057
:1010500000001643000016430000E040000020425C
:101060000000A0420000A0420080FC440000BD42FD
:10107000290A002062797465733B20637263200043
:101080002073746F7265642073657474696E67731E
:101090002072657472696576656420280020286373
:1010A000616C63756C6174656429210A0020213DBF
:1010B0002000454550524F4D20435243206D6973E7
:1010C0006D61746368202D202873746F72656429C4
:1010D00020002053697A653A2000496E6465783AA9
:1010E0002000204D61726C696E3D563535290A002D
:1010F00028454550524F4D3D00454550524F4D20DB
:1011000076657273696F6E206D69736D6174636863
:101110002000290A002062797465733B20637263A2
:10112000200053657474696E67732053746F726521
:1011300064202800454550524F4D2064617461730E
:10114000697A65206572726F722E0A004572726F3D
:10115000722077726974696E6720746F20454550FC
:10116000524F4D210A003A0A0020286D6D29006F68
:1011700070656E00545249474745524544003A2035
:10118000007A5F6D696E00795F6D617800785F6DE0
:10119000696E005265706F7274696E6720656E6467
:1011A00073746F70207374617475730A00456E6494
:1011B00073746F70732025632025632025632025B9
:1011C0006300205A3A0020593A0020583A00656ED0
:1011D0006473746F7073206869743A2000486F6D8F
:1011E000696E67206661696C656400556E6B6E6F31
:1011F000776E20636F6D6D616E643A2022002074FB
:101200006F6F206C6F6E6720657874727573696F8D
:101210006E2070726576656E7465640A0020636F77
:101220006C6420657874727573696F6E2070726576
:1012300076656E7465640A00FFFDFCFAF8F6F4F258
:10124000F0EEECEAE9E7E5E3E1E0DEDCDAD9D7D578
:10125000D4D2D0CFCDCBCAC8C7C5C3C2C0BFBDBC16
:10126000BAB9B7B6B4B3B2B0AFADACAAA9A8A6A587
:10127000A4A2A1A09E9D9C9A9998979594939290D0
:101280008F8E8D8B8A8988878684838281807F7EFA
:101290007D7B7A797877767574737271706F6E6D05
:1012A0006C6B6A696867666564636261605F5E5DF6
:1012B0005C5B5A5958585756555453525150504FD9
:1012C0004E4D4C4B4A4A49484746464544434242A4
:1012D00041403F3E3E3D3C3B3B3A3938383736355E
:1012E00035343332323130302F2E2E2D2C2B2B2A09
:1012F00029292827272625252423232221212020A8
:101300001F1E1E1D1C1C1B1B1A1919181817161638
:10131000151514131312121111100F0F0E0E0D0DBF
:101320000C0C0B0A0A09090808070706060505043C
:10133000040303020201000000000001000000019C
:101340000000800055555500000040003333330045
:10135000AAAA2A004992240000002000C7711C009C
:1013600099991900D1451700555515003BB1130047
:101370002449120011111100000010000F0F0F007E
:10138000E3380E0043790D00CCCC0C00C3300C00C8
:10139000E8A20B0064210B00AAAA0A00703D0A0013
:1013A0009DD80900427B090092240900DCD3080083
:1013B000888808001042080000000800F0C10700FB
:1013C0008787070075500700711C07003EEB060079
:1013D000A1BC06006990060066660600703E060025
:1013E0006118060017F4050074D105005BB0050014
:1013F000B290050062720500555505007839050068
:10140000B81E0500050505004EEC040087D4040055
:10141000A1BD040090A7040049920400C17D04000E
:10142000EE690400C7560400444404005C32040022
:101430000821040041100400000004003FF00300F4
:10144000F8E0030026D20300C3C30300CCB50300B9
:101450003AA803000A9B0300388E0300C0810300F2
:101460009F750300D0690300505E03001D53030005
:1014700034480300913D0300333303001629030071
:10148000381F030097150300300C0300030303000B
:101490000BFA020049F10200BAE802005CE0020027
:1014A0002DD802002DD0020059C80200B0C00200A1
:1014B00031B90200DAB10200AAAA0200A0A3020018
:1014C000BC9C0200FA9502005C8F0200DF880200DB
:1014D00082820200457C020027760200277002000B
:1014E000436A02007C640200D05E02003F590200A1
:1014F000C85302006563686F3A004572726F723AB2
:1015000000205A3A0020593A0020436F756E74202B
:10151000583A00232C0000B8220000561800003A68
:101520000F0000B8080000B1040000710200003E86
:1015300001000024F4D43050C38E20C2A240178290
:101540008B7011127A910D816CD90AA861E108C7DC
:10155000586607615143061E4B5D05C145A7041A35
:10156000411104093D9803713931034036DB0265AE
:10157000339102D4305402802E1D02632CEE01758B
:101580002AC501B028A001102781018F2564012BF5
:10159000244B01E0223401AC211F018D200D01807C
:1015A0001FFC00841EED00971DDF00B81CD200E672
:1015B0001BC600201BBC00641AB200B219A8000AA6
:1015C00019A0006A189900D117910040178B00B537
:1015D00016840031167E00B31579003A157300C7E2
:1015E000146F0058146A00EE136600881363002518
:1015F000135E00C7125B006C12570015125400C135
:1016000011510070114F0021114B00D61049008D6F
:101610001047004610440002104200C00F400080F6
:101620000F3E00420F3C00060F3B00CB0E380093EC
:101630000E37005C0E3500270E3400F30D3200C16A
:101640000D3100900D3000600D2E00320D2D000583
:101650000D2C00D90C2B00AE0C2900850C29005C48
:101660000C2700350C27000E0C2600E80B2400C4C4
:101670000B2400A00B23007D0B23005A0B21003903
:101680000B2100180B2000F80A1F00D90A1E00BB0E
:101690000A1E009D0A1D00800A1D00630A1C0047E7
:1016A0000A1B002C0A1B00110A1A00F7091A00DD98
:1016B000091900C4091900AB091900920917007B28
:1016C000091800630917004C091600360916002096
:1016D0000916000A091500F5081500E0081400CCE9
:1016E000081400B8081400A4081400900813007D22
:1016F0000812006B08130058081200460812003444
:10170000081100230811001208110001081100F04F
:10171000071000E0071000D0071000C0071000B04D
:10172000070F00A107100091070E0083070F007438
:10173000070F0065070E0057070E0049070E003B14
:10174000070D002E070E0020070D0013070D0006E1
:10175000070D00F9060C00ED060D00E0060C00D4A4
:10176000060C00C8060C00BC060C00B0060C00A459
:10177000060B0099060C008D060B0082060B007705
:10178000060B006C060B0061060A0057060B004CA6
:10179000060A0042060A0038060A002E060A00243D
:1017A000060A001A060A001006090007060A00FDCC
:1017B000050900F4050900EB050900E2050900D957
:1017C000050900D0050900C7050900BE050900B5D7
:1017D000050800AD050800A50509009C0508009452
:1017E0000508008C050800840508007C05080074C5
:1017F0000508006C050700650508005D0507005633
:101800000508004E05070047050700400508003899
:10181000050700310507002A050700230507001CFE
:10182000050600160507000F05070008050600025B
:10183000050700FB040600F5040700EE040600E8B7
:10184000040600E2040700DB040600D5040600CF0E
:10185000040600C9040600C3040600BD040600B760
:10186000040600B1040500AC040600A6040600A0AE
:101870000405009B04060095040500900406008AF8
:1018800004050085040500800406007A040500753F
:10189000040500700405006B040500660405006182
:1018A0000405005C04050057040500520405004DC2
:1018B00004050048040500430405003E0404003A02
:1018C00004050035040500300404002C040500273D
:1018D000040400230405001E0404001A0404001676
:1018E000040500110404000D0404000904050004AB
:1018F00004040000040400FC030400F8030400F4E2
:10190000030400F0030400EC030400E8030400E413
:10191000030400E0030400DC030400D8030400D443
:10192000030400D0030400CC030400C8030300C573
:1019300003030024F404D9201BC40C5C0E9804C4D7
:10194000095F0265077101F405F900FB04B3004863
:10195000048700C10369005803550003034500BE16
:10196000023A008402310053022A002902250004B1
:10197000022000E4011C00C8011900AF0117009803
:101980000114008401130071011000610110005165
:10199000010E0043010D0036010B002B010B00204E
:1019A000010B00150109000C01090003010800FBEF
:1019B000000800F3000800EB000700E4000600DE6A
:1019C000000600D8000600D2000600CC000500C7C3
:1019D000000500C2000500BD000400B9000400B508
:1019E000000400B1000400AD000400A9000400A53B
:1019F000000300A20003009F0004009B0003009866
:101A00000003009500020093000300900003008D86
:101A10000002008B000300880002008600020084A0
:101A2000000300810002007F0002007D0002007BB5
:101A300000020079000200770001007600020074C5
:101A400000020072000100710002006F0002006DD0
:101A50000001006C0002006A0001006900020067DA
:101A600000010066000100650001006400020062E0
:101A700000010061000100600001005F0002005DE4
:101A80000001005C0001005B0001005A00010059E8
:101A900000010058000100570001005600010055E8
:101AA00000010054000100530000005300010052E7
:101AB00000010051000100500001004F0001004EE4
:101AC0000000004E0001004D0001004C0001004BE1
:101AD0000000004B0001004A0001004900010048DD
:101AE00000000048000100470001004600000046D9
:101AF00000010045000000450001004400010043D2
:101B000000000043000100420000004200010041CB
:101B100000000041000100400001003F0000003FC4
:101B20000001003E0000003E0001003D0000003DBD
:101B30000001003C0000003C0000003C0001003BB4
:101B40000000003B0001003A0000003A00010039AB
:101B500000000039000100380000003800000038A3
:101B60000001003700000037000100360000003699
:101B7000000000360001003500000035000000358F
:101B80000001003400000034000000340001003384
:101B9000000000330000003300010032000000327A
:101BA000000000320001003100000031000000316F
:101BB0000001003000000030000000300001002F64
:101BC0000000002F0000002F0000002F0001002E59
:101BD0000000002E0000002E0001002D0000002D4E
:101BE0000000002D0000002D0001002C0000002C42
:101BF0000000002C0000002C0001002B0000002B36
:101C00000000002B0000002B0001002A0000002A29
:101C10000000002A0000002A00010029000000291D
:101C20000000002900000029000000290001002810
:101C30000000002800000028000000280000002804
:101C400000010027000000270000002700000027F7
:101C500000000027000100260000002600000026EA
:101C600000000026000000260001002500000025DD
:101C700000000025000000250000002500000025D0
:101C800000010024000000240000002400000024C3
:101C900000000024000100230000002300000023B6
:101CA00000000023000000230000002300000023A8
:101CB000000100220000002200000022000000229B
:101CC000000000220000002200010021000000218D
:101CD0000000002100000021000000210000002180
:101CE0000000002100010020000000200000002072
:101CF0000000002000000020000000200000002064
:101D0000000000200001001F0000001F0000001F55
:101D10000000001F0000001F0000001F0000001F47
:101D20000001001E0000001E0000001E0000001E3A
:101D30000000002042403A0020403A00202F00548A
:101D40006865726D616C2052756E617761790045CE
:101D50003120544845524D414C2052554E41574137
:101D6000590042454420544845524D414C2052555B
:101D70004E41574159004B494C4C45442E200020C0
:101D80002D20496E76616C69642065787472756483
:101D90006572206E756D62657220210A004865616A
:101DA00074696E67206661696C65640042656420D1
:101DB00068656174696E67206661696C6564004876
:101DC000656174696E67206661696C6564004531A0
:101DD0002048656174696E67206661696C6564009E
:101DE0004D494E54454D5020747269676765726560
:101DF00064004531204572723A204D494E54454D9C
:101E000050004572723A204D494E54454D50204283
:101E10004544004D415854454D50207472696767E0
:101E200065726564004531204572723A204D415813
:101E300054454D50004572723A204D415854454D1D
:101E40005020424544006265640A002C2073797377
:101E500074656D2073746F707065642120486561CE
:101E60007465725F49443A20002CFFFFFFFFFF00BA
:101E700001010101014B64200023646566696E6500
:101E80002044454641554C545F004B692000236473
:101E90006566696E652044454641554C545F004B6C
:101EA00070200023646566696E652044454641558F
:101EB0004C545F00504944204175746F74756E65D1
:101EC0002066696E6973686564212050757420749A
:101ED0006865206C617374204B702C204B69206105
:101EE0006E64204B6420636F6E7374616E74732034
:101EF00066726F6D2062656C6F7720696E746F20FB
:101F0000436F6E66696775726174696F6E2E680AD9
:101F100000504944204175746F74756E6520666188
:101F2000696C6564212074696D656F75740A00546D
:101F30006865726D616C2052756E617761790045DC
:101F40003120544845524D414C2052554E41574145
:101F5000590042454420544845524D414C20525569
:101F60004E415741590048656174696E672066614A
:101F7000696C65640045312048656174696E67204D
:101F80006661696C656400426564206865617469B6
:101F90006E67206661696C65640050494420417534
:101FA000746F74756E65206661696C656421205478
:101FB000656D706572617475726520746F6F2068ED
:101FC0006967680A00204B643A2000204B693A2078
:101FD00000204B703A20000A20436C6173736963E0
:101FE00020504944200A002054753A2000204B75A7
:101FF0003A2000206D61783A2000206D696E3A2009
:102000000020643A200020626961733A2000504940
:1020100044204175746F74756E65207374617274B9
:102020000A00504944204175746F74756E652066CE
:1020300061696C6564212042616420657874727501
:10204000646572206E756D6265720A004D383420C9
:10205000582059205A20450070012C019001270179
:10206000B0012201C0011D01F0011801100213018D
:1020700030020E016002090190020401C002FF005B
:102080000003FA004003F5008003F000D003EB00EA
:102090002004E6007004E100E004DC004005D70005
:1020A000C005D2004006CD00D006C8008007C3009E
:1020B0003008BE00F008B900C009B400B00AAF0093
:1020C000B00BAA00D00CA500000EA000500F9B0082
:1020D000C01096005012910000148C00C0158700AB
:1020E000B0178200B0197D00D01B7800001E73006D
:1020F00040206E0090226900F024640040275F00B9
:1021000090295A00E02B5500102E500020304B0033
:1021100010324600E033410090353C001037370064
:1021200070383200A0392D00B03A2800A03B2300BF
:10213000603C1E00103D1900903D1400103E0F0041
:10214000703E0A00C03E0500003F0000403FFBFF1C
:10215000803FF6FFC03FF1FF052E2E00045265665A
:1021600072657368004D61696E0046696C2E20448B
:1021700069612E0046696C2E204469612E0045205D
:10218000696E206D6D33004F6666004F6E20004112
:102190006476616E6365204B00416476616E6365B1
:1021A000204B00436F6E74726F6C0050726F6265EB
:1021B000205A204F666673657400436F6E74726FA9
:1021C0006C005049442D44005049442D440050496E
:1021D000442D49005049442D49005049442D500098
:1021E0005049442D500020022046616374002002B3
:1021F0002046616374002002204D61780020022097
:102200004D6178002002204D696E002002204D694A
:102210006E004175746F74656D70004F6666004F97
:102220006E200046616E2073706565640046616EC5
:102230002073706565640046616E20737065656427
:10224000004265640042656400426564004E6F7A36
:102250007A6C65004E6F7A7A6C65004E6F7A7A6C94
:102260006500436F6E74726F6C00526573746F72A9
:1022700065206661696C73616665004C6F616420FE
:1022800073657474696E67730053746F726520733D
:10229000657474696E67730046696C616D656E7410
:1022A000004D6F74696F6E0054656D706572617476
:1022B000757265004D61696E00457874727564656C
:1022C00072004D6F7665205A004D6F76652059007B
:1022D0004D6F7665205800536F667420456E6473A9
:1022E000746F7073004F6666004F6E200050726509
:1022F00070617265004D6F766520302E316D6D0016
:102300004D6F766520316D6D004D6F7665203130F3
:102310006D6D004D6F766520617869730045787446
:102320007275646572004D6F7665205A004D6F7648
:10233000652059004D6F7665205800457874727598
:10234000646572004D6F7665205A004D6F7665208A
:1023500059004D6F7665205800507265686561744C
:1023600020414253005072656865617420504C41B1
:1023700000436F6F6C646F776E0044697361626CC9
:1023800065207374657070657273004D3834004158
:1023900075746F20686F6D6500473238004D6F7639
:1023A000652061786973004D61696E0050726568DF
:1023B0006561742041425320426564005072656833
:1023C0006561742041425320456E64005072656817
:1023D00065617420414253005072657061726500FE
:1023E0005072656865617420504C412042656400FC
:1023F0005072656865617420504C4120456E6400E0
:102400005072656865617420504C4100507265706F
:102410006172650050726F6265205A204F66667364
:10242000657400466C6F7700466C6F7700466C6F82
:10243000770046616E2073706565640046616E20AA
:1024400073706565640046616E2073706565640035
:102450004265640042656400426564004E6F7A7AAA
:102460006C65004E6F7A7A6C65004E6F7A7A6C6597
:102470000053706565640053706565640053706552
:102480006564004D61696E00496E69742E20534485
:102490002063617264004D3231004E6F205344203E
:1024A00063617264004368616E6765205344206312
:1024B000617264004D3231005072696E7420667230
:1024C0006F6D2053440053746F70207072696E7486
:1024D00000526573756D65207072696E740050618D
:1024E000757365207072696E7400436F6E74726FDD
:1024F0006C00507265706172650054756E650049BC
:102500006E666F2073637265656E005072696E74DB
:102510002061626F72746564005072696E747262D9
:102520006F742053696D706C65204D6574616C200B
:1025300052656164792E005072696E74696E672EFF
:102540002E2E005072696E74207061757365640080
:102550002D2D2D00534400001C1F11111F000000E1
:1025600006191803130C00040E1F041C00000000C1
:102570000E1315110E00001C101817050605000497
:102580000A0A0A0A11110E0C12120C0000000000B7
:102590001F1511151F000050726F6265205A204FE1
:1025A000666673657400506C65617365207265734F
:1025B0006574005052494E5445522048414C544590
:1025C00044002020202000202020202020002575ED
:1025D0003A2530327500253032753A253032750093
:1025E00001290229042908291029202940298029A4
:1025F000012C022C0126022604260826102620265D
:1026000040268026402C802C01230223042308230B
:1026100010232023402380230120022004200820AF
:102620001020202040208020102C202C012F022F51
:10263000042F082F102F202F402F802F7EFE7EFD8D
:102640007EFB7EF77EEF7EDF7EBF7E7F0001000097
:10265000FD261200020000BA264300030000B62641
:1026600004010309049C26180203090484261603A6
:1026700003090476260C0C033100320033003400C9
:10268000350000001603550053004200200053009F
:1026900065007200690061006C00000018035400BE
:1026A000650065006E0073007900640075006900C4
:1026B0006E006F00000004030904090243000201D8
:1026C00000C03209040000010202010005240010CC
:1026D0000105240100010424020605240600010767
:1026E00005820308004009040100020A00000007F7
:1026F00005030240000007058402400000120100AB
:102700000202000020C016830472020102030100CD
:1027100001C1020180360181360008387A942DBE4D
:1027200002ED0C3811241FBECFEFD0E2DEBFCDBFCB
:1027300012E0A0E0B1E0ECE4F2EF01E00BBF02C078
:1027400007900D92A834B107D9F722E1A8E4B2E0CE
:1027500001C01D92AC3EB207E1F713E1C1E9D3E13C
:1027600004C02197FE010E948AEDCD38D107C9F738
:102770000E94B8E50C9419F90C9400004F925F92F6
:102780006F927F928F929F92AF92BF92CF92DF9281
:10279000EF92FF92CF934B015C0169017A0120E037
:1027A00030E040EA51E40E94B2ED2B013C012FE6FB
:1027B00032E143E85AEB0E948FF087FD48C022E4E3
:1027C00030E048E153E4C301B2010E948CEE1816D8
:1027D0000CF43DC022E630E140E050ECC701B60108
:1027E0000E948FF087FD33C022E430E048E153E4DB
:1027F000C701B6010E948CEE18164CF124EF3DEF94
:102800004FE951E4C501B4010E948FF087FD1FC05C
:1028100022E430E04EE053E4C501B4010E948CEEA6
:102820001816ACF027EE3BEF4FE151E4C701B601BB
:102830000E948FF087FD0BC0C1E022E430E04EE043
:1028400053E4C701B6010E948CEE18160CF4C0E0E8
:102850008C2FCF91FF90EF90DF90CF90BF90AF90F3
:102860009F908F907F906F905F904F900895CF933F
:10287000DF931F92CDB7DEB76983DC01ED91FC9148
:102880000280F381E02D41E050E0BE016F5F7F4F99
:1028900009950F90DF91CF910895FF920F931F93A9
:1028A000CF93DF93F82E092F162FECEEF2E0649110
:1028B000EF012196662329F080EE92E1D8DFFE0138
:1028C000F6CFEF2DF02F6491EF012196662329F0CA
:1028D00080EE92E1CCDFFE01F6CFEAEEF2E0649109
:1028E000EF012196662329F080EE92E1C0DFFE0120
:1028F000F6CF412F50E060E070E080EE92E10E9460
:1029000004E56AE080EE92E1DF91CF911F910F9193
:10291000FF90ADCF0FB6F8948091D5129091D6125A
:10292000A091D712B091D8120FBE8093C902909394
:10293000CA02A093CB02B093CC020895FC0123817C
:1029400021110C941D5208952F923F924F925F9245
:102950006F927F928F929F92AF92BF92CF92DF92AF
:10296000EF92FF920F931F93CF93DF93EB01FC0144
:1029700080809180A280B380C501B40120E831E558
:1029800041E050E00E944CEDC9016DE671E00E940B
:1029900025ED6B017C01C501B40120E13EE040E082
:1029A00050E00E944CEDCA01B90128E130E040E05E
:1029B00050E00E944CED362E272E062F172F8CE369
:1029C000482E512C612C712CC501B401A301920138
:1029D0000E944CEDB62EA72ECA01B901A3019201A7
:1029E0000E944CEDCB01C114D104D9F0AF92BF923B
:1029F0007F936F932F923F92FF92EF92DF92CF924D
:102A00008EE59BE09F938F93DF93CF930E94EDF52C
:102A10008DB79EB70E960FB6F8949EBF0FBE8DBFB2
:102A20005CC0E114F104C9F0AF92BF927F936F9341
:102A30002F923F92FF92EF928EE49BE09F938F93B1
:102A4000DF93CF930E94EDF5EDB7FEB73C960FB63E
:102A5000F894FEBF0FBEEDBF40C0012BB9F0AF929E
:102A6000BF927F936F932F923F9282E49BE09F935C
:102A70008F93DF93CF930E94EDF58DB79EB70A96A3
:102A80000FB6F8949EBF0FBE8DBF27C0892BA9F04B
:102A9000AF92BF927F936F938AE39BE09F938F9354
:102AA000DF93CF930E94EDF5EDB7FEB738960FB6E2
:102AB000F894FEBF0FBEEDBF10C0AF92BF9286E389
:102AC0009BE09F938F93DF93CF930E94EDF50F9040
:102AD0000F900F900F900F900F90DF91CF911F915B
:102AE0000F91FF90EF90DF90CF90BF90AF909F90AD
:102AF0008F907F906F905F904F903F902F900895B0
:102B000081548A3108F041C0E82FF0E04091680913
:102B10005091690960916A0970916B0904C07695BA
:102B20006795579547958A95D2F7842F817040FF16
:102B300033C0E25BF64F9081992301F1E091730974
:102B4000F0917409E90FF11D908120ED290F2A30D1
:102B500080F09E3229F4918190539A3078F409C024
:102B60009D3211F09B3251F4918120ED290F2A30D2
:102B700018F42E2F9F2F04C09E3249F020E090E0E1
:102B800020936F0990937009089580E008959281D1
:102B900090539A3098F7EDCF0895B2DF882341F033
:102BA00081E020916F0930917009232B09F480E0B6
:102BB00008950F931F93CF9380916F09909170099F
:102BC000009711F1FC018F01C1912C2F2F7DA9F0ED
:102BD000C53411F0C536B9F7F801108260E070E035
:102BE00080916F09909170090E9494F1F801C0835F
:102BF000562F472F382F292F0BC060E070E0CF9160
:102C00001F910F910C9494F150E040E030E020E0EF
:102C1000652F742F832F922FCF911F910F910895BD
:102C200080916F0990917009009731F04AE050E06F
:102C300060E070E00C94E7F260E070E0CB01089592
:102C400080916F0990917009009731F04AE050E04F
:102C500060E070E00C9412F460E070E0CB01089545
:102C6000DFDF97FD0AC0DCDF6F3F7105810591054D
:102C700009F02CF4D5DF862F089580E008958FEFBA
:102C8000089580916F0990917009892B31F0E8DFE8
:102C900091E0811103C090E001C091E0892F089577
:102CA0000F931F93CF93DF93CDB7DEB72C970FB65B
:102CB000F894DEBF0FBECDBFEEEAF4E080859185CB
:102CC000A285B38544815581668177810081118118
:102CD0002281338109871A872B873C874D835E8346
:102CE0006F83788789839A83AB83BC83AE014F5F00
:102CF0005F4FBE016B5F7F4FCE0109960E949983A3
:102D00002AEB34E0AE014F5F5F4FBE016B5F7F4F38
:102D1000CE0109960E943B922C960FB6F894DEBF26
:102D20000FBECDBFDF91CF911F910F9108952F92CC
:102D30003F924F925F926F927F929F92AF92BF921B
:102D4000CF92DF92EF92FF920F931F93CF93DF9377
:102D5000CDB7DEB764970FB6F894DEBF0FBECDBF18
:102D60001A012B01922EF32EC82ED12CF601E95117
:102D7000F54FE491AA24A3941E160CF4A12CBB24B5
:102D8000B39420E030E0A901C201B1010E948FF0AC
:102D900018160CF0B12CCC0CDD1CCC0CDD1CC601C3
:102DA00082559B4F3C01FC011082118212821382DA
:102DB00077DFF3012082318242825382E090D20297
:102DC00020E030E0A901B801892D9F2D0E948CEEF2
:102DD00081110AC0F601EA5DF44F85919591A591A4
:102DE000B4918C019A2EFB2EC801A92DBF2D898B81
:102DF0009A8BAB8BBC8B8091B6049091B704A09159
:102E0000B804B091B9044091B2045091B3046091F8
:102E1000B4047091B5040091AE041091AF042091F8
:102E2000B0043091B1040D871E872F87388B4987F6
:102E30005A876B877C878D839E83AF83B88719827F
:102E40001A821B821C82AE014B5F5F4FBE01675F1F
:102E50007F4FCE010D960E949983CE0101966C01A1
:102E60008E010F5E1F4F2AEB34E0AE014B5F5F4FC8
:102E7000BE01675F7F4F0C960E9459910E94378573
:102E8000AB100E94307864960FB6F894DEBF0FBE88
:102E9000CDBFDF91CF911F910F91FF90EF90DF9009
:102EA000CF90BF90AF909F907F906F905F904F902A
:102EB0003F902F9008956AEB74E083E00C94609348
:102EC000109293041092910410929204089590919C
:102ED0009104E92FF0E0E055FD4F80839F5F94302F
:102EE00018F49093910402C010929104809193047D
:102EF0008F5F809393040895CF93FC0120812B333F
:102F0000A1F020919304243080F4C62FBC0180915D
:102F10009104F0E68F9FC00111248F5E9C4F0E94A8
:102F2000BEF58C2FD4DF81E001C080E0CF91089501
:102F3000EF92FF921F93CF93DF937C0160E0DCDF81
:102F4000182F8823C9F0E4EFF4E16491EF01219692
:102F5000662329F080EE92E18ADCFE01F6CFB7010C
:102F600080EF93E00E94FD9462E280EE92E17FDCCC
:102F70006AE080EE92E17BDC812FDF91CF911F919F
:102F8000FF90EF900895DF92EF92FF920F931F93BF
:102F9000CF93DF93CDB7DEB76E970FB6F894DEBF51
:102FA0000FBECDBF60910F037091100361157105C5
:102FB00041F14DE150E0CE0101967C010E944DF5BA
:102FC0001E8EF7018F010E191F09D190DD2019F017
:102FD0009AE0D912F7CFF701E00FF11F1082C70175
:102FE000A7DF882371F0DD20A9F00F5F1F4F8091CC
:102FF0000F0390911003080F191F109310030093F3
:103000000F0381E020910F0330911003232B29F44B
:1030100080E003C000E010E0F0CF6E960FB6F894A9
:10302000DEBF0FBECDBFDF91CF911F910F91FF90FB
:10303000EF90DF9008959093100380930F03A3CF38
:103040008F929F92AF92BF92CF92DF92EF92FF92B8
:103050000F931F93CF93DF938091C104882309F4CA
:10306000E0C080919304811102C01092490201E0F6
:103070004091290750912A0760912B0770912C07E6
:1030800080912D0790912E07A0912F07B0913007C6
:1030900084179507A607B70708F400E0C0E0D0E062
:1030A000DD24D39480E6C82E80919304843008F008
:1030B000B8C00111B6C0809149028111B2C080919F
:1030C000840690918506A0918606B091870680932C
:1030D0002D0790932E07A0932F07B09330078CE70E
:1030E00096E00E947450182F80902D0790902E0724
:1030F000A0902F07B09030074091290750912A07E0
:1031000060912B0770912C0701E084169506A606A6
:10311000B70608F400E084169506A606B706A0F4E4
:103120008F3F2FEF920731F11A3009F448C01D305C
:1031300009F445C0133219F01A3309F057C0209131
:103140004802211153C032C08FEB94E00E94A56564
:103150008091C10481112DC0EEE9F9E064917F01F5
:103160008FEFE81AF80A662309F180EE92E17FDB1F
:10317000F701F4CFEAEFF4E164917F012FEFE21A57
:10318000F20A662329F080EE92E171DBF701F4CFB9
:10319000EFE8F9E064917F018FEFE81AF80A6623FF
:1031A00029F080EE92E163DBF701F4CF133239F4BA
:1031B00004C0133299F5C0E0D0E0D09249021092D9
:1031C0004802209729F40E941FABC0E0D0E06CCFEA
:1031D00080919104C89EC00DD11D1124CF5EDC4F9B
:1031E000188280E074DEC0E0D0E05ECFCF35D1053C
:1031F00008F05ACF1B3311F4D092480220914802B4
:10320000211152CF90919104FE01C99EE00DF11D54
:103210001124EF5EFC4F8083219646CF1092480226
:10322000D2CFDF91CF911F910F91FF90EF90DF9060
:10323000CF90BF90AF909F908F900895EF92FF92A4
:103240000F931F93CF93DF937C0184E5A6DCD82FE7
:10325000882369F105DDC82F18162CF5E4EFF4E199
:1032600064918F010F5F1F4F662329F080EE92E17A
:10327000FEDAF801F5CF6DE480EE92E1F8DAA7010D
:1032800060E070E020E080EE92E10E9498E46C2F14
:10329000CC0F770B8DED93E00E947E946AE080EE78
:1032A00092E1E5DA08C08093C402D0E004C08091C6
:1032B000D2028093C4028D2FDF91CF911F910F9185
:1032C000FF90EF9008950F931F93CF93DF9394E0B7
:1032D000899FE00111248E010F511D4FFE01E35122
:1032E000FD4FDE01A750BD4F2D913D914D915C9159
:1032F00060817181828193810E94B3EDF8016083C6
:10330000718382839383FE01E65EF44F85919591EC
:10331000A591B491FE01EB52FD4F80839183A2836E
:10332000B383FE01E25FF44F85919591A591B4912D
:10333000C55FDE4F88839983AA83BB83DF91CF91DA
:103340001F910F910895CF92DF92EF920F931F93E9
:10335000CF93DF93CDB7DEB760970FB6F894DEBF9B
:103360000FBECDBFE090D202EEEAF4E080859185F9
:10337000A285B38544815581668177810081118161
:10338000228133810D871E872F87388B49875A8783
:103390006B877C878D839E83AF83B88719821A825F
:1033A0001B821C82AE014B5F5F4FBE01675F7F4F88
:1033B000CE010D960E949983CE0101966C0109E120
:1033C00011E02AEB34E0AE014B5F5F4FBE01675F57
:1033D0007F4F0C960E94599160960FB6F894DEBF0D
:1033E0000FBECDBFDF91CF911F910F91EF90DF9076
:1033F000CF9008958F929F92AF92BF92CF92DF921B
:10340000EF920F931F93CF93DF93CDB7DEB7609703
:103410000FB6F894DEBF0FBECDBF8C01E090D20294
:10342000EEE9F4E080859185A285B38544815581DC
:103430006681778180809180A280B3808D869E8610
:10344000AF86B88A49875A876B877C878D839E832E
:10345000AF83B88719821A821B821C82AE014B5F30
:103460005F4FBE01675F7F4FCE010D960E9499832B
:10347000CE0101966C012AEA34E0AE014B5F5F4F4A
:10348000BE01675F7F4F0C960E94599160960FB600
:10349000F894DEBF0FBECDBFDF91CF911F910F918A
:1034A000EF90DF90CF90BF90AF909F908F90089556
:1034B0003F924F925F926F927F928F929F92AF92C4
:1034C000BF92CF92DF92EF92FF920F931F93CF9311
:1034D000DF93CDB7DEB72A970FB6F894DEBF0FBEE5
:1034E000CDBF2B013C012D833E834F83588747017D
:1034F0005801DA86C9868091190190911A01A0912C
:103500001B01B0911C0189839A83AB83BC83D601D4
:10351000EC901196FC90119712960C9112971396BD
:103520001C9120E030E0A901B701C8010E948CEE97
:10353000811108C0EEE2FBE085919591A591B491CF
:103540007C018D01A50194016091B6047091B704CE
:103550008091B8049091B9040E948CEE87FF13C04B
:10356000C701D8018093190190931A01A0931B0100
:10357000B0931C018092B6049092B704A092B80454
:10358000B092B904E0DEE985FA85D080C18032804E
:10359000F381F98720E030E0A9016D2D7C2D832D8A
:1035A0009F2F0E948CEE811109C0D0900101C09024
:1035B0000201309003018091040189878D2D9C2D9B
:1035C000A32DB9858093190190931A01A0931B0133
:1035D000B0931C014092AE045092AF046092B004CC
:1035E0007092B1048D819E81AF81B8858093B204C1
:1035F0009093B304A093B404B093B504A4DE2091D7
:10360000B6043091B7044091B8045091B904C50193
:10361000B4010E948CEE87FF13C0C701D8018093CC
:10362000190190931A01A0931B01B0931C01809281
:10363000B6049092B704A092B804B092B90483DEA5
:103640000E94378589819A81AB81BC818093190161
:1036500090931A01A0931B01B0931C012A960FB6F8
:10366000F894DEBF0FBECDBFDF91CF911F910F91B8
:10367000FF90EF90DF90CF90BF90AF909F908F9092
:103680007F906F905F904F903F900895CF92DF9220
:10369000EF92FF920F931F936B01FC01E080F1808A
:1036A00002811381EEEAF4E024813581468157815D
:1036B0006081718182819381FBDE1F910F91FF9068
:1036C000EF90DF90CF900895CF92DF92EF92FF922C
:1036D0000F931F936A01E090B604F090B704009135
:1036E000B8041091B904FB012081318142815381DA
:1036F000FC016081718182819381DADE1F910F91DB
:10370000FF90EF90DF90CF900895809119019091F4
:103710001A01A0911B01B0911C0180930B0390939F
:103720000C03A0930D03B0930E03809117019091A9
:10373000180190930A038093090384E690E0909324
:10374000180180931701089580910B0390910C0349
:10375000A0910D03B0910E038093190190931A016B
:10376000A0931B01B0931C018091090390910A035F
:1037700090931801809317010895EF92FF921F9381
:10378000CF93DF93882329F0D0919D04D095D170F9
:1037900001C0D0E0662339F010919D041695117098
:1037A00081E0182701C010E0442341F0C0919D043E
:1037B000C2FB882780F9C1E0C82701C0C0E0D11151
:1037C00002C0112319F0E4EFF4E107C0C111FBCFEF
:1037D00085C080EE92E14BD8F70164917F018FEFB5
:1037E000E81AF80A6111F5CFE7EDF3E064917F0183
:1037F0009FEFE91AF90A662329F080EE92E137D8A3
:10380000F701F4CFDD2371F0E5EDF3E064917F0182
:103810008FEFE81AF80A662329F080EE92E127D8A4
:10382000F701F4CF112371F0E3EDF3E064917F0130
:103830009FEFE91AF90A662329F080EE92E117D882
:10384000F701F4CFCC2319F0E1EDF3E003C0E9EC8C
:10385000F3E00CC064917F018FEFE81AF80A662349
:10386000B1F380EE92E103D8F701F4CF64917F01C8
:103870009FEFE91AF90A662331F080EE92E10E9487
:103880003714F701F3CFCC2319F044ED51E002C017
:1038900044EE51E0112319F026ED31E002C024EE90
:1038A00031E0DD2319F088ED91E002C084EE91E073
:1038B0005F934F933F932F939F938F9387EB93E067
:1038C0009F938F931F920E94BEBB8DB79EB70996A0
:1038D0000FB6F8949EBF0FBE8DBFC1E08C2FDF9155
:1038E000CF911F91FF90EF900895BF92CF92DF92FA
:1038F000EF92FF920F931F93CF93DF93CDB7DEB775
:1039000028970FB6F894DEBF0FBECDBF909148093F
:10391000981709F47AC0B82E882309F453C080E0C0
:1039200090E0A0E8B0E48D839E83AF83B887C09019
:10393000C002D090C102E090C202F090C30220E029
:1039400030E0A901C701B6010E948CEE87FF0CC0D0
:10395000A701960160E070E080E890E40E94B2ED7B
:103960006D837E838F83988720E030E048E153E4C5
:103970006D817E818F8198850E948FF0181644F4A6
:1039800080E090E0A8E1B3E48D839E83AF83B887A5
:103990002D813E814F8158856091B6047091B704A6
:1039A0008091B8049091B9040E948CEE87FF0AC000
:1039B00019821A821B821C82BE016F5F7F4FCE016B
:1039C000059664DE6091AE047091AF048091B004FE
:1039D0009091B1042091B2043091B3044091B404A9
:1039E0005091B50419821A821B821C82E090B604A1
:1039F000F090B7040091B8041091B904FE0131961B
:103A00006F0156DD8B2D0E943B7880E028960FB623
:103A1000F894DEBF0FBECDBFDF91CF911F910F9104
:103A2000FF90EF90DF90CF90BF9008954F925F92FC
:103A30006F927F928F929F92AF92BF92CF92DF92BE
:103A4000EF92FF920F931F93CF93C82FE82EF12C84
:103A5000F701E951F54FB490823021F481E045DF60
:103A6000811110C16701CC0CDD1CCC0CDD1CF601F2
:103A7000EA50F54F45905590659074906B2DBB0CB6
:103A8000770B880B990B0E942EEF4B015C0120E015
:103A900030E040EC5FE3C301B2010E94CAF0A5012F
:103AA00094010E94CAF0AB01BC0100E010E0980153
:103AB0008C2F3DD9C23061F0F601E651F54F85916A
:103AC0009591A591B491E82F792F6A2F8B2F04C07F
:103AD000E0E070E060E480E42E2F372F462F582F6F
:103AE000C501B4010E94CAF04B015C0120E030E046
:103AF000A9010E948CEE882309F45DC0C23021F038
:103B000000E010E0980104C000E010E020E830E49C
:103B1000B501A40170588C2F0AD9C23009F43AC0FB
:103B2000F701E457F64F649161111FC0E4EFF4E12F
:103B300064917F018FEFE81AF80A662331F080EE76
:103B400092E10E943714F701F3CFEAE6F9E06491BD
:103B50007F018FEFE81AF80A662331F080EE92E1D8
:103B60000E943714F701F3CF6AE0F601EA5DF44FE3
:103B7000459055906590749070E080E090E00E94D0
:103B80002EEF9B01AC01C301B2010E9493EE2B0109
:103B90003C0105C0412C512C612C90E4792EA501EB
:103BA0009401C501B4010E94B3EDAB01BC019301C6
:103BB00082018C2FBCD881E090E00C2E01C0880FD0
:103BC0000A94EAF790919C04982B90939C0490910E
:103BD0009D04892B80939D04F601E750FD4F1082D0
:103BE0001182128213828C2F6EDBF601EE5FF44F8E
:103BF00085919591A591B491F601E255FB4F808393
:103C00009183A283B383C230D1F42091C00230915A
:103C1000C1024091C2025091C3026091B6047091FA
:103C2000B7048091B8049091B9040E94B2ED6093FA
:103C3000B6047093B7048093B8049093B90430D855
:103C4000F601E256FB4FD601A255BB4F8D919D91D7
:103C50000D90BC91A02D80839183A283B383C23049
:103C600089F480E0CF911F910F91FF90EF90DF904A
:103C7000CF90BF90AF909F908F907F906F905F900C
:103C80004F9033CECF911F910F91FF90EF90DF9027
:103C9000CF90BF90AF909F908F907F906F905F90EC
:103CA0004F9008959F92AF92BF92CF92DF92EF9282
:103CB000FF920F931F93CF93DF938CEFA82E81E099
:103CC000B82E0EE914E0CEEAD4E091EEC92E92E0CF
:103CD000D92E25E0E22E23E0F22E912CF5018191E0
:103CE0005F010E948015882309F10E94D915F70110
:103CF0002081211104C02091D102222339F0288192
:103D000039814A815B810E94B3ED0AC0F3E09F16BE
:103D100039F0F60120813181428153810E94B2ED58
:103D2000F801608371838283938309C088819981BC
:103D3000AA81BB81F80180839183A283B38393948A
:103D40000C5F1F4F2496F4E0CF0ED11C2FEFE21A28
:103D5000F20A84E09812C2CF86E40E94CD1588232F
:103D6000C9F00E94D91520E030E0A9010E948FF02F
:103D7000181684F40E94D91520E030E040E752E4A0
:103D80000E9493EE6093190170931A0180931B01B6
:103D900090931C01DF91CF911F910F91FF90EF90B5
:103DA000DF90CF90BF90AF909F900895CF92DF9219
:103DB000EF92FF920F931F93CF93DF930FB6F89478
:103DC000C090D512D090D612E090D712F090D812B1
:103DD0000FBE8091CF02811174C0809100018823B1
:103DE00009F46FC08091AF02882309F46AC0409142
:103DF000AB025091AC026091AD027091AE0297019E
:103E00008601041B150B260B370B37FD6DC0833065
:103E100031F134F481300CF454C0E4EFF4E106C025
:103E2000843009F04EC0E4EFF4E133C06491EF0157
:103E30002196662331F080EE92E10E943714FE0154
:103E4000F5CFE4E7F3E06491EF012196662309F4EE
:103E500038C080EE92E10E943714FE01F4CFE4EF07
:103E6000F4E16491EF012196662331F080EE92E156
:103E70000E943714FE01F5CFEDE5F3E06491EF0108
:103E800021966623F1F080EE92E10E943714FE0144
:103E9000F5CF6491EF012196662331F080EE92E137
:103EA0000E943714FE01F5CFE5E4F3E06491EF01E1
:103EB0002196662331F080EE92E10E943714FE01D4
:103EC000F5CF2091000130E0A8EEB3E00E9493ED21
:103ED000C60ED71EE81EF91EC092AB02D092AC02ED
:103EE000E092AD02F092AE02DF91CF911F910F915F
:103EF000FF90EF90DF90CF9008950F931F93CF9393
:103F0000DF9300D000D0CDB7DEB780919C048370E2
:103F1000833011F160E08DE399E00E9444BBE4EF4F
:103F2000F4E164918F010F5F1F4F662331F080EE43
:103F300092E10E943714F801F4CFEEE2F9E06491C7
:103F40008F010F5F1F4F662309F43EC080EE92E1A0
:103F50000E943714F801F3CF0E94501680E090E0E1
:103F6000A8E9B2E48093A2049093A304A093A404CC
:103F7000B093A5048091B6049091B704A091B804C1
:103F8000B091B9048093A6049093A704A093A804C9
:103F9000B093A90480E090E0A0E6B2E480939E0490
:103FA00090939F04A093A004B093A10419821A8255
:103FB0001B821C82AE014F5F5F4F62EA74E08EE9A4
:103FC00094E082DB82E032DD0F900F900F900F9033
:103FD000DF91CF911F910F9108950F931F93CF936E
:103FE000DF93CDB7DEB769970FB6F894DEBF0FBE8B
:103FF000CDBF0E9434A36E8B7F8B888F998FBE01BB
:104000006F5F7F4FCE0146960E94A41460E0CE0100
:1040100001960E941EBBE4EFF4E164918F010F5FF3
:104020001F4F662331F080EE92E10E943714F801B1
:10403000F4CFBE016F5F7F4F80E598E00E94FD9452
:104040006AE080EE92E10E94371469960FB6F89408
:10405000DEBF0FBECDBFDF91CF911F910F910895AD
:10406000CF938091C10481110E9437858091C20451
:104070008823A9F180E50E94CD15882321F00E94B4
:104080004116C82F04C080E50E948015C82F60919A
:104090007109709172092C2F41E08FEB94E00E941E
:1040A000516183E50E94CD15882381F00E9410168E
:1040B000AB01BC0140932D0750932E0760932F074F
:1040C000709330078CE796E00E9439518FEB94E0B3
:1040D0000E948E5EC11103C0CF910C9473A3CF9147
:1040E0000895CF93DF93EAEFF4E16491EF01219615
:1040F000662331F080EE92E10E943714FE01F5CF85
:10410000E1E4F8E06491EF012196662331F080EE5E
:1041100092E10E943714FE01F5CFDF91CF9108950F
:104120000F931F93CF9383E50E94CD15882309F445
:1041300040C00E943016082F80E50E94CD158823CC
:10414000C1F10E943016C82F87FD33C089E40E9458
:10415000CD15882339F00E944116811112C0E1EF7C
:10416000F2E00BC089E40E94801581110AC0F7CFEC
:10417000319683E0EE31F80721F08491C813F8CF2F
:1041800014C08C2F0E9405E6EC2FF0E0002E0E9458
:10419000AAE610E0B8018C2F0E9416E6C03149F45F
:1041A0001093D4020093D30204C0CF911F910F91BA
:1041B00098CFCF911F910F91089588E690E03ED857
:1041C000811124C08091BE0483FD20C083E50E943C
:1041D000CD158823C9F00E94D9150E94FBEE70937B
:1041E00017126093161280E00E94D9A80E94D91578
:1041F00020E030E04AEA52E40E948CEE181624F0E7
:104200000E94DDA20E947EBB0C944A940895CF9236
:10421000DF92EF92FF9283E50E94CD15882321F172
:104220000E9430168D3308F08CE380938C110FB60A
:10423000F894C090D512D090D612E090D712F0909A
:10424000D8120FBE282F30E0A8EEB3E00E9493ED05
:10425000C60ED71EE81EF91EC0928811D092891191
:10426000E0928A11F0928B11FF90EF90DF90CF9047
:10427000089580E50E94CD15811106C083E50E9456
:10428000CD15882359F005C00E94301681110CC04D
:10429000F5CF0E9410166F3F710510F06FEF70E0C0
:1042A0007093D4026093D3020895DF92EF92FF924D
:1042B0000F931F93CF93DF9383E50E94801588238C
:1042C00059F083E50E94CD15882319F00E9430161D
:1042D00001C080E08093BE04E4EFF4E16491EF015B
:1042E0002196662331F080EE92E10E943714FE01A0
:1042F000F5CFEEEBF7E06491EF012196662331F004
:1043000080EE92E10E943714FE01F5CF8091BE0449
:104310008823A9F185ECE82E87E0F82E00E010E074
:1043200020E08091BE0490E0002E02C09595879514
:104330000A94E2F780FF1AC0DD24D394D20E222320
:1043400029F06CE280EE92E10E943714F70185912A
:104350009491FC016491EF012196662331F080EE87
:1043600092E10E943714FE01F5CF2D2D0F5F1F4FF4
:1043700082E0E80EF11C0530110599F60DC0EAEB5C
:10438000F7E06491EF012196662331F080EE92E12F
:104390000E943714FE01F5CF6AE080EE92E1DF91D2
:1043A000CF911F910F91FF90EF90DF900C943714F5
:1043B000CF93DF9383E50E94CD15882351F00E94AF
:1043C00030168D3308F08CE380930001DF91CF919C
:1043D0000895E4EFF4E16491EF012196662331F052
:1043E00080EE92E10E943714FE01F5CF409100016A
:1043F00050E060E070E083EB97E00E94DC946AE0BC
:1044000080EE92E1DF91CF910C943714CF93DF933C
:1044100083E50E94CD15882321F00E941016EB0140
:1044200002C0C0E0D0E0DD27C230D105DCF0EAEF09
:10443000F4E16491EF012196662331F080EE92E180
:104440000E943714FE01F5CFE1E9F7E06491EF0136
:104450002196662309F452C080EE92E10E9437143F
:10446000FE01F4CF88E40E94CD158823A9F00E94B4
:1044700010166A3A71053CF0653081E078072CF03F
:1044800064E071E002C06AEA70E0FE01EE0FFF1F17
:10449000EE56FD4E7183608386E40E94CD1588231D
:1044A000A9F00E941016FE01EE0FFF1FE657FD4E09
:1044B000718360836F3F710519F014F06FEF70E046
:1044C00077FF02C060E070E07183608382E40E9445
:1044D000CD15882399F00E9410166330710534F0D1
:1044E000683871052CF067E870E002C063E070E0A6
:1044F000CC0FDD1FC257DD4E79836883DF91CF91EA
:1045000008954F925F926F927F92AF92BF92CF9237
:10451000DF92EF92FF920F931F93CF938CEFA82E11
:1045200081E0B82E01E21AE0C0E0F50181915F015F
:104530000E948015882309F46DC0C33009F063C060
:104540000E94D9156B017C0120E030E040EA51E483
:104550000E948CEE87FF4EC0A701960160912D0A44
:1045600070912E0A80912F0A9091300A0E9493EE4A
:104570002B013C019B01AC016091F9097091FA0992
:104580008091FB099091FC090E94CAF06093F9099F
:104590007093FA098093FB099093FC09A30192019F
:1045A00060913D0A70913E0A80913F0A9091400AC5
:1045B0000E94CAF060933D0A70933E0A80933F0ABE
:1045C0009093400A6091510A7091520A8091530A67
:1045D0009091540A0E942CEFA30192010E94CAF00C
:1045E0000E9400EF6093510A7093520A8093530A1D
:1045F0009093540AC0922D0AD0922E0AE0922F0A6C
:10460000F092300A07C00E94D915F80160837183C7
:1046100082839383CF5F0C5F1F4FC43009F085CF37
:10462000CF911F910F91FF90EF90DF90CF90BF90AF
:10463000AF907F906F905F904F900C9426940F9363
:104640001F93CF93DF93CEEAD4E001EE12E0F8019E
:104650002081318142815381688179818A819B8166
:104660000E94B3EDAB01BC018CE393E00E94BB94CC
:10467000F80124813581468157816C817D818E814D
:104680009F810E94B3EDAB01BC0188E393E00E94DF
:10469000BB94F801208531854285538568857985ED
:1046A0008A859B850E94B3EDAB01BC0184E393E056
:1046B0000E94BB944C855D856E857F8580E393E089
:1046C0000E94BB94DF91CF911F910F910C943CA25B
:1046D0002F923F924F925F926F927F928F929F9212
:1046E000AF92BF92CF92DF92EF92FF920F931F9300
:1046F000CF93DF938CEF882E81E0982EC9EFD2E024
:104700009EEAA92E94E0B92E01EE12E0312C212C64
:10471000F40181914F010E94CD15882309F44AC00C
:104720000E94D9156B017C01F3E03F1649F0F801B6
:1047300020813181428153810E94B2ED6B017C0165
:10474000F5012081318142815381C701B6010E9468
:10475000B2ED2B013C012DEB37E346E855EB0E940F
:104760008FF087FD0AC02DEB37E346E855E3C30120
:10477000B2010E948CEE1816ECF4F3E03F120BC06D
:10478000C092BA04D092BB04E092BC04F092BD0483
:10479000222423940FC0A3019201688179818A8128
:1047A0009B810E94B3ED688379838A839B83832DE9
:1047B0000E9463193394249684E0A80EB11C0C5F08
:1047C0001F4FE4E03E12A4CF21100E945B17DF913F
:1047D000CF911F910F91FF90EF90DF90CF90BF90FE
:1047E000AF909F908F907F906F905F904F903F9091
:1047F0002F9025CFCF93DF93E3EAF6E06491EF01AA
:104800002196662331F080EE92E10E943714FE017A
:10481000F5CF60E083E996E00E944D1461E08CE8FA
:1048200096E00E944D1461E081E896E00E944D14EC
:1048300061E081E796E00E944D1460E088E696E032
:104840000E944D1461E08EE596E00E944D1461E0F7
:1048500084E596E00E944D1461E08CE496E00E94AD
:104860004D1461E08EE396E00E944D1460E080E319
:1048700096E00E944D1460E081E296E00E944D14A3
:1048800060E083E196E00E944D1460E08DEF95E0DA
:104890000E944D1460E08CEE95E00E944D1460E0A3
:1048A00087ED95E00E944D1461E084EC95E0DF9186
:1048B000CF910C944D14CF92DF92EF92FF92CF9351
:1048C00088EC90E00E941E1981114EC084E40E9481
:1048D0008015882309F441C00E94D9156B017C0121
:1048E000C1E020E030E0A9010E948CEE811101C0FE
:1048F000C0E0C093750920E030E0A901C701B6010E
:104900000E948CEE882349F10E94D915E091C402DF
:1049100024E0E29FF0011124E751F64F6083718398
:104920008283938320E030E0A9016091E9097091CE
:10493000EA098091EB099091EC090E948CEE8111BB
:104940000CC080E090E0A0EEBFE38093E909909373
:10495000EA09A093EB09B093EC09CF91FF90EF9097
:10496000DF90CF900C943483CF91FF90EF90DF9045
:10497000CF900895CF9383E50E94CD158823A1F0B1
:104980000E94D9156093090A70930A0A80930B0A52
:1049900090930C0A6093010A7093020A8093030AB1
:1049A0009093040AC0E001C0C1E080E50E94CD15EB
:1049B000882359F00E94D9156093090A70930A0A56
:1049C00080930B0A90930C0AC0E082E50E94CD15FB
:1049D000882359F00E94D9156093050A7093060A3E
:1049E0008093070A9093080AC0E084E50E94CD15E1
:1049F000882359F00E94D9156093010A7093020A26
:104A00008093030A9093040A2CC0CC2351F1409167
:104A1000090A50910A0A60910B0A70910C0A80EB06
:104A200095E00E94BB944091050A5091060A60915E
:104A3000070A7091080A8DEA95E00E94BB944091A4
:104A4000010A5091020A6091030A7091040A8AEAED
:104A500095E00E94BB946AE080EE92E1CF910C94C5
:104A60003714CF91089581E50E948015882351F075
:104A70000E9420166093410A7093420A8093430A71
:104A80009093440A83E50E948015882351F00E9488
:104A9000D91560930D0A70930E0A80930F0A9093B4
:104AA000100A84E50E948015882351F00E94D915D0
:104AB0006093FD097093FE098093FF099093000AAB
:104AC00088E50E948015882351F00E94D9156093D3
:104AD000ED097093EE098093EF099093F00989E551
:104AE0000E948015882351F00E94D9156093F10926
:104AF0007093F2098093F3099093F4098AE50E9478
:104B00008015882351F00E94D9156093F5097093A0
:104B1000F6098093F7099093F80985E40E948015BF
:104B2000882351F00E94D9156093F9097093FA090E
:104B30008093FB099093FC090895CF93DF93E4EFF2
:104B4000F4E16491EF012196662331F080EE92E169
:104B50000E943714FE01F5CF83E50E94801588235B
:104B600021F00E94411680930A01EAE9F5E0649180
:104B7000EF012196662331F080EE92E10E94371416
:104B8000FE01F5CF80910A01811103C0E2E9F5E051
:104B900002C0E6E9F5E06491EF012196662331F069
:104BA00080EE92E10E943714FE01F5CFEAE8F5E0CD
:104BB0006491EF012196662331F080EE92E10E942C
:104BC0003714FE01F5CF2091E1023091E2024091CD
:104BD000E3025091E4026091D5027091D602809177
:104BE000D7029091D8020E94B3EDAB01BC0188E8D6
:104BF00095E00E94BB942091E5023091E60240913D
:104C0000E7025091E8026091D9027091DA02809136
:104C1000DB029091DC020E94B3EDAB01BC0185E8A0
:104C200095E00E94BB942091E9023091EA02409104
:104C3000EB025091EC026091DD027091DE028091F6
:104C4000DF029091E0020E94B3EDAB01BC0182E86B
:104C500095E00E94BB94EAE7F5E06491EF012196AC
:104C6000662331F080EE92E10E943714FE01F5CF09
:104C70002091E1023091E2024091E3025091E4027E
:104C800060910B0170910C0180910D0190910E01CA
:104C90000E94B3EDAB01BC0188E795E00E94BB9494
:104CA0002091E5023091E6024091E7025091E8023E
:104CB00060910F017091100180911101909112018A
:104CC0000E94B3EDAB01BC0185E795E00E94BB9467
:104CD0002091E9023091EA024091EB025091EC02FE
:104CE000609113017091140180911501909116014A
:104CF0000E94B3EDAB01BC0182E795E00E94BB943A
:104D00006AE080EE92E1DF91CF910C9437140F931B
:104D10001F93CF93DF938DED90E00E941E198111B8
:104D200070C083E50E94CD158823B9F1C091C402FB
:104D3000D0E00E941016CC0FDD1FC25DDE4F7983DC
:104D400068838091C40290E0EC01CC0FDD1FCC0F92
:104D5000DD1F8E01065D1E4F880F991FFC01E25D6D
:104D6000FE4F60817181072E000C880B990B0E9409
:104D70002EEF2AE037ED43E25CE30E94CAF0CB510C
:104D8000D64F288139814A815B810E94CAF0F8019F
:104D9000608371838283938334C0E4EFF4E1649190
:104DA000EF012196662331F080EE92E10E943714E4
:104DB000FE01F5CF65E480EE92E10E943714609128
:104DC000C402605D80EE92E10E943714E091C4025B
:104DD000F0E0EE0FFF1FE25DFE4F608171818AE619
:104DE00095E00E947E9465E280EE92E10E94371485
:104DF0006AE080EE92E1DF91CF911F910F910C94C8
:104E00003714DF91CF911F910F910895CF92DF92C8
:104E1000EF92FF92CF93DF938AE50E94CD15811127
:104E200006C083E50E94CD15882309F481C00E9445
:104E3000D91520E030E040E050EC0E948CEE87FD78
:104E400015C00E94D91520E030E040E050E40E94F7
:104E50008FF018162CF00E94D9156B017C010BC045
:104E6000C12CD12CE12C90E4F92E05C0C12CD12C01
:104E7000E12C80ECF82E80919C0482FF18C0C09138
:104E8000D111D091D2112091290A30912A0A409152
:104E90002B0A50912C0AC701B6010E94CAF00E9449
:104EA000FBEEC60FD71FD093D211C093D11180E56E
:104EB0000E948015882321F00E9441168823C1F1A9
:104EC000A70196016091C0027091C1028091C20257
:104ED0009091C3020E94B3ED6093C0027093C1022F
:104EE0008093C2029093C302E4EFF4E16491EF0176
:104EF0002196662331F080EE92E10E943714FE0184
:104F0000F5CF4091C0025091C1026091C2027091F0
:104F1000C30289E595E00E94BB946AE080EE92E1CD
:104F2000DF91CF91FF90EF90DF90CF900C943714EA
:104F3000DF91CF91FF90EF90DF90CF900895CF93C6
:104F4000DF9385E40E94CD15811110C080E50E9499
:104F50008015882391F00E94D9156093DB1170931E
:104F6000DC118093DD119093DE1107C00E94301692
:104F7000882361F3EAEFF4E172C089E40E948015AE
:104F8000882381F00E94D9152CEA35EC47E25EE3D4
:104F90000E94CAF06093D7117093D8118093D911F1
:104FA0009093DA1184E40E948015882381F00E9496
:104FB000D9152CEA35EC47E25EE30E9493EE60934C
:104FC000D3117093D4118093D5119093D611E4EF3F
:104FD000F4E16491EF012196662331F080EE92E1D5
:104FE0000E943714FE01F5CF4091DB115091DC1186
:104FF0006091DD117091DE1185E595E00E94BB9412
:105000002CEA35EC47E25EE36091D7117091D8113C
:105010008091D9119091DA110E9493EEAB01BC01FD
:1050200081E595E00E94BB942CEA35EC47E25EE313
:105030006091D3117091D4118091D5119091D611B6
:105040000E94CAF0AB01BC018DE495E00E94BB94C4
:105050006AE080EE92E1DF91CF910C943714649175
:10506000EF012196662331F080EE92E10E94371421
:10507000FE01F5CFEBE3F5E06491EF0121966623A5
:1050800031F080EE92E10E943714FE01F5CFDF91FE
:10509000CF910895CF93DF9380E50E9480158823F8
:1050A00051F00E94D91560930112709302128093FF
:1050B00003129093041289E40E948015882381F0E2
:1050C0000E94D9152CEA35EC47E25EE30E94CAF053
:1050D0006093FD117093FE118093FF119093001265
:1050E00084E40E948015882381F00E94D9152CEA5F
:1050F00035EC47E25EE30E9493EE6093F911709302
:10510000FA118093FB119093FC11E4EFF4E16491A8
:10511000EF012196662331F080EE92E10E94371470
:10512000FE01F5CF409101125091021260910312DD
:105130007091041287E395E00E94BB942CEA35EC51
:1051400047E25EE36091FD117091FE118091FF11C5
:10515000909100120E9493EEAB01BC0183E395E0B5
:105160000E94BB942CEA35EC47E25EE36091F911B2
:105170007091FA118091FB119091FC110E94CAF07C
:10518000AB01BC018FE295E00E94BB946AE080EE27
:1051900092E1DF91CF910C943714CF93DF9383E5A5
:1051A0000E948015C82F882371F00E94D9150E9493
:1051B000FBEE709349016093480121E0672B09F0F1
:1051C00020E02093C61180E50E948015882359F0C5
:1051D0002091480130914901232B11F00E94411682
:1051E0008093C61131C0C1112FC0E4EFF4E1649186
:1051F000EF012196662331F080EE92E10E94371490
:10520000FE01F5CF8091C611811103C06DED71E0F3
:1052100002C06AED71E08CE195E00E94FD9460911E
:105220004801709149018BE095E00E947E94E7E08F
:10523000F5E06491EF012196662331F080EE92E172
:105240000E943714FE01F5CFDF91CF9108958F9220
:105250009F92AF92BF92EF92FF920F931F93CF93C3
:10526000DF9300D000D0CDB7DEB785E40E94CD1526
:10527000882321F00E9410168B0102C000E010E08C
:1052800083E40E94CD15882321F00E941016F62E8B
:1052900002C025E0F22E85E50E94CD15882321F07D
:1052A0000E944116E82E04C085E50E948015E82E74
:1052B00017FD07C0812C912C96E1A92E93E4B92EFD
:1052C00006C0812C912C8CE8A82E82E4B82E83E5B0
:1052D0000E94CD15882321F00E94D9154B015C0155
:1052E000C501B4010E94FBEE0115110511F41092E5
:1052F000C402072E000C880B990B0E942EEF6983C5
:105300007A838B839C832E2D4F2D602FCE010196A7
:105310000E94E5AE0F900F900F900F90DF91CF910C
:105320001F910F91FF90EF90BF90AF909F908F9043
:1053300008952F923F924F925F926F927F928F9239
:105340009F92AF92BF92CF92DF92EF92FF920F9314
:105350001F93CF93DF93CDB7DEB72E970FB6F89498
:10536000DEBF0FBECDBF41E061E081E00E94BD1B0A
:105370008111DAC002E01BE08EEA94E09E878D87FF
:10538000FE0131965F0197EE892E9AE0992E1F015A
:10539000F8016591759185919491ED85FE85C19097
:1053A000D190E190F190FE87ED87A70196010E94D0
:1053B000B2ED2B013C01F101608371838283938301
:1053C00020E030E040EA51EC0E948FF087FD0AC0F7
:1053D00020E030E040EA51E4C301B2010E948CEECB
:1053E00018162CF4F401849118160CF493C0F101F2
:1053F000C190D190E190F1901F0120E030E040EAAF
:1054000051ECC701B6010E948FF087FD0BC020E070
:1054100030E040EA51E4C701B6010E948CEE181654
:105420000CF039C0EAEFF4E164918F010F5F1F4F78
:10543000611103C0EFE9F4E006C080EE92E10E9442
:105440003714F801F1CF64918F010F5F1F4F66236E
:1054500031F080EE92E10E943714F801F4CF81E937
:1054600094E02E960FB6F894DEBF0FBECDBFDF914D
:10547000CF911F910F91FF90EF90DF90CF90BF9051
:10548000AF909F908F907F906F905F904F903F90E4
:105490002F900C94DABB0C5F1F4FFFEF8F1A9F0AFF
:1054A0008BE00E30180709F073CF8DEEE82E82E006
:1054B000F82E10E0F50181919191A191B1915F01D8
:1054C000F70181939193A193B1937F01812F0E9462
:1054D00063191F5F133071F7B2D860E081E894E080
:1054E0002E960FB6F894DEBF0FBECDBFDF91CF91E1
:1054F0001F910F91FF90EF90DF90CF90BF90AF90F2
:105500009F908F907F906F905F904F903F902F90E3
:105510000C9444BBF7FAF094F7F8F094F101C082D0
:10552000D182E282F38263CF2E960FB6F894DEBF6B
:105530000FBECDBFDF91CF911F910F91FF90EF90E4
:10554000DF90CF90BF90AF909F908F907F906F90A3
:105550005F904F903F902F900895CF93DF930E94DC
:10556000CF778823D1F0E4EFF4E16491EF01219645
:10557000662331F080EE92E10E943714FE01F5CFF0
:10558000E6E7F4E06491EF012196662331F080EEC6
:1055900092E10E943714FE01F5CFDF91CF9108957B
:1055A000CF92DF92EF92FF92CF93DF938AE50E9432
:1055B000CD15811103C0E4EFF4E13EC00E94D9157E
:1055C0006B017C0120E030E040E050EC0E948FF065
:1055D00087FD0AC020E030E040EA51E4C701B6018F
:1055E0000E948CEE18161CF4EAEFF4E10EC0C09293
:1055F000C002D092C102E092C202F092C30245C042
:1056000080EE92E10E943714FE016491EF01219631
:105610006111F6CFEAE5F4E06491EF01219666238B
:10562000A1F180EE92E10E943714FE01F5CF80EEE9
:1056300092E10E943714FE016491EF0121966111FD
:10564000F6CFEBE4F4E06491EF012196662331F0AC
:1056500080EE92E10E943714FE01F5CF4091C00226
:105660005091C1026091C2027091C30288E494E03B
:105670000E94BB946AE080EE92E1DF91CF91FF90AF
:10568000EF90DF90CF900C943714DF91CF91FF9083
:10569000EF90DF90CF900895CF92DF92EF92FF923C
:1056A000CF93DF938BE40E94CD15811103C0E4EF0B
:1056B000F4E136C08BE40E94CD158823C1F00E942E
:1056C000D9156B017C0120E030E0A9010E948FF028
:1056D00087FD0AC020E030E040E251E4C701B60196
:1056E0000E948CEE181634F4E9E2F4E00EC0C12CEE
:1056F000D12C76010E943785C0929209D0929309ED
:10570000E0929409F09295092DC06491EF012196E1
:10571000662341F180EE92E10E943714FE01F5CF3D
:105720006491EF012196662331F080EE92E10E94B0
:105730003714FE01F5CF4091920950919309609181
:105740009409709195098EE194E00E94BB946AE0FF
:1057500080EE92E1DF91CF91FF90EF90DF90CF90BC
:105760000C943714DF91CF91FF90EF90DF90CF90A2
:1057700008951F93CF93DF93182FE4EFF4E1649122
:10578000EF012196662331F080EE92E10E943714FA
:10579000FE01F5CF64E580EE92E10E943714412FBF
:1057A00050E060E070E020E080EE92E10E9498E43A
:1057B00060E280EE92E10E943714EDEFF3E0649135
:1057C000EF012196662331F080EE92E10E943714BA
:1057D000FE01F5CFDF91CF911F910895CF93DF9315
:1057E000E0919204F0E0E055FD4F80818823A1F024
:1057F000EEEDF2E06491EF012196662331F080EE48
:1058000092E10E943714FE01F5CF6AE080EE92E14A
:10581000DF91CF910C943714DF91CF910895CF92FF
:10582000DF92EF92FF92CF93DF9320910A01222320
:1058300009F485C0EC01C090D502D090D602E0906A
:10584000D702F090D802A7019601688179818A81F8
:105850009B810E948CEE87FF04C0C882D982EA82B5
:10586000FB82C090D902D090DA02E090DB02F09087
:10587000DC02A70196016C817D818E819F810E944F
:105880008CEE87FF04C0CC82DD82EE82FF82C09066
:105890000B01D0900C01E0900D01F0900E01A701DA
:1058A0009601688179818A819B810E948FF0181608
:1058B00024F4C882D982EA82FB82C0900F01D09082
:1058C0001001E0901101F0901201A70196016C8186
:1058D0007D818E819F810E948FF0181624F4CC82E6
:1058E000DD82EE82FF82C090DD02D090DE02E09089
:1058F000DF02F090E002A7019601688579858A852C
:105900009B850E948CEE87FF04C0C886D986EA86F4
:10591000FB86C0901301D0901401E0901501F09027
:105920001601A7019601688579858A859B850E9465
:105930008FF0181624F4C886D986EA86FB86DF9194
:10594000CF91FF90EF90DF90CF900895CF93DF93AA
:1059500080E00E942185C4EBD2E0688379838A834A
:105960009B8381E00E9421856C837D838E839F834E
:1059700082E00E942185688779878A879B87DF91EB
:10598000CF910895CF93DF93E1DF6BE580EE92E155
:105990000E943714C4EBD2E0488159816A817B812F
:1059A00022E080EE92E10E9411E54C815D816E81E2
:1059B0007F8182E493E00E94BB94488559856A8583
:1059C0007B858FE393E00E94BB946DE580EE92E1CE
:1059D0000E9437146AE080EE92E1DF91CF910C943F
:1059E0003714CF93C82FB2DF84EB92E00E941F845C
:1059F000CE3F51F48CE0E4EBF2E0AEEAB4E001908B
:105A00000D928A95E1F713C024E0C29FC0011124D2
:105A1000FC01E255FB4FDC01AC54BD4F8D919D91D3
:105A20000D90BC91A02D80839183A283B383CF91ED
:105A30000895CF939091E409981789F0C82F0E9498
:105A40003785C093E409C11103C08EEFCADF04C0DB
:105A50008EEA94E00E941F84CF910C945016CF914F
:105A6000089580E0E6DF80EC99E00C94E0E08F920E
:105A70009F92AF92BF92DF92EF92FF920F931F938C
:105A8000CF93DF9300D000D0CDB7DEB7182F809131
:105A90009C048770873079F48FE40E94CD158823A9
:105AA00029F00E94411681119CC005C08FE40E941C
:105AB0008015811196C00E943785D090E40980E05E
:105AC000B8DF0E94851B81E00E94287811111CC05C
:105AD00088E50E948015F82E89E50E948015082F20
