:100000000C94B90F0C94E30F0C94E30F0C94E30FD2
:100010000C94E30F0C94E30F0C94E30F0C94E30F98
:100020000C94E30F0C94E30F0C9413A60C9490A67D
:100030000C94E30F0C94E30F0C94E30F0C94E30F78
:100040000C94E30F0C9442750C94E30F0C94E30FA3
:100050000C94E30F0C94E30F0C946A8D0C9472A52E
:100060000C94E30F0C94E30F0C94E30F0C94E30F48
:100070000C94E30F0C94E30F0C94E30F0C94E30F38
:100080000C94E30F0C94E30F0C94E30F0C94E30F28
:100090000C94689C0C94E30F01A32DA34FA34FA3D2
:1000A0004FA34FA34FA34FA34FA34FA34FA34FA3C0
:1000B0004FA34FA345A33DA335A34FA34FA34FA3E6
:1000C0004FA34FA34FA34FA327A30DA315A31FA374
:1000D000084AD73B3BCE016E84BCBFFDC12F3D6CAF
:1000E00074319ABD56833DDA3D00C77F11BED9E415
:1000F000BB4C3E916BAAAABE000000803F05A84CF5
:10010000CDB2D44EB93836A9020C50B991868808C0
:100110003CA6AAAA2ABE000000803F004E414E49DC
:100120004E495459494E46CDCCCC3D0AD7233C17B5
:10013000B7D13877CC2B329595E6241FB14F0A0002
:100140000020410000C84200401C4620BCBE4CCAF2
:100150001B0E5AAEC59D742020506C616E6E657288
:1001600042756666657242797465733A200020466E
:10017000726565204D656D6F72793A2000436F6D31
:1001800070696C65643A204D6172202038203230ED
:1001900031390A00207C20417574686F723A20283A
:1001A00044722E5068696C3344290A003230313869
:1001B0002D30382D303100204C617374205570641F
:1001C000617465643A2000312E312E390A004D6188
:1001D000726C696E0020536F66747761726520528D
:1001E000657365740A00205761746368646F6720E3
:1001F00052657365740A002042726F776E206F75C6
:10020000742052657365740A002045787465726EB7
:10021000616C2052657365740A00506F7765725582
:10022000700A0073746172740A005072696E7465AA
:10023000722068616C7465642E206B696C6C28296F
:100240002063616C6C6564210A004B494C4C454449
:100250002E20004B494C4C2063617573656420620D
:100260007920746F6F206D75636820696E616374A7
:100270006976652074696D65202D206375727265DD
:100280006E7420636F6D6D616E643A200020746F30
:100290006F206C6F6E6720657874727573696F6E0E
:1002A0002070726576656E7465640A0020636F6CF9
:1002B0006420657874727573696F6E2070726576EC
:1002C000656E7465640A006F6B00526573656E64D9
:1002D0003A20003A004361703A0000011C1D132FC0
:1002E000FFFFFFFF1E1F12FF18FFFFFF2021112439
:1002F000FFFFFFFFFFFFFF0E10FFFFFF22230DFF99
:10030000FFFF0E260F2C2741637469766520457820
:100310007472756465723A200020453A00205A3A9A
:100320000020593A00583A002C20002C2000627519
:1003300073793A2070617573656420666F72206905
:100340006E7075740A00627573793A207061757306
:10035000656420666F7220757365720A006275733A
:10036000793A2070726F63657373696E670A005023
:10037000726F62696E67206661696C65640A00204D
:100380005A3A200020593A200042656420583A2009
:10039000002066697273740A005A005900580048B8
:1003A0006F6D65200020496E76616C696420657808
:1003B0007472756465722000656E71756575656926
:1003C0006E67202200496E76616C696420657874DE
:1003D00072756465720A004E6F2063617365206CEC
:1003E000696768740A00416476616E6365204B3DFD
:1003F000003F4B2076616C7565206F7574206F66C9
:100400002072616E67652028302D3130292E0A0058
:100410003A200050726F6265205A204F66667365FD
:1004200074003F5A206F7574206F662072616E678A
:100430006520282D3220746F203230290A0045456E
:1004400050524F4D204F4B0A00546F6F206661721F
:100450002066726F6D207265666572656E636520D9
:10046000706F696E740A00426564204C6576656C35
:10047000696E6720004661696C656420746F206551
:100480006E61626C6520426564204C6576656C69BE
:100490006E670A00426564204C6576656C20436F88
:1004A0007272656374696F6E204D61747269783A17
:1004B0000043290A0061626C656420286D696E2022
:1004C00074656D702000436F6C642065787472757C
:1004D00064657320617265200020643A0020693AE7
:1004E0000020703A00496E76616C6964206578740A
:1004F00072756465720A0020643A0020693A00202F
:10050000703A0050726F6265205A204F66667365BC
:10051000743A200020466C6F773A2000205A002061
:100520005900580020204D61783A2000205A0020C0
:100530005900580020204D696E3A20004F66660031
:100540004F6E2000536F667420656E6473746F7015
:10055000733A2000205400205200416363656C65AB
:10056000726174696F6E3A2050002F2F200054483A
:1005700045524D414C5F50524F54454354494F4EA4
:10058000004155544F5245504F52545F53445F53AE
:10059000544154555300454D455247454E43595FCC
:1005A00050415253455200434153455F4C494748DF
:1005B000545F4252494748544E45535300544F47A5
:1005C000474C455F4C494748545300534F46545796
:1005D0004152455F504F574552004255494C445F88
:1005E00050455243454E54004C4556454C494E47A4
:1005F0005F44415441005A5F50524F4245004155BB
:10060000544F4C4556454C005052494E545F4A4F4A
:10061000420050524F4752455353004155544F5298
:1006200045504F52545F54454D5000564F4C554D18
:10063000455452494300454550524F4D0053455291
:1006400049414C5F584F4E5F584F4646004649520D
:100650004D574152455F4E414D453A4D61726C696F
:100660006E20312E312E3920284769746875622931
:1006700020534F555243455F434F44455F55524CBD
:100680003A68747470733A2F2F6769746875622EB4
:10069000636F6D2F4D61726C696E4669726D776123
:1006A00072652F4D61726C696E2050524F544F43EA
:1006B0004F4C5F56455253494F4E3A312E30204DE4
:1006C000414348494E455F545950453A5072696E0E
:1006D0007472626F742053696D706C65204D65741F
:1006E000616C2045585452554445525F434F554E16
:1006F000543A3120555549443A34306365363164B3
:10070000312D326564302D343533302D383330346B
:100710002D3535653365656161656266660A004D34
:100720003131332053006F66660044454255473AE5
:10073000005C075707500749073B07434F4D4D558E
:100740004E49434154494F4E0044525952554E0070
:100750004552524F525300494E464F004543484F71
:100760000020573A0020573A004B494C4C45442E44
:1007700020006F6B0050726F746563746564205065
:10078000696E0A005072696E742074696D653A2052
:1007900000205A3A200020593A200042656420582F
:1007A0003A20004731205A31302046373030300A65
:1007B0004731205830205930204637303030000A39
:1007C0000A426564204C6576656C20436F727265E1
:1007D0006374696F6E204D61747269783A002028E5
:1007E00044525952554E2900473239204175746F91
:1007F00020426564204C6576656C696E67003F2811
:1008000056296572626F7365206C6576656C206928
:100810007320696D706C61757369626C6520283036
:100820002D34292E0A00486F6D65205859206669BD
:100830007273740A0047322F47332062616420705C
:100840006172616D65746572730A005761726E69D9
:100850006E673A20486F6D696E672042756D702033
:1008600044697669736F72203C20310A00020204E9
:100870004B494C4C45442E20005072696E74657291
:100880002073746F707065642064756520746F20C8
:100890006572726F72732E204669782074686520C5
:1008A0006572726F7220616E6420757365204D39B8
:1008B000393920746F20726573746172742E202828
:1008C00054656D706572617475726520697320720C
:1008D000657365742E205365742069742061667495
:1008E00065722072657374617274696E67290A009B
:1008F0004E6F20436865636B73756D20776974680C
:10090000206C696E65206E756D6265722C204C617D
:100910007374204C696E653A2000636865636B737D
:10092000756D206D69736D617463682C204C617303
:1009300074204C696E653A20004C696E65204E75D6
:100940006D626572206973206E6F74204C617374E0
:10095000204C696E65204E756D6265722B312C20BE
:100960004C617374204C696E653A20004D31313012
:1009700000FF01FF0000A0400000A0400000004078
:100980000000184300001A43000018430000000054
:100990000000184300000000000018430000184346
:1009A0000000184300000000000000C0000000002C
:1009B0000000484200004842000080400000000063
:1009C0002569730025696D202569730025696820F4
:1009D00025696D20256973002569642025696820D3
:1009E00025696D20256973002569792025696420B2
:1009F0002569682025696D202569730020204D39FF
:100A00003030204B004C696E656172204164766124
:100A10006E63653A0A0020204D383531205A005A5D
:100A20002D50726F6265204F6666736574002044B6
:100A30000020490020204D33303420500020440055
:100A400020490020204D33303120500050494420AF
:100A500073657474696E67733A0A0020204D3432EE
:100A6000302053004175746F20426564204C6576D8
:100A7000656C696E673A0A00205A002059002020F0
:100A80004D323036205800486F6D65206F666673B2
:100A900065743A0A00204500205A00205900205869
:100AA0000020540020530020204D323035205100CA
:100AB00020453C6D61785F655F6A65726B3E002022
:100AC000583C6D61785F785F6A65726B3E20593C77
:100AD0006D61785F795F6A65726B3E205A3C6D612B
:100AE000785F7A5F6A65726B3E00416476616E631F
:100AF00065643A20513C6D696E5F7365676D656E24
:100B0000745F74696D655F75733E20533C6D696EEB
:100B10005F66656564726174653E20543C6D696E04
:100B20005F74726176656C5F666565647261746539
:100B30003E0020540020520020204D3230342050FE
:100B400000416363656C65726174696F6E2028751E
:100B50006E6974732F7332293A20503C7072696E3B
:100B6000745F616363656C3E20523C7265747261B0
:100B700063745F616363656C3E20543C747261769C
:100B8000656C5F616363656C3E0A00204500205A16
:100B90000020590020204D3230312058004D61781E
:100BA000696D756D20416363656C65726174696F11
:100BB0006E2028756E6974732F7332293A0A0020EB
:100BC0004500205A0020590020204D323033205853
:100BD000004D6178696D756D20666565647261743C
:100BE00065732028756E6974732F73293A0A002083
:100BF0004500205A0020590020204D39322058004D
:100C000053746570732070657220756E69743A0A4A
:100C10000020204D3230302044300A0020204D3258
:100C200030302044002044697361626C65640A00BE
:100C300046696C616D656E742073657474696E6766
:100C4000733A002020473231202020203B004861A9
:100C50007264636F6465642044656661756C7420BA
:100C600053657474696E6773204C6F616465640AC0
:100C700000D0070000D0070000640000001027002B
:100C80000000001643000016430000E04000002072
:100C9000420000A0420000A0420080FC440000BDD1
:100CA00042290A002062797465733B2063726320D5
:100CB000002073746F7265642073657474696E6765
:100CC0007320726574726965766564202800202837
:100CD00063616C63756C6174656429210A0020216D
:100CE0003D2000454550524F4D20435243206D69F1
:100CF000736D61746368202D202873746F7265644E
:100D00002920002053697A653A2000496E6465788D
:100D10003A2000204D61726C696E3D563535290AC6
:100D20000028454550524F4D3D00454550524F4DCE
:100D30002076657273696F6E206D69736D6174637F
:100D4000682000290A002062797465733B20637271
:100D500063200053657474696E67732053746F72F7
:100D60006564202800454550524F4D2064617461F0
:100D700073697A65206572726F722E0A004572720D
:100D80006F722077726974696E6720746F204545B1
:100D900050524F4D210A003A0A0020286D6D29005B
:100DA0006F70656E00545249474745524544003ABA
:100DB00020007A5F6D696E00795F6D617800785F01
:100DC0006D696E005265706F7274696E6720656E32
:100DD0006473746F70207374617475730A00205AA1
:100DE0003A0020593A0020583A00656E6473746FD7
:100DF0007073206869743A2000486F6D696E6720CF
:100E00006661696C656400556E6B6E6F776E20630A
:100E10006F6D6D616E643A20220020746F6F206CDC
:100E20006F6E6720657874727573696F6E2070726B
:100E30006576656E7465640A0020636F6C64206576
:100E40007874727573696F6E2070726576656E74F2
:100E500065640A00FFFDFCFAF8F6F4F2F0EEECEA45
:100E6000E9E7E5E3E1E0DEDCDAD9D7D5D4D2D0CFCB
:100E7000CDCBCAC8C7C5C3C2C0BFBDBCBAB9B7B65F
:100E8000B4B3B2B0AFADACAAA9A8A6A5A4A2A1A0C4
:100E90009E9D9C9A99989795949392908F8E8D8B06
:100EA0008A8988878684838281807F7E7D7B7A7928
:100EB0007877767574737271706F6E6D6C6B6A692A
:100EC0006867666564636261605F5E5D5C5B5A591A
:100ED00058585756555453525150504F4E4D4C4BF5
:100EE0004A4A4948474646454443424241403F3EBC
:100EF0003E3D3C3B3B3A3938383736353534333272
:100F0000323130302F2E2E2D2C2B2B2A2929282719
:100F10002726252524232322212120201F1E1E1DB4
:100F20001C1C1B1B1A191918181716161515141343
:100F30001312121111100F0F0E0E0D0D0C0C0B0AC7
:100F40000A09090808070706060505040403030241
:100F5000020100000000000100000001000080000C
:100F6000555555000000400033333300AAAA2A002B
:100F70004992240000002000C7711C0099991900B3
:100F8000D1451700555515003BB1130024491200F7
:100F900011111100000010000F0F0F00E3380E00B8
:100FA00043790D00CCCC0C00C3300C00E8A20B0040
:100FB00064210B00AAAA0A00703D0A009DD809000E
:100FC000427B090092240900DCD3080088880800CD
:100FD0001042080000000800F0C1070087870700E2
:100FE00075500700711C07003EEB0600A1BC06000F
:100FF0006990060066660600703E060061180600ED
:1010000017F4050074D105005BB00500B29005002F
:10101000627205005555050078390500B81E0500B7
:10102000050505004EEC040087D40400A1BD0400B2
:1010300090A7040049920400C17D0400EE690400F9
:10104000C7560400444404005C3204000821040034
:1010500041100400000004003FF00300F8E003002A
:1010600026D20300C3C30300CCB503003AA8030093
:101070000A9B0300388E0300C08103009F750300A4
:10108000D0690300505E03001D5303003448030081
:10109000913D03003333030016290300381F03007A
:1010A00097150300300C0300030303000BFA020042
:1010B00049F10200BAE802005CE002002DD802000B
:1010C0002DD0020059C80200B0C0020031B90200A0
:1010D000DAB10200AAAA0200A0A30200BC9C02008E
:1010E000FA9502005C8F0200DF8802008282020013
:1010F000457C02002776020027700200436A020046
:101100007C640200D05E02003F590200C853020016
:101110006563686F3A004572726F723A00205A3AFE
:101120000020593A0020436F756E7420583A00230E
:101130002C0000B8220000561800003A0F0000B83A
:10114000080000B1040000710200003E010000240C
:10115000F4D43050C38E20C2A24017828B7011127B
:101160007A910D816CD90AA861E108C758660761B8
:101170005143061E4B5D05C145A7041A41110409E0
:101180003D9803713931034036DB0265339102D457
:10119000305402802E1D02632CEE01752AC501B069
:1011A00028A001102781018F2564012B244B01E029
:1011B000223401AC211F018D200D01801FFC008411
:1011C0001EED00971DDF00B81CD200E61BC60020F4
:1011D0001BBC00641AB200B219A8000A19A0006A68
:1011E000189900D117910040178B00B51684003173
:1011F000167E00B31579003A157300C7146F0058B6
:10120000146A00EE1366008813630025135E00C79E
:10121000125B006C12570015125400C1115100707E
:10122000114F0021114B00D61049008D1047004688
:1012300010440002104200C00F4000800F3E0042E8
:101240000F3C00060F3B00CB0E3800930E37005CBE
:101250000E3500270E3400F30D3200C10D31009021
:101260000D3000600D2E00320D2D00050D2C00D923
:101270000C2B00AE0C2900850C29005C0C270035D6
:101280000C27000E0C2600E80B2400C40B2400A041
:101290000B23007D0B23005A0B2100390B21001872
:1012A0000B2000F80A1F00D90A1E00BB0A1E009D71
:1012B0000A1D00800A1D00630A1C00470A1B002C3F
:1012C0000A1B00110A1A00F7091A00DD091900C4E7
:1012D000091900AB091900920917007B091800636E
:1012E0000917004C09160036091600200916000AD5
:1012F000091500F5081500E0081400CC081400B822
:10130000081400A4081400900813007D0812006B54
:101310000813005808120046081200340811002370
:101320000811001208110001081100F0071000E078
:10133000071000D0071000C0071000B0070F00A171
:1013400007100091070E0083070F0074070F006558
:10135000070E0057070E0049070E003B070D002E31
:10136000070E0020070D0013070D0006070D00F9FA
:10137000060C00ED060D00E0060C00D4060C00C8BB
:10138000060C00BC060C00B0060C00A4060B00996D
:10139000060C008D060B0082060B0077060B006C16
:1013A000060B0061060A0057060B004C060A0042B5
:1013B000060A0038060A002E060A0024060A001A49
:1013C000060A001006090007060A00FD050900F4D8
:1013D000050900EB050900E2050900D9050900D05F
:1013E000050900C7050900BE050900B5050800ADDF
:1013F000050800A50509009C050800940508008C57
:10140000050800840508007C050800740508006CC8
:10141000050700650508005D050700560508004E34
:10142000050700470507004005080038050700319B
:101430000507002A050700230507001C05060016FE
:101440000507000F0507000805060002050700FB59
:10145000040600F5040700EE040600E8040600E2B6
:10146000040700DB040600D5040600CF040600C90B
:10147000040600C3040600BD040600B7040600B15C
:10148000040500AC040600A6040600A00405009BA9
:1014900004060095040500900406008A04050085F2
:1014A000040500800406007A040500750405007038
:1014B0000405006B04050066040500610405005C7A
:1014C00004050057040500520405004D04050048BA
:1014D000040500430405003E0404003A04050035F9
:1014E000040500300404002C040500270404002334
:1014F0000405001E0404001A04040016040500116B
:101500000404000D040400090405000404040000A0
:10151000040400FC030400F8030400F4030400F0D6
:10152000030400EC030400E8030400E4030400E007
:10153000030400DC030400D8030400D4030400D037
:10154000030400CC030400C8030300C50303002404
:10155000F404D9201BC40C5C0E9804C4095F026516
:10156000077101F405F900FB04B30048048700C1CA
:101570000369005803550003034500BE023A008486
:1015800002310053022A002902250004022000E44F
:10159000011C00C8011900AF011700980114008454
:1015A000011300710110006101100051010E004390
:1015B000010D0036010B002B010B0020010B001563
:1015C0000109000C01090003010800FB000800F3F9
:1015D000000800EB000700E4000600DE000600D86B
:1015E000000600D2000600CC000500C7000500C2BE
:1015F000000500BD000400B9000400B5000400B1FE
:10160000000400AD000400A9000400A5000300A22E
:101610000003009F0004009B000300980003009556
:1016200000020093000300900003008D0002008B75
:10163000000300880002008600020084000300818D
:101640000002007F0002007D0002007B00020079A2
:1016500000020077000100760002007400020072B0
:10166000000100710002006F0002006D0001006CBB
:101670000002006A000100690002006700010066C4
:1016800000010065000100640002006200010061C9
:10169000000100600001005F0002005D0001005CCD
:1016A0000001005B0001005A0001005900010058D0
:1016B00000010057000100560001005500010054D0
:1016C00000010053000000530001005200010051CE
:1016D000000100500001004F0001004E0000004ECC
:1016E0000001004D0001004C0001004B0000004BC8
:1016F0000001004A000100490001004800000048C4
:1017000000010047000100460000004600010045BE
:1017100000000045000100440001004300000043B8
:1017200000010042000000420001004100000041B1
:10173000000100400001003F0000003F0001003EAA
:101740000000003E0001003D0000003D0001003CA3
:101750000000003C0000003C0001003B0000003B9A
:101760000001003A0000003A000100390000003991
:101770000001003800000038000000380001003788
:10178000000000370001003600000036000000367F
:101790000001003500000035000000350001003474
:1017A000000000340000003400010033000000336A
:1017B000000000330001003200000032000000325F
:1017C0000001003100000031000000310001003054
:1017D00000000030000000300001002F0000002F4A
:1017E0000000002F0000002F0001002E0000002E3E
:1017F0000000002E0001002D0000002D0000002D33
:101800000000002D0001002C0000002C0000002C26
:101810000000002C0001002B0000002B0000002B1A
:101820000000002B0001002A0000002A0000002A0E
:101830000000002A00010029000000290000002902
:1018400000000029000000290001002800000028F5
:1018500000000028000000280000002800010027E8
:1018600000000027000000270000002700000027DC
:1018700000010026000000260000002600000026CF
:1018800000000026000100250000002500000025C2
:1018900000000025000000250000002500010024B4
:1018A00000000024000000240000002400000024A8
:1018B000000100230000002300000023000000239B
:1018C000000000230000002300000023000100228C
:1018D0000000002200000022000000220000002280
:1018E0000000002200010021000000210000002172
:1018F0000000002100000021000000210000002164
:101900000001002000000020000000200000002056
:101910000000002000000020000000200000002047
:101920000001001F0000001F0000001F0000001F3A
:101930000000001F0000001F0000001F0001001E2B
:101940000000001E0000001E0000001E0000002914
:101950000A002028002920453A0020280029205A82
:101960003A002028002920593A0020280020583A1F
:1019700000537465707065722063757272656E7461
:101980002076616C75657320696E20252028416D75
:101990007073293A0A002042403A0020403A002061
:1019A0002F00546865726D616C2052756E617761AD
:1019B0007900453120544845524D414C2052554EF6
:1019C000415741590042454420544845524D414CED
:1019D0002052554E41574159004B494C4C45442EDD
:1019E0002000202D20496E76616C69642065787432
:1019F0007275646572206E756D62657220210A00D1
:101A000048656174696E67206661696C656400424F
:101A100065642068656174696E67206661696C65DC
:101A2000640048656174696E67206661696C65640D
:101A30000045312048656174696E67206661696C94
:101A40006564004D494E54454D5020747269676776
:101A500065726564004531204572723A204D494EE9
:101A600054454D50004572723A204D494E54454DF3
:101A70005020424544004D415854454D5020747209
:101A800069676765726564004531204572723A2066
:101A90004D415854454D50004572723A204D4158C1
:101AA00054454D5020424544006265640A002C2094
:101AB00073797374656D2073746F70706564212021
:101AC0004865617465725F49443A20002CFFFFFF4E
:101AD000FFFF0001010101014B64200023646566E2
:101AE000696E652044454641554C545F004B692062
:101AF0000023646566696E652044454641554C5433
:101B00005F004B70200023646566696E6520444564
:101B10004641554C545F00504944204175746F74E0
:101B2000756E652066696E697368656421205075FD
:101B30007420746865206C617374204B702C204B8A
:101B40006920616E64204B6420636F6E7374616EF4
:101B500074732066726F6D2062656C6F7720696E9A
:101B6000746F20436F6E66696775726174696F6E1A
:101B70002E680A00504944204175746F74756E6573
:101B8000206661696C6564212074696D656F757488
:101B90000A00546865726D616C2052756E617761E0
:101BA0007900453120544845524D414C2052554E04
:101BB000415741590042454420544845524D414CFB
:101BC0002052554E415741590048656174696E670E
:101BD000206661696C6564004531204865617469FF
:101BE0006E67206661696C656400426564206865A3
:101BF0006174696E67206661696C65640050494470
:101C0000204175746F74756E65206661696C6564DA
:101C1000212054656D706572617475726520746FF2
:101C20006F20686967680A00204B643A2000204BE7
:101C3000693A2000204B703A20000A20436C6173FF
:101C400073696320504944200A002054753A2000EB
:101C5000204B753A2000206D61783A2000206D6994
:101C60006E3A200020643A200020626961733A20B5
:101C700000504944204175746F74756E652073740B
:101C80006172740A00504944204175746F74756E16
:101C900065206661696C6564212042616420657815
:101CA000747275646572206E756D6265720A0010DB
:101CB00000C90210012C014001220170011801B07D
:101CC000010E01F00104015002FA00B002F00030F0
:101CD00003E600D003DC009004D2007005C800A029
:101CE00006BE000008B400B009AA00D00BA0006036
:101CF0000E960060118C000015820020197800C03B
:101D00001D6E00A0226400B0275A00902C500000E5
:101D1000314600E0343C0010383200903A28006030
:101D20003C1E00A03D1400803E0A00203F000070D1
:101D3000012C0190012701B0012201C0011D01F019
:101D40000118011002130130020E01600209019016
:101D5000020401C002FF000003FA004003F5008006
:101D600003F000D003EB002004E6007004E100E083
:101D700004DC004005D700C005D2004006CD00D0ED
:101D800006C8008007C3003008BE00F008B900C0D4
:101D900009B400B00AAF00B00BAA00D00CA5000037
:101DA0000EA000500F9B00C0109600501291000032
:101DB000148C00C0158700B0178200B0197D00D0C8
:101DC0001B7800001E730040206E0090226900F016
:101DD00024640040275F0090295A00E02B55001032
:101DE0002E500020304B0010324600E0334100906E
:101DF000353C001037370070383200A0392D00B064
:101E00003A2800A03B2300603C1E00103D190090C2
:101E10003D1400103E0F00703E0A00C03E05000059
:101E20003F0000403FFBFF803FF6FFC03FF1FF0156
:101E3000290229042908291029202940298029015B
:101E40002C022C01260226042608261026202640D5
:101E5000268026402C802C012302230423082310F3
:101E60002320234023802301200220042008201067
:101E700020202040208020102C202C012F022F0415
:101E80002F082F102F202F402F802F7EFE7EFD7ECB
:101E9000FB7EF77EEF7EDF7EBF7E7F000100004C81
:101EA0001F1200020000091F4300030000051F0469
:101EB00001030904EB1E1802030904D31E160303D1
:101EC0000904C51E0C0C0331003200330034003508
:101ED0000000001603550053004200200053006527
:101EE000007200690061006C000000180354006576
:101EF0000065006E00730079006400750069006E73
:101F0000006F0000000403090409024300020100FD
:101F1000C032090400000102020100052400100182
:101F2000052401000104240206052406000107051A
:101F3000820308004009040100020A0000000705AE
:101F40000302400000070584024000001201000265
:101F500002000020C0168304720201020301000186
:101F6000C1020180360181360859E373869BDDA9E1
:101F7000115911241FBECFEFD0E2DEBFCDBF12E05A
:101F8000A0E0B1E0E0EEFAE601E00BBF02C007908E
:101F90000D92A833B107D9F72EE0A8E3B2E001C053
:101FA0001D92AA37B207E1F71FE0C8EBDFE004C0DB
:101FB0002197FE010E9452AAC43BD107C9F70E9493
:101FC00072A10C9463B50C9400004F925F926F92D3
:101FD0007F928F929F92AF92BF92CF92DF92EF92B9
:101FE000FF92CF934B015C0169017A0120E030E060
:101FF00040EA51E40E9474AA2B013C012FE632E131
:1020000043E85AEB0E9451AD87FD48C022E430E01E
:1020100048E153E4C301B2010E944EAB18160CF420
:102020003DC022E630E140E050ECC701B6010E941D
:1020300051AD87FD33C022E430E048E153E4C701ED
:10204000B6010E944EAB18164CF124EF3DEF4FE95C
:1020500051E4C501B4010E9451AD87FD1FC022E4C7
:1020600030E04EE053E4C501B4010E944EAB1816B7
:10207000ACF027EE3BEF4FE151E4C701B6010E94FF
:1020800051AD87FD0BC0C1E022E430E04EE053E4E7
:10209000C701B6010E944EAB18160CF4C0E08C2F9D
:1020A000CF91FF90EF90DF90CF90BF90AF909F9037
:1020B0008F907F906F905F904F900895CF93DF93B4
:1020C0001F92CDB7DEB76983DC01ED91FC910280F0
:1020D000F381E02D41E050E0BE016F5F7F4F099535
:1020E0000F90DF91CF910895FF920F931F93CF939D
:1020F000DF93F82E092F162FE5EDF2E06491EF0142
:102100002196662329F08CE69EE0D8DFFE01F6CF0B
:10211000EF2DF02F6491EF012196662329F08CE6D4
:102120009EE0CCDFFE01F6CFE3EDF2E06491EF013B
:102130002196662329F08CE69EE0C0DFFE01F6CFF3
:10214000412F50E060E070E08CE69EE00E9478A0B5
:102150006AE08CE69EE0DF91CF911F910F91FF9096
:10216000ADCF0FB6F8948091610E9091620EA09160
:10217000630EB091640E0FBE8093B7029093B802C5
:10218000A093B902B093BA0208952F923F924F9252
:102190005F926F927F928F929F92AF92BF92CF92F7
:1021A000DF92EF92FF920F931F93CF93DF93EB0198
:1021B000FC0180809180A280B380C501B40120E839
:1021C00031E541E050E00E9414AAC9016DE671E0DA
:1021D0000E9400AA6B017C01C501B40120E13EE030
:1021E00040E050E00E9414AACA01B90128E130E0A1
:1021F00040E050E00E9414AA362E272E062F172FFB
:102200008CE3482E512C612C712CC501B401A30123
:1022100092010E9414AAB62EA72ECA01B901A301E9
:1022200092010E9414AACB01C114D104D9F0AF923B
:10223000BF927F936F932F923F92FF92EF92DF9224
:10224000CF9288EE99E09F938F93DF93CF930E9474
:102250006FB28DB79EB70E960FB6F8949EBF0FBEA5
:102260008DBF5CC0E114F104C9F0AF92BF927F93BF
:102270006F932F923F92FF92EF9288ED99E09F9398
:102280008F93DF93CF930E946FB2EDB7FEB73C966A
:102290000FB6F894FEBF0FBEEDBF40C0012BB9F0E2
:1022A000AF92BF927F936F932F923F928CEC99E005
:1022B0009F938F93DF93CF930E946FB28DB79EB79A
:1022C0000A960FB6F8949EBF0FBE8DBF27C0892B0C
:1022D000A9F0AF92BF927F936F9384EC99E09F93A4
:1022E0008F93DF93CF930E946FB2EDB7FEB738960E
:1022F0000FB6F894FEBF0FBEEDBF10C0AF92BF92F5
:1023000080EC99E09F938F93DF93CF930E946FB2FD
:102310000F900F900F900F900F900F90DF91CF9133
:102320001F910F91FF90EF90DF90CF90BF90AF90F3
:102330009F908F907F906F905F904F903F902F90E5
:10234000089581548A3108F041C0E82FF0E04091AF
:10235000EE045091EF046091F0047091F10404C018
:1023600076956795579547958A95D2F7842F817012
:1023700040FF33C0EC52FB4F9081992301F1E09173
:10238000F904F091FA04E90FF11D908120ED290F75
:102390002A3080F09E3229F4918190539A3078F45B
:1023A00009C09D3211F09B3251F4918120ED290F2B
:1023B0002A3018F42E2F9F2F04C09E3249F020E0BF
:1023C00090E02093F5049093F604089580E008953A
:1023D000928190539A3098F7EDCF0895B2DF882319
:1023E00041F081E02091F5043091F604232B09F4AB
:1023F00080E008950F931F93CF938091F5049091FF
:10240000F604009711F1FC018F01C1912C2F2F7D53
:10241000A9F0C53411F0C536B9F7F801108260E0B3
:1024200070E08091F5049091F6040E9456AEF80198
:10243000C083562F472F382F292F0BC060E070E044
:10244000CF911F910F910C9456AE50E040E030E0D8
:1024500020E0652F742F832F922FCF911F910F9122
:1024600008958091F5049091F604009731F04AE0C8
:1024700050E060E070E00C94A9AF60E070E0CB0148
:1024800008958091F5049091F604009731F04AE0A8
:1024900050E060E070E00C94D4B060E070E0CB01FC
:1024A0000895DFDF97FD0AC0DCDF6F3F710581050E
:1024B000910509F02CF4D5DF862F089580E008956A
:1024C0008FEF08958091F5049091F604892B31F0F7
:1024D000E8DF91E0811103C090E001C091E0892F15
:1024E00008950F931F93CF93DF93CDB7DEB72C974B
:1024F0000FB6F894DEBF0FBECDBFEBE9F4E08085E8
:102500009185A285B385448155816681778100815B
:1025100011812281338109871A872B873C874D835C
:102520005E836F83788789839A83AB83BC83AE0194
:102530004F5F5F4FBE016B5F7F4FCE0109960E94D8
:10254000426327EA34E0AE014F5F5F4FBE016B5F2D
:102550007F4FCE0109960E94A4712C960FB6F89475
:10256000DEBF0FBECDBFDF91CF911F910F910895B8
:102570002F923F924F925F926F927F929F92AF9273
:10258000BF92CF92DF92EF92FF920F931F93CF9360
:10259000DF93CDB7DEB764970FB6F894DEBF0FBEFA
:1025A000CDBF1A012B01922EF32EC82ED12CF6018D
:1025B000EF58F64FE491AA24A3941E160CF4A12C14
:1025C000BB24B39420E030E0A901C201B1010E9414
:1025D00051AD18160CF0B12CCC0CDD1CCC0CDD1C54
:1025E000C60185569B4F3C01FC011082118212826C
:1025F000138277DFF3012082318242825382E0909E
:10260000BF0220E030E0A901B801892D9F2D0E9472
:102610004EAB81110AC0F601E055F64F85919591B8
:10262000A591B4918C019A2EFB2EC801A92DBF2D26
:10263000898B9A8BAB8BBC8B8091A3049091A40463
:10264000A091A504B091A60440919F045091A004CC
:102650006091A1047091A20400919B0410919C04CC
:1026600020919D0430919E040D871E872F87388B03
:1026700049875A876B877C878D839E83AF83B88712
:1026800019821A821B821C82AE014B5F5F4FBE0112
:10269000675F7F4FCE010D960E944263CE01019687
:1026A0006C018E010F5E1F4F27EA34E0AE014B5FD5
:1026B0005F4FBE01675F7F4F0C960E94C2700E9401
:1026C000C664AB100E94325764960FB6F894DEBF12
:1026D0000FBECDBFDF91CF911F910F91FF90EF9073
:1026E000DF90CF90BF90AF909F907F906F905F9062
:1026F0004F903F902F90089567EA74E083E00C9428
:10270000C972CF93DF9300D0CDB7DEB720915E0EB4
:1027100030915F0ECE0101962115310529F48A57BB
:102720009E409A83898304C0821B930B9A8389837A
:1027300089819A810F900F90DF91CF910895FF9238
:102740000F931F93CF93DF93FC0120812B3319F15B
:10275000D0918004D430F8F4F62EBC01C0917E04F0
:102760000C2F10E0F0E6CF9FC001112482509D4F46
:102770000E944FB2F801E256FD4FF082CF5FC430A5
:1027800018F4C0937E0402C010927E04DF5FD093E1
:10279000800481E001C080E0DF91CF911F910F9113
:1027A000FF900895EF92FF921F93CF93DF937C01E8
:1027B00060E0C5DF182F8823C9F0E0E1F1E1649102
:1027C000EF012196662329F08CE69EE077DCFE017E
:1027D000F6CFB70188EB93E00E94667462E28CE664
:1027E0009EE06CDC6AE08CE69EE068DC812FDF9185
:1027F000CF911F91FF90EF900895DF92EF92FF929B
:102800000F931F93CF93DF93CDB7DEB76E970FB6BD
:10281000F894DEBF0FBECDBF6091FC027091FD0247
:102820006115710541F14DE150E0CE0101967C0149
:102830000E94FEB11E8EF7018F010E191F09D19063
:10284000DD2019F09AE0D912F7CFF701E00FF11F60
:102850001082C701A7DF882371F0DD20A9F00F5F88
:102860001F4F8091FC029091FD02080F191F1093D9
:10287000FD020093FC0281E02091FC023091FD02F8
:10288000232B29F480E003C000E010E0F0CF6E9627
:102890000FB6F894DEBF0FBECDBFDF91CF911F9171
:1028A0000F91FF90EF90DF900895EF92FF920F93BA
:1028B0001F93CF93DF937C0184E590DDD82F88238D
:1028C00069F1EFDDC82F18162CF5E0E1F1E1649114
:1028D0008F010F5F1F4F662329F08CE69EE0EEDB31
:1028E000F801F5CF6DE48CE69EE0E8DBA70160E03F
:1028F00070E020E08CE69EE00E940CA06C2FCC0FD4
:10290000770B85EA93E00E94E7736AE08CE69EE02D
:10291000D5DB08C08093B202D0E004C08091BF0232
:102920008093B2028D2FDF91CF911F910F91FF9075
:10293000EF9008950F931F93CF93DF9394E0899FB7
:10294000E00111248E0102531D4FFE01E652FD4F9E
:10295000DE01AA51BD4F2D913D914D915C91608159
:102960007181828193810E9475AAF80160837183CD
:1029700082839383FE01EC55F64F85919591A59145
:10298000B491FE01EE53FD4F80839183A283B38304
:10299000FE01E856F64F85919591A591B491C55FDA
:1029A000DE4F88839983AA83BB83DF91CF911F91E8
:1029B0000F910895CF92DF92EF920F931F93CF93D1
:1029C000DF93CDB7DEB760970FB6F894DEBF0FBECA
:1029D000CDBFE090BF02EBE9F4E080859185A28550
:1029E000B38544815581668177810081118122817F
:1029F00033810D871E872F87388B49875A876B87CE
:102A00007C878D839E83AF83B88719821A821B824D
:102A10001C82AE014B5F5F4FBE01675F7F4FCE01EF
:102A20000D960E944263CE0101966C0109E111E00E
:102A300027EA34E0AE014B5F5F4FBE01675F7F4F17
:102A40000C960E94C27060960FB6F894DEBF0FBE5F
:102A5000CDBFDF91CF911F910F91EF90DF90CF907D
:102A600008958F929F92AF92BF92CF92DF92EF9292
:102A70000F931F93CF93DF93CDB7DEB760970FB659
:102A8000F894DEBF0FBECDBF8C01E090BF02EBE833
:102A9000F4E080859185A285B38544815581668166
:102AA000778180809180A280B3808D869E86AF865C
:102AB000B88A49875A876B877C878D839E83AF83CB
:102AC000B88719821A821B821C82AE014B5F5F4F4E
:102AD000BE01675F7F4FCE010D960E944263CE011B
:102AE00001966C0127E934E0AE014B5F5F4FBE01F8
:102AF000675F7F4F0C960E94C27060960FB6F89485
:102B0000DEBF0FBECDBFDF91CF911F910F91EF9030
:102B1000DF90CF90BF90AF909F908F9008953F929D
:102B20004F925F926F927F928F929F92AF92BF92DD
:102B3000CF92DF92EF92FF920F931F93CF93DF9389
:102B4000CDB7DEB72A970FB6F894DEBF0FBECDBF64
:102B50002B013C012D833E834F8358874701580149
:102B6000DA86C9868091190190911A01A0911B0102
:102B7000B0911C0189839A83AB83BC83D601EC900E
:102B80001196FC90119712960C91129713961C9126
:102B900020E030E0A901B701C8010E944EAB8111CD
:102BA00008C0E8EBF9E085919591A591B4917C017D
:102BB0008D01A50194016091A3047091A4048091FA
:102BC000A5049091A6040E944EAB87FF13C0C701D5
:102BD000D8018093190190931A01A0931B01B0931F
:102BE0001C018092A3049092A404A092A504B09228
:102BF000A604E0DEE985FA85D080C1803280F381C9
:102C0000F98720E030E0A9016D2D7C2D832D9F2FC9
:102C10000E944EAB811109C0D0900101C090020109
:102C2000309003018091040189878D2D9C2DA32D67
:102C3000B9858093190190931A01A0931B01B09359
:102C40001C0140929B0450929C0460929D047092DF
:102C50009E048D819E81AF81B88580939F0490935F
:102C6000A004A093A104B093A204A4DE2091A30425
:102C70003091A4044091A5045091A604C501B4016B
:102C80000E944EAB87FF13C0C701D8018093190182
:102C900090931A01A0931B01B0931C018092A3048E
:102CA0009092A404A092A504B092A60483DE0E9490
:102CB000C66489819A81AB81BC818093190190930C
:102CC0001A01A0931B01B0931C012A960FB6F89429
:102CD000DEBF0FBECDBFDF91CF911F910F91FF904F
:102CE000EF90DF90CF90BF90AF909F908F907F90AC
:102CF0006F905F904F903F900895CF92DF92EF9248
:102D0000FF920F931F936B01FC01E080F180028121
:102D10001381EBE9F4E0248135814681578160819C
:102D2000718182819381FBDE1F910F91FF90EF9063
:102D3000DF90CF900895CF92DF92EF92FF920F93A2
:102D40001F936A01E090A304F090A4040091A504ED
:102D50001091A604FB012081318142815381FC0145
:102D60006081718182819381DADE1F910F91FF90E2
:102D7000EF90DF90CF9008958091190190911A0102
:102D8000A0911B01B0911C018093F8029093F9026D
:102D9000A093FA02B093FB02809117019091180161
:102DA0009093F7028093F60284E690E090931801E6
:102DB0008093170108958091F8029091F902A091F3
:102DC000FA02B091FB028093190190931A01A0932B
:102DD0001B01B0931C018091F6029091F702909331
:102DE0001801809317010895FF920F931F93CF93BB
:102DF000DF93882329F0D0918A04D095D17001C047
:102E0000D0E0662341F080918A048695817091E03C
:102E1000F82EF92601C0F12C442341F0C0918A0418
:102E2000C2FB882780F9C1E0C82701C0C0E0D111EA
:102E300002C0FF2019F0E0E1F1E107C0C111FBCFB2
:102E400052C08CE69EE03AD9F80164918F010F5F81
:102E50001F4F6111F6CFEFE9F3E064918F010F5F2F
:102E60001F4F662329F08CE69EE028D9F801F5CFA4
:102E7000DD2369F0EDE9F3E064918F010F5F1F4FEF
:102E8000662329F08CE69EE019D9F801F5CFFF20E2
:102E900069F0EBE9F3E064918F010F5F1F4F662348
:102EA00029F08CE69EE00AD9F801F5CFCC2319F081
:102EB000E9E9F3E003C0E1E9F3E00AC06491EF015E
:102EC00021966623C1F38CE69EE0F8D8FE01F6CF8A
:102ED0006491EF012196662329F08CE69EE0EED8FE
:102EE000FE01F6CFC1E08C2FDF91CF911F910F91A2
:102EF000FF900895BF92CF92DF92EF92FF920F93CF
:102F00001F93CF93DF93CDB7DEB728970FB6F89412
:102F1000DEBF0FBECDBF9091B704981709F47AC0F9
:102F2000B82E882309F453C080E090E0A0E8B0E414
:102F30008D839E83AF83B887C090AE02D090AF02DE
:102F4000E090B002F090B10220E030E0A901C701AA
:102F5000B6010E944EAB87FF0CC0A701960160E04E
:102F600070E080E890E40E9474AA6D837E838F8372
:102F7000988720E030E048E153E46D817E818F81C5
:102F800098850E9451AD181644F480E090E0A8E1C5
:102F9000B3E48D839E83AF83B8872D813E814F81BB
:102FA00058856091A3047091A4048091A504909128
:102FB000A6040E944EAB87FF0AC019821A821B82A8
:102FC0001C82BE016F5F7F4FCE01059696DE609139
:102FD0009B0470919C0480919D0490919E0420918B
:102FE0009F043091A0044091A1045091A204198241
:102FF0001A821B821C82E090A304F090A40400912A
:10300000A5041091A604FE0131966F0188DD8B2D79
:103010000E943D5780E028960FB6F894DEBF0FBEA1
:10302000CDBFDF91CF911F910F91FF90EF90DF9077
:10303000CF90BF9008954F925F926F927F928F9240
:103040009F92AF92BF92CF92DF92EF92FF920F9337
:103050001F93CF93C82FE82EF12CF701EF58F64FAE
:10306000B490823021F481E045DF811110C1670105
:10307000CC0CDD1CCC0CDD1CF601E058F64F459065
:103080005590659074906B2DBB0C770B880B990B4A
:103090000E94F0AB4B015C0120E030E040EC5FE3CC
:1030A000C301B2010E948CADA50194010E948CADB8
:1030B000AB01BC0100E010E098018C2F59DAC2305E
:1030C00061F0F601EC58F64F85919591A591B49178
:1030D000E82F792F6A2F8B2F04C0E0E070E060E4C6
:1030E00080E42E2F372F462F582FC501B4010E94A0
:1030F0008CAD4B015C0120E030E0A9010E944EAB99
:10310000882309F45DC0C23021F000E010E098018E
:1031100004C000E010E020E830E4B501A4017058DC
:103120008C2F26DAC23009F43AC0F701E359F74F81
:10313000649161111FC0E0E1F1E164917F018FEFC3
:10314000E81AF80A662331F08CE69EE00E945E10D1
:10315000F701F3CFEBE4F8E064917F018FEFE81A19
:10316000F80A662331F08CE69EE00E945E10F701BB
:10317000F3CF6AE0F601E055F64F45905590659023
:10318000749070E080E090E00E94F0AB9B01AC0195
:10319000C301B2010E9455AB2B013C0105C0412C7B
:1031A000512C612C90E4792EA5019401C501B40144
:1031B0000E9475AAAB01BC01930182018C2FD8D962
:1031C00081E090E00C2E01C0880F0A94EAF79091FC
:1031D0008904982B9093890490918A04892B809379
:1031E0008A04F601EA51FD4F108211821282138285
:1031F0008C2FA0DBF601E457F64F85919591A591B0
:10320000B491F601E556FB4F80839183A283B3838B
:10321000C230D1F42091AE023091AF024091B002A1
:103220005091B1026091A3047091A4048091A5040F
:103230009091A6040E9474AA6093A3047093A404BE
:103240008093A5049093A6044CD9F601E557FB4F53
:10325000D601A556BB4F8D919D910D90BC91A02D8F
:1032600080839183A283B383C23089F480E0CF91BD
:103270001F910F91FF90EF90DF90CF90BF90AF9094
:103280009F908F907F906F905F904F9033CECF91B3
:103290001F910F91FF90EF90DF90CF90BF90AF9074
:1032A0009F908F907F906F905F904F9008959F9226
:1032B000AF92BF92CF92DF92EF92FF920F931F9344
:1032C000CF93DF938FEFA82E81E0B82E0BE814E0A8
:1032D000CBE9D4E09EECC92E92E0D92E22EFE22E6B
:1032E00022E0F22E912CF50181915F012AD88823EA
:1032F00001F180D8F7012081211104C02091BE0284
:10330000222339F0288139814A815B810E9475AA84
:103310000AC0F3E09F1639F0F60120813181428125
:1033200053810E9474AAF80160837183828393831E
:1033300009C088819981AA81BB81F801808391832A
:10334000A283B38393940C5F1F4F2496F4E0CF0EB7
:10335000D11C2FEFE21AF20A84E09812C4CF86E45F
:103360003DD88823B9F046D820E030E0A9010E947A
:1033700051AD18167CF43ED820E030E040E752E42E
:103380000E9455AB6093190170931A0180931B0141
:1033900090931C01DF91CF911F910F91FF90EF90BF
:1033A000DF90CF90BF90AF909F900895CF92DF9223
:1033B000EF92FF920F931F93CF93DF930FB6F89482
:1033C000C090610ED090620EE090630EF090640E9B
:1033D0000FBE8091BD02811174C0809100018823CD
:1033E00009F46FC080919D02882309F46AC040915E
:1033F000990250919A0260919B0270919C029701F0
:103400008601041B150B260B370B37FD6DC083306F
:1034100031F134F481300CF454C0E0E1F1E106C044
:10342000843009F04EC0E0E1F1E133C06491EF0176
:103430002196662331F08CE69EE00E945E10FE012C
:10344000F5CFEDE5F3E06491EF012196662309F4F1
:1034500038C08CE69EE00E945E10FE01F4CFE0E1F1
:10346000F1E16491EF012196662331F08CE69EE054
:103470000E945E10FE01F5CFE6E4F3E06491EF01F7
:1034800021966623F1F08CE69EE00E945E10FE011C
:10349000F5CF6491EF012196662331F08CE69EE032
:1034A0000E945E10FE01F5CFEEE2F3E06491EF01C1
:1034B0002196662331F08CE69EE00E945E10FE01AC
:1034C000F5CF2091000130E0A8EEB3E00E945BAAA6
:1034D000C60ED71EE81EF91EC0929902D0929A021B
:1034E000E0929B02F0929C02DF91CF911F910F918D
:1034F000FF90EF90DF90CF9008950F931F93CF939D
:10350000DF9300D000D0CDB7DEB7809189048370FF
:103510008330E9F0E0E1F1E164918F010F5F1F4F2B
:10352000662331F08CE69EE00E945E10F801F4CF35
:10353000E6E2F8E064918F010F5F1F4F662309F404
:103540003EC08CE69EE00E945E10F801F3CF0E9420
:10355000711280E090E0A8E9B2E480938F04909328
:103560009004A0939104B09392048091A30490914D
:10357000A404A091A504B091A60480939304909311
:103580009404A0939504B093960480E090E0A0E6A4
:10359000B2E480938B0490938C04A0938D04B09339
:1035A0008E0419821A821B821C82AE014F5F5F4F0C
:1035B0006FE874E08BE894E0BEDB82E03CDD0F90C6
:1035C0000F900F900F90DF91CF911F910F91089561
:1035D0000F931F93CF93DF93CDB7DEB769970FB6E5
:1035E000F894DEBF0FBECDBF0E94AF836E8B7F8B82
:1035F000888F998FBE016F5F7F4FCE0146960E94E4
:10360000C510E0E1F1E164918F010F5F1F4F662368
:1036100031F08CE69EE00E945E10F801F4CFBE010E
:103620006F5F7F4F84E897E00E9466746AE08CE6E3
:103630009EE00E945E1069960FB6F894DEBF0FBE42
:10364000CDBFDF91CF911F910F910895CF93DF935D
:10365000E6E1F1E16491EF012196662331F08CE619
:103660009EE00E945E10FE01F5CFE5E7F7E0649171
:10367000EF012196662331F08CE69EE00E945E10F9
:10368000FE01F5CFDF91CF9108950F931F93CF9354
:1036900083E50E94EE11882309F440C00E94511274
:1036A000082F80E50E94EE118823C1F10E9451127B
:1036B000C82F87FD33C089E40E94EE11882339F0BA
:1036C0000E946212811112C0EAEDF2E00BC089E49F
:1036D0000E94A11181110AC0F7CF319683E0E73033
:1036E000F80721F08491C813F8CF14C08C2F0E94E2
:1036F000E0A2EC2FF0E0002E0E9485A310E0B801BC
:103700008C2F0E94F1A2C03149F41093C1020093A2
:10371000C00204C0CF911F910F9198CFCF911F91FC
:103720000F91089588E690E0C0D8811122C0809161
:10373000AB0483FD1EC083E50E94EE118823B9F01F
:103740000E94FA110E94BDAB70939A0D6093990D7F
:1037500080E00E9454890E94FA1120E030E04AEA99
:1037600052E40E944EAB181614F00E9458830C9439
:10377000B3730895CF92DF92EF92FF9283E50E9498
:10378000EE11882321F10E9451128D3308F08CE351
:1037900080930F0D0FB6F894C090610ED090620E1A
:1037A000E090630EF090640E0FBE282F30E0A8EE7C
:1037B000B3E00E945BAAC60ED71EE81EF91EC09297
:1037C0000B0DD0920C0DE0920D0DF0920E0DFF90AE
:1037D000EF90DF90CF90089580E50E94EE11811167
:1037E00006C083E50E94EE11882359F005C00E94AF
:1037F000511281110CC0F5CF0E9431126F3F71053B
:1038000010F06FEF70E07093C1026093C0020895F2
:10381000DF92EF92FF920F931F93CF93DF9383E595
:103820000E94A111882359F083E50E94EE1188239C
:1038300019F00E94511201C080E08093AB04E0E1D6
:10384000F1E16491EF012196662331F08CE69EE070
:103850000E945E10FE01F5CFEAE2F7E06491EF010D
:103860002196662331F08CE69EE00E945E10FE01F8
:10387000F5CF8091AB048823A9F181E3E82E87E09E
:10388000F82E00E010E020E08091AB0490E0002EE4
:1038900002C0959587950A94E2F780FF1AC0DD244F
:1038A000D394D20E222329F06CE28CE69EE00E9493
:1038B0005E10F70185919491FC016491EF012196CE
:1038C000662331F08CE69EE00E945E10FE01F5CF8B
:1038D0002D2D0F5F1F4F82E0E80EF11C0530110502
:1038E00099F60DC0E6E2F7E06491EF0121966623B8
:1038F00031F08CE69EE00E945E10FE01F5CF6AE09A
:103900008CE69EE0DF91CF911F910F91FF90EF9099
:10391000DF900C945E10CF93DF9383E50E94EE114D
:10392000882351F00E9451128D3308F08CE380936C
:103930000001DF91CF910895E0E1F1E16491EF01A1
:103940002196662331F08CE69EE00E945E10FE0117
:10395000F5CF4091000150E060E070E08FE197E02A
:103960000E9445746AE08CE69EE0DF91CF910C9452
:103970005E104F925F926F927F92AF92BF92CF9202
:10398000DF92EF92FF920F931F93CF938FEFA82EAA
:1039900081E0B82E03EA15E0C0E0F50181915F01F6
:1039A0000E94A111882309F46DC0C33009F063C0DF
:1039B0000E94FA116B017C0120E030E040EA51E402
:1039C0000E944EAB87FF4EC0A70196016091AF05E4
:1039D0007091B0058091B1059091B2050E9455ABF0
:1039E0002B013C019B01AC0160917B0570917C0532
:1039F00080917D0590917E050E948CAD60937B0542
:103A000070937C0580937D0590937E05A3019201C0
:103A10006091BF057091C0058091C1059091C2056C
:103A20000E948CAD6093BF057093C0058093C10563
:103A30009093C2056091D3057091D4058091D5050E
:103A40009091D6050E94EEABA30192010E948CAD2D
:103A50000E94C2AB6093D3057093D4058093D505C3
:103A60009093D605C092AF05D092B005E092B10513
:103A7000F092B20507C00E94FA11F80160837183C9
:103A800082839383CF5F0C5F1F4FC43009F085CFD3
:103A9000CF911F910F91FF90EF90DF90CF90BF904B
:103AA000AF907F906F905F904F900C948F730F93B7
:103AB0001F93CF93DF93CBE9D4E00EEC12E0F80133
:103AC0002081318142815381688179818A819B8102
:103AD0000E9475AAAB01BC0185E293E00E942474A8
:103AE000F80124813581468157816C817D818E81E9
:103AF0009F810E9475AAAB01BC0181E293E00E9404
:103B00002474F8012085318542855385688579853F
:103B10008A859B850E9475AAAB01BC018DE193E06B
:103B20000E9424744C855D856E857F8589E193E0D4
:103B30000E942474DF91CF911F910F910C94718199
:103B40002F923F924F925F926F927F928F929F92AD
:103B5000AF92BF92CF92DF92EF92FF920F931F939B
:103B6000CF93DF938FEF882E81E0982EC6EED2E0C0
:103B70009BE9A92E94E0B92E0EEC12E0312C212CF9
:103B8000F40181914F010E94EE11882309F44AC08B
:103B90000E94FA116B017C01F3E03F1649F0F80135
:103BA00020813181428153810E9474AA6B017C0182
:103BB000F5012081318142815381C701B6010E9404
:103BC00074AA2B013C012DEB37E346E855EB0E942C
:103BD00051AD87FD0AC02DEB37E346E855E3C3013D
:103BE000B2010E944EAB1816ECF4F3E03F120BC08A
:103BF000C092A704D092A804E092A904F092AA046B
:103C0000222423940FC0A3019201688179818A81C3
:103C10009B810E9475AA688379838A839B83832D05
:103C20000E949A143394249684E0A80EB11C0C5F71
:103C30001F4FE4E03E12A4CF21100E947C13DF91BD
:103C4000CF911F910F91FF90EF90DF90CF90BF9099
:103C5000AF909F908F907F906F905F904F903F902C
:103C60002F9025CFCF93DF93EDE4F6E06491EF0141
:103C70002196662331F08CE69EE00E945E10FE01E4
:103C8000F5CF60E08DE396E00E94741061E086E37A
:103C900096E00E94741061E08BE296E00E9474103E
:103CA00061E08BE196E00E94741060E082E196E0B2
:103CB0000E94741061E088E096E00E94741061E058
:103CC0008EEF95E00E94741061E086EF95E00E940F
:103CD000741061E088EE95E00E94741060E08AED57
:103CE00095E00E94741060E08BEC95E00E947410E7
:103CF00060E08DEB95E00E94741060E087EA95E04B
:103D00000E94741060E086E995E00E94741060E003
:103D100081E895E00E94741061E08EE695E0DF9105
:103D2000CF910C947410EF92FF920F931F93CF9347
:103D3000DF9300D000D01F92CDB7DEB780E50E94A0
:103D4000A111882351F08091F5049091F604892BFC
:103D500051F00E945112182F07C08EEB94E00E9480
:103D600008A0182F01C01FEF87E50E94A11188232A
:103D700051F08091F5049091F604892B31F00E9466
:103D80005112082F03C000E001C00FEF82E40E942F
:103D9000A111882351F08091F5049091F604892BAC
:103DA00031F00E945112F82E04C0F12C02C0FF2401
:103DB000FA9485E50E94A111882351F08091F504C1
:103DC0009091F604892B31F00E945112E82E04C024
:103DD000E12C02C0EE24EA9482E50E94A11188231E
:103DE00049F08091F5049091F604892B29F00E9406
:103DF000511203C080E001C08FEF8983EA82FB8209
:103E00000C831D8360E0CE0101960E944F580F90F5
:103E10000F900F900F900F90DF91CF911F910F9106
:103E2000FF90EF900895CF92DF92EF92FF92CF93A1
:103E300088EC90E00E94551481114EC084E40E94E9
:103E4000A111882309F441C00E94FA116B017C0181
:103E5000C1E020E030E0A9010E944EAB811101C019
:103E6000C0E0C093FB0420E030E0A901C701B60127
:103E70000E944EAB882349F10E94FA11E091B202F0
:103E800024E0E29FF0011124E559FA4F6083718329
:103E90008283938320E030E0A90160916B057091EB
:103EA0006C0580916D0590916E050E944EAB81115D
:103EB0000CC080E090E0A0EEBFE380936B05909390
:103EC0006C05A0936D05B0936E05CF91FF90EF90B8
:103ED000DF90CF900C94DD62CF91FF90EF90DF9058
:103EE000CF900895CF9383E50E94EE118823A1F02F
:103EF0000E94FA1160938B0570938C0580938D0559
:103F000090938E0560938305709384058093850557
:103F100090938605C0E001C0C1E080E50E94EE11EB
:103F2000882359F00E94FA1160938B0570938C05D9
:103F300080938D0590938E05C0E082E50E94EE117E
:103F4000882359F00E94FA116093870570938805C1
:103F50008093890590938A05C0E084E50E94EE1164
:103F6000882359F00E94FA116093830570938405A9
:103F700080938505909386052CC0CC2351F1409108
:103F80008B0550918C0560918D0570918E058AE5A9
:103F900095E00E94247440918705509188056091B6
:103FA000890570918A0587E595E00E942474409107
:103FB000830550918405609185057091860584E59F
:103FC00095E00E9424746AE08CE69EE0CF910C9408
:103FD0005E10CF91089581E50E94A111882351F0D0
:103FE0000E9441126093C3057093C4058093C50578
:103FF0009093C60583E50E94A111882351F00E9489
:10400000FA1160938F0570939005809391059093BA
:10401000920584E50E94A111882351F00E94FA11B3
:1040200060937F057093800580938105909382054E
:1040300088E50E94A111882351F00E94FA11609333
:104040006F0570937005809371059093720589E5F3
:104050000E94A111882351F00E94FA116093730508
:104060007093740580937505909376058AE50E9498
:10407000A111882351F00E94FA1160937705709383
:1040800078058093790590937A0585E40E94A111C3
:10409000882351F00E94FA1160937B0570937C0590
:1040A00080937D0590937E050895CF93DF93E0E1A3
:1040B000F1E16491EF012196662331F08CE69EE0F8
:1040C0000E945E10FE01F5CF83E50E94A1118823B6
:1040D00021F00E94621280930A01E4E4F5E0649109
:1040E000EF012196662331F08CE69EE00E945E107F
:1040F000FE01F5CF80910A01811103C0ECE3F5E0E8
:1041000002C0E0E4F5E06491EF012196662331F00E
:104110008CE69EE00E945E10FE01F5CFE4E3F5E040
:104120006491EF012196662331F08CE69EE00E94B7
:104130005E10FE01F5CF2091CE023091CF0240916A
:10414000D0025091D1026091C2027091C30280915D
:10415000C4029091C5020E9475AAAB01BC0182E322
:1041600095E00E9424742091D2023091D3024091B4
:10417000D4025091D5026091C6027091C70280911D
:10418000C8029091C9020E9475AAAB01BC018FE2DE
:1041900095E00E9424742091D6023091D70240917C
:1041A000D8025091D9026091CA027091CB028091DD
:1041B000CC029091CD020E9475AAAB01BC018CE2A9
:1041C00095E00E942474E4E2F5E06491EF01219609
:1041D000662331F08CE69EE00E945E10FE01F5CF72
:1041E0002091CE023091CF024091D0025091D10265
:1041F00060910B0170910C0180910D0190910E0165
:104200000E9475AAAB01BC0182E295E00E94247471
:104210002091D2023091D3024091D4025091D50224
:1042200060910F0170911001809111019091120124
:104230000E9475AAAB01BC018FE195E00E94247435
:104240002091D6023091D7024091D8025091D902E4
:1042500060911301709114018091150190911601E4
:104260000E9475AAAB01BC018CE195E00E94247408
:104270006AE08CE69EE0DF91CF910C945E100F9384
:104280001F93CF93DF938DED90E00E945514811121
:1042900070C083E50E94EE118823B9F1C091B2028B
:1042A000D0E00E943112CC0FDD1FC25DDE4F79835A
:1042B00068838091B20290E0EC01CC0FDD1FCC0F3F
:1042C000DD1F8E01065D1E4F880F991FFC01E25D08
:1042D000FE4F60817181072E000C880B990B0E94A4
:1042E000F0AB2AE037ED43E25CE30E948CADC959A4
:1042F000DA4F288139814A815B810E948CADF801B7
:10430000608371838283938334C0E0E1F1E164913F
:10431000EF012196662331F08CE69EE00E945E104C
:10432000FE01F5CF65E48CE69EE00E945E10609190
:10433000B202605D8CE69EE00E945E10E091B202E7
:10434000F0E0EE0FFF1FE25DFE4F6081718184E1BE
:1043500095E00E94E77365E28CE69EE00E945E10A5
:104360006AE08CE69EE0DF91CF911F910F910C9453
:104370005E10DF91CF911F910F910895CF92DF9240
:10438000EF92FF92CF93DF938AE50E94EE118111A5
:1043900006C083E50E94EE11882309F481C00E94C3
:1043A000FA1120E030E040E050EC0E944EAB87FD77
:1043B00015C00E94FA1120E030E040E050E40E9475
:1043C00051AD18162CF00E94FA116B017C010BC044
:1043D000C12CD12CE12C90E4F92E05C0C12CD12C9C
:1043E000E12C80ECF82E8091890482FF18C0C091E6
:1043F000540DD091550D2091AB053091AC054091F5
:10440000AD055091AE05C701B6010E948CAD0E946A
:10441000BDABC60FD71FD093550DC093540D80E58B
:104420000E94A111882321F00E9462128823C1F109
:10443000A70196016091AE027091AF028091B00227
:104440009091B1020E9475AA6093AE027093AF0280
:104450008093B0029093B102E0E1F1E16491EF0149
:104460002196662331F08CE69EE00E945E10FE01EC
:10447000F5CF4091AE025091AF026091B0027091C1
:10448000B10283E095E00E9424746AE08CE69EE02D
:10449000DF91CF91FF90EF90DF90CF900C945E1062
:1044A000DF91CF91FF90EF90DF90CF900895CF9361
:1044B000DF9385E40E94EE11811110C080E50E9417
:1044C000A111882391F00E94FA1160935E0D709300
:1044D0005F0D8093600D9093610D07C00E94511293
:1044E000882361F3E6E1F1E172C089E40E94A11141
:1044F000882381F00E94FA112CEA35EC47E25EE352
:104500000E948CAD60935A0D70935B0D80935C0D8F
:1045100090935D0D84E40E94A111882381F00E9494
:10452000FA112CEA35EC47E25EE30E9455AB60934A
:10453000560D7093570D8093580D9093590DE0E1EF
:10454000F1E16491EF012196662331F08CE69EE063
:104550000E945E10FE01F5CF40915E0D50915F0DFF
:104560006091600D7091610D8FEF94E00E94247452
:104570002CEA35EC47E25EE360915A0D70915B0DD9
:1045800080915C0D90915D0D0E9455ABAB01BC011B
:104590008BEF94E00E9424742CEA35EC47E25EE352
:1045A0006091560D7091570D8091580D9091590D55
:1045B0000E948CADAB01BC0187EF94E00E94247493
:1045C0006AE08CE69EE0DF91CF910C945E106491DE
:1045D000EF012196662331F08CE69EE00E945E108A
:1045E000FE01F5CFE5EEF4E06491EF01219666233C
:1045F00031F08CE69EE00E945E10FE01F5CFDF9167
:10460000CF910895CF93DF9380E50E94A111882375
:1046100051F00E94FA116093840D7093850D809380
:10462000860D9093870D89E40E94A111882381F063
:104630000E94FA112CEA35EC47E25EE30E948CAD51
:104640006093800D7093810D8093820D9093830D04
:1046500084E40E94A111882381F00E94FA112CEABF
:1046600035EC47E25EE30E9455AB60937C0D70939E
:104670007D0D80937E0D90937F0DE0E1F1E16491DB
:10468000EF012196662331F08CE69EE00E945E10D9
:10469000FE01F5CF4091840D5091850D6091860DFE
:1046A0007091870D81EE94E00E9424742CEA35EC21
:1046B00047E25EE36091800D7091810D8091820DE3
:1046C0009091830D0E9455ABAB01BC018DED94E040
:1046D0000E9424742CEA35EC47E25EE360917C0D85
:1046E00070917D0D80917E0D90917F0D0E948CAD1B
:1046F000AB01BC0189ED94E00E9424746AE08CE671
:104700009EE0DF91CF910C945E10CF93DF9383E511
:104710000E94A111C82F882371F00E94FA110E94F3
:10472000BDAB70934D0160934C0121E0672B09F004
:1047300020E02093490D80E50E94A111882359F0C3
:1047400020914C0130914D01232B11F00E946212F7
:104750008093490D31C0C1112FC0E0E1F1E16491B6
:10476000EF012196662331F08CE69EE00E945E10F8
:10477000FE01F5CF8091490D811103C064EE71E017
:1047800002C061EE71E086EC94E00E946674609174
:104790004C0170914D0185EB94E00E94E773E1EBD1
:1047A000F4E06491EF012196662331F08CE69EE0FF
:1047B0000E945E10FE01F5CFDF91CF9108958F9298
:1047C0009F92AF92BF92EF92FF920F931F93CF935E
:1047D000DF9300D000D0CDB7DEB785E40E94EE11A4
:1047E000882321F00E9431128B0102C000E010E00A
:1047F00083E40E94EE11882321F00E943112F62EEC
:1048000002C025E0F22E85E50E94EE11882321F0FA
:104810000E946212E82E04C085E50E94A111E82ED4
:1048200017FD07C0812C912C96E1A92E93E4B92E97
:1048300006C0812C912C8CE8A82E82E4B82E83E54A
:104840000E94EE11882321F00E94FA114B015C01B5
:10485000C501B4010E94BDAB0115110511F4109200
:10486000B202072E000C880B990B0E94F0AB6983F3
:104870007A838B839C832E2D4F2D602FCE01019642
:104880000E94518F0F900F900F900F90DF91CF915A
:104890001F910F91FF90EF90BF90AF909F908F90DE
:1048A00008952F923F924F925F926F927F928F92D4
:1048B0009F92AF92BF92CF92DF92EF92FF920F93AF
:1048C0001F93CF93DF93CDB7DEB72E970FB6F89433
:1048D000DEBF0FBECDBF41E061E081E00E94F41673
:1048E0008111B9C00CE819E08BE994E09E878D87AF
:1048F000FE0131965F0191E7892E99E0992E1F0103
:10490000F8016591759185919491ED85FE85C19031
:10491000D190E190F190FE87ED87A70196010E946A
:1049200074AA2B013C01F10160837183828393831C
:1049300020E030E040EA51EC0E9451AD87FD0AC012
:1049400020E030E040EA51E4C301B2010E944EABE6
:1049500018162CF4F401849118160CF472C0F101AD
:10496000C190D190E190F1901F0120E030E040EA49
:1049700051ECC701B6010E9451AD87FD0AC020E08D
:1049800030E040EA51E4C701B6010E944EAB181670
:10499000F4F4E6E1F1E164918F010F5F1F4F6111C3
:1049A00003C0E9E4F4E006C08CE69EE00E945E10DD
:1049B000F801F1CF64918F010F5F1F4F662309F457
:1049C0004AC08CE69EE00E945E10F801F3CF0C5FB7
:1049D0001F4FFFEF8F1A9F0A89E00839180709F067
:1049E0008FCF8AEDE82E82E0F82E10E0F50181915C
:1049F0009191A191B1915F01F70181939193A1935D
:104A0000B1937F01812F0E949A141F5F133071F7B9
:104A10002E960FB6F894DEBF0FBECDBFDF91CF91BB
:104A20001F910F91FF90EF90DF90CF90BF90AF90CC
:104A30009F908F907F906F905F904F903F902F90BE
:104A400036C8F7FAF094F7F8F094F101C082D182F9
:104A5000E282F38284CF2E960FB6F894DEBF0FBEAB
:104A6000CDBFDF91CF911F910F91FF90EF90DF901D
:104A7000CF90BF90AF909F908F907F906F905F90FE
:104A80004F903F902F900895CF93DF930E949955B8
:104A90008823D1F0E0E1F1E16491EF0121966623F2
:104AA00031F08CE69EE00E945E10FE01F5CFEEE351
:104AB000F4E06491EF012196662331F08CE69EE0EC
:104AC0000E945E10FE01F5CFDF91CF910895CF9245
:104AD000DF92EF92FF92CF93DF938AE50E94EE116F
:104AE000811103C0E0E1F1E13EC00E94FA116B01C7
:104AF0007C0120E030E040E050EC0E9451AD87FDA9
:104B00000AC020E030E040EA51E4C701B6010E944B
:104B10004EAB18161CF4E6E1F1E10EC0C092AE02F5
:104B2000D092AF02E092B002F092B10245C08CE6A2
:104B30009EE00E945E10FE016491EF0121966111DA
:104B4000F6CFE2E2F4E06491EF0121966623A1F151
:104B50008CE69EE00E945E10FE01F5CF8CE69EE0A2
:104B60000E945E10FE016491EF0121966111F6CF63
:104B7000E3E1F4E06491EF012196662331F08CE6E5
:104B80009EE00E945E10FE01F5CF4091AE02509172
:104B9000AF026091B0027091B10280E194E00E9496
:104BA00024746AE08CE69EE0DF91CF91FF90EF9055
:104BB000DF90CF900C945E10DF91CF91FF90EF903B
:104BC000DF90CF900895CF92DF92EF92FF92CF9334
:104BD000DF938BE40E94EE11811103C0E0E1F1E16B
:104BE00036C08BE40E94EE118823C1F00E94FA11B6
:104BF0006B017C0120E030E0A9010E9451AD87FDEE
:104C00000AC020E030E040E251E4C701B6010E9452
:104C10004EAB181634F4E1EFF3E00EC0C12CD12CEA
:104C200076010E94C664C0921405D0921505E092E8
:104C30001605F09217052DC06491EF0121966623A9
:104C400041F18CE69EE00E945E10FE01F5CF64917A
:104C5000EF012196662331F08CE69EE00E945E1003
:104C6000FE01F5CF40911405509115056091160590
:104C70007091170586EE93E00E9424746AE08CE63A
:104C80009EE0DF91CF91FF90EF90DF90CF900C945A
:104C90005E10DF91CF91FF90EF90DF90CF9008955D
:104CA000CF92DF92EF92FF920F931F93CF9383E502
:104CB0000E94A111811104C00FEF11E0C0E00EC0ED
:104CC0000E94FA116B017C01C0E0B701A6018C2F94
:104CD0000E947B82CF5FC530C1F7EECFF801819192
:104CE0008F010E94A111882339F00E94FA11AB01B3
:104CF000BC018C2F0E947B82CF5FC43079F7CF91AB
:104D00001F910F91FF90EF90DF90CF9008951F9328
:104D1000CF93DF93182FE0E1F1E16491EF01219649
:104D2000662331F08CE69EE00E945E10FE01F5CF16
:104D300064E58CE69EE00E945E10412F50E060E04A
:104D400070E020E08CE69EE00E940CA060E28CE621
:104D50009EE00E945E10E5ECF3E06491EF01219685
:104D6000662331F08CE69EE00E945E10FE01F5CFD6
:104D7000DF91CF911F910895CF93DF93E0917F044E
:104D8000F0E0E256FD4F80818823A1F0E7ECF2E0ED
:104D90006491EF012196662331F08CE69EE00E943B
:104DA0005E10FE01F5CF6AE08CE69EE0DF91CF91C8
:104DB0000C945E10DF91CF910895CF92DF92EF9225
:104DC000FF92CF93DF9320910A01222309F485C03B
:104DD000EC01C090C202D090C302E090C402F090F7
:104DE000C502A7019601688179818A819B810E9411
:104DF0004EAB87FF04C0C882D982EA82FB82C09092
:104E0000C602D090C702E090C802F090C902A70184
:104E100096016C817D818E819F810E944EAB87FFC0
:104E200004C0CC82DD82EE82FF82C0900B01D09064
:104E30000C01E0900D01F0900E01A7019601688130
:104E400079818A819B810E9451AD181624F4C88211
:104E5000D982EA82FB82C0900F01D0901001E090CD
:104E60001101F0901201A70196016C817D818E8164
:104E70009F810E9451AD181624F4CC82DD82EE820F
:104E8000FF82C090CA02D090CB02E090CC02F0909A
:104E9000CD02A7019601688579858A859B850E9448
:104EA0004EAB87FF04C0C886D986EA86FB86C090D1
:104EB0001301D0901401E0901501F0901601A701A4
:104EC0009601688579858A859B850E9451AD181663
:104ED00024F4C886D986EA86FB86DF91CF91FF90BD
:104EE000EF90DF90CF900895CF93DF9380E00E9402
:104EF000B064C2EAD2E0688379838A839B8381E0CD
:104F00000E94B0646C837D838E839F8382E00E94C5
:104F1000B064688779878A879B87DF91CF910895EE
:104F2000CF93DF93E1DF6BE58CE69EE00E945E109D
:104F3000C2EAD2E0488159816A817B8122E08CE615
:104F40009EE00E9485A04C815D816E817F818BE215
:104F500093E00E942474488559856A857B8588E2A0
:104F600093E00E9424746DE58CE69EE00E945E1042
:104F70006AE08CE69EE0DF91CF910C945E10CF93B7
:104F8000C82FB2DF82EA92E00E94C863CE3F51F49C
:104F90008CE0E2EAF2E0ABE9B4E001900D928A9590
:104FA000E1F713C024E0C29FC0011124FC01E556C3
:104FB000FB4FDC01AE55BD4F8D919D910D90BC9185
:104FC000A02D80839183A283B383CF910895CF9343
:104FD00090916605981789F0C82F0E94C664C09307
:104FE0006605C11103C08EEFCADF04C08BE994E0EF
:104FF0000E94C863CF910C947112CF91089580E004
:10500000E6DF82E495E00C948E988F929F92AF92A7
:10501000BF92DF92EF92FF920F931F93CF93DF9394
:1050200000D000D0CDB7DEB7182F809189048770EB
:10503000873079F48FE40E94EE11882329F00E94D2
:105040006212811199C005C08FE40E94A1118111E3
:1050500093C00E94C664D090660580E0B8DF0E94CD
:10506000BC1681E00E942A5711111CC088E50E94DD
:10507000A111F82E89E50E94A111082F8AE50E944E
:10508000A111E82EF11007C001110AC0811108C05A
:10509000F02E11E00DC0002319F0F02E182F08C0DB
:1050A00010E006C0FF24F39401E0EE24E39411E045
:1050B00080E1EBE9F4E0ABE8B4E001900D928A9571
:1050C000E1F782E50E94EE11882361F00E94FA1157
:1050D0004B015C0120E030E0A9010E944EAB882327
:1050E00069F105C0812C912C80E4A82EBA2C1111F5
:1050F00004C0F11002C0002391F1809293049092B9
:105100009404A0929504B0929604A5019401609134
:10511000A3047091A4048091A5049091A6040E9418
:105120004EAB87FF0BC019821A821B821C82BE0104
:105130006F5F7F4F83E994E00E947D16111105C0D7
:10514000F11003C0011106C00AC080E00E941B18C4
:105150001123C1F381E00E941B18111101C0E1105D
:105160000E947D1A0E9471120E942D578D2D2FDFF3
:105170000E94DB160E94571D0F900F900F900F900A
:10518000DF91CF911F910F91FF90EF90DF90BF9033
:10519000AF909F908F900895CF93DF93C82F0E9478
:1051A000C664D091660580E012DFCC2321F08C2FFD
:1051B000DF91CF91ACCD1092BF028D2F08DFE0E1DF
:1051C000F1E16491EF012196662331F08CE69EE0D7
:1051D0000E945E10FE01F5CF6091BF0270E087E093
:1051E00093E00E94E7736AE08CE69EE0DF91CF9146
:1051F0000C945E100F931F93CF93DF93CDB7DEB760
:105200002C970FB6F894DEBF0FBECDBF83E50E948A
:10521000A111882341F00E946212182F811105C04C
:1052200080E0D5DE02C01091660580919B049091CC
:105230009C04A0919D04B0919E0489839A83AB83C2
:10524000BC8380919F049091A004A091A104B0918F
:10525000A2048D839E83AF83B8878091A30490912D
:10526000A404A091A504B091A60489879A87AB876E
:10527000BC8786E50E94A111882331F064E974E0BF
:1052800082E495E00E94599A812FA1DE111103C09A
:10529000E0E1F1E120C0809166058111F9CFE6E1FE
:1052A000F1E164918F010F5F1F4F662331F08CE6AF
:1052B0009EE00E945E10F801F4CFE5E7F4E064910F
:1052C0008F010F5F1F4F662319F38CE69EE00E944B
:1052D0005E10F801F4CF64918F010F5F1F4F6623BA
:1052E00031F08CE69EE00E945E10F801F4CF8091D0
:1052F0006605811103C06CEE71E002C068EE71E0DA
:1053000087E694E00E9466746AE08CE69EE00E9464
:105310005E104CE050E06BE974E0CE0101960E9413
:1053200027B2892B61F02C960FB6F894DEBF0FBE22
:10533000CDBFDF91CF911F910F910C94571D2C96EB
:105340000FB6F894DEBF0FBECDBFDF91CF911F9196
:105350000F9108950E9460640E94C6648EEF0FDE74
:105360000C9471122F923F924F925F926F927F92A4
:105370008F929F92AF92BF92CF92DF92EF92FF9265
:105380000F931F93CF93DF93CDB7DEB7A0970FB6E0
:10539000F894DEBF0FBECDBF1C017F8F6E8F498F8B
:1053A00028A3DC018D909D90AD90BC90FB014080C6
:1053B0005180628073800023A1F0A3019201C50196
:1053C000B4010E94E50F882309F4EFC120E030E02A
:1053D00040EA51E4C501B4010E9474AA4B015C018A
:1053E0002AC02FE632E143E85AEBC501B4010E941E
:1053F00051AD87FDDAC122E430E048E153E4C50154
:10540000B4010E944EAB18160CF4CFC122E630E175
:1054100040E050ECC301B2010E9451AD87FDC5C10F
:1054200022E430E048E153E4C301B2010E944EABF4
:1054300018160CF4BAC1E090A304F090A4040091F3
:10544000A5041091A6048091190190911A01A091D0
:105450001B01B0911C018A8F9B8FAC8FBD8F8091F7
:10546000010190910201A0910301B0910401809388
:10547000190190931A01A0931B01B0931C0119828A
:105480001A821B821C82DE0111966D01A30192011A
:10549000C501B4010E948F1581E00E947A17811125
:1054A000E4C08091890482FF11C02091AE02309146
:1054B000AF024091B0025091B10260E070E080E034
:1054C00090EC0E9474AA2B013C0106C0412C512C87
:1054D00090E2692E91EC792E4D865E866F86788AF1
:1054E000C12CD12C80E8E82E80E4F82EC986DA861B
:1054F000EB86FC86BE01675F7F4FCE010D960E9452
:105500007D161091B9041092B90482E038DD0E9432
:10551000711212FD05C060E070E080EC9FE75EC094
:105520008090A3049090A404A090A504B090A60439
:10553000C982DA82EB82FC8220E030E040E450E471
:10554000C501B4010E9475AA6D837E838F839887FD
:10555000BE016F5F7F4FCE0105960E947D164D8282
:105560005E826F82788680E090E0A0E0B0E489837C
:105570009A83AB83BC83BE016F5F7F4FCE010596DC
:105580000E947D161091B9041092B90482E0F7DCF4
:105590000E94711212FFBFCF20E030E040E450E4DF
:1055A0006091A3047091A4048091A5049091A60435
:1055B0000E948CAD6B017C01A5019401C501B40171
:1055C0000E9475AA9B01AC01C701B6010E9475AA91
:1055D0002DEC3CEC4CE45EE30E948CAD2091AE02DD
:1055E0003091AF024091B0025091B1020E9475AA71
:1055F0006B018C01898D8250823050F580E090E003
:10560000A0E8B0E4898B9A8BAB8BBC8B2091A30470
:105610003091A4044091A5045091A604B98DB330F3
:1056200029F060E070E080E490E404C060E070E0A5
:1056300088EC91E40E9475AA6D8B7E8B8F8B988F7E
:10564000BE016F5E7F4FCE0145960E947D1608C059
:10565000E98DE13029F480E00E947A17811105C0BC
:10566000F8A1F33008F46FC008C098A1933008F493
:10567000A1C0C12CD12C00EC1FE7E9E8F3E0649154
:105680007F018FEFE81AF80A662331F08CE69EE07E
:105690000E945E10F701F3CF2091CE023091CF022D
:1056A0004091D0025091D102D1016D917D918D91A7
:1056B0009C910E9475AAAB01BC0123E08CE69EE0A0
:1056C0000E9485A0E4E8F3E064917F01BFEFEB1A4C
:1056D000FB0A662331F08CE69EE00E945E10F70123
:1056E000F3CF2091D2023091D3024091D402509155
:1056F000D502EE8DFF8D60817181828193810E9440
:1057000075AAAB01BC0123E08CE69EE00E9485A057
:10571000EFE7F3E064917F018FEFE81AF80A662360
:1057200031F08CE69EE00E945E10F701F3CF23E09B
:10573000A601B8018CE69EE00E9485A06AE08CE696
:105740009EE00E945E108A8D9B8DAC8DBD8D8093F6
:10575000190190931A01A0931B01B0931C019601AB
:10576000A801B601C8010E943AAE8823A1F1E6E182
:10577000F1E164917F019FEFE91AF90A662331F0A4
:105780008CE69EE00E945E10F701F3CFEFE6F3E0B7
:1057900064917F01AFEFEA1AFA0A6623E1F08CE622
:1057A0009EE00E945E10F701F3CFC12CD12C00ECDB
:1057B0001FE711C08A8D9B8DAC8DBD8D8093190123
:1057C00090931A01A0931B01B0931C01C12CD12C02
:1057D00000EC1FE7CCCFB601C801A0960FB6F89435
:1057E000DEBF0FBECDBFDF91CF911F910F91FF9014
:1057F000EF90DF90CF90BF90AF909F908F907F9071
:105800006F905F904F903F902F9008952F923F920E
:105810004F925F926F927F928F929F92AF92BF92C0
:10582000CF92DF92EF92FF920F931F93CF93DF936C
:10583000CDB7DEB7C558D1090FB6F894DEBF0FBE9D
:10584000CDBF41E061E081E00E94F4168111AEC25B
:1058500080916605882379F08FE40E94EE118823F9
:1058600029F00E9462128111A1C205C08FE40E943A
:10587000A11181119BC2C12CD12C760100E010E056
:1058800020E231E440E050E060EA71E4CE010196AC
:105890000E942B9500E010E020E231E440E050E06F
:1058A0006EE073E4CE010D960E942B9500E010E0AF
:1058B0002EE033E440E050E068E972E4CE0149961E
:1058C0000E942B95F09066058AE40E94A11188231E
:1058D00011F095DB6BC286E50E94EE11882321F062
:1058E0000E9431121B0102C0212C312C25E022160E
:1058F000310480F0EEEFF7E064917F013FEFE31AAF
:10590000F30A662309F452C28CE69EE00E945E1000
:10591000F701F2CF84E40E94EE11882341F00E9447
:105920006212CF57DF4F8883C158D04008C084E44B
:105930000E94A111CF57DF4F8883C158D040211456
:10594000310451F1E8EEF7E064916F014FEFC41AB2
:10595000D40A662331F08CE69EE00E945E10F601C8
:10596000F3CFCF57DF4F5881C158D040552379F03E
:10597000EEEDF7E064916F018FEFC81AD80A662345
:1059800031F08CE69EE00E945E10F601F3CF6AE0F3
:105990008CE69EE00E945E100E94C66480E017DBE9
:1059A00081E00E947A17882319F08F2D10DBFEC149
:1059B0000E94BC1619A21AA21BA21CA21D8A1E8A32
:1059C0001F8A188E19861A861B861C8685E40E94FB
:1059D000EE11882331F00E946212882339F011E021
:1059E00006C085E40E94A1118111F9CF12E0DE0109
:1059F00011966D015E01B5E2AB0EB11CF60180811E
:105A00009181A281B3816D968CAF9DAFAEAFBFAFD8
:105A10006D9784819581A681B78169968CAF9DAF82
:105A2000AEAFBFAF699701E0222D412FBE016B5A87
:105A30007F4FCE01875A9F4F95DC2B013C019B0184
:105A4000AC010E943AAE882319F08F2DC0DAF0C065
:105A5000D60118964D925D926D927C921B97BCE098
:105A6000CB0ED11CAC14BD0449F6CF57DF4F588183
:105A7000C158D0405111DCC0AD84BE84CF84D888D9
:105A8000E988FA880B891C892D893E894F89588DB0
:105A9000BE01675E7F4FCE01C1960E940896AD841D
:105AA000BE84CF84D888E988FA880B891C892D891F
:105AB0003E894F89588DBE016F5F7F4FCE0185961D
:105AC0000E9408968DB79EB70C970FB6F8949EBFAC
:105AD0000FBE8DBFADB7BEB711968CE0FE01F1963B
