:100000000C94C7120C94F1120C94F1120C94F1128E
:100010000C94F1120C94F1120C94F1120C94F11254
:100020000C94F1120C94F1120C9491B40C940EB542
:100030000C94F1120C94F1120C94F1120C94F11234
:100040000C94F1120C94B78C0C94F1120C94F112E4
:100050000C94F1120C94F1120C94E1A40C94F0B3F2
:100060000C94F1120C94F1120C94F1120C94F11204
:100070000C94F1120C94F1120C94F1120C94F112F4
:100080000C94F1120C94F1120C94F1120C94F112E4
:100090000C946FAE0C94F112D522EE22FD22F822C0
:1000A000F322E922DA22DF22E422BA2504262A26D4
:1000B0001D261026F625C625D625E62556B182B181
:1000C000A4B1A4B1A4B1A4B1A4B1A4B1A4B1A4B188
:1000D000A4B1A4B1A4B1A4B19AB192B18AB1A4B1AE
:1000E000A4B1A4B1A4B1A4B1A4B1A4B17CB162B1D2
:1000F0006AB174B1084AD73B3BCE016E84BCBFFDE8
:10010000C12F3D6C74319ABD56833DDA3D00C77FE7
:1001100011BED9E4BB4C3E916BAAAABE0000008080
:100120003F05A84CCDB2D44EB93836A9020C50B90F
:10013000918688083CA6AAAA2ABE000000803F003B
:100140002020506C616E6E65724275666665724203
:10015000797465733A20002046726565204D656D9F
:100160006F72793A2000436F6D70696C65643A2054
:100170004A616E20323820323031390A00207C202A
:10018000417574686F723A205A616B61747461636F
:100190006B730A00323031382D30382D3031002069
:1001A0004C61737420557064617465643A20003149
:1001B0002E312E390A004D61726C696E0020536F2A
:1001C0006674776172652052657365740A00205702
:1001D00061746368646F672052657365740A0020F8
:1001E00042726F776E206F75742052657365740A62
:1001F000002045787465726E616C20526573657479
:100200000A00506F77657255700A007374617274DA
:100210000A005072696E7465722068616C7465645E
:100220002E206B696C6C28292063616C6C656421DD
:100230000A004B494C4C45442E20004B494C4C2065
:1002400063617573656420627920746F6F206D75CA
:10025000636820696E6163746976652074696D6591
:10026000202D2063757272656E7420636F6D6D61F1
:100270006E643A200020746F6F206C6F6E6720658B
:100280007874727573696F6E2070726576656E74BE
:1002900065640A0020636F6C6420657874727573FE
:1002A000696F6E2070726576656E7465640A006FA2
:1002B0006B00526573656E643A2000416476616E2E
:1002C0006365204B3D003F4B2076616C7565206F68
:1002D0007574206F662072616E67652028302D313D
:1002E00030292E0A003A200050726F6265205A2091
:1002F0004F6666736574003F5A206F7574206F6691
:100300002072616E676520282D3520746F20323091
:10031000290A00454550524F4D204F4B0A004D656C
:10032000736820706F696E742063616E6E6F7420E5
:100330006265207265736F6C7665640A004D3432B5
:100340003120696E636F72726563742070617261CF
:100350006D657465722075736167650A004F666626
:100360000A00466164652048656967687420004238
:100370006564204C6576656C696E6720004661692E
:100380006C656420746F20656E61626C65204265E7
:1003900064204C6576656C696E670A004E6F206359
:1003A000617365206C696768740A0020643A0020F4
:1003B000693A0020703A0043290A0061626C656462
:1003C00020286D696E2074656D702000436F6C6429
:1003D00020657874727564657320617265200049C8
:1003E0006E76616C69642065787472756465720AF2
:1003F0000020643A0020693A0020703A0050726F81
:100400006265205A204F66667365743A2000204664
:100410006C6F773A2000205A0020590058002020A5
:100420004D61783A2000205A0020590058002020C1
:100430004D696E3A20004F6666004F6E2000536F84
:10044000667420656E6473746F70733A2000546F25
:100450006F206661722066726F6D207265666572CC
:10046000656E636520706F696E740A005741524E65
:10047000494E4721204C6F77205A204A65726B20E5
:100480006D6179206C65616420746F20756E776191
:100490006E746564207061757365732E0A00205454
:1004A00000205200416363656C65726174696F6E10
:1004B0003A2050002F2F20003A004361703A005438
:1004C0004845524D414C5F50524F54454354494F5B
:1004D0004E004155544F5245504F52545F53445F64
:1004E00053544154555300454D455247454E435989
:1004F0005F50415253455200434153455F4C494779
:1005000048545F4252494748544E45535300544F54
:1005100047474C455F4C494748545300534F465456
:10052000574152455F504F574552004255494C4440
:100530005F50455243454E54004C4556454C494E3C
:10054000475F44415441005A5F50524F4245004179
:1005500055544F4C4556454C005052494E545F4AF5
:100560004F420050524F4752455353004155544F4C
:100570005245504F52545F54454D5000564F4C55C4
:100580004D455452494300454550524F4D00534547
:100590005249414C5F584F4E5F584F4646004649BE
:1005A000524D574152455F4E414D453A4D61726C37
:1005B000696E20312E312E392028476974687562A2
:1005C0002920534F555243455F434F44455F555291
:1005D0004C3A68747470733A2F2F67697468756247
:1005E0002E636F6D2F4D61726C696E4669726D7707
:1005F0006172652F4D61726C696E2050524F544F7D
:10060000434F4C5F56455253494F4E3A312E30209E
:100610004D414348494E455F545950453A507269DF
:100620006E7472626F7420506C757320455854520A
:10063000554445525F434F554E543A312055554924
:10064000443A63656465326132662D343161322D1E
:10065000343734382D396231322D633535633632D3
:100660006633363766660A0020573A0020573A004C
:100670006F6B004D3131332053004B494C4C454496
:100680002E20004543484F00494E464F00455252E8
:100690004F52530044525952554E00434F4D4D5501
:1006A0004E49434154494F4E006F666600830688A9
:1006B000068D0694069B0644454255473A0020693C
:1006C0007320616C736F207469656420746F20748B
:1006D0006869732070696E0054494D45523041007D
:1006E0000A202E00202000496E70757420203D20C5
:1006F000004F7574707574203D200050574D3A209E
:10070000202534640050574D3A2020253464005091
:10071000574D3A20202534640050574D3A2020256B
:1007200034640050574D3A20202534640050574D12
:100730003A20202534640050574D3A202025346457
:100740000050574D3A20202534640050574D3A2030
:10075000202534640020202000202020416E616C80
:100760006F6720696E203D20253564003C756E75ED
:100770007365642F756E6B6E6F776E3E0020284137
:1007800025326429202000257350494E3A20253314
:10079000642000416E616C6F6720696E203D2025EA
:1007A00035640070726F746563746564200020287E
:1007B0004125326429202000257350494E3A2025D6
:1007C00033642000534552564F206E6F742073657A
:1007D0007475700A00446F6E652E0A005761746369
:1007E00068696E672070696E730A0061626C656487
:1007F0000A0064697300656E00656E6473746F70DF
:10080000206D6F6E69746F72200050726F74656333
:100810007465642050696E0A0000011C1D132FFFCF
:10082000FFFFFF1E1F12FF18FFFFFF20211124FFF3
:10083000FFFFFFFFFFFF0E10FFFFFF22230DFFFF53
:10084000FF0E260F2C272569730025696D20256969
:1008500073002569682025696D2025697300256965
:1008600064202569682025696D2025697300256944
:100870007920256964202569682025696D2025690E
:1008800073005072696E742074696D653A20004D72
:1008900065736820706F696E742063616E6E6F742B
:1008A000206265207265736F6C7665640A00205A59
:1008B0003A200020593A200042656420583A20002E
:1008C00042696C696E656172204C6576656C696E13
:1008D0006720477269643A0A004731205A31302054
:1008E00046373030300A47312058302059302046C2
:1008F0003730303000202844525952554E29004795
:100900003239204175746F20426564204C657665EC
:100910006C696E67003F20284C2C522C462C4229D3
:10092000206F7574206F6620626F756E64732E0A77
:10093000003F2856296572626F7365206C65766585
:100940006C20697320696D706C61757369626C6588
:100950002028302D34292E0A00426164205A207646
:10096000616C75650A004E6F2062696C696E656125
:100970007220677269640A0047322F473320626130
:100980006420706172616D65746572730A00496EEE
:1009900076616C69642065787472756465720A00AA
:1009A0004163746976652045787472756465723A3E
:1009B000200020453A00205A3A0020593A00583A7F
:1009C000002020506F72743A20002020206F76653E
:1009D00072666C6F7720696E7465727275707420C0
:1009E000656E61626C656400202020636F6D7061CC
:1009F000726520696E7465727275707420656E61BF
:100A0000626C6564002020206E6F6E2D7374616EC1
:100A1000646172642050574D206D6F6465003A2008
:100A2000002020202054494D534B00423A20002002
:100A30002020205443435200413A2000202020200F
:100A400054434352002020202043533A20002020CA
:100A5000202057474D3A200050574D3A202025344A
:100A6000640050574D3A2020253464002020202077
:100A700054494D455200433A2000423A2000413A41
:100A8000200020202020434F4D002C20002C20004F
:100A9000486F6D652058592066697273740A005753
:100AA00061726E696E673A20486F6D696E672042A9
:100AB000756D702044697669736F72203C20310A2D
:100AC00000020204627573793A207061757365647F
:100AD00020666F7220696E7075740A006275737992
:100AE0003A2070617573656420666F722075736556
:100AF000720A00627573793A2070726F636573735E
:100B0000696E670A0050726F62696E67206661697C
:100B10006C65640A00205A3A200020593A200042AD
:100B2000656420583A20002066697273740A005A7E
:100B30000059005800486F6D65200020496E7661AD
:100B40006C696420657874727564657220004B4925
:100B50004C4C45442E20005072696E7465722073AF
:100B6000746F707065642064756520746F206572A1
:100B7000726F72732E2046697820746865206572E2
:100B8000726F7220616E6420757365204D3939393A
:100B900020746F20726573746172742E20285465FE
:100BA0006D7065726174757265206973207265730A
:100BB00065742E20536574206974206166746572B3
:100BC0002072657374617274696E67290A004E6FD2
:100BD00020436865636B73756D2077697468206C5A
:100BE000696E65206E756D6265722C204C61737440
:100BF000204C696E653A2000636865636B73756DA0
:100C0000206D69736D617463682C204C617374206E
:100C10004C696E653A20004C696E65204E756D62B8
:100C20006572206973206E6F74204C617374204C60
:100C3000696E65204E756D6265722B312C204C619A
:100C40007374204C696E653A20004D313130006577
:100C50006E7175657565696E672022000000480039
:100C6000000088008A008C00B300B40000009800E7
:100C70009A009C00440045006E00800081006F00D7
:100C8000B000B100700090009100710004040404F1
:100C90000404040405050303030303030303050518
:100CA000020202020202020201010101010101012C
:100CB000050506060606060606060505530F280066
:100CC000480F27003D0F2800320F2900250F26006E
:100CD000180F17010B0F1601FF0E1501F40E14016A
:100CE000E40E2C01D90E2301CB0E0D01BF0E220103
:100CF000B40E2501A60E2A019A0E19018F0E0301CA
:100D0000810E2B01750E02016D0E1001600E0F0198
:100D1000530E2C01460E2D01370E0E012E0E17011B
:100D2000250E16011D0E1501180E1401110E1401C9
:100D3000070E1D01FA0D1301F00D2F01E50D1C0129
:100D4000DA0D2F01D00D1F01C30D1201B90D1801CD
:100D5000AE0D1E01A30D1801990D21018C0D11017D
:100D6000820D2401770D20016C0D24015A5F53542C
:100D70004F505F50494E005A5F535445505F5049A1
:100D80004E005A5F4D494E5F50494E005A5F454EE6
:100D900041424C455F50494E005A5F4449525F50B2
:100DA000494E00595F53544F505F50494E00595FB0
:100DB000535445505F50494E00595F4D41585F5064
:100DC000494E00595F454E41424C455F50494E00E7
:100DD000595F4449525F50494E00585F53544F5039
:100DE0005F50494E00585F535445505F50494E0084
:100DF000585F4D494E5F50494E00585F454E414245
:100E00004C455F50494E00585F4449525F50494E2F
:100E10000053535F50494E00534453530053434BC8
:100E20005F50494E004D4F53495F50494E004D4968
:100E3000534F5F50494E004845415445525F42452B
:100E4000445F50494E004845415445525F325F501F
:100E5000494E004845415445525F315F50494E006C
:100E60004845415445525F305F50494E0046414E1F
:100E70005F50494E0045325F535445505F50494ED4
:100E80000045325F454E41424C455F50494E00455A
:100E9000325F4449525F50494E0045315F535445DB
:100EA000505F50494E0045315F454E41424C455FD1
:100EB00050494E0045315F4449525F50494E00450C
:100EC000305F535445505F50494E0045305F454EAA
:100ED00041424C455F50494E0045305F4449525FA6
:100EE00050494E0045305F4155544F5F46414E5F7B
:100EF00050494E004156525F53535F50494E004196
:100F000056525F53434B5F50494E004156525F4D1E
:100F10004F53495F50494E004156525F4D49534F20
:100F20005F50494E0054454D505F4245445F504923
:100F30004E0054454D505F325F50494E0054454D70
:100F4000505F315F50494E0054454D505F305F5007
:100F5000494E0046494C57494454485F50494E0059
:100F6000FF01FF0000A0400000A040000000400082
:100F7000007D4300007D4300007D43000000000031
:100F8000007D430000000000007D4300007D430021
:100F9000007D430000000000000000000000000091
:100FA0000048420000484200008040000000003A33
:100FB0000A0020286D6D290020204D393030204B4B
:100FC000004C696E65617220416476616E63653ABA
:100FD0000A0020204D383531205A005A2D50726FAA
:100FE0006265204F666673657400204400204900E6
:100FF00020204D3330342050002044002049002070
:10100000204D3330312050005049442073657474B2
:10101000696E67733A0A00205A00204A0020204770
:1010200032392057204900205A0020204D343230D8
:101030002053004175746F20426564204C657665CD
:101040006C696E673A0A00205A0020590020204D32
:10105000323036205800486F6D65206F66667365C4
:10106000743A0A00204500205A00205900205800F8
:1010700020540020530020204D32303520510020D4
:10108000453C6D61785F655F6A65726B3E00205814
:101090003C6D61785F785F6A65726B3E20593C6D8C
:1010A00061785F795F6A65726B3E205A3C6D61784A
:1010B0005F7A5F6A65726B3E00416476616E63655C
:1010C000643A20513C6D696E5F7365676D656E743F
:1010D0005F74696D655F75733E20533C6D696E5F2B
:1010E00066656564726174653E20543C6D696E5F2F
:1010F00074726176656C5F66656564726174653E85
:101100000020540020520020204D32303420500066
:10111000416363656C65726174696F6E2028756EDA
:101120006974732F7332293A20503C7072696E745F
:101130005F616363656C3E20523C726574726163EB
:10114000745F616363656C3E20543C7472617665C4
:101150006C5F616363656C3E0A00204500205A00A5
:1011600020590020204D3230312058004D617869DF
:101170006D756D20416363656C65726174696F6E36
:101180002028756E6974732F7332293A0A0020453E
:1011900000205A0020590020204D323033205800C2
:1011A0004D6178696D756D20666565647261746501
:1011B000732028756E6974732F73293A0A002045CD
:1011C00000205A0020590020204D39322058005369
:1011D000746570732070657220756E69743A0A00C8
:1011E00020204D3230302044300A0020204D323053
:1011F000302044002044697361626C65640A0046D3
:10120000696C616D656E742073657474696E677363
:101210003A002020473231202020203B00486172D4
:1012200064636F6465642044656661756C74205303
:10123000657474696E6773204C6F616465640A003D
:10124000B80B0000B80B0000D0070000102700000A
:101250000000484300004843000020410000C8410E
:101260000000A0420000A0420000C8430000C042AD
:10127000290A002062797465733B20637263200041
:101280002073746F7265642073657474696E67731C
:101290002072657472696576656420280020286371
:1012A000616C63756C6174656429210A0020213DBD
:1012B0002000454550524F4D20435243206D6973E5
:1012C0006D61746368202D202873746F72656429C2
:1012D00020002053697A653A2000496E6465783AA7
:1012E0002000204D61726C696E3D563535290A002B
:1012F00028454550524F4D3D00454550524F4D20D9
:1013000076657273696F6E206D69736D6174636861
:101310002000290A002062797465733B20637263A0
:10132000200053657474696E67732053746F72651F
:1013300064202800454550524F4D2064617461730C
:10134000697A65206572726F722E0A004572726F3B
:10135000722077726974696E6720746F20454550FA
:10136000524F4D210A000A0A0020205A5F4D494E73
:101370003A002020595F4D41583A002020585F4DD7
:10138000494E3A006F70656E0054524947474552C6
:101390004544003A20007A5F6D696E00795F6D61A7
:1013A0007800785F6D696E005265706F7274696E57
:1013B0006720656E6473746F7020737461747573E5
:1013C0000A00205A3A0020593A0020583A00656E27
:1013D0006473746F7073206869743A2000486F6D8D
:1013E000696E67206661696C656400556E6B6E6F2F
:1013F000776E20636F6D6D616E643A2022002074F9
:101400006F6F206C6F6E6720657874727573696F8B
:101410006E2070726576656E7465640A0020636F75
:101420006C6420657874727573696F6E2070726574
:1014300076656E7465640A00FFFDFCFAF8F6F4F256
:10144000F0EEECEAE9E7E5E3E1E0DEDCDAD9D7D576
:10145000D4D2D0CFCDCBCAC8C7C5C3C2C0BFBDBC14
:10146000BAB9B7B6B4B3B2B0AFADACAAA9A8A6A585
:10147000A4A2A1A09E9D9C9A9998979594939290CE
:101480008F8E8D8B8A8988878684838281807F7EF8
:101490007D7B7A797877767574737271706F6E6D03
:1014A0006C6B6A696867666564636261605F5E5DF4
:1014B0005C5B5A5958585756555453525150504FD7
:1014C0004E4D4C4B4A4A49484746464544434242A2
:1014D00041403F3E3E3D3C3B3B3A3938383736355C
:1014E00035343332323130302F2E2E2D2C2B2B2A07
:1014F00029292827272625252423232221212020A6
:101500001F1E1E1D1C1C1B1B1A1919181817161636
:10151000151514131312121111100F0F0E0E0D0DBD
:101520000C0C0B0A0A09090808070706060505043A
:10153000040303020201000000000001000000019A
:101540000000800055555500000040003333330043
:10155000AAAA2A004992240000002000C7711C009A
:1015600099991900D1451700555515003BB1130045
:101570002449120011111100000010000F0F0F007C
:10158000E3380E0043790D00CCCC0C00C3300C00C6
:10159000E8A20B0064210B00AAAA0A00703D0A0011
:1015A0009DD80900427B090092240900DCD3080081
:1015B000888808001042080000000800F0C10700F9
:1015C0008787070075500700711C07003EEB060077
:1015D000A1BC06006990060066660600703E060023
:1015E0006118060017F4050074D105005BB0050012
:1015F000B290050062720500555505007839050066
:10160000B81E0500050505004EEC040087D4040053
:10161000A1BD040090A7040049920400C17D04000C
:10162000EE690400C7560400444404005C32040020
:101630000821040041100400000004003FF00300F2
:10164000F8E0030026D20300C3C30300CCB50300B7
:101650003AA803000A9B0300388E0300C0810300F0
:101660009F750300D0690300505E03001D53030003
:1016700034480300913D030033330300162903006F
:10168000381F030097150300300C03000303030009
:101690000BFA020049F10200BAE802005CE0020025
:1016A0002DD802002DD0020059C80200B0C002009F
:1016B00031B90200DAB10200AAAA0200A0A3020016
:1016C000BC9C0200FA9502005C8F0200DF880200D9
:1016D00082820200457C0200277602002770020009
:1016E000436A02007C640200D05E02003F5902009F
:1016F000C85302006563686F3A004572726F723AB0
:1017000000205A3A0020593A0020436F756E742029
:10171000583A00232C0000B8220000561800003A66
:101720000F0000B8080000B1040000710200003E84
:1017300001000024F4D43050C38E20C2A24017828E
:101740008B7011127A910D816CD90AA861E108C7DA
:10175000586607615143061E4B5D05C145A7041A33
:10176000411104093D9803713931034036DB0265AC
:10177000339102D4305402802E1D02632CEE017589
:101780002AC501B028A001102781018F2564012BF3
:10179000244B01E0223401AC211F018D200D01807A
:1017A0001FFC00841EED00971DDF00B81CD200E670
:1017B0001BC600201BBC00641AB200B219A8000AA4
:1017C00019A0006A189900D117910040178B00B535
:1017D00016840031167E00B31579003A157300C7E0
:1017E000146F0058146A00EE136600881363002516
:1017F000135E00C7125B006C12570015125400C133
:1018000011510070114F0021114B00D61049008D6D
:101810001047004610440002104200C00F400080F4
:101820000F3E00420F3C00060F3B00CB0E380093EA
:101830000E37005C0E3500270E3400F30D3200C168
:101840000D3100900D3000600D2E00320D2D000581
:101850000D2C00D90C2B00AE0C2900850C29005C46
:101860000C2700350C27000E0C2600E80B2400C4C2
:101870000B2400A00B23007D0B23005A0B21003901
:101880000B2100180B2000F80A1F00D90A1E00BB0C
:101890000A1E009D0A1D00800A1D00630A1C0047E5
:1018A0000A1B002C0A1B00110A1A00F7091A00DD96
:1018B000091900C4091900AB091900920917007B26
:1018C000091800630917004C091600360916002094
:1018D0000916000A091500F5081500E0081400CCE7
:1018E000081400B8081400A4081400900813007D20
:1018F0000812006B08130058081200460812003442
:10190000081100230811001208110001081100F04D
:10191000071000E0071000D0071000C0071000B04B
:10192000070F00A107100091070E0083070F007436
:10193000070F0065070E0057070E0049070E003B12
:10194000070D002E070E0020070D0013070D0006DF
:10195000070D00F9060C00ED060D00E0060C00D4A2
:10196000060C00C8060C00BC060C00B0060C00A457
:10197000060B0099060C008D060B0082060B007703
:10198000060B006C060B0061060A0057060B004CA4
:10199000060A0042060A0038060A002E060A00243B
:1019A000060A001A060A001006090007060A00FDCA
:1019B000050900F4050900EB050900E2050900D955
:1019C000050900D0050900C7050900BE050900B5D5
:1019D000050800AD050800A50509009C0508009450
:1019E0000508008C050800840508007C05080074C3
:1019F0000508006C050700650508005D0507005631
:101A00000508004E05070047050700400508003897
:101A1000050700310507002A050700230507001CFC
:101A2000050600160507000F050700080506000259
:101A3000050700FB040600F5040700EE040600E8B5
:101A4000040600E2040700DB040600D5040600CF0C
:101A5000040600C9040600C3040600BD040600B75E
:101A6000040600B1040500AC040600A6040600A0AC
:101A70000405009B04060095040500900406008AF6
:101A800004050085040500800406007A040500753D
:101A9000040500700405006B040500660405006180
:101AA0000405005C04050057040500520405004DC0
:101AB00004050048040500430405003E0404003A00
:101AC00004050035040500300404002C040500273B
:101AD000040400230405001E0404001A0404001674
:101AE000040500110404000D0404000904050004A9
:101AF00004040000040400FC030400F8030400F4E0
:101B0000030400F0030400EC030400E8030400E411
:101B1000030400E0030400DC030400D8030400D441
:101B2000030400D0030400CC030400C8030300C571
:101B300003030024F404D9201BC40C5C0E9804C4D5
:101B4000095F0265077101F405F900FB04B3004861
:101B5000048700C10369005803550003034500BE14
:101B6000023A008402310053022A002902250004AF
:101B7000022000E4011C00C8011900AF0117009801
:101B80000114008401130071011000610110005163
:101B9000010E0043010D0036010B002B010B00204C
:101BA000010B00150109000C01090003010800FBED
:101BB000000800F3000800EB000700E4000600DE68
:101BC000000600D8000600D2000600CC000500C7C1
:101BD000000500C2000500BD000400B9000400B506
:101BE000000400B1000400AD000400A9000400A539
:101BF000000300A20003009F0004009B0003009864
:101C00000003009500020093000300900003008D84
:101C10000002008B0003008800020086000200849E
:101C2000000300810002007F0002007D0002007BB3
:101C300000020079000200770001007600020074C3
:101C400000020072000100710002006F0002006DCE
:101C50000001006C0002006A0001006900020067D8
:101C600000010066000100650001006400020062DE
:101C700000010061000100600001005F0002005DE2
:101C80000001005C0001005B0001005A00010059E6
:101C900000010058000100570001005600010055E6
:101CA00000010054000100530000005300010052E5
:101CB00000010051000100500001004F0001004EE2
:101CC0000000004E0001004D0001004C0001004BDF
:101CD0000000004B0001004A0001004900010048DB
:101CE00000000048000100470001004600000046D7
:101CF00000010045000000450001004400010043D0
:101D000000000043000100420000004200010041C9
:101D100000000041000100400001003F0000003FC2
:101D20000001003E0000003E0001003D0000003DBB
:101D30000001003C0000003C0000003C0001003BB2
:101D40000000003B0001003A0000003A00010039A9
:101D500000000039000100380000003800000038A1
:101D60000001003700000037000100360000003697
:101D7000000000360001003500000035000000358D
:101D80000001003400000034000000340001003382
:101D90000000003300000033000100320000003278
:101DA000000000320001003100000031000000316D
:101DB0000001003000000030000000300001002F62
:101DC0000000002F0000002F0000002F0001002E57
:101DD0000000002E0000002E0001002D0000002D4C
:101DE0000000002D0000002D0001002C0000002C40
:101DF0000000002C0000002C0001002B0000002B34
:101E00000000002B0000002B0001002A0000002A27
:101E10000000002A0000002A00010029000000291B
:101E2000000000290000002900000029000100280E
:101E30000000002800000028000000280000002802
:101E400000010027000000270000002700000027F5
:101E500000000027000100260000002600000026E8
:101E600000000026000000260001002500000025DB
:101E700000000025000000250000002500000025CE
:101E800000010024000000240000002400000024C1
:101E900000000024000100230000002300000023B4
:101EA00000000023000000230000002300000023A6
:101EB0000001002200000022000000220000002299
:101EC000000000220000002200010021000000218B
:101ED000000000210000002100000021000000217E
:101EE0000000002100010020000000200000002070
:101EF0000000002000000020000000200000002062
:101F0000000000200001001F0000001F0000001F53
:101F10000000001F0000001F0000001F0000001F45
:101F20000001001E0000001E0000001E0000001E38
:101F3000000000290A002028002920453A00202816
:101F40000029205A3A002028002920593A00202848
:101F50000020583A00537465707065722063757282
:101F600072656E742076616C75657320696E2025CC
:101F70002028416D7073293A0A002042403A00201F
:101F8000403A00202F00546865726D616C205275D4
:101F90006E6177617900453120544845524D414C7E
:101FA0002052554E4157415900424544205448451E
:101FB000524D414C2052554E41574159004B494CCE
:101FC0004C45442E2000202D20496E76616C6964BA
:101FD000206578747275646572206E756D626572C5
:101FE00020210A0048656174696E67206661696C2A
:101FF0006564004265642068656174696E67206687
:1020000061696C65640048656174696E672066612A
:10201000696C65640045312048656174696E6720AC
:102020006661696C6564004D494E54454D5020749D
:102030007269676765726564004531204572723A5E
:10204000204D494E54454D50004572723A204D493D
:102050004E54454D5020424544004D415854454D45
:102060005020747269676765726564004531204568
:1020700072723A204D415854454D50004572723AA3
:10208000204D415854454D502042454400626564FE
:102090000A002C2073797374656D2073746F7070EF
:1020A000656421204865617465725F49443A200087
:1020B0002CFFFFFFFFFF0001010101014B64200025
:1020C00023646566696E652044454641554C545FFE
:1020D000004B69200023646566696E6520444546AF
:1020E00041554C545F004B70200023646566696E57
:1020F000652044454641554C545F005049442041B9
:1021000075746F74756E652066696E697368656451
:10211000212050757420746865206C617374204BA5
:10212000702C204B6920616E64204B6420636F6EBD
:102130007374616E74732066726F6D2062656C6F6C
:102140007720696E746F20436F6E66696775726180
:1021500074696F6E2E680A00504944204175746F8F
:1021600074756E65206661696C6564212074696DA3
:10217000656F75740A00546865726D616C205275E4
:102180006E6177617900453120544845524D414C8C
:102190002052554E4157415900424544205448452C
:1021A000524D414C2052554E4157415900486561AE
:1021B00074696E67206661696C656400453120480A
:1021C000656174696E67206661696C65640042656B
:1021D000642068656174696E67206661696C656416
:1021E00000504944204175746F74756E65206661B6
:1021F000696C6564212054656D70657261747572D7
:102200006520746F6F20686967680A00204B643A24
:102210002000204B693A2000204B703A20000A2011
:10222000436C617373696320504944200A00205451
:10223000753A2000204B753A2000206D61783A20D5
:1022400000206D696E3A200020643A200020626907
:1022500061733A2000504944204175746F74756E63
:10226000652073746172740A00504944204175748A
:102270006F74756E65206661696C656421204261CA
:1022800064206578747275646572206E756D626520
:10229000720A001000C90210012C014001220170D5
:1022A000011801B0010E01F00104015002FA00B062
:1022B00002F0003003E600D003DC009004D200708E
:1022C00005C800A006BE000008B400B009AA00D0EE
:1022D0000BA000600E960060118C0000158200209B
:1022E000197800C01D6E00A0226400B0275A00902B
:1022F0002C500000314600E0343C00103832009091
:102300003A2800603C1E00A03D1400803E0A0020D8
:102310003F000070012C0190012701B0012201C093
:10232000011D01F00118011002130130020E0160BD
:1023300002090190020401C002FF000003FA0040FC
:1023400003F5008003F000D003EB002004E60070EA
:1023500004E100E004DC004005D700C005D20040E5
:1023600006CD00D006C8008007C3003008BE00F0CC
:1023700008B900C009B400B00AAF00B00BAA00D081
:102380000CA500000EA000500F9B00C0109600503E
:1023900012910000148C00C0158700B0178200B0A5
:1023A000197D00D01B7800001E730040206E009045
:1023B000226900F024640040275F0090295A00E061
:1023C0002B5500102E500020304B0010324600E0FC
:1023D00033410090353C001037370070383200A090
:1023E000392D00B03A2800A03B2300603C1E0010AD
:1023F0003D1900903D1400103E0F00703E0A00C0D1
:102400003E0500003F0000403FFBFF803FF6FFC05D
:102410003FF1FF0129022904290829102920294018
:10242000298029012C022C012602260426082610C8
:1024300026202640268026402C802C0123022304BF
:10244000230823102320234023802301200220047B
:102450002008201020202040208020102C202C013B
:102460002F022F042F082F102F202F402F802F7E78
:10247000FE7EFD7EFB7EF77EEF7EDF7EBF7E7F00F1
:1024800001000030251200020000ED24430003008B
:1024900000E9240401030904CF241802030904B746
:1024A000241603030904A9240C0C03310032003361
:1024B0000034003500000016035500530042002090
:1024C00000530065007200690061006C0000001894
:1024D000035400650065006E0073007900640075A8
:1024E0000069006E006F0000000403090409024344
:1024F00000020100C03209040000010202010005CF
:10250000240010010524010001042402060524060C
:1025100000010705820308004009040100020A00C7
:102520000000070503024000000705840240000088
:102530001201000202000020C01683047202010290
:1025400003010001C1020180360181364E414E492E
:102550004E495459494E46CDCCCC3D0AD7233C1761
:10256000B7D13877CC2B329595E6241FB14F0A00AE
:102570000020410000C84200401C4620BCBE4CCA9E
:102580001B0E5AAEC59D7400458B8DAD54B81124F9
:102590001FBECFEFD0E2DEBFCDBF12E0A0E0B1E0C2
:1025A000ECEFF7E801E00BBF02C007900D92A837EF
:1025B000B107D9F72EE0A8E7B2E001C01D92A43F11
:1025C000B207E1F712E1C7ECD2E104C02197FE01A6
:1025D0000E94C9B8C43CD107C9F70E94B1B00C949D
:1025E000FCC30C94000090E0FC01EE0FFF1FE80F0D
:1025F000F91FE60FF11DEE0FFF1FEE0FFF1FE15E4B
:10260000FC4F60817181828193810895E9E1F8E056
:102610009DE29E0F2491821729F031969E13FACFE6
:1026200080E0089581E008954F925F926F927F92CB
:102630008F929F92AF92BF92CF92DF92EF92FF92D2
:10264000CF934B015C0169017A0120E030E040EA60
:1026500051E40E94EBB82B013C012FE632E143E844
:102660005AEB0E94C8BB87FD48C022E430E04DE72A
:1026700053E4C301B2010E94C5B918160CF43DC061
:102680002FE632E143E85AEBC701B6010E94C8BB0E
:1026900087FD33C022E430E04DE753E4C701B601C3
:1026A0000E94C5B918164CF124EF3DEF4FE951E4F3
:1026B000C501B4010E94C8BB87FD1FC022E430E001
:1026C00042E753E4C501B4010E94C5B91816ACF045
:1026D00027EE3BEF4FE151E4C701B6010E94C8BBB2
:1026E00087FD0BC0C1E022E430E042E753E4C701BC
:1026F000B6010E94C5B918160CF4C0E08C2FCF911A
:10270000FF90EF90DF90CF90BF90AF909F908F9011
:102710007F906F905F904F900895FB010190002093
:10272000E9F73197AF01461B570BDC01ED91FC91A6
:102730000280F381E02D0994462F50E060E070E0C4
:1027400020E00C949CAFAB01770F660B770B0C94D9
:10275000F8AFCF93DF931F92CDB7DEB76983DC016B
:10276000ED91FC910280F381E02D41E050E0BE014B
:102770006F5F7F4F09950F90DF91CF9108952F9252
:102780003F924F925F926F927F928F929F92AF9201
:10279000BF92CF92DF92EF92FF920F931F93CF934E
:1027A000DF93CDB7DEB72C970FB6F894DEBF0FBE20
:1027B000CDBFF82EE62ED42E322E90E09A87898750
:1027C000A62FB0E0BC87AB878C01000F111F080F4C
:1027D000191FFD01E00FF11FEE0FFF1FEE0FFF1F8E
:1027E000E15EFC4F60817181828193819B01AC012C
:1027F0000E94B1BC882309F441C16AE088EE9EE0E2
:10280000A8DFFD0C6E2D630D8F2D90E0DC01AA0F6B
:10281000BB1FA80FB91F8B859C858A0F9B1FFC01CE
:10282000EE0FFF1FEE0FFF1FE15EFC4F9080A180B7
:10283000B280C380FD0C8F2D90E09C01220F331FCE
:10284000280F391F8B859C85820F931FFC01EE0F8B
:10285000FF1FEE0FFF1FE15EFC4FD080E180F28092
:102860008380862F90E0F801E80FF91FEE0FFF1F1D
:10287000EE0FFF1FE15EFC4F70806180528043804D
:10288000630D462F50E0F801E40FF51FEE0FFF1F18
:10289000EE0FFF1FE15EFC4F10810181328023802B
:1028A000A80FB91FAA0FBB1FAA0FBB1FA15EBC4F69
:1028B000EC91E9831196FC911197FA8312968C9111
:1028C00012978B8313969C919C83240F351F220FA4
:1028D000331F220F331FD901A15EBC4FEC91ED8352
:1028E0001196FC911197FE8312968C9112978F830B
:1028F00013969C9198872D2D3E2D4F2D582D6D2D83
:102900007E2D8F2D982D0E94B1BC882321F0D12CD3
:10291000E12CF12C812C292D3A2D4B2D5C2D692D8C
:102920007A2D8B2D9C2D0E94B1BC882319F09D2CF3
:102930005701C82C212F302F432D522D612F702F7E
:10294000832D922D0E94B1BC882321F010E000E07D
:10295000312C212C272D362D452D542D672D762DEC
:10296000852D942D0E94B1BC882311F038012101DE
:102970002D813E814F8158856D817E818F81988523
:102980000E94B1BC882321F01D821E821F821886FE
:1029900029813A814B815C8169817A818B819C811B
:1029A0000E94B1BC882341F0AD81A983BE81BA8366
:1029B000EF81EB83F885FC8329853A85220F331F4D
:1029C00089859A85280F391FAB85BC852A0F3B1F47
:1029D000220F331F220F331FF901E15EFC4FFA87EC
:1029E000E987292D3A2D4B2D5C2D692D7A2D8B2DC4
:1029F0009C2D0E94ECB82D2D3E2D4F2D582D0E9460
:102A0000EBB86B017C01272D362D452D542D672DFC
:102A1000762D852D942D0E94ECB8212F302F432D3B
:102A2000522D0E94EBB89B01AC01C701B6010E9478
:102A3000ECB86B017C0129813A814B815C81698111
:102A40007A818B819C810E94ECB82D813E814F81DF
:102A500058850E94EBB89B01AC01C701B6010E94EA
:102A6000ECB820E030E040E450E40E94CCB9A98505
:102A7000BA856D937D938D939C9313972C960FB687
:102A8000F894DEBF0FBECDBFDF91CF911F910F91A4
:102A9000FF90EF90DF90CF90BF90AF909F908F907E
:102AA0007F906F905F904F903F902F900895CF93BD
:102AB000DF93E5E0FAE06491EF012196662329F0C7
:102AC00088EE9EE046DEFE01F6CFDF91CF910895BD
:102AD000CF93DF93811103C0E7EEF6E002C0E1EF90
:102AE000F6E06491EF012196662329F088EE9EE0DE
:102AF00030DEFE01F6CFDF91CF910895FF920F9364
:102B00001F93CF93DF93F82E092F162FEAEBF4E0F3
:102B10006491EF012196662329F088EE9EE019DE8C
:102B2000FE01F6CFEF2DF02F6491EF012196662381
:102B300029F088EE9EE00DDEFE01F6CFE8EBF4E032
:102B40006491EF012196662329F088EE9EE001DE74
:102B5000FE01F6CF612F70E088EE9EE0F4DD6AE0C2
:102B600088EE9EE0DF91CF911F910F91FF90F1CD04
:102B70000FB6F8948091DD0E9091DE0EA091DF0EDD
:102B8000B091E00E0FBE80935C0390935D03A09321
:102B90005E03B0935F03089580E1E0E4F5E0A0E315
:102BA000B5E001900D928A95E1F708954F925F92FA
:102BB0006F927F92AF92BF92CF92DF92EF92FF928D
:102BC000CF93DF93EB01FC0160817181828193815E
:102BD0002CE3C22ED12CE12CF12CA70196010E94EE
:102BE0008BB8B62EA72ECA01B901A70196010E9483
:102BF0008BB86B017C01CA01B90128E130E040E0EB
:102C000050E00E948BB82B013C01C9016DE671E0D8
:102C10000E9477B861157105D9F0AF92BF92DF922B
:102C2000CF925F924F929F938F937F936F938EE695
:102C300098E09F938F93DF93CF930E941AC18DB733
:102C40009EB70E960FB6F8949EBF0FBE8DBF61C0A3
:102C50000097C9F0AF92BF92DF92CF925F924F92EE
:102C60009F938F938EE598E09F938F93DF93CF93FD
:102C70000E941AC1EDB7FEB73C960FB6F894FEBF9E
:102C80000FBEEDBF46C04114510461047104B9F098
:102C9000AF92BF92DF92CF925F924F9282E598E01F
:102CA0009F938F93DF93CF930E941AC18DB79EB7E6
:102CB0000A960FB6F8949EBF0FBE8DBF2AC0C114EE
:102CC000D104E104F104A9F0AF92BF92DF92CF9258
:102CD0008AE498E09F938F93DF93CF930E941AC169
:102CE000EDB7FEB738960FB6F894FEBF0FBEEDBF36
:102CF00010C0AF92BF9286E498E09F938F93DF93CA
:102D0000CF930E941AC10F900F900F900F900F90C9
:102D10000F90DF91CF91FF90EF90DF90CF90BF9019
:102D2000AF907F906F905F904F90089581548A315B
:102D300008F040C0A82FB0E040918405509185056F
:102D4000609186057091870504C0769567955795C3
:102D500047958A95D2F740FF2DC0E0918F05F091FD
:102D60009005A659BA4F8C918823E1F0E80FF11D28
:102D7000808190ED980F9A3080F08E3229F4818115
:102D800080538A3078F409C08D3211F08B3251F4BF
:102D9000818190ED980F9A3018F49E2F8F2F04C0E8
:102DA0008E3251F090E080E090938B0580938C05FB
:102DB00081E0089580E00895828180538A3090F701
:102DC000ECCFB4DF882341F081E020918B05309176
:102DD0008C05232B09F480E008950F931F93CF9364
:102DE00080918B0590918C05009711F1FC018F016A
:102DF000C1912C2F2F7DA9F0C53411F0C536B9F73C
:102E0000F801108260E070E080918B0590918C0554
:102E10000E94CDBCF801C083562F472F382F292F91
:102E20000BC060E070E0CF911F910F910C94CDBC6E
:102E300050E040E030E020E0652F742F832F922F88
:102E4000CF911F910F91089580918B0590918C05E2
:102E5000009731F04AE050E060E070E00C9433BE3F
:102E600060E070E0CB01089580918B0590918C0516
:102E7000009731F04AE050E060E070E00C945BBFF6
:102E800060E070E0CB010895DFDF97FD0AC0DCDF72
:102E90006F3F71058105910509F02CF4D5DF862F70
:102EA000089580E008958FEF089580918B059091AB
:102EB0008C05892B31F0E8DF91E0811103C090E0AF
:102EC00001C091E0892F08950F931F93CF93DF9353
:102ED000CDB7DEB72C970FB6F894DEBF0FBECDBFCF
:102EE000E0E4F5E080859185A285B3854481558134
:102EF00066817781008111812281338109871A8758
:102F00002B873C874D835E836F83788789839A8381
:102F1000AB83BC83AE014F5F5F4FBE016B5F7F4FE2
:102F2000CE0109960E94F37A2CE435E0AE014F5FA2
:102F30005F4FBE016B5F7F4FCE0109960E94F588FF
:102F40002C960FB6F894DEBF0FBECDBFDF91CF91A8
:102F50001F910F9108952F923F924F925F926F921F
:102F60007F929F92AF92BF92CF92DF92EF92FF92A9
:102F70000F931F93CF93DF93CDB7DEB764970FB650
:102F8000F894DEBF0FBECDBF2A013B01902EA12ECB
:102F90006901082F10E0F801E05AF04FE491BB24DA
:102FA000B3941E160CF4B12CFF24F39420E030E00F
:102FB000A901C301B2010E94C8BB18160CF0F12C84
:102FC000000F111F000F111FC801805C9A4F1C01D8
:102FD000FC01108211821282138276DFF10140829D
:102FE000518262827382E090640320E030E0A901A4
:102FF000692D7A2DC6010E94C5B9811108C0F8015A
:10300000E156F04F85919591A591B49103C0892D1A
:103010009A2DD601898B9A8BAB8BBC8B80914805FE
:1030200090914905A0914A05B0914B054091440506
:103030005091450560914605709147050091400506
:103040001091410520914205309143050D871E875F
:103050002F87388B49875A876B877C878D839E8320
:10306000AF83B88719821A821B821C82AE014B5F24
:103070005F4FBE01675F7F4FCE010D960E94F37ACE
:10308000CE0101966C018E010F5E1F4F2CE435E0DE
:10309000AE014B5F5F4FBE01675F7F4F0C960E9492
:1030A00013880E94037CBF100E94D06E64960FB6F6
:1030B000F894DEBF0FBECDBFDF91CF911F910F916E
:1030C000FF90EF90DF90CF90BF90AF909F907F9058
:1030D0006F905F904F903F902F9008956CE475E053
:1030E00083E00C941B8ACF93DF9300D0CDB7DEB77B
:1030F0002091DA0E3091DB0ECE01019621153105BB
:1031000029F4845F9E409A83898304C0821B930BB9
:103110009A83898389819A810F900F90DF91CF9153
:103120000895FF920F931F93CF93DF93FC012081AB
:103130002B3319F1D0912505D430F8F4F62EBC01CB
:10314000C09123050C2F10E0F0E6CF9FC0011124A1
:103150008D559C4F0E94FAC0F801E15FFC4FF08250
:10316000CF5FC43018F4C093230502C0109223052A
:10317000DF5FD093250581E001C080E0DF91CF9132
:103180001F910F91FF900895EF92FF921F93CF939D
:10319000DF937C0160E0C5DF182F8823C9F0E4EFDE
:1031A000F6E16491EF012196662329F088EE9EE016
:1031B000D0DAFE01F6CFB7018FE49CE00E94498B84
:1031C00062E288EE9EE0C5DA6AE088EE9EE0C1DA4F
:1031D000812FDF91CF911F91FF90EF900895DF92A3
:1031E000EF92FF920F931F93CF93DF93CDB7DEB78C
:1031F0006E970FB6F894DEBF0FBECDBF6091A103EE
:103200007091A2036115710541F14DE150E0CE01CD
:1032100001967C010E94B0C01E8EF7018F010E192D
:103220001F09D190DD2019F09AE0D912F7CFF701EC
:10323000E00FF11F1082C701A7DF882371F0DD20A6
:10324000A9F00F5F1F4F8091A1039091A203080F77
:10325000191F1093A2030093A10381E02091A10301
:103260003091A203232B29F480E003C000E010E09A
:10327000F0CF6E960FB6F894DEBF0FBECDBFDF91D4
:10328000CF911F910F91FF90EF90DF900895EF92F3
:10329000FF920F931F93CF93DF937C0184E591DD21
:1032A000D82F882369F1F0DDC82F18162CF5E4EF2C
:1032B000F6E164918F010F5F1F4F662329F088EEBE
:1032C0009EE047DAF801F5CF6DE488EE9EE041DA42
:1032D000A70160E070E020E088EE9EE00E949CAFD5
:1032E0006C2FCC0F770B8BE39BE00E94718B6AE015
:1032F00088EE9EE02EDA08C080935703D0E004C029
:1033000080916403809357038D2FDF91CF911F919C
:103310000F91FF90EF9008950F931F93CF93DF933A
:1033200094E0899FE00111248E010D581C4FFE018D
:10333000E158FC4FDE01A557BC4F2D913D914D91B9
:103340005C9160817181828193810E94ECB8F80167
:103350006083718382839383FE01ED56F04F8591E4
:103360009591A591B491FE01E959FC4F8083918319
:10337000A283B383FE01E957F04F85919591A59102
:10338000B491C75EDE4F88839983AA83BB83DF91A4
:10339000CF911F910F910895CF92DF92EF920F93EB
:1033A0001F93CF93DF93CDB7DEB760970FB6F89436
:1033B000DEBF0FBECDBFE0906403E0E4F5E08085A2
:1033C0009185A285B385448155816681778100818D
:1033D0001181228133810D871E872F87388B498782
:1033E0005A876B877C878D839E83AF83B8871982CA
:1033F0001A821B821C82AE014B5F5F4FBE01675F6A
:103400007F4FCE010D960E94F37ACE0101966C019A
:1034100007E211E02CE435E0AE014B5F5F4FBE01E7
:10342000675F7F4F0C960E94138860960FB6F894E2
:10343000DEBF0FBECDBFDF91CF911F910F91EF90F7
:10344000DF90CF9008954F925F926F927F928F920C
:103450009F92AF92BF92CF92DF92EF92FF920F9323
:103460001F93CF93DF93CDB7DEB72C970FB6F894A9
:10347000DEBF0FBECDBF6D837E838F839887298784
:103480003A874B875C8747015801360180912701B5
:1034900090912801A0912901B0912A0189839A83F2
:1034A000AB83BC83D601CD90DD90ED90FC9020E005
:1034B00030E0A901C701B6010E94C5B9811106C05B
:1034C000E7EAFFE0C590D590E590F490A50194015E
:1034D000609148057091490580914A0590914B058E
:1034E0000E94C5B987FF11C0C0922701D092280160
:1034F000E0922901F0922A018092480590924905B4
:10350000A0924A05B0924B0547DFF30140805180FD
:103510006280738020E030E0A901C301B2010E9403
:10352000C5B9811108C040900F0150901001609002
:10353000110170901201409227015092280160926F
:10354000290170922A018D819E81AF81B885809377
:10355000400590934105A0934205B09343058985AA
:103560009A85AB85BC858093440590934505A093CF
:103570004605B093470510DFA50194016091480509
:103580007091490580914A0590914B050E94C8BBF6
:1035900018168CF4C0922701D0922801E0922901DC
:1035A000F0922A018092480590924905A0924A051E
:1035B000B0924B05F1DE0E94037C89819A81AB8138
:1035C000BC818093270190932801A0932901B09397
:1035D0002A012C960FB6F894DEBF0FBECDBFDF9147
:1035E000CF911F910F91FF90EF90DF90CF90BF9000
:1035F000AF909F908F907F906F905F904F900895C5
:10360000CF92DF92EF92FF920F931F936B01FC0119
:10361000E080F18002811381E0E4F5E024813581CE
:103620004681578160817181828193810CDF1F9176
:103630000F91FF90EF90DF90CF900895CF92DF929F
:10364000EF92FF920F931F936A01E0904805F0906C
:10365000490500914A0510914B05FB0120813181FC
:1036600042815381FC016081718182819381EBDE13
:103670001F910F91FF90EF90DF90CF900895809170
:10368000270190912801A0912901B0912A018093EE
:103690009D0390939E03A0939F03B093A0038091FA
:1036A00025019091260190939C0380939B0384E6CF
:1036B00090E09093260180932501089580919D03C9
:1036C00090919E03A0919F03B091A0038093270146
:1036D00090932801A0932901B0932A0180919B0324
:1036E00090919C0390932601809325010895EF9279
:1036F000FF920F931F93CF93DF93882329F0D091EC
:103700002F05D095D17001C0D0E0662341F0109113
:103710002F0511FB882780F911E0182701C010E060
:10372000442341F0C0912F05C2FB882780F9C1E0F6
:10373000C82701C0C0E0D11105C0111103C0CC23BE
:1037400009F45DC0E4EFF6E164917F018FEFE81AC0
:10375000F80A662331F088EE9EE00E94A913F70173
:10376000F3CFE5E3FBE064917F018FEFE81AF80AFD
:10377000662331F088EE9EE00E94A913F701F3CF93
:10378000DD2379F0E3E3FBE064917F018FEFE81A3A
:10379000F80A662331F088EE9EE00E94A913F70133
:1037A000F3CF112371F0E1E3FBE064918F010F5F30
:1037B0001F4F662331F088EE9EE00E94A913F801A6
:1037C000F4CFC11103C0E7E2FBE00DC0EFE2FBE084
:1037D0006491EF0121966623B1F388EE9EE00E948A
:1037E000A913FE01F5CF6491EF012196662331F014
:1037F00088EE9EE00E94A913FE01F5CFC1E08C2F58
:10380000DF91CF911F910F91FF90EF900895BF929C
:10381000CF92DF92EF92FF920F931F93CF93DF939C
:10382000CDB7DEB728970FB6F894DEBF0FBECDBF79
:1038300090916405981709F47AC0B82E882309F48A
:1038400053C080E090E0A0EAB0E48D839E83AF8314
:10385000B887C0905303D0905403E0905503F09084
:10386000560320E030E0A901C701B6010E94C5B9A6
:1038700087FF0CC0A701960160E070E080EA90E449
:103880000E94EBB86D837E838F83988720E030E0C1
:103890004DE753E46D817E818F8198850E94C8BB7E
:1038A000181644F480E090E0ADE7B3E48D839E8386
:1038B000AF83B887209148053091490540914A056A
:1038C00050914B056D817E818F8198850E94C8BB88
:1038D000181654F419821A821B821C82BE016F5F73
:1038E0007F4FCE0105968CDE6091400570914105B9
:1038F0008091420590914305209144053091450502
:10390000409146055091470519821A821B821C82FC
:10391000E0904805F090490500914A0510914B054B
:10392000FE0131966F018FDD8B2D0E94DB6E80E0F2
:1039300028960FB6F894DEBF0FBECDBFDF91CF91B2
:103940001F910F91FF90EF90DF90CF90BF9008955F
:103950004F925F926F927F928F929F92AF92BF929F
:10396000CF92DF92EF92FF920F931F93CF93C82FC6
:10397000E82EF12CF701E05AF04FB490823021F498
:1039800081E045DF811109C16701CC0CDD1CCC0C45
:10399000DD1CF601E159F04F45905590659074900B
:1039A0006B2DBB0C770B880B990B0E9467BA4B01F0
:1039B0005C0120E030E040EC5FE3C301B2010E9413
:1039C00003BCA50194010E9403BCAB01BC0100E053
:1039D00010E098018C2FBFDAC23041F0F601ED59AA
:1039E000F04F259135914591549104C020E030E08D
:1039F00040E450E4C501B4010E9403BC4B015C01EA
:103A000020E030E0A9010E94C5B9882309F45EC016
:103A1000C23021F000E010E0980104C000E010E0A6
:103A200020E830E4B501A40170588C2F94DAC2303C
:103A300009F43BC0F701EF53F54F849181111FC08A
:103A4000E4EFF6E164917F018FEFE81AF80A66234C
:103A500031F088EE9EE00E94A913F701F3CFEFE961
:103A6000FAE064917F018FEFE81AF80A662331F0DB
:103A700088EE9EE00E94A913F701F3CF8AE0F601D9
:103A8000E156F04F4590559065907490682F70E026
:103A900080E090E00E9467BA9B01AC01C301B201D3
:103AA0000E94CCB92B013C0105C0412C512C612C4A
:103AB00090E4792EA5019401C501B4010E94ECB8EF
:103AC000AB01BC01930182018C2F45DA81E090E0CB
:103AD0000C2E01C0880F0A94EAF790912E05982BBE
:103AE00090932E0590912F05892B80932F05F60139
:103AF000E557FC4F10821182128213828C2F0CDC4E
:103B0000F601E558F04F85919591A591B491F60194
:103B1000E05CFA4F80839183A283B383C230D1F4F7
:103B20002091530330915403409155035091560313
:103B3000609148057091490580914A0590914B0527
:103B40000E94EBB8609348057093490580934A053D
:103B500090934B05B9D9F601E05DFA4FD601A05C10
:103B6000BA4F8D919D910D90BC91A02D8083918332
:103B7000A283B383C23089F480E0CF911F910F916B
:103B8000FF90EF90DF90CF90BF90AF909F908F907D
:103B90007F906F905F904F903ACECF911F910F9191
:103BA000FF90EF90DF90CF90BF90AF909F908F905D
:103BB0007F906F905F904F90089581E020914F0328
:103BC00030915003232B09F480E008953F924F92E7
:103BD0005F926F927F928F929F92AF92BF92CF929D
:103BE000DF92EF92FF920F931F93CF93DF93882E74
:103BF000E62E942E6901A82EB12CC0E0D0E0042F4F
:103C000010E00E5F1F4FCA15DB05E1F0F12C2F2DE0
:103C100030E081E090E0CA3010F080E090E0800F6A
:103C2000911F281739073CF460E288EE9EE00E945D
:103C3000A913F394ECCFBE0188EE9EE00E94A3137B
:103C40002196E1CF6AE088EE9EE00E94A913F12C54
:103C5000C0E0D0E0A92CB12C82E0A80EB11C3C2E13
:103C6000CE15DF0509F451C0E9E0E31528F060E264
:103C700088EE9EE00E94A913BE0188EE9EE00E949D
:103C8000A31310E01815D1F160E288EE9EE00E94C7
:103C9000A913632D812FF60109952B013C019B018E
:103CA000AC010E94B1BC811116C020E030E0A90136
:103CB000C301B2010E94C8BB87FD05C06BE288EE5C
:103CC0009EE00E94A913292DB301A20188EE9EE077
:103CD0000E9405B011C000E0802F90E0A816B90640
:103CE0005CF0011102C060E201C06DE388EE9EE06D
:103CF0000E94A9130F5FF0CF1F5FC4CF6AE088EE68
:103D00009EE00E94A9132196AACF6AE088EE9EE069
:103D1000DF91CF911F910F91FF90EF90DF90CF90A7
:103D2000BF90AF909F908F907F906F905F904F90DB
:103D30003F900C94A913CF93DF93E0ECF8E06491EB
:103D4000EF012196662331F088EE9EE00E94A913D0
:103D5000FE01F5CF23EF32E143E063E083E0DF9142
:103D6000CF9134CFCF92DF92EF92FF9260914F03C9
:103D700070915003072E000C880B990B0E9467BAB4
:103D80006B017C012DEB37E346E855EB0E94C8BB85
:103D900087FD0AC02DEB37E346E855E3C701B601BE
:103DA0000E94C5B918164CF4A701960160E070E0B6
:103DB00080E89FE30E94CCB903C060E070E0CB01D3
:103DC00060934303709344038093450390934603A9
:103DD0006091510370915203072E000C880B990BD0
:103DE0000E9467BA6B017C012DEB37E346E855EB87
:103DF0000E94C8BB87FD0AC02DEB37E346E855E3B8
:103E0000C701B6010E94C5B918164CF4A701960166
:103E100060E070E080E89FE30E94CCB903C060E0FE
:103E200070E0CB016093470370934803809349038C
:103E300090934A03FF90EF90DF90CF900895AF9258
:103E4000BF92CF92DF92EF92FF920F931F93CF9387
:103E5000DF9383E4A82E82E0B82E90E3E92E95E06C
:103E6000F92E00E415E023E7C22E23E0D22EC0E0B5
:103E7000D0E0F50181915F010E949616882321F11F
:103E80000E94ED16FE01E956FC4F2081211104C06D
:103E900020916303222341F0F80120813181428186
:103EA00053810E94ECB80AC0C330D10539F0F60145
:103EB00020813181428153810E94EBB8F7016083F8
:103EC0007183828393830AC0F80180819181A281EA
:103ED000B381F70180839183A283B3832196F4E0B9
:103EE000EF0EF11C0C5F1F4F84E0C80ED11CC430D4
:103EF000D10509F0BECF86E40E94E1168823C9F0FF
:103F00000E94ED1620E030E0A9010E94C8BB1816FF
:103F100084F40E94ED1620E030E040E752E40E9475
:103F2000CCB9609327017093280180932901909365
:103F30002A01DF91CF911F910F91FF90EF90DF90B9
:103F4000CF90BF90AF900895CF92DF92EF92FF9203
:103F50000F931F93CF93DF930FB6F894C090DD0EAD
:103F6000D090DE0EE090DF0EF090E00E0FBE80915C
:103F70006203811174C080910E01882309F46FC01F
:103F800080910E03882309F46AC040910A0350917E
:103F90000B0360910C0370910D0397018601041BC4
:103FA000150B260B370B37FD6DC0833031F134F420
:103FB00081300CF454C0E4EFF6E106C0843009F01F
:103FC0004EC0E4EFF6E133C06491EF012196662321
:103FD00031F088EE9EE00E94A913FE01F5CFE3EFD9
:103FE000FAE06491EF012196662309F438C088EE67
:103FF0009EE00E94A913FE01F4CFE4EFF6E1649184
:10400000EF012196662331F088EE9EE00E94A9130D
:10401000FE01F5CFECEDFAE06491EF012196662305
:10402000F1F088EE9EE00E94A913FE01F5CF6491A5
:10403000EF012196662331F088EE9EE00E94A913DD
:10404000FE01F5CFE4ECFAE06491EF0121966623DE
:1040500031F088EE9EE00E94A913FE01F5CF209179
:104060000E0130E0A8EEB3E00E94D2B8C60ED71E13
:10407000E81EF91EC0920A03D0920B03E0920C03D3
:10408000F0920D03DF91CF911F910F91FF90EF9070
:10409000DF90CF9008950F931F93CF93DF9300D0BD
:1040A00000D0CDB7DEB780912E0583708330E9F064
:1040B000E4EFF6E164918F010F5F1F4F662331F04B
:1040C00088EE9EE00E94A913F801F4CFE0E9FAE03F
:1040D00064918F010F5F1F4F662309F43EC088EE85
:1040E0009EE00E94A913F801F3CF0E94641780E0BC
:1040F00090E0ACEFB2E48093340590933505A09343
:104100003605B09337058091480590914905A091F7
:104110004A05B0914B058093380590933905A093DB
:104120003A05B0933B0580E090E0A4EDB2E48093C3
:10413000300590933105A0933205B0933305198271
:104140001A821B821C82AE014F5F5F4F64E375E0F1
:1041500080E395E073DA82E0FBDB0F900F900F9025
:104160000F90DF91CF911F910F9108950F931F939F
:10417000CF93DF93CDB7DEB769970FB6F894DEBF64
:104180000FBECDBF0E941B9B6E8B7F8B888F998F3C
:10419000BE016F5F7F4FCE0146960E94D615E4EFB9
:1041A000F6E164918F010F5F1F4F662331F088EEB7
:1041B0009EE00E94A913F801F4CFBE016F5F7F4F0C
:1041C00082E898E00E94498B6AE088EE9EE00E94B7
:1041D000A91369960FB6F894DEBF0FBECDBFDF916D
:1041E000CF911F910F910895CF93DF93EAEFF6E1FE
:1041F0006491EF012196662331F088EE9EE00E94E3
:10420000A913FE01F5CFEAE0F8E06491EF012196F1
:10421000662331F088EE9EE00E94A913FE01F5CFDF
:10422000DF91CF910895EF92FF920F931F93CF9359
:10423000DF93182F062F86E0189FF0011124EC5809
:10424000F34FE590F490E2E8FAE06491EF012196F3
:10425000662331F088EE9EE00E94A913FE01F5CF9F
:1042600060E3610F88EE9EE00E94A913023471F0B2
:104270000334C1F0013441F5F70160816295669520
:104280006695637070E08EE79AE016C0F701608172
:10429000607370E094E0759567959A95E1F78AE709
:1042A0009AE00AC0F70160816C7070E075956795BF
:1042B0007595679586E79AE0DF91CF911F910F91F1
:1042C000FF90EF900C94718BDF91CF911F910F9124
:1042D000FF90EF9008955F926F927F928F929F92DE
:1042E000AF92BF92CF92DF92EF92FF920F931F9304
:1042F000CF93DF93CDB7DEB764970FB6F894DEBFE8
:104300000FBECDBFE82E062F542EC82ED12C26E08E
:10431000829FC0011124FC01EA58F34FA590B4908C
:10432000FC01EC58F34F85909490F5018081282F83
:10433000287030E035952795F40110811370122B09
:10434000F4E04F1305C0807190E095958795182B88
:10435000ECE6FAE064913F012FEF621A720A6623DD
:1043600031F088EE9EE00E94A913F301F3CF80E3C1
:10437000F82EFE0C6F2D88EE9EE00E94A913602F90
:1043800088EE9EE00E94A91383E00E94F08B802FAC
:10439000002E000C990BF601EE0FFF1F9E012F5F00
:1043A0003F4F390133E081549109EC0DFD1DE80FB9
:1043B000F91FEE0FFF1FE45AF34F531208C0A591E7
:1043C000B4918C911F928F9382E69AE00AC0A591D6
:1043D000B49111968C9111978F938C918F9388E55E
:1043E0009AE09F938F937F926F920E941AC1B301BC
:1043F00088EE9EE00E948D130F900F900F900F900B
:104400000F900F90612F70E08EE49AE00E94718B04
:10441000602F8E2D08DFF5016081677070E085E404
:104420009AE00E94718BECE3FAE064913F012FEF78
:10443000621A720A662331F088EE9EE00E94A91388
:10444000F301F3CF6F2D88EE9EE00E94A913F401D3
:10445000608170E088E39AE00E94718BEFE2FAE0FD
:1044600064914F012FEF821A920A662331F088EE91
:104470009EE00E94A913F401F3CF6F2D88EE9EE019
:104480000E94A913F501608170E08BE29AE00E941E
:10449000718B86E08C9DF0018D9DF00D1124E85804
:1044A000F34FC590D490E1E2FAE064915F012FEF01
:1044B000A21AB20A662331F088EE9EE00E94A91388
:1044C000F501F3CF6F2D88EE9EE00E94A913F6014F
:1044D000608170E08EE19AE00E94718B0054F3E0FD
:1044E0005F1205C0197F49F40E94571506C0812F3D
:1044F0008B7FD1F31C501230B8F3F601808190E02D
:1045000002C0959587950A95E2F780FF0EC0E8EE08
:10451000F9E064918F010F5F1F4F662331F088EE41
:104520009EE00E94A913F801F4CFF601808180FF7C
:104530000EC0EAECF9E064918F010F5F1F4F662314
:1045400031F088EE9EE00E94A913F801F4CF649642
:104550000FB6F894DEBF0FBECDBFDF91CF911F9194
:104560000F91FF90EF90DF90CF90BF90AF909F9012
:104570008F907F906F905F9008950F931F93CF93CC
:10458000DF93C82F8C3108F03CC0E82FF0E0E95DE4
:10459000FD4FE0818E2F90E0FC013197E930F1056D
:1045A00080F5E45BFF4F0C94C9B843E062E480E01F
:1045B00092DE27C044E061E481E08DDE22C044E069
:1045C00062E481E088DE1DC044E063E481E083DED4
:1045D00018C043E061E482E07EDE13C043E062E4A1
:1045E00082E079DE0EC044E061E483E074DE09C05D
:1045F00044E062E483E06FDE04C044E063E483E00F
:104600006ADEE4EEF6E064918F010F5F1F4F6623D0
:1046100031F088EE9EE00E94A913F801F4CF8C2FB0
:1046200090E0FC01E457F34FE491E23009F03EC022
:10463000FC01EE0FFF1FED5EFB4DE491E03809F049
:1046400035C0E0EEF6E06491EF012196662331F08B
:1046500088EE9EE00E94A913FE01F5CF82E10E9440
:10466000F08BE8EDF6E06491EF012196662331F0DE
:1046700088EE9EE00E94A913FE01F5CFEEEBF6E076
:104680006491EF012196662331F088EE9EE00E944E
:10469000A913FE01F5CF8EE00E94F08B43E061E4A8
:1046A00080E0DF91CF911F910F9115CEDF91CF91D7
:1046B0001F910F9108950F931F93CF93C82FE1EC93
:1046C000F9E064918F010F5F1F4F662331F088EE90
:1046D0009EE00E94A913F801F4CF82ED8C0F823086
:1046E00048F0EC2F0C2E000CFF0BE457F34F6491B5
:1046F000605C01C065E488EE9EE00E94A913CE32A2
:1047000081F0CF3281F0EC2FEE0FFF0BED5EFB4D11
:10471000E49160E3E13041F0E6956F5F6933D1F7F2
:1047200003C062E301C063E388EE9EE0CF911F9176
:104730000F910C94A9132F923F924F925F926F9218
:104740007F928F929F92AF92BF92CF92DF92EF9221
:10475000FF920F931F93CF93DF93CDB7DEB7EC9704
:104760000FB6F894DEBF0FBECDBFF82E68AF4DABCD
:10477000922E832E5CEB252E5CE0352EE12C80E022
:104780004F2C0F2C000C550822ED2F0D29AF2F2D8B
:1047900030E03CAB2BAB295D3D4F3BAF2AAF8E01E8
:1047A000015E1F4FDE0111965D0192012652310913
:1047B0003FAB2EABF1013296E491CE2ED12CC41436
:1047C000D50409F0AFC081113AC0E11038C05F9242
:1047D000FF928F929F9288EB97E09F938F93BF9267
:1047E000AF920E941AC1B50188EE9EE00E948D131F
:1047F0008F2D61DF0FB6F894DEBF0FBECDBF8AEDFF
:104800008F0D8830C0F49FA99F93AEA9AF938EEA15
:1048100097E09F938F93BF92AF920E941AC1B50108
:1048200088EE9EE00E948D130F900F900F900F90D6
:104830000F900F9016C088E00E94F08B12C06EE2BD
:1048400088EE9EE00E94A913E92DF82DDF010D905E
:104850000020E9F78A2F8919875E0E94F08BEE24E9
:10486000E394F1016590749020E0F301649161118B
:1048700007C030E04CE1642E712C621A710811C03F
:1048800088EE9EE02CAF0E94A9132CAD2F5FFFEFA6
:104890006F1A7F0A2C3149F72DA9222309F43CC055
:1048A0000EC0832F90E086159705B4F760E288EE7E
:1048B0009EE03CAF0E94A9133CAD3F5FF2CF8F2D2D
:1048C0000E940613882391F038AD31110FC0E3EA3E
:1048D000F7E064916F018FEFC81AD80A6623E1F000
:1048E00088EE9EE00E94A913F601F3CF29AD223095
:1048F00008F0FEC09EE28DB1F912EBC082FB882762
:1049000080F90E9468156CB162FB662760F970E05F
:1049100088EE9EE00E94A3136AE088EE9EE00E946B
:10492000A91381E0F4E02F0E311C2CE622162DE0B5
:10493000320609F03FCF8111BCC15F924F928F9236
:104940009F9287E897E09F938F938E010F5F1F4F91
:104950001F930F930E941AC1B80188EE9EE00E9437
:104960008D138F2DA8DE9AEDE92EEF0C0FB6F8947B
:10497000DEBF0FBECDBF97E09E15C0F0C201869787
:104980009F938F938DE797E09F938F931F930F9340
:104990000E941AC1B80188EE9EE00E948D130F900C
:1049A0000F900F900F900F900F9003C088E00E941F
:1049B000F08BECE6F7E064916F01AFEFCA1ADA0A08
:1049C000662331F088EE9EE00E94A913F601F3CF32
:1049D000BDA9BB2309F477C082ED8F0D823028F585
:1049E0008CE00E94F08BEEE28DB1FE120FC082FBD4
:1049F000882780F90E9468156CB162FB662760F910
:104A000070E088EE9EE00E94A3135DC083FB8827C0
:104A100080F90E9468156CB163FB662760F970E04D
:104A200088EE9EE00E94A3134EC09201220F331F16
:104A3000F901EC5EFB4DE491F0E08181F901ED5E5E
:104A4000FB4DE491E82329F08CE00E94F08B81E09B
:104A50002DC0F7E0FE1530F18E2D0E940BB19F9313
:104A60008F9389E597E09F938F931F930F930E94F5
:104A70001AC1B80188EE9EE00E948D130F900F902E
:104A80000F900F900F900F90E5E5F7E064918F0184
:104A90000F5F1F4F662349F088EE9EE00E94A91326
:104AA000F801F4CF8CE00E94F08B80E00E94681542
:104AB000EF2DF0E00E94FFB26E2F88EE9EE00E9484
:104AC0009C138F2D5ADD6AE088EE9EE00E94A913A8
:104AD000F0C083FB882780F90E9468156CB163FBE6
:104AE000662760F970E088EE9EE00E94A31314CF61
:104AF000F1013396E491E1111AC08AED8F0D0E9405
:104B00000BB19F938F9383E997E09F938F93BF920D
:104B1000AF920E941AC1B50188EE9EE00E948D13EB
:104B20000F900F900F900F900F900F90BDC0C60187
:104B3000880F991FFC01EC5EFB4DE491F0E02181B0
:104B4000FC01ED5EFB4D8491822309F4A2C0ABE130
:104B5000AF1508F49DC0AAADBBADEC918E2F90E0CF
:104B6000FC013197E930F10508F092C0EB5AFF4F94
:104B70000C94C9B884B5807309F48AC088B51F92B3
:104B80008F938BE497E09F938F9372C08091800006
:104B9000807C09F47DC080918800909189009F936A
:104BA0008F9381E497E09F938F9362C08091800000
:104BB000807309F46DC080918A0090918B009F935F
:104BC0008F9387E397E09F938F9352C080918000EB
:104BD0008C7009F45DC080918C0090918D009F9342
:104BE0008F938DE297E09F938F9342C08091B000A6
:104BF000807C09F44DC08091B3001F928F9383E2B3
:104C000097E09F938F9334C08091B000807309F434
:104C10003FC08091B4001F928F93A9E1B7E026C0F6
:104C200080919000807CA1F18091980090919900F2
:104C30009F938F93AFE0B7E019C08091900080738D
:104C400039F180919A0090919B009F938F93A5E0FA
:104C5000B7E00CC0809190008C70D1F080919C00E6
:104C600090919D009F938F93ABEFB6E0BF93AF936E
:104C70001F930F930E941AC1B80188EE9EE00E9414
:104C80008D130F900F900F900F900F900F900CC0FE
:104C900081E00E946815EBA9FCA90E94FFB26E2F6B
:104CA00088EE9EE00E949C13E11036CE8F2D65DCCD
:104CB00033CEEC960FB6F894DEBF0FBECDBFDF91BA
:104CC000CF911F910F91FF90EF90DF90CF90BF9009
:104CD000AF909F908F907F906F905F904F903F909C
:104CE0002F9008956F927F928F929F92AF92BF9272
:104CF000CF92DF92EF92FF920F931F93CF93DF93A8
:104D000089E40E94E116882321F00E945517D82FCC
:104D100004C089E40E949616D82F82E50E94E1160D
:104D2000882321F00E9424178B0102C001E010E0CB
:104D300083E50E94E116882321F00E942417C62FE4
:104D400001C0C0E08CE40E94E116882321F00E949B
:104D500024175B0103C08FE2A82EB12C87E50E94C7
:104D6000E116882319F00E94241702C064EF71E055
:104D70006B01770FEE08FF088C2E912CA814B90454
:104D8000CCF0D11126C08C2F0E940613882309F184
:104D900023EF31E041E060E08C2FCDDC6AE088EE6B
:104DA0009EE00E94A9136AE088EE9EE00E94A9138B
:104DB000CF5FE2CFE5EDF7E064918F010F5F1F4F0A
:104DC000662309F465C088EE9EE00E94A913F801ED
:104DD000F3CF2EEF31E041E06D2F8C2FACDCCE32E3
:104DE000C9F46A9A812C912C80169106E4F6729887
:104DF000C701B6010E9470AC729AC701B6010E9449
:104E000070AC7298C701B6010E9470AC8FEF881A1F
:104E1000980AEACFCF32D1F46B9A812C912C80166C
:104E200091060CF0C0CF7398C701B6010E9470AC18
:104E3000739AC701B6010E9470AC7398C701B6019E
:104E40000E9470AC8FEF881A980AE9CF8C2F0E94CD
:104E500035B1612C712C601671060CF0A4CFF401F1
:104E60000E940CB2C701B6010E9470ACF4010E940E
:104E700006B2C701B6010E9470ACF4010E940CB2E8
:104E8000C701B6010E9470AC8FEF681A780AE3CFB1
:104E9000DF91CF911F910F91FF90EF90DF90CF9016
:104EA000BF90AF909F908F907F906F9008956F927A
:104EB0007F928F929F92AF92BF92CF92DF92EF92AA
:104EC000FF920F931F93CF93DF93CDB7DEB7EDB66D
:104ED000FEB684E50E949616882379F0DF91CF9183
:104EE0001F910F91FF90EF90DF90CF90BF90AF9008
:104EF0009F908F907F906F90F5CE85E40E949616DC
:104F0000882309F436C00E94551780930903E9EFFE
:104F1000F7E064918F010F5F1F4F662331F088EE39
:104F20009EE00E94A913F801F4CF8091090381113A
:104F300003C0E2EFF7E002C0E6EFF7E064918F0113
:104F40000F5F1F4F662331F088EE9EE00E94A91389
:104F5000F801F4CFEBEEF7E064918F010F5F1F4F84
:104F6000662309F4DDC088EE9EE00E94A913F801D3
:104F7000F3CF83E50E9496168823E9F0EAEFF6E185
:104F800064918F010F5F1F4F662331F088EE9EE022
:104F90000E94A913F801F4CFE4ECF7E064918F01CB
:104FA0000F5F1F4F662309F4BBC088EE9EE00E948E
:104FB000A913F801F3CF80E50E94E116882321F0C0
:104FC0000E944417182F01C010E0012F80E50E94B5
:104FD000E116811106C010330CF0A2C08FE2682EDA
:104FE00001C0612E89E40E94E116882321F00E940D
:104FF0005517782E04C089E40E949616782E87E50E
:105000000E94E116882331F00E945517882309F485
:1050100066C006C087E50E949616882309F45FC023
:10502000ECEDF7E064917F012FEFE21AF20A6623BC
:1050300031F088EE9EE00E94A913F701F3CFA12E74
:10504000012E000CBB08862D062C000C990B8A192A
:105050009B090196EDB7FEB7E81BF90B0FB6F89464
:10506000FEBF0FBEEDBF2DB73EB72F5F3F4F4901CB
:10507000012F71103EC0802F0E9406138823C9F1B2
:105080000F5F6016B4F7012F711005C0802F0E94CA
:10509000061381111AC0E02EF12CF7010E94FFB215
:1050A0007F01C02E002E000CDD08CA18DB08C80CDA
:1050B000D91CF60180818E1541F028E032E040E0F5
:1050C000672D802F38DBF601E0820F5F6016E4F673
:1050D00068EC70E080E090E00E9470ACD4CF28E0F3
:1050E00032E041E0672D802F26DB0F5F6016BCF7B2
:1050F00017C0802F0E94DAB161E070E080E090E09C
:105100000E9430B4E02FF0E00E94FFB2A02F002EEA
:10511000000CBB0BAA19BB09A80DB91DEC93B0CFAD
:105120000FB6F894FEBE0FBEEDBEDF91CF911F917A
:105130000F91FF90EF90DF90CF90BF90AF909F9036
:105140008F907F906F90089588E690E00E944719B5
:10515000811122C08091500583FD1EC083E50E940D
:10516000E1168823B9F00E94ED160E9434BA7093BC
:10517000160E6093150E80E00E94BFA00E94ED16EF
:1051800020E030E04AEA52E40E94C5B9181614F053
:105190000E94C49A0C94158B0895CF93DF9389E6EF
:1051A00090E00E944719811116C0E0E7F6E0649193
:1051B000EF012196662331F088EE9EE00E94A9134C
:1051C000FE01F5CF0E9437A66AE088EE9EE0DF91EF
:1051D000CF910C94A913DF91CF910895CF92DF92D4
:1051E000EF92FF9283E50E94E116882321F10E944D
:1051F00044178D3308F08CE380938D0D0FB6F8942F
:10520000C090DD0ED090DE0EE090DF0EF090E00E4C
:105210000FBE282F30E0A8EEB3E00E94D2B8C60E31
:10522000D71EE81EF91EC092890DD0928A0DE09219
:105230008B0DF0928C0DFF90EF90DF90CF90089542
:1052400080E50E94E116811106C083E50E94E11607
:10525000882359F005C00E94441781110CC0F5CF76
:105260000E9424176F3F710510F06FEF70E070938C
:1052700066036093650308958091500583FD14C013
:1052800083E50E94E116882379F00E94ED160E94C2
:1052900034BA6639710514F066E970E070930E0E49
:1052A00060930D0E0C9411A10895DF92EF92FF927E
:1052B0000F931F93CF93DF9383E50E949616882365
:1052C00059F083E50E94E116882319F00E944417E3
:1052D00001C080E080935005E4EFF6E16491EF01B6
:1052E0002196662331F088EE9EE00E94A913FE010C
:1052F000F5CFE7EBF6E06491EF012196662331F0FC
:1053000088EE9EE00E94A913FE01F5CF8091500522
:105310008823A9F18DEAE82E86E0F82E00E010E05F
:1053200020E08091500590E0002E02C09595879571
:105330000A94E2F780FF1AC0DD24D394D20E222310
:1053400029F06CE288EE9EE00E94A913F701859196
:105350009491FC016491EC012196662331F088EE72
:105360009EE00E94A913CE01F4CF2D2D0F5F1F4F99
:10537000F2E0EF0EF11C0530110599F60DC0E9EAD7
:10538000F6E06491EF012196662331F088EE9EE00D
:105390000E94A913FE01F5CF6AE088EE9EE0DF913E
:1053A000CF911F910F91FF90EF90DF900C94A91374
:1053B000CF93DF9383E50E94E116882351F00E948A
:1053C00044178D3308F08CE380930E01DF91CF9169
:1053D0000895E4EFF6E16491EF012196662331F040
:1053E00088EE9EE00E94A913FE01F5CF40910E01C8
:1053F00050E060E070E083E796E00E94CF8B6AE0C7
:1054000088EE9EE0DF91CF910C94A9134F925F92AA
:105410006F927F92AF92BF92CF92DF92EF92FF9204
:105420000F931F93CF9383E4A82E82E0B82E01E25E
:1054300016E0C0E0F50181915F010E949616882375
:1054400009F46DC0C33009F063C00E94ED166B0112
:105450007C0120E030E040EA51E40E94C5B987FFBA
:105460004EC0A701960160912D0670912E06809185
:105470002F06909130060E94CCB92B013C019B0174
:10548000AC016091F9057091FA058091FB0590914E
:10549000FC050E9403BC6093F9057093FA058093A4
:1054A000FB059093FC05A301920160913D0670916C
:1054B0003E0680913F06909140060E9403BC609397
:1054C0003D0670933E0680933F06909340066091A0
:1054D00051067091520680915306909154060E9495
:1054E00065BAA30192010E9403BC0E9439BA60937D
:1054F0005106709352068093530690935406C092BF
:105500002D06D0922E06E0922F06F092300607C0AC
:105510000E94ED16F8016083718382839383CF5FCD
:105520000C5F1F4FC43009F085CFCF911F910F91B1
:10553000FF90EF90DF90CF90BF90AF907F906F90F3
:105540005F904F900C94F18A0F931F93CF93DF934A
:10555000C0E4D5E003E713E0F80120813181428106
:105560005381688179818A819B810E94ECB8AB016B
:10557000BC018EEB99E00E94AE8BF801248135814D
:10558000468157816C817D818E819F810E94ECB81C
:10559000AB01BC018AEB99E00E94AE8BF80120853B
:1055A000318542855385688579858A859B850E94EA
:1055B000ECB8AB01BC0186EB99E00E94AE8B4C8548
:1055C0005D856E857F8582EB99E00E94AE8BDF91D1
:1055D000CF911F910F910C94DC984F925F926F9234
:1055E0007F928F929F92AF92BF92CF92DF92EF9273
:1055F000FF920F931F93CF93DF9383E4C82E82E033
:10560000D82E9BE8E92E93E0F92E00E010E0C0E0F0
:10561000D0E0F60181916F010E94E116882309F420
:105620004DC00E94ED164B015C01C33059F0F801EA
:10563000ED58FC4F20813181428153810E94EBB8AB
:105640004B015C01F801E05CFA4F2081318142811D
:105650005381C501B4010E94EBB82B013C012DEB35
:1056600037E346E855EB0E94C8BB87FD0AC02DEB27
:1056700037E346E855E3C301B2010E94C5B91816E5
:10568000ECF4C33051F480924C0590924D05A092F9
:105690004E05B0924F05D1E011C0A3019201F70170
:1056A00060817181828193810E94ECB8F7016083EF
:1056B0007183828393838C2F0E948C19CF5FF4E0D7
:1056C000EF0EF11C0C5F1F4FC43009F0A2CFD111B7
:1056D0000E946E18DF91CF911F910F91FF90EF9074
:1056E000DF90CF90BF90AF909F908F907F906F9002
:1056F0005F904F9029CFCF93DF93EEE9F5E064916F
:10570000EF012196662331F088EE9EE00E94A913F6
:10571000FE01F5CF60E08EE895E00E947E1561E025
:1057200087E895E00E947E1561E08CE795E00E9495
:105730007E1561E08CE695E00E947E1560E083E6D0
:1057400095E00E947E1561E089E595E00E947E1556
:1057500061E08FE495E00E947E1561E087E495E0CA
:105760000E947E1561E089E395E00E947E1560E06D
:105770008BE295E00E947E1560E08CE195E00E944E
:105780007E1560E08EE095E00E947E1560E088EF77
:1057900094E00E947E1560E087EE94E00E947E1502
:1057A00060E082ED94E00E947E1561E08FEB94E072
:1057B000DF91CF910C947E15FF920F931F93CF939F
:1057C000DF93C0918D05D0918E0583E0F12C40E0F0
:1057D0008150D1F09881292F2B7F2134C9F729815D
:1057E0002133B1F7913421F0953421F441E002C026
:1057F000FF24F3949E012E5F3F4FE9012F5F3F4F3F
:1058000098819032D1F3E4CF442371F0E4EFF6E1D4
:1058100064918F010F5F1F4F662331F088EE9EE089
:105820000E94A913F801F4CFFF2071F0E4EBF4E03B
:1058300064918F010F5F1F4F662331F088EE9EE069
:105840000E94A913F801F4CFBE0188EE9EE00E94E9
:105850008D136AE088EE9EE0DF91CF911F910F914A
:10586000FF900C94A913CF9388EC90E00E94471905
:10587000811140C084E40E9496168823C1F10E94E1
:10588000ED16C1E020E030E0A9010E94C5B9811108
:1058900001C0C0E0C0939105CC2349F10E94ED16F0
:1058A000E091570324E0E29FF0011124E751FA4F01
:1058B000608371838283938320E030E0A90160914B
:1058C000E9057091EA058091EB059091EC050E9445
:1058D000C5B981110CC080E090E0A0EEBFE38093D9
:1058E000E9059093EA05A093EB05B093EC05CF9101
:1058F0000C948E7ACF910895CF9383E50E94E116A0
:105900008823A1F00E94ED166093090670930A06A1
:1059100080930B0690930C06609301067093020629
:105920008093030690930406C0E001C0C1E080E5C7
:105930000E94E116882359F00E94ED166093090633
:1059400070930A0680930B0690930C06C0E082E5E4
:105950000E94E116882359F00E94ED166093050617
:10596000709306068093070690930806C0E084E5CE
:105970000E94E116882359F00E94ED1660930106FB
:105980007093020680930306909304062CC0CC23E8
:1059900051F14091090650910A0660910B067091F1
:1059A0000C0684EA94E00E94AE8B4091050650916B
:1059B0000606609107067091080681EA94E00E944D
:1059C000AE8B4091010650910206609103067091E2
:1059D00004068EE994E00E94AE8B6AE088EE9EE0B9
:1059E000CF910C94A913CF910895CF93DF9381E5C4
:1059F0000E949616882351F00E9434176093410646
:105A000070934206809343069093440683E50E9478
:105A10009616882351F00E94ED1660930D06709340
:105A20000E0680930F069093100684E50E9496164A
:105A3000882351F00E94ED166093FD057093FE05DA
:105A40008093FF059093000688E50E9496168823B0
:105A500051F00E94ED166093ED057093EE05809372
:105A6000EF059093F00589E50E949616882351F082
:105A70000E94ED166093F1057093F2058093F30593
:105A80009093F4058AE50E9496168823F9F00E9407
:105A9000ED166093F5057093F6058093F7059093E6
:105AA000F8052DEC3CEC4CEC5DE30E94C5B91816F2
:105AB0006CF0ECE6F4E06491EF012196662331F09E
:105AC00088EE9EE00E94A913FE01F5CF85E40E94B6
:105AD0009616882351F00E94ED166093F905709395
