:100000000C944F0F0C94790F0C94790F0C94790F7A
:100010000C94790F0C94790F0C94790F0C94790F40
:100020000C94790F0C94790F0C9423960C94A09651
:100030000C94790F0C94790F0C94790F0C94790F20
:100040000C94790F0C94E06A0C94790F0C94790F4E
:100050000C94790F0C94790F0C94EE810C9482958A
:100060000C94790F0C94790F0C94790F0C94790FF0
:100070000C94790F0C94790F0C94790F0C94790FE0
:100080000C94790F0C94790F0C94790F0C94790FD0
:100090000C9461900C94790F11933D935F935F934F
:1000A0005F935F935F935F935F935F935F935F93C0
:1000B0005F935F9355934D9345935F935F935F93E6
:1000C0005F935F935F935F9337931D9325932F9374
:1000D0004E414E494E495459494E46CDCCCC3D0A2D
:1000E000D7233C17B7D13877CC2B329595E6241F10
:1000F000B14F0A000020410000C84200401C4620C9
:10010000BCBE4CCA1B0E5AAEC59D742020506C61FB
:100110006E6E657242756666657242797465733A91
:1001200020002046726565204D656D6F72793A201A
:1001300000436F6D70696C65643A204E6F762031B4
:100140003420323031380A00207C20417574686FC9
:10015000723A2044722E5068696C33440A0032307F
:1001600031382D30382D303100204C6173742055DA
:100170007064617465643A2000312E312E390A00B2
:100180004D61726C696E0020536F667477617265A1
:100190002052657365740A00205761746368646F48
:1001A000672052657365740A002042726F776E2073
:1001B0006F75742052657365740A00204578746504
:1001C000726E616C2052657365740A00506F7765BA
:1001D0007255700A0073746172740A005072696E0D
:1001E0007465722068616C7465642E206B696C6C38
:1001F00028292063616C6C6564210A004B494C4CD2
:1002000045442E20004B494C4C2063617573656456
:1002100020627920746F6F206D75636820696E614C
:1002200063746976652074696D65202D206375722D
:1002300072656E7420636F6D6D616E643A2000208C
:10024000746F6F206C6F6E67206578747275736958
:100250006F6E2070726576656E7465640A00206347
:100260006F6C6420657874727573696F6E2070723C
:100270006576656E7465640A006F6B005265736520
:100280006E643A2000416476616E6365204B3D00E8
:100290003F4B2076616C7565206F7574206F66200A
:1002A00072616E67652028302D3130292E0A003AA0
:1002B000200050726F6265205A204F666673657425
:1002C000003F5A206F7574206F662072616E6765FB
:1002D00020282D3520746F203230290A00454550E2
:1002E000524F4D204F4B0A00426564204C657665A5
:1002F0006C696E6720004661696C656420746F20CC
:10030000656E61626C6520426564204C6576656C43
:10031000696E670A00426564204C6576656C20430F
:100320006F7272656374696F6E204D617472697863
:100330003A004E6F2063617365206C696768740AC8
:100340000043290A0061626C656420286D696E2093
:1003500074656D702000436F6C64206578747275ED
:10036000646573206172652000496E76616C696412
:100370002065787472756465720A0020643A002002
:10038000693A0020703A0050726F6265205A204F1F
:1003900066667365743A200020466C6F773A2000D9
:1003A000205A00205900580020204D61783A200042
:1003B000205A00205900580020204D696E3A200034
:1003C0004F6666004F6E2000536F667420656E6442
:1003D00073746F70733A2000546F6F2066617220DF
:1003E00066726F6D207265666572656E63652070FA
:1003F0006F696E740A0020540020520041636365E7
:100400006C65726174696F6E3A2050002F2F200066
:100410003A004361703A00544845524D414C5F5098
:10042000524F54454354494F4E004155544F524545
:10043000504F52545F53445F5354415455530045F9
:100440004D455247454E43595F5041525345520026
:10045000434153455F4C494748545F4252494748DE
:10046000544E45535300544F47474C455F4C494702
:1004700048545300534F4654574152455F504F57CD
:100480004552004255494C445F50455243454E54F5
:10049000004C4556454C494E475F44415441005A33
:1004A0005F50524F4245004155544F4C4556454CC4
:1004B000005052494E545F4A4F420050524F4752EB
:1004C000455353004155544F5245504F52545F5479
:1004D000454D5000564F4C554D45545249430045EB
:1004E0004550524F4D0053455249414C5F584F4E75
:1004F0005F584F4646004649524D574152455F4E60
:10050000414D453A4D61726C696E20312E312E3964
:1005100020284769746875622920534F5552434516
:100520005F434F44455F55524C3A68747470733A58
:100530002F2F6769746875622E636F6D2F4D61721E
:100540006C696E4669726D776172652F4D61726C70
:10055000696E2050524F544F434F4C5F5645525393
:10056000494F4E3A312E30204D414348494E455F68
:10057000545950453A3344205072696E7465722064
:1005800045585452554445525F434F554E543A31A5
:1005900020555549443A34306365363164312D3243
:1005A0006564302D343533302D383330342D3535C6
:1005B000653365656161656266660A0020573A00C9
:1005C00020573A006F6B004D3131332053004B49B7
:1005D0004C4C45442E20004543484F00494E464F61
:1005E000004552524F52530044525952554E004307
:1005F0004F4D4D554E49434154494F4E006F66662D
:1006000000D705DC05E105E805EF054445425547FF
:100610003A0050726F7465637465642050696E0AA5
:100620000000011C1D132FFFFFFFFF1E1F12FF18EC
:10063000FFFFFF20211124FFFFFFFFFFFFFF0E1030
:10064000FFFFFF22230DFFFFFF0E260F2C2725693A
:10065000730025696D202569730025696820256967
:100660006D20256973002569642025696820256946
:100670006D20256973002569792025696420256925
:10068000682025696D20256973005072696E742099
:1006900074696D653A2000205A3A200020593A20AA
:1006A0000042656420583A20000A0A426564204CE2
:1006B0006576656C20436F7272656374696F6E2036
:1006C0004D61747269783A00202844525952554E4F
:1006D0002900473239204175746F20426564204CEF
:1006E0006576656C696E67003F2856296572626F92
:1006F0007365206C6576656C20697320696D706C1C
:1007000061757369626C652028302D34292E0A00CA
:10071000496E76616C69642065787472756465727F
:100720000A00416374697665204578747275646562
:10073000723A200020453A00205A3A0020593A00E7
:10074000583A002C20002C2000486F6D6520585925
:100750002066697273740A005761726E696E673A37
:1007600020486F6D696E672042756D702044697610
:1007700069736F72203C20310A00020204627573B3
:10078000793A2070617573656420666F7220696EB6
:100790007075740A00627573793A207061757365BB
:1007A0006420666F7220757365720A0062757379D2
:1007B0003A2070726F63657373696E670A005072D6
:1007C0006F62696E67206661696C65640A00205A11
:1007D0003A200020593A200042656420583A20000F
:1007E0002066697273740A005A0059005800486FF5
:1007F0006D65200020496E76616C696420657874AF
:10080000727564657220004B494C4C45442E2000A3
:100810005072696E7465722073746F7070656420B5
:1008200064756520746F206572726F72732E204636
:10083000697820746865206572726F7220616E64D9
:1008400020757365204D39393920746F20726573B6
:10085000746172742E202854656D706572617475B0
:1008600072652069732072657365742E20536574F8
:100870002069742061667465722072657374617298
:1008800074696E67290A004E6F20436865636B7355
:10089000756D2077697468206C696E65206E756D62
:1008A0006265722C204C617374204C696E653A202D
:1008B00000636865636B73756D206D69736D61743A
:1008C00063682C204C617374204C696E653A20007B
:1008D0004C696E65204E756D626572206973206E7D
:1008E0006F74204C617374204C696E65204E756D79
:1008F0006265722B312C204C617374204C696E65DB
:100900003A20004D31313000656E7175657565694D
:100910006E67202200FF01FF0000A0400000A04001
:10092000000000400000164300001643000016437C
:100930000000000000001643000000000000164305
:1009400000001643000016430000000000000000F5
:1009500000000000000048420000484200008040C3
:10096000000000003A0A0020286D6D290020204D6B
:10097000393030204B004C696E65617220416476DD
:10098000616E63653A0A0020204D383531205A00E7
:100990005A2D50726F6265204F6666736574002031
:1009A000440020490020204D333031205000504970
:1009B000442073657474696E67733A0A0020204D91
:1009C0003432302053004175746F20426564204CEE
:1009D0006576656C696E673A0A00205A00205900F6
:1009E00020204D323036205800486F6D65206F66EC
:1009F000667365743A0A00204500205A00205900A9
:100A000020580020540020530020204D3230352043
:100A1000510020453C6D61785F655F6A65726B3E91
:100A20000020583C6D61785F785F6A65726B3E208C
:100A3000593C6D61785F795F6A65726B3E205A3C04
:100A40006D61785F7A5F6A65726B3E0041647661C2
:100A50006E6365643A20513C6D696E5F7365676DC6
:100A6000656E745F74696D655F75733E20533C6D90
:100A7000696E5F66656564726174653E20543C6DA5
:100A8000696E5F74726176656C5F666565647261DC
:100A900074653E0020540020520020204D32303436
:100AA000205000416363656C65726174696F6E20EC
:100AB00028756E6974732F7332293A20503C707216
:100AC000696E745F616363656C3E20523C7265744D
:100AD000726163745F616363656C3E20543C747241
:100AE0006176656C5F616363656C3E0A002045005A
:100AF000205A0020590020204D3230312058004D1E
:100B00006178696D756D20416363656C65726174B0
:100B1000696F6E2028756E6974732F7332293A0AD3
:100B200000204500205A0020590020204D3230334B
:100B30002058004D6178696D756D20666565647239
:100B4000617465732028756E6974732F73293A0A6E
:100B500000204500205A0020590020204D39322025
:100B6000580053746570732070657220756E6974D7
:100B70003A0A0020204D3230302044300A00202034
:100B80004D3230302044002044697361626C6564EA
:100B90000A0046696C616D656E74207365747469D2
:100BA0006E67733A002020473231202020203B001E
:100BB00048617264636F6465642044656661756C46
:100BC000742053657474696E6773204C6F6164653B
:100BD000640A00DC050000DC050000DC05000010F4
:100BE0002700000000FA420000FA420000A0400086
:100BF00000C8410000A0420000A0420080FC440068
:100C000000BD42290A002062797465733B2063723B
:100C10006320002073746F72656420736574746957
:100C20006E6773207265747269657665642028004A
:100C3000202863616C63756C6174656429210A0006
:100C400020213D2000454550524F4D204352432026
:100C50006D69736D61746368202D202873746F72E1
:100C600065642920002053697A653A2000496E6442
:100C700065783A2000204D61726C696E3D563535BD
:100C8000290A0028454550524F4D3D0045455052D8
:100C90004F4D2076657273696F6E206D69736D615B
:100CA0007463682000290A002062797465733B2010
:100CB000637263200053657474696E6773205374A4
:100CC0006F726564202800454550524F4D20646185
:100CD000746173697A65206572726F722E0A0045BD
:100CE00072726F722077726974696E6720746F20F8
:100CF000454550524F4D210A006F70656E005452A9
:100D000049474745524544003A20007A5F6D696E75
:100D100000795F6D617800785F6D696E0052657073
:100D20006F7274696E6720656E6473746F70207380
:100D300074617475730A00205A3A0020593A0020F1
:100D4000583A00656E6473746F7073206869743A02
:100D50002000486F6D696E67206661696C6564008C
:100D6000556E6B6E6F776E20636F6D6D616E643A5A
:100D700020220020746F6F206C6F6E67206578747E
:100D8000727573696F6E2070726576656E746564D6
:100D90000A0020636F6C6420657874727573696FE4
:100DA0006E2070726576656E7465640A00FFFDFCE6
:100DB000FAF8F6F4F2F0EEECEAE9E7E5E3E1E0DE7A
:100DC000DCDAD9D7D5D4D2D0CFCDCBCAC8C7C5C32A
:100DD000C2C0BFBDBCBAB9B7B6B4B3B2B0AFADACA8
:100DE000AAA9A8A6A5A4A2A1A09E9D9C9A999897FD
:100DF00095949392908F8E8D8B8A89888786848331
:100E00008281807F7E7D7B7A797877767574737244
:100E100071706F6E6D6C6B6A69686766656463623A
:100E200061605F5E5D5C5B5A595858575655545324
:100E3000525150504F4E4D4C4B4A4A4948474646F6
:100E4000454443424241403F3E3E3D3C3B3B3A39B4
:100E5000383837363535343332323130302F2E2E64
:100E60002D2C2B2B2A292928272726252524232307
:100E700022212120201F1E1E1D1C1C1B1B1A19199C
:100E80001818171616151514131312121111100F26
:100E90000F0E0E0D0D0C0C0B0A0A090908080707A6
:100EA0000606050504040303020201000000000019
:100EB0000100000001000080005555550000004071
:100EC0000033333300AAAA2A0049922400000020EC
:100ED00000C7711C0099991900D145170055551587
:100EE000003BB11300244912001111110000001041
:100EF000000F0F0F00E3380E0043790D00CCCC0C2F
:100F000000C3300C00E8A20B0064210B00AAAA0A5F
:100F100000703D0A009DD80900427B090092240917
:100F200000DCD30800888808001042080000000890
:100F300000F0C107008787070075500700711C0784
:100F4000003EEB0600A1BC0600699006006666063E
:100F500000703E06006118060017F4050074D10504
:100F6000005BB00500B290050062720500555505A2
:100F70000078390500B81E0500050505004EEC0493
:100F80000087D40400A1BD040090A7040049920486
:100F900000C17D0400EE690400C756040044440407
:100FA000005C320400082104004110040000000429
:100FB000003FF00300F8E0030026D20300C3C303A0
:100FC00000CCB503003AA803000A9B0300388E0347
:100FD00000C08103009F750300D0690300505E03C9
:100FE000001D53030034480300913D0300333303D5
:100FF0000016290300381F030097150300300C0367
:1010000000030303000BFA020049F10200BAE802F0
:10101000005CE002002DD802002DD0020059C80269
:1010200000B0C0020031B90200DAB10200AAAA027F
:1010300000A0A30200BC9C0200FA9502005C8F0293
:1010400000DF88020082820200457C0200277602CF
:101050000027700200436A02007C640200D05E0236
:10106000003F590200C85302006563686F3A0045AB
:1010700072726F723A00205A3A0020593A002043A7
:101080006F756E7420583A00232C0000B8220000BF
:10109000561800003A0F0000B8080000B104000024
:1010A000710200003E01000024F4D43050C38E20B1
:1010B000C2A24017828B7011127A910D816CD90AED
:1010C000A861E108C7586607615143061E4B5D05DC
:1010D000C145A7041A411104093D98037139310330
:1010E0004036DB0265339102D4305402802E1D025B
:1010F000632CEE01752AC501B028A00110278101DB
:101100008F2564012B244B01E0223401AC211F0107
:101110008D200D01801FFC00841EED00971DDF0057
:10112000B81CD200E61BC600201BBC00641AB2002B
:10113000B219A8000A19A0006A189900D1179100E5
:1011400040178B00B516840031167E00B315790068
:101150003A157300C7146F0058146A00EE13660046
:101160008813630025135E00C7125B006C125700E2
:1011700015125400C111510070114F0021114B0084
:10118000D61049008D10470046104400021042005E
:10119000C00F4000800F3E00420F3C00060F3B0096
:1011A000CB0E3800930E37005C0E3500270E34004E
:1011B000F30D3200C10D3100900D3000600D2E0096
:1011C000320D2D00050D2C00D90C2B00AE0C290082
:1011D000850C29005C0C2700350C27000E0C26001E
:1011E000E80B2400C40B2400A00B23007D0B23007C
:1011F0005A0B2100390B2100180B2000F80A1F00A0
:10120000D90A1E00BB0A1E009D0A1D00800A1D008F
:10121000630A1C00470A1B002C0A1B00110A1A0053
:10122000F7091A00DD091900C4091900AB091900F2
:10123000920917007B091800630917004C09160072
:1012400036091600200916000A091500F5081500D0
:10125000E0081400CC081400B8081400A408140016
:10126000900813007D0812006B0813005808120044
:10127000460812003408110023081100120811005A
:1012800001081100F0071000E0071000D00710005F
:10129000C0071000B0070F00A107100091070E0053
:1012A00083070F0074070F0065070E0057070E0035
:1012B00049070E003B070D002E070E0020070D000A
:1012C00013070D0006070D00F9060C00ED060D00D2
:1012D000E0060C00D4060C00C8060C00BC060C008E
:1012E000B0060C00A4060B0099060C008D060B003E
:1012F00082060B0077060B006C060B0061060A00E5
:1013000057060B004C060A0042060A0038060A007F
:101310002E060A0024060A001A060A001006090012
:1013200007060A00FD050900F4050900EB050900A0
:10133000E2050900D9050900D0050900C705090023
:10134000BE050900B5050800AD050800A5050900A2
:101350009C050800940508008C0508008405080019
:101360007C050800740508006C0507006505080089
:101370005D050700560508004E05070047050700F4
:101380004005080038050700310507002A05070059
:10139000230507001C050600160507000F050700BA
:1013A0000805060002050700FB040600F504070017
:1013B000EE040600E8040600E2040700DB04060071
:1013C000D5040600CF040600C9040600C3040600C5
:1013D000BD040600B7040600B1040500AC04060015
:1013E000A6040600A00405009B0406009504050061
:1013F000900406008A0405008504050080040600A8
:101400007A04050075040500700405006B040500EE
:1014100066040500610405005C040500570405002E
:10142000520405004D04050048040500430405006E
:101430003E0404003A0405003504050030040400AD
:101440002C04050027040400230405001E040400E6
:101450001A04040016040500110404000D0404001D
:10146000090405000404040000040400FC03040053
:10147000F8030400F4030400F0030400EC03040088
:10148000E8030400E4030400E0030400DC030400B8
:10149000D8030400D4030400D0030400CC030400E8
:1014A000C8030300C503030024F404D9201BC40CA3
:1014B0005C0E9804C4095F0265077101F405F90028
:1014C000FB04B30048048700C103690058035500BA
:1014D00003034500BE023A008402310053022A0091
:1014E0002902250004022000E4011C00C8011900A3
:1014F000AF0117009801140084011300710110005E
:101500006101100051010E0043010D0036010B0076
:101510002B010B0020010B00150109000C01090033
:1015200003010800FB000800F3000800EB000700BF
:10153000E4000600DE000600D8000600D200060027
:10154000CC000500C7000500C2000500BD00040076
:10155000B9000400B5000400B1000400AD000400AF
:10156000A9000400A5000300A20003009F000400DE
:101570009B00030098000300950002009300030005
:10158000900003008D0002008B0003008800020021
:101590008600020084000300810002007F00020038
:1015A0007D0002007B00020079000200770001004C
:1015B0007600020074000200720001007100020057
:1015C0006F0002006D0001006C0002006A00010063
:1015D000690002006700010066000100650001006B
:1015E000640002006200010061000100600001006F
:1015F0005F0002005D0001005C0001005B00010073
:101600005A00010059000100580001005700010074
:101610005600010055000100540001005300000075
:101620005300010052000100510001005000010070
:101630004F0001004E0000004E0001004D0001006F
:101640004C0001004B0000004B0001004A0001006B
:101650004900010048000000480001004700010067
:101660004600000046000100450000004500010062
:10167000440001004300000043000100420000005C
:101680004200010041000000410001004000010053
:101690003F0000003F0001003E0000003E0001004E
:1016A0003D0000003D0001003C0000003C00000047
:1016B0003C0001003B0000003B0001003A0000003C
:1016C0003A00010039000000390001003800000034
:1016D000380000003800010037000000370001002A
:1016E0003600000036000000360001003500000022
:1016F0003500000035000100340000003400000017
:10170000340001003300000033000000330001000A
:101710003200000032000000320001003100000001
:1017200031000000310001003000000030000000F6
:10173000300001002F0000002F0000002F000000EB
:101740002F0001002E0000002E0000002E000100DE
:101750002D0000002D0000002D0000002D000100D4
:101760002C0000002C0000002C0000002C000100C8
:101770002B0000002B0000002B0000002B000100BC
:101780002A0000002A0000002A0000002A000100B0
:1017900029000000290000002900000029000000A5
:1017A0002900010028000000280000002800000097
:1017B000280000002800010027000000270000008A
:1017C000270000002700000027000100260000007D
:1017D0002600000026000000260000002600010070
:1017E0002500000025000000250000002500000065
:1017F0002500000025000100240000002400000056
:101800002400000024000000240001002300000048
:10181000230000002300000023000000230000003C
:10182000230000002300010022000000220000002D
:10183000220000002200000022000000220001001F
:101840002100000021000000210000002100000014
:101850002100000021000000210001002000000004
:1018600020000000200000002000000020000000F8
:101870002000000020000000200001001F000000E8
:101880001F0000001F0000001F0000001F000000DC
:101890001F0000001F0001001E0000001E000000CD
:1018A0001E0000001E000000290A00202800292038
:1018B000453A0020280029205A3A002028002920F3
:1018C000593A0020280020583A005374657070651A
:1018D000722063757272656E742076616C756573C3
:1018E00020696E20252028416D7073293A0A002056
:1018F00042403A0020403A00202F00546865726D43
:10190000616C2052756E61776179004531205448D1
:1019100045524D414C2052554E4157415900424588
:101920004420544845524D414C2052554E41574158
:1019300059004B494C4C45442E2000202D20496E27
:1019400076616C6964206578747275646572206E66
:10195000756D62657220210A0048656174696E6761
:10196000206661696C656400426564206865617425
:10197000696E67206661696C6564004865617469B9
:101980006E67206661696C65640045312048656159
:1019900074696E67206661696C6564004D494E54D8
:1019A000454D502074726967676572656400453102
:1019B000204572723A204D494E54454D50004572B3
:1019C000723A204D494E54454D5020424544004DF9
:1019D000415854454D50207472696767657265645B
:1019E000004531204572723A204D415854454D50C2
:1019F000004572723A204D415854454D50204245A1
:101A000044006265640A002C2073797374656D204C
:101A100073746F7070656421204865617465725FCE
:101A200049443A20002CFFFFFFFFFF0001010101A4
:101A30000123646566696E652044454641554C54F2
:101A40005F4B64200023646566696E6520444546EB
:101A500041554C545F4B69200023646566696E658F
:101A60002044454641554C545F4B7020005049443A
:101A7000204175746F74756E652066696E69736850
:101A80006564212050757420746865206C617374DE
:101A9000204B702C204B6920616E64204B642063C6
:101AA0006F6E7374616E74732066726F6D20626501
:101AB0006C6F7720696E746F20436F6E666967750F
:101AC000726174696F6E2E680A0050494420417536
:101AD000746F74756E65206661696C65642120742D
:101AE000696D656F75740A00546865726D616C206C
:101AF00052756E6177617900453120544845524DE9
:101B0000414C2052554E4157415900486561746916
:101B10006E67206661696C656400453120486561C7
:101B200074696E67206661696C6564005049442081
:101B30004175746F74756E65206661696C656421AA
:101B40002054656D706572617475726520746F6F75
:101B500020686967680A00204B643A2000204B69BE
:101B60003A2000204B703A20000A20436C617373C6
:101B7000696320504944200A002054753A2000200F
:101B80004B753A2000206D61783A2000206D696E17
:101B90003A200020643A200020626961733A2000F4
:101BA000504944204175746F74756E65207374617B
:101BB00072740A00504944204175746F74756E65E3
:101BC000206661696C6564212042616420657874D7
:101BD0007275646572206E756D6265720A00100020
:101BE000C90210012C014001220170011801B0014D
:101BF0000E01F00104015002FA00B002F0003003BF
:101C0000E600D003DC009004D2007005C800A006F6
:101C1000BE000008B400B009AA00D00BA000600EFE
:101C2000960060118C000015820020197800C01DFC
:101C30006E00A0226400B0275A00902C50000031A2
:101C40004600E0343C0010383200903A2800603CF6
:101C50001E00A03D1400803E0A00203F00007001DD
:101C60002C0190012701B0012201C0011D01F001EA
:101C700018011002130130020E01600209019002E6
:101C80000401C002FF000003FA004003F5008003D6
:101C9000F000D003EB002004E6007004E100E00453
:101CA000DC004005D700C005D2004006CD00D006BC
:101CB000C8008007C3003008BE00F008B900C009A2
:101CC000B400B00AAF00B00BAA00D00CA500000E03
:101CD000A000500F9B00C0109600501291000014FD
:101CE0008C00C0158700B0178200B0197D00D01B92
:101CF0007800001E730040206E0090226900F024DE
:101D0000640040275F0090295A00E02B5500102EF8
:101D1000500020304B0010324600E0334100903537
:101D20003C001037370070383200A0392D00B03A2F
:101D30002800A03B2300603C1E00103D1900903D90
:101D40001400103E0F00703E0A00C03E0500003F28
:101D50000000403FFBFF803FF6FFC03FF1FF01293D
:101D60000229042908291029202940298029012C29
:101D7000022C0126022604260826102620264026AC
:101D80008026402C802C01230223042308231023C7
:101D9000202340238023012002200420082010203B
:101DA000202040208020102C202C012F022F042FD7
:101DB000082F102F202F402F802F7EFE7EFD7EFBD0
:101DC0007EF77EEF7EDF7EBF7E7F000100007B1E00
:101DD0001200020000381E4300030000341E0401FC
:101DE0000309041A1E1802030904021E160303093C
:101DF00004F41D0C0C0331003200330034003500B4
:101E000000001603550053004200200053006500F7
:101E10007200690061006C00000018035400650046
:101E200065006E00730079006400750069006E0043
:101E30006F0000000403090409024300020100C00E
:101E4000320904000001020201000524001001050E
:101E5000240100010424020605240600010705826E
:101E60000308004009040100020A000000070503FE
:101E70000240000007058402400000120100020237
:101E8000000020C01683047202010203010001C198
:101E900002018036018136007B697F8FE69911242B
:101EA0001FBECFEFD0E2DEBFCDBF12E0A0E0B1E0B9
:101EB000E8E5F9E401E00BBF02C007900D92A23201
:101EC000B107D9F72EE0A2E2B2E001C01D92AB3219
:101ED000B207E1F71FE0CFE4DFE004C02197FE0185
:101EE0000E945B9ACC34D107C9F70E94A3920C944C
:101EF000AAA40C9400004F925F926F927F928F92EF
:101F00009F92AF92BF92CF92DF92EF92FF92CF93C8
:101F10004B015C0169017A0120E030E040EA51E4C4
:101F20000E947D9A2B013C012FE632E143E85AEBF7
:101F30000E94979C87FD48C022E430E046E153E4CC
:101F4000C301B2010E94F59A18160CF43DC02FE6A9
:101F500032E143E85AEBC701B6010E94979C87FD26
:101F600033C022E430E046E153E4C701B6010E94E9
:101F7000F59A18164CF124EF3DEF4FE951E4C501F5
:101F8000B4010E94979C87FD1FC022E430E04CE022
:101F900053E4C501B4010E94F59A1816ACF027EE7F
:101FA0003BEF4FE151E4C701B6010E94979C87FDCA
:101FB0000BC0C1E022E430E04CE053E4C701B601BD
:101FC0000E94F59A18160CF4C0E08C2FCF91FF9068
:101FD000EF90DF90CF90BF90AF909F908F907F90C9
:101FE0006F905F904F900895FB0101900020E9F7FA
:101FF0003197AF01461B570BDC01ED91FC9102803C
:10200000F381E02D0994CF93DF931F92CDB7DEB714
:102010006983DC01ED91FC910280F381E02D41E0C8
:1020200050E0BE016F5F7F4F09950F90DF91CF9118
:102030000895FF920F931F93CF93DF93F82E092FEC
:10204000162FE2E1F4E06491EF012196662329F076
:102050008FE19EE0D8DFFE01F6CFEF2DF02F6491E7
:10206000EF012196662329F08FE19EE0CCDFFE018F
:10207000F6CFE0E1F4E06491EF012196662329F0C8
:102080008FE19EE0C0DFFE01F6CF412F50E060E01F
:1020900070E08FE19EE00E94EA916AE08FE19EE0AD
:1020A000DF91CF911F910F91FF90ADCF0FB6F894B4
:1020B0008091140E9091150EA091160EB091170EEE
:1020C0000FBE8093A1029093A202A093A302B093AB
:1020D000A40208954F925F926F927F92AF92BF9247
:1020E000CF92DF92EF92FF92CF93DF93EB01FC014F
:1020F00060817181828193812CE3C22ED12CE12CED
:10210000F12CA70196010E941D9AB62EA72ECA0196
:10211000B901A70196010E941D9A6B017C01CA01B9
:10212000B90128E130E040E050E00E941D9A2B0107
:102130003C01C9016DE671E00E94099A61157105C3
:10214000D9F0AF92BF92DF92CF925F924F929F935E
:102150008F937F936F9386E796E09F938F93DF93A0
:10216000CF930E94C8A18DB79EB70E960FB6F89474
:102170009EBF0FBE8DBF61C00097C9F0AF92BF92E6
:10218000DF92CF925F924F929F938F9386E696E075
:102190009F938F93DF93CF930E94C8A1EDB7FEB7B3
:1021A0003C960FB6F894FEBF0FBEEDBF46C041147B
:1021B000510461047104B9F0AF92BF92DF92CF92E3
:1021C0005F924F928AE596E09F938F93DF93CF9330
:1021D0000E94C8A18DB79EB70A960FB6F8949EBF0D
:1021E0000FBE8DBF2AC0C114D104E104F104A9F0CF
:1021F000AF92BF92DF92CF9282E596E09F938F934A
:10220000DF93CF930E94C8A1EDB7FEB738960FB603
:10221000F894FEBF0FBEEDBF10C0AF92BF928EE428
:1022200096E09F938F93DF93CF930E94C8A10F9066
:102230000F900F900F900F900F90DF91CF91FF9024
:10224000EF90DF90CF90BF90AF907F906F905F90B6
:102250004F90089581548A3108F040C0A82FB0E013
:102260004091C1045091C2046091C3047091C404B0
:1022700004C076956795579547958A95D2F740FFA4
:102280002DC0E091CC04F091CD04A955BB4F8C91A9
:102290008823E1F0E80FF11D808190ED980F9A30CE
:1022A00080F08E3229F4818180538A3078F409C01D
:1022B0008D3211F08B3251F4818190ED980F9A306C
:1022C00018F49E2F8F2F04C08E3251F090E080E0E2
:1022D0009093C8048093C90481E0089580E0089534
:1022E000828180538A3090F7ECCFB4DF882341F0AD
:1022F00081E02091C8043091C904232B09F480E0C7
:1023000008950F931F93CF938091C8049091C904AF
:10231000009711F1FC018F01C1912C2F2F7DA9F0A5
:10232000C53411F0C536B9F7F801108260E070E0ED
:102330008091C8049091C9040E947B9DF801C083DC
:10234000562F472F382F292F0BC060E070E0CF9118
:102350001F910F910C947B9D50E040E030E020E015
:10236000652F742F832F922FCF911F910F91089576
:102370008091C8049091C904009731F04AE050E080
:1023800060E070E00C94E19E60E070E0CB010895A5
:102390008091C8049091C904009731F04AE050E060
:1023A00060E070E00C9409A060E070E0CB0108955B
:1023B000DFDF97FD0AC0DCDF6F3F71058105910506
:1023C00009F02CF4D5DF862F089580E008958FEF73
:1023D00008958091C8049091C904892B31F0E8DFF9
:1023E00091E0811103C090E001C091E0892F089530
:1023F0000F931F93CF93DF93CDB7DEB72C970FB614
:10240000F894DEBF0FBECDBFE5E8F4E0808591858E
:10241000A285B385448155816681778100811181D0
:102420002281338109871A872B873C874D835E83FE
:102430006F83788789839A83AB83BC83AE014F5FB8
:102440005F4FBE016B5F7F4FCE0109960E94B85867
:1024500021E934E0AE014F5F5F4FBE016B5F7F4FFC
:10246000CE0109960E942B672C960FB6F894DEBF1A
:102470000FBECDBFDF91CF911F910F9108952F9285
:102480003F924F925F926F927F929F92AF92BF92D4
:10249000CF92DF92EF92FF920F931F93CF93DF9330
:1024A000CDB7DEB764970FB6F894DEBF0FBECDBFD1
:1024B0002A013B01902EA12E6901082F10E0F8019E
:1024C000EB5EF64FE491BB24B3941E160CF4B12CD2
:1024D000FF24F39420E030E0A901C301B2010E947F
:1024E000979C18160CF0F12C000F111F000F111FF4
:1024F000C8018B579B4F1C01FC0110821182128274
:10250000138276DFF1014082518262827382E09011
:10251000A90220E030E0A901692D7A2DC6010E94B0
:10252000F59A811108C0F801EC5AF64F8591959102
:10253000A591B49103C0892D9A2DD601898B9A8BD0
:10254000AB8BBC8B80918D0490918E04A0918F04F5
:10255000B09190044091890450918A0460918B0459
:1025600070918C0400918504109186042091870459
:10257000309188040D871E872F87388B49875A87AB
:102580006B877C878D839E83AF83B88719821A827D
:102590001B821C82AE014B5F5F4FBE01675F7F4FA6
:1025A000CE010D960E94B858CE0101966C018E01A5
:1025B0000F5E1F4F21E934E0AE014B5F5F4FBE015C
:1025C000675F7F4F0C960E9449660E94395ABF1080
:1025D0000E94744D64960FB6F894DEBF0FBECDBF57
:1025E000DF91CF911F910F91FF90EF90DF90CF90EF
:1025F000BF90AF909F907F906F905F904F903F9073
:102600002F90089561E974E083E00C945168CF93B2
:10261000DF9300D0CDB7DEB72091110E3091120EAE
:10262000CE0101962115310529F48B529E409A83E3
:10263000898304C0821B930B9A83898389819A8141
:102640000F900F90DF91CF910895FF920F931F93FA
:10265000CF93DF93FC0120812B3319F1D0916A04D1
:10266000D430F8F4F62EBC01C09168040C2F10E0B1
:10267000F0E6CF9FC001112488519D4F0E94A8A170
:10268000F801E857FD4FF082CF5FC43018F4C093D3
:10269000680402C010926804DF5FD0936A0481E08E
:1026A00001C080E0DF91CF911F910F91FF900895BD
:1026B000EF92FF921F93CF93DF937C0160E0C5DF21
:1026C000182F8823C9F0E9E6F0E16491EF01219623
:1026D000662329F08FE19EE096DCFE01F6CFB7017C
:1026E00088E099E00E947F6962E28FE19EE08BDCE6
:1026F0006AE08FE19EE087DC812FDF91CF911F910F
:10270000FF90EF900895DF92EF92FF920F931F9347
:10271000CF93DF93CDB7DEB76E970FB6F894DEBFD9
:102720000FBECDBF6091E6027091E70261157105A1
:1027300041F14DE150E0CE0101967C010E945EA185
:102740001E8EF7018F010E191F09D190DD2019F09F
:102750009AE0D912F7CFF701E00FF11F1082C701FD
:10276000A7DF882371F0DD20A9F00F5F1F4F809154
:10277000E6029091E702080F191F1093E7020093F9
:10278000E60281E02091E6023091E702232B29F452
:1027900080E003C000E010E0F0CF6E960FB6F89432
:1027A000DEBF0FBECDBFDF91CF911F910F91FF9084
:1027B000EF90DF900895EF92FF920F931F93CF93C6
:1027C000DF937C0184E591DDD82F882369F1F0DD6A
:1027D000C82F18162CF5E9E6F0E164918F010F5F20
:1027E0001F4F662329F08FE19EE00DDCF801F5CF45
:1027F0006DE48FE19EE007DCA70160E070E020E07F
:102800008FE19EE00E948E916C2FCC0F770B84EFAE
:1028100097E00E94A7696AE08FE19EE0F4DB08C0C0
:1028200080939C02D0E004C08091A90280939C0216
:102830008D2FDF91CF911F910F91FF90EF90089511
:102840000F931F93CF93DF9394E0899FE0011124AE
:102850008E0108541D4FFE01EC53FD4FDE01A053C5
:10286000BD4F2D913D914D915C916081718182812F
:1028700093810E947E9AF80160837183828393839F
:10288000FE01E85BF64F85919591A591B491FE010B
:10289000E455FD4F80839183A283B383FE01E45C02
:1028A000F64F85919591A591B491C55FDE4F8883D0
:1028B0009983AA83BB83DF91CF911F910F910895D4
:1028C000CF92DF92EF920F931F93CF93DF93CDB709
:1028D000DEB760970FB6F894DEBF0FBECDBFE090B5
:1028E000A902E5E8F4E080859185A285B38544815D
:1028F00055816681778100811181228133810D8725
:102900001E872F87388B49875A876B877C878D83F3
:102910009E83AF83B88719821A821B821C82AE0104
:102920004B5F5F4FBE01675F7F4FCE010D960E94E8
:10293000B858CE0101966C0109E111E021E934E0BB
:10294000AE014B5F5F4FBE01675F7F4F0C960E94E9
:10295000496660960FB6F894DEBF0FBECDBFDF911B
:10296000CF911F910F91EF90DF90CF9008954F92EC
:102970005F926F927F928F929F92AF92BF92CF920F
:10298000DF92EF92FF920F931F93CF93DF93CDB718
:10299000DEB72C970FB6F894DEBF0FBECDBF6D83A8
:1029A0007E838F83988729873A874B875C87470187
:1029B000580136018091190190911A01A0911B01D3
:1029C000B0911C0189839A83AB83BC83D601CD90DF
:1029D000DD90ED90FC9020E030E0A901C701B60148
:1029E0000E94F59A811106C0ECE5F9E0C590D590FA
:1029F000E590F490A501940160918D0470918E048E
:102A000080918F04909190040E94F59A87FF11C0E5
:102A1000C0921901D0921A01E0921B01F0921C01A0
:102A200080928D0490928E04A0928F04B0929004B4
:102A300047DFF301408051806280738020E030E006
:102A4000A901C301B2010E94F59A811108C040900A
:102A500001015090020160900301709004014092C6
:102A6000190150921A0160921B0170921C018D8114
:102A70009E81AF81B8858093850490938604A0934E
:102A80008704B093880489859A85AB85BC8580933B
:102A9000890490938A04A0938B04B0938C0410DF74
:102AA000A501940160918D0470918E0480918F0432
:102AB000909190040E94979C18168CF4C092190172
:102AC000D0921A01E0921B01F0921C0180928D04B9
:102AD00090928E04A0928F04B0929004F1DE0E9436
:102AE000395A89819A81AB81BC8180931901909375
:102AF0001A01A0931B01B0931C012C960FB6F894F9
:102B0000DEBF0FBECDBFDF91CF911F910F91FF9020
:102B1000EF90DF90CF90BF90AF909F908F907F907D
:102B20006F905F904F900895CF92DF92EF92FF9257
:102B30000F931F936B01FC01E080F18002811381F0
:102B4000E5E8F4E024813581468157816081718117
:102B5000828193810CDF1F910F91FF90EF90DF90A6
:102B6000CF900895CF92DF92EF92FF920F931F9331
:102B70006A01E0908D04F0908E0400918F04109112
:102B80009004FB012081318142815381FC016081ED
:102B9000718182819381EBDE1F910F91FF90EF9005
:102BA000DF90CF9008958091190190911A01A09122
:102BB0001B01B0911C018093E2029093E302A09369
:102BC000E402B093E502809117019091180190936F
:102BD000E1028093E00284E690E0909318018093F4
:102BE000170108958091E2029091E302A091E4021E
:102BF000B091E5028093190190931A01A0931B01F3
:102C0000B0931C018091E0029091E1029093180131
:102C1000809317010895EF92FF920F931F93CF9324
:102C2000DF93882329F0D0917404D095D17001C02E
:102C3000D0E0662341F01091740411FB882780F9DD
:102C400011E0182701C010E0442341F0C091740442
:102C5000C2FB882780F9C1E0C82701C0C0E0D111BC
:102C600005C0111103C0CC2309F457C0E9E6F0E117
:102C700064917F018FEFE81AF80A662329F08FE14B
:102C80009EE0C1D9F701F4CFEEEEF7E064917F0149
:102C90008FEFE81AF80A662329F08FE19EE0B3D996
:102CA000F701F4CFDD2371F0ECEEF7E064917F01E2
:102CB0008FEFE81AF80A662329F08FE19EE0A3D986
:102CC000F701F4CF112369F0EAEEF7E064918F0188
:102CD0000F5F1F4F662329F08FE19EE094D9F80122
:102CE000F5CFC11103C0E0EEF7E00CC0E8EEF7E06D
:102CF0006491EF0121966623B1F38FE19EE083D9C1
:102D0000FE01F6CF6491EF012196662329F08FE151
:102D10009EE079D9FE01F6CFC1E08C2FDF91CF91F3
:102D20001F910F91FF90EF900895BF92CF92DF9285
:102D3000EF92FF920F931F93CF93DF93CDB7DEB740
:102D400028970FB6F894DEBF0FBECDBF9091A104B7
:102D5000981709F47AC0B82E882309F453C080E08C
:102D600090E0A0EAB0E48D839E83AF83B887C090E3
:102D70009802D0909902E0909A02F0909B0220E095
:102D800030E0A901C701B6010E94F59A87FF0CC087
:102D9000A701960160E070E080EA90E40E947D9ACD
:102DA0006D837E838F83988720E030E046E153E493
:102DB0006D817E818F8198850E94979C181644F4BE
:102DC00080E090E0A6E1B3E48D839E83AF83B88773
:102DD00020918D0430918E0440918F045091900485
:102DE0006D817E818F8198850E94979C181654F47E
:102DF00019821A821B821C82BE016F5F7F4FCE0137
:102E0000059692DE60918504709186048091870416
:102E1000909188042091890430918A0440918B0418
:102E200050918C0419821A821B821C82E0908D04BE
:102E3000F0908E0400918F0410919004FE01319661
:102E40006F0195DD8B2D0E947F4D80E028960FB697
:102E5000F894DEBF0FBECDBFDF91CF911F910F91D0
:102E6000FF90EF90DF90CF90BF9008954F925F92C8
:102E70006F927F928F929F92AF92BF92CF92DF928A
:102E8000EF92FF920F931F93CF93C82FE82EF12C50
:102E9000F701EB5EF64FB490823021F481E045DF1C
:102EA000811107C16701CC0CDD1CCC0CDD1CF601C7
:102EB000EC5DF64F45905590659074906B2DBB0C72
:102EC000770B880B990B0E94949B4B015C0120E0CF
:102ED00030E040EC5FE3C301B2010E94CB9CA5014E
:102EE00094010E94CB9CAB01BC0100E010E0980172
:102EF0008C2FC5DAC23041F0F601E85EF64F25911D
:102F000035914591549104C020E030E040E450E414
:102F1000C501B4010E94CB9C4B015C0120E030E074
:102F2000A9010E94F59A882309F45CC0C23021F0FF
:102F300000E010E0980104C000E010E020E830E478
:102F4000B501A40170588C2F9ADAC23009F439C047
:102F5000F701E658F84F849181111DC0E9E6F0E1D0
:102F600064917F018FEFE81AF80A662329F08FE158
:102F70009EE049D8F701F4CFE8E5F7E064917F01DE
:102F80008FEFE81AF80A662329F08FE19EE03BD81C
:102F9000F701F4CF8AE0F601EC5AF64F45905590D0
:102FA00065907490682F70E080E090E00E94949BA0
:102FB0009B01AC01C301B2010E94F99A2B013C01B3
:102FC00005C0412C512C612C90E4792EA50194016F
:102FD000C501B4010E947E9AAB01BC01930182013C
:102FE0008C2F4DDA81E090E00C2E01C0880F0A94FE
:102FF000EAF790917304982B909373049091740462
:10300000892B80937404F601E053FD4F10821182E6
:10301000128213828C2F14DCF601E05DF64F85914D
:103020009591A591B491F601EB57FB4F8083918365
:10303000A283B383C230D1F42091980230919902D7
:1030400040919A0250919B0260918D0470918E0480
:1030500080918F04909190040E947D9A60938D04DA
:1030600070938E0480938F0490939004C1D9F601DD
:10307000EB58FB4FD601AB57BB4F8D919D910D90F7
:10308000BC91A02D80839183A283B383C23089F445
:1030900080E0CF911F910F91FF90EF90DF90CF9044
:1030A000BF90AF909F908F907F906F905F904F9068
:1030B0003CCECF911F910F91FF90EF90DF90CF907A
:1030C000BF90AF909F908F907F906F905F904F9048
:1030D0000895AF92BF92CF92DF92EF92FF920F933B
:1030E0001F93CF93DF9381EFA82E81E0B82E95E751
:1030F000E92E94E0F92E05E814E028EBC22E22E038
:10310000D22EC0E0D0E0F50181915F01A3D88823E1
:1031100019F1F7D8FE01E452FD4F2081211104C0BE
:103120002091A802222341F0F801208131814281BF
:1031300053810E947E9A0AC0C330D10539F0F6014E
:1031400020813181428153810E947D9AF701608301
:103150007183828393830AC0F80180819181A28167
:10316000B381F70180839183A283B3832196F4E036
:10317000EF0EF11C0C5F1F4F84E0C80ED11CC43051
:10318000D10509F0C0CF86E4B0D88823B9F0B9D80A
:1031900020E030E0A9010E94979C18167CF4B1D879
:1031A00020E030E040E752E40E94F99A6093190170
:1031B00070931A0180931B0190931C01DF91CF91B2
:1031C0001F910F91FF90EF90DF90CF90BF90AF9045
:1031D0000895CF92DF92EF92FF920F931F93CF93B8
:1031E000DF930FB6F894C090140ED090150EE090B7
:1031F000160EF090170E0FBE8091A702811174C0B9
:1032000080910001882309F46FC080918702882390
:1032100009F46AC040918302509184026091850252
:103220007091860297018601041B150B260B370B44
:1032300037FD6DC0833031F134F481300CF454C06B
:10324000E9E6F0E106C0843009F04EC0E9E6F0E1BD
:1032500033C06491EF012196662331F08FE19EE047
:103260000E940310FE01F5CFECEAF7E06491EF0154
:103270002196662309F438C08FE19EE00E94031076
:10328000FE01F4CFE9E6F0E16491EF0121966623B7
:1032900031F08FE19EE00E940310FE01F5CFE5E9D9
:1032A000F7E06491EF0121966623F1F08FE19EE053
:1032B0000E940310FE01F5CF6491EF012196662371
:1032C00031F08FE19EE00E940310FE01F5CFEDE7A3
:1032D000F7E06491EF012196662331F08FE19EE0E3
:1032E0000E940310FE01F5CF2091000130E0A8EE0E
:1032F000B3E00E94649AC60ED71EE81EF91EC09263
:103300008302D0928402E0928502F0928602DF91DD
:10331000CF911F910F91FF90EF90DF90CF90089584
:103320000F931F93CF93DF9300D000D0CDB7DEB7BC
:103330008091730483708330E9F0E9E6F0E16491F1
:103340008F010F5F1F4F662331F08FE19EE00E94D7
:103350000310F801F4CFE9E4F7E064918F010F5F07
:103360001F4F662309F43DC08FE19EE00E940310C9
:10337000F801F3CF3DD880E090E0A6E9B2E4809375
:10338000790490937A04A0937B04B0937C04809199
:103390008D0490918E04A0918F04B091900480933D
:1033A0007D0490937E04A0937F04B093800480E01A
:1033B00090E0ACE5B2E48093750490937604A0931A
:1033C0007704B093780419821A821B821C82AE01A2
:1033D0004F5F5F4F69E774E085E794E0C3DB82E00D
:1033E00045DD0F900F900F900F90DF91CF911F91BF
:1033F0000F9108950F931F93CF93DF93CDB7DEB74F
:1034000069970FB6F894DEBF0FBECDBF0E94447916
:103410006E8B7F8B888F998FBE016F5F7F4FCE0140
:1034200046960E946A10E9E6F0E164918F010F5F11
:103430001F4F662331F08FE19EE00E940310F801D8
:10344000F4CFBE016F5F7F4F8AE896E00E947F69EC
:103450006AE08FE19EE00E94031069960FB6F8942F
:10346000DEBF0FBECDBFDF91CF911F910F910895A9
:10347000CF93DF93EFE6F0E16491EF0121966623AD
:1034800031F08FE19EE00E940310FE01F5CFE2E1F2
:10349000F6E06491EF012196662331F08FE19EE022
:1034A0000E940310FE01F5CFDF91CF91089588E6C9
:1034B00090E081D9811122C08091950483FD1EC0C6
:1034C00083E50E9475118823B9F00E9481110E9442
:1034D000619B70934D0D60934C0D80E00E94A27D26
:1034E0000E94811120E030E04AEA52E40E94F59AFD
:1034F000181614F00E94ED780C944B690895CF9340
:10350000DF9389E690E057D9811116C0E4ECF5E02D
:103510006491EF012196662331F08FE19EE00E94D5
:103520000310FE01F5CF0E9455836AE08FE19EE013
:10353000DF91CF910C940310DF91CF910895CF923A
:10354000DF92EF92FF9283E50E947511882321F1AB
:103550000E94D8118D3308F08CE38093E20C0FB6F3
:10356000F894C090140ED090150EE090160EF090C6
:10357000170E0FBE282F30E0A8EEB3E00E94649A29
:10358000C60ED71EE81EF91EC092DE0CD092DF0CCC
:10359000E092E00CF092E10CFF90EF90DF90CF9082
:1035A000089580E50E947511811106C083E50E948F
:1035B0007511882359F005C00E94D81181110CC0E3
:1035C000F5CF0E94B8116F3F710510F06FEF70E0FA
:1035D0007093AB026093AA0208958091950483FDD5
:1035E00014C083E50E947511882379F00E9481112F
:1035F0000E94619B6639710514F066E970E0709372
:10360000450D6093440D0C94F47D0895DF92EF9284
:10361000FF920F931F93CF93DF9383E50E942A11AC
:10362000882359F083E50E947511882319F00E94C0
:10363000D81101C080E080939504E9E6F0E164913F
:10364000EF012196662331F08FE19EE00E94031086
:10365000FE01F5CFEBE0F6E06491EF0121966623E1
:1036600031F08FE19EE00E940310FE01F5CF8091C2
:1036700095048823A9F181E0E82E86E0F82E00E089
:1036800010E020E08091950490E0002E02C0959516
:1036900087950A94E2F780FF1AC0DD24D394D20EF6
:1036A000222329F06CE28FE19EE00E940310F701D3
:1036B00085919491FC016491EC012196662331F08F
:1036C0008FE19EE00E940310CE01F4CF2D2D0F5FFD
:1036D0001F4FF2E0EF0EF11C0530110599F60DC0F9
:1036E000EDEFF5E06491EF012196662331F08FE173
:1036F0009EE00E940310FE01F5CF6AE08FE19EE09C
:10370000DF91CF911F910F91FF90EF90DF900C947C
:103710000310CF93DF9383E50E947511882351F046
:103720000E94D8118D3308F08CE380930001DF9163
:10373000CF910895E9E6F0E16491EF0121966623C7
:1037400031F08FE19EE00E940310FE01F5CF409121
:10375000000150E060E070E087EC95E00E94056AAF
:103760006AE08FE19EE0DF91CF910C9403104F92BD
:103770005F926F927F92AF92BF92CF92DF92EF9261
:10378000FF920F931F93CF9381EFA82E81E0B82E65
:1037900006E715E0C0E0F50181915F010E942A1162
:1037A000882309F46DC0C33009F063C00E94811101
:1037B0006B017C0120E030E040EA51E40E94F59A80
:1037C00087FF4EC0A7019601609182057091830525
:1037D00080918405909185050E94F99A2B013C0106
:1037E0009B01AC0160914E0570914F058091500591
:1037F000909151050E94CB9C60934E0570934F05AC
:103800008093500590935105A30192016091920518
:103810007091930580919405909195050E94CB9CA1
:10382000609392057093930580939405909395050A
:103830006091A6057091A7058091A8059091A905B2
:103840000E94929BA30192010E94CB9C0E94669BC6
:103850006093A6057093A7058093A8059093A9058A
:10386000C0928205D0928305E0928405F09285058E
:1038700007C00E948111F801608371838283938362
:10388000CF5F0C5F1F4FC43009F085CFCF911F91E0
:103890000F91FF90EF90DF90CF90BF90AF907F900F
:1038A0006F905F904F900C9427690F931F93CF9365
:1038B000DF93C5E8D4E008EB12E0F8012081318104
:1038C00042815381688179818A819B810E947E9A9D
:1038D000AB01BC0180E497E00E94E469F801248117
:1038E0003581468157816C817D818E819F810E94C7
:1038F0007E9AAB01BC018CE397E00E94E469F80179
:103900002085318542855385688579858A859B85A3
:103910000E947E9AAB01BC0188E397E00E94E469B3
:103920004C855D856E857F8584E397E00E94E46920
:10393000DF91CF911F910F910C9405774F925F9279
:103940006F927F928F929F92AF92BF92CF92DF92AF
:10395000EF92FF920F931F93CF93DF9381EFC82EC7
:1039600081E0D82E90EDE92E92E0F92E00E010E0F3
:10397000C0E0D0E0F60181916F010E9475118823AB
:1039800009F44DC00E9481114B015C01C33059F014
:10399000F801E854FD4F20813181428153810E941A
:1039A0007D9A4B015C01F801EB57FB4F208131817F
:1039B00042815381C501B4010E947D9A2B013C01D3
:1039C0002DEB37E346E855EB0E94979C87FD0AC034
:1039D0002DEB37E346E855E3C301B2010E94F59AA7
:1039E0001816ECF4C33051F4809291049092920432
:1039F000A0929304B0929404D1E011C0A30192016B
:103A0000F70160817181828193810E947E9AF70122
:103A100060837183828393838C2F0E942014CF5FF5
:103A2000F4E0EF0EF11C0C5F1F4FC43009F0A2CF81
:103A3000D1110E940213DF91CF911F910F91FF903E
:103A4000EF90DF90CF90BF90AF909F908F907F903E
:103A50006F905F904F9029CFCF93DF93E6EFF4E024
:103A60006491EF012196662331F08FE19EE00E9480
:103A70000310FE01F5CF60E086EE94E00E9419107D
:103A800061E08FED94E00E94191061E084ED94E014
:103A90000E94191061E084EC94E00E94191060E02B
:103AA0008BEB94E00E94191061E081EB94E00E949E
:103AB000191061E087EA94E00E94191061E08FE933
:103AC00094E00E94191061E081E994E00E941910CD
:103AD00060E083E894E00E94191060E084E794E0DD
:103AE0000E94191060E086E694E00E94191060E0E0
:103AF00080E594E00E94191060E08FE394E00E945A
:103B0000191060E08AE294E00E94191061E087E1F8
:103B100094E0DF91CF910C941910FF920F931F93B3
:103B2000CF93DF93C091CA04D091CB0483E0F12CF2
:103B300040E08150D1F09881292F2B7F2134C9F7A3
:103B400029812133B1F7913421F0953421F441E0FA
:103B500002C0FF24F3949E012E5F3F4FE9012F5FC7
:103B60003F4F98819032D1F3E4CF442371F0E9E6DE
:103B7000F0E164918F010F5F1F4F662331F08FE1F9
:103B80009EE00E940310F801F4CFFF2071F0ECE0FA
:103B9000F4E064918F010F5F1F4F662331F08FE1D6
:103BA0009EE00E940310F801F4CFBE018FE19EE079
:103BB0000E94F40F6AE08FE19EE0DF91CF911F91A8
:103BC0000F91FF900C940310CF9388EC90E00E942B
:103BD000DB13811140C084E40E942A118823C1F1C3
:103BE0000E948111C1E020E030E0A9010E94F59A15
:103BF000811101C0C0E0C093CE04CC2349F10E94E2
:103C00008111E0919C0224E0E29FF0011124E25C2A
:103C1000FA4F608371838283938320E030E0A901AF
:103C200060913E0570913F0580914005909141055E
:103C30000E94F59A81110CC080E090E0A0EEBFE3F5
:103C400080933E0590933F05A0934005B0934105B6
:103C5000CF910C945358CF910895CF9383E50E9450
:103C600075118823A1F00E94811160935E05709305
:103C70005F0580936005909361056093560570938E
:103C800057058093580590935905C0E001C0C1E0E5
:103C900080E50E947511882359F00E94811160937C
:103CA0005E0570935F058093600590936105C0E0A9
:103CB00082E50E947511882359F00E94811160935A
:103CC0005A0570935B0580935C0590935D05C0E099
:103CD00084E50E947511882359F00E948111609338
:103CE00056057093570580935805909359052CC03D
:103CF000CC2351F140915E0550915F0560916005C4
:103D0000709161058CEF93E00E94E46940915A053F
:103D100050915B0560915C0570915D0589EF93E0C2
:103D20000E94E469409156055091570560915805ED
:103D30007091590586EF93E00E94E4696AE08FE193
:103D40009EE0CF910C940310CF91089581E50E94DD
:103D50002A11882351F00E94C81160939605709330
:103D60009705809398059093990583E50E942A1101
:103D7000882351F00E94811160936205709363055E
:103D8000809364059093650584E50E942A11882339
:103D900051F00E94811160935205709353058093F6
:103DA00054059093550588E50E942A11882351F007
:103DB0000E948111609342057093430580934405EE
:103DC0009093450589E50E942A11882351F00E94AD
:103DD0008111609346057093470580934805909341
:103DE00049058AE50E942A11882351F00E94811119
:103DF00060934A0570934B0580934C0590934D0555
:103E000085E40E942A11882351F00E948111609359
:103E10004E0570934F05809350059093510508957A
:103E2000EF92FF920F931F93CF9381EFE82E81E0E3
:103E3000F82E04EC12E0C0E0F70181917F010E94AE
:103E40002A11882351F00E948111F8016083718347
:103E5000828393838C2F0E942014CF5F0C5F1F4FAF
:103E6000C33051F7CF911F910F91FF90EF901DCD6F
:103E7000CF93DF93E9E6F0E16491EF0121966623A9
:103E800031F08FE19EE00E940310FE01F5CF83E543
:103E90000E942A11882321F00E94E91180930A01CF
:103EA000E8ECF3E06491EF012196662331F08FE1B5
:103EB0009EE00E940310FE01F5CF80910A0181115E
:103EC00003C0E0ECF3E002C0E4ECF3E06491EF0146
:103ED0002196662331F08FE19EE00E940310FE01DF
:103EE000F5CFE8EBF3E06491EF012196662331F022
:103EF0008FE19EE00E940310FE01F5CF2091B802F1
:103F00003091B9024091BA025091BB026091AC026B
:103F10007091AD028091AE029091AF020E947E9AA4
:103F2000AB01BC0186EB93E00E94E4692091BC02E6
:103F30003091BD024091BE025091BF026091B0022B
:103F40007091B1028091B2029091B3020E947E9A68
:103F5000AB01BC0183EB93E00E94E4692091C002B5
:103F60003091C1024091C2025091C3026091B402EB
:103F70007091B5028091B6029091B7020E947E9A2C
:103F8000AB01BC0180EB93E00E94E469E8EAF3E056
:103F90006491EF012196662331F08FE19EE00E944B
:103FA0000310FE01F5CF2091B8023091B902409183
:103FB000BA025091BB0260910B0170910C0180918B
:103FC0000D0190910E010E947E9AAB01BC0186EA20
:103FD00093E00E94E4692091BC023091BD024091BF
:103FE000BE025091BF0260910F017091100180914B
:103FF0001101909112010E947E9AAB01BC0183EAEB
:1040000093E00E94E4692091C0023091C102409186
:10401000C2025091C302609113017091140180910A
:104020001501909116010E947E9AAB01BC0180EAB5
:1040300093E00E94E4696AE08FE19EE0DF91CF9116
:104040000C9403100F931F93CF93DF938DED90E0AB
:104050000E94DB13811170C083E50E9475118823D3
:10406000B9F1C0919C02D0E00E94B811CC0FDD1FC5
:10407000C25DDE4F7983688380919C0290E0EC0101
:10408000CC0FDD1FCC0FDD1F8E01065D1E4F880F8C
:10409000991FFC01E25DFE4F60817181072E000CCB
:1040A000880B990B0E94949B2AE037ED43E25CE376
:1040B0000E94CB9CC65CDA4F288139814A815B81A2
:1040C0000E94CB9CF801608371838283938334C008
:1040D000E9E6F0E16491EF012196662331F08FE18A
:1040E0009EE00E940310FE01F5CF65E48FE19EE0A3
:1040F0000E94031060919C02605D8FE19EE00E942F
:104100000310E0919C02F0E0EE0FFF1FE25DFE4F16
:104110006081718188E993E00E94A76965E28FE17F
:104120009EE00E9403106AE08FE19EE0DF91CF9154
:104130001F910F910C940310DF91CF911F910F915C
:104140000895CF92DF92EF92FF92CF93DF938AE5AB
:104150000E947511811106C083E50E9475118823A4
:1041600009F481C00E94811120E030E040E050EC71
:104170000E94F59A87FD15C00E94811120E030E071
:1041800040E050E40E94979C18162CF00E94811188
:104190006B017C010BC0C12CD12CE12C90E4F92ED9
:1041A00005C0C12CD12CE12C80ECF82E20917E058D
:1041B00030917F0540918005509181058091730475
:1041C00082FF10C0C091270DD091280DC701B60104
:1041D0000E94CB9C0E94619BC60FD71FD093280DD5
:1041E000C093270D80E50E942A11882321F00E94A8
:1041F000E9118823C1F1A70196016091980270919D
:10420000990280919A0290919B020E947E9A6093FB
:1042100098027093990280939A0290939B02E9E628
:10422000F0E16491EF012196662331F08FE19EE089
:104230000E940310FE01F5CF40919802509199021F
:1042400060919A0270919B0287E893E00E94E46972
:104250006AE08FE19EE0DF91CF91FF90EF90DF90D9
:10426000CF900C940310DF91CF91FF90EF90DF90EF
:10427000CF900895CF93DF9385E40E94751181114B
:1042800010C080E50E942A11882391F00E948111BC
:104290006093310D7093320D8093330D9093340DF4
:1042A00007C00E94D811882361F3EFE6F0E172C0E5
:1042B00089E40E942A11882381F00E9481112CEA4E
:1042C00035EC47E25EE30E94CB9C60932D0D70932A
:1042D0002E0D80932F0D9093300D84E40E942A11AF
:1042E000882381F00E9481112CEA35EC47E25EE3DD
:1042F0000E94F99A6093290D70932A0D80932B0DDB
:1043000090932C0DE9E6F0E16491EF01219666238C
:1043100031F08FE19EE00E940310FE01F5CF409145
:10432000310D5091320D6091330D7091340D83E851
:1043300093E00E94E4692CEA35EC47E25EE3609189
:104340002D0D70912E0D80912F0D9091300D0E94AA
:10435000F99AAB01BC018FE793E00E94E4692CEA73
:1043600035EC47E25EE36091290D70912A0D809152
:104370002B0D90912C0D0E94CB9CAB01BC018BE7C7
:1043800093E00E94E4696AE08FE19EE0DF91CF91C3
:104390000C9403106491EF012196662331F08FE1B4
:1043A0009EE00E940310FE01F5CFE9E6F3E0649180
:1043B000EF012196662331F08FE19EE00E94031009
:1043C000FE01F5CFDF91CF910895CF93DF9383E581
:1043D0000E942A11C82F882371F00E9481110E9427
:1043E000619B70934D0160934C0121E0672B09F0B4
:1043F00020E020931C0D80E50E942A11882359F0AB
:1044000020914C0130914D01232B11F00E94E911B4
:1044100080931C0D31C0C1112FC0E9E6F0E1649119
:10442000EF012196662331F08FE19EE00E94031098
:10443000FE01F5CF80911C0D811103C066ED71E086
:1044400002C063ED71E086E593E00E947F696091B0
:104450004C0170914D0185E493E00E94A769E1E46D
:10446000F3E06491EF012196662331F08FE19EE045
:104470000E940310FE01F5CFDF91CF9108958F9236
:104480009F92AF92BF92EF92FF920F931F93CF93A1
:10449000DF9300D000D0CDB7DEB785E40E94751160
:1044A000882321F00E94B8118B0102C000E010E0C7
:1044B00083E40E947511882321F00E94B811F62E22
:1044C00002C025E0F22E85E50E947511882321F0B7
:1044D0000E94E911E82E04C085E50E942A11E82E09
:1044E00017FD07C0812C912C96E1A92E93E4B92EDB
:1044F00006C0812C912C8CE8A82E82E4B82E83E58E
:104500000E947511882321F00E9481114B015C01EA
:10451000C501B4010E94619B0115110511F41092AF
:104520009C02072E000C880B990B0E94949B6983B8
:104530007A838B839C832E2D4F2D602FCE01019685
:104540000E94E0830F900F900F900F90DF91CF911A
:104550001F910F91FF90EF90BF90AF909F908F9021
:1045600008952F923F924F925F926F927F928F9217
:104570009F92AF92BF92CF92DF92EF92FF920F93F2
:104580001F93CF93DF93CDB7DEB72F970FB6F89475
:10459000DEBF0FBECDBF41E061E081E00E940B169F
:1045A0008111BAC090E3892E99E0992E85E894E0B4
:1045B0009E878D87FE0131965F0105E119E01F019D
:1045C000F3E0F00FFF87F401659175918591949167
:1045D000ED85FE85C190D190E190F190FE87ED8749
:1045E000A70196010E947D9A2B013C0120E030E05A
:1045F00040EA51EC0E94979C87FD10C020E030E01B
:1046000040EA51E4C301B2010E94F59A181634F051
:10461000F10140825182628273820DC0F80184915F
:104620001816B4F7F7FAF094F7F8F094F101C08295
:10463000D182E282F382F101C190D190E190F190B8
:104640001F0120E030E040EA51ECC701B6010E94B2
:10465000979C87FF03C0EFE6F0E10BC020E030E05D
:1046600040EA51E4C701B6010E94F59A1816E4F435
:10467000F2CF64918F010F5F1F4F662331F08FE1FE
:104680009EE00E940310F801F4CFE8EDF3E064919E
:104690008F010F5F1F4F662309F43EC08FE19EE03C
:1046A0000E940310F801F3CFF4E08F0E911C0F5F0E
:1046B0001F4F8F85801387CF84ECE82E82E0F82E81
:1046C00010E0F50181919191A191B1915F01F70104
:1046D00081939193A193B1937F01812F0E94201424
:1046E0001F5F133071F72F960FB6F894DEBF0FBE21
:1046F000CDBFDF91CF911F910F91FF90EF90DF9091
:10470000CF90BF90AF909F908F907F906F905F9071
:104710004F903F902F90C9C82F960FB6F894DEBFE8
:104720000FBECDBFDF91CF911F910F91FF90EF9002
:10473000DF90CF90BF90AF909F908F907F906F90C1
:104740005F904F903F902F900895CF93DF930E94FA
:10475000E54B8823D1F0E9E6F0E16491EF01219681
:10476000662331F08FE19EE00E940310FE01F5CF39
:10477000EDEDF2E06491EF012196662331F08FE1D7
:104780009EE00E940310FE01F5CFDF91CF910895C6
:10479000CF92DF92EF92FF92CF93DF938AE50E9450
:1047A0007511882309F43AC00E9481116B017C01C4
:1047B00020E030E040EA50EC0E94979C87FD13C057
:1047C00020E030E040EA51E4C701B6010E94F59ACA
:1047D00018164CF0C0929802D0929902E0929A0278
:1047E000F0929B024CC0EFE6F0E16491EF0121965C
:1047F00061110EC0E1ECF2E06491EF0121966623B5
:1048000009F43DC08FE19EE00E940310FE01F4CF49
:104810008FE19EE00E940310FE01E7CFE9E6F0E1A0
:104820006491EF012196662331F08FE19EE00E94B2
:104830000310FE01F5CFE2EBF2E06491EF01219667
:10484000662331F08FE19EE00E940310FE01F5CF58
:10485000409198025091990260919A0270919B0246
:104860008FEA92E00E94E4696AE08FE19EE0DF91C6
:10487000CF91FF90EF90DF90CF900C940310DF91D9
:10488000CF91FF90EF90DF90CF900895CF92DF927D
:10489000EF92FF92CF93DF938BE40E9475118823F0
:1048A000B1F18BE40E9475118823B1F00E9481114F
:1048B0006B017C0120E030E0A9010E94979C87FDFC
:1048C00019C020E030E040E251E4C701B6010E9487
:1048D000F59A18167CF003C0C12CD12C76010E94E9
:1048E000395AC092E704D092E804E092E904F092C9
:1048F000EA0431C0E0E9F2E06491EF012196662319
:1049000051F18FE19EE00E940310FE01F5CFE9E630
:10491000F0E16491EF012196662331F08FE19EE092
:104920000E940310FE01F5CF4091E7045091E80486
:104930006091E9047091EA0485E892E00E94E469DC
:104940006AE08FE19EE0DF91CF91FF90EF90DF90E2
:10495000CF900C940310DF91CF91FF90EF90DF90F8
:10496000CF900895CF92DF92EF92FF920F931F9313
:10497000CF9383E50E942A11811104C001EF11E059
:10498000C0E00EC00E9481116B017C01C0E0B70144
:10499000A6018C2F0E941078CF5FC530C1F7EECFF3
:1049A000F80181918F010E942A11882339F00E9419
:1049B0008111AB01BC018C2F0E941078CF5FC430F5
:1049C00079F7CF911F910F91FF90EF90DF90CF90EB
:1049D0000895CF93DF9383E50E947511882321F01A
:1049E0000E94B811EB0102C0C0E0D0E080E50E9457
:1049F0007511882319F00E94D81101C08FEFBE01F4
:104A0000DF91CF910C945178CF93DF93EFE6F0E1F3
:104A10006491EF012196662331F08FE19EE00E94C0
:104A20000310FE01F5CFE2E3F3E06491EF0121967C
:104A3000662331F08FE19EE00E940310FE01F5CF66
:104A4000DF91CF9108951F93CF93DF93182FE9E65D
:104A5000F0E16491EF012196662331F08FE19EE051
:104A60000E940310FE01F5CF64E58FE19EE00E94F5
:104A70000310412F50E060E070E020E08FE19EE005
:104A80000E948E9160E28FE19EE00E940310E0E1BF
:104A9000F7E06491EF012196662331F08FE19EE00B
:104AA0000E940310FE01F5CFDF91CF911F91089571
:104AB000CF93DF93E0916904F0E0E857FD4F8081E8
:104AC0008823A1F0E9E7F2E06491EF0121966623E3
:104AD00031F08FE19EE00E940310FE01F5CF6AE005
:104AE0008FE19EE0DF91CF910C940310DF91CF9185
:104AF0000895CF92DF92EF92FF92CF93DF932091B0
:104B00000A01222309F485C0EC01C090AC02D090C8
:104B1000AD02E090AE02F090AF02A701960168816D
:104B200079818A819B810E94F59A87FF04C0C8829F
:104B3000D982EA82FB82C090B002D090B102E090AC
:104B4000B202F090B302A70196016C817D818E8143
:104B50009F810E94F59A87FF04C0CC82DD82EE829D
:104B6000FF82C0900B01D0900C01E0900D01F090FD
:104B70000E01A7019601688179818A819B810E943B
:104B8000979C181624F4C882D982EA82FB82C090CE
:104B90000F01D0901001E0901101F0901201A701D7
:104BA00096016C817D818E819F810E94979C181651
:104BB00024F4CC82DD82EE82FF82C090B402D090D9
:104BC000B502E090B602F090B702A70196016885A1
:104BD00079858A859B850E94F59A87FF04C0C886DF
:104BE000D986EA86FB86C0901301D0901401E0902C
:104BF0001501F0901601A7019601688579858A85CF
:104C00009B850E94979C181624F4C886D986EA864C
:104C1000FB86DF91CF91FF90EF90DF90CF900895CA
:104C2000CF93DF9380E00E94255ACCE8D2E06883DE
:104C300079838A839B8381E00E94255A6C837D83DC
:104C40008E839F8382E00E94255A688779878A87AE
:104C50009B87DF91CF910895CF93DF93E1DF6BE5E1
:104C60008FE19EE00E940310CCE8D2E04881598198
:104C70006A817B8122E08FE19EE00E94F7914C8166
:104C80005D816E817F8186E497E00E94E4694885BA
:104C900059856A857B8583E497E00E94E4696DE528
:104CA0008FE19EE00E9403106AE08FE19EE0DF91B9
:104CB000CF910C940310CF93C82FB2DF8CE892E011
:104CC0000E943E59CE3F51F48CE0ECE8F2E0A5E8BA
:104CD000B4E001900D928A95E1F713C024E0C29FE1
:104CE000C0011124FC01EB57FB4FDC01A457BD4F61
:104CF0008D919D910D90BC91A02D80839183A28375
:104D0000B383CF910895CF9390913905891789F096
:104D1000C82F0E94395AC0933905C11103C08EEFC4
:104D2000CADF04C085E894E00E943E59CF910C94FC
:104D3000F811CF91089580E0E6DF85E195E00C94CD
:104D4000638C8F929F92AF92BF92EF92FF920F93DC
:104D50001F93CF93DF9300D000D0CDB7DEB7182FCD
:104D6000909173049770973079F48FE40E947511D5
:104D7000882329F00E94E911882331F094C08FE440
:104D80000E942A1181118FC00E94395A80E0BBDF36
:104D90000E94D31581E00E946C4D11111AC088E564
:104DA0000E942A11F82E89E50E942A11082F8AE50F
:104DB0000E942A11E82EF11007C0011111C08111C3
:104DC00010C0F02E11E00DC0002351F0F02E182F6E
:104DD00008C001E0FF24F394EE24E39411E001C045
:104DE00010E080E1E5E8F4E0A5E7B4E001900D9281
:104DF0008A95E1F782E50E947511882361F00E948F
:104E000081114B015C0120E030E0A9010E94F59A7C
:104E1000882369F105C0812C912C80E4A82EBA2C3E
:104E2000111104C0F11002C0002391F180927D04A1
:104E300090927E04A0927F04B092800420918D0411
:104E400030918E0440918F0450919004C501B401BB
:104E50000E94979C18165CF419821A821B821C828D
:104E6000BE016F5F7F4F8DE794E00E949415111192
:104E700005C0F11003C0011106C00AC080E00E9405
:104E800036171123C1F381E00E943617111101C0BA
:104E9000E1100E9490190E94F8110E946F4D0E942B
:104EA000F2150E94551C0F900F900F900F90DF91FC
:104EB000CF911F910F91FF90EF90BF90AF909F9077
:104EC0008F900895CF93DF93C82F0E94395AD091C5
:104ED000390580E018DFCC2321F08C2FDF91CF91B2
:104EE000B2CD1092A9028D2F0EDFE9E6F0E16491B8
:104EF000EF012196662331F08FE19EE00E940310BE
:104F0000FE01F5CF6091A90270E082E297E00E9475
:104F1000A7696AE08FE19EE0DF91CF910C940310C6
:104F20000F931F93CF93DF93CDB7DEB72C970FB6B8
:104F3000F894DEBF0FBECDBF83E50E942A118823FF
:104F400041F00E94E911182F811105C080E0DBDEDD
:104F500002C0109139058091850490918604A0913A
:104F60008704B091880489839A83AB83BC83809142
:104F7000890490918A04A0918B04B0918C048D8354
:104F80009E83AF83B88780918D0490918E04A09109
:104F90008F04B091900489879A87AB87BC8786E598
:104FA0000E942A11882331F065E173E085E195E0E4
:104FB0000E94508E812FA7DE111103C0E9E6F0E1B7
:104FC00020C0809139058111F9CFEFE6F0E16491BD
:104FD0008F010F5F1F4F662331F08FE19EE00E942B
:104FE0000310F801F4CFE6EFF2E064918F010F5F58
:104FF0001F4F662319F38FE19EE00E940310F80112
:10500000F4CF64918F010F5F1F4F662331F08FE162
:105010009EE00E940310F801F4CF809139058111C0
:1050200003C06EED71E002C06AED71E088EE92E0BF
:105030000E947F696AE08FE19EE00E9403104CE0CD
:1050400050E065E874E0CE0101960E9487A1892BAB
:1050500061F02C960FB6F894DEBF0FBECDBFDF9186
:10506000CF911F910F910C94551C2C960FB6F8946C
:10507000DEBF0FBECDBFDF91CF911F910F9108957D
:105080000E94D6590E94395A8EEF15DE0C94F81101
:105090002F923F924F925F926F927F928F929F9248
:1050A000AF92BF92CF92DF92EF92FF920F931F9336
:1050B000CF93DF93CDB7DEB7A0970FB6F894DEBFDE
:1050C0000FBECDBF1C017F8F6E8F498F28A3DC01DF
:1050D0008D909D90AD90BC90FB014080518062808E
:1050E00073800023A1F0A3019201C501B4010E94C5
:1050F0007B0F882309F4EFC120E030E040EA51E45F
:10510000C501B4010E947D9A4B015C012AC02FE6C3
:1051100032E143E85AEBC501B4010E94979C87FD38
:10512000DAC122E430E046E153E4C501B4010E9453
:10513000F59A18160CF4CFC12FE632E143E85AEB8A
:10514000C301B2010E94979C87FDC5C122E430E0F3
:1051500046E153E4C301B2010E94F59A18160CF41B
:10516000BAC1E0908D04F0908E0400918F041091EC
:1051700090048091190190911A01A0911B01B091A6
:105180001C018A8F9B8FAC8FBD8F80910101909104
:105190000201A0910301B091040180931901909341
:1051A0001A01A0931B01B0931C0119821A821B8261
:1051B0001C82DE0111966D01A3019201C501B401AB
:1051C0000E94B71481E00E9495168111E4C080917D
:1051D000730482FF11C0209198023091990240918E
:1051E0009A0250919B0260E070E080E090EC0E9497
:1051F0007D9A2B013C0106C0412C512C90E2692E76
:1052000091EC792E4D865E866F86788AC12CD12CE2
:1052100080E8E82E80E4F82EC986DA86EB86FC86E4
:10522000BE01675F7F4FCE010D960E9494151091CD
:10523000A3041092A30482E03EDD0E94F81112FD47
:1052400005C060E070E080EC9FE75EC080908D0458
:1052500090908E04A0908F04B0909004C982DA825E
:10526000EB82FC8220E030E040E450E4C501B40170
:105270000E947E9A6D837E838F839887BE016F5FC5
:105280007F4FCE0105960E9494154D825E826F82FB
:10529000788680E090E0A0E0B0E489839A83AB83D5
:1052A000BC83BE016F5F7F4FCE0105960E949415AF
:1052B0001091A3041092A30482E0FDDC0E94F81177
:1052C00012FFBFCF20E030E040E450E460918D0455
:1052D00070918E0480918F04909190040E94CB9CD9
:1052E0002B013C01A5019401C501B4010E947E9AE5
:1052F0009B01AC01C301B2010E947E9A2DEC3CECF3
:105300004CE45EE30E94CB9C20919802309199027C
:1053100040919A0250919B020E947E9A5B018C01FF
:10532000898D8250823050F580E090E0A0E8B0E4B2
:10533000898B9A8BAB8BBC8B60918D0470918E04A2
:1053400080918F0490919004B98DB33029F020E0C2
:1053500030E040E450E404C020E030E048EC51E4A8
:105360000E947E9A6D8B7E8B8F8B988FBE016F5EB5
:105370007F4FCE0145960E94941508C0E98DE1301B
:1053800029F480E00E949516811105C0F8A1F33040
:1053900008F46FC008C098A1933008F4A1C0A12CF4
:1053A000B12C00EC1FE7E8EDF7E064914F012FEF1F
:1053B000821A920A662331F08FE19EE00E94031068
:1053C000F401F3CF2091B8023091B9024091BA02B2
:1053D0005091BB02D1016D917D918D919C910E9464
:1053E0007E9AAB01BC0123E08FE19EE00E94F79121
:1053F000E3EDF7E064914F01BFEF8B1A9B0A662340
:1054000031F08FE19EE00E940310F401F3CF209170
:10541000BC023091BD024091BE025091BF02EE8DA0
:10542000FF8D60817181828193810E947E9AAB01A0
:10543000BC0123E08FE19EE00E94F791EEECF7E0E3
:1054400064914F012FEF821A920A662331F08FE1A7
:105450009EE00E940310F401F3CF23E0A501B80100
:105460008FE19EE00E94F7916AE08FE19EE00E944A
:1054700003108A8D9B8DAC8DBD8D80931901909307
:105480001A01A0931B01B0931C019501A801B5015D
:10549000C8010E94709D8823A1F1EFE6F0E16491BC
:1054A0004F019FEF891A990A662331F08FE19EE040
:1054B0000E940310F401F3CFEEEBF7E064914F018B
:1054C000AFEF8A1A9A0A6623E1F08FE19EE00E940C
:1054D0000310F401F3CFA12CB12C00EC1FE711C095
:1054E0008A8D9B8DAC8DBD8D8093190190931A018F
:1054F000A0931B01B0931C01A12CB12C00EC1FE761
:10550000CCCFB501C801A0960FB6F894DEBF0FBE90
:10551000CDBFDF91CF911F910F91FF90EF90DF9062
:10552000CF90BF90AF909F908F907F906F905F9043
:105530004F903F902F9008952F923F924F925F92FD
:105540006F927F928F929F92AF92BF92CF92DF9293
:10555000EF92FF920F931F93CF93DF93CDB7DEB7F8
:10556000C558D1090FB6F894DEBF0FBECDBF41E0DC
:1055700061E081E00E940B1681119DC28091390586
:10558000882379F08FE40E947511882329F00E9406
:10559000E911882331F08FC28FE40E942A11811112
:1055A0008AC2C12CD12C760100E010E020E231E467
:1055B00040E050E060EA71E4CE0101960E94038968
:1055C00000E010E020E231E440E050E06CE073E401
:1055D000CE010D960E94038900E010E02CE033E438
:1055E00040E050E066E972E4CE0149960E940389EA
:1055F000F09039058AE40E942A11882311F09BDB80
:105600005AC286E50E947511882321F00E94B811C4
:105610001B0102C0212C312C25E02216310480F020
:10562000E8EEF6E064917F013FEFE31AF30A6623A8
:1056300009F441C28FE19EE00E940310F701F2CF0E
:1056400084E40E947511882341F00E94E911CB5730
:10565000DF4F8883C558D04008C084E40E942A11D7
:10566000CB57DF4F8883C558D0402114310451F106
:10567000E2EDF6E064916F014FEFC41AD40A66239D
:1056800031F08FE19EE00E940310F601F3CFCB577B
:10569000DF4F5881C558D040552379F0E8ECF6E04B
:1056A00064916F018FEFC81AD80A662331F08FE139
:1056B0009EE00E940310F601F3CF6AE08FE19EE0C6
:1056C0000E9403100E94395A80E01DDB81E00E9495
:1056D0009516882319F08F2D16DBEDC10E94D31586
:1056E00019A21AA21BA21CA21D8A1E8A1F8A188E2A
:1056F00019861A861B861C8685E40E9475118823EC
:1057000029F00E94E911882341F005C085E40E9438
:105710002A11882311F011E001C012E0DE01119678
:105720006D015E01B5E2AB0EB11CF6018081918185
:10573000A281B3816D968CAF9DAFAEAFBFAF6D97B9
:1057400084819581A681B78169968CAF9DAFAEAFFC
:10575000BFAF699701E0222D412FBE016B5A7F4FE9
:10576000CE01875A9F4F94DC2B013C019B01AC0179
:105770000E94709D882319F08F2DC5DAF1C0D601E3
:1057800018964D925D926D927C921B97BCE0CB0E69
:10579000D11CCA14DB0449F6CB57DF4FB881C5587A
:1057A000D040B111DDC0AD84BE84CF84D888E988F3
:1057B000FA880B891C892D893E894F89588DBE0135
:1057C000675E7F4FCE01C1960E94E089AD84BE84A2
:1057D000CF84D888E988FA880B891C892D893E896D
:1057E0004F89588DBE016F5F7F4FCE0185960E9415
:1057F000E0894DB75EB74C5051090FB6F8945EBFC3
:105800000FBE4DBFADB7BEB711968CE0FE01F1964D
:1058100001900D928A95E1F7CDA0DEA0EFA0F8A44B
:1058200009A51AA52BA53CA54DA55EA56FA578A930
:10583000CE01CD960E941D89BE01635C7F4FCE01D3
:10584000875B9F4F0E94E98A2D96CCACDDACEEAC15
:10585000FFAC2D9761968CAD9DADAEADBFAD6197A0
:10586000CF57DF4F88839983AA83BB83C158D04029
:1058700065968CAC9DACAEACBFAC65970FB6F8949A
:10588000DEBF0FBECDBF20E030E0A901C501B401ED
:105890000E94F59A87FF19C0F7FAF094F7F8F09490
:1058A000CF57DF4F288139814A815B81C158D04071
:1058B0005058CF57DF4F288339834A835B83C158C1
:1058C000D040B7FAB094B7F8B0942D96CCAEDDAE18
:1058D000EEAEFFAE2D97CF57DF4F0881C158D040B5
:1058E000CF57DF4F288139814A815B81C158D04031
:1058F00061962CAF3DAF4EAF5FAF6197482D659677
:105900008CAE9DAEAEAEBFAE65972B96DFAC2B973F
:105910002C96EFAC2C972D96FFAC2D972F961FADA4
:105920002F9760962FAD609761963FAD6197639614
:105930005FAD639764966FAD649765967FAD65972D
:10594000CE01835A9F4F0E948D8C84E2FE01E35A60
:10595000FF4FA5E1B5E001900D928A95E1F7F12C9A
:1059600080E00E949516882319F08F2DCCD997C01E
:10597000A3019201C301B2010E94709D81118FC0E9
:10598000232831F069EA76E085E195E00E94508EA7
:10599000CB57DF4F3881C558D04031117DC08CE0E6
:1059A000E5E8F4E0DE01DD9601900D928A95E1F7DD
:1059B00081E080933905CE01CD960E943E5920E0CA
:1059C00030E040EA51E46D966CAD7DAD8EAD9FAD9B
:1059D0006D970E947D9A9B01AC0160918504709146
:1059E000860480918704909188040E947D9A6B01BF
:1059F0007C012DEB37E346E855EB0E94979C87FD31
:105A000040C02DEB37E346E855E3C701B6010E94DD
:105A1000F59A1816B4F169962CAD3DAD4EAD5FAD5B
:105A200069976091890470918A0480918B049091A8
:105A30008C040E947D9A6B017C012DEB37E346E8D4
:105A400055EB0E94979C87FD1CC02DEB37E346E881
:105A500055E3C701B6010E94F59A181694F0A30108
:105A6000920160918D0470918E0480918F049091C9
:105A700090040E947D9A29966CAF7DAF8EAF9FAF48
:105A800029978CE0FE01FD96A5E8B4E001900D9207
:105A90008A95E1F781E001C08F2D809339050E943E
:105AA000F21581E0809387028091390581110E946F
:105AB000F8110E94551CCB57DF4F0FB6F894DEBF8C
:105AC0000FBECDBFDF91CF911F910F91FF90EF904F
:105AD000DF90CF90BF90AF909F908F907F906F900E
