:100000000C94EE100C9418110C9418110C941811F7
:100010000C9418110C9418110C9418110C941811BC
:100020000C9418110C9418110C94CBB20C9448B386
:100030000C9418110C9418110C9418110C9418119C
:100040000C9418110C9420870C9418110C9418110E
:100050000C9418110C9418110C943C9C0C942AB21A
:100060000C9418110C9418110C9418110C9418116C
:100070000C9418110C9418110C9418110C9418115C
:100080000C9418110C9418110C9418110C9418114C
:100090000C94DDA80C941811B9AFE5AF07B007B008
:1000A00007B007B007B007B007B007B007B007B098
:1000B00007B007B0FDAFF5AFEDAF07B007B007B0C1
:1000C00007B007B007B007B0DFAFC5AFCDAFD7AF50
:1000D000084AD73B3BCE016E84BCBFFDC12F3D6CAF
:1000E00074319ABD56833DDA3D00C77F11BED9E415
:1000F000BB4C3E916BAAAABE000000803F05A84CF5
:10010000CDB2D44EB93836A9020C50B991868808C0
:100110003CA6AAAA2ABE000000803F004E414E49DC
:100120004E495459494E46CDCCCC3D0AD7233C17B5
:10013000B7D13877CC2B329595E6241FB14F0A0002
:100140000020410000C84200401C4620BCBE4CCAF2
:100150001B0E5AAEC59D742020506C616E6E657288
:1001600042756666657242797465733A200020466E
:10017000726565204D656D6F72793A2000436F6D31
:1001800070696C65643A20466562203234203230F2
:1001900031390A00207C20417574686F723A20283A
:1001A00044722E5068696C3344290A003230313869
:1001B0002D30382D303100204C617374205570641F
:1001C000617465643A2000312E312E390A004D6188
:1001D000726C696E0020536F66747761726520528D
:1001E000657365740A00205761746368646F6720E3
:1001F00052657365740A002042726F776E206F75C6
:10020000742052657365740A002045787465726EB7
:10021000616C2052657365740A00506F7765725582
:10022000700A0073746172740A005072696E7465AA
:10023000722068616C7465642E206B696C6C28296F
:100240002063616C6C6564210A004B494C4C454449
:100250002E20004B494C4C2063617573656420620D
:100260007920746F6F206D75636820696E616374A7
:100270006976652074696D65202D206375727265DD
:100280006E7420636F6D6D616E643A200020746F30
:100290006F206C6F6E6720657874727573696F6E0E
:1002A0002070726576656E7465640A0020636F6CF9
:1002B0006420657874727573696F6E2070726576EC
:1002C000656E7465640A006F6B00526573656E64D9
:1002D0003A20003A004361703A0000011C1D132FC0
:1002E000FFFFFFFF1E1F12FF18FFFFFF2021112439
:1002F000FFFFFFFFFFFFFF0E10FFFFFF22230DFF99
:10030000FFFF0E260F2C2741637469766520457820
:100310007472756465723A200020453A00205A3A9A
:100320000020593A00583A002C20002C2000627519
:1003300073793A2070617573656420666F72206905
:100340006E7075740A00627573793A207061757306
:10035000656420666F7220757365720A006275733A
:10036000793A2070726F63657373696E670A005023
:10037000726F62696E67206661696C65640A00204D
:100380005A3A200020593A200042656420583A2009
:10039000002066697273740A005A005900580048B8
:1003A0006F6D65200020496E76616C696420657808
:1003B0007472756465722000656E71756575656926
:1003C0006E67202200496E76616C696420657874DE
:1003D00072756465720A004E6F2063617365206CEC
:1003E000696768740A00416476616E6365204B3DFD
:1003F000003F4B2076616C7565206F7574206F66C9
:100400002072616E67652028302D3130292E0A0058
:1004100020595A3A200020585A3A2000536B6577E9
:1004200020466163746F722058593A20006D696EDE
:100430005F736B65775F666163746F723A20202D1E
:1004400031206D61785F736B65775F666163746F90
:10045000723A2020310A003A200050726F62652003
:100460005A204F6666736574003F5A206F7574207A
:100470006F662072616E676520282D322E352074DC
:100480006F203230290A00454550524F4D204F4BC6
:100490000A00546F6F206661722066726F6D207261
:1004A00065666572656E636520706F696E740A00BB
:1004B000426564204C6576656C696E672000466114
:1004C000696C656420746F20656E61626C652042A2
:1004D0006564204C6576656C696E670A00426564E8
:1004E000204C6576656C20436F7272656374696F2A
:1004F0006E204D61747269783A0043290A00616286
:100500006C656420286D696E2074656D70200043F1
:100510006F6C6420657874727564657320617265B0
:100520002000496E76616C69642065787472756428
:1005300065720A0020643A0020693A0020703A008F
:1005400050726F6265205A204F66667365743A2058
:100550000020466C6F773A2000205A00205900583E
:100560000020204D61783A2000205A002059005880
:100570000020204D696E3A20004F6666004F6E20C5
:1005800000536F667420656E6473746F70733A20E5
:1005900000205400205200416363656C65726174F1
:1005A000696F6E3A2050002F2F2000544845524D5D
:1005B000414C5F50524F54454354494F4E004155B2
:1005C000544F5245504F52545F53445F535441541B
:1005D000555300454D455247454E43595F50415292
:1005E00053455200434153455F4C494748545F428D
:1005F00052494748544E45535300544F47474C4582
:100600005F4C494748545300534F46545741524555
:100610005F504F574552004255494C445F50455238
:1006200043454E54004C4556454C494E475F444166
:100630005441005A5F50524F4245004155544F4C6F
:100640004556454C005052494E545F4A4F42005067
:10065000524F4752455353004155544F5245504F06
:1006600052545F54454D5000564F4C554D455452D1
:10067000494300454550524F4D0053455249414C66
:100680005F584F4E5F584F4646004649524D5741BE
:1006900052455F4E414D453A4D61726C696E203155
:1006A0002E312E3920284769746875622920534FEE
:1006B000555243455F434F44455F55524C3A687429
:1006C0007470733A2F2F6769746875622E636F6D4B
:1006D0002F4D61726C696E4669726D776172652F1C
:1006E0004D61726C696E2050524F544F434F4C5FB6
:1006F00056455253494F4E3A312E30204D414348D2
:10070000494E455F545950453A5072696E74726251
:100710006F7420506C61792076312E30204558540A
:1007200052554445525F434F554E543A312055552A
:1007300049443A34306365363164312D3265643072
:100740002D343533302D383330342D353565336520
:10075000656161656266660A004D31313320530080
:100760006F66660044454255473A00960791078AEE
:100770000783077507434F4D4D554E494341544933
:100780004F4E0044525952554E004552524F52530B
:1007900000494E464F004543484F0020573A004B12
:1007A000494C4C45442E20006F6B005374616E64BD
:1007B00061726420446576696174696F6E3A2000E5
:1007C0002052616E67653A2000204D61783A200022
:1007D000204D696E3A20004D65616E3A20004669F1
:1007E0006E6973686564210A002072616E67653AFC
:1007F0002000206D61783A2000206D696E3A20005B
:10080000207369676D613A2000206D65616E3A2042
:10081000003A207A3A2000206F662000205A0020FB
:100820005900205800476F696E6720746F3A004383
:100830006C6F636B776973650A00436F756E7465DF
:10084000722D0020446972656374696F6E3A2000EE
:10085000202020616E676C653A20005374617274C9
:10086000696E67207261646975733A2000506F7316
:100870006974696F6E696E67207468652070726F45
:1008800062652E2E2E0A003F4E756D626572206FD6
:1008900066206C65677320696E206D6F76656D6587
:1008A0006E74206E6F7420706C61757369626C6514
:1008B0002028302D3135292E0A003F2028582C5968
:1008C00029206F7574206F6620626F756E64732EB9
:1008D0000A003F53616D706C652073697A65206E04
:1008E0006F7420706C61757369626C652028342D9B
:1008F0003530292E0A004D3438205A2D50726F623F
:1009000065205265706561746162696C69747920F3
:10091000546573740A003F2856296572626F7365C7
:10092000206C6576656C20697320696D706C6175EB
:100930007369626C652028302D34292E0A005072AC
:100940006F7465637465642050696E0A0050726943
:100950006E742074696D653A2000205A3A20002098
:10096000593A200042656420583A20004731205A05
:1009700031302046373030300A4731205830205946
:1009800030204637303030000A0A426564204C651A
:1009900076656C20436F7272656374696F6E204D6B
:1009A00061747269783A00202B000A436F72726595
:1009B00063746564204265642048656967687420D3
:1009C00076732E2042656420546F706F6C6F677968
:1009D0003A0A00202B000A4265642048656967686E
:1009E0007420546F706F6772617068793A0A2020C2
:1009F000202B2D2D2D204241434B202D2D2B0A2025
:100A000020207C20202020202020202020207C0A44
:100A1000204C207C20202020282B29202020207CD6
:100A200020520A2045207C20202020202020202029
:100A300020207C20490A2046207C20282D29204E79
:100A400020282B29207C20470A2054207C2020208D
:100A500020202020202020207C20480A2020207CCC
:100A600020202020282D29202020207C20540A20EE
:100A700020207C20202020202020202020207C0AD4
:100A80002020204F2D2D2046524F4E54202D2D2B0F
:100A90000A2028302C30290A004D65616E206F66CF
:100AA0002073616D706C656420706F696E74733A49
:100AB000200020643A200020623A200045716E2018
:100AC000636F656666696369656E74733A20613A3F
:100AD0002000202844525952554E290047323920CF
:100AE0004175746F20426564204C6576656C696E53
:100AF00067003F20284C2C522C462C4229206F7531
:100B000074206F6620626F756E64732E0A003F500A
:100B1000726F626520706F696E7473202859292086
:100B2000697320696D706C61757369626C652028EA
:100B3000322D33292E0A003F50726F626520706F8C
:100B4000696E74732028582920697320696D706C50
:100B500061757369626C652028322D33292E0A0075
:100B60003F2856296572626F7365206C6576656CE7
:100B700020697320696D706C61757369626C6520A2
:100B800028302D34292E0A00486F6D6520585920D1
:100B900066697273740A0047322F473320626164BA
:100BA00020706172616D65746572730A00576172BD
:100BB0006E696E673A20486F6D696E672042756D89
:100BC000702044697669736F72203C20310A0002FC
:100BD00002044B494C4C45442E20005072696E74FF
:100BE00065722073746F707065642064756520741D
:100BF0006F206572726F72732E2046697820746858
:100C000065206572726F7220616E64207573652055
:100C10004D39393920746F20726573746172742E86
:100C2000202854656D7065726174757265206973F2
:100C30002072657365742E20536574206974206179
:100C4000667465722072657374617274696E672967
:100C50000A004E6F20436865636B73756D2077697A
:100C60007468206C696E65206E756D6265722C20EB
:100C70004C617374204C696E653A2000636865634B
:100C80006B73756D206D69736D617463682C204C96
:100C9000617374204C696E653A20004C696E652062
:100CA0004E756D626572206973206E6F74204C61A1
:100CB0007374204C696E65204E756D6265722B31C0
:100CC0002C204C617374204C696E653A20004D31C4
:100CD000313000FF01FF0000A0400000A0400000F4
:100CE00000400000C8420000CC4200000343000066
:100CF00000000000C842000000000000C8420000E0
:100D0000C8420000034300000000000000C00000D3
:100D100000000000484200004842000080400000FF
:100D200000002569730025696D2025697300256918
:100D3000682025696D20256973002569642025696F
:100D4000682025696D20256973002569792025694A
:100D500064202569682025696D202569730020209D
:100D60004D393030204B004C696E65617220416412
:100D700076616E63653A0A00204B00204A0020200D
:100D80004D383532204900536B65772046616374D6
:100D90006F723A200A0020204D383531205A005A0F
:100DA0002D50726F6265204F666673657400204433
:100DB0000020490020204D3330312050005049445C
:100DC0002073657474696E67733A0A0020204D348D
:100DD00032302053004175746F20426564204C65A9
:100DE00076656C696E673A0A00205A002059002027
:100DF000204D323036205800486F6D65206F666692
:100E00007365743A0A00204500205A0020590020DA
:100E1000580020540020530020204D3230352051FE
:100E20000020453C6D61785F655F6A65726B3E00CE
:100E300020583C6D61785F785F6A65726B3E20591F
:100E40003C6D61785F795F6A65726B3E205A3C6DDC
:100E500061785F7A5F6A65726B3E00416476616EAD
:100E60006365643A20513C6D696E5F7365676D65BB
:100E70006E745F74696D655F75733E20533C6D6978
:100E80006E5F66656564726174653E20543C6D6991
:100E90006E5F74726176656C5F66656564726174BD
:100EA000653E0020540020520020204D3230342076
:100EB0005000416363656C65726174696F6E2028D0
:100EC000756E6974732F7332293A20503C707269C1
:100ED0006E745F616363656C3E20523C7265747230
:100EE0006163745F616363656C3E20543C7472613E
:100EF00076656C5F616363656C3E0A002045002087
:100F00005A0020590020204D3230312058004D61C8
:100F100078696D756D20416363656C657261746994
:100F20006F6E2028756E6974732F7332293A0A0028
:100F3000204500205A0020590020204D3230332017
:100F400058004D6178696D756D20666565647261E4
:100F50007465732028756E6974732F73293A0A00BB
:100F6000204500205A0020590020204D39322058B9
:100F70000053746570732070657220756E69743AE1
:100F80000A0020204D3230302044300A0020204D0D
:100F90003230302044002044697361626C65640A19
:100FA0000046696C616D656E742073657474696E5A
:100FB00067733A002020473231202020203B004830
:100FC000617264636F6465642044656661756C7406
:100FD0002053657474696E6773204C6F6164656437
:100FE0000A00DC050000DC0500006400000010279A
:100FF00000000000FA420000FA420000A040000099
:1010000020420000A0420000A0420080FC440000FA
:10101000BD42290A002062797465733B20637263C4
:1010200020002073746F7265642073657474696E38
:101030006773207265747269657665642028002084
:101040002863616C63756C6174656429210A0020F2
:10105000213D2000454550524F4D20435243206DC5
:1010600069736D61746368202D202873746F7265D5
:10107000642920002053697A653A2000496E64652E
:10108000783A2000204D61726C696E3D56353529E5
:101090000A0028454550524F4D3D00454550524F9E
:1010A0004D2076657273696F6E206D69736D617422
:1010B00063682000290A002062797465733B20630D
:1010C0007263200053657474696E67732053746F84
:1010D000726564202800454550524F4D206461746C
:1010E0006173697A65206572726F722E0A004572AB
:1010F000726F722077726974696E6720746F204511
:101100004550524F4D210A003A0A0020286D6D29A2
:10111000006F70656E005452494747455245440080
:101120003A20007A5F6D696E00795F6D61780078B2
:101130005F6D696E005265706F7274696E672065CD
:101140006E6473746F70207374617475730A002019
:101150005A3A0020593A0020583A00656E64737478
:101160006F7073206869743A2000486F6D696E670C
:10117000206661696C656400556E6B6E6F776E20DA
:10118000636F6D6D616E643A20220020746F6F2072
:101190006C6F6E6720657874727573696F6E2070FE
:1011A000726576656E7465640A0020636F6C6420F6
:1011B000657874727573696F6E2070726576656E8E
:1011C0007465640A00FFFDFCFAF8F6F4F2F0EEEC48
:1011D000EAE9E7E5E3E1E0DEDCDAD9D7D5D4D2D03D
:1011E000CFCDCBCAC8C7C5C3C2C0BFBDBCBAB9B7D3
:1011F000B6B4B3B2B0AFADACAAA9A8A6A5A4A2A13B
:10120000A09E9D9C9A99989795949392908F8E8D7D
:101210008B8A8988878684838281807F7E7D7B7AA2
:10122000797877767574737271706F6E6D6C6B6AA6
:10123000696867666564636261605F5E5D5C5B5A96
:101240005958585756555453525150504F4E4D4C73
:101250004B4A4A4948474646454443424241403F3B
:101260003E3E3D3C3B3B3A393838373635353433F2
:1012700032323130302F2E2E2D2C2B2B2A2929289B
:10128000272726252524232322212120201F1E1E37
:101290001D1C1C1B1B1A19191818171616151514C6
:1012A000131312121111100F0F0E0E0D0D0C0C0B4B
:1012B0000A0A0909080807070606050504040303C6
:1012C0000202010000000000010000000100008097
:1012D00000555555000000400033333300AAAA2AB8
:1012E000004992240000002000C7711C0099991940
:1012F00000D1451700555515003BB1130024491284
:101300000011111100000010000F0F0F00E3380E44
:101310000043790D00CCCC0C00C3300C00E8A20BCC
:101320000064210B00AAAA0A00703D0A009DD8099A
:1013300000427B090092240900DCD3080088880859
:10134000001042080000000800F0C107008787076E
:101350000075500700711C07003EEB0600A1BC069B
:10136000006990060066660600703E060061180679
:101370000017F4050074D105005BB00500B29005BC
:1013800000627205005555050078390500B81E0544
:1013900000050505004EEC040087D40400A1BD043F
:1013A0000090A7040049920400C17D0400EE690486
:1013B00000C7560400444404005C320400082104C1
:1013C0000041100400000004003FF00300F8E003B7
:1013D0000026D20300C3C30300CCB503003AA80320
:1013E000000A9B0300388E0300C08103009F750331
:1013F00000D0690300505E03001D5303003448030E
:1014000000913D03003333030016290300381F0306
:101410000097150300300C0300030303000BFA02CE
:101420000049F10200BAE802005CE002002DD80297
:10143000002DD0020059C80200B0C0020031B9022C
:1014400000DAB10200AAAA0200A0A30200BC9C021A
:1014500000FA9502005C8F0200DF8802008282029F
:1014600000457C02002776020027700200436A02D2
:10147000007C640200D05E02003F590200C85302A3
:10148000006563686F3A004572726F723A00205AC5
:101490003A0020593A0020436F756E7420583A0084
:1014A000232C0000B8220000561800003A0F00005C
:1014B000B8080000B1040000710200003E01000005
:1014C00024F4D43050C38E20C2A24017828B7011F6
:1014D000127A910D816CD90AA861E108C758660794
:1014E000615143061E4B5D05C145A7041A41110415
:1014F000093D9803713931034036DB0265339102AF
:10150000D4305402802E1D02632CEE01752AC501D1
:10151000B028A001102781018F2564012B244B01E5
:10152000E0223401AC211F018D200D01801FFC0041
:10153000841EED00971DDF00B81CD200E61BC6001C
:10154000201BBC00641AB200B219A8000A19A0003E
:101550006A189900D117910040178B00B5168400C6
:1015600031167E00B31579003A157300C7146F0069
:1015700058146A00EE1366008813630025135E009A
:10158000C7125B006C12570015125400C1115100B4
:1015900070114F0021114B00D61049008D104700EB
:1015A0004610440002104200C00F4000800F3E0071
:1015B000420F3C00060F3B00CB0E3800930E370065
:1015C0005C0E3500270E3400F30D3200C10D3100E2
:1015D000900D3000600D2E00320D2D00050D2C00F9
:1015E000D90C2B00AE0C2900850C29005C0C2700BF
:1015F000350C27000E0C2600E80B2400C40B240039
:10160000A00B23007D0B23005A0B2100390B210076
:10161000180B2000F80A1F00D90A1E00BB0A1E0082
:101620009D0A1D00800A1D00630A1C00470A1B005A
:101630002C0A1B00110A1A00F7091A00DD0919000B
:10164000C4091900AB091900920917007B09180099
:10165000630917004C091600360916002009160008
:101660000A091500F5081500E0081400CC0814005C
:10167000B8081400A4081400900813007D08120094
:101680006B081300580812004608120034081100B5
:10169000230811001208110001081100F0071000C2
:1016A000E0071000D0071000C0071000B0070F00BF
:1016B000A107100091070E0083070F0074070F00A9
:1016C00065070E0057070E0049070E003B070D0087
:1016D0002E070E0020070D0013070D0006070D0052
:1016E000F9060C00ED060D00E0060C00D4060C0017
:1016F000C8060C00BC060C00B0060C00A4060B00CB
:1017000099060C008D060B0082060B0077060B0075
:101710006C060B0061060A0057060B004C060A0017
:1017200042060A0038060A002E060A0024060A00AD
:101730001A060A001006090007060A00FD0509003E
:10174000F4050900EB050900E2050900D9050900C7
:10175000D0050900C7050900BE050900B505080048
:10176000AD050800A50509009C05080094050800C2
:101770008C050800840508007C0508007405080035
:101780006C050700650508005D05070056050800A3
:101790004E0507004705070040050800380507000B
:1017A000310507002A050700230507001C05060070
:1017B000160507000F0507000805060002050700CB
:1017C000FB040600F5040700EE040600E80406002A
:1017D000E2040700DB040600D5040600CF0406007F
:1017E000C9040600C3040600BD040600B7040600D1
:1017F000B1040500AC040600A6040600A004050020
:101800009B04060095040500900406008A04050068
:1018100085040500800406007A04050075040500AF
:10182000700405006B0405006604050061040500F2
:101830005C04050057040500520405004D04050032
:1018400048040500430405003E0404003A04050072
:1018500035040500300404002C04050027040400AE
:10186000230405001E0404001A04040016040500E5
:10187000110404000D04040009040500040404001C
:1018800000040400FC030400F8030400F403040053
:10189000F0030400EC030400E8030400E403040084
:1018A000E0030400DC030400D8030400D4030400B4
:1018B000D0030400CC030400C8030300C5030300E5
:1018C00024F404D9201BC40C5C0E9804C4095F02E4
:1018D00065077101F405F900FB04B30048048700B3
:1018E000C10369005803550003034500BE023A00D6
:1018F0008402310053022A0029022500040220003C
:10190000E4011C00C8011900AF0117009801140080
:1019100084011300710110006101100051010E00DB
:1019200043010D0036010B002B010B0020010B00C1
:10193000150109000C01090003010800FB00080063
:10194000F3000800EB000700E4000600DE000600DC
:10195000D8000600D2000600CC000500C700050034
:10196000C2000500BD000400B9000400B500040079
:10197000B1000400AD000400A9000400A5000300AC
:10198000A20003009F0004009B00030098000300D6
:101990009500020093000300900003008D000200F8
:1019A0008B00030088000200860002008400030010
:1019B000810002007F0002007D0002007B00020027
:1019C0007900020077000100760002007400020036
:1019D00072000100710002006F0002006D00010042
:1019E0006C0002006A00010069000200670001004B
:1019F0006600010065000100640002006200010051
:101A000061000100600001005F0002005D00010054
:101A10005C0001005B0001005A0001005900010058
:101A20005800010057000100560001005500010058
:101A30005400010053000000530001005200010057
:101A400051000100500001004F0001004E00000055
:101A50004E0001004D0001004C0001004B00000051
:101A60004B0001004A00010049000100480000004D
:101A70004800010047000100460000004600010048
:101A80004500000045000100440001004300000043
:101A9000430001004200000042000100410000003C
:101AA00041000100400001003F0000003F00010034
:101AB0003E0000003E0001003D0000003D0001002E
:101AC0003C0000003C0000003C0001003B00000026
:101AD0003B0001003A0000003A000100390000001C
:101AE0003900010038000000380000003800010013
:101AF000370000003700010036000000360000000B
:101B000036000100350000003500000035000100FE
:101B100034000000340000003400010033000000F5
:101B200033000000330001003200000032000000EA
:101B300032000100310000003100000031000100DE
:101B40003000000030000000300001002F000000D5
:101B50002F0000002F0000002F0001002E000000C9
:101B60002E0000002E0001002D0000002D000000BE
:101B70002D0000002D0001002C0000002C000000B2
:101B80002C0000002C0001002B0000002B000000A6
:101B90002B0000002B0001002A0000002A0000009A
:101BA0002A0000002A00010029000000290000008E
:101BB0002900000029000000290001002800000081
:101BC0002800000028000000280000002800010074
:101BD0002700000027000000270000002700000069
:101BE000270001002600000026000000260000005B
:101BF000260000002600010025000000250000004E
:101C0000250000002500000025000000250001003F
:101C10002400000024000000240000002400000034
:101C20002400010023000000230000002300000026
:101C30002300000023000000230000002300010017
:101C4000220000002200000022000000220000000C
:101C500022000000220001002100000021000000FD
:101C600021000000210000002100000021000000F0
:101C700021000100200000002000000020000000E2
:101C800020000000200000002000000020000000D4
:101C9000200001001F0000001F0000001F000000C6
:101CA0001F0000001F0000001F0000001F000100B7
:101CB0001E0000001E0000001E0000001E000000AC
:101CC000290A002028002920453A00202800292040
:101CD0005A3A002028002920593A0020280020588C
:101CE0003A00537465707065722063757272656E28
:101CF000742076616C75657320696E2025202841FB
:101D00006D7073293A0A0020403A00202F00546871
:101D100065726D616C2052756E6177617900453135
:101D200020544845524D414C2052554E415741593F
:101D3000004B494C4C45442E2000202D20496E7606
:101D4000616C6964206578747275646572206E7563
:101D50006D62657220210A0048656174696E6720B2
:101D60006661696C65640045312048656174696E1F
:101D700067206661696C6564004D494E54454D505D
:101D80002074726967676572656400453120457229
:101D9000723A204D494E54454D50004D41585445DE
:101DA0004D50207472696767657265640045312023
:101DB0004572723A204D415854454D500062656459
:101DC0000A002C2073797374656D2073746F7070C2
:101DD000656421204865617465725F49443A20005A
:101DE0002CFFFFFFFFFF0001010101012364656675
:101DF000696E652044454641554C545F4B64200054
:101E000023646566696E652044454641554C545FC0
:101E10004B69200023646566696E65204445464130
:101E2000554C545F4B702000504944204175746FED
:101E300074756E652066696E6973686564212050EB
:101E4000757420746865206C617374204B702C204D
:101E50004B6920616E64204B6420636F6E73746104
:101E60006E74732066726F6D2062656C6F77206987
:101E70006E746F20436F6E66696775726174696F07
:101E80006E2E680A00504944204175746F74756E57
:101E900065206661696C6564212074696D656F7584
:101EA000740A00546865726D616C2052756E6177BA
:101EB000617900453120544845524D414C205255DE
:101EC0004E415741590048656174696E67206661EB
:101ED000696C65640045312048656174696E6720EE
:101EE0006661696C656400504944204175746F7483
:101EF000756E65206661696C6564212054656D703E
:101F00006572617475726520746F6F2068696768A7
:101F10000A00204B643A2000204B693A2000204BF5
:101F2000703A20000A20436C617373696320504942
:101F300044200A002054753A2000204B753A2000B6
:101F4000206D61783A2000206D696E3A200020648F
:101F50003A200020626961733A20005049442041D0
:101F600075746F74756E652073746172740A0050B5
:101F70004944204175746F74756E65206661696CA3
:101F800065642120426164206578747275646572AD
:101F9000206E756D6265720A0070012C0190012738
:101FA00001B0012201C0011D01F00118011002134E
:101FB0000130020E016002090190020401C002FF1B
:101FC000000003FA004003F5008003F000D003EBAB
:101FD000002004E6007004E100E004DC004005D7C6
:101FE00000C005D2004006CD00D006C8008007C35F
:101FF000003008BE00F008B900C009B400B00AAF54
:1020000000B00BAA00D00CA500000EA000500F9B42
:1020100000C01096005012910000148C00C015876B
:1020200000B0178200B0197D00D01B7800001E732D
:102030000040206E0090226900F024640040275F79
:102040000090295A00E02B5500102E500020304BF4
:102050000010324600E033410090353C0010373725
:102060000070383200A0392D00B03A2800A03B2380
:1020700000603C1E00103D1900903D1400103E0F02
:1020800000703E0A00C03E0500003F0000403FFBDC
:10209000FF803FF6FFC03FF1FF0129022904290814
:1020A000291029202940298029012C022C012602EF
:1020B00026042608261026202640268026402C802E
:1020C0002C012302230423082310232023402380F0
:1020D00023012002200420082010202020402080FE
:1020E00020102C202C012F022F042F082F102F201E
:1020F0002F402F802F7EFE7EFD7EFB7EF77EEF7EC3
:10210000DF7EBF7E7F00010000B6211200020000CA
:10211000732143000300006F2104010309045521CA
:1021200018020309043D2116030309042F210C0C96
:10213000033100320033003400350000001603552F
:1021400000530042002000530065007200690061E6
:10215000006C00000018035400650065006E0073F9
:102160000079006400750069006E006F00000004D3
:1021700003090409024300020100C03209040000FF
:1021800001020201000524001001052401000104E0
:102190002402060524060001070582030800400901
:1021A000040100020A0000000705030240000007C6
:1021B0000584024000001201000202000020C01647
:1021C00083047202010203010001C1020180360191
:1021D00081365869C185FBA795B6616911241FBE78
:1021E000CFEFD0E2DEBFCDBF12E0A0E0B1E0E0EC87
:1021F000F5E801E00BBF02C007900D92A633B107CE
:10220000D9F72EE0A6E3B2E001C01D92A734B207D1
:10221000E1F710E1CDEED0E104C02197FE010E946C
:102220001DB7C93ED107C9F70E942AAE0C94D3C28C
:102230000C9400004F925F926F927F928F929F92C8
:10224000AF92BF92CF92DF92EF92FF92CF934B016A
:102250005C0169017A0120E030E040EA51E40E942B
:102260003FB72B013C012FE632E143E85AEB0E94D5
:102270001CBA87FD48C023E830E048EC52E4C301B3
:10228000B2010E9419B818160CF43DC022E630E1E4
:1022900040E050ECC701B6010E941CBA87FD33C074
:1022A00023E830E048EC52E4C701B6010E9419B8B7
:1022B00018164CF124EF3DEF4FE951E4C501B4018C
:1022C0000E941CBA87FD1FC023E830E044EB52E4B3
:1022D000C501B4010E9419B81816ACF027EE3BEF07
:1022E0004FE151E4C701B6010E941CBA87FD0BC043
:1022F000C1E023E830E044EB52E4C701B6010E949C
:1023000019B818160CF4C0E08C2FCF91FF90EF9005
:10231000DF90CF90BF90AF909F908F907F906F9005
:102320005F904F9008950C94FAACCF93DF931F9277
:10233000CDB7DEB76983DC01ED91FC910280F381BA
:10234000E02D41E050E0BE016F5F7F4F09950F9097
:10235000DF91CF910895FF920F931F93CF93DF9357
:10236000F82E092F162FE5EDF2E06491EF0121968A
:10237000662329F089E39EE0D8DFFE01F6CFEF2D3A
:10238000F02F6491EF012196662329F089E39EE006
:10239000CCDFFE01F6CFE3EDF2E06491EF01219690
:1023A000662329F089E39EE0C0DFFE01F6CF412FCE
:1023B00050E060E070E089E39EE00E94EDAC6AE0EE
:1023C00089E39EE0DF91CF911F910F91FF90ADCFF8
:1023D0002F923F924F925F926F927F928F929F9235
:1023E000AF92BF92CF92DF92EF92FF920F931F9323
:1023F000CF93DF93EB01FC0180809180A280B380BA
:10240000C501B40120E831E541E050E00E94DFB6AB
:10241000C9016DE671E00E94B8B66B017C01C5018F
:10242000B40120E13EE040E050E00E94DFB6CA0186
:10243000B90128E130E040E050E00E94DFB6362EDE
:10244000272E062F172F8CE3482E512C612C712C30
:10245000C501B401A30192010E94DFB6B62EA72EDA
:10246000CA01B901A30192010E94DFB6CB01C114D8
:10247000D104D9F0AF92BF927F936F932F923F9286
:10248000FF92EF92DF92CF928AE49DE09F938F9329
:10249000DF93CF930E94D7BF8DB79EB70E960FB62E
:1024A000F8949EBF0FBE8DBF5CC0E114F104C9F06B
:1024B000AF92BF927F936F932F923F92FF92EF92D2
:1024C0008AE39DE09F938F93DF93CF930E94D7BFC2
:1024D000EDB7FEB73C960FB6F894FEBF0FBEEDBF4A
:1024E00040C0012BB9F0AF92BF927F936F932F92B0
:1024F0003F928EE29DE09F938F93DF93CF930E9454
:10250000D7BF8DB79EB70A960FB6F8949EBF0FBE81
:102510008DBF27C0892BA9F0AF92BF927F936F9395
:1025200086E29DE09F938F93DF93CF930E94D7BF66
:10253000EDB7FEB738960FB6F894FEBF0FBEEDBFED
:1025400010C0AF92BF9282E29DE09F938F93DF9382
:10255000CF930E94D7BF0F900F900F900F900F90C6
:102560000F90DF91CF911F910F91FF90EF90DF902F
:10257000CF90BF90AF909F908F907F906F905F9023
:102580004F903F902F90089581548A3108F041C0B8
:10259000E82FF0E04091EC045091ED046091EE04DE
:1025A0007091EF0404C076956795579547958A9585
:1025B000D2F7842F817040FF33C0EE52FB4F9081E1
:1025C000992301F1E091F704F091F804E90FF11D6E
:1025D000908120ED290F2A3080F09E3229F49181DC
:1025E00090539A3078F409C09D3211F09B3251F427
:1025F000918120ED290F2A3018F42E2F9F2F04C02F
:102600009E3249F020E090E02093F3049093F4048C
:10261000089580E00895928190539A3098F7EDCF15
:102620000895B2DF882341F081E02091F3043091D6
:10263000F404232B09F480E008950F931F93CF93A4
:102640008091F3049091F404009711F1FC018F0143
:10265000C1912C2F2F7DA9F0C53411F0C536B9F7E3
:10266000F801108260E070E08091F3049091F4042E
:102670000E94BDBBF801C083562F472F382F292F4A
:102680000BC060E070E0CF911F910F910C94BDBB27
:1026900050E040E030E020E0652F742F832F922F30
:1026A000CF911F910F9108958091F3049091F404BC
:1026B000009731F04AE050E060E070E00C9410BD0B
:1026C00060E070E0CB0108958091F3049091F404F0
:1026D000009731F04AE050E060E070E00C943BBEBF
:1026E00060E070E0CB010895DFDF97FD0AC0DCDF1A
:1026F0006F3F71058105910509F02CF4D5DF862F18
:10270000089580E008958FEF08958091F3049091EB
:10271000F404892B31F0E8DF91E0811103C090E0EF
:1027200001C091E0892F08950F931F93CF93DF93FA
:10273000CDB7DEB72C970FB6F894DEBF0FBECDBF76
:10274000E9E9F4E080859185A285B38544815581CE
:1027500066817781008111812281338109871A87FF
:102760002B873C874D835E836F83788789839A8329
:10277000AB83BC83AE014F5F5F4FBE016B5F7F4F8A
:10278000CE0109960E94927325EA34E0AE014F5FB4
:102790005F4FBE016B5F7F4FCE0109960E9482831F
:1027A0002C960FB6F894DEBF0FBECDBFDF91CF9150
:1027B0001F910F9108952F923F924F925F926F92C7
:1027C0007F929F92AF92BF92CF92DF92EF92FF9251
:1027D0000F931F93CF93DF93CDB7DEB764970FB6F8
:1027E000F894DEBF0FBECDBF1A012B01922EF32E3F
:1027F000C82ED12CF601ED52F34FE491AA24A394F4
:102800001E160CF4A12CBB24B39420E030E0A901E7
:10281000C201B1010E941CBA18160CF0B12CCC0CEC
:10282000DD1CCC0CDD1CC60187569B4F3C01FC0116
:10283000108211821282138277DFF30120823182AB
:1028400042825382E090BD0220E030E0A901B8014D
:10285000892D9F2D0E9419B881110AC0F601EE5EE4
:10286000F24F85919591A591B4918C019A2EFB2EF2
:10287000C801A92DBF2D898B9A8BAB8BBC8B809106
:10288000A1049091A204A091A304B091A40440914A
:102890009D0450919E0460919F047091A00400914A
:1028A000990410919A0420919B0430919C040D8707
:1028B0001E872F87388B49875A876B877C878D8344
:1028C0009E83AF83B88719821A821B821C82AE0155
:1028D0004B5F5F4FBE01675F7F4FCE010D960E9439
:1028E0009273CE0101966C018E010F5E1F4F25EA97
:1028F00034E0AE014B5F5F4FBE01675F7F4F0C96C8
:102900000E94A0820E94A476AB100E947765649614
:102910000FB6F894DEBF0FBECDBFDF91CF911F91F0
:102920000F91FF90EF90DF90CF90BF90AF909F906E
:102930007F906F905F904F903F902F90089565EA41
:1029400074E083E00C94A784CF93DF9300D0CDB7DD
:10295000DEB720912B0E30912C0ECE010196211561
:10296000310529F487549E409A83898304C0821BD1
:10297000930B9A83898389819A810F900F90DF91BD
:10298000CF910895FF920F931F93CF93DF93FC0194
:1029900020812B3319F1D0917E04D430F8F4F62E37
:1029A000BC01C0917C040C2F10E0F0E6CF9FC00169
:1029B000112484509D4F0E94B7BFF801E456FD4F8B
:1029C000F082CF5FC43018F4C0937C0402C0109230
:1029D0007C04DF5FD0937E0481E001C080E0DF9162
:1029E000CF911F910F91FF900895EF92FF921F9347
:1029F000CF93DF937C0160E0C5DF182F8823C9F0F7
:102A0000E1E8F4E16491EF012196662329F089E37E
:102A10009EE08BDCFE01F6CFB70188EB93E00E94CD
:102A2000448662E289E39EE080DC6AE089E39EE01E
:102A30007CDC812FDF91CF911F91FF90EF90089563
:102A4000DF92EF92FF920F931F93CF93DF93CDB757
:102A5000DEB76E970FB6F894DEBF0FBECDBF6091A4
:102A6000FA027091FB026115710541F14DE150E0F0
:102A7000CE0101967C010E9466BF1E8EF7018F0178
:102A80000E191F09D190DD2019F09AE0D912F7CF65
:102A9000F701E00FF11F1082C701A7DF882371F053
:102AA000DD20A9F00F5F1F4F8091FA029091FB0289
:102AB000080F191F1093FB020093FA0281E0209186
:102AC000FA023091FB02232B29F480E003C000E0DE
:102AD00010E0F0CF6E960FB6F894DEBF0FBECDBFFC
:102AE000DF91CF911F910F91FF90EF90DF900895AC
:102AF000EF92FF920F931F93CF93DF937C0184E5B6
:102B000090DDD82F882369F1EFDDC82F18162CF53A
:102B1000E1E8F4E164918F010F5F1F4F662329F014
:102B200089E39EE002DCF801F5CF6DE489E39EE0E5
:102B3000FCDBA70160E070E020E089E39EE00E94FA
:102B400081AC6C2FCC0F770B85EA93E00E94C58592
:102B50006AE089E39EE0E9DB08C08093B002D0E040
:102B600004C08091BD028093B0028D2FDF91CF9180
:102B70001F910F91FF90EF9008950F931F93CF93A4
:102B8000DF9394E0899FE00111248E0104531D4FCF
:102B9000FE01E852FD4FDE01AC51BD4F2D913D913C
:102BA0004D915C9160817181828193810E9440B7D7
:102BB000F8016083718382839383FE01EA5FF24FA1
:102BC00085919591A591B491FE01E054FD4F8083CC
:102BD0009183A283B383FE01E650F34F85919591D3
:102BE000A591B491C15FDE4F88839983AA83BB838B
:102BF000DF91CF911F910F910895CF92DF92EF92C5
:102C00000F931F93CF93DF93CDB7DEB760970FB6C7
:102C1000F894DEBF0FBECDBFE090BD02E9E9F4E05D
:102C200080859185A285B3854481558166817781B0
:102C300000811181228133810D871E872F87388B78
:102C400049875A876B877C878D839E83AF83B8873C
:102C500019821A821B821C82AE014B5F5F4FBE013C
:102C6000675F7F4FCE010D960E949273CE01019651
:102C70006C010DE111E025EA34E0AE014B5F5F4FDE
:102C8000BE01675F7F4F0C960E94A08260960FB6D0
:102C9000F894DEBF0FBECDBFDF91CF911F910F9192
:102CA000EF90DF90CF9008958F929F92AF92BF9256
:102CB000CF92DF92EF920F931F93CF93DF93CDB715
:102CC000DEB760970FB6F894DEBF0FBECDBF8C01A4
:102CD000E090BD02E9E8F4E080859185A285B385A6
:102CE000448155816681778180809180A280B38004
:102CF0008D869E86AF86B88A49875A876B877C8780
:102D00008D839E83AF83B88719821A821B821C82AF
:102D1000AE014B5F5F4FBE01675F7F4FCE010D96E7
:102D20000E949273CE0101966C0125E934E0AE0158
:102D30004B5F5F4FBE01675F7F4F0C960E94A08282
:102D400060960FB6F894DEBF0FBECDBFDF91CF9176
:102D50001F910F91EF90DF90CF90BF90AF909F9019
:102D60008F9008953F924F925F926F927F928F92D1
:102D70009F92AF92BF92CF92DF92EF92FF920F930A
:102D80001F93CF93DF93CDB7DEB72A970FB6F89492
:102D9000DEBF0FBECDBF2B013C012D833E834F8391
:102DA000588747015801DA86C98680911D019091A4
:102DB0001E01A0911F01B091200189839A83AB83EA
:102DC000BC83D601EC901196FC90119712960C9151
:102DD000129713961C9120E030E0A901B701C801B9
:102DE0000E9419B8811108C0EAE1FDE08591959132
:102DF000A591B4917C018D01A50194016091A1047C
:102E00007091A2048091A3049091A4040E9419B827
:102E100087FF13C0C701D80180931D0190931E0145
:102E2000A0931F01B09320018092A1049092A2046C
:102E3000A092A304B092A404E0DEE985FA85D080D4
:102E4000C1803280F381F98720E030E0A9016D2D47
:102E50007C2D832D9F2F0E9419B8811109C0D0901D
:102E60000501C09006013090070180910801898713
:102E70008D2D9C2DA32DB98580931D0190931E014E
:102E8000A0931F01B09320014092990450929A049C
:102E900060929B0470929C048D819E81AF81B88565
:102EA00080939D0490939E04A0939F04B093A004EC
:102EB000A4DE2091A1043091A2044091A30450917A
:102EC000A404C501B4010E9419B887FF13C0C7014B
:102ED000D80180931D0190931E01A0931F01B09310
:102EE00020018092A1049092A204A092A304B09227
:102EF000A40483DE0E94A47689819A81AB81BC817F
:102F000080931D0190931E01A0931F01B093200197
:102F10002A960FB6F894DEBF0FBECDBFDF91CF91DA
:102F20001F910F91FF90EF90DF90CF90BF90AF90E7
:102F30009F908F907F906F905F904F903F900895FB
:102F4000CF92DF92EF92FF920F931F936B01FC01E0
:102F5000E080F18002811381E9E9F4E02481358188
:102F6000468157816081718182819381FBDE1F914F
:102F70000F91FF90EF90DF90CF900895CF92DF9266
:102F8000EF92FF920F931F936A01E090A104F090DB
:102F9000A2040091A3041091A404FB0120813181BB
:102FA00042815381FC016081718182819381DADEEB
:102FB0001F910F91FF90EF90DF90CF900895809137
:102FC0001D0190911E01A0911F01B09120018093DD
:102FD000F6029093F702A093F802B093F902809161
:102FE0001B0190911C019093F5028093F40284E6FA
:102FF00090E090931C0180931B0108958091F6024C
:103000009091F702A091F802B091F90280931D010E
:1030100090931E01A0931F01B09320018091F402B0
:103020009091F50290931C0180931B010895FF92EB
:103030000F931F93CF93DF93882329F0D0918804B7
:10304000D095D17001C0D0E0662341F08091880412
:103050008695817091E0F82EF92601C0F12C442369
:1030600041F0C0918804C2FB882780F9C1E0C827DD
:1030700001C0C0E0D11102C0FF2019F0E1E8F4E185
:1030800007C0C111FBCF52C089E39EE04ED9F801C1
:1030900064918F010F5F1F4F6111F6CFEFE9F3E0ED
:1030A00064918F010F5F1F4F662329F089E39EE033
:1030B0003CD9F801F5CFDD2369F0EDE9F3E0649147
:1030C0008F010F5F1F4F662329F089E39EE02DD902
:1030D000F801F5CFFF2069F0EBE9F3E064918F018F
:1030E0000F5F1F4F662329F089E39EE01ED9F80188
:1030F000F5CFCC2319F0E9E9F3E003C0E1E9F3E00F
:103100000AC06491EF0121966623C1F389E39EE032
:103110000CD9FE01F6CF6491EF012196662329F0C8
:1031200089E39EE002D9FE01F6CFC1E08C2FDF914A
:10313000CF911F910F91FF900895BF92CF92DF9290
:10314000EF92FF920F931F93CF93DF93CDB7DEB72C
:1031500028970FB6F894DEBF0FBECDBF9091B5048F
:10316000981709F47AC0B82E882309F453C080E078
:1031700090E0A0E8B0E48D839E83AF83B887C090D1
:10318000AC02D090AD02E090AE02F090AF0220E031
:1031900030E0A901C701B6010E9419B887FF0CC031
:1031A000A701960160E070E080E890E40E943FB7DC
:1031B0006D837E838F83988720E030E043E053E483
:1031C0006D817E818F8198850E941CBA181644F407
:1031D00080E090E0A3E0B3E48D839E83AF83B88763
:1031E0002D813E814F8158856091A1047091A20488
:1031F0008091A3049091A4040E9419B887FF0AC08B
:1032000019821A821B821C82BE016F5F7F4FCE0122
:10321000059696DE6091990470919A0480919B04C2
:1032200090919C0420919D0430919E0440919F04B4
:103230005091A00419821A821B821C82E090A10482
:10324000F090A2040091A3041091A404FE01319611
:103250006F0188DD8B2D0E94826580E028960FB675
:10326000F894DEBF0FBECDBFDF91CF911F910F91BC
:10327000FF90EF90DF90CF90BF9008954F925F92B4
:103280006F927F928F929F92AF92BF92CF92DF9276
:10329000EF92FF920F931F93CF93C82FE82EF12C3C
:1032A000F701ED52F34FB490823021F481E045DF15
:1032B000811110C16701CC0CDD1CCC0CDD1CF601AA
:1032C000EE51F34F45905590659074906B2DBB0C6B
:1032D000770B880B990B0E94BBB84B015C0120E077
:1032E00030E040EC5FE3C301B2010E9457BAA50190
:1032F00094010E9457BAAB01BC0100E010E09801B4
:103300008C2F59DAC23061F0F601EA52F34F859101
:103310009591A591B491E82F792F6A2F8B2F04C036
:10332000E0E070E060E480E42E2F372F462F582F26
:10333000C501B4010E9457BA4B015C0120E030E0A6
:10334000A9010E9419B8882309F45DC0C23021F098
:1033500000E010E0980104C000E010E020E830E454
:10336000B501A40170588C2F26DAC23009F43AC096
:10337000F701E153F44F649161111FC0E1E8F4E1FA
:1033800064917F018FEFE81AF80A662331F089E330
:103390009EE00E949511F701F3CFEDEAFBE0649106
:1033A0007F018FEFE81AF80A662331F089E39EE087
:1033B0000E949511F701F3CF6AE0F601EE5EF24F3D
:1033C000459055906590749070E080E090E00E9488
:1033D000BBB89B01AC01C301B2010E9420B82B0114
:1033E0003C0105C0412C512C612C90E4792EA501A3
:1033F0009401C501B4010E9440B7AB01BC01930127
:1034000082018C2FD8D981E090E00C2E01C0880F6A
:103410000A94EAF790918704982B909387049091EF
:103420008804892B80938804F601EC51FD4F1082AB
:103430001182128213828C2FA0DBF601E251F34F2E
:1034400085919591A591B491F601E756FB4F808344
:103450009183A283B383C230D1F42091AC02309126
:10346000AD024091AE025091AF026091A104709103
:10347000A2048091A3049091A4040E943FB760939A
:10348000A1047093A2048093A3049093A4044CD944
:10349000F601E757FB4FD601A756BB4F8D919D9183
:1034A0000D90BC91A02D80839183A283B383C23001
:1034B00089F480E0CF911F910F91FF90EF90DF9002
:1034C000CF90BF90AF909F908F907F906F905F90C4
:1034D0004F9033CECF911F910F91FF90EF90DF90DF
:1034E000CF90BF90AF909F908F907F906F905F90A4
:1034F0004F9008959F92AF92BF92CF92DF92EF923A
:10350000FF920F931F93CF93DF9381E0A82E82E069
:10351000B82E09E814E0C9E9D4E09CECC92E92E089
:10352000D92E20EFE22E22E0F22E912CF50181918E
:103530005F012AD8882301F180D8F7012081211169
:1035400004C02091BC02222339F0288139814A81AC
:103550005B810E9440B70AC0F3E09F1639F0F60184
:1035600020813181428153810E943FB7F8016083FD
:1035700071838283938309C088819981AA81BB81E9
:10358000F80180839183A283B38393940C5F1F4FD0
:103590002496F4E0CF0ED11C2FEFE21AF20A84E059
:1035A0009812C4CF86E43DD88823B9F046D820E0ED
:1035B00030E0A9010E941CBA18167CF43ED820E025
:1035C00030E040E752E40E9420B860931D01709300
:1035D0001E0180931F0190932001DF91CF911F91D5
:1035E0000F91FF90EF90DF90CF90BF90AF909F90A2
:1035F0000895CF92DF92EF92FF920F931F93CF9394
:10360000DF930FB6F894C0902E0ED0902F0EE0905E
:10361000300EF090310E0FBE8091BB02811174C04C
:1036200080910401882309F46FC080919B02882354
:1036300009F46AC0409197025091980260919902F2
:1036400070919A0297018601041B150B260B370B0C
:1036500037FD6DC0833031F134F481300CF454C047
:10366000E1E8F4E106C0843009F04EC0E1E8F4E19D
:1036700033C06491EF012196662331F089E39EE027
:103680000E949511FE01F5CFEDE5F3E06491EF01A5
:103690002196662309F438C089E39EE00E949511C3
:1036A000FE01F4CFE1E8F4E16491EF012196662395
:1036B00031F089E39EE00E949511FE01F5CFE6E42A
:1036C000F3E06491EF0121966623F1F089E39EE037
:1036D0000E949511FE01F5CF6491EF0121966623BA
:1036E00031F089E39EE00E949511FE01F5CFEEE2F4
:1036F000F3E06491EF012196662331F089E39EE0C7
:103700000E949511FE01F5CF2091040130E0A8EE52
:10371000B3E00E9426B7C60ED71EE81EF91EC0925F
:103720009702D0929802E0929902F0929A02DF9169
:10373000CF911F910F91FF90EF90DF90CF90089560
:103740000F931F93CF93DF9300D000D0CDB7DEB798
:103750008091870483708330E9F0E1E8F4E16491BB
:103760008F010F5F1F4F662331F089E39EE00E94B7
:103770009511F801F4CFE8E8FBE064918F010F5F49
:103780001F4F662309F43EC089E39EE00E94951115
:10379000F801F3CF0E94941380E090E0A8E4B2E433
:1037A00080938D0490938E04A0938F04B093900423
:1037B0008091A1049091A204A091A304B091A404CB
:1037C0008093910490939204A0939304B0939404F3
:1037D00080E090E0A0EFB1E48093890490938A04A4
:1037E000A0938B04B0938C0419821A821B821C82D2
:1037F000AE014F5F5F4F6DE874E089E894E0BEDB97
:1038000082E03CDD0F900F900F900F90DF91CF91F1
:103810001F910F9108950F931F93CF93DF93CDB70F
:10382000DEB769970FB6F894DEBF0FBECDBF0E941A
:10383000C0956E8B7F8B888F998FBE016F5F7F4F96
:10384000CE0146960E94E811E1E8F4E164918F010F
:103850000F5F1F4F662331F089E39EE00E949511B0
:10386000F801F4CFBE016F5F7F4F8DE499E00E94B5
:1038700044866AE089E39EE00E94951169960FB63E
:10388000F894DEBF0FBECDBFDF91CF911F910F9196
:103890000895CF93DF93E7E8F4E16491EF01219677
:1038A000662331F089E39EE00E949511FE01F5CF79
:1038B000EEE3F9E06491EF012196662331F089E3AC
:1038C0009EE00E949511FE01F5CFDF91CF91089502
:1038D0000F931F93CF9383E50E941113882309F45C
:1038E00040C00E947413082F80E50E9411138823A2
:1038F000C1F10E947413C82F87FD33C089E40E9470
:103900001113882339F00E948513811112C0EAED4A
:10391000F2E00BC089E40E94C41281110AC0F7CF03
:10392000319683E0E730F80721F08491C813F8CF8F
:1039300014C08C2F0E9498AFEC2FF0E0002E0E9454
:103940003DB010E0B8018C2F0E94A9AFC03149F4FE
:103950001093BF020093BE0204C0CF911F910F913C
:1039600098CFCF911F910F91089588E690E0C0D82D
:10397000811122C08091A90483FD1EC083E50E94AD
:1039800011138823B9F00E941D130E9488B8709308
:10399000670D6093660D80E00E943C990E941D13A4
:1039A00020E030E04AEA52E40E9419B8181614F0F8
:1039B0000E9469950C9491850895CF92DF92EF92C1
:1039C000FF9283E50E941113882321F10E94741352
:1039D0008D3308F08CE38093180D0FB6F894C090E7
:1039E0002E0ED0902F0EE090300EF090310E0FBEC4
:1039F000282F30E0A8EEB3E00E9426B7C60ED71EEF
:103A0000E81EF91EC092140DD092150DE092160D0D
:103A1000F092170DFF90EF90DF90CF90089580E522
:103A20000E941113811106C083E50E94111388239F
:103A300059F005C00E94741381110CC0F5CF0E948B
:103A400054136F3F710510F06FEF70E07093BF0279
:103A50006093BE020895DF92EF92FF920F931F933F
:103A6000CF93DF9383E50E94C412882359F083E546
:103A70000E941113882319F00E94741301C080E082
:103A80008093A904E1E8F4E16491EF0121966623B3
:103A900031F089E39EE00E949511FE01F5CFE4E646
:103AA000F7E06491EF012196662331F089E39EE00F
:103AB0000E949511FE01F5CF8091A9048823A9F1F8
:103AC0008BE6E82E87E0F82E00E010E020E0809101
:103AD000A90490E0002E02C0959587950A94E2F71C
:103AE00080FF1AC0DD24D394D20E222329F06CE289
:103AF00089E39EE00E949511F70185919491FC0164
:103B00006491EF012196662331F089E39EE00E94E3
:103B10009511FE01F5CF2D2D0F5F1F4F82E0E80EAE
:103B2000F11C0530110599F60DC0E0E6F7E064914F
:103B3000EF012196662331F089E39EE00E94951102
:103B4000FE01F5CF6AE089E39EE0DF91CF911F91FE
:103B50000F91FF90EF90DF900C949511CF93DF932E
:103B600083E50E941113882351F00E9474138D3352
:103B700008F08CE380930401DF91CF910895E1E890
:103B8000F4E16491EF012196662331F089E39EE030
:103B90000E949511FE01F5CF4091040150E060E0D4
:103BA00070E089E597E00E9423866AE089E39EE061
:103BB000DF91CF910C9495114F925F926F927F920B
:103BC000AF92BF92CF92DF92EF92FF920F931F932B
:103BD000CF9381E0A82E82E0B82E0DEA15E0C0E078
:103BE000F50181915F010E94C412882309F46DC020
:103BF000C33009F063C00E941D136B017C0120E0FB
:103C000030E040EA51E40E9419B887FF4EC0A70196
:103C100096016091B9057091BA058091BB059091AC
:103C2000BC050E9420B82B013C019B01AC016091B6
:103C300085057091860580918705909188050E9481
:103C400057BA609385057093860580938705909396
:103C50008805A30192016091C9057091CA05809100
:103C6000CB059091CC050E9457BA6093C90570931B
:103C7000CA058093CB059093CC056091DD057091CA
:103C8000DE058091DF059091E0050E94B9B8A3019F
:103C900092010E9457BA0E948DB86093DD0570931F
:103CA000DE058093DF059093E005C092B905D092C0
:103CB000BA05E092BB05F092BC0507C00E941D1337
:103CC000F8016083718382839383CF5F0C5F1F4F02
:103CD000C43009F085CFCF911F910F91FF90EF90E5
:103CE000DF90CF90BF90AF907F906F905F904F909C
:103CF0000C946D850F931F93CF93DF93C9E9D4E0A4
:103D00000CEC12E0F80120813181428153816881FD
:103D100079818A819B810E9440B7AB01BC0185E219
:103D200093E00E940286F801248135814681578103
:103D30006C817D818E819F810E9440B7AB01BC0167
:103D400081E293E00E940286F80120853185428558
:103D50005385688579858A859B850E9440B7AB012C
:103D6000BC018DE193E00E9402864C855D856E85E5
:103D70007F8589E193E00E940286DF91CF911F91B8
:103D80000F910C944F932F923F924F925F926F92AC
:103D90007F928F929F92AF92BF92CF92DF92EF92DB
:103DA000FF920F931F93CF93DF9381E0882E82E0E1
:103DB000982EC4EED2E099E9A92E94E0B92E0CEC2D
:103DC00012E0312C212CF40181914F010E9411133A
:103DD000882309F44AC00E941D136B017C01F3E0A3
:103DE0003F1649F0F80120813181428153810E94C0
:103DF0003FB76B017C01F501208131814281538104
:103E0000C701B6010E943FB72B013C012DEB37E300
:103E100046E855EB0E941CBA87FD0AC02DEB37E33C
:103E200046E855E3C301B2010E9419B81816ECF434
:103E3000F3E03F120BC0C092A504D092A604E0921A
:103E4000A704F092A804222423940FC0A301920196
:103E5000688179818A819B810E9440B768837983D8
:103E60008A839B83832D0E94BD153394249684E01E
:103E7000A80EB11C0C5F1F4FE4E03E12A4CF21102E
:103E80000E949F14DF91CF911F910F91FF90EF90AF
:103E9000DF90CF90BF90AF909F908F907F906F906A
:103EA0005F904F903F902F9025CFCF93DF93EAE81C
:103EB000F6E06491EF012196662331F089E39EE0FC
:103EC0000E949511FE01F5CF60E08AE796E00E941E
:103ED000AB1161E083E796E00E94AB1161E088E6F8
:103EE00096E00E94AB1161E088E596E00E94AB117C
:103EF00060E08FE496E00E94AB1161E085E496E01B
:103F00000E94AB1161E08BE396E00E94AB1161E08F
:103F100083E396E00E94AB1161E085E296E00E94A7
:103F2000AB1160E087E196E00E94AB1160E088E0B1
:103F300096E00E94AB1160E08AEF95E00E94AB1121
:103F400060E084EE95E00E94AB1160E083ED95E0C7
:103F50000E94AB1160E08EEB95E00E94AB1161E036
:103F60008BEA95E0DF91CF910C94AB11EF92FF9229
:103F70000F931F93CF93DF9300D000D01F92CDB744
:103F8000DEB780E50E94C412882351F08091F304CB
:103F90009091F404892B51F00E947413182F07C0DC
:103FA0008CEB94E00E947DAC182F01C01FEF87E5D9
:103FB0000E94C412882351F08091F3049091F4047C
:103FC000892B31F00E947413082F03C000E001C058
:103FD0000FEF82E40E94C412882351F08091F30411
:103FE0009091F404892B31F00E947413F82E04C0D0
:103FF000F12C02C0FF24FA9485E50E94C4128823A4
:1040000051F08091F3049091F404892B31F00E94D7
:104010007413E82E04C0E12C02C0EE24EA9482E579
:104020000E94C412882349F08091F3049091F40413
:10403000892B29F00E94741303C080E001C08FEF28
:104040008983EA82FB820C831D8360E0CE010196A6
:104050000E949F680F900F900F900F900F90DF912C
:10406000CF911F910F91FF90EF900895CF92DF9223
:10407000EF92FF92CF9388EC90E00E947815811127
:104080004EC084E40E94C412882309F441C00E94F7
:104090001D136B017C01C1E020E030E0A9010E940A
:1040A00019B8811101C0C0E0C093F90420E030E0EC
:1040B000A901C701B6010E9419B8882349F10E94DD
:1040C0001D13E091B00224E0E29FF0011124EB58AF
:1040D000FA4F608371838283938320E030E0A901EB
:1040E00060917505709176058091770590917805BE
:1040F0000E9419B881110CC080E090E0A0EEBFE3EF
:104100008093750590937605A0937705B093780515
:10411000CF91FF90EF90DF90CF900C942D73CF91C3
:10412000FF90EF90DF90CF900895CF9383E50E94AA
:1041300011138823A1F00E941D13609395057093BD
:104140009605809397059093980560938D057093DD
:104150008E0580938F0590939005C0E001C0C1E06B
:1041600080E50E941113882359F00E941D1360936B
:104170009505709396058093970590939805C0E0F8
:1041800082E50E941113882359F00E941D13609349
:104190009105709392058093930590939405C0E0E8
:1041A00084E50E941113882359F00E941D13609327
:1041B0008D0570938E0580938F05909390052CC08C
:1041C000CC2351F14091950550919605609197054A
:1041D0007091980587E995E00E94028640919105CB
:1041E00050919205609193057091940584E995E052
:1041F0000E94028640918D0550918E0560918F0539
:104200007091900581E995E00E9402866AE089E359
:104210009EE0CF910C949511CF91089581E50E9475
:10422000C412882351F00E9464136093CD057093EB
:10423000CE058093CF059093D00583E50E94C412EC
:10424000882351F00E941D136093990570939A057D
:1042500080939B0590939C0584E50E94C41288235B
:1042600051F00E941D136093890570938A05809315
:104270008B0590938C0588E50E94C412882351F029
:104280000E941D136093790570937A0580937B05D6
:1042900090937C0589E50E94C412882351F00E9406
:1042A0001D1360937D0570937E0580937F05909329
:1042B00080058AE50E94C412882351F00E941D13D4
:1042C00060938105709382058093830590938405A4
:1042D00085E40E94C412882351F00E941D1360934C
:1042E00085057093860580938705909388050895CA
:1042F000CF93DF93E1E8F4E16491EF012196662327
:1043000031F089E39EE00E949511FE01F5CF83E52F
:104310000E94C412882321F00E94851380930E010D
:10432000E1E8F5E06491EF012196662331F089E33D
:104330009EE00E949511FE01F5CF80910E01811142
:1043400003C0E9E7F5E002C0EDE7F5E06491EF01B5
:104350002196662331F089E39EE00E949511FE01CB
:10436000F5CFE1E7F5E06491EF012196662331F0A6
:1043700089E39EE00E949511FE01F5CF2091CC02C9
:104380003091CD024091CE025091CF026091C00297
:104390007091C1028091C2029091C3020E9440B705
:1043A000AB01BC018FE695E00E9402862091D0020D
:1043B0003091D1024091D2025091D3026091C40257
:1043C0007091C5028091C6029091C7020E9440B7C9
:1043D000AB01BC018CE695E00E9402862091D402DC
:1043E0003091D5024091D6025091D7026091C80217
:1043F0007091C9028091CA029091CB020E9440B78D
:10440000AB01BC0189E695E00E940286E1E6F5E099
:104410006491EF012196662331F089E39EE00E94CA
:104420009511FE01F5CF2091CC023091CD02409143
:10443000CE025091CF0260910F01709110018091D6
:104440001101909112010E9440B7AB01BC018FE5B0
:1044500095E00E9402862091D0023091D1024091D5
:10446000D2025091D3026091130170911401809196
:104470001501909116010E9440B7AB01BC018CE57B
:1044800095E00E9402862091D4023091D50240919D
:10449000D6025091D7026091170170911801809156
:1044A000190190911A010E9440B7AB01BC0189E546
:1044B00095E00E9402866AE089E39EE0DF91CF9159
:1044C0000C9495110F931F93CF93DF938DED90E094
:1044D0000E947815811170C083E50E941113882312
:1044E000B9F1C091B002D0E00E945413CC0FDD1F8F
:1044F000CE5CDE4F798368838091B00290E0EC015E
:10450000CC0FDD1FCC0FDD1F8E01025D1E4F880F0B
:10451000991FFC01EE5CFE4F60817181072E000C3B
:10452000880B990B0E94BBB82AE037ED43E25CE3AD
:104530000E9457BACF58DA4F288139814A815B816E
:104540000E9457BAF801608371838283938334C0D9
:10455000E1E8F4E16491EF012196662331F089E30B
:104560009EE00E949511FE01F5CF65E489E39EE08F
:104570000E9495116091B002605D89E39EE00E9407
:104580009511E091B002F0E0EE0FFF1FEE5CFE4FE0
:104590006081718181E595E00E94C58565E289E3CE
:1045A0009EE00E9495116AE089E39EE0DF91CF9141
:1045B0001F910F910C949511DF91CF911F910F9145
:1045C00008954F925F926F927F92AF92BF92CF9277
:1045D000DF92EF92FF920F931F93CF93DF9331E01F
:1045E000C32E32E0D32E4DEAE42E45E0F42EC0E097
:1045F000D0E0F60181916F010E941113811109C071
:10460000C23009F043C083E50E941113882309F4E6
:104610008FC00E941D1320E030E040E050EC0E946B
:1046200019B887FD42C00E941D1320E030E040E031
:1046300050E40E941CBA181694F10E941D132B011D
:104640003C018091870490E00C2E02C095958795DF
:104650000A94E2F780FF18C08E01000F111F0C5A58
:10466000124FF801A080B180F70120813181428191
:104670005381C301B2010E9457BA0E9488B86A0DE3
:104680007B1DF80171836083C230A9F0219624E07C
:10469000E20EF11CC330D10509F0ABCF49C0412C6B
:1046A000512C612C20E4722ECCCF412C512C612C4A
:1046B00090EC792EC6CF80E50E94C412882321F0A9
:1046C0000E9485138823A1F1A30192016091AC029D
:1046D0007091AD028091AE029091AF020E9440B7FE
:1046E0006093AC027093AD028093AE029093AF02E0
:1046F000E1E8F4E164918F010F5F1F4F662331F011
:1047000089E39EE00E949511F801F4CF4091AC023C
:104710005091AD026091AE027091AF0280E495E0DD
:104720000E9402866AE089E39EE00E949511AECF66
:10473000DF91CF911F910F91FF90EF90DF90CF907D
:10474000BF90AF907F906F905F904F900895CF9300
:10475000DF9385E40E941113811110C080E50E944F
:10476000C412882391F00E941D136093620D709310
:10477000630D8093640D9093650D07C00E947413C0
:10478000882361F3E7E8F4E172C089E40E94C4126F
:10479000882381F00E941D132CEA35EC47E25EE38A
:1047A0000E9457BA60935E0D70935F0D8093600D09
:1047B0009093610D84E40E94C412882381F00E94CA
:1047C0001D132CEA35EC47E25EE30E9420B86093AB
:1047D0005A0D70935B0D80935C0D90935D0DE1E835
:1047E000F4E16491EF012196662331F089E39EE0C4
:1047F0000E949511FE01F5CF4091620D5091630D1D
:104800006091640D7091650D8CE395E00E940286C5
:104810002CEA35EC47E25EE360915E0D70915F0D2E
:104820008091600D9091610D0E9420B8AB01BC0198
:1048300088E395E00E9402862CEA35EC47E25EE3CD
:1048400060915A0D70915B0D80915C0D90915D0DA2
:104850000E9457BAAB01BC0184E395E00E94028636
:104860006AE089E39EE0DF91CF910C949511649109
:10487000EF012196662331F089E39EE00E949511B5
:10488000FE01F5CFE2E2F5E06491EF0121966623A7
:1048900031F089E39EE00E949511FE01F5CFDF9192
:1048A000CF910895CF93DF9383E50E94C412C82F60
:1048B000882371F00E941D130E9488B870935101E3
:1048C0006093500121E0672B09F020E020934D0D0B
:1048D00080E50E94C412882359F020915001309144
:1048E0005101232B11F00E94851380934D0D31C08F
:1048F000C1112FC0E1E8F4E16491EF012196662334
:1049000031F089E39EE00E949511FE01F5CF809180
:104910004D0D811103C066EE71E002C063EE71E0DF
:104920008FE095E00E9444866091500170915101A2
:104930008EEF94E00E94C585EAEFF4E06491EF0108
:104940002196662331F089E39EE00E949511FE01D5
:10495000F5CFDF91CF9108958F929F92AF92BF9242
:10496000EF92FF920F931F93CF93DF9300D000D06D
:10497000CDB7DEB785E40E941113882321F00E9491
:1049800054138B0102C000E010E083E40E94111375
:10499000882321F00E945413F62E02C025E0F22E47
:1049A00085E50E941113882321F00E948513E82ECB
:1049B00004C085E50E94C412E82E17FD07C0812CB3
:1049C000912C96E1A92E93E4B92E06C0812C912C4E
:1049D0008CE8A82E82E4B82E83E50E941113882368
:1049E00021F00E941D134B015C01C501B4010E941E
:1049F00088B80115110511F41092B002072E000CB1
:104A0000880B990B0E94BBB869837A838B839C8344
:104A10002E2D4F2D602FCE0101960E94B59D0F9037
:104A20000F900F900F90DF91CF911F910F91FF90FA
:104A3000EF90BF90AF909F908F9008952F923F92EC
:104A40004F925F926F927F928F929F92AF92BF929E
:104A5000CF92DF92EF92FF920F931F93CF93DF934A
:104A6000CDB7DEB72E970FB6F894DEBF0FBECDBF21
:104A700041E061E081E00E9417188111B9C00EEE9B
:104A80001CE089E994E09E878D87FE0131965F01E5
:104A900093ED892E9CE0992E1F01F8016591759187
:104AA00085919491ED85FE85C190D190E190F19032
:104AB000FE87ED87A70196010E943FB72B013C01BD
:104AC000F101608371838283938320E030E040EAC8
:104AD00051EC0E941CBA87FD0AC020E030E040EA99
:104AE00051E4C301B2010E9419B818162CF4F40164
:104AF000849118160CF472C0F101C190D190E1902C
:104B0000F1901F0120E030E040EA51ECC701B6010E
:104B10000E941CBA87FD0AC020E030E040EA51E460
:104B2000C701B6010E9419B81816F4F4E7E8F4E1D9
:104B300064918F010F5F1F4F611103C0E2E9F4E040
:104B400006C089E39EE00E949511F801F1CF6491BF
:104B50008F010F5F1F4F662309F44AC089E39EE06F
:104B60000E949511F801F3CF0C5F1F4FFFEF8F1AD2
:104B70009F0A8CE00A3F180709F08FCF88EDE82ED6
:104B800082E0F82E10E0F50181919191A191B1910F
:104B90005F01F70181939193A193B1937F01812FDD
:104BA0000E94BD151F5F133071F72E960FB6F89453
:104BB000DEBF0FBECDBFDF91CF911F910F91FF9050
:104BC000EF90DF90CF90BF90AF909F908F907F90AD
:104BD0006F905F904F903F902F908CC8F7FAF094B1
:104BE000F7F8F094F101C082D182E282F38284CF9F
:104BF0002E960FB6F894DEBF0FBECDBFDF91CF91DA
:104C00001F910F91FF90EF90DF90CF90BF90AF90EA
:104C10009F908F907F906F905F904F903F902F90DC
:104C20000895CF93DF930E94DE638823D1F0E1E8FB
:104C3000F4E16491EF012196662331F089E39EE06F
:104C40000E949511FE01F5CFE7E8F4E06491EF01D1
:104C50002196662331F089E39EE00E949511FE01C2
:104C6000F5CFDF91CF910895CF92DF92EF92FF922F
:104C7000CF93DF938AE50E941113811103C0E1E80D
:104C8000F4E13EC00E941D136B017C0120E030E086
:104C900040E250EC0E941CBA87FD0AC020E030E0E0
:104CA00040EA51E4C701B6010E9419B818161CF475
:104CB000E7E8F4E10EC0C092AC02D092AD02E092FF
:104CC000AE02F092AF0245C089E39EE00E949511CA
:104CD000FE016491EF0121966111F6CFE9E6F4E05F
:104CE0006491EF0121966623A1F189E39EE00E9481
:104CF0009511FE01F5CF89E39EE00E949511FE011A
:104D00006491EF0121966111F6CFEAE5F4E0649138
:104D1000EF012196662331F089E39EE00E94951110
:104D2000FE01F5CF4091AC025091AD026091AE0210
:104D30007091AF0287E594E00E9402866AE089E301
:104D40009EE0DF91CF91FF90EF90DF90CF900C9499
:104D50009511DF91CF91FF90EF90DF90CF90089564
:104D6000CF92DF92EF92FF92CF93DF938BE40E947A
:104D70001113811103C0E1E8F4E136C08BE40E9415
:104D800011138823C1F00E941D136B017C0120E0E8
:104D900030E0A9010E941CBA87FD0AC020E030E083
:104DA00040E251E4C701B6010E9419B8181634F464
:104DB000E1EFF3E00EC0C12CD12C76010E94A47665
:104DC000C0921205D0921305E0921405F0921505D9
:104DD0002DC06491EF012196662341F189E39EE0A5
:104DE0000E949511FE01F5CF6491EF012196662393
:104DF00031F089E39EE00E949511FE01F5CF4091CC
:104E0000120550911305609114057091150586EEF9
:104E100093E00E9402866AE089E39EE0DF91CF91F1
:104E2000FF90EF90DF90CF900C949511DF91CF9190
:104E3000FF90EF90DF90CF900895CF92DF92EF92A6
:104E4000FF920F931F93CF9383E50E94C4128111A9
:104E500004C001E012E0C0E00EC00E941D136B010F
:104E60007C01C0E0B701A6018C2F0E948C94CF5F1B
:104E7000C530C1F7EECFF80181918F010E94C412B5
:104E8000882339F00E941D13AB01BC018C2F0E94B6
:104E90008C94CF5FC43079F7CF911F910F91FF9021
:104EA000EF90DF90CF9008951F93CF93DF93182F4B
:104EB000E1E8F4E16491EF012196662331F089E3A2
:104EC0009EE00E949511FE01F5CF64E589E39EE026
:104ED0000E949511412F50E060E070E020E089E3EE
:104EE0009EE00E9481AC60E289E39EE00E94951101
:104EF000E5ECF3E06491EF012196662331F089E35C
:104F00009EE00E949511FE01F5CFDF91CF911F9198
:104F10000895CF93DF93E0917D04F0E0E456FD4FD8
:104F200080818823A1F0E7ECF2E06491EF01219603
:104F3000662331F089E39EE00E949511FE01F5CFD2
:104F40006AE089E39EE0DF91CF910C949511DF91A7
:104F5000CF910895CF92DF92EF92FF92CF93DF939C
:104F600020910E01222309F485C0EC01C090C002FB
:104F7000D090C102E090C202F090C302A701960156
:104F8000688179818A819B810E9419B887FF04C05A
:104F9000C882D982EA82FB82C090C402D090C50246
:104FA000E090C602F090C702A70196016C817D8156
:104FB0008E819F810E9419B887FF04C0CC82DD8258
:104FC000EE82FF82C0900F01D0901001E09011019D
:104FD000F0901201A7019601688179818A819B81F5
:104FE0000E941CBA181624F4C882D982EA82FB8275
:104FF000C0901301D0901401E0901501F0901601BB
:10500000A70196016C817D818E819F810E941CBACF
:10501000181624F4CC82DD82EE82FF82C090C80292
:10502000D090C902E090CA02F090CB02A70196018D
:10503000688579858A859B850E9419B887FF04C099
:10504000C886D986EA86FB86C0901701D0901801E1
:10505000E0901901F0901A01A70196016885798501
:105060008A859B850E941CBA181624F4C886D986A6
:10507000EA86FB86DF91CF91FF90EF90DF90CF9093
:105080000895CF93DF9380E00E948E76C0EAD2E04D
:10509000688379838A839B8381E00E948E766C8308
:1050A0007D838E839F8382E00E948E7668877987D6
:1050B0008A879B87DF91CF910895CF93DF93E1DFBC
:1050C0006BE589E39EE00E949511C0EAD2E0488139
:1050D00059816A817B8122E030E089E39EE00E9471
:1050E00093114C815D816E817F818BE293E00E9400
:1050F0000286488559856A857B8588E293E00E940F
:1051000002866DE589E39EE00E9495116AE089E3DD
:105110009EE0DF91CF910C949511CF93C82FB1DF12
:1051200080EA92E00E94F274CE3F51F48CE0E0EA13
:10513000F2E0A9E9B4E001900D928A95E1F713C07D
:1051400024E0C29FC0011124FC01E756FB4FDC01A3
:10515000A056BD4F8D919D910D90BC91A02D808347
:105160009183A283B383CF910895CF9390917005DB
:10517000981789F0C82F0E94A476C0937005C111BA
:1051800003C08EEFCADF04C089E994E00E94F27484
:10519000CF910C949413CF91089580E0E6DF8CE4D6
:1051A00095E00C9403A58F929F92AF92BF92DF92ED
:1051B000EF92FF920F931F93CF93DF9300D000D015
:1051C000CDB7DEB7182F809187048770873079F4C8
:1051D0008FE40E941113882329F00E948513811106
:1051E00099C005C08FE40E94C412811193C00E942F
:1051F000A476D090700580E0B8DF0E94DF1781E0D0
:105200000E946F6511111CC088E50E94C412F82E1F
:1052100089E50E94C412082F8AE50E94C412E82E74
:10522000F11007C001110AC0811108C0F02E11E071
:105230000DC0002319F0F02E182F08C010E006C092
:10524000FF24F39401E0EE24E39411E080E1E9E926
:10525000F4E0A9E8B4E001900D928A95E1F782E5C7
:105260000E941113882361F00E941D134B015C0101
:1052700020E030E0A9010E9419B8882369F105C037
:10528000812C912C80E4A82EBA2C111104C0F110AD
:1052900002C0002391F18092910490929204A09216
:1052A0009304B0929404A50194016091A1047091BB
:1052B000A2048091A3049091A4040E9419B887FFCE
:1052C0000BC019821A821B821C82BE016F5F7F4F46
:1052D00081E994E00E94A017111105C0F11003C0EC
:1052E000011106C00AC080E00E943E191123C1F3DB
:1052F00081E00E943E19111101C0E1100E94A01B23
:105300000E9494130E9472658D2D2FDF0E94FE175C
:105310000E947A1E0F900F900F900F90DF91CF9107
:105320001F910F91FF90EF90DF90BF90AF909F90F3
:105330008F900895CF93DF93C82F0E94A476D091C9
:10534000700580E012DFCC2321F08C2FDF91CF910C
:10535000ABCD1092BD028D2F08DFE1E8F4E164913E
:10536000EF012196662331F089E39EE00E949511BA
:10537000FE01F5CF6091BD0270E087E093E00E94EE
:10538000C5856AE089E39EE0DF91CF910C94951189
:105390000F931F93CF93DF93CDB7DEB72C970FB644
:1053A000F894DEBF0FBECDBF83E50E94C4128823F0
:1053B00041F00E948513182F811105C080E0D5DED1
:1053C00002C0109170058091990490919A04A09167
:1053D0009B04B0919C0489839A83AB83BC838091A6
:1053E0009D0490919E04A0919F04B091A0048D8390
:1053F0009E83AF83B8878091A1049091A204A0916D
:10540000A304B091A40489879A87AB87BC8786E5FB
:105410000E94C412882331F06DED74E08CE495E0B5
:105420000E94CEA6812FA1DE111103C0E1E8F4E1B4
:1054300020C0809170058111F9CFE7E8F4E1649113
:105440008F010F5F1F4F662331F089E39EE00E94BA
:105450009511F801F4CFEEEBF4E064918F010F5F4A
:105460001F4F662319F389E39EE00E949511F8010E
:10547000F4CF64918F010F5F1F4F662331F089E3F2
:105480009EE00E949511F801F4CF80917005811182
:1054900003C06EEE71E002C06AEE71E080EB94E052
:1054A0000E9444866AE089E39EE00E9495114CE0E8
:1054B00050E069E974E0CE0101960E948FBF892B0C
:1054C00061F02C960FB6F894DEBF0FBECDBFDF9112
:1054D000CF911F910F910C947A1E2C960FB6F894D1
:1054E000DEBF0FBECDBFDF91CF911F910F91089509
:1054F0000E943E760E94A4768EEF0FDE0C949413E9
:10550000CF92DF92EF92FF920F931F93CF93DF938F
:1055100089E40E94C412811109C083E50E94C4126B
:10552000811104C0D0E010E0C0E031C00E941D1322
:105530006B017C0120E030E040E85FEB0E941CBA88
:1055400087FD00C120E030E040E85FE3C701B6011D
:105550000E9419B818160CF4F5C0A70196016091C5
:1055600048057091490580914A0590914B050E942C
:1055700019B8882309F4E2C0C0924805D0924905C1
:10558000E0924A05F0924B05D1E010E0C1E08AE4D8
:105590000E94C412882381F1CF5F0E941D136B010A
:1055A0007C0120E030E040E85FEB0E941CBA87FD00
:1055B00022C020E030E040E85FE3C701B6010E946E
:1055C00019B81816C4F02091440530914505409152
:1055D000460550914705C701B6010E9419B88823B6
:1055E00059F0C0924405D0924505E0924605F092EC
:1055F0004705DF5F01C01F5F8BE40E94C412882350
:1056000089F1CF5F0E941D136B017C0120E030E027
:1056100040E85FEB0E941CBA87FD26C020E030E026
:1056200040E85FE3C701B6010E9419B81816E4F01C
:10563000209140053091410540914205509143052C
:10564000C701B6010E9419B8882361F0C0924005D5
:10565000D0924105E0924205F09243051123A1F05A
:10566000DF5F02C0112371F0EDE2F4E064918F017D
:105670000F5F1F4F662331F089E39EE00E94951172
:10568000F801F4CFDD2331F08EEF47DD0E94941353
:105690000E947A1EC1115AC0E1E8F4E16491EF0161
:1056A0002196611145C0ECE1F4E06491EF0121968F
:1056B000662331F089E39EE00E949511FE01F5CF4B
:1056C000409148055091490560914A0570914B05FC
:1056D00026E030E089E39EE00E9493116AE089E3CE
:1056E0009EE00E94951140914405509145056091BE
:1056F00046057091470586E194E00E94028640913C
:10570000400550914105609142057091430580E14B
:1057100094E00E9402866AE089E39EE0DF91CF91E7
:105720001F910F91FF90EF90DF90CF900C94951107
:1057300089E39EE00E949511FE01B0CFD0E010E019
:10574000C1E025CFD0E011E0C1E021CFDF91CF91C2
:105750001F910F91FF90EF90DF90CF9008952F92BF
:105760003F924F925F926F927F928F929F92AF92F1
:10577000BF92CF92DF92EF92FF920F931F93CF933E
:10578000DF93CDB7DEB7A0970FB6F894DEBF0FBE9C
:10579000CDBF1C017F8F6E8F498F28A3DC018D90B8
:1057A0009D90AD90BC90FB014080518062807380E1
:1057B0000023A1F0A3019201C501B4010E941A11B6
:1057C000882309F4F2C120E030E040EA51E4C50149
:1057D000B4010E943FB74B015C012AC02FE632E1C1
:1057E00043E85AEBC501B4010E941CBA87FDDDC134
:1057F00023E830E048EC52E4C501B4010E9419B836
:1058000018160CF4D2C122E630E140E050ECC3019E
:10581000B2010E941CBA87FDC8C123E830E048EC01
:1058200052E4C301B2010E9419B818160CF4BDC1AC
:10583000E090A104F090A2040091A3041091A404AC
:1058400080911D0190911E01A0911F01B091200136
:105850008A8F9B8FAC8FBD8F80910501909106013F
:10586000A0910701B091080180931D0190931E0142
:10587000A0931F01B093200119821A821B821C82FF
:10588000DE0111966D01A3019201C501B4010E94D0
:10589000B21681E00E949D188111E4C080918704B6
:1058A00082FF11C02091AC023091AD024091AE0256
:1058B0005091AF0260E070E080E090EC0E943FB752
:1058C0002B013C0106C0412C512C90E2692E91EC39
:1058D000792E4D865E866F86788AC12CD12C80E821
:1058E000E82E80E4F82EC986DA86EB86FC86BE01B7
:1058F000675F7F4FCE010D960E94A0171091B704ED
:105900001092B70482E009DC0E94941312FD05C0D6
:1059100060E070E080EC9FE75EC08090A104909012
:10592000A204A090A304B090A404C982DA82EB82FE
:10593000FC8220E030E040E450E4C501B4010E9464
:1059400040B76D837E838F839887BE016F5F7F4FE3
:10595000CE0105960E94A0174D825E826F827886E6
:1059600080E090E0A0E0B0E489839A83AB83BC83BD
:10597000BE016F5F7F4FCE0105960E94A017109168
:10598000B7041092B70482E0C8DB0E94941312FFA0
:10599000BFCF20E030E040E450E46091A10470917A
:1059A000A2048091A3049091A4040E9457BA6B01B1
:1059B0007C01A5019401C501B4010E9440B79B017F
:1059C000AC01C701B6010E9440B72DEC3CEC4CE4A1
:1059D0005EE30E9457BA2091AC023091AD02409133
:1059E000AE025091AF020E9440B76B018C01898DCD
:1059F0008250823050F580E090E0A0E8B0E4898BDE
:105A00009A8BAB8BBC8B2091A1043091A204409166
:105A1000A3045091A404B98DB33029F060E070E084
:105A200080E490E404C060E070E088EC91E40E94BF
:105A300040B76D8B7E8B8F8B988FBE016F5E7F4FD3
:105A4000CE0145960E94A01708C0E98DE13029F4E7
:105A500080E00E949D18811105C0F8A1F33008F480
:105A600072C008C098A1933008F4A4C0C12CD12CF6
:105A700000EC1FE7E9E8F3E064917F018FEFE81A9B
:105A8000F80A662331F089E39EE00E949511F70140
:105A9000F3CF2091CC023091CD024091CE025091B3
:105AA000CF02D1016D917D918D919C910E9440B763
:105AB000AB01BC0123E030E089E39EE00E9493113A
:105AC000E4E8F3E064917F01BFEFEB1AFB0A662381
:105AD00031F089E39EE00E949511F701F3CF209108
