:100000000C9481110C94AB110C94AB110C94AB11AA
:100010000C94AB110C94AB110C94AB110C94AB1170
:100020000C94AB110C94AB110C9448BB0C94C5BB55
:100030000C94AB110C94AB110C94AB110C94AB1150
:100040000C94AB110C94388B0C94AB110C94AB1139
:100050000C94AB110C94AB110C9493A30C94A7BA11
:100060000C94AB110C94AB110C94AB110C94AB1120
:100070000C94AB110C94AB110C94AB110C94AB1110
:100080000C94AB110C94AB110C94AB110C94AB1100
:100090000C945AB10C94AB1136B862B884B884B8D9
:1000A00084B884B884B884B884B884B884B884B870
:1000B00084B884B87AB872B86AB884B884B884B896
:1000C00084B884B884B884B85CB842B84AB854B824
:1000D000084AD73B3BCE016E84BCBFFDC12F3D6CAF
:1000E00074319ABD56833DDA3D00C77F11BED9E415
:1000F000BB4C3E916BAAAABE000000803F05A84CF5
:10010000CDB2D44EB93836A9020C50B991868808C0
:100110003CA6AAAA2ABE000000803F004E414E49DC
:100120004E495459494E46CDCCCC3D0AD7233C17B5
:10013000B7D13877CC2B329595E6241FB14F0A0002
:100140000020410000C84200401C4620BCBE4CCAF2
:100150001B0E5AAEC59D742020506C616E6E657288
:1001600042756666657242797465733A200020466E
:10017000726565204D656D6F72793A2000436F6D31
:1001800070696C65643A20466562203234203230F2
:1001900031390A00207C20417574686F723A20283A
:1001A00044722E5068696C3344290A003230313869
:1001B0002D30382D303100204C617374205570641F
:1001C000617465643A2000312E312E390A004D6188
:1001D000726C696E0020536F66747761726520528D
:1001E000657365740A00205761746368646F6720E3
:1001F00052657365740A002042726F776E206F75C6
:10020000742052657365740A002045787465726EB7
:10021000616C2052657365740A00506F7765725582
:10022000700A0073746172740A005072696E7465AA
:10023000722068616C7465642E206B696C6C28296F
:100240002063616C6C6564210A004B494C4C454449
:100250002E20004B494C4C2063617573656420620D
:100260007920746F6F206D75636820696E616374A7
:100270006976652074696D65202D206375727265DD
:100280006E7420636F6D6D616E643A200020746F30
:100290006F206C6F6E6720657874727573696F6E0E
:1002A0002070726576656E7465640A0020636F6CF9
:1002B0006420657874727573696F6E2070726576EC
:1002C000656E7465640A006F6B00526573656E64D9
:1002D0003A20003A004361703A0000011C1D132FC0
:1002E000FFFFFFFF1E1F12FF18FFFFFF2021112439
:1002F000FFFFFFFFFFFFFF0E10FFFFFF22230DFF99
:10030000FFFF0E260F2C2741637469766520457820
:100310007472756465723A200020453A00205A3A9A
:100320000020593A00583A002C20002C2000627519
:1003300073793A2070617573656420666F72206905
:100340006E7075740A00627573793A207061757306
:10035000656420666F7220757365720A006275733A
:10036000793A2070726F63657373696E670A005023
:10037000726F62696E67206661696C65640A00204D
:100380005A3A200020593A200042656420583A2009
:10039000002066697273740A005A005900580048B8
:1003A0006F6D65200020496E76616C696420657808
:1003B0007472756465722000656E71756575656926
:1003C0006E67202200496E76616C696420657874DE
:1003D00072756465720A004E6F2063617365206CEC
:1003E000696768740A00416476616E6365204B3DFD
:1003F000003F4B2076616C7565206F7574206F66C9
:100400002072616E67652028302D3130292E0A0058
:1004100020595A3A200020585A3A2000536B6577E9
:1004200020466163746F722058593A20006D696EDE
:100430005F736B65775F666163746F723A20202D1E
:1004400031206D61785F736B65775F666163746F90
:10045000723A2020310A003A200050726F62652003
:100460005A204F6666736574003F5A206F7574207A
:100470006F662072616E676520282D322E352074DC
:100480006F203230290A00454550524F4D204F4BC6
:100490000A00546F6F206661722066726F6D207261
:1004A00065666572656E636520706F696E740A00BB
:1004B000426564204C6576656C696E672000466114
:1004C000696C656420746F20656E61626C652042A2
:1004D0006564204C6576656C696E670A00426564E8
:1004E000204C6576656C20436F7272656374696F2A
:1004F0006E204D61747269783A0043290A00616286
:100500006C656420286D696E2074656D70200043F1
:100510006F6C6420657874727564657320617265B0
:10052000200020643A0020693A0020703A00496EA9
:1005300076616C69642065787472756465720A000E
:1005400020643A0020693A0020703A0050726F62CD
:1005500065205A204F66667365743A200020466C09
:100560006F773A2000205A00205900580020204D73
:1005700061783A2000205A00205900580020204D70
:10058000696E3A20004F6666004F6E2000536F661A
:100590007420656E6473746F70733A200020540089
:1005A000205200416363656C65726174696F6E3AD5
:1005B0002050002F2F2000544845524D414C5F5091
:1005C000524F54454354494F4E004155544F5245A4
:1005D000504F52545F53445F535441545553004558
:1005E0004D455247454E43595F5041525345520085
:1005F000434153455F4C494748545F42524947483D
:10060000544E45535300544F47474C455F4C494760
:1006100048545300534F4654574152455F504F572B
:100620004552004255494C445F50455243454E5453
:10063000004C4556454C494E475F44415441005A91
:100640005F50524F4245004155544F4C4556454C22
:10065000005052494E545F4A4F420050524F475249
:10066000455353004155544F5245504F52545F54D7
:10067000454D5000564F4C554D4554524943004549
:100680004550524F4D0053455249414C5F584F4ED3
:100690005F584F4646004649524D574152455F4EBE
:1006A000414D453A4D61726C696E20312E312E39C3
:1006B00020284769746875622920534F5552434575
:1006C0005F434F44455F55524C3A68747470733AB7
:1006D0002F2F6769746875622E636F6D2F4D61727D
:1006E0006C696E4669726D776172652F4D61726CCF
:1006F000696E2050524F544F434F4C5F56455253F2
:10070000494F4E3A312E30204D414348494E455FC6
:10071000545950453A5072696E7472626F74205029
:100720006C61792076312E3020455854525544451D
:10073000525F434F554E543A3120555549443A344F
:10074000306365363164312D326564302D34353394
:10075000302D383330342D3535653365656161654D
:100760006266660A004D3131332053006F666600C1
:1007700044454255473A00A2079D0796078F0781D7
:1007800007434F4D4D554E49434154494F4E004448
:10079000525952554E004552524F525300494E46FF
:1007A0004F004543484F0020573A0020573A004B2E
:1007B000494C4C45442E20006F6B005374616E64AD
:1007C00061726420446576696174696F6E3A2000D5
:1007D0002052616E67653A2000204D61783A200012
:1007E000204D696E3A20004D65616E3A20004669E1
:1007F0006E6973686564210A002072616E67653AEC
:100800002000206D61783A2000206D696E3A20004A
:10081000207369676D613A2000206D65616E3A2032
:10082000003A207A3A2000206F662000205A0020EB
:100830005900205800476F696E6720746F3A004373
:100840006C6F636B776973650A00436F756E7465CF
:10085000722D0020446972656374696F6E3A2000DE
:10086000202020616E676C653A20005374617274B9
:10087000696E67207261646975733A2000506F7306
:100880006974696F6E696E67207468652070726F35
:1008900062652E2E2E0A003F4E756D626572206FC6
:1008A00066206C65677320696E206D6F76656D6577
:1008B0006E74206E6F7420706C61757369626C6504
:1008C0002028302D3135292E0A003F2028582C5958
:1008D00029206F7574206F6620626F756E64732EA9
:1008E0000A003F53616D706C652073697A65206EF4
:1008F0006F7420706C61757369626C652028342D8B
:100900003530292E0A004D3438205A2D50726F622E
:1009100065205265706561746162696C69747920E3
:10092000546573740A003F2856296572626F7365B7
:10093000206C6576656C20697320696D706C6175DB
:100940007369626C652028302D34292E0A0050729C
:100950006F7465637465642050696E0A0050726933
:100960006E742074696D653A2000205A3A20002088
:10097000593A200042656420583A20004731205AF5
:1009800031302046373030300A4731205830205936
:1009900030204637303030000A0A426564204C650A
:1009A00076656C20436F7272656374696F6E204D5B
:1009B00061747269783A00202B000A436F72726585
:1009C00063746564204265642048656967687420C3
:1009D00076732E2042656420546F706F6C6F677958
:1009E0003A0A00202B000A4265642048656967685E
:1009F0007420546F706F6772617068793A0A2020B2
:100A0000202B2D2D2D204241434B202D2D2B0A2014
:100A100020207C20202020202020202020207C0A34
:100A2000204C207C20202020282B29202020207CC6
:100A300020520A2045207C20202020202020202019
:100A400020207C20490A2046207C20282D29204E69
:100A500020282B29207C20470A2054207C2020207D
:100A600020202020202020207C20480A2020207CBC
:100A700020202020282D29202020207C20540A20DE
:100A800020207C20202020202020202020207C0AC4
:100A90002020204F2D2D2046524F4E54202D2D2BFF
:100AA0000A2028302C30290A004D65616E206F66BF
:100AB0002073616D706C656420706F696E74733A39
:100AC000200020643A200020623A200045716E2008
:100AD000636F656666696369656E74733A20613A2F
:100AE0002000202844525952554E290047323920BF
:100AF0004175746F20426564204C6576656C696E43
:100B000067003F20284C2C522C462C4229206F7520
:100B100074206F6620626F756E64732E0A003F50FA
:100B2000726F626520706F696E7473202859292076
:100B3000697320696D706C61757369626C652028DA
:100B4000322D33292E0A003F50726F626520706F7C
:100B5000696E74732028582920697320696D706C40
:100B600061757369626C652028322D33292E0A0065
:100B70003F2856296572626F7365206C6576656CD7
:100B800020697320696D706C61757369626C652092
:100B900028302D34292E0A00486F6D6520585920C1
:100BA00066697273740A0047322F473320626164AA
:100BB00020706172616D65746572730A00576172AD
:100BC0006E696E673A20486F6D696E672042756D79
:100BD000702044697669736F72203C20310A0002EC
:100BE00002044B494C4C45442E20005072696E74EF
:100BF00065722073746F707065642064756520740D
:100C00006F206572726F72732E2046697820746847
:100C100065206572726F7220616E64207573652045
:100C20004D39393920746F20726573746172742E76
:100C3000202854656D7065726174757265206973E2
:100C40002072657365742E20536574206974206169
:100C5000667465722072657374617274696E672957
:100C60000A004E6F20436865636B73756D2077696A
:100C70007468206C696E65206E756D6265722C20DB
:100C80004C617374204C696E653A2000636865633B
:100C90006B73756D206D69736D617463682C204C86
:100CA000617374204C696E653A20004C696E652052
:100CB0004E756D626572206973206E6F74204C6191
:100CC0007374204C696E65204E756D6265722B31B0
:100CD0002C204C617374204C696E653A20004D31B4
:100CE000313000FF01FF0000A0400000A0400000E4
:100CF00000400000C84200004A43000003430000D7
:100D0000000000004843000000000000C84200004E
:100D100048430000034300000000000000C0000042
:100D200000000000484200004842000080400000EF
:100D300000002569730025696D2025697300256908
:100D4000682025696D20256973002569642025695F
:100D5000682025696D20256973002569792025693A
:100D600064202569682025696D202569730020208D
:100D70004D393030204B004C696E65617220416402
:100D800076616E63653A0A00204B00204A002020FD
:100D90004D383532204900536B65772046616374C6
:100DA0006F723A200A0020204D383531205A005AFF
:100DB0002D50726F6265204F666673657400204423
:100DC0000020490020204D333034205000204400C2
:100DD00020490020204D333031205000504944201C
:100DE00073657474696E67733A0A0020204D34325B
:100DF000302053004175746F20426564204C657645
:100E0000656C696E673A0A00205A0020590020205C
:100E10004D323036205800486F6D65206F6666731E
:100E200065743A0A00204500205A002059002058D5
:100E30000020540020530020204D32303520510036
:100E400020453C6D61785F655F6A65726B3E00208E
:100E5000583C6D61785F785F6A65726B3E20593CE3
:100E60006D61785F795F6A65726B3E205A3C6D6197
:100E7000785F7A5F6A65726B3E00416476616E638B
:100E800065643A20513C6D696E5F7365676D656E90
:100E9000745F74696D655F75733E20533C6D696E58
:100EA0005F66656564726174653E20543C6D696E71
:100EB0005F74726176656C5F6665656472617465A6
:100EC0003E0020540020520020204D32303420506B
:100ED00000416363656C65726174696F6E2028758B
:100EE0006E6974732F7332293A20503C7072696EA8
:100EF000745F616363656C3E20523C72657472611D
:100F000063745F616363656C3E20543C7472617608
:100F1000656C5F616363656C3E0A00204500205A82
:100F20000020590020204D3230312058004D61788A
:100F3000696D756D20416363656C65726174696F7D
:100F40006E2028756E6974732F7332293A0A002057
:100F50004500205A0020590020204D3230332058BF
:100F6000004D6178696D756D2066656564726174A8
:100F700065732028756E6974732F73293A0A0020EF
:100F80004500205A0020590020204D3932205800B9
:100F900053746570732070657220756E69743A0AB7
:100FA0000020204D3230302044300A0020204D32C5
:100FB00030302044002044697361626C65640A002B
:100FC00046696C616D656E742073657474696E67D3
:100FD000733A002020473231202020203B00486116
:100FE0007264636F6465642044656661756C742027
:100FF00053657474696E6773204C6F616465640A2D
:1010000000DC050000DC0500006400000010270083
:10101000000000FA420000FA420000A04000002058
:10102000420000A0420000A0420080FC440000BD3D
:1010300042290A002062797465733B206372632041
:10104000002073746F7265642073657474696E67D1
:1010500073207265747269657665642028002028A3
:1010600063616C63756C6174656429210A002021D9
:101070003D2000454550524F4D20435243206D695D
:10108000736D61746368202D202873746F726564BA
:101090002920002053697A653A2000496E646578FA
:1010A0003A2000204D61726C696E3D563535290A33
:1010B0000028454550524F4D3D00454550524F4D3B
:1010C0002076657273696F6E206D69736D617463EC
:1010D000682000290A002062797465733B206372DE
:1010E00063200053657474696E67732053746F7264
:1010F0006564202800454550524F4D20646174615D
:1011000073697A65206572726F722E0A0045727279
:101110006F722077726974696E6720746F2045451D
:1011200050524F4D210A003A0A0020286D6D2900C7
:101130006F70656E00545249474745524544003A26
:1011400020007A5F6D696E00795F6D617800785F6D
:101150006D696E005265706F7274696E6720656E9E
:101160006473746F70207374617475730A00205A0D
:101170003A0020593A0020583A00656E6473746F43
:101180007073206869743A2000486F6D696E67203B
:101190006661696C656400556E6B6E6F776E206377
:1011A0006F6D6D616E643A20220020746F6F206C49
:1011B0006F6E6720657874727573696F6E207072D8
:1011C0006576656E7465640A0020636F6C642065E3
:1011D0007874727573696F6E2070726576656E745F
:1011E00065640A00FFFDFCFAF8F6F4F2F0EEECEAB2
:1011F000E9E7E5E3E1E0DEDCDAD9D7D5D4D2D0CF38
:10120000CDCBCAC8C7C5C3C2C0BFBDBCBAB9B7B6CB
:10121000B4B3B2B0AFADACAAA9A8A6A5A4A2A1A030
:101220009E9D9C9A99989795949392908F8E8D8B72
:101230008A8988878684838281807F7E7D7B7A7994
:101240007877767574737271706F6E6D6C6B6A6996
:101250006867666564636261605F5E5D5C5B5A5986
:1012600058585756555453525150504F4E4D4C4B61
:101270004A4A4948474646454443424241403F3E28
:101280003E3D3C3B3B3A39383837363535343332DE
:10129000323130302F2E2E2D2C2B2B2A2929282786
:1012A0002726252524232322212120201F1E1E1D21
:1012B0001C1C1B1B1A1919181817161615151413B0
:1012C0001312121111100F0F0E0E0D0D0C0C0B0A34
:1012D0000A090908080707060605050404030302AE
:1012E0000201000000000001000000010000800079
:1012F000555555000000400033333300AAAA2A0098
:101300004992240000002000C7711C00999919001F
:10131000D1451700555515003BB113002449120063
:1013200011111100000010000F0F0F00E3380E0024
:1013300043790D00CCCC0C00C3300C00E8A20B00AC
:1013400064210B00AAAA0A00703D0A009DD809007A
:10135000427B090092240900DCD308008888080039
:101360001042080000000800F0C10700878707004E
:1013700075500700711C07003EEB0600A1BC06007B
:101380006990060066660600703E06006118060059
:1013900017F4050074D105005BB00500B29005009C
:1013A000627205005555050078390500B81E050024
:1013B000050505004EEC040087D40400A1BD04001F
:1013C00090A7040049920400C17D0400EE69040066
:1013D000C7560400444404005C32040008210400A1
:1013E00041100400000004003FF00300F8E0030097
:1013F00026D20300C3C30300CCB503003AA8030000
:101400000A9B0300388E0300C08103009F75030010
:10141000D0690300505E03001D53030034480300ED
:10142000913D03003333030016290300381F0300E6
:1014300097150300300C0300030303000BFA0200AE
:1014400049F10200BAE802005CE002002DD8020077
:101450002DD0020059C80200B0C0020031B902000C
:10146000DAB10200AAAA0200A0A30200BC9C0200FA
:10147000FA9502005C8F0200DF880200828202007F
:10148000457C02002776020027700200436A0200B2
:101490007C640200D05E02003F590200C853020083
:1014A0006563686F3A004572726F723A00205A3A6B
:1014B0000020593A0020436F756E7420583A00237B
:1014C0002C0000B8220000561800003A0F0000B8A7
:1014D000080000B1040000710200003E0100002479
:1014E000F4D43050C38E20C2A24017828B701112E8
:1014F0007A910D816CD90AA861E108C75866076125
:101500005143061E4B5D05C145A7041A411104094C
:101510003D9803713931034036DB0265339102D4C3
:10152000305402802E1D02632CEE01752AC501B0D5
:1015300028A001102781018F2564012B244B01E095
:10154000223401AC211F018D200D01801FFC00847D
:101550001EED00971DDF00B81CD200E61BC6002060
:101560001BBC00641AB200B219A8000A19A0006AD4
:10157000189900D117910040178B00B516840031DF
:10158000167E00B31579003A157300C7146F005822
:10159000146A00EE1366008813630025135E00C70B
:1015A000125B006C12570015125400C111510070EB
:1015B000114F0021114B00D61049008D10470046F5
:1015C00010440002104200C00F4000800F3E004255
:1015D0000F3C00060F3B00CB0E3800930E37005C2B
:1015E0000E3500270E3400F30D3200C10D3100908E
:1015F0000D3000600D2E00320D2D00050D2C00D990
:101600000C2B00AE0C2900850C29005C0C27003542
:101610000C27000E0C2600E80B2400C40B2400A0AD
:101620000B23007D0B23005A0B2100390B210018DE
:101630000B2000F80A1F00D90A1E00BB0A1E009DDD
:101640000A1D00800A1D00630A1C00470A1B002CAB
:101650000A1B00110A1A00F7091A00DD091900C453
:10166000091900AB091900920917007B09180063DA
:101670000917004C09160036091600200916000A41
:10168000091500F5081500E0081400CC081400B88E
:10169000081400A4081400900813007D0812006BC1
:1016A00008130058081200460812003408110023DD
:1016B0000811001208110001081100F0071000E0E5
:1016C000071000D0071000C0071000B0070F00A1DE
:1016D00007100091070E0083070F0074070F0065C5
:1016E000070E0057070E0049070E003B070D002E9E
:1016F000070E0020070D0013070D0006070D00F967
:10170000060C00ED060D00E0060C00D4060C00C827
:10171000060C00BC060C00B0060C00A4060B0099D9
:10172000060C008D060B0082060B0077060B006C82
:10173000060B0061060A0057060B004C060A004221
:10174000060A0038060A002E060A0024060A001AB5
:10175000060A001006090007060A00FD050900F444
:10176000050900EB050900E2050900D9050900D0CB
:10177000050900C7050900BE050900B5050800AD4B
:10178000050800A50509009C050800940508008CC3
:10179000050800840508007C050800740508006C35
:1017A000050700650508005D050700560508004EA1
:1017B0000507004705070040050800380507003108
:1017C0000507002A050700230507001C050600166B
:1017D0000507000F0507000805060002050700FBC6
:1017E000040600F5040700EE040600E8040600E223
:1017F000040700DB040600D5040600CF040600C978
:10180000040600C3040600BD040600B7040600B1C8
:10181000040500AC040600A6040600A00405009B15
:1018200004060095040500900406008A040500855E
:10183000040500800406007A0405007504050070A4
:101840000405006B04050066040500610405005CE6
:1018500004050057040500520405004D0405004826
:10186000040500430405003E0404003A0405003565
:10187000040500300404002C0405002704040023A0
:101880000405001E0404001A0404001604050011D7
:101890000404000D0404000904050004040400000D
:1018A000040400FC030400F8030400F4030400F043
:1018B000030400EC030400E8030400E4030400E074
:1018C000030400DC030400D8030400D4030400D0A4
:1018D000030400CC030400C8030300C50303002471
:1018E000F404D9201BC40C5C0E9804C4095F026583
:1018F000077101F405F900FB04B30048048700C137
:101900000369005803550003034500BE023A0084F2
:1019100002310053022A002902250004022000E4BB
:10192000011C00C8011900AF0117009801140084C0
:10193000011300710110006101100051010E0043FC
:10194000010D0036010B002B010B0020010B0015CF
:101950000109000C01090003010800FB000800F365
:10196000000800EB000700E4000600DE000600D8D7
:10197000000600D2000600CC000500C7000500C22A
:10198000000500BD000400B9000400B5000400B16A
:10199000000400AD000400A9000400A5000300A29B
:1019A0000003009F0004009B0003009800030095C3
:1019B00000020093000300900003008D0002008BE2
:1019C00000030088000200860002008400030081FA
:1019D0000002007F0002007D0002007B000200790F
:1019E000000200770001007600020074000200721D
:1019F000000100710002006F0002006D0001006C28
:101A00000002006A00010069000200670001006630
:101A10000001006500010064000200620001006135
:101A2000000100600001005F0002005D0001005C39
:101A30000001005B0001005A00010059000100583C
:101A4000000100570001005600010055000100543C
:101A5000000100530000005300010052000100513A
:101A6000000100500001004F0001004E0000004E38
:101A70000001004D0001004C0001004B0000004B34
:101A80000001004A00010049000100480000004830
:101A9000000100470001004600000046000100452B
:101AA0000000004500010044000100430000004325
:101AB000000100420000004200010041000000411E
:101AC000000100400001003F0000003F0001003E17
:101AD0000000003E0001003D0000003D0001003C10
:101AE0000000003C0000003C0001003B0000003B07
:101AF0000001003A0000003A0001003900000039FE
:101B000000010038000000380000003800010037F4
:101B100000000037000100360000003600000036EB
:101B200000010035000000350000003500010034E0
:101B300000000034000000340001003300000033D6
:101B400000000033000100320000003200000032CB
:101B500000010031000000310000003100010030C0
:101B600000000030000000300001002F0000002FB6
:101B70000000002F0000002F0001002E0000002EAA
:101B80000000002E0001002D0000002D0000002D9F
:101B90000000002D0001002C0000002C0000002C93
:101BA0000000002C0001002B0000002B0000002B87
:101BB0000000002B0001002A0000002A0000002A7B
:101BC0000000002A0001002900000029000000296F
:101BD0000000002900000029000100280000002862
:101BE0000000002800000028000000280001002755
:101BF0000000002700000027000000270000002749
:101C0000000100260000002600000026000000263B
:101C1000000000260001002500000025000000252E
:101C20000000002500000025000000250001002420
:101C30000000002400000024000000240000002414
:101C40000001002300000023000000230000002307
:101C500000000023000000230000002300010022F8
:101C600000000022000000220000002200000022EC
:101C700000000022000100210000002100000021DE
:101C800000000021000000210000002100000021D0
:101C900000010020000000200000002000000020C3
:101CA00000000020000000200000002000000020B4
:101CB0000001001F0000001F0000001F0000001FA7
:101CC0000000001F0000001F0000001F0001001E98
:101CD0000000001E0000001E0000001E0000002981
:101CE0000A002028002920453A0020280029205AEF
:101CF0003A002028002920593A0020280020583A8C
:101D000000537465707065722063757272656E74CD
:101D10002076616C75657320696E20252028416DE1
:101D20007073293A0A002042403A0020403A0020CD
:101D30002F00546865726D616C2052756E61776119
:101D40007900453120544845524D414C2052554E62
:101D5000415741590042454420544845524D414C59
:101D60002052554E41574159004B494C4C45442E49
:101D70002000202D20496E76616C6964206578749E
:101D80007275646572206E756D62657220210A003D
:101D900048656174696E67206661696C65640042BC
:101DA00065642068656174696E67206661696C6549
:101DB000640048656174696E67206661696C65647A
:101DC0000045312048656174696E67206661696C01
:101DD0006564004D494E54454D50207472696767E3
:101DE00065726564004531204572723A204D494E56
:101DF00054454D50004572723A204D494E54454D60
:101E00005020424544004D415854454D5020747275
:101E100069676765726564004531204572723A20D2
:101E20004D415854454D50004572723A204D41582D
:101E300054454D5020424544006265640A002C2000
:101E400073797374656D2073746F7070656421208D
:101E50004865617465725F49443A20002CFFFFFFBA
:101E6000FFFF0001010101014B642000236465664E
:101E7000696E652044454641554C545F004B6920CE
:101E80000023646566696E652044454641554C549F
:101E90005F004B70200023646566696E65204445D1
:101EA0004641554C545F00504944204175746F744D
:101EB000756E652066696E6973686564212050756A
:101EC0007420746865206C617374204B702C204BF7
:101ED0006920616E64204B6420636F6E7374616E61
:101EE00074732066726F6D2062656C6F7720696E07
:101EF000746F20436F6E66696775726174696F6E87
:101F00002E680A00504944204175746F74756E65DF
:101F1000206661696C6564212074696D656F7574F4
:101F20000A00546865726D616C2052756E6177614C
:101F30007900453120544845524D414C2052554E70
:101F4000415741590042454420544845524D414C67
:101F50002052554E415741590048656174696E677A
:101F6000206661696C65640045312048656174696B
:101F70006E67206661696C6564004265642068650F
:101F80006174696E67206661696C656400504944DC
:101F9000204175746F74756E65206661696C656447
:101FA000212054656D706572617475726520746F5F
:101FB0006F20686967680A00204B643A2000204B54
:101FC000693A2000204B703A20000A20436C61736C
:101FD00073696320504944200A002054753A200058
:101FE000204B753A2000206D61783A2000206D6901
:101FF0006E3A200020643A200020626961733A2022
:1020000000504944204175746F74756E6520737477
:102010006172740A00504944204175746F74756E82
:1020200065206661696C6564212042616420657881
:10203000747275646572206E756D6265720A001047
:1020400000C90210012C014001220170011801B0E9
:10205000010E01F00104015002FA00B002F000305C
:1020600003E600D003DC009004D2007005C800A095
:1020700006BE000008B400B009AA00D00BA00060A2
:102080000E960060118C000015820020197800C0A7
:102090001D6E00A0226400B0275A00902C50000052
:1020A000314600E0343C0010383200903A2800609D
:1020B0003C1E00A03D1400803E0A00203F0000703E
:1020C000012C0190012701B0012201C0011D01F086
:1020D0000118011002130130020E01600209019083
:1020E000020401C002FF000003FA004003F5008073
:1020F00003F000D003EB002004E6007004E100E0F0
:1021000004DC004005D700C005D2004006CD00D059
:1021100006C8008007C3003008BE00F008B900C040
:1021200009B400B00AAF00B00BAA00D00CA50000A3
:102130000EA000500F9B00C010960050129100009E
:10214000148C00C0158700B0178200B0197D00D034
:102150001B7800001E730040206E0090226900F082
:1021600024640040275F0090295A00E02B5500109E
:102170002E500020304B0010324600E033410090DA
:10218000353C001037370070383200A0392D00B0D0
:102190003A2800A03B2300603C1E00103D1900902F
:1021A0003D1400103E0F00703E0A00C03E050000C6
:1021B0003F0000403FFBFF803FF6FFC03FF1FF01C3
:1021C00029022904290829102920294029802901C8
:1021D0002C022C0126022604260826102620264042
:1021E000268026402C802C01230223042308231060
:1021F00023202340238023012002200420082010D4
:1022000020202040208020102C202C012F022F0481
:102210002F082F102F202F402F802F7EFE7EFD7E37
:10222000FB7EF77EEF7EDF7EBF7E7F00010000DC5D
:1022300022120002000099224300030000952204AC
:10224000010309047B221802030904632216030315
:10225000090455220C0C03310032003300340035E0
:102260000000001603550053004200200053006593
:10227000007200690061006C0000001803540065E2
:102280000065006E00730079006400750069006EDF
:10229000006F00000004030904090243000201006A
:1022A000C0320904000001020201000524001001EF
:1022B0000524010001042402060524060001070587
:1022C000820308004009040100020A00000007051B
:1022D00003024000000705840240000012010002D2
:1022E00002000020C01683047202010203010001F3
:1022F000C102018036018136706DD98978B012BF74
:10230000796D11241FBECFEFD0E2DEBFCDBF12E04A
:10231000A0E0B1E0EAEBF6E901E00BBF02C00790F4
:102320000D92AC33B107D9F72EE0ACE3B2E001C0B7
:102330001D92AA38B207E1F711E1C0E8D1E104C06B
:102340002197FE010E949ABFCC37D107C9F70E949E
:10235000A7B60C9450CB0C9400004F925F926F92F2
:102360007F928F929F92AF92BF92CF92DF92EF9225
:10237000FF92CF934B015C0169017A0120E030E0CC
:1023800040EA51E40E94BCBF2B013C012FE632E140
:1023900043E85AEB0E9499C287FD48C023E830E029
:1023A00048EC52E4C301B2010E9496C018160CF426
:1023B0003DC022E630E140E050ECC701B6010E948A
:1023C00099C287FD33C022E430E048E453E4C701FA
:1023D000B6010E9496C018164CF124EF3DEF4FE96C
:1023E00051E4C501B4010E9499C287FD1FC023E8D2
:1023F00030E044EB52E4C501B4010E9496C01816C7
:10240000ACF027EE3BEF4FE151E4C701B6010E946B
:1024100099C287FD0BC0C1E022E430E04EE353E4F3
:10242000C701B6010E9496C018160CF4C0E08C2FAC
:10243000CF91FF90EF90DF90CF90BF90AF909F90A3
:102440008F907F906F905F904F9008950C9477B528
:10245000CF93DF931F92CDB7DEB76983DC01ED9197
:10246000FC910280F381E02D41E050E0BE016F5FFE
:102470007F4F09950F90DF91CF910895FF920F93B1
:102480001F93CF93DF93F82E092F162FE5EDF2E07F
:102490006491EF012196662329F08CE79EE0D8DF56
:1024A000FE01F6CFEF2DF02F6491EF012196662308
:1024B00029F08CE79EE0CCDFFE01F6CFE3EDF2E001
:1024C0006491EF012196662329F08CE79EE0C0DF3E
:1024D000FE01F6CF412F50E060E070E08CE79EE017
:1024E0000E946AB56AE08CE79EE0DF91CF911F9170
:1024F0000F91FF90ADCF0FB6F8948091710E90912F
:10250000720EA091730EB091740E0FBE8093BB0239
:102510009093BC02A093BD02B093BE0208952F9287
:102520003F924F925F926F927F928F929F92AF9263
:10253000BF92CF92DF92EF92FF920F931F93CF93B0
:10254000DF93EB01FC0180809180A280B380C50104
:10255000B40120E831E541E050E00E945CBFC901D0
:102560006DE671E00E9435BF6B017C01C501B401CD
:1025700020E13EE040E050E00E945CBFCA01B901AA
:1025800028E130E040E050E00E945CBF362E272E6C
:10259000062F172F8CE3482E512C612C712CC5016E
:1025A000B401A30192010E945CBFB62EA72ECA01FE
:1025B000B901A30192010E945CBFCB01C114D104F7
:1025C000D9F0AF92BF927F936F932F923F92FF9279
:1025D000EF92DF92CF928AE59DE09F938F93DF93F6
:1025E000CF930E9454C88DB79EB70E960FB6F8943D
:1025F0009EBF0FBE8DBF5CC0E114F104C9F0AF9265
:10260000BF927F936F932F923F92FF92EF928AE453
:102610009DE09F938F93DF93CF930E9454C8EDB7B3
:10262000FEB73C960FB6F894FEBF0FBEEDBF40C09C
:10263000012BB9F0AF92BF927F936F932F923F928D
:102640008EE39DE09F938F93DF93CF930E9454C8B6
:102650008DB79EB70A960FB6F8949EBF0FBE8DBF7A
:1026600027C0892BA9F0AF92BF927F936F9386E327
:102670009DE09F938F93DF93CF930E9454C8EDB753
:10268000FEB738960FB6F894FEBF0FBEEDBF10C070
:10269000AF92BF9282E39DE09F938F93DF93CF939E
:1026A0000E9454C80F900F900F900F900F900F90B2
:1026B000DF91CF911F910F91FF90EF90DF90CF901E
:1026C000BF90AF909F908F907F906F905F904F9052
:1026D0003F902F90089581548A3108F041C0E82F2F
:1026E000F0E04091F2045091F3046091F404709191
:1026F000F50404C076956795579547958A95D2F766
:10270000842F817040FF33C0E852FB4F90819923A2
:1027100001F1E091FD04F091FE04E90FF11D9081BB
:1027200020ED290F2A3080F09E3229F491819053B8
:102730009A3078F409C09D3211F09B3251F49181A6
:1027400020ED290F2A3018F42E2F9F2F04C09E321F
:1027500049F020E090E02093F9049093FA04089562
:1027600080E00895928190539A3098F7EDCF0895C4
:10277000B2DF882341F081E02091F9043091FA041E
:10278000232B09F480E008950F931F93CF9380913A
:10279000F9049091FA04009711F1FC018F01C191A5
:1027A0002C2F2F7DA9F0C53411F0C536B9F7F801EB
:1027B000108260E070E08091F9049091FA040E9428
:1027C0003AC4F801C083562F472F382F292F0BC04A
:1027D00060E070E0CF911F910F910C943AC450E0EB
:1027E00040E030E020E0652F742F832F922FCF91AF
:1027F0001F910F9108958091F9049091FA04009728
:1028000031F04AE050E060E070E00C948DC560E08B
:1028100070E0CB0108958091F9049091FA0400973B
:1028200031F04AE050E060E070E00C94B8C660E03F
:1028300070E0CB010895DFDF97FD0AC0DCDF6F3F5A
:1028400071058105910509F02CF4D5DF862F0895D7
:1028500080E008958FEF08958091F9049091FA0433
:10286000892B31F0E8DF91E0811103C090E001C0D5
:1028700091E0892F08950F931F93CF93DF93CDB7E6
:10288000DEB72C970FB6F894DEBF0FBECDBFEFE9D1
:10289000F4E080859185A285B38544815581668168
:1028A0007781008111812281338109871A872B87E3
:1028B0003C874D835E836F83788789839A83AB835C
:1028C000BC83AE014F5F5F4FBE016B5F7F4FCE0198
:1028D00009960E94AA772BEA34E0AE014F5F5F4F62
:1028E000BE016B5F7F4FCE0109960E949A872C969E
:1028F0000FB6F894DEBF0FBECDBFDF91CF911F9111
:102900000F9108952F923F924F925F926F927F9214
:102910009F92AF92BF92CF92DF92EF92FF920F936E
:102920001F93CF93DF93CDB7DEB764970FB6F894BC
:10293000DEBF0FBECDBF1A012B01922EF32EC82E83
:10294000D12CF601ED51F34FE491AA24A3941E1665
:102950000CF4A12CBB24B39420E030E0A901C20107
:10296000B1010E9499C218160CF0B12CCC0CDD1CE0
:10297000CC0CDD1CC60181569B4F3C01FC01108232
:1029800011821282138277DFF30120823182428228
:102990005382E090C30220E030E0A901B801892D04
:1029A0009F2D0E9496C081110AC0F601EE5DF24F84
:1029B00085919591A591B4918C019A2EFB2EC80119
:1029C000A92DBF2D898B9A8BAB8BBC8B8091A704D3
:1029D0009091A804A091A904B091AA044091A304E5
:1029E0005091A4046091A5047091A60400919F04E5
:1029F0001091A0042091A1043091A2040D871E879C
:102A00002F87388B49875A876B877C878D839E8376
:102A1000AF83B88719821A821B821C82AE014B5F7A
:102A20005F4FBE01675F7F4FCE010D960E94AA7770
:102A3000CE0101966C018E010F5E1F4F2BEA34E030
:102A4000AE014B5F5F4FBE01675F7F4F0C960E94E8
:102A5000B8860E94BC7AAB100E948F6964960FB64C
:102A6000F894DEBF0FBECDBFDF91CF911F910F91C4
:102A7000FF90EF90DF90CF90BF90AF909F907F90AE
:102A80006F905F904F903F902F9008956BEA74E0A5
:102A900083E00C94BF88CF93DF9300D0CDB7DEB72F
:102AA00020916E0E30916F0ECE01019621153105E9
:102AB00029F48A589E409A83898304C0821B930B11
:102AC0009A83898389819A810F900F90DF91CF91AA
:102AD0000895FF920F931F93CF93DF93FC01208102
:102AE0002B3319F1D0918404D430F8F4F62EBC01C4
:102AF000C09182040C2F10E0F0E6CF9FC00111249A
:102B00008E5F9C4F0E9434C8F801EE55FD4FF08255
:102B1000CF5FC43018F4C093820402C010928204C4
:102B2000DF5FD093840481E001C080E0DF91CF912A
:102B30001F910F91FF900895EF92FF921F93CF93F3
:102B4000DF937C0160E0C5DF182F8823C9F0E0EA3D
:102B5000F4E16491EF012196662329F08CE79EE071
:102B600077DCFE01F6CFB70188EB93E00E945C8A28
:102B700062E28CE79EE06CDC6AE08CE79EE068DC59
:102B8000812FDF91CF911F91FF90EF900895DF92F9
:102B9000EF92FF920F931F93CF93DF93CDB7DEB7E2
:102BA0006E970FB6F894DEBF0FBECDBF60910003E5
:102BB000709101036115710541F14DE150E0CE01C5
:102BC00001967C010E94E3C71E8EF7018F010E194A
:102BD0001F09D190DD2019F09AE0D912F7CFF70143
:102BE000E00FF11F1082C701A7DF882371F0DD20FD
:102BF000A9F00F5F1F4F8091000390910103080F10
:102C0000191F109301030093000381E0209100033A
:102C100030910103232B29F480E003C000E010E091
:102C2000F0CF6E960FB6F894DEBF0FBECDBFDF912A
:102C3000CF911F910F91FF90EF90DF900895EF9249
:102C4000FF920F931F93CF93DF937C0184E590DD78
:102C5000D82F882369F1EFDDC82F18162CF5E0EA8C
:102C6000F4E164918F010F5F1F4F662329F08CE719
:102C70009EE0EEDBF801F5CF6DE48CE79EE0E8DB4B
:102C8000A70160E070E020E08CE79EE00E94FEB4C7
:102C90006C2FCC0F770B85EA93E00E94DD896AE008
:102CA0008CE79EE0D5DB08C08093B602D0E004C07C
:102CB0008091C3028093B6028D2FDF91CF911F9137
:102CC0000F91FF90EF9008950F931F93CF93DF9391
:102CD00094E0899FE00111248E010E521D4FFE01E8
:102CE000E252FD4FDE01A651BD4F2D913D914D9118
:102CF0005C9160817181828193810E94BDBFF801E6
:102D00006083718382839383FE01EA5EF24F859133
:102D10009591A591B491FE01EA53FD4F8083918373
:102D2000A283B383FE01E65FF24F85919591A59151
:102D3000B491C15FDE4F88839983AA83BB83DF91FF
:102D4000CF911F910F910895CF92DF92EF920F9341
:102D50001F93CF93DF93CDB7DEB760970FB6F8948C
:102D6000DEBF0FBECDBFE090C302EFE9F4E0808587
:102D70009185A285B38544815581668177810081E3
:102D80001181228133810D871E872F87388B4987D8
:102D90005A876B877C878D839E83AF83B887198220
:102DA0001A821B821C82AE014B5F5F4FBE01675FC0
:102DB0007F4FCE010D960E94AA77CE0101966C013D
:102DC0000DE111E02BEA34E0AE014B5F5F4FBE0135
:102DD000675F7F4F0C960E94B88660960FB6F89496
:102DE000DEBF0FBECDBFDF91CF911F910F91EF904E
:102DF000DF90CF9008958F929F92AF92BF92CF9223
:102E0000DF92EF920F931F93CF93DF93CDB7DEB78F
:102E100060970FB6F894DEBF0FBECDBF8C01E09077
:102E2000C302EFE8F4E080859185A285B3854481F3
:102E300055816681778180809180A280B3808D8664
:102E40009E86AF86B88A49875A876B877C878D8331
:102E50009E83AF83B88719821A821B821C82AE01BF
:102E60004B5F5F4FBE01675F7F4FCE010D960E94A3
:102E7000AA77CE0101966C012BE934E0AE014B5FDD
:102E80005F4FBE01675F7F4F0C960E94B8866096C9
:102E90000FB6F894DEBF0FBECDBFDF91CF911F916B
:102EA0000F91EF90DF90CF90BF90AF909F908F9059
:102EB00008953F924F925F926F927F928F929F926E
:102EC000AF92BF92CF92DF92EF92FF920F931F9338
:102ED000CF93DF93CDB7DEB72A970FB6F894DEBF56
:102EE0000FBECDBF2B013C012D833E834F835887FE
:102EF00047015801DA86C98680911D0190911E0113
:102F0000A0911F01B091200189839A83AB83BC8378
:102F1000D601EC901196FC90119712960C91129795
:102F200013961C9120E030E0A901B701C8010E946E
:102F300096C0811108C0EAE2FDE085919591A591C6
:102F4000B4917C018D01A50194016091A704709159
:102F5000A8048091A9049091AA040E9496C087FFBA
:102F600013C0C701D80180931D0190931E01A09347
:102F70001F01B09320018092A7049092A804A09210
:102F8000A904B092AA04E0DEE985FA85D080C18068
:102F90003280F381F98720E030E0A9016D2D7C2D8E
:102FA000832D9F2F0E9496C0811109C0D0900501EA
:102FB000C0900601309007018091080189878D2D0E
:102FC0009C2DA32DB98580931D0190931E01A09384
:102FD0001F01B093200140929F045092A004609280
:102FE000A1047092A2048D819E81AF81B8858093E7
:102FF000A3049093A404A093A504B093A604A4DE14
:103000002091A7043091A8044091A9045091AA04EA
:10301000C501B4010E9496C087FF13C0C701D80143
:1030200080931D0190931E01A0931F01B093200176
:103030008092A7049092A804A092A904B092AA0436
:1030400083DE0E94BC7A89819A81AB81BC818093A6
:103050001D0190931E01A0931F01B09320012A9699
:103060000FB6F894DEBF0FBECDBFDF91CF911F9199
:103070000F91FF90EF90DF90CF90BF90AF909F9017
:103080008F907F906F905F904F903F900895CF9278
:10309000DF92EF92FF920F931F936B01FC01E08090
:1030A000F18002811381EFE9F4E0248135814681CA
:1030B00057816081718182819381FBDE1F910F9125
:1030C000FF90EF90DF90CF900895CF92DF92EF9234
:1030D000FF920F931F936A01E090A704F090A80459
:1030E0000091A9041091AA04FB0120813181428141
:1030F0005381FC016081718182819381DADE1F91AD
:103100000F91FF90EF90DF90CF90089580911D0177
:1031100090911E01A0911F01B09120018093FC02AB
:103120009093FD02A093FE02B093FF0280911B01D9
:1031300090911C019093FB028093FA0284E690E048
:1031400090931C0180931B0108958091FC02909143
:10315000FD02A091FE02B091FF0280931D019093A9
:103160001E01A0931F01B09320018091FA0290915B
:10317000FB0290931C0180931B010895FF920F9313
:103180001F93CF93DF93882329F0D0918E04D0959D
:10319000D17001C0D0E0662341F080918E04869505
:1031A000817091E0F82EF92601C0F12C442341F002
:1031B000C0918E04C2FB882780F9C1E0C82701C0F6
:1031C000C0E0D11102C0FF2019F0E0EAF4E107C02D
:1031D000C111FBCF52C08CE79EE03AD9F80164914F
:1031E0008F010F5F1F4F6111F6CFEFE9F3E064919C
:1031F0008F010F5F1F4F662329F08CE79EE028D9CF
:10320000F801F5CFDD2369F0EDE9F3E064918F017A
:103210000F5F1F4F662329F08CE79EE019D9F80154
:10322000F5CFFF2069F0EBE9F3E064918F010F5FC8
:103230001F4F662329F08CE79EE00AD9F801F5CFED
:10324000CC2319F0E9E9F3E003C0E1E9F3E00AC0B7
:103250006491EF0121966623C1F38CE79EE0F8D8D4
:10326000FE01F6CF6491EF012196662329F08CE7E9
:103270009EE0EED8FE01F6CFC1E08C2FDF91CF911A
:103280001F910F91FF900895BF92CF92DF92EF921E
:10329000FF920F931F93CF93DF93CDB7DEB728979D
:1032A0000FB6F894DEBF0FBECDBF9091BB04981748
:1032B00009F47AC0B82E882309F453C080E090E066
:1032C000A0E8B0E48D839E83AF83B887C090B2023C
:1032D000D090B302E090B402F090B50220E030E06C
:1032E000A901C701B6010E9496C087FF0CC0A701C3
:1032F000960160E070E080E890E40E94BCBF6D83BE
:103300007E838F83988720E030E043E053E46D8133
:103310007E818F8198850E9499C2181644F480E0BE
:1033200090E0A3E0B3E48D839E83AF83B8872D81C3
:103330003E814F8158856091A7047091A8048091C7
:10334000A9049091AA040E9496C087FF0AC019821E
:103350001A821B821C82BE016F5F7F4FCE010596D1
:1033600096DE60919F047091A0048091A1049091D9
:10337000A2042091A3043091A4044091A50450918B
:10338000A60419821A821B821C82E090A704F09086
:10339000A8040091A9041091AA04FE0131966F01BE
:1033A00088DD8B2D0E949A6980E028960FB6F894EC
:1033B000DEBF0FBECDBFDF91CF911F910F91FF9068
:1033C000EF90DF90CF90BF9008954F925F926F92F1
:1033D0007F928F929F92AF92BF92CF92DF92EF92A5
:1033E000FF920F931F93CF93C82FE82EF12CF70174
:1033F000ED51F34FB490823021F481E045DF81112B
:1034000010C16701CC0CDD1CCC0CDD1CF601EE50AC
:10341000F34F45905590659074906B2DBB0C770BD6
:10342000880B990B0E9438C14B015C0120E030E011
:1034300040EC5FE3C301B2010E94D4C2A501940134
:103440000E94D4C2AB01BC0100E010E098018C2FB7
:1034500059DAC23061F0F601EA51F34F8591959146
:10346000A591B491E82F792F6A2F8B2F04C0E0E04B
:1034700070E060E480E42E2F372F462F582FC501CF
:10348000B4010E94D4C24B015C0120E030E0A901EC
:103490000E9496C0882309F45DC0C23021F000E08C
:1034A00010E0980104C000E010E020E830E4B5012D
:1034B000A40170588C2F26DAC23009F43AC0F70103
:1034C000E152F44F649161111FC0E0EAF4E16491AC
:1034D0007F018FEFE81AF80A662331F08CE79EE04F
:1034E0000E942812F701F3CFEDEBFBE064917F011E
:1034F0008FEFE81AF80A662331F08CE79EE00E940D
:103500002812F701F3CF6AE0F601EE5DF24F459025
:1035100055906590749070E080E090E00E9438C112
:103520009B01AC01C301B2010E949DC02B013C0173
:1035300005C0412C512C612C90E4792EA5019401F9
:10354000C501B4010E94BDBFAB01BC019301820162
:103550008C2FD8D981E090E00C2E01C0880F0A94FE
:10356000EAF790918D04982B90938D0490918E049E
:10357000892B80938E04F601E651FD4F1082118253
:10358000128213828C2FA0DBF601E250F34F85915B
:103590009591A591B491F601E156FB4F80839183FB
:1035A000A283B383C230D1F42091B2023091B3022E
:1035B0004091B4025091B5026091A7047091A804A3
:1035C0008091A9049091AA040E94BCBF6093A704B3
:1035D0007093A8048093A9049093AA044CD9F6018F
:1035E000E157FB4FD601A156BB4F8D919D910D9098
:1035F000BC91A02D80839183A283B383C23089F4D0
:1036000080E0CF911F910F91FF90EF90DF90CF90CE
:10361000BF90AF909F908F907F906F905F904F90F2
:1036200033CECF911F910F91FF90EF90DF90CF900D
:10363000BF90AF909F908F907F906F905F904F90D2
:1036400008959F92AF92BF92CF92DF92EF92FF9236
:103650000F931F93CF93DF9383E0A82E82E0B82EC1
:103660000FE814E0CFE9D4E092EDC92E92E0D92E14
:1036700026EFE22E22E0F22E912CF50181915F01DE
:103680002AD8882301F180D8F7012081211104C0B4
:103690002091C202222339F0288139814A815B813D
:1036A0000E94BDBF0AC0F3E09F1639F0F6012081E9
:1036B0003181428153810E94BCBFF80160837183D4
:1036C0008283938309C088819981AA81BB81F80193
:1036D00080839183A283B38393940C5F1F4F2496BE
:1036E000F4E0CF0ED11C2FEFE21AF20A84E0981218
:1036F000C4CF86E43DD88823B9F046D820E030E036
:10370000A9010E9499C218167CF43ED820E030E04E
:1037100040E752E40E949DC060931D0170931E011A
:1037200080931F0190932001DF91CF911F910F9102
:10373000FF90EF90DF90CF90BF90AF909F90089553
:10374000CF92DF92EF92FF920F931F93CF93DF936D
:103750000FB6F894C090710ED090720EE090730E78
:10376000F090740E0FBE8091C102811174C08091DF
:103770000401882309F46FC08091A102882309F411
:103780006AC040919D0250919E0260919F0270918B
:10379000A00297018601041B150B260B370B37FD82
:1037A0006DC0833031F134F481300CF454C0E0EA60
:1037B000F4E106C0843009F04EC0E0EAF4E133C021
:1037C0006491EF012196662331F08CE79EE00E9420
:1037D0002812FE01F5CFEDE5F3E06491EF012196AB
:1037E000662309F438C08CE79EE00E942812FE018F
:1037F000F4CFE0EAF4E16491EF012196662331F021
:103800008CE79EE00E942812FE01F5CFE6E4F3E08B
:103810006491EF0121966623F1F08CE79EE00E940F
:103820002812FE01F5CF6491EF012196662331F055
:103830008CE79EE00E942812FE01F5CFEEE2F3E055
:103840006491EF012196662331F08CE79EE00E949F
:103850002812FE01F5CF2091040130E0A8EEB3E07C
:103860000E94A3BFC60ED71EE81EF91EC0929D027D
:10387000D0929E02E0929F02F092A002DF91CF913F
:103880001F910F91FF90EF90DF90CF9008950F93CD
:103890001F93CF93DF9300D000D0CDB7DEB78091D8
:1038A0008D0483708330E9F0E0EAF4E164918F01E4
:1038B0000F5F1F4F662331F08CE79EE00E942812B5
:1038C000F801F4CFE8E9FBE064918F010F5F1F4F2F
:1038D000662309F43EC08CE79EE00E942812F8019E
:1038E000F3CF0E943B1480E090E0A8ECB2E4809318
:1038F000930490939404A0939504B09396048091BC
:10390000A7049091A804A091A904B091AA0480935F
:10391000970490939804A0939904B0939A0480E03C
:1039200090E0A0EFB1E480938F0490939004A09373
:103930009104B093920419821A821B821C82AE01F8
:103940004F5F5F4F63E974E08FE894E0BEDB82E095
:103950003CDD0F900F900F900F90DF91CF911F9152
:103960000F9108950F931F93CF93DF93CDB7DEB7D9
:1039700069970FB6F894DEBF0FBECDBF0E94D899ED
:103980006E8B7F8B888F998FBE016F5F7F4FCE01CB
:1039900046960E948F12E0EAF4E164918F010F5F76
:1039A0001F4F662331F08CE79EE00E942812F80139
:1039B000F4CFBE016F5F7F4F8DE599E00E945C8A76
:1039C0006AE08CE79EE00E94281269960FB6F89490
:1039D000DEBF0FBECDBFDF91CF911F910F91089534
:1039E000CF93DF93E6EAF4E16491EF012196662339
:1039F00031F08CE79EE00E942812FE01F5CFEEE444
:103A0000F9E06491EF012196662331F08CE79EE0A6
:103A10000E942812FE01F5CFDF91CF9108950F93F8
:103A20001F93CF9383E50E94B813882309F440C005
:103A30000E941B14082F80E50E94B8138823C1F14F
:103A40000E941B14C82F87FD33C089E40E94B8135D
:103A5000882339F00E942C14811112C0EAEDF2E0A3
:103A60000BC089E40E946B1381110AC0F7CF319615
:103A700083E0E730F80721F08491C813F8CF14C031
:103A80008C2F0E9415B8EC2FF0E0002E0E94BAB8DF
:103A900010E0B8018C2F0E9426B8C03149F4109371
:103AA000C5020093C40204C0CF911F910F9198CF1B
:103AB000CF911F910F91089588E690E0C0D88111B1
:103AC00022C08091AF0483FD1EC083E50E94B8131D
:103AD0008823B9F00E94C4130E9405C17093AA0DF7
:103AE0006093A90D80E00E947D9F0E94C41320E096
:103AF00030E04AEA52E40E9496C0181614F00E9480
:103B000081990C94A9890895CF92DF92EF92FF9248
:103B100083E50E94B813882321F10E941B148D3382
:103B200008F08CE380931F0D0FB6F894C090710ECF
:103B3000D090720EE090730EF090740E0FBE282F8E
:103B400030E0A8EEB3E00E94A3BFC60ED71EE81E69
:103B5000F91EC0921B0DD0921C0DE0921D0DF0922B
:103B60001E0DFF90EF90DF90CF90089580E50E94AA
:103B7000B813811106C083E50E94B813882359F059
:103B800005C00E941B1481110CC0F5CF0E94FB13CD
:103B90006F3F710510F06FEF70E07093C502609396
:103BA000C4020895DF92EF92FF920F931F93CF9379
:103BB000DF9383E50E946B13882359F083E50E940D
:103BC000B813882319F00E941B1401C080E0809371
:103BD000AF04E0EAF4E16491EF012196662331F04D
:103BE0008CE79EE00E942812FE01F5CFE0E7F7E0A7
:103BF0006491EF012196662331F08CE79EE00E94EC
:103C00002812FE01F5CF8091AF048823A9F187E740
:103C1000E82E87E0F82E00E010E020E08091AF046D
:103C200090E0002E02C0959587950A94E2F780FFF8
:103C30001AC0DD24D394D20E222329F06CE28CE743
:103C40009EE00E942812F70185919491FC016491F5
:103C5000EF012196662331F08CE79EE00E94281246
:103C6000FE01F5CF2D2D0F5F1F4F82E0E80EF11CF6
:103C70000530110599F60DC0ECE6F7E06491EF010F
:103C80002196662331F08CE79EE00E942812FE0107
:103C9000F5CF6AE08CE79EE0DF91CF911F910F9105
:103CA000FF90EF90DF900C942812CF93DF9383E581
:103CB0000E94B813882351F00E941B148D3308F022
:103CC0008CE380930401DF91CF910895E0EAF4E161
:103CD0006491EF012196662331F08CE79EE00E940B
:103CE0002812FE01F5CF4091040150E060E070E041
:103CF00085E697E00E943B8A6AE08CE79EE0DF91D0
:103D0000CF910C9428124F925F926F927F92AF9254
:103D1000BF92CF92DF92EF92FF920F931F93CF93B8
:103D200083E0A82E82E0B82E03EB15E0C0E0F50199
:103D300081915F010E946B13882309F46DC0C33029
:103D400009F063C00E94C4136B017C0120E030E0E5
:103D500040EA51E40E9496C087FF4EC0A701960139
:103D60006091BF057091C0058091C1059091C20519
:103D70000E949DC02B013C019B01AC0160918B0511
:103D800070918C0580918D0590918E050E94D4C212
:103D900060938B0570938C0580938D0590938E05B1
:103DA000A30192016091CF057091D0058091D1055A
:103DB0009091D2050E94D4C26093CF057093D00534
:103DC0008093D1059093D2056091E3057091E4054D
:103DD0008091E5059091E6050E9436C1A30192010C
:103DE0000E94D4C20E940AC16093E3057093E40567
:103DF0008093E5059093E605C092BF05D092C0057B
:103E0000E092C105F092C20507C00E94C413F801F8
:103E10006083718382839383CF5F0C5F1F4FC430B5
:103E200009F085CFCF911F910F91FF90EF90DF9018
:103E3000CF90BF90AF907F906F905F904F900C9419
:103E400085890F931F93CF93DF93CFE9D4E002EDE1
:103E500012E0F801208131814281538168817981AA
:103E60008A819B810E94BDBFAB01BC0185E293E0CA
:103E70000E941A8AF80124813581468157816C811C
:103E80007D818E819F810E94BDBFAB01BC0181E21B
:103E900093E00E941A8AF801208531854285538576
:103EA000688579858A859B850E94BDBFAB01BC0171
:103EB0008DE193E00E941A8A4C855D856E857F8531
:103EC00089E193E00E941A8ADF91CF911F910F91AF
:103ED0000C9467972F923F924F925F926F927F92CE
:103EE0008F929F92AF92BF92CF92DF92EF92FF920A
:103EF0000F931F93CF93DF9383E0882E82E0982E59
:103F0000CAEED2E09FE9A92E94E0B92E02ED12E0AC
:103F1000312C212CF40181914F010E94B813882388
:103F200009F44AC00E94C4136B017C01F3E03F1600
:103F300049F0F80120813181428153810E94BCBF48
:103F40006B017C01F5012081318142815381C701E0
:103F5000B6010E94BCBF2B013C012DEB37E346E8C4
:103F600055EB0E9499C287FD0AC02DEB37E346E866
:103F700055E3C301B2010E9496C01816ECF4F3E0B9
:103F80003F120BC0C092AB04D092AC04E092AD04DF
:103F9000F092AE04222423940FC0A3019201688101
:103FA00079818A819B810E94BDBF688379838A83DE
:103FB0009B83832D0E9464163394249684E0A80E7C
:103FC000B11C0C5F1F4FE4E03E12A4CF21100E94F1
:103FD0004615DF91CF911F910F91FF90EF90DF90E9
:103FE000CF90BF90AF909F908F907F906F905F9099
:103FF0004F903F902F9025CFCF93DF93E6E9F6E0E7
:104000006491EF012196662331F08CE79EE00E94D7
:104010002812FE01F5CF60E086E896E00E943E128D
:1040200061E08FE796E00E943E1261E084E796E04F
:104030000E943E1261E084E696E00E943E1260E03B
:104040008BE596E00E943E1261E081E596E00E94D9
:104050003E1261E087E496E00E943E1261E08FE349
:1040600096E00E943E1261E081E396E00E943E12DB
:1040700060E083E296E00E943E1260E084E196E018
:104080000E943E1260E086E096E00E943E1260E0F0
:1040900080EF95E00E943E1260E08FED95E00E9477
:1040A0003E1260E08AEC95E00E943E1261E087EBF0
:1040B00095E0DF91CF910C943E12EF92FF920F9317
:1040C0001F93CF93DF9300D000D01F92CDB7DEB700
:1040D00080E50E946B13882351F08091F904909140
:1040E000FA04892B51F00E941B14182F07C082EC90
:1040F00094E00E94FAB4182F01C01FEF87E50E94D8
:104100006B13882351F08091F9049091FA04892B64
:1041100031F00E941B14082F03C000E001C00FEF14
:1041200082E40E946B13882351F08091F9049091EE
:10413000FA04892B31F00E941B14F82E04C0F12CD4
:1041400002C0FF24FA9485E50E946B13882351F086
:104150008091F9049091FA04892B31F00E941B148C
:10416000E82E04C0E12C02C0EE24EA9482E50E940D
:104170006B13882349F08091F9049091FA04892BFC
:1041800029F00E941B1403C080E001C08FEF8983D7
:10419000EA82FB820C831D8360E0CE0101960E94BF
:1041A000B76C0F900F900F900F900F90DF91CF9101
:1041B0001F910F91FF90EF900895CF92DF92EF92B1
:1041C000FF92CF9388EC90E00E941F1681114EC0A1
:1041D00084E40E946B13882309F441C00E94C41335
:1041E0006B017C01C1E020E030E0A9010E9496C093
:1041F000811101C0C0E0C093FF0420E030E0A901BC
:10420000C701B6010E9496C0882349F10E94C413D9
:10421000E091B60224E0E29FF0011124E558FA4F44
:10422000608371838283938320E030E0A9016091F1
:104230007B0570917C0580917D0590917E050E94A3
:1042400096C081110CC080E090E0A0EEBFE38093A7
:104250007B0590937C05A0937D05B0937E05CF915F
:10426000FF90EF90DF90CF900C944577CF91FF9027
:10427000EF90DF90CF900895CF9383E50E94B8131D
:104280008823A1F00E94C41360939B0570939C0542
:1042900080939D0590939E0560939305709394057C
:1042A0008093950590939605C0E001C0C1E080E53C
:1042B0000E94B813882359F00E94C41360939B0591
:1042C00070939C0580939D0590939E05C0E082E5C8
:1042D0000E94B813882359F00E94C4136093970575
:1042E000709398058093990590939A05C0E084E5B2
:1042F0000E94B813882359F00E94C4136093930559
:104300007093940580939505909396052CC0CC23CB
:1043100051F140919B0550919C0560919D057091D4
:104320009E0583EA95E00E941A8A40919705509174
:1043300098056091990570919A0580EA95E00E9430
:104340001A8A40919305509194056091950570915A
:1043500096058DE995E00E941A8A6AE08CE79EE056
:10436000CF910C942812CF91089581E50E946B1390
:10437000882351F00E940B146093D3057093D405E9
:104380008093D5059093D60583E50E946B1388230F
:1043900051F00E94C41360939F057093A005809311
:1043A000A1059093A20584E50E946B13882351F028
:1043B0000E94C41360938F057093900580939105BC
:1043C0009093920588E50E946B13882351F00E9418
:1043D000C41360937F05709380058093810590934B
:1043E000820589E50E946B13882351F00E94C41353
:1043F000609383057093840580938505909386056B
:104400008AE50E946B13882351F00E94C4136093C5
:104410008705709388058093890590938A0585E4C4
:104420000E946B13882351F00E94C41360938B0584
:1044300070938C0580938D0590938E050895CF938E
:10444000DF93E0EAF4E16491EF012196662331F015
:104450008CE79EE00E942812FE01F5CF83E50E94C2
:104460006B13882321F00E942C1480930E01EDE839
:10447000F5E06491EF012196662331F08CE79EE030
:104480000E942812FE01F5CF80910E01811103C018
:10449000E5E8F5E002C0E9E8F5E06491EF01219676
:1044A000662331F08CE79EE00E942812FE01F5CFD2
:1044B000EDE7F5E06491EF012196662331F08CE79A
:1044C0009EE00E942812FE01F5CF2091D202309189
:1044D000D3024091D4025091D5026091C6027091EE
:1044E000C7028091C8029091C9020E94BDBFAB0172
:1044F000BC018BE795E00E941A8A2091D602309188
:10450000D7024091D8025091D9026091CA027091AD
:10451000CB028091CC029091CD020E94BDBFAB0135
:10452000BC0188E795E00E941A8A2091DA02309156
:10453000DB024091DC025091DD026091CE0270916D
:10454000CF028091D0029091D1020E94BDBFAB01F9
:10455000BC0185E795E00E941A8AEDE6F5E06491DA
:10456000EF012196662331F08CE79EE00E9428122D
:10457000FE01F5CF2091D2023091D3024091D402B6
:104580005091D50260910F0170911001809111013D
:10459000909112010E94BDBFAB01BC018BE695E07A
:1045A0000E941A8A2091D6023091D7024091D802F7
:1045B0005091D902609113017091140180911501FD
:1045C000909116010E94BDBFAB01BC0188E695E049
:1045D0000E941A8A2091DA023091DB024091DC02BB
:1045E0005091DD02609117017091180180911901BD
:1045F00090911A010E94BDBFAB01BC0185E695E018
:104600000E941A8A6AE08CE79EE0DF91CF910C94B9
:1046100028120F931F93CF93DF938DED90E00E94AC
:104620001F16811170C083E50E94B8138823B9F169
:10463000C091B602D0E00E94FB13CC0FDD1FCE5C10
:10464000DE4F798368838091B60290E0EC01CC0F55
:10465000DD1FCC0FDD1F8E01025D1E4F880F991FDD
:10466000FC01EE5CFE4F60817181072E000C880B0F
:10467000990B0E9438C12AE037ED43E25CE30E94C7
:10468000D4C2C958DA4F288139814A815B810E949E
:10469000D4C2F801608371838283938334C0E0EADB
:1046A000F4E16491EF012196662331F08CE79EE0FE
:1046B0000E942812FE01F5CF65E48CE79EE00E947F
:1046C00028126091B602605D8CE79EE00E9428127D
:1046D000E091B602F0E0EE0FFF1FEE5CFE4F60814E
:1046E00071818DE595E00E94DD8965E28CE79EE0B1
:1046F0000E9428126AE08CE79EE0DF91CF911F9123
:104700000F910C942812DF91CF911F910F91089572
:104710004F925F926F927F92AF92BF92CF92DF9251
:10472000EF92FF920F931F93CF93DF9333E0C32E4B
:1047300032E0D32E43EBE42E45E0F42EC0E0D0E08F
:10474000F60181916F010E94B813811109C0C23036
:1047500009F043C083E50E94B813882309F48FC091
:104760000E94C41320E030E040E050EC0E9496C06C
:1047700087FD42C00E94C41320E030E040E050E4D6
:104780000E9499C2181694F10E94C4132B013C0197
:1047900080918D0490E00C2E02C0959587950A9427
:1047A000E2F780FF18C08E01000F111F005A124F50
:1047B000F801A080B180F7012081318142815381CD
:1047C000C301B2010E94D4C20E9405C16A0D7B1DC3
:1047D000F80171836083C230A9F0219624E0E20ED3
:1047E000F11CC330D10509F0ABCF49C0412C512C8D
:1047F000612C20E4722ECCCF412C512C612C90ECFA
:10480000792EC6CF80E50E946B13882321F00E9489
:104810002C148823A1F1A30192016091B20270913E
:10482000B3028091B4029091B5020E94BDBF609323
:10483000B2027093B3028093B4029093B502E0EA9F
:10484000F4E164918F010F5F1F4F662331F08CE715
:104850009EE00E942812F801F4CF4091B2025091DC
:10486000B3026091B4027091B5028CE495E00E94AD
:104870001A8A6AE08CE79EE00E942812AECFDF9190
:10488000CF911F910F91FF90EF90DF90CF90BF904D
:10489000AF907F906F905F904F900895CF93DF938C
:1048A00085E40E94B813811110C080E50E946B134B
:1048B000882391F00E94C41360936E0D70936F0D66
:1048C0008093700D9093710D07C00E941B14882374
:1048D00061F3E6EAF4E172C089E40E946B13882375
:1048E00081F00E94C4132CEA35EC47E25EE30E949B
:1048F000D4C260936A0D70936B0D80936C0D90938E
:104900006D0D84E40E946B13882381F00E94C41310
:104910002CEA35EC47E25EE30E949DC06093660D91
:104920007093670D8093680D9093690DE0EAF4E150
:104930006491EF012196662331F08CE79EE00E949E
:104940002812FE01F5CF40916E0D50916F0D6091D0
:10495000700D7091710D88E495E00E941A8A2CEA1E
:1049600035EC47E25EE360916A0D70916B0D8091CA
:104970006C0D90916D0D0E949DC0AB01BC0184E453
:1049800095E00E941A8A2CEA35EC47E25EE36091DA
:10499000660D7091670D8091680D9091690D0E9470
:1049A000D4C2AB01BC0180E495E00E941A8A6AE09F
:1049B0008CE79EE0DF91CF910C9428126491EF0177
:1049C0002196662331F08CE79EE00E942812FE01BA
:1049D000F5CFEEE2F5E06491EF012196662331F028
:1049E0008CE79EE00E942812FE01F5CFDF91CF9167
:1049F0000895CF93DF9380E50E946B13882351F0D5
:104A00000E94C4136093940D7093950D8093960D3E
:104A10009093970D89E40E946B13882381F00E9484
:104A2000C4132CEA35EC47E25EE30E94D4C26093E3
:104A3000900D7093910D8093920D9093930D84E45B
:104A40000E946B13882381F00E94C4132CEA35EC7A
:104A500047E25EE30E949DC060938C0D70938D0DC4
:104A600080938E0D90938F0DE0EAF4E16491EF0155
:104A70002196662331F08CE79EE00E942812FE0109
:104A8000F5CF4091940D5091950D6091960D7091D8
:104A9000970D8AE295E00E941A8A2CEA35EC47E2EB
:104AA0005EE36091900D7091910D8091920D9091C7
:104AB000930D0E949DC0AB01BC0186E295E00E946F
:104AC0001A8A2CEA35EC47E25EE360918C0D709116
:104AD0008D0D80918E0D90918F0D0E94D4C2AB01EF
:104AE000BC0182E295E00E941A8A6AE08CE79EE0AF
:104AF000DF91CF910C942812CF93DF9383E50E942E
:104B00006B13C82F882371F00E94C4130E9405C143
:104B1000709351016093500121E0672B09F020E070
:104B20002093590D80E50E946B13882359F0209142
:104B3000500130915101232B11F00E942C148093CD
:104B4000590D31C0C1112FC0E0EAF4E16491EF01C9
:104B50002196662331F08CE79EE00E942812FE0128
:104B6000F5CF8091590D811103C068EE71E002C04C
:104B700065EE71E08FE095E00E945C8A60915001E3
:104B8000709151018EEF94E00E94DD89EAEFF4E02C
:104B90006491EF012196662331F08CE79EE00E943C
:104BA0002812FE01F5CFDF91CF9108958F929F9249
:104BB000AF92BF92EF92FF920F931F93CF93DF9329
:104BC00000D000D0CDB7DEB785E40E94B8138823AB
:104BD00021F00E94FB138B0102C000E010E083E48F
:104BE0000E94B813882321F00E94FB13F62E02C006
:104BF00025E0F22E85E50E94B813882321F00E945B
:104C00002C14E82E04C085E50E946B13E82E17FDD6
:104C100007C0812C912C96E1A92E93E4B92E06C0F1
:104C2000812C912C8CE8A82E82E4B82E83E50E947A
:104C3000B813882321F00E94C4134B015C01C50105
:104C4000B4010E9405C10115110511F41092B602BC
:104C5000072E000C880B990B0E9438C169837A8358
:104C60008B839C832E2D4F2D602FCE0101960E94A9
:104C70007AA50F900F900F900F90DF91CF911F9119
:104C80000F91FF90EF90BF90AF909F908F900895FD
:104C90002F923F924F925F926F927F928F929F924C
:104CA000AF92BF92CF92DF92EF92FF920F931F933A
:104CB000CF93DF93CDB7DEB72E970FB6F894DEBF54
:104CC0000FBECDBF41E061E081E00E94BE188111BE
:104CD000B9C00EEF1CE08FE994E09E878D87FE013E
:104CE00031965F0193EE892E9CE0992E1F01F80109
:104CF0006591759185919491ED85FE85C190D190D6
:104D0000E190F190FE87ED87A70196010E94BCBF5C
:104D10002B013C01F101608371838283938320E046
:104D200030E040EA51EC0E9499C287FD0AC020E0C1
:104D300030E040EA51E4C301B2010E9496C0181667
:104D40002CF4F401849118160CF472C0F101C19096
:104D5000D190E190F1901F0120E030E040EA51EC69
:104D6000C701B6010E9499C287FD0AC020E030E069
:104D700040EA51E4C701B6010E9496C01816F4F447
:104D8000E6EAF4E164918F010F5F1F4F611103C0E8
:104D9000E2E9F4E006C08CE79EE00E942812F801E8
:104DA000F1CF64918F010F5F1F4F662309F44AC052
:104DB0008CE79EE00E942812F801F3CF0C5F1F4F92
:104DC000FFEF8F1A9F0A8DE00A30180709F08FCF86
:104DD0008EEDE82E82E0F82E10E0F50181919191A0
:104DE000A191B1915F01F70181939193A193B19347
:104DF0007F01812F0E9464161F5F133071F72E967A
:104E00000FB6F894DEBF0FBECDBFDF91CF911F91DB
:104E10000F91FF90EF90DF90CF90BF90AF909F9059
:104E20008F907F906F905F904F903F902F9009C828
:104E3000F7FAF094F7F8F094F101C082D182E2829F
:104E4000F38284CF2E960FB6F894DEBF0FBECDBF8F
:104E5000DF91CF911F910F91FF90EF90DF90CF9056
:104E6000BF90AF909F908F907F906F905F904F908A
:104E70003F902F900895CF93DF930E94F667882389
:104E8000D1F0E0EAF4E16491EF012196662331F07C
:104E90008CE79EE00E942812FE01F5CFE7E8F4E0DF
:104EA0006491EF012196662331F08CE79EE00E9429
:104EB0002812FE01F5CFDF91CF910895CF92DF92B6
:104EC000EF92FF92CF93DF938AE50E94B81381118E
:104ED00003C0E0EAF4E13EC00E94C4136B017C0110
:104EE00020E030E040E250EC0E9499C287FD0AC009
:104EF00020E030E040EA51E4C701B6010E9496C0CC
:104F000018161CF4E6EAF4E10EC0C092B202D09288
:104F1000B302E092B402F092B50245C08CE79EE085
:104F20000E942812FE016491EF0121966111F6CFD3
:104F3000E9E6F4E06491EF0121966623A1F18CE7A4
:104F40009EE00E942812FE01F5CF8CE79EE00E94B1
:104F50002812FE016491EF0121966111F6CFEAE576
:104F6000F4E06491EF012196662331F08CE79EE036
:104F70000E942812FE01F5CF4091B2025091B30277
:104F80006091B4027091B50287E594E00E941A8A9C
:104F90006AE08CE79EE0DF91CF91FF90EF90DF9089
:104FA000CF900C942812DF91CF91FF90EF90DF907B
:104FB000CF900895CF92DF92EF92FF92CF93DF933D
:104FC0008BE40E94B813811103C0E0EAF4E136C01B
:104FD0008BE40E94B8138823C1F00E94C4136B01B4
:104FE0007C0120E030E0A9010E9499C287FD0AC03F
:104FF00020E030E040E251E4C701B6010E9496C0D3
:10500000181634F4E1EFF3E00EC0C12CD12C760178
:105010000E94BC7AC0921805D0921905E0921A0538
:10502000F0921B052DC06491EF012196662341F19A
:105030008CE79EE00E942812FE01F5CF6491EF01FB
:105040002196662331F08CE79EE00E942812FE0133
:10505000F5CF409118055091190560911A0570918E
:105060001B0586EE93E00E941A8A6AE08CE79EE0B8
:10507000DF91CF91FF90EF90DF90CF900C942812AA
:10508000DF91CF91FF90EF90DF90CF900895CF9276
:10509000DF92EF92FF920F931F93CF9383E50E94CD
:1050A0006B13811104C003E012E0C0E00EC00E9447
:1050B000C4136B017C01C0E0B701A6018C2F0E94D4
:1050C000A498CF5FC530C1F7EECFF80181918F0171
:1050D0000E946B13882339F00E94C413AB01BC01FA
:1050E0008C2F0E94A498CF5FC43079F7CF911F9185
:1050F0000F91FF90EF90DF90CF9008951F93CF9383
:10510000DF93182FE0EAF4E16491EF012196662322
:1051100031F08CE79EE00E942812FE01F5CF64E595
:105120008CE79EE00E942812412F50E060E070E082
:1051300020E08CE79EE00E94FEB460E28CE79EE0F7
:105140000E942812E5ECF3E06491EF0121966623BA
:1051500031F08CE79EE00E942812FE01F5CFDF912E
:10516000CF911F910895CF93DF93E0918304F0E0F6
:10517000EE55FD4F80818823A1F0E7ECF2E06491C9
:10518000EF012196662331F08CE79EE00E94281201
:10519000FE01F5CF6AE08CE79EE0DF91CF910C94A1
:1051A0002812DF91CF910895CF92DF92EF92FF9274
:1051B000CF93DF9320910E01222309F485C0EC01E7
:1051C000C090C602D090C702E090C802F090C90219
:1051D000A7019601688179818A819B810E9496C08E
:1051E00087FF04C0C882D982EA82FB82C090CA02CB
:1051F000D090CB02E090CC02F090CD02A7019601B6
:105200006C817D818E819F810E9496C087FF04C042
:10521000CC82DD82EE82FF82C0900F01D09010011F
:10522000E0901101F0901201A70196016881798147
:105230008A819B810E9499C2181624F4C882D9825F
:10524000EA82FB82C0901301D0901401E090150116
:10525000F0901601A70196016C817D818E819F815E
:105260000E9499C2181624F4CC82DD82EE82FF825D
:10527000C090CE02D090CF02E090D002F090D10248
:10528000A7019601688579858A859B850E9496C0CD
:1052900087FF04C0C886D986EA86FB86C0901701BE
:1052A000D0901801E0901901F0901A01A701960121
:1052B000688579858A859B850E9499C2181624F491
:1052C000C886D986EA86FB86DF91CF91FF90EF9062
:1052D000DF90CF900895CF93DF9380E00E94A67A6D
:1052E000C6EAD2E0688379838A839B8381E00E9447
:1052F000A67A6C837D838E839F8382E00E94A67A48
:10530000688779878A879B87DF91CF910895CF93AC
:10531000DF93E1DF6BE58CE79EE00E942812C6EA8E
:10532000D2E0488159816A817B8122E030E08CE7BC
:105330009EE00E9426124C815D816E817F818BE20E
:1053400093E00E941A8A488559856A857B8588E2A0
:1053500093E00E941A8A6DE58CE79EE00E94281275
:105360006AE08CE79EE0DF91CF910C942812CF93F6
:10537000C82FB1DF86EA92E00E940A79CE3F51F44D
:105380008CE0E6EAF2E0AFE9B4E001900D928A9594
:10539000E1F713C024E0C29FC0011124FC01E156D3
:1053A000FB4FDC01AA55BD4F8D919D910D90BC9195
:1053B000A02D80839183A283B383CF910895CF934F
:1053C00090917605981789F0C82F0E94BC7AC093F7
:1053D0007605C11103C08EEFCADF04C08FE994E0E7
:1053E0000E940A79CF910C943B14CF91089580E0EC
:1053F000E6DF82E595E00C9480AD8F929F92AF92AC
:10540000BF92DF92EF92FF920F931F93CF93DF93A0
:1054100000D000D0CDB7DEB7182F80918D048770F3
:10542000873079F48FE40E94B813882329F00E9412
:105430002C14811199C005C08FE40E946B13811157
:1054400093C00E94BC7AD090760580E0B8DF0E94BD
:10545000861881E00E94876911111CC088E50E94AE
:105460006B13F82E89E50E946B13082F8AE50E94C2
:105470006B13E82EF11007C001110AC0811108C09A
:10548000F02E11E00DC0002319F0F02E182F08C0E7
:1054900010E006C0FF24F39401E0EE24E39411E051
:1054A00080E1EFE9F4E0AFE8B4E001900D928A9575
:1054B000E1F782E50E94B813882361F00E94C413CB
:1054C0004B015C0120E030E0A9010E9496C08823D6
:1054D00069F105C0812C912C80E4A82EBA2C111101
:1054E00004C0F11002C0002391F1809297049092C1
:1054F0009804A0929904B0929A04A5019401609135
:10550000A7047091A8048091A9049091AA040E9414
:1055100096C087FF0BC019821A821B821C82BE01B3
:105520006F5F7F4F87E994E00E944718111105C013
:10553000F11003C0011106C00AC080E00E94E51905
:105540001123C1F381E00E94E519111101C0E1109E
:105550000E94471C0E943B140E948A698D2D2FDFF8
:105560000E94A5180E94211F0F900F900F900F907E
:10557000DF91CF911F910F91FF90EF90DF90BF903F
:10558000AF909F908F900895CF93DF93C82F0E9484
:10559000BC7AD091760580E012DFCC2321F08C2FED
:1055A000DF91CF91ABCD1092C3028D2F08DFE0EADF
:1055B000F4E16491EF012196662331F08CE79EE0DF
:1055C0000E942812FE01F5CF6091C30270E087E0CF
:1055D00093E00E94DD896AE08CE79EE0DF91CF9145
:1055E0000C9428120F931F93CF93DF93CDB7DEB7A0
:1055F0002C970FB6F894DEBF0FBECDBF83E50E9497
:105600006B13882341F00E942C14182F811105C0C0
:1056100080E0D5DE02C01091760580919F049091C4
:10562000A004A091A104B091A20489839A83AB83C2
:10563000BC838091A3049091A404A091A504B0918F
:10564000A6048D839E83AF83B8878091A704909131
:10565000A804A091A904B091AA0489879A87AB876E
:10566000BC8786E50E946B13882331F06DED74E0F2
:1056700082E595E00E944BAF812FA1DE111103C09E
:10568000E0EAF4E120C0809176058111F9CFE6EAE5
:10569000F4E164918F010F5F1F4F662331F08CE7B7
:1056A0009EE00E942812F801F4CFEEEBF4E0649142
:1056B0008F010F5F1F4F662319F38CE79EE00E9456
:1056C0002812F801F4CF64918F010F5F1F4F6623FA
:1056D00031F08CE79EE00E942812F801F4CF80910F
:1056E0007605811103C060EF71E002C06CEE71E0DD
:1056F00080EB94E00E945C8A6AE08CE79EE00E9466
:1057000028124CE050E06FE974E0CE0101960E944F
:105710000CC8892B61F02C960FB6F894DEBF0FBE33
:10572000CDBFDF91CF911F910F910C94211F2C962B
:105730000FB6F894DEBF0FBECDBFDF91CF911F91A2
:105740000F9108950E94567A0E94BC7A8EEF0FDE68
:105750000C943B14CF92DF92EF92FF920F931F9322
:10576000CF93DF9389E40E946B13811109C083E515
:105770000E946B13811104C0D0E010E0C0E031C082
:105780000E94C4136B017C0120E030E040E85FEB35
:105790000E9499C287FD00C120E030E040E85FE34D
:1057A000C701B6010E9496C018160CF4F5C0A701F7
:1057B000960160914E0570914F0580915005909132
:1057C00051050E9496C0882309F4E2C0C0924E059C
:1057D000D0924F05E0925005F0925105D1E010E0D3
:1057E000C1E08AE40E946B13882381F1CF5F0E949D
:1057F000C4136B017C0120E030E040E85FEB0E94C5
:1058000099C287FD22C020E030E040E85FE3C70195
:10581000B6010E9496C01816C4F020914A05309136
:105820004B0540914C0550914D05C701B6010E94B2
:1058300096C0882359F0C0924A05D0924B05E09259
:105840004C05F0924D05DF5F01C01F5F8BE40E94A5
:105850006B13882389F1CF5F0E94C4136B017C0115
:1058600020E030E040E85FEB0E9499C287FD26C04F
:1058700020E030E040E85FE3C701B6010E9496C037
:105880001816E4F0209146053091470540914805EF
:1058900050914905C701B6010E9496C0882361F066
:1058A000C0924605D0924705E0924805F09249051E
:1058B0001123A1F0DF5F02C0112371F0EDE2F4E0EB
:1058C00064918F010F5F1F4F662331F08CE79EE0DC
:1058D0000E942812F801F4CFDD2331F08EEF47DD6E
:1058E0000E943B140E94211FC1115AC0E0EAF4E15A
:1058F0006491EF012196611145C0ECE1F4E06491FF
:10590000EF012196662331F08CE79EE00E94281279
:10591000FE01F5CF40914E0550914F056091500525
:105920007091510526E030E08CE79EE00E9426123F
:105930006AE08CE79EE00E94281240914A0550914F
:105940004B0560914C0570914D0586E194E00E94F5
:105950001A8A40914605509147056091480570911B
:10596000490580E194E00E941A8A6AE08CE79EE093
:10597000DF91CF911F910F91FF90EF90DF90CF902B
:105980000C9428128CE79EE00E942812FE01B0CFF2
:10599000D0E010E0C1E025CFD0E011E0C1E021CFA0
:1059A000DF91CF911F910F91FF90EF90DF90CF90FB
:1059B00008952F923F924F925F926F927F928F92B3
:1059C0009F92AF92BF92CF92DF92EF92FF920F938E
:1059D0001F93CF93DF93CDB7DEB7A0970FB6F894A0
:1059E000DEBF0FBECDBF1C017F8F6E8F498F28A3F6
:1059F000DC018D909D90AD90BC90FB01408051806A
:105A0000628073800023A1F0A3019201C501B4015B
:105A10000E94AD11882309F4F2C120E030E040EA91
:105A200051E4C501B4010E94BCBF4B015C012AC016
:105A30002FE632E143E85AEBC501B4010E9499C256
:105A400087FDDDC123E830E048EC52E4C501B40134
:105A50000E9496C018160CF4D2C122E630E140E054
:105A600050ECC301B2010E9499C287FDC8C122E473
:105A700030E048E453E4C301B2010E9496C0181616
:105A80000CF4BDC1E090A704F090A8040091A90413
:105A90001091AA0480911D0190911E01A0911F01F7
:105AA000B09120018A8F9B8FAC8FBD8F80910501B3
:105AB00090910601A0910701B091080180931D010A
:105AC00090931E01A0931F01B093200119821A82A6
:105AD0001B821C82DE0111966D01A3019201C5019A
