:100000000C94ED110C9417120C9417120C941712F7
:100010000C9417120C9417120C9417120C941712BC
:100020000C9417120C9417120C9455B80C94D2B867
:100030000C9417120C9417120C9417120C9417129C
:100040000C9417120C94B5920C9417120C9417126E
:100050000C9417120C9417120C94A2A90C94B4B718
:100060000C9417120C9417120C9417120C9417126C
:100070000C9417120C9417120C9417120C9417125C
:100080000C9417120C9417120C9417120C9417124C
:100090000C9434B20C94171243B56FB591B591B569
:1000A00091B591B591B591B591B591B591B591B520
:1000B00091B591B587B57FB577B591B591B591B546
:1000C00091B591B591B591B569B54FB557B561B5D4
:1000D000084AD73B3BCE016E84BCBFFDC12F3D6CAF
:1000E00074319ABD56833DDA3D00C77F11BED9E415
:1000F000BB4C3E916BAAAABE000000803F05A84CF5
:10010000CDB2D44EB93836A9020C50B991868808C0
:100110003CA6AAAA2ABE000000803F004E414E49DC
:100120004E495459494E46CDCCCC3D0AD7233C17B5
:10013000B7D13877CC2B329595E6241FB14F0A0002
:100140000020410000C84200401C4620BCBE4CCAF2
:100150001B0E5AAEC59D743F537065636966696531
:100160006420582C5920636F6F7264696E617465E6
:10017000206F7574206F6620626F756E64732E0A2F
:10018000003F28522965706561742076616C756541
:10019000206E6F7420706C61757369626C653B20B2
:1001A0006D757374206265206174206C6561737471
:1001B00020312E0A003F2852296570656174206D38
:1001C0007573742062652073706563696669656420
:1001D000207768656E206E6F74207573696E672076
:1001E000616E204C43442E0A003F5370656369667C
:1001F000696564206E6F7A7A6C652074656D7065D0
:10020000726174757265206E6F7420706C617573A5
:1002100069626C652E0A003F5370656369666965A3
:10022000642066696C616D656E742073697A6520FF
:100230006E6F7420706C61757369626C652E0A0054
:100240003F537065636966696564207072696D65A6
:10025000206C656E677468206E6F7420706C6175B9
:100260007369626C652E0A003F5072696D65206C7F
:10027000656E677468206D75737420626520737095
:1002800065636966696564207768656E206E6F7462
:10029000207573696E6720616E204C43442E0A00FE
:1002A0003F537065636966696564206E6F7A7A6C26
:1002B000652073697A65206E6F7420706C61757348
:1002C00069626C652E0A003F5265747261637469DD
:1002D0006F6E204D756C7469706C696572206D75F8
:1002E0007374206265207370656369666965642E46
:1002F0000A003F53706563696669656420526574DE
:1003000072616374696F6E204D756C7469706C698D
:100310006572206E6F7420706C61757369626C65B4
:100320002E0A003F537065636966696564206C61DD
:1003300079657220686569676874206E6F742070D3
:100340006C61757369626C652E0A003F537065635A
:100350006966696564206265642074656D706572A4
:100360006174757265206E6F7420706C617573694D
:10037000626C65202834302D31343043292E0A0038
:1003800047323620636F6D6D616E642073746172E5
:100390007465642E2057616974696E6720666F7298
:1003A000206865617465722873292E0A00696E20C1
:1003B0006D6F76655F746F282920666565645F766A
:1003C000616C756520666F722058593A002C206563
:1003D000793D0029202D3E202865783D002C207392
:1003E000793D0020436F6E6E656374696E67207798
:1003F00069746820766572746963616C206C696EDB
:1004000065202873783D002C2065793D0029202D3A
:100410003E202865783D002C2073793D0020436FF5
:100420006E6E656374696E67207769746820686FA3
:1004300072697A6F6E74616C206C696E65202873C6
:10044000783D002020506C616E6E65724275666664
:10045000657242797465733A2000204672656520A2
:100460004D656D6F72793A2000436F6D70696C65F0
:10047000643A2046656220323320323031390A0036
:10048000207C20417574686F723A202844722E5087
:1004900068696C3344290A00323031382D30382DE8
:1004A000303100204C617374205570646174656450
:1004B0003A2000312E312E390A004D61726C696E7E
:1004C0000020536F6674776172652052657365749E
:1004D0000A00205761746368646F67205265736512
:1004E000740A002042726F776E206F757420526517
:1004F0007365740A002045787465726E616C2052D1
:10050000657365740A00506F77657255700A0073E1
:10051000746172740A005072696E74657220686149
:100520006C7465642E206B696C6C28292063616C87
:100530006C6564210A004B494C4C45442E20004B0D
:10054000494C4C2063617573656420627920746F37
:100550006F206D75636820696E61637469766520CC
:1005600074696D65202D2063757272656E742063E9
:100570006F6D6D616E643A200020746F6F206C6F38
:100580006E6720657874727573696F6E207072651E
:1005900076656E7465640A0020636F6C642065780C
:1005A00074727573696F6E2070726576656E7465AE
:1005B000640A006F6B00526573656E643A20003AFE
:1005C000004361703A0000011C1D132FFFFFFFFF65
:1005D0001E1F12FF18FFFFFF20211124FFFFFFFF46
:1005E000FFFFFF0E10FFFFFF22230DFFFFFF0E2670
:1005F0000F2C2741637469766520457874727564A1
:1006000065723A200020453A00205A3A0020593AB3
:1006100000583A002C20002C2000206E6F742065BA
:100620006E74657265642E0A00627573793A207083
:10063000617573656420666F7220696E7075740AE7
:1006400000627573793A2070617573656420666F16
:100650007220757365720A00627573793A20707240
:100660006F63657373696E670A0050726F62696EBB
:1006700067206661696C65640A00205A3A20002090
:10068000593A200042656420583A20002066697279
:1006900073740A005A0059005800486F6D652000B5
:1006A00020496E76616C6964206578747275646542
:1006B000722000656E7175657565696E6720220030
:1006C000496E76616C6964206578747275646572D0
:1006D0000A004E6F2063617365206C696768740A55
:1006E00000416476616E6365204B3D003F4B207690
:1006F000616C7565206F7574206F662072616E671E
:10070000652028302D3130292E0A003A2000507201
:100710006F6265205A204F6666736574003F5A20E9
:100720006F7574206F662072616E676520282D33A7
:100730002E3520746F203230290A00454550524F23
:100740004D204F4B0A00546F6F2066617220667215
:100750006F6D207265666572656E636520706F6986
:100760006E740A004D65736820706F696E74206343
:10077000616E6E6F74206265207265736F6C766552
:10078000640A004D34323120696E636F72726563A2
:100790007420706172616D65746572207573616734
:1007A000650A004F66660A0046616465204865690F
:1007B0006768742000426564204C6576656C696EDC
:1007C0006720004661696C656420746F20656E6106
:1007D000626C6520426564204C6576656C696E6765
:1007E0000A004D65736820426564204C6576656C2F
:1007F00020646174613A0A0043290A0061626C65F1
:100800006420286D696E2074656D702000436F6CE4
:100810006420657874727564657320617265200068
:10082000496E76616C69642065787472756465726E
:100830000A0020643A0020693A0020703A002046FD
:100840006C6F773A2000205A002059005800202071
:100850004D61783A2000205A00205900580020208D
:100860004D696E3A20004F6666004F6E2000536F50
:10087000667420656E6473746F70733A200057411C
:10088000524E494E4721204C6F77205A204A6572BC
:100890006B206D6179206C65616420746F20756ECA
:1008A00077616E746564207061757365732E0A00DC
:1008B000205400205200416363656C657261746965
:1008C0006F6E3A2050002F2F2000544845524D4162
:1008D0004C5F50524F54454354494F4E004155547C
:1008E0004F5245504F52545F53445F5354415455F7
:1008F0005300454D455247454E43595F5041525371
:10090000455200434153455F4C494748545F42526A
:10091000494748544E45535300544F47474C455F51
:100920004C494748545300534F4654574152455F32
:10093000504F574552004255494C445F5045524331
:10094000454E54004C4556454C494E475F44415432
:1009500041005A5F50524F4245004155544F4C455B
:1009600056454C005052494E545F4A4F4200505237
:100970004F4752455353004155544F5245504F52E3
:10098000545F54454D5000564F4C554D45545249B7
:100990004300454550524F4D0053455249414C5F2D
:1009A000584F4E5F584F4646004649524D574152A8
:1009B000455F4E414D453A4D61726C696E20312E56
:1009C000312E3920284769746875622920534F55A4
:1009D0005243455F434F44455F55524C3A687474E7
:1009E00070733A2F2F6769746875622E636F6D2F6D
:1009F0004D61726C696E4669726D776172652F4DDB
:100A000061726C696E2050524F544F434F4C5F5689
:100A1000455253494F4E3A312E30204D41434849BB
:100A20004E455F545950453A5072696E7472626F08
:100A30007420506C61792045585452554445525F9A
:100A4000434F554E543A3120555549443A636564F5
:100A500065326132662D343161322D343734382DB0
:100A6000396231322D633535633632663336376657
:100A7000660A004D3131332053006F6666004445ED
:100A80004255473A00B00AAB0AA40A9D0A8F0A43AE
:100A90004F4D4D554E49434154494F4E00445259D4
:100AA00052554E004552524F525300494E464F0048
:100AB0004543484F0020573A0020573A004B494CD5
:100AC0004C45442E20006F6B006F66662E0A006F47
:100AD0006E2E0A0047323620446562756720005347
:100AE00074616E6461726420446576696174696FD3
:100AF0006E3A20002052616E67653A2000204D61F9
:100B0000783A2000204D696E3A20004D65616E3ABA
:100B1000200046696E6973686564210A002072616D
:100B20006E67653A2000206D61783A2000206D697B
:100B30006E3A2000207369676D613A2000206D6570
:100B4000616E3A20003A207A3A2000206F66200039
:100B5000205A00205900205800476F696E672074A2
:100B60006F3A00436C6F636B776973650A00436F7C
:100B7000756E7465722D0020446972656374696FC7
:100B80006E3A2000202020616E676C653A20005389
:100B900074617274696E67207261646975733A205A
:100BA00000506F736974696F6E696E672074686551
:100BB0002070726F62652E2E2E0A003F4E756D6298
:100BC0006572206F66206C65677320696E206D6F9B
:100BD00076656D656E74206E6F7420706C617573D0
:100BE00069626C652028302D3135292E0A003F209E
:100BF00028582C5929206F7574206F6620626F75F4
:100C00006E64732E0A003F53616D706C65207369CA
:100C10007A65206E6F7420706C61757369626C65A3
:100C20002028342D3530292E0A004D3438205A2DF5
:100C300050726F6265205265706561746162696CA3
:100C400069747920546573740A003F2856296572C7
:100C5000626F7365206C6576656C20697320696DC1
:100C6000706C61757369626C652028302D34292E93
:100C70000A0050726F7465637465642050696E0A6F
:100C8000005072696E742074696D653A20004D657C
:100C9000736820706F696E742063616E6E6F74206C
:100CA0006265207265736F6C7665640A00205A3A3B
:100CB000200020593A200042656420583A20002044
:100CC0006F6620004D424C2047323920706F696EAC
:100CD00074200059206F7574206F662072616E67F2
:100CE000652028312D33292E0A0058206F75742075
:100CF0006F662072616E67652028312D33292E0AB8
:100D0000004D6573682070726F62696E6720646F52
:100D10006E652E0A005374617274206D65736820CD
:100D200070726F62696E672077697468202247323B
:100D300039205331222066697273742E0A004732BB
:100D4000380A473239205332004D65736820626596
:100D500064206C6576656C696E6720686173206ECF
:100D60006F20646174612E0A0053746174653A20C7
:100D70000053206F7574206F662072616E67652066
:100D800028302D35292E0A00486F6D6520585920CE
:100D900066697273740A0047322F473320626164B8
:100DA00020706172616D65746572730A00576172BB
:100DB0006E696E673A20486F6D696E672042756D87
:100DC000702044697669736F72203C20310A0002FA
:100DD00002044B494C4C45442E20005072696E74FD
:100DE00065722073746F707065642064756520741B
:100DF0006F206572726F72732E2046697820746856
:100E000065206572726F7220616E64207573652053
:100E10004D39393920746F20726573746172742E84
:100E2000202854656D7065726174757265206973F0
:100E30002072657365742E20536574206974206177
:100E4000667465722072657374617274696E672965
:100E50000A004E6F20436865636B73756D20776978
:100E60007468206C696E65206E756D6265722C20E9
:100E70004C617374204C696E653A20006368656349
:100E80006B73756D206D69736D617463682C204C94
:100E9000617374204C696E653A20004C696E652060
:100EA0004E756D626572206973206E6F74204C619F
:100EB0007374204C696E65204E756D6265722B31BE
:100EC0002C204C617374204C696E653A20004D31C2
:100ED000313000FF01FF0000A0400000A0400000F2
:100EE00000400000C8420000974300000343000098
:100EF000000000009643000000000000C84200000F
:100F000096430000034300000000000000C0000002
:100F100000000000484200004842000080400000FD
:100F200000002569730025696D2025697300256916
:100F3000682025696D20256973002569642025696D
:100F4000682025696D202569730025697920256948
:100F500064202569682025696D202569730020209B
:100F60004D393030204B004C696E65617220416410
:100F700076616E63653A0A0020204D383531205A7B
:100F8000005A2D50726F6265204F6666736574005B
:100F900020440020490020204D33303120500050A3
:100FA00049442073657474696E67733A0A00205A65
:100FB0000020590020204732392053332058002088
:100FC0005A0020204D3432302053004D6573682084
:100FD000426564204C6576656C696E673A0A00204C
:100FE0005A0020590020204D323036205800486FDA
:100FF0006D65206F66667365743A0A0020450020AF
:101000005A0020590020580020540020530020206E
:101010004D32303520510020453C6D61785F655F71
:101020006A65726B3E0020583C6D61785F785F6A3C
:1010300065726B3E20593C6D61785F795F6A6572BD
:101040006B3E205A3C6D61785F7A5F6A65726B3ED9
:1010500000416476616E6365643A20513C6D696E4F
:101060005F7365676D656E745F74696D655F7573D9
:101070003E20533C6D696E5F6665656472617465A0
:101080003E20543C6D696E5F74726176656C5F667C
:10109000656564726174653E002054002052002032
:1010A000204D323034205000416363656C657261BD
:1010B00074696F6E2028756E6974732F7332293AC4
:1010C00020503C7072696E745F616363656C3E2092
:1010D000523C726574726163745F616363656C3EF8
:1010E00020543C74726176656C5F616363656C3E2D
:1010F0000A00204500205A0020590020204D32309F
:10110000312058004D6178696D756D2041636365CC
:101110006C65726174696F6E2028756E6974732FC7
:101120007332293A0A00204500205A002059002035
:10113000204D3230332058004D6178696D756D2037
:101140006665656472617465732028756E69747371
:101150002F73293A0A00204500205A002059002008
:10116000204D3932205800537465707320706572B9
:1011700020756E69743A0A0020204D3230302044C8
:10118000300A0020204D3230302044002044697362
:1011900061626C65640A0046696C616D656E7420FD
:1011A00073657474696E67733A002020473231208A
:1011B0002020203B0048617264636F6465642044B2
:1011C000656661756C742053657474696E6773200D
:1011D0004C6F616465640A00DC050000DC050000FA
:1011E00064000000102700000000FA420000FA42EC
:1011F0000000A040000020420000A0420000A042E9
:101200000080FC440000C042290A00206279746515
:10121000733B2063726320002073746F72656420D7
:1012200073657474696E677320726574726965762C
:101230006564202800202863616C63756C617465A7
:101240006429210A0020213D2000454550524F4D80
:1012500020435243206D69736D61746368202D20B3
:101260002873746F7265642920002053697A653A87
:101270002000496E6465783A2000204D61726C69E7
:101280006E3D563535290A0028454550524F4D3D93
:1012900000454550524F4D2076657273696F6E2040
:1012A0006D69736D617463682000290A002062799A
:1012B0007465733B20637263200053657474696EB8
:1012C00067732053746F726564202800454550523F
:1012D0004F4D206461746173697A65206572726F25
:1012E000722E0A004572726F722077726974696E8D
:1012F0006720746F20454550524F4D210A003A0A2D
:101300000020286D6D29006F70656E0054524947AA
:101310004745524544003A20007A5F6D696E007976
:101320005F6D617800785F6D696E005265706F72F5
:1013300074696E6720656E6473746F702073746176
:101340007475730A00205A3A0020593A0020583A1E
:1013500000656E6473746F7073206869743A20005E
:10136000486F6D696E67206661696C6564000A4D3F
:101370006561737572656420706F696E74733A0A83
:10138000005A206F66667365743A20004E756D20B2
:10139000582C593A20332C330A00556E6B6E6F77F8
:1013A0006E20636F6D6D616E643A20220020746F51
:1013B0006F206C6F6E6720657874727573696F6EDD
:1013C0002070726576656E7465640A0020636F6CC8
:1013D0006420657874727573696F6E2070726576BB
:1013E000656E7465640A00FFFDFCFAF8F6F4F2F02D
:1013F000EEECEAE9E7E5E3E1E0DEDCDAD9D7D5D4E3
:10140000D2D0CFCDCBCAC8C7C5C3C2C0BFBDBCBA7E
:10141000B9B7B6B4B3B2B0AFADACAAA9A8A6A5A4EB
:10142000A2A1A09E9D9C9A99989795949392908F33
:101430008E8D8B8A8988878684838281807F7E7D5A
:101440007B7A797877767574737271706F6E6D6C64
:101450006B6A696867666564636261605F5E5D5C54
:101460005B5A5958585756555453525150504F4E35
:101470004D4C4B4A4A4948474646454443424241FF
:10148000403F3E3E3D3C3B3B3A39383837363535B8
:10149000343332323130302F2E2E2D2C2B2B2A2963
:1014A0002928272726252524232322212120201F00
:1014B0001E1E1D1C1C1B1B1A191918181716161591
:1014C0001514131312121111100F0F0E0E0D0D0C17
:1014D0000C0B0A0A09090808070706060505040493
:1014E00003030202010000000000010000000100EF
:1014F000008000555555000000400033333300AAEA
:10150000AA2A004992240000002000C7711C0099FB
:10151000991900D1451700555515003BB11300240A
:1015200049120011111100000010000F0F0F00E30D
:10153000380E0043790D00CCCC0C00C3300C00E811
:10154000A20B0064210B00AAAA0A00703D0A009DAC
:10155000D80900427B090092240900DCD3080088E6
:101560008808001042080000000800F0C10700874A
:1015700087070075500700711C07003EEB0600A1AD
:10158000BC06006990060066660600703E060061B3
:1015900018060017F4050074D105005BB00500B211
:1015A000900500627205005555050078390500B8B0
:1015B0001E0500050505004EEC040087D40400A1BB
:1015C000BD040090A7040049920400C17D0400EE10
:1015D000690400C7560400444404005C3204000857
:1015E00021040041100400000004003FF00300F853
:1015F000E0030026D20300C3C30300CCB503003AC6
:10160000A803000A9B0300388E0300C08103009FDB
:10161000750300D0690300505E03001D53030034BE
:10162000480300913D0300333303001629030038BB
:101630001F030097150300300C0300030303000B86
:10164000FA020049F10200BAE802005CE002002D53
:10165000D802002DD0020059C80200B0C0020031EB
:10166000B90200DAB10200AAAA0200A0A30200BCDB
:101670009C0200FA9502005C8F0200DF8802008263
:10168000820200457C020027760200277002004398
:101690006A02007C640200D05E02003F590200C86A
:1016A0005302006563686F3A004572726F723A00C8
:1016B000205A3A0020593A0020436F756E74205822
:1016C0003A00232C0000B8220000561800003A0F00
:1016D0000000B8080000B1040000710200003E01E3
:1016E000000024F4D43050C38E20C2A24017828B55
:1016F0007011127A910D816CD90AA861E108C7585E
:101700006607615143061E4B5D05C145A7041A419A
:101710001104093D9803713931034036DB0265330A
:101720009102D4305402802E1D02632CEE01752AE2
:10173000C501B028A001102781018F2564012B2449
:101740004B01E0223401AC211F018D200D01801FCF
:10175000FC00841EED00971DDF00B81CD200E61BC4
:10176000C600201BBC00641AB200B219A8000A19F6
:10177000A0006A189900D117910040178B00B51688
:10178000840031167E00B31579003A157300C71432
:101790006F0058146A00EE13660088136300251367
:1017A0005E00C7125B006C12570015125400C11185
:1017B000510070114F0021114B00D61049008D10BF
:1017C00047004610440002104200C00F4000800F46
:1017D0003E00420F3C00060F3B00CB0E3800930E3C
:1017E00037005C0E3500270E3400F30D3200C10DBA
:1017F0003100900D3000600D2E00320D2D00050DD2
:101800002C00D90C2B00AE0C2900850C29005C0C97
:101810002700350C27000E0C2600E80B2400C40B13
:101820002400A00B23007D0B23005A0B2100390B51
:101830002100180B2000F80A1F00D90A1E00BB0A5D
:101840001E009D0A1D00800A1D00630A1C00470A35
:101850001B002C0A1B00110A1A00F7091A00DD09E7
:101860001900C4091900AB091900920917007B0976
:101870001800630917004C091600360916002009E4
:1018800016000A091500F5081500E0081400CC0838
:101890001400B8081400A4081400900813007D0870
:1018A00012006B0813005808120046081200340892
:1018B0001100230811001208110001081100F0079F
:1018C0001000E0071000D0071000C0071000B0079C
:1018D0000F00A107100091070E0083070F00740787
:1018E0000F0065070E0057070E0049070E003B0763
:1018F0000D002E070E0020070D0013070D00060730
:101900000D00F9060C00ED060D00E0060C00D406F3
:101910000C00C8060C00BC060C00B0060C00A406A7
:101920000B0099060C008D060B0082060B00770653
:101930000B006C060B0061060A0057060B004C06F4
:101940000A0042060A0038060A002E060A0024068B
:101950000A001A060A001006090007060A00FD051B
:101960000900F4050900EB050900E2050900D905A5
:101970000900D0050900C7050900BE050900B50525
:101980000800AD050800A50509009C0508009405A0
:1019900008008C050800840508007C050800740513
:1019A00008006C050700650508005D050700560581
:1019B00008004E05070047050700400508003805E8
:1019C0000700310507002A050700230507001C054D
:1019D0000600160507000F050700080506000205AA
:1019E0000700FB040600F5040700EE040600E80407
:1019F0000600E2040700DB040600D5040600CF045D
:101A00000600C9040600C3040600BD040600B704AE
:101A10000600B1040500AC040600A6040600A004FC
:101A200005009B04060095040500900406008A0446
:101A3000050085040500800406007A04050075048D
:101A40000500700405006B040500660405006104D0
:101A500005005C04050057040500520405004D0410
:101A6000050048040500430405003E0404003A0450
:101A7000050035040500300404002C04050027048B
:101A80000400230405001E0404001A0404001604C4
:101A90000500110404000D040400090405000404F9
:101AA000040000040400FC030400F8030400F40331
:101AB0000400F0030400EC030400E8030400E40362
:101AC0000400E0030400DC030400D8030400D40392
:101AD0000400D0030400CC030400C8030300C503C2
:101AE000030024F404D9201BC40C5C0E9804C40920
:101AF0005F0265077101F405F900FB04B3004804B7
:101B00008700C10369005803550003034500BE0266
:101B10003A008402310053022A00290225000402FF
:101B20002000E4011C00C8011900AF011700980152
:101B300014008401130071011000610110005101B3
:101B40000E0043010D0036010B002B010B0020019C
:101B50000B00150109000C01090003010800FB003E
:101B60000800F3000800EB000700E4000600DE00B8
:101B70000600D8000600D2000600CC000500C70011
:101B80000500C2000500BD000400B9000400B50056
:101B90000400B1000400AD000400A9000400A50089
:101BA0000300A20003009F0004009B0003009800B4
:101BB00003009500020093000300900003008D00D5
:101BC00002008B00030088000200860002008400EF
:101BD0000300810002007F0002007D0002007B0004
:101BE0000200790002007700010076000200740014
:101BF000020072000100710002006F0002006D001F
:101C000001006C0002006A00010069000200670028
:101C1000010066000100650001006400020062002E
:101C2000010061000100600001005F0002005D0032
:101C300001005C0001005B0001005A000100590036
:101C40000100580001005700010056000100550036
:101C50000100540001005300000053000100520035
:101C6000010051000100500001004F0001004E0032
:101C700000004E0001004D0001004C0001004B002F
:101C800000004B0001004A0001004900010048002B
:101C90000000480001004700010046000000460027
:101CA0000100450000004500010044000100430020
:101CB000000043000100420000004200010041001A
:101CC000000041000100400001003F0000003F0013
:101CD00001003E0000003E0001003D0000003D000C
:101CE00001003C0000003C0000003C0001003B0003
:101CF00000003B0001003A0000003A0001003900FA
:101D000000003900010038000000380000003800F1
:101D100001003700000037000100360000003600E7
:101D200000003600010035000000350000003500DD
:101D300001003400000034000000340001003300D2
:101D400000003300000033000100320000003200C8
:101D500000003200010031000000310000003100BD
:101D600001003000000030000000300001002F00B2
:101D700000002F0000002F0000002F0001002E00A7
:101D800000002E0000002E0001002D0000002D009C
:101D900000002D0000002D0001002C0000002C0090
:101DA00000002C0000002C0001002B0000002B0084
:101DB00000002B0000002B0001002A0000002A0078
:101DC00000002A0000002A0001002900000029006C
:101DD000000029000000290000002900010028005F
:101DE0000000280000002800000028000000280053
:101DF0000100270000002700000027000000270046
:101E00000000270001002600000026000000260038
:101E1000000026000000260001002500000025002B
:101E2000000025000000250000002500000025001E
:101E30000100240000002400000024000000240011
:101E40000000240001002300000023000000230004
:101E500000002300000023000000230000002300F6
:101E600001002200000022000000220000002200E9
:101E700000002200000022000100210000002100DB
:101E800000002100000021000000210000002100CE
:101E900000002100010020000000200000002000C0
:101EA00000002000000020000000200000002000B2
:101EB0000000200001001F0000001F0000001F00A4
:101EC00000001F0000001F0000001F0000001F0096
:101ED00001001E0000001E0000001E0000001E0089
:101EE0000000290A002028002920453A0020280067
:101EF00029205A3A002028002920593A0020280099
:101F000020583A0053746570706572206375727260
:101F1000656E742076616C75657320696E2025206E
:101F200028416D7073293A0A002042403A0020404F
:101F30003A00202F00546865726D616C2052756EF6
:101F40006177617900453120544845524D414C201C
:101F500052554E415741590042454420544845523C
:101F60004D414C2052554E41574159004B494C4C24
:101F700045442E2000202D20496E76616C69642036
:101F80006578747275646572206E756D6265722015
:101F9000210A0048656174696E67206661696C6535
:101FA00064004265642068656174696E67206661DB
:101FB000696C65640048656174696E672066616973
:101FC0006C65640045312048656174696E67206600
:101FD00061696C6564004D494E54454D50207472E2
:101FE00069676765726564004531204572723A2001
:101FF0004D494E54454D50004572723A204D494E60
:1020000054454D5020424544004D415854454D5093
:102010002074726967676572656400453120457296
:10202000723A204D415854454D50004572723A2045
:102030004D415854454D5020424544006265640A64
:10204000002C2073797374656D2073746F707065E4
:102050006421204865617465725F49443A20002C10
:10206000FFFFFFFFFF0001010101012364656669B5
:102070006E652044454641554C545F4B6420002317
:10208000646566696E652044454641554C545F4B16
:1020900069200023646566696E65204445464155A4
:1020A0004C545F4B702000504944204175746F744C
:1020B000756E652066696E69736865642120507568
:1020C0007420746865206C617374204B702C204BF5
:1020D0006920616E64204B6420636F6E7374616E5F
:1020E00074732066726F6D2062656C6F7720696E05
:1020F000746F20436F6E66696775726174696F6E85
:102100002E680A00504944204175746F74756E65DD
:10211000206661696C6564212074696D656F7574F2
:102120000A00546865726D616C2052756E6177614A
:102130007900453120544845524D414C2052554E6E
:10214000415741590048656174696E67206661694D
:102150006C65640045312048656174696E6720666E
:1021600061696C656400504944204175746F7475F1
:102170006E65206661696C6564212054656D7065CB
:1021800072617475726520746F6F20686967680A80
:1021900000204B643A2000204B693A2000204B700D
:1021A0003A20000A20436C617373696320504944EC
:1021B000200A002054753A2000204B753A20002058
:1021C0006D61783A2000206D696E3A200020643AF3
:1021D000200020626961733A200050494420417513
:1021E000746F74756E652073746172740A0050495F
:1021F00044204175746F74756E65206661696C6505
:10220000642120426164206578747275646572206F
:102210006E756D6265720A001000C90210012C0112
:102220004001220170011801B0010E01F00104010A
:102230005002FA00B002F0003003E600D003DC00E8
:102240009004D2007005C800A006BE000008B400CB
:10225000B009AA00D00BA000600E960060118C009F
:102260000015820020197800C01D6E00A0226400B5
:10227000B0275A00902C500000314600E0343C005A
:1022800010383200903A2800603C1E00A03D140037
:10229000803E0A00203F0000012902290429082964
:1022A0001029202940298029012C022C01260226F0
:1022B000042608261026202640268026402C802C26
:1022C00001230223042308231023202340238023F7
:1022D00001200220042008201020202040208020FF
:1022E000102C202C012F022F042F082F102F202F0D
:1022F000402F802F7EFE7EFD7EFB7EF77EEF7EDF11
:102300007EBF7E7F00010000B52312000200007234
:102310002343000300006E2304010309045423181F
:10232000020309043C2316030309042E230C0C03A7
:102330003100320033003400350000001603550030
:1023400053004200200053006500720069006100E4
:102350006C00000018035400650065006E007300F7
:1023600079006400750069006E006F0000000403CE
:10237000090409024300020100C0320904000001FF
:1023800002020100052400100105240100010424BB
:10239000020605240600010705820308004009041F
:1023A0000100020A000000070503024000000705C3
:1023B00084024000001201000202000020C01683C7
:1023C000047202010203010001C102018036018191
:1023D00036005875569152B11FBC11241FBECFEF65
:1023E000D0E2DEBFCDBF12E0A0E0B1E0ECEBF0E95F
:1023F00001E00BBF02C007900D92AC33B107D9F7D3
:102400002EE0ACE3B2E001C01D92AC3FB207E1F7B1
:1024100011E1CDEED1E104C02197FE010E94A1BCE3
:10242000C93ED107C9F70E94C8B40C945CC80C948B
:102430000000CF92DF92EF92FF92CF93DF936B0178
:102440007C01EA012FE632E143E85AEB0E94ACBF7F
:1024500087FD23C023E830E048EC52E4C701B60111
:102460000E94A9BD1816CCF0C880D980EA80FB80F4
:1024700022E630E140E050ECC701B6010E94ACBF5B
:1024800087FD0BC0C1E021E230E046E953E4C7011B
:10249000B6010E94A9BD18160CF4C0E08C2FDF9184
:1024A000CF91FF90EF90DF90CF900895CF93DF937F
:1024B0001F92CDB7DEB76983DC01ED91FC910280FC
:1024C000F381E02D41E050E0BE016F5F7F4F099541
:1024D0000F90DF91CF91089580E1EEE2F5E0AEE15B
:1024E000B5E001900D928A95E1F7089581548A3103
:1024F00008F041C0E82FF0E04091B0055091B105DF
:102500006091B2057091B30504C0769567955795B3
:1025100047958A95D2F7842F817040FF33C0EA56E1
:10252000FA4F9081992301F1E091BB05F091BC0530
:10253000E90FF11D908120ED290F2A3080F09E32A5
:1025400029F4918190539A3078F409C09D3211F0AA
:102550009B3251F4918120ED290F2A3018F42E2F4F
:102560009F2F04C09E3249F020E090E02093B705F1
:102570009093B805089580E00895928190539A3021
:1025800098F7EDCF0895B2DF882341F081E02091E4
:10259000B7053091B805232B09F480E008950F9317
:1025A0001F93CF938091B7059091B805009711F1D3
:1025B000FC018F01C1912C2F2F7DA9F0C53411F0A2
:1025C000C536B9F7F801108260E070E08091B70578
:1025D0009091B8050E944DC1F801C083562F472F36
:1025E000382F292F0BC060E070E0CF911F910F9121
:1025F0000C944DC150E040E030E020E0652F742F96
:10260000832F922FCF911F910F9108958091B7053D
:102610009091B805009731F04AE050E060E070E03A
:102620000C94A0C260E070E0CB0108958091B705E2
:102630009091B805892B11F481E00895E7DF97FDAB
:102640000BC0E4DF6F3F71058105910509F0A4F728
:10265000DDDF81E0611101C080E00895CF92DF925B
:10266000EF92FF92C0902301D0902401E0902501C9
:10267000F0902601FC0180819181A281B381809339
:10268000230190932401A0932501B09326010E9479
:10269000D954C0922301D0922401E0922501F092F6
:1026A0002601FF90EF90DF90CF9008952F923F92F8
:1026B0004F925F926F927F928F929F92AF92BF9252
:1026C000CF92DF92EF92FF920F931F93CF93DF93FE
:1026D00000D000D01F92CDB7DEB77C018B016A011C
:1026E000190180902E0590902F05A0903005B09094
:1026F0003105A5019401FC01608171818281938182
:102700000E94A9BDF1E0FD83811112C02091320524
:10271000309133054091340550913505F8016081C1
:102720007181828193810E94A9BD811101C01D82A6
:10273000F6014080518062807380209104013091C5
:1027400005014091060150910701C301B2010E94A9
:10275000A9BD882309F453C0409204015092050199
:10276000609206017092070120E030E040E450E4FE
:102770006091650670916606809167069091680683
:102780000E94B0BD69837A838B839C8380921E05EF
:1027900090921F05A0922005B092210580913205EC
:1027A00090913305A0913405B091350580932205B1
:1027B00090932305A0932405B0932505F60180810D
:1027C0009181A281B3818093260590932705A093E0
:1027D0002805B093290580913A0590913B05A09179
:1027E0003C05B0913D0580932A0590932B05A0935D
:1027F0002C05B0932D05CE01019630DF6DDEFD81F5
:10280000FF2319F160906106709062068090630664
:1028100090906406A0905D06B0905E06C0905F0642
:10282000D09060069501A601B301C4010E94ACBF1F
:10283000181614F05301640120E030E040E251E446
:10284000B501C6010E94B0BD0EC020E030E040ECF2
:102850005FE36091690670916A0680916B069091C2
:102860006C060E94B0BD69837A838B839C83209120
:102870003F05222351F0AB01BC018DEA93E00E9499
:1028800097916AE080EF9EE011DEF70180819181EF
:10289000A281B38180931E0590931F05A09320050C
:1028A000B0932105F80180819181A281B381809349
:1028B000220590932305A0932405B0932505F101EB
:1028C000208131814281538160912A0570912B05CD
:1028D00080912C0590912D050E94D0BC60932A0513
:1028E00070932B0580932C0590932D05CE010196B6
:1028F000B5DEF2DD0F900F900F900F900F90DF91EB
:10290000CF911F910F91FF90EF90DF90CF90BF90EC
:10291000AF909F908F907F906F905F904F903F907F
:102920002F900895CF93DF9300D000D0CDB7DEB7BE
:102930002091590221111AC021E02093590240919F
:10294000510250915202609153027091540270589A
:1029500049835A836B837C83AC01485F5F4FBC0122
:102960006C5F7F4F9E012F5F3F4FA0DE0F900F9057
:102970000F900F90DF91CF9108950F931F93CF93F6
:10298000DF9300D000D0CDB7DEB7209159022223CB
:1029900001F18C012AE939E949E95FE360915102CB
:1029A0007091520280915302909154020E94E7BFAD
:1029B00069837A838B839C83A801485F5F4FB8014A
:1029C0006C5F7F4F9E012F5F3F4FC8016FDE1092FB
:1029D00059020F900F900F900F90DF91CF911F91A0
:1029E0000F9108952F923F924F925F926F927F9234
:1029F0008F929F92AF92BF92CF92DF92EF92FF920F
:102A00000F931F93CF93DF93CDB7DEB7A0970FB689
:102A1000F894DEBF0FBECDBF9D8F8C8F7F8F6E8FE2
:102A200020E635E03C872B8700E010E03FEF388759
:102A30008FEF8F839FEF9B8BAFE4AC8BB3ECBD8BA1
:102A4000E7E4EE8B21E030E0002E02C0220F331FBE
:102A50000A94E2F73B8F2A8F8EE992E09A8B898B5A
:102A6000A4E5B5E0BA87A987312C08A3E989FA89DA
:102A700081919191FA8BE98B2A8D3B8D822393234F
:102A8000892B09F0BFC0AB85BC85CD90DD90ED9062
:102A9000FC90A985BA858D919D910D90BC91A02D3A
:102AA0008D879E87AF87B88BA7019601EC8DFD8D32
:102AB00060817181828193810E94CFBC2B013C0196
:102AC0002D853E854F855889AE8DBF8D6D917D9149
:102AD0008D919C910E94CFBC4B015C01A30192019E
:102AE000C301B2010E94E7BF2B013C01A501940183
:102AF000C501B4010E94E7BF9B01AC01C301B20153
:102B00000E94D0BC0E9454C04B015C01A7019601F9
:102B1000609145027091460280914702909148026F
:102B20000E94CFBC6B017C012D853E854F85588965
:102B3000609141027091420280914302909144025F
:102B40000E94CFBC2B013C01A7019601C701B60131
:102B50000E94E7BF6B017C01A3019201C301B20196
:102B60000E94E7BF9B01AC01C701B6010E94D0BC27
:102B70000E9454C020E030E040E751E40E94B0BD24
:102B8000A50194010E94D0BC6B017C0180905A0287
:102B900090905B02A0905C02B0905D0220E030E07B
:102BA00040E85FE3C501B4010E94ACBF1816ACF465
:102BB000C501B4010E9418BE9B01AC0160E070E049
:102BC000CB010E94A2B40E944BBE9B01AC01B60196
:102BD000C7010E94D0BC6B017C012B893C894D89C7
:102BE0005E89B601C7010E94A9BD87FF0BC0B8A1CD
:102BF000B8873F822C2CDF8AE88EF98ECB8ADC8A5C
:102C0000ED8AFE8A3394E985FA853496FA87E98756
:102C1000F3E03F122BCF0F5F1F4F2B853C852C5FBE
:102C20003F4F3C872B870330110509F00BCF3F81C5
:102C3000E32FF0E0EE0FFF1FE256FD4F81E090E042
:102C4000088402C0880F991F0A94E2F7208131811D
:102C5000822B932B91838083822D9F89A88DB98DA0
:102C60008B839C83AD83BE83422D5C816D817E818D
:102C700028853F8180E090E0A0960FB6F894DEBFF3
:102C80000FBECDBFDF91CF911F910F91FF90EF90BD
:102C9000DF90CF90BF90AF909F908F907F906F907C
:102CA0005F904F903F902F9008952F923F924F92B8
:102CB0005F926F927F928F929F92AF92BF92CF92CC
:102CC000DF92EF92FF920F931F93CF93DF93CDB7D5
:102CD000DEB7A6970FB6F894DEBF0FBECDBF9A87BA
:102CE00089871B015C874B873E872D87188B0F8751
:102CF000FAA2E9A2C0902E05D0902F05E0903005F1
:102D0000F0903105DC018D919D910D90BC91A02D2D
:102D1000898B9A8BAB8BBC8B9C01AD01C701B60133
:102D20000E94CFBC2B013C0180913205909133056C
:102D3000A0913405B09135058D8B9E8BAF8BB88FEC
:102D4000D1018D919D910D90BC91A02D898F9A8F6D
:102D5000AB8FBC8F9C01AD016D897E898F89988D69
:102D60000E94CFBC4B015C01A3019201C301B201DF
:102D70000E94E7BF2B013C01A5019401C501B401EC
:102D80000E94E7BF9B01AC01C301B2010E94D0BC0D
:102D90006D8F7E8F8F8F98A3ED85FE85408051804B
:102DA00062807380A3019201C701B6010E94CFBC6B
:102DB0006BA37CA38DA39EA3D8018D909D90AD9015
:102DC000BC90A50194016D897E898F89988D0E94A0
:102DD000CFBC6B017C0129893A894B895C89C3018D
:102DE000B2010E94CFBC2B013C01298D3A8D4B8D45
:102DF0005C8DC501B4010E94CFBC4B015C01A301F5
:102E00009201C301B2010E94E7BF2B013C01A50161
:102E10009401C501B4010E94E7BF9B01AC01C3014D
:102E2000B2010E94D0BC0E9454C04B015C012BA196
:102E30003CA14DA15EA1CA01B9010E94E7BF2B01CF
:102E40003C01A7019601C701B6010E94E7BF9B01A3
:102E5000AC01C301B2010E94D0BC9B01AC016D8DDD
:102E60007E8D8F8D98A10E94ACBF181624F520E0AE
:102E700030E0A901C501B4010E94ACBF87FF04C0C6
:102E8000C501B401905802C0C501B40120E030E092
:102E900040EA50E40E94ACBF18166CF4EB84FC844A
:102EA000810129853A8549A15AA16F8578898D8547
:102EB0009E85FBDE83C020E030E040E050E46D8D75
:102EC0007E8D8F8D98A10E94ACBF18160CF042C069
:102ED0008EE195E027DD19821A821B821C8220E098
:102EE00030E040E05FE360913605709137058091F6
:102EF0003805909139050E94D0BC6D837E838F8305
:102F000098879E012F5F3F4FAE014B5F5F4F62E39B
:102F100075E08EE295E0CADB19821A821B821C8260
:102F200020E030E040E05FE3EB85FC85608171816B
:102F3000828193810E94D0BC6D837E838F8398872A
:102F40009E012F5F3F4FAE014B5F5F4FB1018985FF
:102F50009A85ACDB19821A821B821C829E012F5F2C
:102F60003F4F4B855C85B10189859A859FDB209118
:102F700008013091090140910A0150910B01C501EE
:102F8000B4010E94E7BF2091550230915602409152
:102F90005702509158020E94E7BF69837A838B835E
:102FA0009C838EE195E0E9DC9E012F5F3F4F49A1B4
:102FB0005AA16F8578898D859E8578DBA6960FB698
:102FC000F894DEBF0FBECDBFDF91CF911F910F915F
:102FD000FF90EF90DF90CF90BF90AF909F908F9039
:102FE0007F906F905F904F903F902F9008952F9219
:102FF0003F924F925F926F927F928F929F92AF9289
:10300000BF92CF92DF92EF92FF920F931F93CF93D5
:10301000DF93CDB7DEB7A2970FB6F894DEBF0FBE31
:10302000CDBF20E635E03C8F2B8F1A8E198E81E0C4
:1030300090E0098C02C0880F991F0A94E2F79A8BDE
:10304000898BA98DBA8D1196BA8FA98FE1E0F0E036
:10305000098C02C0EE0FFF1F0A94E2F7FAA3E9A35E
:103060001EE5212E12E0312E2EE932E0388F2F8B13
:103070008EE792E09E8F8D8FA4E5B5E0B8A3AF8F69
:10308000EF89F88DFC8BEB8B8081918129893A89BE
:1030900028233923232B09F486C029A13AA18223AE
:1030A0009323892B09F47FC0AD8DBE8D8D919C91AA
:1030B000E989FA898E239F23892B09F074C020E0C7
:1030C00030E040E050E4AB8DBC8D6D917D918D91F1
:1030D0009C910E94D0BC6B017C0120E030E040E07C
:1030E00050E4EB8DFC8D64817581868197810E940F
:1030F000CFBC2B013C0120E030E040E85FE3C7019A
:10310000B6010E94A9BD87FF2AC1C12CD12CB0E80D
:10311000EB2EBFE3FB2ECD86DE86EF86F88AAF8DE1
:10312000B8A18D909D90AD90BC9020E030E040E83B
:103130005FEBC501B4010E94A9BD87FF22C1812CAC
:10314000912CF0E8AF2EFFEBBF2E89829A82AB82E2
:10315000BC8289869A86AB86BC8620E030E040E857
:103160005FE3C301B2010E94A9BD87FF1DC1412CCD
:10317000512C70E8672E7FE3772E4D825E826F823E
:103180007886AE01475F5F4FC701B60152D9811102
:103190001DC1ED8DFE8D8081918129893A89822B17
:1031A000932B918380838F89988D0296988F8F8B34
:1031B000AB89BC898D919C91E989FA898E239F23E3
:1031C000892B09F493C0AF89B88D8D919C918E2382
:1031D0009F23892B09F48AC0D1018D919C91E989A3
:1031E000FA898E239F23892B09F080C020E030E0EC
:1031F00040E050E4EF8DF8A160817181828193817C
:103200000E94D0BC6B8B7C8B8D8B9E8B20E030E042
:1032100040E050E4AF8DB8A114966D917D918D91F1
:103220009C9117970E94CFBC2B013C01EB8DFC8D2C
:10323000C080D180E280F38020E030E040E85FE3AE
:10324000C701B6010E94A9BD87FF05C1C12CD12CC1
:1032500040E8E42E4FE3F42ECD82DE82EF82F88642
:10326000CD86DE86EF86F88A20E030E040E85FEB2E
:103270006B897C898D899E890E94A9BD87FFFDC0CD
:1032800080E090E0A0E8BFEB8B8B9C8BAD8BBE8B7E
:103290008B899C89AD89BE8989879A87AB87BC87D2
:1032A00020E030E040E85FEBC301B2010E94A9BD1D
:1032B00087FFF9C0412C512C20E8622E2FEB722E93
:1032C00049825A826B827C82AE01475F5F4FC701A1
:1032D000B601AFD88111FAC0D1018D919C9111979F
:1032E000E989FA898E2B9F2B8D939C93F2E02F0E08
:1032F000311C2D8D3E8D2E5F3F4F3E8F2D8F8F8D3C
:1033000098A1049698A38F8FA4E6B2E0A215B30506
:1033100009F0B6CEEB8DFC8D3496FC8FEB8F298DAA
:103320003A8D2330310509F082CE80E0A2960FB6A7
:10333000F894DEBF0FBECDBFDF91CF911F910F91EB
:10334000FF90EF90DF90CF90BF90AF909F908F90C5
:103350007F906F905F904F903F902F90089520E066
:1033600030E046EC52E4C701B6010E94ACBF18162B
:103370000CF0D1CEC12CD12CA6ECEA2EA2E4FA2E70
:10338000CACE20E030E845E953E4C501B4010E940B
:10339000ACBF18160CF0D9CE812CE0E89E2EE5E9E2
:1033A000AE2EE3E4BE2ED1CE20E030E046EC52E477
:1033B000C301B2010E94ACBF18160CF0DECE412C46
:1033C000512C66EC662E62E4762ED7CEAE014F5FAE
:1033D0005F4FC301B2012DD8882309F4DACE809162
:1033E0003F05882331F1B701A6018DE194E00E94E9
:1033F000979149855A856B857C8587E194E00E9489
:1034000097914D815E816F8178858DE094E00E9477
:10341000979149815A816B817C8187E094E00E9479
:10342000979169E280EF9EE041D86AE080EF9EE0EC
:103430003DD85DE4E52E52E0F52E8E010F5F1F4F63
:103440009E012B5F3F4FA701BE01675F7F4FCE01FB
:103450000D962BDC9ECE20E030E046EC52E4C70116
:10346000B6010E94ACBF18160CF0F6CEC12CD12CC0
:1034700036ECE32E32E4F32EEFCE20E030E845E9DF
:1034800053E46B897C898D899E890E94ACBF181694
:103490000CF0FECE80E090E8A5E9B3E48B8B9C8B2A
:1034A000AD8BBE8BF5CE20E030E845E953E4C30197
:1034B000B2010E94ACBF18160CF002CF412C90E86C
:1034C000592E95E9692E93E4792EFACEAE014F5F1D
:1034D0005F4FC701B6010E941912882309F4FCCE80
:1034E00080913F05882341F1B701A60183EE93E067
:1034F0000E94979149855A856B857C858DED93E077
:103500000E9497914D815E816F81788583ED93E074
:103510000E94979149815A816B817C818DEC93E067
:103520000E94979169E280EF9EE00E9456126AE045
:1035300080EF9EE00E9456128DE4E82E82E0F82E85
:103540008E010F5F1F4F9E012B5F3F4FA701BE01F2
:10355000675F7F4FCE010D96A8DBBECE8F929F9204
:10356000AF92BF92CF92DF92EF92FF920FB6F89494
:10357000C090E50ED090E60EE090E70EF090E80ED9
:103580000FBE88E8C80E83E1D81EE11CF11C8091B3
:103590003F0290914002863991051CF026E980E0B7
:1035A00002C0282F892F2093150E8093160E0E949B
:1035B000B4A560913F0270914002072E000C880B69
:1035C000990B0E944BBE9B01AC016091190E70914A
:1035D0001A0E80911B0E90911C0E0E94CFBC4B01C5
:1035E0005C0120E030E0A9010E94ACBF87FF04C06D
:1035F000C501B401905802C0C501B40120E030E01B
:1036000040E450E40E94ACBF181684F50FB6F8945D
:103610008091E50E9091E60EA091E70EB091E80E34
:103620000FBE8C199D09AE09BF09B7FD18C00FB6B2
:10363000F894C090E50ED090E60EE090E70EF09082
:10364000E80E0FBE88E8C80E83E1D81EE11CF11C0D
:103650000E94D1AA6AE080EF9EE00E9456120E946A
:10366000A44D80EF9EE00E941EBCA3CF80913D023E
:1036700090913E0290931E0E80931D0E80E00E945A
:1036800061A560913D0270913E02072E000C880BEF
:10369000990B0E944BBE9B01AC016091210E709171
:1036A000220E8091230E9091240E0E94CFBC4B01DC
:1036B0005C0120E030E0A9010E94ACBF87FF04C09C
:1036C000C501B401905802C0C501B40120E030E04A
:1036D00040E450E40E94ACBF181684F50FB6F8948D
:1036E0008091E50E9091E60EA091E70EB091E80E64
:1036F0000FBE8C199D09AE09BF09B7FD18C00FB6E2
:10370000F894C090E50ED090E60EE090E70EF090B1
:10371000E80E0FBE88E8C80E83E1D81EE11CF11C3C
:103720000E94D1AA6AE080EF9EE00E9456120E9499
:10373000A44D80EF9EE00E941EBCA3CF80E0FF90CE
:10374000EF90DF90CF90BF90AF909F908F900895B3
:103750002F923F924F925F926F927F928F929F92A1
:10376000AF92BF92CF92DF92EF92FF920F931F938F
:10377000CF93DF93CDB7DEB7C454D1090FB6F89419
:10378000DEBF0FBECDBFE0E8F3E064918F010F5FB5
:103790001F4F662331F080EF9EE00E945612F80121
:1037A000F4CF41E061E081E00E94E528811195C6F7
:1037B00080E090E0A0E8BFE380935502909356022A
:1037C000A0935702B09358028093510290935202F3
:1037D000A0935302B09354028DEC9CECACE4BEE396
:1037E00080934D0290934E02A0934F02B0935002EB
:1037F00080E090E0A0E2B1E48093490290934A0215
:10380000A0934B02B0934C028CE390E09093400263
:1038100080933F028DEC90E090933E0280933D02B6
:1038200010923C028FE40E94C312882319F00E9478
:10383000CF1204C06AE979E989E99EE36BAB7CABFE
:103840008DAB9EAB83E40E94C312882331F00E94AB
:10385000161325968FAF259706C083E40E94761233
:1038600025968FAF25978BE40E94C312882331F0F1
:103870000E94161324968FAF249706C08BE40E94F3
:10388000761224968FAF249782E40E94C312882375
:10389000F9F00E94CF120E9418BE7093400260930C
:1038A0003F0261157105A1F0685271096536710515
:1038B00078F0EBE4F3E064918F010F5F1F4F662314
:1038C00009F40BC680EF9EE00E945612F801F3CF78
:1038D0008CE40E94C312882371F10E94CF126B0105
:1038E0007C0160934D0270934E0280934F0290933F
:1038F000500220E030E0A9010E94ACBF87FF03C066
:10390000E3E2F3E00BC020E030E040E050E4C70128
:10391000B6010E94A9BD181674F4F2CF64918F010C
:103920000F5F1F4F662309F4D8C580EF9EE00E9409
:103930005612F801F3CF81E50E947612882309F42C
:1039400045C08091B7059091B805892B19F4E7EC33
:10395000F2E02FC00E94CF126B017C0160935102F4
:103960007093520280935302909354022DEC3CECDE
:103970004CE45DE30E94ACBF87FF03C0E2EFF2E0DE
:103980000BC020E030E040E751E4C701B6010E94DF
:10399000A9BD1816DCF4F2CF64918F010F5F1F4FA1
:1039A000662309F49AC580EF9EE00E945612F80142
:1039B000F3CF64918F010F5F1F4F662309F48DC50C
:1039C00080EF9EE00E945612F801F3CF83E50E943B
:1039D000C312882339F10E94CF124B015C012DECF8
:1039E0003CEC4CEC5DE30E94ACBF87FF03C0E0EA17
:1039F000F2E00BC020E030E040E85FE3C501B40135
:103A00000E94A9BD18169CF314C064918F010F5F2A
:103A10001F4F662309F461C580EF9EE00E94561295
:103A2000F801F3CF4DEC842E4CEC942EA92C4EE3F0
:103A3000B42E80E50E947612882309F448C0809154
:103A4000B7059091B805892B79F4E8E6F2E0649126
:103A50008F010F5F1F4F662309F43FC580EF9EE083
:103A60000E945612F801F3CF80913C028F5F809341
:103A70003C020E94CF126B017C016093490270935B
:103A80004A0280934B0290934C0220E030E0A9015F
:103A90000E94ACBF87FF03C0E0E4F2E00BC020E06F
:103AA00030E048EC51E4C701B6010E94A9BD1816E8
:103AB00074F4F2CF64918F010F5F1F4F662309F4F6
:103AC0000CC580EF9EE00E945612F801F3CF86E409
:103AD0000E94C312882339F10E94CF126B017C012E
:103AE00020E030E040E85FE30E94ACBF87FF03C006
:103AF000E7E1F2E00BC020E030E040E850E4C7012D
:103B0000B6010E94A9BD1816A4F4F2CF64918F01EA
:103B10000F5F1F4F662309F4E0C480EF9EE00E9410
:103B20005612F801F3CFC12CD12C30EEE32E3FE337
:103B3000F32EA7019601C701B6010E94E7BF9B01C2
:103B4000AC0160E070E084E490E40E94B0BD20919C
:103B500055023091560240915702509158020E94EE
:103B6000E7BF2B013C01A5019401C501B4010E94EE
:103B7000E7BFA70196010E94E7BF2CEE31E548EBB5
:103B80005DE30E94B0BD9B01AC01C301B2010E9484
:103B9000E7BF60935502709356028093570290934B
:103BA000580288E40E94C3128823E1F00E94CF12D9
:103BB0000E9418BE70933E0260933D02655A7109DF
:103BC0006437710578F0E9EEF1E064918F010F5FE1
:103BD0001F4F662309F481C480EF9EE00E945612B5
:103BE000F801F3CF85E50E947612882311F10FB614
:103BF000F8948091E50E9091E60EA091E70EB091B9
:103C0000E80E0FBE0E9481B48091B7059091B8056F
:103C1000892B19F00E94CF1204C060E070E088E4A4
:103C200092E460935A0270935B0280935C029093DB
:103C30005D0282E50E94761281110FC0E5EBF1E092
:103C400064918F010F5F1F4F662309F446C480EF14
:103C50009EE00E945612F801F3CF8091B705909133
:103C6000B805892BB9F00E9406137EAF6DAFCB016A
:103C7000181619069CF0E1E8F1E064918F010F5FDE
:103C80001F4F662309F429C480EF9EE00E9456125C
:103C9000F801F3CFAAE0B0E0BEAFADAF88E50E9477
:103CA000C312882369F00E94CF12209161033091E2
:103CB000620340916303509164030E94CFBC08C02B
:103CC00060912E0570912F058091300590913105FE
:103CD0006093450270934602809347029093480296
:103CE00089E50E94C312882369F00E94CF122091B7
:103CF00065033091660340916703509168030E9409
:103D0000CFBC08C0609132057091330580913405B5
:103D10009091350560934102709342028093430273
:103D2000909344026091450270914602809147024F
:103D30009091480241E452E00E94191281110FC093
:103D4000E7E5F1E064918F010F5F1F4F662309F4EF
:103D5000C4C380EF9EE00E945612F801F3CF84E4C2
:103D60000E94761291E089270E947B2B20E030E0B0
:103D700040E450E460913605709137058091380534
:103D8000909139050E94A9BD87FF1CC019821A8233
:103D90001B821C8280E090E0A0E4B0E4898B9A8BC7
:103DA000AB8BBC8BBE016F5F7F4FCE0141960E94F3
:103DB0006E2880E1EEE1F5E0AEE2B5E001900D9213
:103DC0008A95E1F7CBDB81111FC310923A0510925F
:103DD0003B0510923C0510923D0577D680913C0240
:103DE0008823C1F10E946C122091490230914A024D
:103DF00040914B0250914C0260912A0570912B0525
:103E000080912C0590912D050E94D0BC60932A05CD
:103E100070932B0580932C0590932D0520E030E0C6
:103E200040E751E46091690670916A0680916B06E3
:103E300090916C060E94B0BD69837A838B839C83CA
:103E4000CE0101960E942E130E946C128EE195E025
:103E50000E94921480E2EEE9F2E0DF01982F1D92B9
:103E60009A95E9F7EEE7F2E0DF01982F1D929A9517
:103E7000E9F7EEE5F2E0DF011D928A95E9F70E948D
:103E80006C1280914D0290914E02A0914F02B09120
:103E900050028093260590932705A0932805B093A0
:103EA000290519821A821B821C829E012F5F3F4FB7
:103EB00046E255E062E275E08EE195E00E9456131D
:103EC0009E012D5C3F4F46E255E062E275E08EE1D7
:103ED00095E00E9456132596BFAD2597BB2349F068
:103EE00062E375E08EE295E00E94F214132F2CAF8E
:103EF00008C061E472E085E492E00E94F214132F9E
:103F00002CAF8CAD87FD70C217FD6EC294E08902A4
:103F1000F0011124E05AFA4F408051806280738092
:103F2000A4E01A02F0011124EC5AFA4F908081802B
:103F300032802380892D982DA32DB22D8FA798AB89
:103F4000A9ABBAABAE01415D5F4FB201C3010E94A4
:103F50001912882309F44CC220E030E040EA50E412
:103F6000B201C3010E94D0BCB62E072FA82E9FAB72
:103F7000862F902FAA2DBFA98BA79CA7ADA7BEA760
:103F8000892D982DA32DB22D8FA398A7A9A7BAA7E5
:103F9000BCADB11147C0111105C05B2D402F3A2DAA
:103FA0002FA904C0542D452D362D272D852F942F54
:103FB000A32FB22F8BA79CA7ADA7BEA7123034F4B6
:103FC000B42C052DA62C7FAA112369F020E030E047
:103FD00040EA50E4692D782D832D922D0E94CFBCAC
:103FE000362F272F03C09401832D922D432F522F5C
:103FF000BC014FA358A769A77AA712300CF086C05E
:1040000020E030E040EA50E4692D782D832D922D98
:104010000E94D0BC68AF79AF8AAF9BAF112309F47F
:1040200079C047C08CAD813009F446C012305CF0D5
:1040300020E030E040EA50E4B201C3010E94CFBC6E
:10404000362F272F03C0342D252DC301432F522F88
:10405000BC014BA75CA76DA77EA7111136C220E05B
:1040600030E040EA50E4B201C3010E94CFBCB62E5A
:10407000072FA82E9FAB20E030E040EA50E4692DE6
:10408000782D832D922D0E94D0BC6FA378A789A78D
:104090009AA71123D9F120E030E040EA50E4692DDD
:1040A000782D832D922D0E94CFBC68AF79AF8AAF57
:1040B0009BAF113079F512C0111119C020E030E02A
:1040C00040EA50E4B201C3010E94CFBCB62E072FD4
:1040D000A82E9FAB98AE89AE3AAE2BAE22EDC22E83
:1040E00023E5D22E2BE7E22E21E4F22E28C0113058
:1040F000D1F020E030E040EA50E4B201C3010E9478
:10410000CFBC6BA77CA78DA79EA7E4CF98AE89AE46
:104110003AAE2BAE92EDC92E93E5D92E9BEFE92E48
:1041200090E4F92E0CC098AE89AE3AAE2BAE82ED7B
:10413000C82E83E5D82E8BEFE82E81E4F82E8BA5D0
:104140009CA5ADA5BEA523968CAF9DAFAEAFBFAF6E
:1041500023979C01AD01B201C3010E94CFBC698BC2
:104160007A8B8B8B9C8B4FA058A469A47AA4A30153
:104170009201692D782D832D922D0E94CFBC6D8BDD
:104180007E8B8F8B988F23962CAD3DAD4EAD5FAD62
:10419000239760912E0570912F05809130059091A5
:1041A00031050E94CFBC23966CAF7DAF8EAF9FAF21
:1041B0002397A3019201609132057091330580919C
:1041C0003405909135050E94CFBC2B013C018B2D0D
:1041D000902FAA2DBFA989839A83AB83BC8388AD16
:1041E00099ADAAADBBAD8D839E83AF83B887809117
:1041F0004D0290914E02A0914F02B09150028987DA
:104200009A87AB87BC8720910801309109014091C2
:104210000A0150910B01C701B6010E94E7BF20912E
:1042200055023091560240915702509158020E9417
:10423000E7BF20913A0530913B0540913C055091F4
:104240003D050E94D0BC6D877E878F87988B239613
:104250002CAD3DAD4EAD5FAD2397CA01B9010E94B3
:10426000E7BF6B017C01A3019201C301B2010E946F
:10427000E7BF9B01AC01C701B6010E94D0BC20E0A2
:1042800030E040E050E40E94ACBF18160CF049C08A
:104290008EE195E00E9492141F8E18A219A21AA214
:1042A00020E030E040E05FE3609136057091370533
:1042B00080913805909139050E94D0BC6BA37CA3F6
:1042C0008DA39EA39E01215E3F4FAE014D5D5F4FCA
:1042D00062E375E08EE295E00E9456131F8E18A2ED
:1042E00019A21AA220E030E040E05FE360914D02A5
:1042F00070914E0280914F02909150020E94D0BC6A
:104300006BA37CA38DA39EA39E01215E3F4FAE01B4
:104310004D5D5F4FBE01695D7F4FCE018B960E9460
:1043200056131F8E18A219A21AA29E01215E3F4F9A
:104330004DE452E0BE01695D7F4FCE018B960E9435
:1043400056138EE195E00E94BD14409023015090D9
:1043500024016090250170902601D0906106E090C4
:104360006206F09063060091640690905D06A0904E
:104370005E06B0905F06C0906006292D3A2D4B2D49
:104380005C2D6D2D7E2D8F2D902F0E94ACBF1816A9
:104390001CF4D92C75010C2D20E030E040E251E4F2
:1043A0006D2D7E2D8F2D902F0E94B0BD6093230127
:1043B00070932401809325019093260140E0BE0173
:1043C0006F5E7F4FCE0101960E946D564092230191
:1043D0005092240160922501709226010E946C1275
:1043E0000E94F717811110C080EF9EE00E941EBC52
:1043F000ADADBEAD1197BEAFADAFAB2B29F0BCAD2F
:10440000B7FD02C017FF67CD8EE195E00E949214C0
:1044100080E090E0A0E4B0E4809326059093270527
:10442000A0932805B093290519821A821B821C8249
:104430009E012F5F3F4F46E255E062E275E08EE15C
:1044400095E00E9456138091450290914602A091FA
:104450004702B091480280931E0590931F05A093D8
:104460002005B09321058091410290914202A091D4
:104470004302B09144028093220590932305A093B8
:104480002405B093250519821A821B821C829E0185
:104490002F5F3F4F46E255E062E275E08EE195E026
:1044A0000E94561324968FAD2497811116C0109246
:1044B000160E1092150E0E94B4A510921E0E1092A8
:1044C0001D0E80E00E9461A508C0B42C052DA62C0D
:1044D0007FAA113009F0DFCDCECDCC5BDF4F0FB618
:1044E000F894DEBF0FBECDBFDF91CF911F910F912A
:1044F000FF90EF90DF90CF90BF90AF909F908F9004
:104500007F906F905F904F903F902F9008954F92C3
:104510005F926F927F928F929F92AF92BF92CF9253
:10452000DF92EF92FF92CF934B015C0169017A0118
:1045300020E030E040EA51E40E94CFBC2B013C0176
:104540002FE632E143E85AEB0E94ACBF87FD48C03A
:1045500023E830E048EC52E4C301B2010E94A9BD57
:1045600018160CF43DC022E630E140E050ECC701E3
:10457000B6010E94ACBF87FD33C021E230E046E9BE
:1045800053E4C701B6010E94A9BD18164CF124EFEF
:104590003DEF4FE951E4C501B4010E94ACBF87FD76
:1045A0001FC023E830E044EB52E4C501B4010E948F
:1045B000A9BD1816ACF027EE3BEF4FE151E4C7015F
:1045C000B6010E94ACBF87FD0BC0C1E021E230E024
:1045D00041E953E4C701B6010E94A9BD18160CF4C5
:1045E000C0E08C2FCF91FF90EF90DF90CF90BF90E5
:1045F000AF909F908F907F906F905F904F900895B5
:10460000AB01770F660B770B0C94CDB30C94DAB338
:10461000FF920F931F93CF93DF93F82E092F162F3E
:10462000E1ECF5E06491EF012196662331F080EF33
:104630009EE00E945612FE01F5CFEF2DF02F6491FF
:10464000EF012196662331F080EF9EE00E94561222
:10465000FE01F5CFEFEBF5E06491EF0121966623C3
:1046600031F080EF9EE00E945612FE01F5CF612FDF
:1046700070E080EF9EE0C4DF6AE080EF9EE0DF91B3
:10468000CF911F910F91FF900C9456120FB6F89492
:104690008091E50E9091E60EA091E70EB091E80EA4
:1046A0000FBE80934A0390934B03A0934C03B093A7
:1046B0004D0308952F923F924F925F926F927F9297
:1046C0008F929F92AF92BF92CF92DF92EF92FF9222
:1046D0000F931F93CF93DF93EB01FC0180809180B8
:1046E000A280B380C501B40120E831E541E050E08B
:1046F0000E9463BCC9016DE671E00E944FBC6B0172
:104700007C01C501B40120E13EE040E050E00E94A0
:1047100063BCCA01B90128E130E040E050E00E94EA
:1047200063BC362E272E062F172F8CE3482E512CD4
:10473000612C712CC501B401A30192010E9463BCDC
:10474000B62EA72ECA01B901A30192010E9463BC33
:10475000CB01C114D104D9F0AF92BF927F936F9374
:104760002F923F92FF92EF92DF92CF928AE49FE0E6
:104770009F938F93DF93CF930E9460C58DB79EB7B1
:104780000E960FB6F8949EBF0FBE8DBF5CC0E114AD
:10479000F104C9F0AF92BF927F936F932F923F9233
:1047A000FF92EF928AE39FE09F938F93DF93CF93E3
:1047B0000E9460C5EDB7FEB73C960FB6F894FEBFF9
:1047C0000FBEEDBF40C0012BB9F0AF92BF927F93F7
:1047D0006F932F923F928EE29FE09F938F93DF9390
:1047E000CF930E9460C58DB79EB70A960FB6F89416
:1047F0009EBF0FBE8DBF27C0892BA9F0AF92BF927D
:104800007F936F9386E29FE09F938F93DF93CF9385
:104810000E9460C5EDB7FEB738960FB6F894FEBF9C
:104820000FBEEDBF10C0AF92BF9282E29FE09F9398
:104830008F93DF93CF930E9460C50F900F900F90DE
:104840000F900F900F90DF91CF911F910F91FF90DC
:10485000EF90DF90CF90BF90AF909F908F907F9020
:104860006F905F904F903F902F9008958091B70583
:104870009091B805009731F04AE050E060E070E0B8
:104880000C94CBC360E070E0CB0108950E94061346
:1048900097FD0CC00E9406136F3F710581059105BD
:1048A00009F034F40E940613862F089580E00895DD
:1048B0008FEF08950F931F93CF93DF93CDB7DEB79C
:1048C0002C970FB6F894DEBF0FBECDBFEEE2F5E039
:1048D00080859185A285B3854481558166817781E4
:1048E000008111812281338109871A872B873C87B8
:1048F0004D835E836F83788789839A83AB83BC8380
:10490000AE014F5F5F4FBE016B5F7F4FCE010996D7
:104910000E9463812AE335E0AE014F5F5F4FBE0125
:104920006B5F7F4FCE0109960E94178F2C960FB6B2
:10493000F894DEBF0FBECDBFDF91CF911F910F91D5
:1049400008952F923F924F925F926F927F929F9223
:10495000AF92BF92CF92DF92EF92FF920F931F938D
:10496000CF93DF93CDB7DEB764970FB6F894DEBF71
:104970000FBECDBF1A012B01922EF32EC82ED12CC3
:10498000F601ED52F14FE491AA24A3941E160CF403
:10499000A12CBB24B39420E030E0A901C201B101F5
:1049A0000E94ACBF18160CF0B12CCC0CDD1CCC0C4A
:1049B000DD1CC601825D9A4F3C01FC011082118210
:1049C0001282138277DFF301208231824282538286
:1049D000E090520320E030E0A901B801892D9F2D1D
:1049E0000E94A9BD81110AC0F601EE5EF04F8591CB
:1049F0009591A591B4918C019A2EFB2EC801A92DF9
:104A0000BF2D898B9A8BAB8BBC8B80913605909197
:104A10003705A0913805B091390540913205509184
:104A20003305609134057091350500912E05109184
:104A30002F0520913005309131050D871E872F8776
:104A4000388B49875A876B877C878D839E83AF839A
:104A5000B88719821A821B821C82AE014B5F5F4F9E
:104A6000BE01675F7F4FCE010D960E946381CE012C
:104A700001966C018E010F5E1F4F2AE335E0AE01F7
:104A80004B5F5F4FBE01675F7F4F0C960E94358E74
:104A90000E943982AB100E94A57364960FB6F894F9
:104AA000DEBF0FBECDBFDF91CF911F910F91FF9061
:104AB000EF90DF90CF90BF90AF909F907F906F90DE
:104AC0005F904F903F902F9008956AE375E083E0E8
:104AD0000C943C90CF93DF9300D0CDB7DEB72091FC
:104AE000E20E3091E30ECE0101962115310529F435
:104AF0008C5F9E409A83898304C0821B930B9A83A8
:104B0000898389819A810F900F90DF91CF910895C9
:104B1000FF920F931F93CF93DF93FC0120812B33E0
:104B200019F1D0911305D430F8F4F62EBC01C091E0
:104B300011050C2F10E0F0E6CF9FC00111248F5615
:104B40009C4F0E9440C5F801EF5CFC4FF082CF5FA4
:104B5000C43018F4C093110502C010921105DF5F34
:104B6000D093130581E001C080E0DF91CF911F91C8
:104B70000F91FF900895EF92FF921F93CF93DF93D1
:104B80007C0160E0C5DF182F8823E1F0E3EAF6E15D
:104B90006491EF012196662331F080EF9EE00E9440
:104BA0005612FE01F5CFB70183EB96E00E94D99132
:104BB00062E280EF9EE00E9456126AE080EF9EE083
:104BC0000E945612812FDF91CF911F91FF90EF909D
:104BD0000895DF92EF92FF920F931F93CF93DF938D
:104BE000CDB7DEB76E970FB6F894DEBF0FBECDBF60
:104BF00060918F03709190036115710541F14DE152
:104C000050E0CE0101967C010E94F6C41E8EF70191
:104C10008F010E191F09D190DD2019F09AE0D912E9
:104C2000F7CFF701E00FF11F1082C701A4DF88233F
:104C300071F0DD20A9F00F5F1F4F80918F039091DD
:104C40009003080F191F1093900300938F0381E0C6
:104C500020918F0330919003232B29F480E003C02F
:104C600000E010E0F0CF6E960FB6F894DEBF0FBEF6
:104C7000CDBFDF91CF911F910F91FF90EF90DF900B
:104C80000895EF92FF920F931F93CF93DF937C01D0
:104C900084E50E94C312D82F882381F1F7DDC82F45
:104CA000181644F5E3EAF6E164918F010F5F1F4F98
:104CB000662331F080EF9EE00E945612F801F4CF97
:104CC0006DE480EF9EE00E945612A70160E070E064
:104CD00020E080EF9EE00E9461B36C2FCC0F770B39
:104CE00080EA96E00E945A916AE080EF9EE00E947E
:104CF000561208C080934503D0E004C0809152034F
:104D0000809345038D2FDF91CF911F910F91FF90DD
:104D1000EF9008950F931F93CF93DF9394E0899FB3
:104D2000E00111248E010F591C4FFE01E359FC4F85
:104D3000DE01A758BC4F2D913D914D915C91608152
:104D40007181828193810E94D0BCF801608371835C
:104D500082839383FE01EA5FF04F85919591A5913F
:104D6000B491FE01EB5AFC4F80839183A283B383FD
:104D7000FE01E650F14F85919591A591B491CB5EDE
:104D8000DE4F88839983AA83BB83DF91CF911F91E4
:104D90000F910895CF92DF92EF920F931F93CF93CD
:104DA000DF93CDB7DEB760970FB6F894DEBF0FBEC6
:104DB000CDBFE0905203EEE2F5E080859185A285BB
:104DC000B38544815581668177810081118122817B
:104DD00033810D871E872F87388B49875A876B87CA
:104DE0007C878D839E83AF83B88719821A821B824A
:104DF0001C82AE014B5F5F4FBE01675F7F4FCE01EC
:104E00000D960E946381CE0101966C0103E211E0D0
:104E10002AE335E0AE014B5F5F4FBE01675F7F4F16
:104E20000C960E94358E60960FB6F894DEBF0FBECA
:104E3000CDBFDF91CF911F910F91EF90DF90CF9079
:104E400008958F929F92AF92BF92CF92DF92EF928E
:104E50000F931F93CF93DF93CDB7DEB760970FB655
:104E6000F894DEBF0FBECDBF8C01E0905203EEE19F
:104E7000F5E080859185A285B38544815581668161
:104E8000778180809180A280B3808D869E86AF8658
:104E9000B88A49875A876B877C878D839E83AF83C7
:104EA000B88719821A821B821C82AE014B5F5F4F4A
:104EB000BE01675F7F4FCE010D960E946381CE01D8
:104EC00001966C012AE235E0AE014B5F5F4FBE01F7
:104ED000675F7F4F0C960E94358E60960FB6F894F0
:104EE000DEBF0FBECDBFDF91CF911F910F91EF902D
:104EF000DF90CF90BF90AF909F908F9008952F92AA
:104F00003F924F925F926F927F928F929F92AF9259
:104F1000BF92CF92DF92EF92FF920F931F93CF93A6
:104F2000DF93CDB7DEB72A970FB6F894DEBF0FBE7A
:104F3000CDBF2B013C012D833E834F835887470112
:104F40005801DA86C9868091230190912401A091AD
:104F50002501B091260189839A83AB83BC83D60156
:104F60001C9111960C91119712963C9012971396E2
:104F70002C9020E030E0A901612F702F832D922D1D
:104F80000E94A9BD81110AC0EAE1FFE085919591D7
:104F9000A591B491182F092F3A2E2B2EA50194011B
:104FA00060913605709137058091380590913905EB
:104FB0000E94A9BD87FF15C0812F902FA32DB22D70
:104FC0008093230190932401A0932501B09326019F
:104FD0008092360590923705A0923805B092390537
:104FE000D9DEE985FA85C080D180E280F38020E0B7
:104FF00030E0A901C701B6010E94A9BD811107C017
:1050000085E5C82EDC2C89EEE82E82E4F82EC092CD
:105010002301D0922401E0922501F09226014092D2
:105020002E0550922F0560923005709231058D81CA
:105030009E81AF81B8858093320590933305A0930C
:105040003405B0933505A6DE20913605309137053D
:105050004091380550913905C501B4010E94A9BDA0
:1050600087FF15C0812F902FA32DB22D8093230190
:1050700090932401A0932501B093260180923605D8
:1050800090923705A0923805B092390583DE0E94D0
:10509000398289819A81AB81BC818093230190936D
:1050A0002401A0932501B09326012A960FB6F89407
:1050B000DEBF0FBECDBFDF91CF911F910F91FF904B
:1050C000EF90DF90CF90BF90AF909F908F907F90A8
:1050D0006F905F904F903F902F900895CF92DF9206
:1050E000EF92FF920F931F936B01FC01E080F18020
:1050F00002811381EEE2F5E02481358146815781FA
:105100006081718182819381FADE1F910F91FF90FE
:10511000EF90DF90CF900895CF92DF92EF92FF92C1
:105120000F931F936A01E0903605F09037050091C8
:10513000380510913905FB0120813181428153816D
:10514000FC016081718182819381D9DE1F910F9171
:10515000FF90EF90DF90CF90089580912301909180
:105160002401A0912501B091260180938B03909397
:105170008C03A0938D03B0938E03809121019091B5
:10518000220190938A038093890384E690E09093B0
:10519000220180932101089580918B0390918C03CB
:1051A000A0918D03B0918E038093230190932401ED
:1051B000A0932501B09326018091890390918A03E1
:1051C00090932201809321010895FF920F931F93E2
:1051D000CF93DF93882329F0D0911D05D095D1700E
:1051E00001C0D0E0662341F080911D058695817055
:1051F00091E0F82EF92601C0F12C442341F0C09132
:105200001D05C2FB882780F9C1E0C82701C0C0E0A6
:10521000D11102C0FF2019F0E3EAF6E108C0C11184
:10522000FBCF58C080EF9EE00E945612F8016491B7
:105230008F010F5F1F4F6111F5CFEAE9F6E064912E
:105240008F010F5F1F4F662331F080EF9EE00E94B9
:105250005612F801F4CFDD2371F0E8E9F6E064912D
:105260008F010F5F1F4F662331F080EF9EE00E9499
:105270005612F801F4CFFF2071F0E6E9F6E06491F0
:105280008F010F5F1F4F662331F080EF9EE00E9479
:105290005612F801F4CFCC2319F0E4E9F6E003C08C
:1052A000ECE8F6E00BC06491EF0121966623C1F3B0
:1052B00080EF9EE00E945612FE01F5CF6491EF014F
:1052C0002196662331F080EF9EE00E945612FE0187
:1052D000F5CFC1E08C2FDF91CF911F910F91FF90FF
:1052E0000895BF92CF92DF92EF92FF920F931F9398
:1052F000CF93DF93CDB7DEB728970FB6F894DEBF14
:105300000FBECDBF90914F05981709F47AC0B82E03
:10531000882309F453C080E090E0A0E8B0E48D83D6
:105320009E83AF83B887C0904103D0904203E09042
:105330004303F090440320E030E0A901C701B60127
:105340000E94A9BD87FF0CC0A701960160E070E034
:1053500080E890E40E94CFBC6D837E838F83988722
:1053600020E030E043E053E46D817E818F819885B9
:105370000E94ACBF181644F480E090E0A3E0B3E4D0
:105380008D839E83AF83B8872D813E814F81588561
:1053900060913605709137058091380590913905F7
:1053A0000E94A9BD87FF0AC019821A821B821C8233
:1053B000BE016F5F7F4FCE01059690DE60912E0596
:1053C00070912F0580913005909131052091320523
:1053D00030913305409134055091350519821A8278
:1053E0001B821C82E0903605F0903705009138054D
:1053F00010913905FE0131966F0181DD8B2D0E94E0
:10540000B07380E028960FB6F894DEBF0FBECDBF14
:10541000DF91CF911F910F91FF90EF90DF90CF9090
:10542000BF9008954F925F926F927F928F929F925A
:10543000AF92BF92CF92DF92EF92FF920F931F93A2
:10544000CF93C82FE82EF12CF701ED52F14FB49015
:10545000823021F481E045DF811110C16701CC0C5D
:10546000DD1CCC0CDD1CF601EE51F14F4590559042
:10547000659074906B2DBB0C770B880B990B0E9479
:105480004BBE4B015C0120E030E040EC5FE3C30128
:10549000B2010E94E7BFA50194010E94E7BFAB01E2
:1054A000BC0100E010E098018C2F4BDAC23061F0B3
:1054B000F601EA52F14F85919591A591B491E82FAB
:1054C000792F6A2F8B2F04C0E0E070E060E480E465
:1054D0002E2F372F462F582FC501B4010E94E7BF4A
:1054E0004B015C0120E030E0A9010E94A9BD8823A6
:1054F00009F45DC0C23021F000E010E0980104C062
:1055000000E010E020E830E4B501A40170588C2FD1
:1055100018DAC23009F43AC0F701E153F24F64914E
:1055200061111FC0E3EAF6E164917F018FEFE81A91
:10553000F80A662331F080EF9EE00E945612F701D0
:10554000F3CFEDEAFDE064917F018FEFE81AF80AEE
:10555000662331F080EF9EE00E945612F701F3CFF0
:105560006AE0F601EE5EF04F4590559065907490BC
:1055700070E080E090E00E944BBE9B01AC01C30153
:10558000B2010E94B0BD2B013C0105C0412C512C41
:10559000612C90E4792EA5019401C501B4010E940B
:1055A000D0BCAB01BC01930182018C2FCAD981E030
:1055B00090E00C2E01C0880F0A94EAF790911C0528
:1055C000982B90931C0590911D05892B80931D05A8
:1055D000F601E758FC4F10821182128213828C2F41
:1055E00099DBF601E251F14F85919591A591B49126
:1055F000F601E25DFA4F80839183A283B383C230C8
:10560000D1F42091410330914203409143035091E2
:10561000440360913605709137058091380590916B
:1056200039050E94CFBC609336057093370580938F
:105630003805909339053ED9F601E25EFA4FD6015E
:10564000A25DBA4F8D919D910D90BC91A02D80834C
:105650009183A283B383C23089F480E0CF911F91FC
:105660000F91FF90EF90DF90CF90BF90AF909F9001
:105670008F907F906F905F904F9033CECF911F911E
:105680000F91FF90EF90DF90CF90BF90AF909F90E1
:105690008F907F906F905F904F900895EF92FF9260
:1056A0001F93CF93DF938CE6E82E85E0F82E13E06E
:1056B000C0E0D0E020E030E0A901F701EC0FFD1FD1
:1056C00060817181828193810E94A9BD81110CC08A
:1056D0002496CC30D10571F711508CE0E80EF11C06
:1056E0001111E6CF80E001C081E0DF91CF911F91E1
:1056F000FF90EF900895CF93909110069817C9F0FE
:10570000C82F0E943982C11112C046E355E062E3FE
:1057100075E08EE295E00E94638180E08093100640
:10572000882339F08EE295E0CF910C949F81B6DF0B
:10573000F5CFCF91089580E0DEDF0C94D4743F92D2
:105740004F925F926F927F928F929F92AF92BF9291
:10575000CF92DF92EF92FF920F931F93CF93DF933D
:10576000E82EC62E042F5901682E712CC0E0D0E01F
:10577000842E912C42E0840E911CC615D705E1F0D1
:1057800010E0212F30E081E090E0CA3010F080E09E
:1057900090E0880D991D281739073CF460E280EFEE
:1057A0009EE00E9456121F5FECCFBE0180EF9EE08C
:1057B0000E9400232196E1CF6AE080EF9EE00E94E4
:1057C0005612D12CC0E0D0E010E04801F2E08F0E7C
:1057D000911C3C2ECC16DD0609F452C049E04C1752
:1057E00028F060E280EF9EE00E945612BE0180EF3A
:1057F0009EE00E940023F12CFE14D9F160E280EFBC
:105800009EE00E945612632D8F2DF50109952B0104
:105810003C019B01AC010E9495C0882311F0712CC2
:105820001EC020E030E0A901C301B2010E94ACBF5C
:1058300087FD05C06BE280EF9EE00E945612980142
:10584000B301A20180EF9EE00E94062310C07110F8
:105850000CC060E280EF9EE00E9456127394872D88
:1058600090E0881699069CF702C06DE3F3CFF3949D
:10587000C3CF6AE080EF9EE00E9456122196A9CF26
:105880006AE080EF9EE0DF91CF911F910F91FF9032
:10589000EF90DF90CF90BF90AF909F908F907F90D0
:1058A0006F905F904F903F900C9456129F92AF92E2
:1058B000BF92CF92DF92EF92FF920F931F93CF93FD
:1058C000DF9387E0A82E82E0B82E0EE115E0CEE24D
:1058D000D5E091E6C92E93E0D92E25E8E22E23E00B
:1058E000F22E912CF50181915F010E94761288239E
:1058F00009F10E94CF12F7012081211104C02091EB
:105900005103222339F0288139814A815B810E9429
:10591000D0BC0AC0F3E09F1639F0F6012081318136
:10592000428153810E94CFBCF801608371838283DE
:10593000938309C088819981AA81BB81F801808302
:105940009183A283B38393940C5F1F4F2496F4E05A
:10595000CF0ED11C2FEFE21AF20A84E09812C2CFC8
:1059600086E40E94C3128823C9F00E94CF1220E06F
:1059700030E0A9010E94ACBF181684F40E94CF1237
:1059800020E030E040E752E40E94B0BD6093230184
:10599000709324018093250190932601DF91CF918C
:1059A0001F910F91FF90EF90DF90CF90BF90AF903D
:1059B0009F900895CF92DF92EF92FF920F931F93E3
:1059C000CF93DF930FB6F894C090E50ED090E60E1B
:1059D000E090E70EF090E80E0FBE80915003811129
:1059E00074C080910E01882309F46FC08091300348
:1059F000882309F46AC040912C0350912D036091D3
:105A00002E0370912F0397018601041B150B260BA3
:105A1000370B37FD6DC0833031F134F481300CF435
:105A200054C0E3EAF6E106C0843009F04EC0E3EA70
:105A3000F6E133C06491EF012196662331F080EFE7
:105A40009EE00E945612FE01F5CFE8E5F6E0649173
:105A5000EF012196662309F438C080EF9EE00E9492
:105A60005612FE01F4CFE3EAF6E16491EF012196CC
:105A7000662331F080EF9EE00E945612FE01F5CFC2
:105A8000E1E4F6E06491EF0121966623F1F080EF06
:105A90009EE00E945612FE01F5CF6491EF0121961F
:105AA000662331F080EF9EE00E945612FE01F5CF92
:105AB000E9E2F6E06491EF012196662331F080EF90
:105AC0009EE00E945612FE01F5CF20910E0130E0BB
:105AD000A8EEB3E00E94AABCC60ED71EE81EF91EAF
