:100000000C94D7100C9401110C9401110C94011153
:100010000C9401110C9401110C9401110C94011118
:100020000C9401110C9401110C942FB00C94ACB0F1
:100030000C9401110C9401110C9401110C940111F8
:100040000C9401110C94C9850C9401110C940111AC
:100050000C9401110C9401110C94089D0C948EAF1A
:100060000C9401110C9401110C9401110C940111C8
:100070000C9401110C9401110C9401110C940111B8
:100080000C9401110C9401110C9401110C940111A8
:100090000C941BAA0C9401111DAD49AD6BAD6BAD59
:1000A0006BAD6BAD6BAD6BAD6BAD6BAD6BAD6BAD90
:1000B0006BAD6BAD61AD59AD51AD6BAD6BAD6BADB6
:1000C0006BAD6BAD6BAD6BAD43AD29AD31AD3BAD44
:1000D000084AD73B3BCE016E84BCBFFDC12F3D6CAF
:1000E00074319ABD56833DDA3D00C77F11BED9E415
:1000F000BB4C3E916BAAAABE000000803F05A84CF5
:10010000CDB2D44EB93836A9020C50B991868808C0
:100110003CA6AAAA2ABE000000803F004E414E49DC
:100120004E495459494E46CDCCCC3D0AD7233C17B5
:10013000B7D13877CC2B329595E6241FB14F0A0002
:100140000020410000C84200401C4620BCBE4CCAF2
:100150001B0E5AAEC59D742020506C616E6E657288
:1001600042756666657242797465733A200020466E
:10017000726565204D656D6F72793A2000436F6D31
:1001800070696C65643A204D6172202032203230F3
:1001900031390A00207C20417574686F723A20283A
:1001A00044722E5068696C3344290A003230313869
:1001B0002D30382D303100204C617374205570641F
:1001C000617465643A2000312E312E390A004D6188
:1001D000726C696E0020536F66747761726520528D
:1001E000657365740A00205761746368646F6720E3
:1001F00052657365740A002042726F776E206F75C6
:10020000742052657365740A002045787465726EB7
:10021000616C2052657365740A00506F7765725582
:10022000700A0073746172740A005072696E7465AA
:10023000722068616C7465642E206B696C6C28296F
:100240002063616C6C6564210A004B494C4C454449
:100250002E20004B494C4C2063617573656420620D
:100260007920746F6F206D75636820696E616374A7
:100270006976652074696D65202D206375727265DD
:100280006E7420636F6D6D616E643A200020746F30
:100290006F206C6F6E6720657874727573696F6E0E
:1002A0002070726576656E7465640A0020636F6CF9
:1002B0006420657874727573696F6E2070726576EC
:1002C000656E7465640A006F6B00526573656E64D9
:1002D0003A20003A004361703A0000011C1D132FC0
:1002E000FFFFFFFF1E1F12FF18FFFFFF2021112439
:1002F000FFFFFFFFFFFFFF0E10FFFFFF22230DFF99
:10030000FFFF0E260F2C2741637469766520457820
:100310007472756465723A200020453A00205A3A9A
:100320000020593A00583A002C20002C2000627519
:1003300073793A2070617573656420666F72206905
:100340006E7075740A00627573793A207061757306
:10035000656420666F7220757365720A006275733A
:10036000793A2070726F63657373696E670A005023
:10037000726F62696E67206661696C65640A00204D
:100380005A3A200020593A200042656420583A2009
:10039000002066697273740A005A005900580048B8
:1003A0006F6D65200020496E76616C696420657808
:1003B0007472756465722000656E71756575656926
:1003C0006E67202200496E76616C696420657874DE
:1003D00072756465720A004E6F2063617365206CEC
:1003E000696768740A00416476616E6365204B3DFD
:1003F000003F4B2076616C7565206F7574206F66C9
:100400002072616E67652028302D3130292E0A0058
:1004100020595A3A200020585A3A2000536B6577E9
:1004200020466163746F722058593A20006D696EDE
:100430005F736B65775F666163746F723A20202D1E
:1004400031206D61785F736B65775F666163746F90
:10045000723A2020310A003A200050726F62652003
:100460005A204F6666736574003F5A206F7574207A
:100470006F662072616E676520282D332E352074DB
:100480006F203230290A00454550524F4D204F4BC6
:100490000A00546F6F206661722066726F6D207261
:1004A00065666572656E636520706F696E740A00BB
:1004B000426564204C6576656C696E672000466114
:1004C000696C656420746F20656E61626C652042A2
:1004D0006564204C6576656C696E670A00426564E8
:1004E000204C6576656C20436F7272656374696F2A
:1004F0006E204D61747269783A0043290A00616286
:100500006C656420286D696E2074656D70200043F1
:100510006F6C6420657874727564657320617265B0
:100520002000496E76616C69642065787472756428
:1005300065720A0020643A0020693A0020703A008F
:1005400050726F6265205A204F66667365743A2058
:100550000020466C6F773A2000205A00205900583E
:100560000020204D61783A2000205A002059005880
:100570000020204D696E3A20004F6666004F6E20C5
:1005800000536F667420656E6473746F70733A20E5
:1005900000205400205200416363656C65726174F1
:1005A000696F6E3A2050002F2F2000544845524D5D
:1005B000414C5F50524F54454354494F4E004155B2
:1005C000544F5245504F52545F53445F535441541B
:1005D000555300454D455247454E43595F50415292
:1005E00053455200434153455F4C494748545F428D
:1005F00052494748544E45535300544F47474C4582
:100600005F4C494748545300534F46545741524555
:100610005F504F574552004255494C445F50455238
:1006200043454E54004C4556454C494E475F444166
:100630005441005A5F50524F4245004155544F4C6F
:100640004556454C005052494E545F4A4F42005067
:10065000524F4752455353004155544F5245504F06
:1006600052545F54454D5000564F4C554D455452D1
:10067000494300454550524F4D0053455249414C66
:100680005F584F4E5F584F4646004649524D5741BE
:1006900052455F4E414D453A4D61726C696E203155
:1006A0002E312E3920284769746875622920534FEE
:1006B000555243455F434F44455F55524C3A687429
:1006C0007470733A2F2F6769746875622E636F6D4B
:1006D0002F4D61726C696E4669726D776172652F1C
:1006E0004D61726C696E2050524F544F434F4C5FB6
:1006F00056455253494F4E3A312E30204D414348D2
:10070000494E455F545950453A5072696E74726251
:100710006F7420506C617920537570657220592078
:1007200045585452554445525F434F554E543A3103
:1007300020555549443A34306365363164312D32A1
:100740006564302D343533302D383330342D353524
:10075000653365656161656266660A004D313133F6
:100760002053006F66660044454255473A0099079A
:1007700094078D0786077807434F4D4D554E4943E3
:100780004154494F4E0044525952554E0045525221
:100790004F525300494E464F004543484F002057A3
:1007A0003A0020573A004B494C4C45442E20006FEC
:1007B0006B005374616E6461726420446576696194
:1007C00074696F6E3A20002052616E67653A2000AE
:1007D000204D61783A2000204D696E3A20004D6529
:1007E000616E3A200046696E6973686564210A008B
:1007F0002072616E67653A2000206D61783A2000B2
:10080000206D696E3A2000207369676D613A20009F
:10081000206D65616E3A20003A207A3A2000206F00
:10082000662000205A00205900205800476F696E4A
:100830006720746F3A00436C6F636B776973650A66
:1008400000436F756E7465722D0020446972656394
:1008500074696F6E3A2000202020616E676C653AE3
:1008600020005374617274696E67207261646975E7
:10087000733A2000506F736974696F6E696E6720F8
:100880007468652070726F62652E2E2E0A003F4ECE
:10089000756D626572206F66206C65677320696E86
:1008A000206D6F76656D656E74206E6F7420706C50
:1008B00061757369626C652028302D3135292E0AE7
:1008C000003F2028582C5929206F7574206F66200E
:1008D000626F756E64732E0A003F53616D706C65B4
:1008E0002073697A65206E6F7420706C617573690E
:1008F000626C652028342D3530292E0A004D34389D
:10090000205A2D50726F6265205265706561746166
:1009100062696C69747920546573740A003F2856C3
:10092000296572626F7365206C6576656C206973EA
:1009300020696D706C61757369626C652028302D5B
:1009400034292E0A0050726F7465637465642050F8
:10095000696E0A005072696E742074696D653A2080
:1009600000205A3A200020593A200042656420585D
:100970003A20004731205A3130204637303030009D
:100980000A0A426564204C6576656C20436F72727A
:10099000656374696F6E204D61747269783A0020E6
:1009A0002B000A436F72726563746564204265644C
:1009B000204865696768742076732E20426564203C
:1009C000546F706F6C6F67793A0A00202B000A42EF
:1009D00065642048656967687420546F706F67723A
:1009E000617068793A0A2020202B2D2D2D2042415C
:1009F000434B202D2D2B0A2020207C20202020203E
:100A00002020202020207C0A204C207C2020202018
:100A1000282B29202020207C20520A2045207C20C1
:100A2000202020202020202020207C20490A204631
:100A3000207C20282D29204E20282B29207C20476F
:100A40000A2054207C20202020202020202020202C
:100A50007C20480A2020207C20202020282D2920AE
:100A60002020207C20540A2020207C2020202020B0
:100A70002020202020207C0A2020204F2D2D2046C1
:100A8000524F4E54202D2D2B0A2028302C30290A6D
:100A9000004D65616E206F662073616D706C6564DA
:100AA00020706F696E74733A200020643A20002031
:100AB000623A200045716E20636F656666696369FE
:100AC000656E74733A20613A2000202844525952CE
:100AD000554E2900473239204175746F20426564B4
:100AE000204C6576656C696E67003F20284C2C525F
:100AF0002C462C4229206F7574206F6620626F751A
:100B00006E64732E0A003F50726F626520706F69C9
:100B10006E74732028592920697320696D706C6187
:100B2000757369626C652028322D32292E0A003FC8
:100B300050726F626520706F696E74732028582937
:100B400020697320696D706C61757369626C6520D2
:100B500028322D32292E0A003F2856296572626FED
:100B60007365206C6576656C20697320696D706CA7
:100B700061757369626C652028302D34292E0A0056
:100B8000486F6D652058592066697273740A004772
:100B9000322F47332062616420706172616D657429
:100BA0006572730A005761726E696E673A20486F0A
:100BB0006D696E672042756D702044697669736F48
:100BC00072203C20310A000202044B494C4C45443F
:100BD0002E20005072696E7465722073746F70708D
:100BE00065642064756520746F206572726F72731E
:100BF0002E2046697820746865206572726F7220B5
:100C0000616E6420757365204D39393920746F2009
:100C1000726573746172742E202854656D706572EC
:100C200061747572652069732072657365742E2016
:100C300053657420697420616674657220726573EF
:100C400074617274696E67290A004E6F204368658B
:100C5000636B73756D2077697468206C696E6520AD
:100C60006E756D6265722C204C617374204C696ED8
:100C7000653A2000636865636B73756D206D6973F9
:100C80006D617463682C204C617374204C696E65CF
:100C90003A20004C696E65204E756D626572206960
:100CA00073206E6F74204C617374204C696E6520E4
:100CB0004E756D6265722B312C204C617374204C23
:100CC000696E653A20004D31313000FF01FF0000B0
:100CD000A0400000A040000000400000C84200000A
:100CE000974300000343000000000000964300000B
:100CF00000000000C84200009643000003430000CB
:100D00000000000000C00000000000004842000099
:100D100048420000804000000000256973002569FA
:100D20006D20256973002569682025696D20256976
:100D30007300256964202569682025696D2025696F
:100D40007300256979202569642025696820256953
:100D50006D202569730020204D393030204B004C28
:100D6000696E65617220416476616E63653A0A005E
:100D7000204B00204A0020204D38353220490053B6
:100D80006B657720466163746F723A200A002020F9
:100D90004D383531205A005A2D50726F6265204F00
:100DA00066667365740020440020490020204D339E
:100DB00030312050005049442073657474696E6767
:100DC000733A0A0020204D343230205300417574AC
:100DD0006F20426564204C6576656C696E673A0ADF
:100DE00000205A0020590020204D32303620580073
:100DF000486F6D65206F66667365743A0A0020451A
:100E000000205A0020590020580020540020530090
:100E100020204D32303520510020453C6D61785FF7
:100E2000655F6A65726B3E0020583C6D61785F7843
:100E30005F6A65726B3E20593C6D61785F795F6ACD
:100E400065726B3E205A3C6D61785F7A5F6A6572AD
:100E50006B3E00416476616E6365643A20513C6D7F
:100E6000696E5F7365676D656E745F74696D655FEC
:100E700075733E20533C6D696E5F66656564726193
:100E800074653E20543C6D696E5F74726176656C6A
:100E90005F66656564726174653E0020540020528F
:100EA0000020204D323034205000416363656C6572
:100EB000726174696F6E2028756E6974732F733256
:100EC000293A20503C7072696E745F616363656C8F
:100ED0003E20523C726574726163745F6163636546
:100EE0006C3E20543C74726176656C5F616363652F
:100EF0006C3E0A00204500205A0020590020204D59
:100F00003230312058004D6178696D756D20416334
:100F100063656C65726174696F6E2028756E6974A3
:100F2000732F7332293A0A00204500205A002059B5
:100F30000020204D3230332058004D6178696D75A6
:100F40006D206665656472617465732028756E69CD
:100F500074732F73293A0A00204500205A00205943
:100F60000020204D39322058005374657073207072
:100F7000657220756E69743A0A0020204D32303057
:100F80002044300A0020204D3230302044002044DC
:100F9000697361626C65640A0046696C616D656EB7
:100FA000742073657474696E67733A002020473249
:100FB00031202020203B0048617264636F646564C7
:100FC0002044656661756C742053657474696E673E
:100FD00073204C6F616465640A00DC050000DC0569
:100FE000000064000000102700000000FA4200002A
:100FF000FA4200000041000020420000A042000030
:10100000A0420080FC440000BD42290A0020627911
:101010007465733B2063726320002073746F726584
:10102000642073657474696E677320726574726985
:1010300065766564202800202863616C63756C61A7
:1010400074656429210A0020213D20004545505245
:101050004F4D20435243206D69736D617463682066
:101060002D202873746F7265642920002053697ADB
:10107000653A2000496E6465783A2000204D61721F
:101080006C696E3D563535290A0028454550524F4A
:101090004D3D00454550524F4D2076657273696F46
:1010A0006E206D69736D617463682000290A0020E9
:1010B00062797465733B20637263200053657474B6
:1010C000696E67732053746F72656420280045450C
:1010D00050524F4D206461746173697A6520657266
:1010E000726F722E0A004572726F72207772697485
:1010F000696E6720746F20454550524F4D210A009C
:101100003A0A0020286D6D29006F70656E005452F8
:1011100049474745524544003A20007A5F6D696E61
:1011200000795F6D617800785F6D696E005265705F
:101130006F7274696E6720656E6473746F7020736C
:1011400074617475730A00205A3A0020593A0020DD
:10115000583A00656E6473746F7073206869743AEE
:101160002000486F6D696E67206661696C65640078
:10117000556E6B6E6F776E20636F6D6D616E643A46
:1011800020220020746F6F206C6F6E67206578746A
:10119000727573696F6E2070726576656E746564C2
:1011A0000A0020636F6C6420657874727573696FD0
:1011B0006E2070726576656E7465640A00FFFDFCD2
:1011C000FAF8F6F4F2F0EEECEAE9E7E5E3E1E0DE66
:1011D000DCDAD9D7D5D4D2D0CFCDCBCAC8C7C5C316
:1011E000C2C0BFBDBCBAB9B7B6B4B3B2B0AFADAC94
:1011F000AAA9A8A6A5A4A2A1A09E9D9C9A999897E9
:1012000095949392908F8E8D8B8A8988878684831C
:101210008281807F7E7D7B7A797877767574737230
:1012200071706F6E6D6C6B6A696867666564636226
:1012300061605F5E5D5C5B5A595858575655545310
:10124000525150504F4E4D4C4B4A4A4948474646E2
:10125000454443424241403F3E3E3D3C3B3B3A39A0
:10126000383837363535343332323130302F2E2E50
:101270002D2C2B2B2A2929282727262525242323F3
:1012800022212120201F1E1E1D1C1C1B1B1A191988
:101290001818171616151514131312121111100F12
:1012A0000F0E0E0D0D0C0C0B0A0A09090808070792
:1012B0000606050504040303020201000000000005
:1012C000010000000100008000555555000000405D
:1012D0000033333300AAAA2A0049922400000020D8
:1012E00000C7711C0099991900D145170055551573
:1012F000003BB1130024491200111111000000102D
:10130000000F0F0F00E3380E0043790D00CCCC0C1A
:1013100000C3300C00E8A20B0064210B00AAAA0A4B
:1013200000703D0A009DD80900427B090092240903
:1013300000DCD3080088880800104208000000087C
:1013400000F0C107008787070075500700711C0770
:10135000003EEB0600A1BC0600699006006666062A
:1013600000703E06006118060017F4050074D105F0
:10137000005BB00500B2900500627205005555058E
:101380000078390500B81E0500050505004EEC047F
:101390000087D40400A1BD040090A7040049920472
:1013A00000C17D0400EE690400C7560400444404F3
:1013B000005C320400082104004110040000000415
:1013C000003FF00300F8E0030026D20300C3C3038C
:1013D00000CCB503003AA803000A9B0300388E0333
:1013E00000C08103009F750300D0690300505E03B5
:1013F000001D53030034480300913D0300333303C1
:101400000016290300381F030097150300300C0352
:1014100000030303000BFA020049F10200BAE802DC
:10142000005CE002002DD802002DD0020059C80255
:1014300000B0C0020031B90200DAB10200AAAA026B
:1014400000A0A30200BC9C0200FA9502005C8F027F
:1014500000DF88020082820200457C0200277602BB
:101460000027700200436A02007C640200D05E0222
:10147000003F590200C85302006563686F3A004597
:1014800072726F723A00205A3A0020593A00204393
:101490006F756E7420583A00232C0000B8220000AB
:1014A000561800003A0F0000B8080000B104000010
:1014B000710200003E01000024F4D43050C38E209D
:1014C000C2A24017828B7011127A910D816CD90AD9
:1014D000A861E108C7586607615143061E4B5D05C8
:1014E000C145A7041A411104093D9803713931031C
:1014F0004036DB0265339102D4305402802E1D0247
:10150000632CEE01752AC501B028A00110278101C6
:101510008F2564012B244B01E0223401AC211F01F3
:101520008D200D01801FFC00841EED00971DDF0043
:10153000B81CD200E61BC600201BBC00641AB20017
:10154000B219A8000A19A0006A189900D1179100D1
:1015500040178B00B516840031167E00B315790054
:101560003A157300C7146F0058146A00EE13660032
:101570008813630025135E00C7125B006C125700CE
:1015800015125400C111510070114F0021114B0070
:10159000D61049008D10470046104400021042004A
:1015A000C00F4000800F3E00420F3C00060F3B0082
:1015B000CB0E3800930E37005C0E3500270E34003A
:1015C000F30D3200C10D3100900D3000600D2E0082
:1015D000320D2D00050D2C00D90C2B00AE0C29006E
:1015E000850C29005C0C2700350C27000E0C26000A
:1015F000E80B2400C40B2400A00B23007D0B230068
:101600005A0B2100390B2100180B2000F80A1F008B
:10161000D90A1E00BB0A1E009D0A1D00800A1D007B
:10162000630A1C00470A1B002C0A1B00110A1A003F
:10163000F7091A00DD091900C4091900AB091900DE
:10164000920917007B091800630917004C0916005E
:1016500036091600200916000A091500F5081500BC
:10166000E0081400CC081400B8081400A408140002
:10167000900813007D0812006B0813005808120030
:101680004608120034081100230811001208110046
:1016900001081100F0071000E0071000D00710004B
:1016A000C0071000B0070F00A107100091070E003F
:1016B00083070F0074070F0065070E0057070E0021
:1016C00049070E003B070D002E070E0020070D00F6
:1016D00013070D0006070D00F9060C00ED060D00BE
:1016E000E0060C00D4060C00C8060C00BC060C007A
:1016F000B0060C00A4060B0099060C008D060B002A
:1017000082060B0077060B006C060B0061060A00D0
:1017100057060B004C060A0042060A0038060A006B
:101720002E060A0024060A001A060A0010060900FE
:1017300007060A00FD050900F4050900EB0509008C
:10174000E2050900D9050900D0050900C70509000F
:10175000BE050900B5050800AD050800A50509008E
:101760009C050800940508008C0508008405080005
:101770007C050800740508006C0507006505080075
:101780005D050700560508004E05070047050700E0
:101790004005080038050700310507002A05070045
:1017A000230507001C050600160507000F050700A6
:1017B0000805060002050700FB040600F504070003
:1017C000EE040600E8040600E2040700DB0406005D
:1017D000D5040600CF040600C9040600C3040600B1
:1017E000BD040600B7040600B1040500AC04060001
:1017F000A6040600A00405009B040600950405004D
:10180000900406008A040500850405008004060093
:101810007A04050075040500700405006B040500DA
:1018200066040500610405005C040500570405001A
:10183000520405004D04050048040500430405005A
:101840003E0404003A040500350405003004040099
:101850002C04050027040400230405001E040400D2
:101860001A04040016040500110404000D04040009
:10187000090405000404040000040400FC0304003F
:10188000F8030400F4030400F0030400EC03040074
:10189000E8030400E4030400E0030400DC030400A4
:1018A000D8030400D4030400D0030400CC030400D4
:1018B000C8030300C503030024F404D9201BC40C8F
:1018C0005C0E9804C4095F0265077101F405F90014
:1018D000FB04B30048048700C103690058035500A6
:1018E00003034500BE023A008402310053022A007D
:1018F0002902250004022000E4011C00C80119008F
:10190000AF01170098011400840113007101100049
:101910006101100051010E0043010D0036010B0062
:101920002B010B0020010B00150109000C0109001F
:1019300003010800FB000800F3000800EB000700AB
:10194000E4000600DE000600D8000600D200060013
:10195000CC000500C7000500C2000500BD00040062
:10196000B9000400B5000400B1000400AD0004009B
:10197000A9000400A5000300A20003009F000400CA
:101980009B000300980003009500020093000300F1
:10199000900003008D0002008B000300880002000D
:1019A0008600020084000300810002007F00020024
:1019B0007D0002007B000200790002007700010038
:1019C0007600020074000200720001007100020043
:1019D0006F0002006D0001006C0002006A0001004F
:1019E0006900020067000100660001006500010057
:1019F000640002006200010061000100600001005B
:101A00005F0002005D0001005C0001005B0001005E
:101A10005A00010059000100580001005700010060
:101A20005600010055000100540001005300000061
:101A3000530001005200010051000100500001005C
:101A40004F0001004E0000004E0001004D0001005B
:101A50004C0001004B0000004B0001004A00010057
:101A60004900010048000000480001004700010053
:101A7000460000004600010045000000450001004E
:101A80004400010043000000430001004200000048
:101A9000420001004100000041000100400001003F
:101AA0003F0000003F0001003E0000003E0001003A
:101AB0003D0000003D0001003C0000003C00000033
:101AC0003C0001003B0000003B0001003A00000028
:101AD0003A00010039000000390001003800000020
:101AE0003800000038000100370000003700010016
:101AF000360000003600000036000100350000000E
:101B00003500000035000100340000003400000002
:101B100034000100330000003300000033000100F6
:101B200032000000320000003200010031000000ED
:101B300031000000310001003000000030000000E2
:101B4000300001002F0000002F0000002F000000D7
:101B50002F0001002E0000002E0000002E000100CA
:101B60002D0000002D0000002D0000002D000100C0
:101B70002C0000002C0000002C0000002C000100B4
:101B80002B0000002B0000002B0000002B000100A8
:101B90002A0000002A0000002A0000002A0001009C
:101BA0002900000029000000290000002900000091
:101BB0002900010028000000280000002800000083
:101BC0002800000028000100270000002700000076
:101BD0002700000027000000270001002600000069
:101BE000260000002600000026000000260001005C
:101BF0002500000025000000250000002500000051
:101C00002500000025000100240000002400000041
:101C10002400000024000000240001002300000034
:101C20002300000023000000230000002300000028
:101C30002300000023000100220000002200000019
:101C4000220000002200000022000000220001000B
:101C50002100000021000000210000002100000000
:101C600021000000210000002100010020000000F0
:101C700020000000200000002000000020000000E4
:101C80002000000020000000200001001F000000D4
:101C90001F0000001F0000001F0000001F000000C8
:101CA0001F0000001F0001001E0000001E000000B9
:101CB0001E0000001E000000290A00202800292024
:101CC000453A0020280029205A3A002028002920DF
:101CD000593A0020280020583A0053746570706506
:101CE000722063757272656E742076616C756573AF
:101CF00020696E20252028416D7073293A0A002042
:101D000042403A0020403A00202F00546865726D2E
:101D1000616C2052756E61776179004531205448BD
:101D200045524D414C2052554E4157415900424574
:101D30004420544845524D414C2052554E41574144
:101D400059004B494C4C45442E2000202D20496E13
:101D500076616C6964206578747275646572206E52
:101D6000756D62657220210A0048656174696E674D
:101D7000206661696C656400426564206865617411
:101D8000696E67206661696C6564004865617469A5
:101D90006E67206661696C65640045312048656145
:101DA00074696E67206661696C6564004D494E54C4
:101DB000454D5020747269676765726564004531EE
:101DC000204572723A204D494E54454D500045729F
:101DD000723A204D494E54454D5020424544004DE5
:101DE000415854454D502074726967676572656447
:101DF000004531204572723A204D415854454D50AE
:101E0000004572723A204D415854454D502042458C
:101E100044006265640A002C2073797374656D2038
:101E200073746F7070656421204865617465725FBA
:101E300049443A20002CFFFFFFFFFF000101010190
:101E40000123646566696E652044454641554C54DE
:101E50005F4B64200023646566696E6520444546D7
:101E600041554C545F4B69200023646566696E657B
:101E70002044454641554C545F4B70200050494426
:101E8000204175746F74756E652066696E6973683C
:101E90006564212050757420746865206C617374CA
:101EA000204B702C204B6920616E64204B642063B2
:101EB0006F6E7374616E74732066726F6D206265ED
:101EC0006C6F7720696E746F20436F6E66696775FB
:101ED000726174696F6E2E680A0050494420417522
:101EE000746F74756E65206661696C656421207419
:101EF000696D656F75740A00546865726D616C2058
:101F000052756E6177617900453120544845524DD4
:101F1000414C2052554E4157415900486561746902
:101F20006E67206661696C656400453120486561B3
:101F300074696E67206661696C656400504944206D
:101F40004175746F74756E65206661696C65642196
:101F50002054656D706572617475726520746F6F61
:101F600020686967680A00204B643A2000204B69AA
:101F70003A2000204B703A20000A20436C617373B2
:101F8000696320504944200A002054753A200020FB
:101F90004B753A2000206D61783A2000206D696E03
:101FA0003A200020643A200020626961733A2000E0
:101FB000504944204175746F74756E652073746167
:101FC00072740A00504944204175746F74756E65CF
:101FD000206661696C6564212042616420657874C3
:101FE0007275646572206E756D6265720A0010000C
:101FF000C90210012C014001220170011801B00139
:102000000E01F00104015002FA00B002F0003003AA
:10201000E600D003DC009004D2007005C800A006E2
:10202000BE000008B400B009AA00D00BA000600EEA
:10203000960060118C000015820020197800C01DE8
:102040006E00A0226400B0275A00902C500000318E
:102050004600E0343C0010383200903A2800603CE2
:102060001E00A03D1400803E0A00203F0000012910
:102070000229042908291029202940298029012C16
:10208000022C012602260426082610262026402699
:102090008026402C802C01230223042308231023B4
:1020A0002023402380230120022004200820102028
:1020B000202040208020102C202C012F022F042FC4
:1020C000082F102F202F402F802F7EFE7EFD7EFBBD
:1020D0007EF77EEF7EDF7EBF7E7F000100008B21DA
:1020E00012000200004821430003000044210401C3
:1020F0000309042A21180203090412211603030903
:102100000404210C0C03310032003300340035008C
:1021100000001603550053004200200053006500E4
:102120007200690061006C00000018035400650033
:1021300065006E00730079006400750069006E0030
:102140006F0000000403090409024300020100C0FB
:1021500032090400000102020100052400100105FB
:10216000240100010424020605240600010705825B
:102170000308004009040100020A000000070503EB
:102180000240000007058402400000120100020224
:10219000000020C01683047202010203010001C185
:1021A00002018036018136006A8439A9F9B311240D
:1021B0001FBECFEFD0E2DEBFCDBF12E0A0E0B1E0A6
:1021C000EEE3F0E801E00BBF02C007900D92A233EE
:1021D000B107D9F72EE0A2E3B2E001C01D92A73407
:1021E000B207E1F710E1C7EDD0E104C02197FE018D
:1021F0000E946EB4C43DD107C9F70E94AFAC0C94E5
:102200001DC00C9400004F925F926F927F928F924C
:102210009F92AF92BF92CF92DF92EF92FF92CF93B5
:102220004B015C0169017A0120E030E040EA51E4B1
:102230000E9490B42B013C012FE632E143E85AEBB7
:102240000E946DB787FD48C023E830E048EC52E4B7
:10225000C301B2010E946AB518160CF43DC022E613
:1022600030E140E050ECC701B6010E946DB787FD38
:1022700033C021E230E046E953E4C701B6010E94D1
:102280006AB518164CF124EF3DEF4FE951E4C50152
:10229000B4010E946DB787FD1FC023E830E044EB16
:1022A00052E4C501B4010E946AB51816ACF027EEDD
:1022B0003BEF4FE151E4C701B6010E946DB787FDC6
:1022C0000BC0C1E021E230E041E953E4C701B601AF
:1022D0000E946AB518160CF4C0E08C2FCF91FF90C5
:1022E000EF90DF90CF90BF90AF909F908F907F90B6
:1022F0006F905F904F9008950C94C1ABCF93DF9394
:102300001F92CDB7DEB76983DC01ED91FC910280AD
:10231000F381E02D41E050E0BE016F5F7F4F0995F2
:102320000F90DF91CF910895FF920F931F93CF935A
:10233000DF93F82E092F162FE5EDF2E06491EF01FF
:102340002196662329F08BE39EE0D8DFFE01F6CFCD
:10235000EF2DF02F6491EF012196662329F08BE396
:102360009EE0CCDFFE01F6CFE3EDF2E06491EF01F9
:102370002196662329F08BE39EE0C0DFFE01F6CFB5
:10238000412F50E060E070E08BE39EE00E94B4AB30
:102390006AE08BE39EE0DF91CF911F910F91FF9058
:1023A000ADCF0FB6F8948091300E9091310EA09180
:1023B000320EB091330E0FBE8093B1029093B202F1
:1023C000A093B302B093B40208952F923F924F921C
:1023D0005F926F927F928F929F92AF92BF92CF92B5
:1023E000DF92EF92FF920F931F93CF93DF93EB0156
:1023F000FC0180809180A280B380C501B40120E8F7
:1024000031E541E050E00E9430B4C9016DE671E071
:102410000E941CB46B017C01C501B40120E13EE0C7
:1024200040E050E00E9430B4CA01B90128E130E038
:1024300040E050E00E9430B4362E272E062F172F92
:102440008CE3482E512C612C712CC501B401A301E1
:1024500092010E9430B4B62EA72ECA01B901A30181
:1024600092010E9430B4CB01C114D104D9F0AF92D3
:10247000BF927F936F932F923F92FF92EF92DF92E2
:10248000CF9282E49DE09F938F93DF93CF930E943E
:1024900021BD8DB79EB70E960FB6F8949EBF0FBEA6
:1024A0008DBF5CC0E114F104C9F0AF92BF927F937D
:1024B0006F932F923F92FF92EF9282E39DE09F9362
:1024C0008F93DF93CF930E9421BDEDB7FEB73C966B
:1024D0000FB6F894FEBF0FBEEDBF40C0012BB9F0A0
:1024E000AF92BF927F936F932F923F9286E29DE0CF
:1024F0009F938F93DF93CF930E9421BD8DB79EB79B
:102500000A960FB6F8949EBF0FBE8DBF27C0892BC9
:10251000A9F0AF92BF927F936F938EE19DE09F935E
:102520008F93DF93CF930E9421BDEDB7FEB738960E
:102530000FB6F894FEBF0FBEEDBF10C0AF92BF92B2
:102540008AE19DE09F938F93DF93CF930E9421BDFB
:102550000F900F900F900F900F900F90DF91CF91F1
:102560001F910F91FF90EF90DF90CF90BF90AF90B1
:102570009F908F907F906F905F904F903F902F90A3
:10258000089581548A3108F041C0E82FF0E040916D
:10259000D1045091D2046091D3047091D40404C04A
:1025A00076956795579547958A95D2F7842F8170D0
:1025B00040FF33C0E954FB4F9081992301F1E09132
:1025C000DC04F091DD04E90FF11D908120ED290F6D
:1025D0002A3080F09E3229F4918190539A3078F419
:1025E00009C09D3211F09B3251F4918120ED290FE9
:1025F0002A3018F42E2F9F2F04C09E3249F020E07D
:1026000090E02093D8049093D904089580E0089531
:10261000928190539A3098F7EDCF0895B2DF8823D6
:1026200041F081E02091D8043091D904232B09F4A2
:1026300080E008950F931F93CF938091D8049091D9
:10264000D904009711F1FC018F01C1912C2F2F7D2E
:10265000A9F0C53411F0C536B9F7F801108260E071
:1026600070E08091D8049091D9040E940EB9F801CD
:10267000C083562F472F382F292F0BC060E070E002
:10268000CF911F910F910C940EB950E040E030E0D3
:1026900020E0652F742F832F922FCF911F910F91E0
:1026A00008958091D8049091D904009731F04AE0C0
:1026B00050E060E070E00C9461BA60E070E0CB0143
:1026C00008958091D8049091D904009731F04AE0A0
:1026D00050E060E070E00C948CBB60E070E0CB01F7
:1026E0000895DFDF97FD0AC0DCDF6F3F71058105CC
:1026F000910509F02CF4D5DF862F089580E0089528
:102700008FEF08958091D8049091D904892B31F0EE
:10271000E8DF91E0811103C090E001C091E0892FD2
:1027200008950F931F93CF93DF93CDB7DEB72C9708
:102730000FB6F894DEBF0FBECDBFE5E9F4E08085AB
:102740009185A285B3854481558166817781008119
:1027500011812281338109871A872B873C874D831A
:102760005E836F83788789839A83AB83BC83AE0152
:102770004F5F5F4FBE016B5F7F4FCE0109960E9496
:102780003B7221EA34E0AE014F5F5F4FBE016B5FE9
:102790007F4FCE0109960E942B822C960FB6F8949B
:1027A000DEBF0FBECDBFDF91CF911F910F91089576
:1027B0002F923F924F925F926F927F929F92AF9231
:1027C000BF92CF92DF92EF92FF920F931F93CF931E
:1027D000DF93CDB7DEB764970FB6F894DEBF0FBEB8
:1027E000CDBF1A012B01922EF32EC82ED12CF6014B
:1027F000E553F34FE491AA24A3941E160CF4A12CE4
:10280000BB24B39420E030E0A901C201B1010E94D1
:102810006DB718160CF0B12CCC0CDD1CCC0CDD1CEB
:10282000C6018B569B4F3C01FC0110821182128223
:10283000138277DFF3012082318242825382E0905B
:10284000B90220E030E0A901B801892D9F2D0E9436
:102850006AB581110AC0F601E65FF24F8591959144
:10286000A591B4918C019A2EFB2EC801A92DBF2DE4
:10287000898B9A8BAB8BBC8B80919D0490919E042D
:10288000A0919F04B091A0044091990450919A04A2
:1028900060919B0470919C040091950410919604A2
:1028A00020919704309198040D871E872F87388BCD
:1028B00049875A876B877C878D839E83AF83B887D0
:1028C00019821A821B821C82AE014B5F5F4FBE01D0
:1028D000675F7F4FCE010D960E943B72CE0101963D
:1028E0006C018E010F5E1F4F21EA34E0AE014B5F99
:1028F0005F4FBE01675F7F4F0C960E9449810E9427
:102900004D75AB100E94E76464960FB6F894DEBF75
:102910000FBECDBFDF91CF911F910F91FF90EF9030
:10292000DF90CF90BF90AF909F907F906F905F901F
:102930004F903F902F90089561EA74E083E00C94EB
:102940005083CF93DF9300D0CDB7DEB720912D0E0B
:1029500030912E0ECE0101962115310529F48754B0
:102960009E409A83898304C0821B930B9A83898338
:1029700089819A810F900F90DF91CF910895FF92F6
:102980000F931F93CF93DF93FC0120812B3319F119
:10299000D0917A04D430F8F4F62EBC01C0917804BA
:1029A0000C2F10E0F0E6CF9FC001112488509D4FFE
:1029B0000E9401BDF801E856FD4FF082CF5FC430A0
:1029C00018F4C093780402C010927804DF5FD093AB
:1029D0007A0481E001C080E0DF91CF911F910F91D7
:1029E000FF900895EF92FF921F93CF93DF937C01A6
:1029F00060E0C5DF182F8823C9F0E9E7F4E16491AE
:102A0000EF012196662329F08BE39EE077DCFE013F
:102A1000F6CFB70188EB93E00E94ED8462E28BE38E
:102A20009EE06CDC6AE08BE39EE068DC812FDF9146
:102A3000CF911F91FF90EF900895DF92EF92FF9258
:102A40000F931F93CF93DF93CDB7DEB76E970FB67B
:102A5000F894DEBF0FBECDBF6091F6027091F70211
:102A60006115710541F14DE150E0CE0101967C0107
:102A70000E94B7BC1E8EF7018F010E191F09D1905D
:102A8000DD2019F09AE0D912F7CFF701E00FF11F1E
:102A90001082C701A7DF882371F0DD20A9F00F5F46
:102AA0001F4F8091F6029091F702080F191F1093A3
:102AB000F7020093F60281E02091F6023091F702CE
:102AC000232B29F480E003C000E010E0F0CF6E96E5
:102AD0000FB6F894DEBF0FBECDBFDF91CF911F912F
:102AE0000F91FF90EF90DF900895EF92FF920F9378
:102AF0001F93CF93DF937C0184E590DDD82F88234B
:102B000069F1EFDDC82F18162CF5E9E7F4E16491BF
:102B10008F010F5F1F4F662329F08BE39EE0EEDBF2
:102B2000F801F5CF6DE48BE39EE0E8DBA70160E000
:102B300070E020E08BE39EE00E9448AB6C2FCC0F4E
:102B4000770B85EA93E00E946E846AE08BE39EE057
:102B5000D5DB08C08093AC02D0E004C08091B902FC
:102B60008093AC028D2FDF91CF911F910F91FF9039
:102B7000EF9008950F931F93CF93DF9394E0899F75
:102B8000E00111248E0108531D4FFE01EC52FD4F50
:102B9000DE01A052BD4F2D913D914D915C91608120
:102BA0007181828193810E9491B4F8016083718365
:102BB00082839383FE01E250F34F85919591A59115
:102BC000B491FE01E454FD4F80839183A283B383CB
:102BD000FE01EE50F34F85919591A591B491C15F9F
:102BE000DE4F88839983AA83BB83DF91CF911F91A6
:102BF0000F910895CF92DF92EF920F931F93CF938F
:102C0000DF93CDB7DEB760970FB6F894DEBF0FBE87
:102C1000CDBFE090B902E5E9F4E080859185A28519
:102C2000B38544815581668177810081118122813C
:102C300033810D871E872F87388B49875A876B878B
:102C40007C878D839E83AF83B88719821A821B820B
:102C50001C82AE014B5F5F4FBE01675F7F4FCE01AD
:102C60000D960E943B72CE0101966C010DE111E0C0
:102C700021EA34E0AE014B5F5F4FBE01675F7F4FDB
:102C80000C960E94498160960FB6F894DEBF0FBE85
:102C9000CDBFDF91CF911F910F91EF90DF90CF903B
:102CA00008958F929F92AF92BF92CF92DF92EF9250
:102CB0000F931F93CF93DF93CDB7DEB760970FB617
:102CC000F894DEBF0FBECDBF8C01E090B902E5E8FD
:102CD000F4E080859185A285B38544815581668124
:102CE000778180809180A280B3808D869E86AF861A
:102CF000B88A49875A876B877C878D839E83AF8389
:102D0000B88719821A821B821C82AE014B5F5F4F0B
:102D1000BE01675F7F4FCE010D960E943B72CE01D0
:102D200001966C0121E934E0AE014B5F5F4FBE01BB
:102D3000675F7F4F0C960E94498160960FB6F894AA
:102D4000DEBF0FBECDBFDF91CF911F910F91EF90EE
:102D5000DF90CF90BF90AF909F908F9008953F925B
:102D60004F925F926F927F928F929F92AF92BF929B
:102D7000CF92DF92EF92FF920F931F93CF93DF9347
:102D8000CDB7DEB72A970FB6F894DEBF0FBECDBF22
:102D90002B013C012D833E834F8358874701580107
:102DA000DA86C98680911D0190911E01A0911F01B4
:102DB000B091200189839A83AB83BC83D601EC90C8
:102DC0001196FC90119712960C91129713961C91E4
:102DD00020E030E0A901B701C8010E946AB5811165
:102DE00008C0E2E1FDE085919591A591B4917C0147
:102DF0008D01A501940160919D0470919E048091C4
:102E00009F049091A0040E946AB587FF13C0C70178
:102E1000D80180931D0190931E01A0931F01B093D0
:102E2000200180929D0490929E04A0929F04B092F3
:102E3000A004E0DEE985FA85D080C1803280F3818C
:102E4000F98720E030E0A9016D2D7C2D832D9F2F87
:102E50000E946AB5811109C0D0900501C090060199
:102E6000309007018091080189878D2D9C2DA32D1D
:102E7000B98580931D0190931E01A0931F01B0930B
:102E800020014092950450929604609297047092AB
:102E900098048D819E81AF81B88580939904909329
:102EA0009A04A0939B04B0939C04A4DE20919D04FB
:102EB00030919E0440919F045091A004C501B4013B
:102EC0000E946AB587FF13C0C701D80180931D0116
:102ED00090931E01A0931F01B093200180929D0446
:102EE00090929E04A0929F04B092A00483DE0E9460
:102EF0004D7589819A81AB81BC8180931D0190932E
:102F00001E01A0931F01B09320012A960FB6F894DA
:102F1000DEBF0FBECDBFDF91CF911F910F91FF900C
:102F2000EF90DF90CF90BF90AF909F908F907F9069
:102F30006F905F904F903F900895CF92DF92EF9205
:102F4000FF920F931F936B01FC01E080F1800281DF
:102F50001381E5E9F4E02481358146815781608160
:102F6000718182819381FBDE1F910F91FF90EF9021
:102F7000DF90CF900895CF92DF92EF92FF920F9360
:102F80001F936A01E0909D04F0909E0400919F04BD
:102F90001091A004FB012081318142815381FC0109
:102FA0006081718182819381DADE1F910F91FF90A0
:102FB000EF90DF90CF90089580911D0190911E01B8
:102FC000A0911F01B09120018093F2029093F3022F
:102FD000A093F402B093F50280911B0190911C0123
:102FE0009093F1028093F00284E690E090931C01AC
:102FF00080931B0108958091F2029091F302A091B9
:10300000F402B091F50280931D0190931E01A093EC
:103010001F01B09320018091F0029091F1029093F2
:103020001C0180931B010895FF920F931F93CF9370
:10303000DF93882329F0D0918404D095D17001C00A
:10304000D0E0662341F0809184048695817091E000
:10305000F82EF92601C0F12C442341F0C0918404DC
:10306000C2FB882780F9C1E0C82701C0C0E0D111A8
:1030700002C0FF2019F0E9E7F4E107C0C111FBCF5E
:1030800052C08BE39EE03AD9F80164918F010F5F43
:103090001F4F6111F6CFEFE9F3E064918F010F5FED
:1030A0001F4F662329F08BE39EE028D9F801F5CF66
:1030B000DD2369F0EDE9F3E064918F010F5F1F4FAD
:1030C000662329F08BE39EE019D9F801F5CFFF20A4
:1030D00069F0EBE9F3E064918F010F5F1F4F662306
:1030E00029F08BE39EE00AD9F801F5CFCC2319F043
:1030F000E9E9F3E003C0E1E9F3E00AC06491EF011C
:1031000021966623C1F38BE39EE0F8D8FE01F6CF4B
:103110006491EF012196662329F08BE39EE0EED8BF
:10312000FE01F6CFC1E08C2FDF91CF911F910F915F
:10313000FF900895BF92CF92DF92EF92FF920F938C
:103140001F93CF93DF93CDB7DEB728970FB6F894D0
:10315000DEBF0FBECDBF9091B104981709F47AC0BD
:10316000B82E882309F453C080E090E0A0E8B0E4D2
:103170008D839E83AF83B887C090A802D090A902A8
:10318000E090AA02F090AB0220E030E0A901C70174
:10319000B6010E946AB587FF0CC0A701960160E0E6
:1031A00070E080E890E40E9490B46D837E838F830A
:1031B000988720E030E043E053E46D817E818F8189
:1031C00098850E946DB7181644F480E090E0A3E063
:1031D000B3E48D839E83AF83B8872D813E814F8179
:1031E000588560919D0470919E0480919F049091F8
:1031F000A0040E946AB587FF0AC019821A821B8246
:103200001C82BE016F5F7F4FCE01059696DE6091F6
:103210009504709196048091970490919804209160
:10322000990430919A0440919B0450919C04198216
:103230001A821B821C82E0909D04F0909E040091F3
:103240009F041091A004FE0131966F0188DD8B2D43
:103250000E94F26480E028960FB6F894DEBF0FBE9D
:10326000CDBFDF91CF911F910F91FF90EF90DF9035
:10327000CF90BF9008954F925F926F927F928F92FE
:103280009F92AF92BF92CF92DF92EF92FF920F93F5
:103290001F93CF93C82FE82EF12CF701E553F34F7E
:1032A000B490823021F481E045DF811110C16701C3
:1032B000CC0CDD1CCC0CDD1CF601E652F34F459026
:1032C0005590659074906B2DBB0C770B880B990B08
:1032D0000E940CB64B015C0120E030E040EC5FE363
:1032E000C301B2010E94A8B7A50194010E94A8B72A
:1032F000AB01BC0100E010E098018C2F59DAC2301C
:1033000061F0F601E253F34F85919591A591B49147
:10331000E82F792F6A2F8B2F04C0E0E070E060E483
:1033200080E42E2F372F462F582FC501B4010E945D
:10333000A8B74B015C0120E030E0A9010E946AB50A
:10334000882309F45DC0C23021F000E010E098014C
:1033500004C000E010E020E830E4B501A40170589A
:103360008C2F26DAC23009F43AC0F701E953F44F42
:10337000649161111FC0E9E7F4E164917F018FEF6F
:10338000E81AF80A662331F08BE39EE00E947E1172
:10339000F701F3CFE5EAFBE064917F018FEFE81AD4
:1033A000F80A662331F08BE39EE00E947E11F7015C
:1033B000F3CF6AE0F601E65FF24F459055906590D5
:1033C000749070E080E090E00E940CB69B01AC012C
:1033D000C301B2010E9471B52B013C0105C0412C13
:1033E000512C612C90E4792EA5019401C501B40102
:1033F0000E9491B4AB01BC01930182018C2FD8D9FA
:1034000081E090E00C2E01C0880F0A94EAF79091B9
:103410008304982B9093830490918404892B809348
:103420008404F601E052FD4F108211821282138251
:103430008C2FA0DBF601EA51F34F85919591A59170
:10344000B491F601EB56FB4F80839183A283B38343
:10345000C230D1F42091A8023091A9024091AA0271
:103460005091AB0260919D0470919E0480919F04E5
:103470009091A0040E9490B460939D0470939E0468
:1034800080939F049093A0044CD9F601EB57FB4F17
:10349000D601AB56BB4F8D919D910D90BC91A02D47
:1034A00080839183A283B383C23089F480E0CF917B
:1034B0001F910F91FF90EF90DF90CF90BF90AF9052
:1034C0009F908F907F906F905F904F9033CECF9171
:1034D0001F910F91FF90EF90DF90CF90BF90AF9032
:1034E0009F908F907F906F905F904F9008959F92E4
:1034F000AF92BF92CF92DF92EF92FF920F931F9302
:10350000CF93DF938DEFA82E81E0B82E05E814E06D
:10351000C5E9D4E098ECC92E92E0D92E2CEEE22E2B
:1035200022E0F22E912CF50181915F012AD88823A7
:1035300001F180D8F7012081211104C02091B80247
:10354000222339F0288139814A815B810E9491B41C
:103550000AC0F3E09F1639F0F601208131814281E3
:1035600053810E9490B4F8016083718382839383B6
:1035700009C088819981AA81BB81F80180839183E8
:10358000A283B38393940C5F1F4F2496F4E0CF0E75
:10359000D11C2FEFE21AF20A84E09812C4CF86E41D
:1035A0003DD88823B9F046D820E030E0A9010E9438
:1035B0006DB718167CF43ED820E030E040E752E4C6
:1035C0000E9471B560931D0170931E0180931F01CD
:1035D00090932001DF91CF911F910F91FF90EF9079
:1035E000DF90CF90BF90AF909F900895CF92DF92E1
:1035F000EF92FF920F931F93CF93DF930FB6F89440
:10360000C090300ED090310EE090320EF090330E1C
:103610000FBE8091B702811174C08091040188238C
:1036200009F46FC080919702882309F46AC0409121
:1036300093025091940260919502709196029701C5
:103640008601041B150B260B370B37FD6DC083302D
:1036500031F134F481300CF454C0E9E7F4E106C0F0
:10366000843009F04EC0E9E7F4E133C06491EF0122
:103670002196662331F08BE39EE00E947E11FE01CD
:10368000F5CFEDE5F3E06491EF012196662309F4AF
:1036900038C08BE39EE00E947E11FE01F4CFE9E783
:1036A000F4E16491EF012196662331F08BE39EE013
:1036B0000E947E11FE01F5CFE6E4F3E06491EF0194
:1036C00021966623F1F08BE39EE00E947E11FE01BD
:1036D000F5CF6491EF012196662331F08BE39EE0F4
:1036E0000E947E11FE01F5CFEEE2F3E06491EF015E
:1036F0002196662331F08BE39EE00E947E11FE014D
:10370000F5CF2091040130E0A8EEB3E00E9477B439
:10371000C60ED71EE81EF91EC0929302D0929402E4
:10372000E0929502F0929602DF91CF911F910F9156
:10373000FF90EF90DF90CF9008950F931F93CF935A
:10374000DF9300D000D0CDB7DEB7809183048370C3
:103750008330E9F0E9E7F4E164918F010F5F1F4FD7
:10376000662331F08BE39EE00E947E11F801F4CFD6
:10377000E0E8FBE064918F010F5F1F4F662309F4BF
:103780003EC08BE39EE00E947E11F801F3CF0E94C1
:10379000911380E090E0A6E1B3E4809389049093D4
:1037A0008A04A0938B04B0938C0480919D04909123
:1037B0009E04A0919F04B091A00480938D049093E7
:1037C0008E04A0938F04B093900480E090E0A0EF6B
:1037D000B1E48093850490938604A0938704B0930A
:1037E000880419821A821B821C82AE014F5F5F4FD0
:1037F00069E874E085E894E0BEDB82E03CDD0F9090
:103800000F900F900F90DF91CF911F910F9108951E
:103810000F931F93CF93DF93CDB7DEB769970FB6A2
:10382000F894DEBF0FBECDBF0E9469946E8B7F8B74
:10383000888F998FBE016F5F7F4FCE0146960E94A1
:10384000E511E9E7F4E164918F010F5F1F4F6623F3
:1038500031F08BE39EE00E947E11F801F4CFBE01AF
:103860006F5F7F4F84E599E00E94ED846AE08BE30F
:103870009EE00E947E1169960FB6F894DEBF0FBEDF
:10388000CDBFDF91CF911F910F910895CF93DF931B
:10389000EFE7F4E16491EF012196662331F08BE3C9
:1038A0009EE00E947E11FE01F5CFE5E4F9E064910F
:1038B000EF012196662331F08BE39EE00E947E119A
:1038C000FE01F5CFDF91CF9108950F931F93CF9312
:1038D00083E50E940E13882309F440C00E947113EF
:1038E000082F80E50E940E138823C1F10E947113F6
:1038F000C82F87FD33C089E40E940E13882339F056
:103900000E948213811112C0EAEDF2E00BC089E43B
:103910000E94C11281110AC0F7CF319683E0E730CF
:10392000F80721F08491C813F8CF14C08C2F0E949F
:10393000FCACEC2FF0E0002E0E94A1AD10E0B8012D
:103940008C2F0E940DADC03149F41093BB0200933F
:10395000BA0204C0CF911F910F9198CFCF911F91C0
:103960000F91089588E690E0C0D8811122C080911F
:10397000A50483FD1EC083E50E940E138823B9F0C1
:103980000E941A130E94D9B57093690D6093680D57
:1039900080E00E94C8980E941A1320E030E04AEAB2
:1039A00052E40E946AB5181614F00E9412940C9406
:1039B0003A840895CF92DF92EF92FF9283E50E94BE
:1039C0000E13882321F10E9471138D3308F08CE3CC
:1039D0008093FE0C0FB6F894C090300ED090310E4C
:1039E000E090320EF090330E0FBE282F30E0A8EE9C
:1039F000B3E00E9477B4C60ED71EE81EF91EC0922F
:103A0000FA0CD092FB0CE092FC0CF092FD0CFF90B3
:103A1000EF90DF90CF90089580E50E940E13811102
:103A200006C083E50E940E13882359F005C00E944A
:103A3000711381110CC0F5CF0E9451136F3F7105B6
:103A400010F06FEF70E07093BB026093BA020895BC
:103A5000DF92EF92FF920F931F93CF93DF9383E553
:103A60000E94C112882359F083E50E940E13882317
:103A700019F00E94711301C080E08093A504E9E76A
:103A8000F4E16491EF012196662331F08BE39EE02F
:103A90000E947E11FE01F5CFE7E6F7E06491EF01A9
:103AA0002196662331F08BE39EE00E947E11FE0199
:103AB000F5CF8091A5048823A9F18EE6E82E87E052
:103AC000F82E00E010E020E08091A50490E0002EA8
:103AD00002C0959587950A94E2F780FF1AC0DD240D
:103AE000D394D20E222329F06CE28BE39EE00E9455
:103AF0007E11F70185919491FC016491EF0121966B
:103B0000662331F08BE39EE00E947E11FE01F5CF2B
:103B10002D2D0F5F1F4F82E0E80EF11C05301105BF
:103B200099F60DC0E3E6F7E06491EF012196662374
:103B300031F08BE39EE00E947E11FE01F5CF6AE03A
:103B40008BE39EE0DF91CF911F910F91FF90EF905B
:103B5000DF900C947E11CF93DF9383E50E940E13C8
:103B6000882351F00E9471138D3308F08CE3809309
:103B70000401DF91CF910895E9E7F4E16491EF0149
:103B80002196662331F08BE39EE00E947E11FE01B8
:103B9000F5CF4091040150E060E070E08CE597E0E3
:103BA0000E94CC846AE08BE39EE0DF91CF910C947D
:103BB0007E114F925F926F927F92AF92BF92CF929F
:103BC000DF92EF92FF920F931F93CF938DEFA82E6A
:103BD00081E0B82E02E915E0C0E0F50181915F01B6
:103BE0000E94C112882309F46DC0C33009F063C07C
:103BF0000E941A136B017C0120E030E040EA51E49E
:103C00000E946AB587FF4EC0A701960160919E058C
:103C100070919F058091A0059091A1050E9471B5BA
:103C20002B013C019B01AC0160916A0570916B0511
:103C300080916C0590916D050E94A8B760936A050C
:103C400070936B0580936C0590936D05A3019201B1
:103C50006091AE057091AF058091B0059091B1056E
:103C60000E94A8B76093AE057093AF058093B0052E
:103C70009093B1056091C2057091C3058091C40510
:103C80009091C5050E940AB6A30192010E94A8B7AF
:103C90000E94DEB56093C2057093C3058093C4058E
:103CA0009093C505C0929E05D0929F05E092A00515
:103CB000F092A10507C00E941A13F8016083718376
:103CC00082839383CF5F0C5F1F4FC43009F085CF91
:103CD000CF911F910F91FF90EF90DF90CF90BF9009
:103CE000AF907F906F905F904F900C9416840F93DD
:103CF0001F93CF93DF93C5E9D4E008EC12E0F801FD
:103D00002081318142815381688179818A819B81BF
:103D10000E9491B4AB01BC0185E293E00E94AB84A8
:103D2000F80124813581468157816C817D818E81A6
:103D30009F810E9491B4AB01BC0181E293E00E949B
:103D4000AB84F80120853185428553856885798566
:103D50008A859B850E9491B4AB01BC018DE193E003
:103D60000E94AB844C855D856E857F8589E193E0FB
:103D70000E94AB84DF91CF911F910F910C94F89129
:103D80002F923F924F925F926F927F928F929F926B
:103D9000AF92BF92CF92DF92EF92FF920F931F9359
:103DA000CF93DF938DEF882E81E0982EC0EED2E086
:103DB00095E9A92E94E0B92E08EC12E0312C212CC3
:103DC000F40181914F010E940E13882309F44AC027
:103DD0000E941A136B017C01F3E03F1649F0F801D1
:103DE00020813181428153810E9490B46B017C011A
:103DF000F5012081318142815381C701B6010E94C2
:103E000090B42B013C012DEB37E346E855EB0E94C3
:103E10006DB787FD0AC02DEB37E346E855E3C301D4
:103E2000B2010E946AB51816ECF4F3E03F120BC021
:103E3000C092A104D092A204E092A304F092A40440
:103E4000222423940FC0A3019201688179818A8181
:103E50009B810E9491B4688379838A839B83832D9D
:103E60000E94BA153394249684E0A80EB11C0C5F0E
:103E70001F4FE4E03E12A4CF21100E949C14DF915A
:103E8000CF911F910F91FF90EF90DF90CF90BF9057
:103E9000AF909F908F907F906F905F904F903F90EA
:103EA0002F9025CFCF93DF93EAE8F6E06491EF01FE
:103EB0002196662331F08BE39EE00E947E11FE0185
:103EC000F5CF60E08AE796E00E94941161E083E715
:103ED00096E00E94941161E088E696E00E949411B9
:103EE00061E088E596E00E94941160E08FE496E03E
:103EF0000E94941161E085E496E00E94941161E0D3
:103F00008BE396E00E94941161E083E396E00E94C7
:103F1000941161E085E296E00E94941160E087E1EF
:103F200096E00E94941160E088E096E00E9494116F
:103F300060E08AEF95E00E94941160E084EE95E0E5
:103F40000E94941160E083ED95E00E94941160E07E
:103F50008EEB95E00E94941161E08BEA95E0DF9191
:103F6000CF910C949411CF92DF92EF92FF92CF9366
:103F700088EC90E00E94751581114EC084E40E9487
:103F8000C112882309F441C00E941A136B017C01FD
:103F9000C1E020E030E0A9010E946AB5811101C0B2
:103FA000C0E0C093DE0420E030E0A901C701B60103
:103FB0000E946AB5882349F10E941A13E091AC026D
:103FC00024E0E29FF0011124E65AFA4F60837183E6
:103FD0008283938320E030E0A90160915A057091BB
:103FE0005B0580915C0590915D050E946AB5811129
:103FF0000CC080E090E0A0EEBFE380935A05909360
:104000005B05A0935C05B0935D05CF91FF90EF90A9
:10401000DF90CF900C94D671CF91FF90EF90DF900E
:10402000CF900895CF9383E50E940E138823A1F0CB
:104030000E941A1360937A0570937B0580937C0528
:1040400090937D056093720570937305809374055A
:1040500090937505C0E001C0C1E080E50E940E1399
:10406000882359F00E941A1360937A0570937B0598
:1040700080937C0590937D05C0E082E50E940E133D
:10408000882359F00E941A13609376057093770580
:104090008093780590937905C0E084E50E940E1323
:1040A000882359F00E941A13609372057093730568
:1040B00080937405909375052CC0CC2351F14091E9
:1040C0007A0550917B0560917C0570917D0587E9AB
:1040D00095E00E94AB844091760550917705609100
:1040E00078057091790584E995E00E94AB84409150
:1040F000720550917305609174057091750581E9A1
:1041000095E00E94AB846AE08BE39EE0CF910C9433
:104110007E11CF91089581E50E94C112882351F04C
:104120000E9461136093B2057093B3058093B40548
:104130009093B50583E50E94C112882351F00E9437
:104140001A1360937E0570937F058093800590938A
:10415000810584E50E94C112882351F00E941A1340
:1041600060936E0570936F05809370059093710551
:1041700088E50E94C112882351F00E941A136093AF
:104180005E0570935F05809360059093610589E5F6
:104190000E94C112882351F00E941A136093620595
:1041A0007093630580936405909365058AE50E948A
:1041B000C112882351F00E941A1360936605709310
:1041C0006705809368059093690585E40E94C11294
:1041D000882351F00E941A1360936A0570936B054F
:1041E00080936C0590936D050895CF93DF93E9E775
:1041F000F4E16491EF012196662331F08BE39EE0B8
:104200000E947E11FE01F5CF83E50E94C112882332
:1042100021F00E94821380930E01E1E8F5E06491A1
:10422000EF012196662331F08BE39EE00E947E1120
:10423000FE01F5CF80910E01811103C0E9E7F5E0A1
:1042400002C0EDE7F5E06491EF012196662331F0BD
:104250008BE39EE00E947E11FE01F5CFE1E7F5E0E1
:104260006491EF012196662331F08BE39EE00E947A
:104270007E11FE01F5CF2091C8023091C902409114
:10428000CA025091CB026091BC027091BD02809134
:10429000BE029091BF020E9491B4AB01BC018FE6B7
:1042A00095E00E94AB842091CC023091CD024091E8
:1042B000CE025091CF026091C0027091C1028091F4
:1042C000C2029091C3020E9491B4AB01BC018CE682
:1042D00095E00E94AB842091D0023091D1024091B0
:1042E000D2025091D3026091C4027091C5028091B4
:1042F000C6029091C7020E9491B4AB01BC0189E64D
:1043000095E00E94AB84E1E6F5E06491EF0121962F
:10431000662331F08BE39EE00E947E11FE01F5CF13
:104320002091C8023091C9024091CA025091CB023B
:1043300060910F0170911001809111019091120113
:104340000E9491B4AB01BC018FE595E00E94AB8463
:104350002091CC023091CD024091CE025091CF02FB
:1043600060911301709114018091150190911601D3
:104370000E9491B4AB01BC018CE595E00E94AB8436
:104380002091D0023091D1024091D2025091D302BB
:1043900060911701709118018091190190911A0193
:1043A0000E9491B4AB01BC0189E595E00E94AB8409
:1043B0006AE08BE39EE0DF91CF910C947E110F9326
:1043C0001F93CF93DF938DED90E00E9475158111BF
:1043D00070C083E50E940E138823B9F1C091AC022E
:1043E000D0E00E945113CC0FDD1FCE5CDE4F7983ED
:1043F00068838091AC0290E0EC01CC0FDD1FCC0F04
:10440000DD1F8E01025D1E4F880F991FFC01EE5CBF
:10441000FE4F60817181072E000C880B990B0E9462
:104420000CB62AE037ED43E25CE30E94A8B7CA5A13
:10443000DA4F288139814A815B810E94A8B7F8014F
:10444000608371838283938334C0E9E7F4E16491EC
:10445000EF012196662331F08BE39EE00E947E11EE
:10446000FE01F5CF65E48BE39EE00E947E11609132
:10447000AC02605D8BE39EE00E947E11E091AC0295
:10448000F0E0EE0FFF1FEE5CFE4F6081718181E571
:1044900095E00E946E8465E28BE39EE00E947E11AF
:1044A0006AE08BE39EE0DF91CF911F910F910C9416
:1044B0007E11DF91CF911F910F9108954F925F92DE
:1044C0006F927F92AF92BF92CF92DF92EF92FF9264
:1044D0000F931F93CF93DF933DEFC32E31E0D32E85
:1044E00042E9E42E45E0F42EC0E0D0E0F6018191EF
:1044F0006F010E940E13811109C0C23009F043C040
:1045000083E50E940E13882309F48FC00E941A13BA
:1045100020E030E040E050EC0E946AB587FD42C0E8
:104520000E941A1320E030E040E050E40E946DB792
:10453000181694F10E941A132B013C0180918304F8
:1045400090E00C2E02C0959587950A94E2F780FFC3
:1045500018C08E01000F111F015C124FF801A080DE
:10456000B180F7012081318142815381C301B201C1
:104570000E94A8B70E94D9B56A0D7B1DF80171830E
:104580006083C230A9F0219624E0E20EF11CC33012
:10459000D10509F0ABCF49C0412C512C612C20E44E
:1045A000722ECCCF412C512C612C90EC792EC6CFA1
:1045B00080E50E94C112882321F00E948213882383
:1045C000A1F1A30192016091A8027091A9028091CA
:1045D000AA029091AB020E9491B46093A8027093DA
:1045E000A9028093AA029093AB02E9E7F4E16491F7
:1045F0008F010F5F1F4F662331F08BE39EE00E9417
:104600007E11F801F4CF4091A8025091A902609167
:10461000AA027091AB0280E495E00E94AB846AE04C
:104620008BE39EE00E947E11AECFDF91CF911F9170
:104630000F91FF90EF90DF90CF90BF90AF907F9061
:104640006F905F904F900895CF93DF9385E40E9421
:104650000E13811110C080E50E94C112882391F0D1
:104660000E941A1360934D0D70934E0D80934F0D61
:104670009093500D07C00E947113882361F3EFE7F8
:10468000F4E172C089E40E94C112882381F00E9483
:104690001A132CEA35EC47E25EE30E94A8B7609358
:1046A000490D70934A0D80934B0D90934C0D84E40B
:1046B0000E94C112882381F00E941A132CEA35EC63
:1046C00047E25EE30E9471B56093450D7093460D1D
:1046D0008093470D9093480DE9E7F4E16491EF0171
:1046E0002196662331F08BE39EE00E947E11FE014D
:1046F000F5CF40914D0D50914E0D60914F0D709141
:10470000500D8CE395E00E94AB842CEA35EC47E237
:104710005EE36091490D70914A0D80914B0D90912F
:104720004C0D0E9471B5AB01BC0188E395E00E947D
:10473000AB842CEA35EC47E25EE36091450D709165
:10474000460D8091470D9091480D0E94A8B7AB018E
:10475000BC0184E395E00E94AB846AE08BE39EE0B9
:10476000DF91CF910C947E116491EF012196662325
:1047700031F08BE39EE00E947E11FE01F5CFE2E274
:10478000F5E06491EF012196662331F08BE39EE022
:104790000E947E11FE01F5CFDF91CF910895CF9356
:1047A000DF9383E50E94C112C82F882371F00E9415
:1047B0001A130E94D9B5709351016093500121E002
:1047C000672B09F020E02093380D80E50E94C1128C
:1047D000882359F02091500130915101232B11F081
:1047E0000E9482138093380D31C0C1112FC0E9E7B8
:1047F000F4E16491EF012196662331F08BE39EE0B2
:104800000E947E11FE01F5CF8091380D811103C009
:1048100062EE71E002C06FED71E08FE095E00E9402
:10482000ED8460915001709151018EEF94E00E94EF
:104830006E84EAEFF4E06491EF012196662331F093
:104840008BE39EE00E947E11FE01F5CFDF91CF91B8
:1048500008958F929F92AF92BF92EF92FF920F9323
:104860001F93CF93DF9300D000D0CDB7DEB785E4A0
:104870000E940E13882321F00E9451138B0102C065
:1048800000E010E083E40E940E13882321F00E94D0
:104890005113F62E02C025E0F22E85E50E940E137C
:1048A000882321F00E948213E82E04C085E50E942F
:1048B000C112E82E17FD07C0812C912C96E1A92E7C
:1048C00093E4B92E06C0812C912C8CE8A82E82E4AA
:1048D000B82E83E50E940E13882321F00E941A133C
:1048E0004B015C01C501B4010E94D9B50115110548
:1048F00011F41092AC02072E000C880B990B0E9449
:104900000CB669837A838B839C832E2D4F2D602F69
:10491000CE0101960E94EF9E0F900F900F900F9086
:10492000DF91CF911F910F91FF90EF90BF90AF90CB
:104930009F908F9008952F923F924F925F926F9227
:104940007F928F929F92AF92BF92CF92DF92EF921F
:10495000FF920F931F93CF93DF93CDB7DEB72E97C0
:104960000FB6F894DEBF0FBECDBF41E061E081E03D
:104970000E9414188111B9C006EE1CE085E994E08C
:104980009E878D87FE0131965F019BEC892E9CE00E
:10499000992E1F01F8016591759185919491ED858E
:1049A000FE85C190D190E190F190FE87ED87A7013F
:1049B00096010E9490B42B013C01F1016083718348
:1049C0008283938320E030E040EA51EC0E946DB78F
:1049D00087FD0AC020E030E040EA51E4C301B201A3
:1049E0000E946AB518162CF4F401849118160CF480
:1049F00072C0F101C190D190E190F1901F0120E0CF
:104A000030E040EA51ECC701B6010E946DB787FD66
:104A10000AC020E030E040EA51E4C701B6010E943C
:104A20006AB51816F4F4EFE7F4E164918F010F5FB3
:104A30001F4F611103C0E2E9F4E006C08BE39EE082
:104A40000E947E11F801F1CF64918F010F5F1F4F1B
:104A5000662309F44AC08BE39EE00E947E11F801B0
:104A6000F3CF0C5F1F4FFFEF8F1A9F0A8CE0023FBE
:104A7000180709F08FCF84EDE82E82E0F82E10E0C1
:104A8000F50181919191A191B1915F01F70181931C
:104A90009193A193B1937F01812F0E94BA151F5F5B
:104AA000133071F72E960FB6F894DEBF0FBECDBF50
:104AB000DF91CF911F910F91FF90EF90DF90CF90FA
:104AC000BF90AF909F908F907F906F905F904F902E
:104AD0003F902F900CC9F7FAF094F7F8F094F10199
:104AE000C082D182E282F38284CF2E960FB6F894F0
:104AF000DEBF0FBECDBFDF91CF911F910F91FF9011
:104B0000EF90DF90CF90BF90AF909F908F907F906D
:104B10006F905F904F903F902F900895CF93DF93C9
:104B20000E944E638823D1F0E9E7F4E16491EF013C
:104B30002196662331F08BE39EE00E947E11FE01F8
:104B4000F5CFE7E8F4E06491EF012196662331F0B8
:104B50008BE39EE00E947E11FE01F5CFDF91CF91A5
:104B60000895CF92DF92EF92FF92CF93DF938AE581
:104B70000E940E13811103C0E9E7F4E13EC00E94D8
:104B80001A136B017C0120E030E040E650EC0E94FB
:104B90006DB787FD0AC020E030E040EA51E4C7016C
:104BA000B6010E946AB518161CF4EFE7F4E10EC0D6
:104BB000C092A802D092A902E092AA02F092AB029F
:104BC00045C08BE39EE00E947E11FE016491EF01DF
:104BD00021966111F6CFE9E6F4E06491EF012196A8
:104BE0006623A1F18BE39EE00E947E11FE01F5CFCA
:104BF0008BE39EE00E947E11FE016491EF012196FD
:104C00006111F6CFEAE5F4E06491EF0121966623A5
:104C100031F08BE39EE00E947E11FE01F5CF4091C2
:104C2000A8025091A9026091AA027091AB0287E597
:104C300094E00E94AB846AE08BE39EE0DF91CF9129
:104C4000FF90EF90DF90CF900C947E11DF91CF9189
:104C5000FF90EF90DF90CF900895CF92DF92EF9288
:104C6000FF92CF93DF938BE40E940E13811103C058
:104C7000E9E7F4E136C08BE40E940E138823C1F00B
:104C80000E941A136B017C0120E030E0A9010E9410
:104C90006DB787FD0AC020E030E040E251E4C70173
:104CA000B6010E946AB5181634F4E1EFF3E00EC0C5
:104CB000C12CD12C76010E944D75C092F704D09280
:104CC000F804E092F904F092FA042DC06491EF0127
:104CD0002196662341F18BE39EE00E947E11FE0146
:104CE000F5CF6491EF012196662331F08BE39EE0CE
:104CF0000E947E11FE01F5CF4091F7045091F80417
:104D00006091F9047091FA0486EE93E00E94AB84FE
:104D10006AE08BE39EE0DF91CF91FF90EF90DF9010
:104D2000CF900C947E11DF91CF91FF90EF90DF90A8
:104D3000CF900895CF92DF92EF92FF920F931F933F
:104D4000CF9383E50E94C112811104C00DEF11E0E1
:104D5000C0E00EC00E941A136B017C01C0E0B701D5
:104D6000A6018C2F0E943593CF5FC530C1F7EECFDF
:104D7000F80181918F010E94C112882339F00E94AD
:104D80001A13AB01BC018C2F0E943593CF5FC43046
:104D900079F7CF911F910F91FF90EF90DF90CF9017
:104DA00008951F93CF93DF93182FE9E7F4E16491FF
:104DB000EF012196662331F08BE39EE00E947E1185
:104DC000FE01F5CF64E58BE39EE00E947E11412F4A
:104DD00050E060E070E020E08BE39EE00E9448AB92
:104DE00060E28BE39EE00E947E11E5ECF3E06491CB
:104DF000EF012196662331F08BE39EE00E947E1145
:104E0000FE01F5CFDF91CF911F910895CF93DF93EE
:104E1000E0917904F0E0E856FD4F80818823A1F00D
:104E2000E7ECF2E06491EF012196662331F08BE329
:104E30009EE00E947E11FE01F5CF6AE08BE39EE0CA
:104E4000DF91CF910C947E11DF91CF910895CF9295
:104E5000DF92EF92FF92CF93DF9320910E012223F6
:104E600009F485C0EC01C090BC02D090BD02E09076
:104E7000BE02F090BF02A7019601688179818A8104
:104E80009B810E946AB587FF04C0C882D982EA82EA
:104E9000FB82C090C002D090C102E090C202F090AC
:104EA000C302A70196016C817D818E819F810E9442
:104EB0006AB587FF04C0CC82DD82EE82FF82C0909B
:104EC0000F01D0901001E0901101F0901201A701A4
:104ED0009601688179818A819B810E946DB718163D
:104EE00024F4C882D982EA82FB82C0901301D09058
:104EF0001401E0901501F0901601A70196016C8154
:104F00007D818E819F810E946DB7181624F4CC821A
:104F1000DD82EE82FF82C090C402D090C502E09094
:104F2000C602F090C702A7019601688579858A8537
:104F30009B850E946AB587FF04C0C886D986EA8629
:104F4000FB86C0901701D0901801E0901901F090F5
:104F50001A01A7019601688579858A859B850E943B
:104F60006DB7181624F4C886D986EA86FB86DF91C9
:104F7000CF91FF90EF90DF90CF900895CF93DF9384
:104F800080E00E943775CCE9D2E0688379838A8318
:104F90009B8381E00E9437756C837D838E839F8322
:104FA00082E00E943775688779878A879B87DF91BF
:104FB000CF910895CF93DF93E1DF6BE58BE39EE024
:104FC0000E947E11CCE9D2E0488159816A817B81BF
:104FD00022E030E08BE39EE00E947C114C815D81F9
:104FE0006E817F818BE293E00E94AB844885598576
:104FF0006A857B8588E293E00E94AB846DE58BE354
:105000009EE00E947E116AE08BE39EE0DF91CF91EB
:105010000C947E11CF93C82FB1DF8CE992E00E94EF
:105020009B73CE3F51F48CE0ECE9F2E0A5E9B4E0EB
:1050300001900D928A95E1F713C024E0C29FC00150
:105040001124FC01EB56FB4FDC01A456BD4F8D91A2
:105050009D910D90BC91A02D80839183A283B383F9
:10506000CF910895CF9390915505981789F0C82F47
:105070000E944D75C0935505C11103C08EEFCADF64
:1050800004C085E994E00E949B73CF910C94911326
:10509000CF91089580E0E6DF81E395E00C9441A68E
:1050A0008F929F92AF92BF92DF92EF92FF920F93F7
:1050B0001F93CF93DF9300D000D0CDB7DEB7182F6A
:1050C000809183048770873079F48FE40E940E13F7
:1050D000882329F00E948213811199C005C08FE4B2
:1050E0000E94C112811193C00E944D75D090550548
:1050F00080E0B8DF0E94DC1781E00E94DF641111BC
:105100001CC088E50E94C112F82E89E50E94C112D8
:10511000082F8AE50E94C112E82EF11007C0011184
:105120000AC0811108C0F02E11E00DC0002319F053
:10513000F02E182F08C010E006C0FF24F39401E001
:10514000EE24E39411E080E1E5E9F4E0A5E8B4E0C1
:1051500001900D928A95E1F782E50E940E13882353
:1051600061F00E941A134B015C0120E030E0A901BC
:105170000E946AB5882369F105C0812C912C80E4D6
:10518000A82EBA2C111104C0F11002C0002391F115
:1051900080928D0490928E04A0928F04B09290041D
:1051A000A501940160919D0470919E0480919F04DB
:1051B0009091A0040E946AB587FF0BC019821A82E1
:1051C0001B821C82BE016F5F7F4F8DE894E00E94BE
:1051D0009D17111105C0F11003C0011106C00AC0CE
:1051E00080E00E943B191123C1F381E00E943B192A
:1051F000111101C0E1100E949D1B0E9491130E9499
:10520000E2648D2D2FDF0E94FB170E94771E0F9006
:105210000F900F900F90DF91CF911F910F91FF9002
:10522000EF90DF90BF90AF909F908F900895CF93B5
:10523000DF93C82F0E944D75D091550580E012DF95
:10524000CC2321F08C2FDF91CF91ABCD1092B902FE
:105250008D2F08DFE9E7F4E16491EF0121966623E1
:1052600031F08BE39EE00E947E11FE01F5CF60914C
:10527000B90270E087E093E00E946E846AE08BE3FD
:105280009EE0DF91CF910C947E110F931F93CF93EB
:10529000DF93CDB7DEB72C970FB6F894DEBF0FBE05
:1052A000CDBF83E50E94C112882341F00E94821382
:1052B000182F811105C080E0D5DE02C01091550580
:1052C0008091950490919604A0919704B0919804D0
:1052D00089839A83AB83BC838091990490919A04CB
:1052E000A0919B04B0919C048D839E83AF83B8876B
:1052F00080919D0490919E04A0919F04B091A00480
:1053000089879A87AB87BC8786E50E94C11288236C
:1053100031F06DED74E081E395E00E940CA8812FDF
:10532000A1DE111103C0E9E7F4E120C08091550529
:105330008111F9CFEFE7F4E164918F010F5F1F4F07
:10534000662331F08BE39EE00E947E11F801F4CFDA
:10535000EEEBF4E064918F010F5F1F4F662319F3AA
:105360008BE39EE00E947E11F801F4CF64918F01DF
:105370000F5F1F4F662331F08BE39EE00E947E118A
:10538000F801F4CF80915505811103C06AEE71E0F8
:1053900002C066EE71E080EB94E00E94ED846AE06A
:1053A0008BE39EE00E947E114CE050E065E974E0E2
:1053B000CE0101960E94E0BC892B61F02C960FB6BD
:1053C000F894DEBF0FBECDBFDF91CF911F910F913B
:1053D0000C94771E2C960FB6F894DEBF0FBECDBF8F
:1053E000DF91CF911F910F9108950E94E7740E9461
:1053F0004D758EEF0FDE0C949113CF92DF92EF92EA
:10540000FF920F931F93CF93DF9389E40E94C11201
:10541000811109C083E50E94C112811104C0D0E04E
:1054200010E0C0E031C00E941A136B017C0120E043
:1054300030E040E85FEB0E946DB787FD00C120E0DF
:1054400030E040E85FE3C701B6010E946AB5181674
:105450000CF4F5C0A701960160912D0570912E0501
:1054600080912F05909130050E946AB5882309F438
:10547000E2C0C0922D05D0922E05E0922F05F09249
:105480003005D1E010E0C1E08AE40E94C112882317
:1054900081F1CF5F0E941A136B017C0120E030E0A4
:1054A00040E85FEB0E946DB787FD22C020E030E04E
:1054B00040E85FE3C701B6010E946AB51816C4F060
:1054C0002091290530912A0540912B0550912C05FA
:1054D000C701B6010E946AB5882359F0C092290518
:1054E000D0922A05E0922B05F0922C05DF5F01C0D7
:1054F0001F5F8BE40E94C112882389F1CF5F0E9455
:105500001A136B017C0120E030E040E85FEB0E9461
:105510006DB787FD26C020E030E040E85FE3C701BB
:10552000B6010E946AB51816E4F020912505309165
:1055300026054091270550912805C701B6010E9414
:105540006AB5882361F0C0922505D0922605E092C5
:105550002705F09228051123A1F0DF5F02C0112377
:1055600071F0EDE2F4E064918F010F5F1F4F66234D
:1055700031F08BE39EE00E947E11F801F4CFDD2331
:1055800031F08EEF47DD0E9491130E94771EC1110A
:105590005AC0E9E7F4E16491EF012196611145C039
:1055A000ECE1F4E06491EF012196662331F08BE3A6
:1055B0009EE00E947E11FE01F5CF40912D05509195
:1055C0002E0560912F057091300526E030E08BE3C9
:1055D0009EE00E947C116AE08BE39EE00E947E11B7
:1055E0004091290550912A0560912B0570912C0559
:1055F00086E194E00E94AB844091250550912605F8
:10560000609127057091280580E194E00E94AB84A9
:105610006AE08BE39EE0DF91CF911F910F91FF90A5
:10562000EF90DF90CF900C947E118BE39EE00E9470
:105630007E11FE01B0CFD0E010E0C1E025CFD0E078
:1056400011E0C1E021CFDF91CF911F910F91FF9029
:10565000EF90DF90CF9008952F923F924F925F92FC
:105660006F927F928F929F92AF92BF92CF92DF9272
:10567000EF92FF920F931F93CF93DF93CDB7DEB7D7
:10568000A0970FB6F894DEBF0FBECDBF1C017F8F71
:105690006E8F498F28A3DC018D909D90AD90BC90BA
:1056A000FB0140805180628073800023A1F0A30140
:1056B0009201C501B4010E940311882309F4F2C1CB
:1056C00020E030E040EA51E4C501B4010E9490B40A
:1056D0004B015C012AC02FE632E143E85AEBC501D9
:1056E000B4010E946DB787FDDDC123E830E048ECCE
:1056F00052E4C501B4010E946AB518160CF4D2C177
:1057000022E630E140E050ECC301B2010E946DB7E7
:1057100087FDC8C121E230E046E953E4C301B2018C
:105720000E946AB518160CF4BDC1E0909D04F0907B
:105730009E0400919F041091A00480911D019091FE
:105740001E01A0911F01B09120018A8F9B8FAC8F09
:10575000BD8F8091050190910601A0910701B09144
:10576000080180931D0190931E01A0931F01B09327
:10577000200119821A821B821C82DE0111966D01A2
:10578000A3019201C501B4010E94AF1681E00E94FD
:105790009A188111E4C08091830482FF11C0209186
:1057A000A8023091A9024091AA025091AB0260E098
:1057B00070E080E090EC0E9490B42B013C0106C0A8
:1057C000412C512C90E2692E91EC792E4D865E860B
:1057D0006F86788AC12CD12C80E8E82E80E4F82EE0
:1057E000C986DA86EB86FC86BE01675F7F4FCE01F5
:1057F0000D960E949D171091B3041092B30482E09D
:1058000009DC0E94911312FD05C060E070E080EC9D
:105810009FE75EC080909D0490909E04A0909F049E
:10582000B090A004C982DA82EB82FC8220E030E0F2
:1058300040E450E4C501B4010E9491B46D837E83BD
:105840008F839887BE016F5F7F4FCE0105960E94C0
:105850009D174D825E826F82788680E090E0A0E0A6
:10586000B0E489839A83AB83BC83BE016F5F7F4FB3
:10587000CE0105960E949D171091B3041092B304B7
:1058800082E0C8DB0E94911312FFBFCF20E030E01E
:1058900040E450E460919D0470919E0480919F04C7
:1058A0009091A0040E94A8B76B017C01A50194010E
:1058B000C501B4010E9491B49B01AC01C701B601BE
:1058C0000E9491B42DEC3CEC4CE45EE30E94A8B73E
:1058D0002091A8023091A9024091AA025091AB02F6
:1058E0000E9491B46B018C01898D8250823050F5F9
:1058F00080E090E0A0E8B0E4898B9A8BAB8BBC8B06
:1059000020919D0430919E0440919F045091A004E9
:10591000B98DB33029F060E070E080E490E404C019
:1059200060E070E088EC91E40E9491B46D8B7E8B16
:105930008F8B988FBE016F5E7F4FCE0145960E9480
:105940009D1708C0E98DE13029F480E00E949A1883
:10595000811105C0F8A1F33008F472C008C098A105
:10596000933008F4A4C0C12CD12C00EC1FE7E9E867
:10597000F3E064917F018FEFE81AF80A662331F0B3
:105980008BE39EE00E947E11F701F3CF2091C802C5
:105990003091C9024091CA025091CB02D1016D9160
:1059A0007D918D919C910E9491B4AB01BC0123E04B
:1059B00030E08BE39EE00E947C11E4E8F3E0649128
:1059C0007F01BFEFEB1AFB0A662331F08BE39EE009
:1059D0000E947E11F701F3CF2091CC023091CD02CD
:1059E0004091CE025091CF02EE8DFF8D608171818A
:1059F000828193810E9491B4AB01BC0123E030E02D
:105A00008BE39EE00E947C11EFE7F3E064917F015D
:105A10008FEFE81AF80A662331F08BE39EE00E94CC
:105A20007E11F701F3CF23E030E0A601B8018BE34C
:105A30009EE00E947C116AE08BE39EE00E947E1152
:105A40008A8D9B8DAC8DBD8D80931D0190931E0121
:105A5000A0931F01B09320019601A801B601C801CF
:105A60000E9456B88823A1F1EFE7F4E164917F0129
:105A70009FEFE91AF90A662331F08BE39EE00E945A
:105A80007E11F701F3CFEFE6F3E064917F01AFEF12
:105A9000EA1AFA0A6623E1F08BE39EE00E947E1187
:105AA000F701F3CFC12CD12C00EC1FE711C08A8D78
:105AB0009B8DAC8DBD8D80931D0190931E01A09395
:105AC0001F01B0932001C12CD12C00EC1FE7CCCFDB
:105AD000B601C801A0960FB6F894DEBF0FBECDBFC9
