:100000000C942B100C9455100C9455100C94551006
:100010000C9455100C9455100C9455100C945510CC
:100020000C9455100C9455100C9495AF0C9412B080
:100030000C9455100C9455100C9455100C945510AC
:100040000C9455100C9495860C9455100C945510E6
:100050000C9455100C9455100C94AE9B0C94F4AE6B
:100060000C9455100C9455100C9455100C9455107C
:100070000C9455100C9455100C9455100C9455106C
:100080000C9455100C9455100C9455100C9455105C
:100090000C94ABA90C94551083ACAFACD1ACD1ACE3
:1000A000D1ACD1ACD1ACD1ACD1ACD1ACD1ACD1AC68
:1000B000D1ACD1ACC7ACBFACB7ACD1ACD1ACD1AC8E
:1000C000D1ACD1ACD1ACD1ACA9AC8FAC97ACA1AC1C
:1000D0004E414E494E495459494E46CDCCCC3D0A2D
:1000E000D7233C17B7D13877CC2B329595E6241F10
:1000F000B14F0A000020410000C84200401C4620C9
:10010000BCBE4CCA1B0E5AAEC59D74446F6E6520B2
:10011000736176696E672066696C652E0A004D32E0
:1001200039002020506C616E6E657242756666659E
:100130007242797465733A20002046726565204DDD
:10014000656D6F72793A2000436F6D70696C6564FC
:100150003A204E6F7620323420323031380A002077
:100160007C20417574686F723A2044722E50686921
:100170006C33440A00323031382D30382D303100A4
:10018000204C61737420557064617465643A20007A
:10019000312E312E390A004D61726C696E00205388
:1001A0006F6674776172652052657365740A00200A
:1001B0005761746368646F672052657365740A00E1
:1001C0002042726F776E206F75742052657365746C
:1001D0000A002045787465726E616C205265736503
:1001E000740A00506F77657255700A0073746172FB
:1001F000740A005072696E7465722068616C74656F
:10020000642E206B696C6C28292063616C6C6564BA
:10021000210A004B494C4C45442E20004B494C4C84
:100220002063617573656420627920746F6F206D3F
:1002300075636820696E6163746976652074696DA1
:1002400065202D2063757272656E7420636F6D6D0D
:10025000616E643A200020746F6F206C6F6E6720AF
:10026000657874727573696F6E2070726576656EED
:100270007465640A0020636F6C642065787472751D
:1002800073696F6E2070726576656E7465640A00BE
:100290006F6B00526573656E643A2000416476614D
:1002A0006E6365204B3D003F4B2076616C75652089
:1002B0006F7574206F662072616E67652028302D1F
:1002C0003130292E0A003A200050726F6265205AA0
:1002D000204F6666736574003F5A206F7574206FF7
:1002E000662072616E676520282D3520746F20327C
:1002F00030290A00454550524F4D204F4B0A0042CD
:100300006564204C6576656C696E6720004661699E
:100310006C656420746F20656E61626C6520426557
:1003200064204C6576656C696E670A0042656420DE
:100330004C6576656C20436F7272656374696F6E8D
:10034000204D61747269783A004E6F206361736565
:10035000206C696768740A0043290A0061626C6551
:100360006420286D696E2074656D702000436F6C89
:10037000642065787472756465732061726520000D
:10038000496E76616C696420657874727564657213
:100390000A0020643A0020693A0020703A00507246
:1003A0006F6265205A204F66667365743A2000209C
:1003B000466C6F773A2000205A00205900580020E0
:1003C000204D61783A2000205A0020590058002022
:1003D000204D696E3A20004F6666004F6E20005334
:1003E0006F667420656E6473746F70733A20005486
:1003F0006F6F206661722066726F6D207265666530
:1004000072656E636520706F696E740A0020540017
:10041000205200416363656C65726174696F6E3A66
:100420002050002F2F20003A004361703A005448BA
:1004300045524D414C5F50524F54454354494F4EE5
:10044000004155544F5245504F52545F53445F53EF
:10045000544154555300454D455247454E43595F0D
:1004600050415253455200434153455F4C49474820
:10047000545F4252494748544E45535300544F47E6
:10048000474C455F4C494748545300534F465457D7
:100490004152455F504F574552004255494C445FC9
:1004A00050455243454E54004C4556454C494E47E5
:1004B0005F44415441005A5F50524F4245004155FC
:1004C000544F4C4556454C005052494E545F4A4F8C
:1004D000420050524F4752455353004155544F52DA
:1004E00045504F52545F54454D5000564F4C554D5A
:1004F000455452494300454550524F4D00534552D3
:1005000049414C5F584F4E5F584F4646004649524E
:100510004D574152455F4E414D453A4D61726C69B0
:100520006E20312E312E3920284769746875622972
:1005300020534F555243455F434F44455F55524CFE
:100540003A68747470733A2F2F6769746875622EF5
:10055000636F6D2F4D61726C696E4669726D776164
:1005600072652F4D61726C696E2050524F544F432B
:100570004F4C5F56455253494F4E3A312E30204D25
:10058000414348494E455F545950453A3344205001
:1005900072696E7465722045585452554445525FD5
:1005A000434F554E543A3120555549443A343063FF
:1005B00065363164312D326564302D343533302D5C
:1005C000383330342D353565336565616165626674
:1005D000660A0020573A006F6B004D3131332053CB
:1005E000004B494C4C45442E20004543484F0049A0
:1005F0004E464F004552524F5253004452595255A5
:100600004E00434F4D4D554E49434154494F4E00C6
:100610006F666600EA05EF05F405FB050206444532
:100620004255473A0050726F746563746564205098
:10063000696E0A0000011C1D132FFFFFFFFF1E1F24
:1006400012FF18FFFFFF20211124FFFFFFFFFFFF14
:10065000FF0E10FFFFFF22230DFFFFFF0E260F2CC2
:10066000272569730025696D202569730025696850
:100670002025696D20256973002569642025696836
:100680002025696D20256973002569792025696415
:10069000202569682025696D2025697300507269DD
:1006A0006E742074696D653A200043757272656ED0
:1006B000742066696C653A2000456E642066696C3A
:1006C00065206C6973740A00426567696E2066690B
:1006D0006C65206C6973740A00205A3A2000205916
:1006E0003A200042656420583A20000A0A426564B4
:1006F000204C6576656C20436F7272656374696F18
:100700006E204D61747269783A0020284452595223
:10071000554E2900473239204175746F2042656477
:10072000204C6576656C696E67003F2856296572B6
:10073000626F7365206C6576656C20697320696DE6
:10074000706C61757369626C652028302D34292EB8
:100750000A00496E76616C6964206578747275640C
:1007600065720A0041637469766520457874727514
:100770006465723A200020453A00205A3A00205918
:100780003A00583A002C20002C2000486F6D65205C
:1007900058592066697273740A005761726E696EE7
:1007A000673A20486F6D696E672042756D7020440E
:1007B000697669736F72203C20310A00020204627C
:1007C0007573793A2070617573656420666F722065
:1007D000696E7075740A00627573793A207061757C
:1007E00073656420666F7220757365720A006275A6
:1007F00073793A2070726F63657373696E670A006C
:1008000050726F62696E67206661696C65640A0088
:10081000205A3A200020593A200042656420583A74
:1008200020002066697273740A005A00590058004B
:10083000486F6D65200020496E76616C69642065A3
:100840007874727564657220005344207265616427
:10085000206572726F720A00446F6E652070726953
:100860006E74696E672066696C650A004B494C4C72
:1008700045442E20005072696E7465722073746F47
:10088000707065642064756520746F206572726F86
:1008900072732E2046697820746865206572726FC5
:1008A0007220616E6420757365204D39393920746A
:1008B0006F20726573746172742E202854656D7098
:1008C00065726174757265206973207265736574F1
:1008D0002E205365742069742061667465722072DD
:1008E000657374617274696E67290A004E6F2043E4
:1008F0006865636B73756D2077697468206C696EC9
:1009000065206E756D6265722C204C617374204C8D
:10091000696E653A20004E6F20436865636B73759E
:100920006D2077697468206C696E65206E756D62E4
:1009300065722C204C617374204C696E653A2000FE
:10094000636865636B73756D206D69736D61746346
:10095000682C204C617374204C696E653A20004C01
:10096000696E65204E756D626572206973206E6FC9
:1009700074204C617374204C696E65204E756D62F5
:1009800065722B312C204C617374204C696E653A72
:1009900020004D31313000656E7175657565696E89
:1009A00067202200FF01FF0000A0400000A04000DF
:1009B00000004000004843000016430000164300BA
:1009C0000000000000164300000000000048430043
:1009D0000016430000164300000000000000000065
:1009E0000000000000484200004842000080400033
:1009F0000000007C3C3E5E2B3D3F2F5B5D3B2C2A84
:100A0000225C004D3331006F70656E206661696C49
:100A100065642C2046696C653A20006175746F2509
:100A2000692E67006572726F722077726974696EE1
:100A30006720746F2066696C650A004E6F742053DE
:100A400044207072696E74696E670A0053442070A6
:100A500072696E74696E67206279746520004465FE
:100A60006C6574696F6E206661696C65642C2046E4
:100A7000696C653A200046696C652064656C657434
:100A800065643A0057726974696E6720746F2066F6
:100A9000696C653A20006F70656E206661696C65EF
:100AA000642C2046696C653A20006F70656E206684
:100AB00061696C65642C2046696C653A2000466962
:100AC0006C652073656C65637465640A0020536906
:100AD0007A653A200046696C65206F70656E6564C2
:100AE0003A20002066696C653A200066726573687A
:100AF00000646F696E67004E6F772000454E44209A
:100B0000535542524F5554494E450A002220706FAA
:100B100073002220706172656E743A220053554250
:100B2000524F5554494E452043414C4C20746172FC
:100B30006765743A22004B494C4C45442E200074A2
:100B40007279696E6720746F2063616C6C207375B5
:100B5000622D67636F64652066696C6573207769D1
:100B6000746820746F6F206D616E79206C65766596
:100B70006C732E204D4158206C6576656C2069732E
:100B80003A004D3234004D32332025730053442057
:100B900063617264206F6B0A006F70656E526F6FD5
:100BA00074206661696C65640A00766F6C756D65AA
:100BB0002E696E6974206661696C65640A0053442D
:100BC00020696E6974206661696C0A00286E6F2066
:100BD00066696C65290043616E6E6F74206F706585
:100BE0006E2073756264697220003A0A0020286DD5
:100BF0006D290020204D393030204B004C696E6546
:100C0000617220416476616E63653A0A0020204D6E
:100C1000383531205A005A2D50726F6265204F6668
:100C2000667365740020440020490020204D333055
:100C3000312050005049442073657474696E6773A5
:100C40003A0A0020204D3432302053004175746F31
:100C500020426564204C6576656C696E673A0A00CF
:100C6000205A0020590020204D32303620580048AC
:100C70006F6D65206F66667365743A0A00204500E3
:100C8000205A0020590020580020540020530020F2
:100C9000204D32303520510020453C6D61785F6534
:100CA0005F6A65726B3E0020583C6D61785F785FCB
:100CB0006A65726B3E20593C6D61785F795F6A6549
:100CC000726B3E205A3C6D61785F7A5F6A65726B29
:100CD0003E00416476616E6365643A20513C6D6903
:100CE0006E5F7365676D656E745F74696D655F7562
:100CF000733E20533C6D696E5F6665656472617416
:100D0000653E20543C6D696E5F74726176656C5F00
:100D100066656564726174653E002054002052006F
:100D200020204D323034205000416363656C657281
:100D30006174696F6E2028756E6974732F73322920
:100D40003A20503C7072696E745F616363656C3EFB
:100D500020523C726574726163745F616363656C99
:100D60003E20543C74726176656C5F616363656CB0
:100D70003E0A00204500205A0020590020204D3214
:100D800030312058004D6178696D756D2041636385
:100D9000656C65726174696F6E2028756E69747315
:100DA0002F7332293A0A00204500205A00205900AA
:100DB00020204D3230332058004D6178696D756DBB
:100DC000206665656472617465732028756E697448
:100DD000732F73293A0A00204500205A0020590039
:100DE00020204D393220580053746570732070658F
:100DF0007220756E69743A0A0020204D323030201E
:100E000044300A0020204D32303020440020446914
:100E10007361626C65640A0046696C616D656E742D
:100E20002073657474696E67733A0020204732310D
:100E3000202020203B0048617264636F6465642059
:100E400044656661756C742053657474696E67736C
:100E5000204C6F616465640A00DC050000DC05005D
:100E600000DC050000102700000000FA420000FA34
:100E700042000070410000C8410000A0420000A0F4
:100E8000420080FC440000BD42290A0020627974BF
:100E900065733B2063726320002073746F72656416
:100EA0002073657474696E67732072657472696506
:100EB000766564202800202863616C63756C61741A
:100EC000656429210A0020213D2000454550524FEC
:100ED0004D20435243206D69736D61746368202D0A
:100EE000202873746F7265642920002053697A6525
:100EF0003A2000496E6465783A2000204D61726C9A
:100F0000696E3D563535290A0028454550524F4DEA
:100F10003D00454550524F4D2076657273696F6EA6
:100F2000206D69736D617463682000290A00206276
:100F3000797465733B206372632000536574746930
:100F40006E67732053746F726564202800454550A6
:100F5000524F4D206461746173697A6520657272C5
:100F60006F722E0A004572726F722077726974690F
:100F70006E6720746F20454550524F4D210A006F17
:100F800070656E00545249474745524544003A2027
:100F9000007A5F6D696E00795F6D617800785F6DD2
:100FA000696E005265706F7274696E6720656E6459
:100FB00073746F70207374617475730A00205A3AE9
:100FC0000020593A0020583A00656E6473746F70BF
:100FD00073206869743A2000486F6D696E672066F7
:100FE00061696C656400556E6B6E6F776E20636F20
:100FF0006D6D616E643A20220020746F6F206C6FFB
:101000006E6720657874727573696F6E2070726593
:1010100076656E7465640A0020636F6C6420657881
:1010200074727573696F6E2070726576656E746523
:10103000640A00FFFDFCFAF8F6F4F2F0EEECEAE9DF
:10104000E7E5E3E1E0DEDCDAD9D7D5D4D2D0CFCD05
:10105000CBCAC8C7C5C3C2C0BFBDBCBAB9B7B6B496
:10106000B3B2B0AFADACAAA9A8A6A5A4A2A1A09EF8
:101070009D9C9A99989795949392908F8E8D8B8A38
:101080008988878684838281807F7E7D7B7A797858
:1010900077767574737271706F6E6D6C6B6A696858
:1010A00067666564636261605F5E5D5C5B5A595848
:1010B000585756555453525150504F4E4D4C4B4A21
:1010C0004A4948474646454443424241403F3E3EE6
:1010D0003D3C3B3B3A39383837363535343332329C
:1010E0003130302F2E2E2D2C2B2B2A292928272743
:1010F00026252524232322212120201F1E1E1D1CDE
:101100001C1B1B1A1919181817161615151413136A
:1011100012121111100F0F0E0E0D0D0C0C0B0A0AEE
:101120000909080807070606050504040303020267
:1011300001000000000001000000010000800055D7
:101140005555000000400033333300AAAA2A004955
:1011500092240000002000C7711C0099991900D149
:10116000451700555515003BB113002449120011D5
:10117000111100000010000F0F0F00E3380E0043A4
:10118000790D00CCCC0C00C3300C00E8A20B00643D
:10119000210B00AAAA0A00703D0A009DD80900424E
:1011A0007B090092240900DCD3080088880800101D
:1011B00042080000000800F0C1070087870700759B
:1011C000500700711C07003EEB0600A1BC06006939
:1011D00090060066660600703E060061180600175D
:1011E000F4050074D105005BB00500B29005006203
:1011F0007205005555050078390500B81E05000533
:101200000505004EEC040087D40400A1BD04009045
:10121000A7040049920400C17D0400EE690400C7E0
:10122000560400444404005C3204000821040041D8
:10123000100400000004003FF00300F8E003002663
:10124000D20300C3C30300CCB503003AA803000ACD
:101250009B0300388E0300C08103009F750300D0FC
:10126000690300505E03001D5303003448030091DE
:101270003D03003333030016290300381F03009792
:10128000150300300C0300030303000BFA020049AE
:10129000F10200BAE802005CE002002DD802002D45
:1012A000D0020059C80200B0C0020031B90200DA11
:1012B000B10200AAAA0200A0A30200BC9C0200FA8C
:1012C0009502005C8F0200DF8802008282020045E6
:1012D0007C02002776020027700200436A02007C2D
:1012E000640200D05E02003F590200C8530200654C
:1012F00063686F3A004572726F723A00205A3A0082
:1013000020593A0020436F756E7420583A00232C00
:101310000000B8220000561800003A0F0000B8087C
:101320000000B1040000710200003E01000024F43E
:10133000D43050C38E20C2A24017828B7011127A13
:10134000910D816CD90AA861E108C75866076151FF
:1013500043061E4B5D05C145A7041A411104093D12
:101360009803713931034036DB0265339102D43082
:101370005402802E1D02632CEE01752AC501B0288F
:10138000A001102781018F2564012B244B01E0224D
:101390003401AC211F018D200D01801FFC00841E33
:1013A000ED00971DDF00B81CD200E61BC600201B15
:1013B000BC00641AB200B219A8000A19A0006A1889
:1013C0009900D117910040178B00B5168400311693
:1013D0007E00B31579003A157300C7146F005814D6
:1013E0006A00EE1366008813630025135E00C712BF
:1013F0005B006C12570015125400C111510070119E
:101400004F0021114B00D61049008D1047004610A7
:10141000440002104200C00F4000800F3E00420F07
:101420003C00060F3B00CB0E3800930E37005C0EDD
:101430003500270E3400F30D3200C10D3100900D40
:101440003000600D2E00320D2D00050D2C00D90C42
:101450002B00AE0C2900850C29005C0C2700350CF4
:1014600027000E0C2600E80B2400C40B2400A00B60
:1014700023007D0B23005A0B2100390B2100180B90
:101480002000F80A1F00D90A1E00BB0A1E009D0A90
:101490001D00800A1D00630A1C00470A1B002C0A5D
:1014A0001B00110A1A00F7091A00DD091900C40906
:1014B0001900AB091900920917007B09180063098C
:1014C00017004C09160036091600200916000A09F3
:1014D0001500F5081500E0081400CC081400B80841
:1014E0001400A4081400900813007D0812006B0873
:1014F000130058081200460812003408110023088F
:1015000011001208110001081100F0071000E00797
:101510001000D0071000C0071000B0070F00A1078F
:10152000100091070E0083070F0074070F00650776
:101530000E0057070E0049070E003B070D002E074F
:101540000E0020070D0013070D0006070D00F90619
:101550000C00ED060D00E0060C00D4060C00C806D9
:101560000C00BC060C00B0060C00A4060B0099068B
:101570000C008D060B0082060B0077060B006C0634
:101580000B0061060A0057060B004C060A004206D3
:101590000A0038060A002E060A0024060A001A0667
:1015A0000A001006090007060A00FD050900F405F7
:1015B0000900EB050900E2050900D9050900D0057D
:1015C0000900C7050900BE050900B5050800AD05FD
:1015D0000800A50509009C050800940508008C0575
:1015E0000800840508007C050800740508006C05E7
:1015F0000700650508005D050700560508004E0553
:1016000007004705070040050800380507003105B9
:1016100007002A050700230507001C05060016051C
:1016200007000F0507000805060002050700FB0478
:101630000600F5040700EE040600E8040600E204D4
:101640000700DB040600D5040600CF040600C90429
:101650000600C3040600BD040600B7040600B1047A
:101660000500AC040600A6040600A00405009B04C7
:10167000060095040500900406008A040500850410
:101680000500800406007A04050075040500700456
:1016900005006B04050066040500610405005C0498
:1016A000050057040500520405004D0405004804D8
:1016B0000500430405003E0404003A040500350417
:1016C0000500300404002C04050027040400230452
:1016D00005001E0404001A04040016040500110489
:1016E00004000D04040009040500040404000004BF
:1016F0000400FC030400F8030400F4030400F003F6
:101700000400EC030400E8030400E4030400E00325
:101710000400DC030400D8030400D4030400D00355
:101720000400CC030400C8030300C503030024F431
:1017300004D9201BC40C5C0E9804C4095F02650721
:101740007101F405F900FB04B30048048700C103EC
:1017500069005803550003034500BE023A008402A5
:10176000310053022A002902250004022000E4016E
:101770001C00C8011900AF01170098011400840172
:101780001300710110006101100051010E004301AE
:101790000D0036010B002B010B0020010B00150181
:1017A00009000C01090003010800FB000800F30018
:1017B0000800EB000700E4000600DE000600D80089
:1017C0000600D2000600CC000500C7000500C200DC
:1017D0000500BD000400B9000400B5000400B1001C
:1017E0000400AD000400A9000400A5000300A2004D
:1017F00003009F0004009B00030098000300950075
:10180000020093000300900003008D0002008B0093
:1018100003008800020086000200840003008100AB
:1018200002007F0002007D0002007B0002007900C0
:1018300002007700010076000200740002007200CE
:101840000100710002006F0002006D0001006C00D9
:1018500002006A00010069000200670001006600E2
:1018600001006500010064000200620001006100E7
:101870000100600001005F0002005D0001005C00EB
:1018800001005B0001005A000100590001005800EE
:1018900001005700010056000100550001005400EE
:1018A00001005300000053000100520001005100EC
:1018B0000100500001004F0001004E0000004E00EA
:1018C00001004D0001004C0001004B0000004B00E6
:1018D00001004A00010049000100480000004800E2
:1018E00001004700010046000000460001004500DD
:1018F00000004500010044000100430000004300D7
:1019000001004200000042000100410000004100CF
:101910000100400001003F0000003F0001003E00C8
:1019200000003E0001003D0000003D0001003C00C1
:1019300000003C0000003C0001003B0000003B00B8
:1019400001003A0000003A000100390000003900AF
:1019500001003800000038000000380001003700A6
:10196000000037000100360000003600000036009D
:101970000100350000003500000035000100340092
:101980000000340000003400010033000000330088
:10199000000033000100320000003200000032007D
:1019A0000100310000003100000031000100300072
:1019B000000030000000300001002F0000002F0068
:1019C00000002F0000002F0001002E0000002E005C
:1019D00000002E0001002D0000002D0000002D0051
:1019E00000002D0001002C0000002C0000002C0045
:1019F00000002C0001002B0000002B0000002B0039
:101A000000002B0001002A0000002A0000002A002C
:101A100000002A0001002900000029000000290020
:101A20000000290000002900010028000000280013
:101A30000000280000002800000028000100270006
:101A400000002700000027000000270000002700FA
:101A500001002600000026000000260000002600ED
:101A600000002600010025000000250000002500E0
:101A700000002500000025000000250001002400D2
:101A800000002400000024000000240000002400C6
:101A900001002300000023000000230000002300B9
:101AA00000002300000023000000230001002200AA
:101AB000000022000000220000002200000022009E
:101AC0000000220001002100000021000000210090
:101AD0000000210000002100000021000000210082
:101AE0000100200000002000000020000000200075
:101AF0000000200000002000000020000000200066
:101B000001001F0000001F0000001F0000001F0058
:101B100000001F0000001F0000001F0001001E0049
:101B200000001E0000001E0000001E000000290A28
:101B3000002028002920453A0020280029205A3A70
:101B4000002028002920593A0020280020583A0077
:101B5000537465707065722063757272656E74205F
:101B600076616C75657320696E20252028416D7043
:101B700073293A0A0020403A00202F004D383420C3
:101B8000582059205A204500546865726D616C20B8
:101B900052756E6177617900453120544845524D48
:101BA000414C2052554E41574159004B494C4C45F0
:101BB000442E2000202D20496E76616C69642065DA
:101BC00078747275646572206E756D62657220211D
:101BD0000A0048656174696E67206661696C6564B6
:101BE0000045312048656174696E67206661696CE3
:101BF0006564004D494E54454D50207472696767C5
:101C000065726564004531204572723A204D494E37
:101C100054454D50004D415854454D502074726903
:101C2000676765726564004531204572723A204DE0
:101C3000415854454D50006265640A002C20737968
:101C40007374656D2073746F7070656421204865CE
:101C5000617465725F49443A20002CFFFFFFFFFF6B
:101C600000010101010123646566696E6520444538
:101C70004641554C545F4B64200023646566696E91
:101C8000652044454641554C545F4B692000236410
:101C90006566696E652044454641554C545F4B70FE
:101CA0002000504944204175746F74756E6520663C
:101CB000696E697368656421205075742074686565
:101CC000206C617374204B702C204B6920616E6412
:101CD000204B6420636F6E7374616E747320667240
:101CE0006F6D2062656C6F7720696E746F20436F33
:101CF0006E66696775726174696F6E2E680A00504E
:101D00004944204175746F74756E65206661696C15
:101D10006564212074696D656F75740A0054686587
:101D2000726D616C2052756E61776179004531206A
:101D3000544845524D414C2052554E41574159004F
:101D400048656174696E67206661696C6564004509
:101D5000312048656174696E67206661696C6564ED
:101D600000504944204175746F74756E652066613A
:101D7000696C6564212054656D706572617475725B
:101D80006520746F6F20686967680A00204B643AA9
:101D90002000204B693A2000204B703A20000A2096
:101DA000436C617373696320504944200A002054D6
:101DB000753A2000204B753A2000206D61783A205A
:101DC00000206D696E3A200020643A20002062698C
:101DD00061733A2000504944204175746F74756EE8
:101DE000652073746172740A00504944204175740F
:101DF0006F74756E65206661696C6564212042614F
:101E000064206578747275646572206E756D6265A4
:101E1000720A0070012C0190012701B0012201C05B
:101E2000011D01F00118011002130130020E0160C2
:101E300002090190020401C002FF000003FA004001
:101E400003F5008003F000D003EB002004E60070EF
:101E500004E100E004DC004005D700C005D20040EA
:101E600006CD00D006C8008007C3003008BE00F0D1
:101E700008B900C009B400B00AAF00B00BAA00D086
:101E80000CA500000EA000500F9B00C01096005043
:101E900012910000148C00C0158700B0178200B0AA
:101EA000197D00D01B7800001E730040206E00904A
:101EB000226900F024640040275F0090295A00E066
:101EC0002B5500102E500020304B0010324600E001
:101ED00033410090353C001037370070383200A095
:101EE000392D00B03A2800A03B2300603C1E0010B2
:101EF0003D1900903D1400103E0F00703E0A00C0D6
:101F00003E0500003F0000403FFBFF803FF6FFC062
:101F10003FF1FF012902290429082910292029401D
:101F2000298029012C022C012602260426082610CD
:101F300026202640268026402C802C0123022304C4
:101F40002308231023202340238023012002200480
:101F50002008201020202040208020102C202C0140
:101F60002F022F042F082F102F202F402F802F7E7D
:101F7000FE7EFD7EFB7EF77EEF7EDF7EBF7E7F00F6
:101F800001000030201200020000ED1F430003009A
:101F900000E91F0401030904CF1F1802030904B755
:101FA0001F1603030904A91F0C0C03310032003370
:101FB0000034003500000016035500530042002095
:101FC00000530065007200690061006C0000001899
:101FD000035400650065006E0073007900640075AD
:101FE0000069006E006F0000000403090409024349
:101FF00000020100C03209040000010202010005D4
:102000002400100105240100010424020605240611
:1020100000010705820308004009040100020A00CC
:10202000000007050302400000070584024000008D
:102030001201000202000020C01683047202010295
:1020400003010001C1020180360181360833308569
:10205000C9A858B30C3311241FBECFEFD0E2DEBFA6
:10206000CDBF12E0A0E0B1E0EEECFCE701E00BBF79
:1020700002C007900D92A233B107D9F722E1A2E383
:10208000B2E001C01D92A63AB207E1F710E1CAE240
:10209000D0E104C02197FE010E94CDB3C632D10722
:1020A000C9F70E9415AC0C945ABE0C9400004F92D4
:1020B0005F926F927F928F929F92AF92BF92CF92D8
:1020C000DF92EF92FF92CF934B015C0169017A019D
:1020D00020E030E040EA51E40E94EFB32B013C01E4
:1020E0002FE632E143E85AEB0E9409B687FD48C06B
:1020F00022E430E048E453E4C301B2010E9467B433
:1021000018160CF43DC02FE632E143E85AEBC70144
:10211000B6010E9409B687FD33C022E430E046E1F3
:1021200053E4C701B6010E9467B418164CF124EFBE
:102130003DEF4FE951E4C501B4010E9409B687FDA6
:102140001FC022E430E04EE353E4C501B4010E9415
:1021500067B41816ACF027EE3BEF4FE151E4C7012E
:10216000B6010E9409B687FD0BC0C1E022E430E051
:102170004CE053E4C701B6010E9467B418160CF492
:10218000C0E08C2FCF91FF90EF90DF90CF90BF9069
:10219000AF909F908F907F906F905F904F90089539
:1021A000FB0101900020E9F73197AF01461B570B67
:1021B000DC01ED91FC910280F381E02D0994CF9335
:1021C000DF931F92CDB7DEB76983DC01ED91FC91FF
:1021D0000280F381E02D41E050E0BE016F5F7F4F50
:1021E00009950F90DF91CF910895FF920F931F9360
:1021F000CF93DF93F82E092F162FE9E2F4E06491D4
:10220000EF012196662329F08AE992E1D8DFFE01E9
:10221000F6CFEF2DF02F6491EF012196662329F080
:102220008AE992E1CCDFFE01F6CFE7E2F4E06491C7
:10223000EF012196662329F08AE992E1C0DFFE01D1
:10224000F6CF412F50E060E070E08AE992E10E9411
:102250005CAB6AE08AE992E1DF91CF911F910F9127
:10226000FF90ADCF4F925F926F927F92AF92BF92ED
:10227000CF92DF92EF92FF92CF93DF93EB01FC01BD
:1022800060817181828193812CE3C22ED12CE12C5B
:10229000F12CA70196010E948FB3B62EA72ECA017A
:1022A000B901A70196010E948FB36B017C01CA019D
:1022B000B90128E130E040E050E00E948FB32B01EB
:1022C0003C01C9016DE671E00E947BB361157105A7
:1022D000D9F0AF92BF92DF92CF925F924F929F93CD
:1022E0008F937F936F9389E896E09F938F93DF930B
:1022F000CF930E9478BB8DB79EB70E960FB6F89419
:102300009EBF0FBE8DBF61C00097C9F0AF92BF9254
:10231000DF92CF925F924F929F938F9389E796E0DF
:102320009F938F93DF93CF930E9478BBEDB7FEB757
:102330003C960FB6F894FEBF0FBEEDBF46C04114E9
:10234000510461047104B9F0AF92BF92DF92CF9251
:102350005F924F928DE696E09F938F93DF93CF939A
:102360000E9478BB8DB79EB70A960FB6F8949EBFB1
:102370000FBE8DBF2AC0C114D104E104F104A9F03D
:10238000AF92BF92DF92CF9285E696E09F938F93B4
:10239000DF93CF930E9478BBEDB7FEB738960FB6A8
:1023A000F894FEBF0FBEEDBF10C0AF92BF9281E6A2
:1023B00096E09F938F93DF93CF930E9478BB0F900B
:1023C0000F900F900F900F900F90DF91CF91FF9093
:1023D000EF90DF90CF90BF90AF907F906F905F9025
:1023E0004F90089581548A3108F040C0A82FB0E082
:1023F0004091590950915A0960915B0970915C09AB
:1024000004C076956795579547958A95D2F740FF12
:102410002DC0E0916409F0916509A15CB64F8C91E3
:102420008823E1F0E80FF11D808190ED980F9A303C
:1024300080F08E3229F4818180538A3078F409C08B
:102440008D3211F08B3251F4818190ED980F9A30DA
:1024500018F49E2F8F2F04C08E3251F090E080E050
:10246000909360098093610981E0089580E0089568
:10247000828180538A3090F7ECCFB4DF882341F01B
:1024800081E02091600930916109232B09F480E0FB
:1024900008950F931F93CF938091600990916109E4
:1024A000009711F1FC018F01C1912C2F2F7DA9F014
:1024B000C53411F0C536B9F7F801108260E070E05C
:1024C00080916009909161090E94EDB6F801C08386
:1024D000562F472F382F292F0BC060E070E0CF9187
:1024E0001F910F910C94EDB650E040E030E020E0F9
:1024F000652F742F832F922FCF911F910F910895E5
:102500008091600990916109009731F04AE050E0B4
:1025100060E070E00C9453B860E070E0CB01089587
:102520008091600990916109009731F04AE050E094
:1025300060E070E00C947BB960E070E0CB0108953E
:10254000DFDF97FD0AC0DCDF6F3F71058105910574
:1025500009F02CF4D5DF862F089580E008958FEFE1
:1025600008958091600990916109892B31F0E8DF2D
:1025700091E0811103C090E001C091E0892F08959E
:102580000F931F93CF93DF93CDB7DEB72C970FB682
:10259000F894DEBF0FBECDBFE7E9F4E080859185FA
:1025A000A285B3854481558166817781008111813F
:1025B0002281338109871A872B873C874D835E836D
:1025C0006F83788789839A83AB83BC83AE014F5F27
:1025D0005F4FBE016B5F7F4FCE0109960E946D7405
:1025E00023EA34E0AE014F5F5F4FBE016B5F7F4F68
:1025F000CE0109960E94E0822C960FB6F894DEBFB9
:102600000FBECDBFDF91CF911F910F9108952F92F3
:102610003F924F925F926F927F929F92AF92BF9242
:10262000CF92DF92EF92FF920F931F93CF93DF939E
:10263000CDB7DEB764970FB6F894DEBF0FBECDBF3F
:102640002A013B01902EA12E6901082F10E0F8010C
:10265000EC55F64FE491BB24B3941E160CF4B12C48
:10266000FF24F39420E030E0A901C301B2010E94ED
:1026700009B618160CF0F12C000F111F000F111FD6
:10268000C80189569B4F1C01FC01108211821282E5
:10269000138276DFF1014082518262827382E09080
:1026A000BB0220E030E0A901692D7A2DC6010E940D
:1026B00067B4811108C0F801ED51F64F85919591ED
:1026C000A591B49103C0892D9A2DD601898B9A8B3F
:1026D000AB8BBC8B80919F049091A004A091A1042E
:1026E000B091A20440919B0450919C0460919D0480
:1026F00070919E0400919704109198042091990480
:1027000030919A040D871E872F87388B49875A8707
:102710006B877C878D839E83AF83B88719821A82EB
:102720001B821C82AE014B5F5F4FBE01675F7F4F14
:10273000CE010D960E946D74CE0101966C018E0142
:102740000F5E1F4F23EA34E0AE014B5F5F4FBE01C7
:10275000675F7F4F0C960E94FE810E94EE75BF104E
:102760000E942B6964960FB6F894DEBF0FBECDBFF2
:10277000DF91CF911F910F91FF90EF90DF90CF905D
:10278000BF90AF909F907F906F905F904F903F90E1
:102790002F90089563EA74E083E00C94068490918E
:1027A0007A04E92FF0E0E656FD4F80839F5F943076
:1027B00018F490937A0402C010927A0480917C04F9
:1027C0008F5F80937C040895CF93FC0180818B33CD
:1027D000A1F080917C04843080F4C62FBF018091E9
:1027E0007A0420E6829FC001112486509D4F0E94EA
:1027F00049BB8C2FD4DF81E001C080E0CF910895E8
:10280000EF92FF921F93CF93DF937C0160E0DCDFB8
:10281000182F8823C9F0EFEEF2E16491EF012196C1
:10282000662329F08AE992E1CADCFE01F6CFB701FE
:1028300087E999E00E94348562E28AE992E1BFDC8F
:102840006AE08AE992E1BBDC812FDF91CF911F9191
:10285000FF90EF900895DF92EF92FF920F931F93F6
:10286000CF93DF93CDB7DEB76E970FB6F894DEBF88
:102870000FBECDBF6091F8027091F902611571052C
:1028800041F14DE150E0CE0101967C010E94D8BAA1
:102890001E8EF7018F010E191F09D190DD2019F04E
:1028A0009AE0D912F7CFF701E00FF11F1082C701AC
:1028B000A7DF882371F0DD20A9F00F5F1F4F809103
:1028C000F8029091F902080F191F1093F902009372
:1028D000F80281E02091F8023091F902232B29F4CB
:1028E00080E003C000E010E0F0CF6E960FB6F894E1
:1028F000DEBF0FBECDBFDF91CF911F910F91FF9033
:10290000EF90DF9008959093F9028093F802A3CF9F
:10291000EF92FF920F931F93CF93DF937C0184E597
:10292000ACDDD82F882369F10BDEC82F18162CF5E3
:10293000EFEEF2E164918F010F5F1F4F662329F0E4
:102940008AE992E13CDCF801F5CF6DE48AE992E195
:1029500036DCA70160E070E020E08AE992E10E94A5
:1029600000AB6C2FCC0F770B86E398E00E945C8560
:102970006AE08AE992E123DC08C08093AE02D0E0ED
:1029800004C08091BB028093AE028D2FDF91CF9166
:102990001F910F91FF90EF9008950F931F93CF9386
:1029A000DF9394E0899FE00111248E0106531D4FAF
:1029B000FE01EA52FD4FDE01AE51BD4F2D913D911A
:1029C0004D915C9160817181828193810E94F0B30D
:1029D000F8016083718382839383FE01E952F64F8D
:1029E00085919591A591B491FE01E254FD4F8083AC
:1029F0009183A283B383FE01E553F64F85919591B0
:102A0000A591B491C55FDE4F88839983AA83BB8368
:102A1000DF91CF911F910F910895CF92DF92EF92A6
:102A20000F931F93CF93DF93CDB7DEB760970FB6A9
:102A3000F894DEBF0FBECDBFE090BB02E7E9F4E043
:102A400080859185A285B385448155816681778192
:102A500000811181228133810D871E872F87388B5A
:102A600049875A876B877C878D839E83AF83B8871E
:102A700019821A821B821C82AE014B5F5F4FBE011E
:102A8000675F7F4FCE010D960E946D74CE01019657
:102A90006C0109E111E023EA34E0AE014B5F5F4FC6
:102AA000BE01675F7F4F0C960E94FE8160960FB655
:102AB000F894DEBF0FBECDBFDF91CF911F910F9174
:102AC000EF90DF90CF9008954F925F926F927F9238
:102AD0008F929F92AF92BF92CF92DF92EF92FF922E
:102AE0000F931F93CF93DF93CDB7DEB72C970FB61D
:102AF000F894DEBF0FBECDBF6D837E838F83988732
:102B000029873A874B875C874701580136018091B6
:102B1000190190911A01A0911B01B0911C018983A8
:102B20009A83AB83BC83D601CD90DD90ED90FC9071
:102B300020E030E0A901C701B6010E9467B481110D
:102B400006C0EBEEF9E0C590D590E590F490A501B4
:102B5000940160919F047091A0048091A1049091D0
:102B6000A2040E9467B487FF11C0C0921901D092DD
:102B70001A01E0921B01F0921C0180929F04909236
:102B8000A004A092A104B092A20447DFF301408008
:102B900051806280738020E030E0A901C301B2015E
:102BA0000E9467B4811108C0409001015090020159
:102BB00060900301709004014092190150921A0133
:102BC00060921B0170921C018D819E81AF81B8853E
:102BD0008093970490939804A0939904B0939A04D7
:102BE00089859A85AB85BC8580939B0490939C04D2
:102BF000A0939D04B0939E0410DFA5019401609101
:102C00009F047091A0048091A1049091A2040E945D
:102C100009B618168CF4C0921901D0921A01E092EC
:102C20001B01F0921C0180929F049092A004A0923C
:102C3000A104B092A204F1DE0E94EE7589819A810E
:102C4000AB81BC818093190190931A01A0931B0161
:102C5000B0931C012C960FB6F894DEBF0FBECDBF0B
:102C6000DF91CF911F910F91FF90EF90DF90CF9068
:102C7000BF90AF909F908F907F906F905F904F909C
:102C80000895CF92DF92EF92FF920F931F936B0103
:102C9000FC01E080F18002811381E7E9F4E0248106
:102CA00035814681578160817181828193810CDFFA
:102CB0001F910F91FF90EF90DF90CF900895CF92EA
:102CC000DF92EF92FF920F931F936A01E0909F04AF
:102CD000F090A0040091A1041091A204FB012081B6
:102CE000318142815381FC016081718182819381B4
:102CF000EBDE1F910F91FF90EF90DF90CF90089542
:102D00008091190190911A01A0911B01B0911C01B1
:102D10008093F4029093F502A093F602B093F70229
:102D200080911701909118019093F3028093F20221
:102D300084E690E0909318018093170108958091A4
:102D4000F4029091F502A091F602B091F7028093FF
:102D5000190190931A01A0931B01B0931C0180915B
:102D6000F2029091F3029093180180931701089555
:102D7000EF92FF920F931F93CF93DF93882329F055
:102D8000D0918604D095D17001C0D0E0662341F087
:102D90001091860411FB882780F911E0182701C0E3
:102DA00010E0442341F0C0918604C2FB882780F9DB
:102DB000C1E0C82701C0C0E0D11105C0111103C096
:102DC000CC2309F457C0EFEEF2E164917F018FEF5D
:102DD000E81AF80A662329F08AE992E1F0D9F701A6
:102DE000F4CFE0E3F8E064917F018FEFE81AF80A8E
:102DF000662329F08AE992E1E2D9F701F4CFDD23D5
:102E000071F0EEE2F8E064917F018FEFE81AF80AC2
:102E1000662329F08AE992E1D2D9F701F4CF112390
:102E200069F0ECE2F8E064918F010F5F1F4F6623B9
:102E300029F08AE992E1C3D9F801F5CFC11103C0A5
:102E4000E2E2F8E00CC0EAE2F8E06491EF012196DA
:102E50006623B1F38AE992E1B2D9FE01F6CF64911B
:102E6000EF012196662329F08AE992E1A8D9FE01B3
:102E7000F6CFC1E08C2FDF91CF911F910F91FF9082
:102E8000EF900895BF92CF92DF92EF92FF920F934F
:102E90001F93CF93DF93CDB7DEB728970FB6F89483
:102EA000DEBF0FBECDBF90913909981709F47AC0E3
:102EB000B82E882309F453C080E090E0A0EAB0E483
:102EC0008D839E83AF83B887C090AA02D090AB0257
:102ED000E090AC02F090AD0220E030E0A901C70123
:102EE000B6010E9467B487FF0CC0A701960160E09D
:102EF00070E080EA90E40E94EFB36D837E838F835D
:102F0000988720E030E046E153E46D817E818F8137
:102F100098850E9409B6181644F480E090E0A6E176
:102F2000B3E48D839E83AF83B88720919F04309153
:102F3000A0044091A1045091A2046D817E818F81F3
:102F400098850E9409B6181654F419821A821B82B9
:102F50001C82BE016F5F7F4FCE01059692DE6091AD
:102F60009704709198048091990490919A0420910B
:102F70009B0430919C0440919D0450919E041982C1
:102F80001A821B821C82E0909F04F090A0040091A2
:102F9000A1041091A204FE0131966F0195DD8B2DE5
:102FA0000E94366980E028960FB6F894DEBF0FBE07
:102FB000CDBFDF91CF911F910F91FF90EF90DF90E8
:102FC000CF90BF9008954F925F926F927F928F92B1
:102FD0009F92AF92BF92CF92DF92EF92FF920F93A8
:102FE0001F93CF93C82FE82EF12CF701EC55F64F25
:102FF000B490823021F481E045DF811107C167017F
:10300000CC0CDD1CCC0CDD1CF601ED54F64F4590CC
:103010005590659074906B2DBB0C770B880B990BBA
:103020000E9406B54B015C0120E030E040EC5FE31C
:10303000C301B2010E943DB6A50194010E943DB6B4
:10304000AB01BC0100E010E098018C2FE0DAC23047
:1030500041F0F601E955F64F25913591459154918E
:1030600004C020E030E040E450E4C501B4010E9417
:103070003DB64B015C0120E030E0A9010E9467B43D
:10308000882309F45CC0C23021F000E010E0980110
:1030900004C000E010E020E830E4B501A40170585D
:1030A0008C2FB5DAC23009F439C0F701E454F84F77
:1030B000849181111DC0EFEEF2E164917F018FEFE9
:1030C000E81AF80A662329F08AE992E178D8F7012C
:1030D000F4CFEAE9F7E064917F018FEFE81AF80A8C
:1030E000662329F08AE992E16AD8F701F4CF8AE0F1
:1030F000F601ED51F64F4590559065907490682F0C
:1031000070E080E090E00E9406B59B01AC01C30135
:10311000B2010E946BB42B013C0105C0412C512C23
:10312000612C90E4792EA5019401C501B4010E949F
:10313000F0B3AB01BC01930182018C2F68DA81E00E
:1031400090E00C2E01C0880F0A94EAF79091850454
:10315000982B9093850490918604892B8093860404
:10316000F601EE51FD4F10821182128213828C2FD4
:1031700014DCF601E154F64F85919591A591B49137
:10318000F601E956FB4F80839183A283B383C2305B
:10319000D1F42091AA023091AB024091AC0250913F
:1031A000AD0260919F047091A0048091A104909160
:1031B000A2040E94EFB360939F047093A0048093D5
:1031C000A1049093A204DCD9F601E957FB4FD60184
:1031D000A956BB4F8D919D910D90BC91A02D8083E0
:1031E0009183A283B383C23089F480E0CF911F9191
:1031F0000F91FF90EF90DF90CF90BF90AF909F9096
:103200008F907F906F905F904F903CCECF911F91A9
:103210000F91FF90EF90DF90CF90BF90AF909F9075
:103220008F907F906F905F904F900895AF92BF9274
:10323000CF92DF92EF92FF920F931F93CF93DF9382
:1032400083EFA82E81E0B82E97E8E92E94E0F92EBE
:1032500007E914E02AECC22E22E0D22EC0E0D0E032
:10326000F50181915F01BED8882319F112D9FE01C1
:10327000E251FD4F2081211104C02091BA02222386
:1032800041F0F80120813181428153810E94F0B3E5
:103290000AC0C330D10539F0F60120813181428165
:1032A00053810E94EFB3F70160837183828393831C
:1032B0000AC0F80180819181A281B381F7018083E6
:1032C0009183A283B3832196F4E0EF0EF11C0C5F8F
:1032D0001F4F84E0C80ED11CC430D10509F0C0CF07
:1032E00086E4CBD88823B9F0D4D820E030E0A90117
:1032F0000E9409B618167CF4CCD820E030E040E7F4
:1033000052E40E946BB46093190170931A01809388
:103310001B0190931C01DF91CF911F910F91FF90A2
:10332000EF90DF90CF90BF90AF900895CF92DF9253
:10333000EF92FF920F931F93CF93DF930FB6F89402
:10334000C0908F12D0909012E0909112F090921253
:103350000FBE8091B902811174C080910001882351
:1033600009F46FC080919902882309F46AC04091E2
:103370009502509196026091970270919802970180
:103380008601041B150B260B370B37FD6DC08330F0
:1033900031F134F481300CF454C0EFEEF2E106C0A8
:1033A000843009F04EC0EFEEF2E133C06491EF01DA
:1033B0002196662331F08AE992E10E94DF10FE0136
:1033C000F5CFEEEEF7E06491EF012196662309F464
:1033D00038C08AE992E10E94DF10FE01F4CFEFEEDF
:1033E000F2E16491EF012196662331F08AE992E1DE
:1033F0000E94DF10FE01F5CFE7EDF7E06491EF01E9
:1034000021966623F1F08AE992E10E94DF10FE0125
:10341000F5CF6491EF012196662331F08AE992E1BC
:103420000E94DF10FE01F5CFEFEBF7E06491EF01B2
:103430002196662331F08AE992E10E94DF10FE01B5
:10344000F5CF2091000130E0A8EEB3E00E94D6B3A2
:10345000C60ED71EE81EF91EC0929502D0929602A3
:10346000E0929702F0929802DF91CF911F910F9115
:10347000FF90EF90DF90CF9008950F931F93CF931D
:10348000DF9300D000D0CDB7DEB780918504837084
:103490008330E9F0EFEEF2E164918F010F5F1F4F8F
:1034A000662331F08AE992E10E94DF10F801F4CF3F
:1034B000EBE8F7E064918F010F5F1F4F662309F47B
:1034C0003DC08AE992E10E94DF10F801F3CF58D89D
:1034D00080E090E0A6E9B2E480938B0490938C04A2
:1034E000A0938D04B0938E0480919F049091A004CA
:1034F000A091A104B091A20480938F0490939004B2
:10350000A0939104B093920480E090E0A0EAB2E42A
:103510008093870490938804A0938904B0938A04CD
:1035200019821A821B821C82AE014F5F5F4F6BE8CB
:1035300074E087E894E0C3DB82E045DD0F900F90F4
:103540000F900F90DF91CF911F910F910895CF931E
:10355000DF93E8ECF6E06491EF012196662331F009
:103560008AE992E10E94DF10FE01F5CF88EA94E03B
:103570000E94D24FE9EBF6E06491EF0121966623B9
:1035800031F08AE992E10E94DF10FE01F5CFDF9170
:10359000CF9108958091AB048823A9F083E50E9420
:1035A0003D12882381F00E948012AB01BC01409340
:1035B000160750931707609318077093190785E64D
:1035C00096E00C945D430895CF93DF9383E40E94CB
:1035D000F211882399F0EAEAF6E06491EF0121966E
:1035E000662331F08AE992E10E94DF10FE01F5CFF7
:1035F00088EA94E0DF91CF910C94185088EA94E027
:10360000DF91CF910C9446510F931F93CF93DF938B
:10361000CDB7DEB769970FB6F894DEBF0FBECDBF4A
:103620000E942C956E8B7F8B888F998FBE016F5F68
:103630007F4FCE0146960E943211EFEEF2E1649187
:103640008F010F5F1F4F662331F08AE992E10E94DC
:10365000DF10F801F4CFBE016F5F7F4F8DE996E078
:103660000E9434856AE08AE992E10E94DF1069963F
:103670000FB6F894DEBF0FBECDBFDF91CF911F9183
:103680000F910895CF938091AA0481110E94EE7545
:103690008091AB048823A9F180E50E943D12882324
:1036A00021F00E94B112C82F04C080E50E94F211DF
:1036B000C82F60916209709163092C2F41E088EA5C
:1036C00094E00E942B5383E50E943D12882381F0F1
:1036D0000E948012AB01BC0140931607509317075C
:1036E000609318077093190785E696E00E945D4382
:1036F00088EA94E00E94B150C11103C0CF910C94AC
:103700006B95CF910895CF93DF93E5EFF2E164914C
:10371000EF012196662331F08AE992E10E94DF10E1
:10372000FE01F5CFE5E2F6E06491EF012196662314
:1037300031F08AE992E10E94DF10FE01F5CFDF91BE
:10374000CF91089588E690E0E3D8811122C080915E
:10375000A70483FD1EC083E50E943D128823B9F0B3
:103760000E9449120E94D3B47093C8116093C7118C
:1037700080E00E94A2980E94491220E030E04AEACC
:1037800052E40E9467B4181614F00E94D5940C9469
:1037900000850895CF93DF9389E690E0B9D8811131
:1037A00016C0E7EDF5E06491EF012196662331F054
:1037B0008AE992E10E94DF10FE01F5CF0E94DE9CB3
:1037C0006AE08AE992E1DF91CF910C94DF10DF91FA
:1037D000CF910895CF92DF92EF92FF9283E50E94FE
:1037E0003D12882321F10E94A0128D3308F08CE352
:1037F000809379110FB6F894C0908F12D0909012E8
:10380000E0909112F09092120FBE282F30E0A8EEB7
:10381000B3E00E94D6B3C60ED71EE81EF91EC092B2
:103820007511D0927611E0927711F0927811FF9095
:10383000EF90DF90CF90089580E50E943D128111B6
:1038400006C083E50E943D12882359F005C00E94FE
:10385000A01281110CC0F5CF0E9480126F3F71053C
:1038600010F06FEF70E07093BD026093BC0208959A
:10387000DF92EF92FF920F931F93CF93DF9383E535
:103880000E94F211882359F083E50E943D1288239B
:1038900019F00E94A01201C080E08093A704EFEE0F
:1038A000F2E16491EF012196662331F08AE992E119
:1038B0000E94DF10FE01F5CFEEE1F6E06491EF012A
:1038C0002196662331F08AE992E10E94DF10FE0121
:1038D000F5CF8091A7048823A9F184E1E82E86E042
:1038E000F82E00E010E020E08091A70490E0002E88
:1038F00002C0959587950A94E2F780FF1AC0DD24EF
:10390000D394D20E222329F06CE28AE992E10E943C
:10391000DF10F70185919491FC016491EC012196EF
:10392000662331F08AE992E10E94DF10CE01F4CFE4
:103930002D2D0F5F1F4FF2E0EF0EF11C053011052A
:1039400099F60DC0E0E1F6E06491EF01219666235F
:1039500031F08AE992E10E94DF10FE01F5CF6AE0C2
:103960008AE992E1DF91CF911F910F91FF90EF9043
:10397000DF900C94DF10CF93DF9383E50E943D121C
:10398000882351F00E94A0128D3308F08CE38093BD
:103990000001DF91CF910895EFEEF2E16491EF0124
:1039A0002196662331F08AE992E10E94DF10FE0140
:1039B000F5CF4091000150E060E070E08AED95E0C5
:1039C0000E94BA856AE08AE992E1DF91CF910C9476
:1039D000DF104F925F926F927F92AF92BF92CF9221
:1039E000DF92EF92FF920F931F93CF9383EFA82E56
:1039F00081E0B82E0EE01AE0C0E0F50181915F0190
:103A00000E94F211882309F46DC0C33009F063C02D
:103A10000E9449126B017C0120E030E040EA51E451
:103A20000E9467B487FF4EC0A701960160911A0AF1
:103A300070911B0A80911C0A90911D0A0E946BB420
:103A40002B013C019B01AC016091E6097091E709F3
:103A50008091E8099091E9090E943DB66093E609DA
:103A60007093E7098093E8099093E909A301920113
:103A700060912A0A70912B0A80912C0A90912D0A4C
:103A80000E943DB660932A0A70932B0A80932C0AF9
:103A900090932D0A60913E0A70913F0A8091400AEE
:103AA0009091410A0E9404B5A30192010E943DB683
:103AB0000E94D8B460933E0A70933F0A8093400AF4
:103AC0009093410AC0921A0AD0921B0AE0921C0AF3
:103AD000F0921D0A07C00E944912F80160837183A9
:103AE00082839383CF5F0C5F1F4FC43009F085CF73
:103AF000CF911F910F91FF90EF90DF90CF90BF90EB
:103B0000AF907F906F905F904F900C94DC840F93F8
:103B10001F93CF93DF93C7E9D4E00AEC12E0F801DA
:103B20002081318142815381688179818A819B81A1
:103B30000E94F0B3AB01BC0182E897E00E94998536
:103B4000F80124813581468157816C817D818E8188
:103B50009F810E94F0B3AB01BC018EE797E00E9409
:103B60009985F80120853185428553856885798559
:103B70008A859B850E94F0B3AB01BC018AE797E080
:103B80000E9499854C855D856E857F8586E797E0E7
:103B90000E949985DF91CF911F910F910C94BA9259
:103BA0004F925F926F927F928F929F92AF92BF924D
:103BB000CF92DF92EF92FF920F931F93CF93DF93F9
:103BC00083EFC82E81E0D82E92EEE92E92E0F92EF6
:103BD00000E010E0C0E0D0E0F60181916F010E94AA
:103BE0003D12882309F44DC00E9449124B015C012B
:103BF000C33059F0F801E653FD4F208131814281F5
:103C000053810E94EFB34B015C01F801E956FB4F71
:103C10002081318142815381C501B4010E94EFB3FB
:103C20002B013C012DEB37E346E855EB0E9409B62A
:103C300087FD0AC02DEB37E346E855E3C301B20127
:103C40000E9467B41816ECF4C33051F48092A304B8
:103C50009092A404A092A504B092A604D1E011C051
:103C6000A3019201F70160817181828193810E9499
:103C7000F0B3F70160837183828393838C2F0E945A
:103C8000CD14CF5FF4E0EF0EF11C0C5F1F4FC4307A
:103C900009F0A2CFD1110E94CA13DF91CF911F91D9
:103CA0000F91FF90EF90DF90CF90BF90AF909F90DB
:103CB0008F907F906F905F904F9029CFCF93DF933D
:103CC000EDE0F5E06491EF012196662331F08AE999
:103CD00092E10E94DF10FE01F5CF60E08DEF94E0ED
:103CE0000E94F51061E086EF94E00E94F51061E01B
:103CF0008BEE94E00E94F51061E08BED94E00E9461
:103D0000F51060E082ED94E00E94F51061E088EC2F
:103D100094E00E94F51061E08EEB94E00E94F510B3
:103D200061E086EB94E00E94F51061E088EA94E09F
:103D30000E94F51060E08AE994E00E94F51060E0CE
:103D40008BE894E00E94F51060E08DE794E00E941B
:103D5000F51060E087E694E00E94F51060E086E5EB
:103D600094E00E94F51060E081E494E00E94F51078
:103D700061E08EE294E0DF91CF910C94F510FF9218
:103D80000F931F93CF93DF93C0916209D091630982
:103D900083E0F12C40E08150D1F09881292F2B7FD6
:103DA0002134C9F729812133B1F7913421F09534B9
:103DB00021F441E002C0FF24F3949E012E5F3F4FA7
:103DC000E9012F5F3F4F98819032D1F3E4CF442334
:103DD00071F0EFEEF2E164918F010F5F1F4F6623E8
:103DE00031F08AE992E10E94DF10F801F4CFFF2060
:103DF00071F0E3E2F4E064918F010F5F1F4F6623DF
:103E000031F08AE992E10E94DF10F801F4CFBE019F
:103E10008AE992E10E94D0106AE08AE992E1DF919A
:103E2000CF911F910F91FF900C94DF10CF9388ECEE
:103E300090E00E948814811140C084E40E94F21135
:103E40008823C1F10E944912C1E020E030E0A901BD
:103E50000E9467B4811101C0C0E0C0936609CC2301
:103E600049F10E944912E091AE0224E0E29FF00184
:103E70001124EA52F64F608371838283938320E09A
:103E800030E0A9016091D6097091D7098091D809D5
:103E90009091D9090E9467B481110CC080E090E034
:103EA000A0EEBFE38093D6099093D709A093D809D9
:103EB000B093D909CF910C940874CF910895CF9302
:103EC00083E50E943D128823A1F00E94491260936D
:103ED000F6097093F7098093F8099093F9096093B4
:103EE000EE097093EF098093F0099093F109C0E017
:103EF00001C0C1E080E50E943D12882359F00E9474
:103F000049126093F6097093F7098093F80990932A
:103F1000F909C0E082E50E943D12882359F00E9411
:103F200049126093F2097093F3098093F409909316
:103F3000F509C0E084E50E943D12882359F00E94F3
:103F400049126093EE097093EF098093F009909302
:103F5000F1092CC0CC2351F14091F6095091F70999
:103F60006091F8097091F90983E194E00E949985C4
:103F70004091F2095091F3096091F4097091F509AB
:103F800080E194E00E9499854091EE095091EF09FB
:103F90006091F0097091F1098DE094E00E9499859B
:103FA0006AE08AE992E1CF910C94DF10CF910895F5
:103FB00081E50E94F211882351F00E9490126093D3
:103FC0002E0A70932F0A8093300A9093310A83E56A
:103FD0000E94F211882351F00E9449126093FA095D
:103FE0007093FB098093FC099093FD0984E50E947E
:103FF000F211882351F00E9449126093EA097093EC
:10400000EB098093EC099093ED0988E50E94F21189
:10401000882351F00E9449126093DA097093DB09FA
:104020008093DC099093DD0989E50E94F2118823D1
:1040300051F00E9449126093DE097093DF0980936A
:10404000E0099093E1098AE50E94F211882351F07A
:104050000E9449126093E2097093E3098093E40996
:104060009093E50985E40E94F211882351F00E94A3
:1040700049126093E6097093E7098093E8099093E9
:10408000E9090895EF92FF920F931F93CF9383EF67
:10409000E82E81E0F82E06ED12E0C0E0F7018191F4
:1040A0007F010E94F211882351F00E944912F80109
:1040B00060837183828393838C2F0E94CD14CF5FA2
:1040C0000C5F1F4FC33051F7CF911F910F91FF909D
:1040D000EF901DCDCF93DF93EFEEF2E16491EF010E
:1040E0002196662331F08AE992E10E94DF10FE01F9
:1040F000F5CF83E50E94F211882321F00E94B112CE
:1041000080930A01EFEDF3E06491EF0121966623BD
:1041100031F08AE992E10E94DF10FE01F5CF809133
:104120000A01811103C0E7EDF3E002C0EBEDF3E01B
:104130006491EF012196662331F08AE992E10E94B1
:10414000DF10FE01F5CFEFECF3E06491EF01219673
:10415000662331F08AE992E10E94DF10FE01F5CF7B
:104160002091CA023091CB024091CC025091CD02F5
:104170006091BE027091BF028091C0029091C10215
:104180000E94F0B3AB01BC018DEC93E00E949985D5
:104190002091CE023091CF024091D0025091D102B5
:1041A0006091C2027091C3028091C4029091C502D5
:1041B0000E94F0B3AB01BC018AEC93E00E949985A8
:1041C0002091D2023091D3024091D4025091D50275
:1041D0006091C6027091C7028091C8029091C90295
:1041E0000E94F0B3AB01BC0187EC93E00E9499857B
:1041F000EFEBF3E06491EF012196662331F08AE959
:1042000092E10E94DF10FE01F5CF2091CA023091A9
:10421000CB024091CC025091CD0260910B01709184
:104220000C0180910D0190910E010E94F0B3AB0141
:10423000BC018DEB93E00E9499852091CE023091D4
:10424000CF024091D0025091D10260910F01709144
:10425000100180911101909112010E94F0B3AB0105
:10426000BC018AEB93E00E9499852091D2023091A3
:10427000D3024091D4025091D50260911301709104
:10428000140180911501909116010E94F0B3AB01C9
:10429000BC0187EB93E00E9499856AE08AE992E18C
:1042A000DF91CF910C94DF100F931F93CF93DF9387
:1042B0008DED90E00E948814811170C083E50E940A
:1042C0003D128823B9F1C091AE02D0E00E94801265
:1042D000CC0FDD1FC25DDE4F798368838091AE0213
:1042E00090E0EC01CC0FDD1FCC0FDD1F8E01065DD1
:1042F0001E4F880F991FFC01E25DFE4F60817181A6
:10430000072E000C880B990B0E9406B52AE037EDAA
:1043100043E25CE30E943DB6CE52D64F28813981FC
:104320004A815B810E943DB6F8016083718382837C
:10433000938334C0EFEEF2E16491EF01219666239E
:1043400031F08AE992E10E94DF10FE01F5CF65E4C9
:104350008AE992E10E94DF106091AE02605D8AE915
:1043600092E10E94DF10E091AE02F0E0EE0FFF1F3D
:10437000E25DFE4F608171818FEA93E00E945C856F
:1043800065E28AE992E10E94DF106AE08AE992E13F
:10439000DF91CF911F910F910C94DF10DF91CF919E
:1043A0001F910F9108954F925F926F927F92AF92FB
:1043B000BF92CF92DF92EF92FF920F931F93CF9312
:1043C000DF9333EFC32E31E0D32E4EE0E42E4AE0EC
:1043D000F42EC0E0D0E0F60181916F010E943D1201
:1043E00081110AC0C230D10509F045C083E50E94A1
:1043F0003D12882309F43FC00E94491220E030E0BA
:1044000040E050EC0E9467B487FD52C00E94491200
:1044100020E030E040E050E40E9409B618160CF4A9
:1044200041C00E9449122B013C01F70120813181DA
:10443000428153818091850490E00C2E02C09595B5
:1044400087950A94E2F780FF13C08E01000F111FB9
:104450000B541E4EF801A080B180C301B2010E942E
:104460003DB60E94D3B46A0D7B1DF8017183608351
:10447000C230D10519F12196F4E0EF0EF11CC330E2
:10448000D10509F0A8CFDF91CF911F910F91FF9037
:10449000EF90DF90CF90BF90AF907F906F905F9044
:1044A0004F900895412C512C612C20E4722EBDCFE9
:1044B000412C512C612C90EC792EB7CF80E50E94D5
:1044C000F211882321F00E94B1128823A1F2A301E6
:1044D00092016091AA027091AB028091AC0290911E
:1044E000AD020E94F0B36093AA027093AB02809376
:1044F000AC029093AD02EFEEF2E164918F010F5F99
:104500001F4F662331F08AE992E10E94DF10F80123
:10451000F4CF4091AA025091AB026091AC0270912D
:10452000AD028EE993E00E9499856AE08AE992E102
:104530000E94DF10A0CFCF93DF9385E40E943D124D
:10454000811110C080E50E94F211882391F00E9431
:1045500049126093C3117093C4118093C511909355
:10456000C61107C00E94A012882361F3E5EFF2E1B3
:1045700072C089E40E94F211882381F00E944912DE
:104580002CEA35EC47E25EE30E943DB66093BF1132
:104590007093C0118093C1119093C21184E40E9462
:1045A000F211882381F00E9449122CEA35EC47E28F
:1045B0005EE30E946BB46093BB117093BC11809357
:1045C000BD119093BE11EFEEF2E16491EF012196DF
:1045D000662331F08AE992E10E94DF10FE01F5CFF7
:1045E0004091C3115091C4116091C5117091C611D1
:1045F0008AE993E00E9499852CEA35EC47E25EE374
:104600006091BF117091C0118091C1119091C21140
:104610000E946BB4AB01BC0186E993E00E949985CE
:104620002CEA35EC47E25EE36091BB117091BC115E
:104630008091BD119091BE110E943DB6AB01BC01AD
:1046400082E993E00E9499856AE08AE992E1DF912C
:10465000CF910C94DF106491EF012196662331F025
:104660008AE992E10E94DF10FE01F5CFE0E8F3E075
:104670006491EF012196662331F08AE992E10E946C
:10468000DF10FE01F5CFDF91CF910895CF93DF9337
:1046900083E50E94F211C82F882371F00E9449120D
:1046A0000E94D3B470934D0160934C0121E0672BBD
:1046B00009F020E02093AE1180E50E94F2118823DA
:1046C00059F020914C0130914D01232B11F00E94A3
:1046D000B1128093AE1131C0C1112FC0EFEEF2E1E3
:1046E0006491EF012196662331F08AE992E10E94FC
:1046F000DF10FE01F5CF8091AE11811103C064ED92
:1047000071E002C061ED71E08DE693E00E943485B6
:1047100060914C0170914D018CE593E00E945C85A5
:10472000E8E5F3E06491EF012196662331F08AE930
:1047300092E10E94DF10FE01F5CFDF91CF91089545
:104740008F929F92AF92BF92EF92FF920F931F931F
:10475000CF93DF9300D000D0CDB7DEB785E40E94C1
:104760003D12882321F00E9480128B0102C000E0DC
:1047700010E083E40E943D12882321F00E94801201
:10478000F62E02C025E0F22E85E50E943D12882318
:1047900021F00E94B112E82E04C085E50E94F211BA
:1047A000E82E17FD07C0812C912C96E1A92E93E4E9
:1047B000B92E06C0812C912C8CE8A82E82E4B82E4C
:1047C00083E50E943D12882321F00E9449124B018B
:1047D0005C01C501B4010E94D3B40115110511F4A7
:1047E0001092AE02072E000C880B990B0E9406B5A2
:1047F00069837A838B839C832E2D4F2D602FCE016E
:1048000001960E94319D0F900F900F900F90DF91B5
:10481000CF911F910F91FF90EF90BF90AF909F901D
:104820008F9008952F923F924F925F926F927F9256
:104830008F929F92AF92BF92CF92DF92EF92FF92B0
:104840000F931F93CF93DF93CDB7DEB72F970FB69C
:10485000F894DEBF0FBECDBF41E061E081E00E9471
:10486000B8168111BAC09FEB892E99E0992E87E97D
:1048700094E09E878D87FE0131965F0104EA19E07E
:104880001F01F3E0F00FFF87F401659175918591A9
:104890009491ED85FE85C190D190E190F190FE87D5
:1048A000ED87A70196010E94EFB32B013C0120E0A8
:1048B00030E040EA51EC0E9409B687FD10C020E0CC
:1048C00030E040EA51E4C301B2010E9467B4181617
:1048D00034F0F10140825182628273820DC0F8018E
:1048E00084911816B4F7F7FAF094F7F8F094F10100
:1048F000C082D182E282F382F101C190D190E19035
:10490000F1901F0120E030E040EA51ECC701B60110
:104910000E9409B687FF03C0E5EFF2E10BC020E07B
:1049200030E040EA51E4C701B6010E9467B41816AE
:10493000E4F4F2CF64918F010F5F1F4F662331F0D3
:104940008AE992E10E94DF10F801F4CFEFEEF3E084
:1049500064918F010F5F1F4F662309F43EC08AE9FF
:1049600092E10E94DF10F801F3CFF4E08F0E911C6A
:104970000F5F1F4F8F85801387CF86EDE82E82E073
:10498000F82E10E0F50181919191A191B1915F0113
:10499000F70181939193A193B1937F01812F0E949D
:1049A000CD141F5F133071F72F960FB6F894DEBF4A
:1049B0000FBECDBFDF91CF911F910F91FF90EF9070
:1049C000DF90CF90BF90AF909F908F907F906F902F
:1049D0005F904F903F902F909AC82F960FB6F89403
:1049E000DEBF0FBECDBFDF91CF911F910F91FF9022
:1049F000EF90DF90CF90BF90AF909F908F907F907F
:104A00006F905F904F903F902F900895CF93DF93DA
:104A10000E949C678823D1F0EFEEF2E16491EF01F0
:104A20002196662331F08AE992E10E94DF10FE01AF
:104A3000F5CFE4EFF2E06491EF012196662331F0C7
:104A40008AE992E10E94DF10FE01F5CFDF91CF915C
:104A50000895CF92DF92EF92FF92CF93DF938AE592
:104A60000E943D12882309F43AC00E9449126B014A
:104A70007C0120E030E040EA50EC0E9409B687FD5E
:104A800013C020E030E040EA51E4C701B6010E94C3
:104A900067B418164CF0C092AA02D092AB02E09212
:104AA000AC02F092AD024CC0E5EFF2E16491EF018F
:104AB000219661110EC0E8EDF2E06491EF012196BC
:104AC000662309F43DC08AE992E10E94DF10FE01ED
:104AD000F4CF8AE992E10E94DF10FE01E7CFEFEE0A
:104AE000F2E16491EF012196662331F08AE992E1C7
:104AF0000E94DF10FE01F5CFE9ECF2E06491EF01D6
:104B00002196662331F08AE992E10E94DF10FE01CE
:104B1000F5CF4091AA025091AB026091AC02709126
:104B2000AD0286EC92E00E9499856AE08AE992E102
:104B3000DF91CF91FF90EF90DF90CF900C94DF103A
:104B4000DF91CF91FF90EF90DF90CF900895CF92BB
:104B5000DF92EF92FF92CF93DF938BE40E943D129E
:104B60008823B1F18BE40E943D128823B1F00E94AA
:104B700049126B017C0120E030E0A9010E9409B6D6
:104B800087FD19C020E030E040E251E4C701B601E2
:104B90000E9467B418167CF003C0C12CD12C76019A
:104BA0000E94EE75C0927F09D0928009E09281093F
:104BB000F092820931C0E7EAF2E06491EF012196B8
:104BC000662351F18AE992E10E94DF10FE01F5CFE0
:104BD000EFEEF2E16491EF012196662331F08AE96C
:104BE00092E10E94DF10FE01F5CF40917F095091C4
:104BF000800960918109709182098CE992E00E949C
:104C000099856AE08AE992E1DF91CF91FF90EF9078
:104C1000DF90CF900C94DF10DF91CF91FF90EF9059
:104C2000DF90CF900895CF92DF92EF92FF920F9393
:104C30001F93CF9383E50E94F211811104C003EF0B
:104C400011E0C0E00EC00E9449126B017C01C0E07F
:104C5000B701A6018C2F0E94F893CF5FC530C1F732
:104C6000EECFF80181918F010E94F211882339F073
:104C70000E944912AB01BC018C2F0E94F893CF5FB8
:104C8000C43079F7CF911F910F91FF90EF90DF9093
:104C9000CF900895CF93DF9383E50E943D12882340
:104CA00021F00E948012EB0102C0C0E0D0E080E55C
:104CB0000E943D12882319F00E94A01201C08FEFBC
:104CC000BE01DF91CF910C943994CF93DF93E5EF40
:104CD000F2E16491EF012196662331F08AE992E1D5
:104CE0000E94DF10FE01F5CFE9E4F3E06491EF01EB
:104CF0002196662331F08AE992E10E94DF10FE01DD
:104D0000F5CFDF91CF9108951F93CF93DF93182FA5
:104D1000EFEEF2E16491EF012196662331F08AE92A
:104D200092E10E94DF10FE01F5CF64E58AE992E18D
:104D30000E94DF10412F50E060E070E020E08AE93F
:104D400092E10E9400AB60E28AE992E10E94DF10EA
:104D5000E2E5F7E06491EF012196662331F08AE9FC
:104D600092E10E94DF10FE01F5CFDF91CF911F91FC
:104D70000895CF93DF93E0917B04F0E0E656FD4F7A
:104D800080818823A1F0E0E9F2E06491EF012196AF
:104D9000662331F08AE992E10E94DF10FE01F5CF2F
:104DA0006AE08AE992E1DF91CF910C94DF10DF9104
:104DB000CF910895CF92DF92EF92FF92CF93DF933E
:104DC00020910A01222309F485C0EC01C090BE02A3
:104DD000D090BF02E090C002F090C102A7019601FE
:104DE000688179818A819B810E9467B487FF04C0B2
:104DF000C882D982EA82FB82C090C202D090C302EC
:104E0000E090C402F090C502A70196016C817D81FB
:104E10008E819F810E9467B487FF04C0CC82DD82AF
:104E2000EE82FF82C0900B01D0900C01E0900D014A
:104E3000F0900E01A7019601688179818A819B819A
:104E40000E9409B6181624F4C882D982EA82FB822D
:104E5000C0900F01D0901001E0901101F09012016C
:104E6000A70196016C817D818E819F810E9409B688
:104E7000181624F4CC82DD82EE82FF82C090C60236
:104E8000D090C702E090C802F090C902A701960135
:104E9000688579858A859B850E9467B487FF04C0F1
:104EA000C886D986EA86FB86C0901301D09014018B
:104EB000E0901501F0901601A701960168857985AB
:104EC0008A859B850E9409B6181624F4C886D9865F
:104ED000EA86FB86DF91CF91FF90EF90DF90CF9035
:104EE0000895CF93DF9380E00E94DA75CEE9D2E097
:104EF000688379838A839B8381E00E94DA756C835F
:104F00007D838E839F8382E00E94DA75688779872C
:104F10008A879B87DF91CF910895CF93DF93E1DF5D
:104F20006BE58AE992E10E94DF10CEE9D2E0488188
:104F300059816A817B8122E08AE992E10E9469AB12
:104F40004C815D816E817F8188E897E00E94998520
:104F5000488559856A857B8585E897E00E94998513
:104F60006DE58AE992E10E94DF106AE08AE992E148
:104F7000DF91CF910C94DF10CF93C82FB2DF8EE971
:104F800092E00E94F374CE3F51F48CE0EEE9F2E03F
:104F9000A7E9B4E001900D928A95E1F713C024E0EF
:104FA000C29FC0011124FC01E956FB4FDC01A2564F
:104FB000BD4F8D919D910D90BC91A02D80839183CB
:104FC000A283B383CF910895CF939091D10989178C
:104FD00089F0C82F0E94EE75C093D109C11103C09A
:104FE0008EEFCADF04C087E994E00E94F374CF918A
:104FF0000C94C012CF91089580E0E6DF8DEA99E02D
:105000000C94B0A58F929F92AF92BF92EF92FF92B5
:105010000F931F93CF93DF9300D000D0CDB7DEB7AF
:10502000182F909185049770973079F48FE40E943F
:105030003D12882329F00E94B112882331F094C0D8
:105040008FE40E94F21181118FC00E94EE7580E002
:10505000BBDF0E94801681E00E94236911111AC0F3
:1050600088E50E94F211F82E89E50E94F211082FBE
:105070008AE50E94F211E82EF11007C0011111C05B
:10508000811110C0F02E11E00DC0002351F0F02E60
:10509000182F08C001E0FF24F394EE24E39411E0FC
:1050A00001C010E080E1E7E9F4E0A7E8B4E0019096
:1050B0000D928A95E1F782E50E943D12882361F006
:1050C0000E9449124B015C0120E030E0A9010E94DE
:1050D00067B4882369F105C0812C912C80E4A82E47
:1050E000BA2C111104C0F11002C0002391F180927A
:1050F0008F0490929004A0929104B0929204209117
:105100009F043091A0044091A1045091A204C501D4
:10511000B4010E9409B618165CF419821A821B8227
:105120001C82BE016F5F7F4F8FE894E00E944116A2
:10513000111105C0F11003C0011106C00AC080E0C2
:105140000E94E3171123C1F381E00E94E3171111BC
:1051500001C0E1100E943D1A0E94C0120E942669FF
:105160000E949F160E94871D0F900F900F900F9026
:10517000DF91CF911F910F91FF90EF90BF90AF9073
:105180009F908F900895CF93DF93C82F0E94EE7564
:10519000D091D10980E018DFCC2321F08C2FDF9152
:1051A000CF91B2CD1092BB028D2F0EDFEFEEF2E168
:1051B0006491EF012196662331F08AE992E10E9421
:1051C000DF10FE01F5CF6091BB0270E084E697E04E
:1051D0000E945C856AE08AE992E1DF91CF910C94AC
:1051E000DF100F931F93CF93DF93CDB7DEB72C97CC
:1051F0000FB6F894DEBF0FBECDBF83E50E94F2115B
:10520000882341F00E94B112182F811105C080E05F
:10521000DBDE02C01091D10980919704909198042F
:10522000A0919904B0919A0489839A83AB83BC833B
:1052300080919B0490919C04A0919D04B0919E0448
:105240008D839E83AF83B88780919F049091A00443
:10525000A091A104B091A20489879A87AB87BC87EB
:1052600086E50E94F211882331F06CE273E08DEA4A
:1052700099E00E949DA7812FA7DE111103C0EFEED8
:10528000F2E120C08091D1098111F9CFE5EFF2E17F
:1052900064918F010F5F1F4F662331F08AE992E11D
:1052A0000E94DF10F801F4CFEDE0F3E064918F018C
:1052B0000F5F1F4F662319F38AE992E10E94DF1006
:1052C000F801F4CF64918F010F5F1F4F662331F017
:1052D0008AE992E10E94DF10F801F4CF8091D109B0
:1052E000811103C06CED71E002C068ED71E08FEFD9
:1052F00092E00E9434856AE08AE992E10E94DF1020
:105300004CE050E067E974E0CE0101960E9401BBD9
:10531000892B61F02C960FB6F894DEBF0FBECDBF7F
:10532000DF91CF911F910F910C94871D2C960FB692
:10533000F894DEBF0FBECDBFDF91CF911F910F91CB
:1053400008950E948B750E94EE758EEF15DE0C9409
:10535000C0122F923F924F925F926F927F928F92E4
:105360009F92AF92BF92CF92DF92EF92FF920F93F4
:105370001F93CF93DF93CDB7DEB7A0970FB6F89406
:10538000DEBF0FBECDBF1C017F8F6E8F498F28A35C
:10539000DC018D909D90AD90BC90FB0140805180D0
:1053A000628073800023A1F0A3019201C501B401C2
:1053B0000E945710882309F4EFC120E030E040EA52
:1053C00051E4C501B4010E94EFB34B015C012AC056
:1053D0002FE632E143E85AEBC501B4010E9409B659
:1053E00087FDDAC122E430E048E453E4C501B401AA
:1053F0000E9467B418160CF4CFC12FE632E143E8DF
:105400005AEBC301B2010E9409B687FDC5C122E46F
:1054100030E046E153E4C301B2010E9467B41816BC
:105420000CF4BAC1E0909F04F090A0040091A10494
:105430001091A2048091190190911A01A0911B0171
:10544000B0911C018A8F9B8FAC8FBD8F8091010121
:1054500090910201A0910301B09104018093190180
:1054600090931A01A0931B01B0931C0119821A8218
:105470001B821C82DE0111966D01A3019201C50100
:10548000B4010E94641581E00E9442178111E4C0BA
:105490008091850482FF11C02091AA023091AB0255
:1054A0004091AC025091AD0260E070E080E090EC81
:1054B0000E94EFB32B013C0106C0412C512C90E21D
:1054C000692E91EC792E4D865E866F86788AC12C86
:1054D000D12C80E8E82E80E4F82EC986DA86EB86A7
:1054E000FC86BE01675F7F4FCE010D960E9441167C
:1054F00010913B0910923B0982E03EDD0E94C012F0
:1055000012FD05C060E070E080EC9FE75EC0809017
:105510009F049090A004A090A104B090A204C9821E
:10552000DA82EB82FC8220E030E040E450E4C50106
:10553000B4010E94F0B36D837E838F839887BE0190
:105540006F5F7F4FCE0105960E9441164D825E82AD
:105550006F82788680E090E0A0E0B0E489839A834F
:10556000AB83BC83BE016F5F7F4FCE0105960E9467
:10557000411610913B0910923B0982E0FDDC0E942C
:10558000C01212FFBFCF20E030E040E450E4609151
:105590009F047091A0048091A1049091A2040E94A4
:1055A0003DB62B013C01A5019401C501B4010E9447
:1055B000F0B39B01AC01C301B2010E94F0B32DEC2A
:1055C0003CEC4CE45EE30E943DB62091AA0230918F
:1055D000AB024091AC025091AD020E94F0B35B016E
:1055E0008C01898D8250823050F580E090E0A0E8F7
:1055F000B0E4898B9A8BAB8BBC8B60919F047091CC
:10560000A0048091A1049091A204B98DB33029F037
:1056100020E030E040E450E404C020E030E048EC1A
:1056200051E40E94F0B36D8B7E8B8F8B988FBE01FF
:105630006F5E7F4FCE0145960E94411608C0E98DEE
:10564000E13029F480E00E944217811105C0F8A1E1
:10565000F33008F46FC008C098A1933008F4A1C0DB
:10566000A12CB12C00EC1FE7EAE1F8E064914F01B6
:105670002FEF821A920A662331F08AE992E10E94A2
:10568000DF10F401F3CF2091CA023091CB02409198
:10569000CC025091CD02D1016D917D918D919C9163
:1056A0000E94F0B3AB01BC0123E08AE992E10E94C1
:1056B00069ABE5E1F8E064914F01BFEF8B1A9B0AFB
:1056C000662331F08AE992E10E94DF10F401F3CF02
:1056D0002091CE023091CF024091D0025091D10260
:1056E000EE8DFF8D60817181828193810E94F0B384
:1056F000AB01BC0123E08AE992E10E9469ABE0E1E1
:10570000F8E064914F012FEF821A920A662331F07C
:105710008AE992E10E94DF10F401F3CF23E0A501B2
:10572000B8018AE992E10E9469AB6AE08AE992E1F4
:105730000E94DF108A8D9B8DAC8DBD8D80931901E9
:1057400090931A01A0931B01B0931C019501A8012D
:10575000B501C8010E94E2B68823A1F1E5EFF2E1AC
:1057600064914F019FEF891A990A662331F08AE903
:1057700092E10E94DF10F401F3CFE0E0F8E06491E1
:105780004F01AFEF8A1A9A0A6623E1F08AE992E1A3
:105790000E94DF10F401F3CFA12CB12C00EC1FE725
:1057A00011C08A8D9B8DAC8DBD8D80931901909316
:1057B0001A01A0931B01B0931C01A12CB12C00EC89
:1057C0001FE7CCCFB501C801A0960FB6F894DEBF95
:1057D0000FBECDBFDF91CF911F910F91FF90EF9042
:1057E000DF90CF90BF90AF909F908F907F906F9001
:1057F0005F904F903F902F9008952F923F924F923D
:105800005F926F927F928F929F92AF92BF92CF9250
:10581000DF92EF92FF920F931F93CF93DF93CDB759
:10582000DEB7C558D1090FB6F894DEBF0FBECDBFA5
:1058300041E061E081E00E94B81681119DC2809133
:10584000D109882379F08FE40E943D12882329F042
:105850000E94B112882331F08FC28FE40E94F211AE
:1058600081118AC2C12CD12C760100E010E020E227
:1058700031E440E050E060EA71E4CE0101960E941C
:1058800050A200E010E020E231E440E050E06EE39E
:1058900073E4CE010D960E9450A200E010E02CE0CF
:1058A00033E440E050E068EC72E4CE0149960E9497
:1058B00050A2F090D1098AE40E94F211882311F0DD
:1058C0009BDB5AC286E50E943D12882321F00E948C
:1058D00080121B0102C0212C312C25E0221631043C
:1058E00080F0EAE2F7E064917F013FEFE31AF30A08
:1058F000662309F441C28AE992E10E94DF10F701B0
:10590000F2CF84E40E943D12882341F00E94B1123C
:10591000CB57DF4F8883C558D04008C084E40E942D
:10592000F211CB57DF4F8883C558D0402114310482
:1059300051F1E4E1F7E064916F014FEFC41AD40A2A
:10594000662331F08AE992E10E94DF10F601F3CF7D
:10595000CB57DF4F5881C558D040552379F0EAE046
:10596000F7E064916F018FEFC81AD80A662331F00F
:105970008AE992E10E94DF10F601F3CF6AE08AE93A
:1059800092E10E94DF100E94EE7580E01DDB81E055
:105990000E944217882319F08F2D16DBEDC10E945B
:1059A000801619A21AA21BA21CA21D8A1E8A1F8A77
:1059B000188E19861A861B861C8685E40E943D1265
:1059C000882329F00E94B112882341F005C085E4A4
:1059D0000E94F211882311F011E001C012E0DE01F3
:1059E00011966D015E01B5E2AB0EB11CF60180812E
:1059F0009181A281B3816D968CAF9DAFAEAFBFAFE9
:105A00006D9784819581A681B78169968CAF9DAF92
:105A1000AEAFBFAF699701E0222D412FBE016B5A97
:105A20007F4FCE01875A9F4F94DC2B013C019B0195
:105A3000AC010E94E2B6882319F08F2DC5DAF1C0BF
:105A4000D60118964D925D926D927C921B97BCE0A8
:105A5000CB0ED11CCA14DB0449F6CB57DF4FB881FB
:105A6000C558D040B111DDC0AD84BE84CF84D88884
:105A7000E988FA880B891C892D893E894F89588DC0
:105A8000BE01675E7F4FCE01C1960E942DA3AD84FB
:105A9000BE84CF84D888E988FA880B891C892D892F
:105AA0003E894F89588DBE016F5F7F4FCE0185962D
:105AB0000E942DA34DB75EB74C5051090FB6F89414
:105AC0005EBF0FBE4DBFADB7BEB711968CE0FE01F5
:105AD000F19601900D928A95E1F7CDA0DEA0EFA09E
